{
	"contracts/device.sol": {
		"Device": {
			"abi": [
				{
					"inputs": [
						{
							"internalType": "uint256",
							"name": "",
							"type": "uint256"
						}
					],
					"name": "devices",
					"outputs": [
						{
							"internalType": "uint256",
							"name": "id",
							"type": "uint256"
						},
						{
							"internalType": "address",
							"name": "owner",
							"type": "address"
						},
						{
							"internalType": "enum DeviceStatus",
							"name": "status",
							"type": "uint8"
						},
						{
							"internalType": "string",
							"name": "machineId",
							"type": "string"
						},
						{
							"internalType": "string",
							"name": "serverInfo",
							"type": "string"
						},
						{
							"components": [
								{
									"internalType": "uint256",
									"name": "serverPrice",
									"type": "uint256"
								},
								{
									"internalType": "uint256",
									"name": "storagePrice",
									"type": "uint256"
								},
								{
									"internalType": "uint256",
									"name": "upbandWidth",
									"type": "uint256"
								},
								{
									"internalType": "uint256",
									"name": "downbandWidth",
									"type": "uint256"
								}
							],
							"internalType": "struct Price",
							"name": "price",
							"type": "tuple"
						}
					],
					"stateMutability": "view",
					"type": "function"
				},
				{
					"inputs": [
						{
							"internalType": "uint256",
							"name": "_deviceId",
							"type": "uint256"
						}
					],
					"name": "getDevice",
					"outputs": [
						{
							"components": [
								{
									"internalType": "uint256",
									"name": "id",
									"type": "uint256"
								},
								{
									"internalType": "address",
									"name": "owner",
									"type": "address"
								},
								{
									"internalType": "enum DeviceStatus",
									"name": "status",
									"type": "uint8"
								},
								{
									"internalType": "string",
									"name": "machineId",
									"type": "string"
								},
								{
									"internalType": "string",
									"name": "serverInfo",
									"type": "string"
								},
								{
									"components": [
										{
											"internalType": "uint256",
											"name": "serverPrice",
											"type": "uint256"
										},
										{
											"internalType": "uint256",
											"name": "storagePrice",
											"type": "uint256"
										},
										{
											"internalType": "uint256",
											"name": "upbandWidth",
											"type": "uint256"
										},
										{
											"internalType": "uint256",
											"name": "downbandWidth",
											"type": "uint256"
										}
									],
									"internalType": "struct Price",
									"name": "price",
									"type": "tuple"
								}
							],
							"internalType": "struct deviceInfo",
							"name": "",
							"type": "tuple"
						}
					],
					"stateMutability": "view",
					"type": "function"
				}
			],
			"devdoc": {
				"kind": "dev",
				"methods": {},
				"version": 1
			},
			"evm": {
				"assembly": "    /* \"contracts/device.sol\":382:1973  contract Device {... */\n  mstore(0x40, 0x80)\n    /* \"contracts/device.sol\":414:415  0 */\n  0x00\n    /* \"contracts/device.sol\":404:415  uint id = 0 */\n  dup1\n  sstore\n    /* \"contracts/device.sol\":382:1973  contract Device {... */\n  callvalue\n  dup1\n  iszero\n  tag_1\n  jumpi\n  0x00\n  dup1\n  revert\ntag_1:\n  pop\n  dataSize(sub_0)\n  dup1\n  dataOffset(sub_0)\n  0x00\n  codecopy\n  0x00\n  return\nstop\n\nsub_0: assembly {\n        /* \"contracts/device.sol\":382:1973  contract Device {... */\n      mstore(0x40, 0x80)\n      callvalue\n      dup1\n      iszero\n      tag_1\n      jumpi\n      0x00\n      dup1\n      revert\n    tag_1:\n      pop\n      jumpi(tag_2, lt(calldatasize, 0x04))\n      shr(0xe0, calldataload(0x00))\n      dup1\n      0x09f110b1\n      eq\n      tag_3\n      jumpi\n      dup1\n      0x10ff8e31\n      eq\n      tag_4\n      jumpi\n    tag_2:\n      0x00\n      dup1\n      revert\n        /* \"contracts/device.sol\":954:1128  function getDevice(uint _deviceId) view public returns(deviceInfo memory) {... */\n    tag_3:\n      tag_5\n      0x04\n      dup1\n      calldatasize\n      sub\n      dup2\n      add\n      swap1\n      tag_6\n      swap2\n      swap1\n      tag_7\n      jump\t// in\n    tag_6:\n      tag_8\n      jump\t// in\n    tag_5:\n      mload(0x40)\n      tag_9\n      swap2\n      swap1\n      tag_10\n      jump\t// in\n    tag_9:\n      mload(0x40)\n      dup1\n      swap2\n      sub\n      swap1\n      return\n        /* \"contracts/device.sol\":421:449  deviceInfo [] public devices */\n    tag_4:\n      tag_11\n      0x04\n      dup1\n      calldatasize\n      sub\n      dup2\n      add\n      swap1\n      tag_12\n      swap2\n      swap1\n      tag_7\n      jump\t// in\n    tag_12:\n      tag_13\n      jump\t// in\n    tag_11:\n      mload(0x40)\n      tag_14\n      swap7\n      swap6\n      swap5\n      swap4\n      swap3\n      swap2\n      swap1\n      tag_15\n      jump\t// in\n    tag_14:\n      mload(0x40)\n      dup1\n      swap2\n      sub\n      swap1\n      return\n        /* \"contracts/device.sol\":954:1128  function getDevice(uint _deviceId) view public returns(deviceInfo memory) {... */\n    tag_8:\n        /* \"contracts/device.sol\":1009:1026  deviceInfo memory */\n      tag_16\n      tag_17\n      jump\t// in\n    tag_16:\n        /* \"contracts/device.sol\":1058:1059  0 */\n      0x00\n        /* \"contracts/device.sol\":1046:1055  _deviceId */\n      dup3\n        /* \"contracts/device.sol\":1046:1059  _deviceId > 0 */\n      gt\n        /* \"contracts/device.sol\":1038:1082  require(_deviceId > 0, \"need device_id > 0\") */\n      tag_19\n      jumpi\n      mload(0x40)\n      0x08c379a000000000000000000000000000000000000000000000000000000000\n      dup2\n      mstore\n      0x04\n      add\n      tag_20\n      swap1\n      tag_21\n      jump\t// in\n    tag_20:\n      mload(0x40)\n      dup1\n      swap2\n      sub\n      swap1\n      revert\n    tag_19:\n        /* \"contracts/device.sol\":1099:1106  devices */\n      0x01\n        /* \"contracts/device.sol\":1119:1120  1 */\n      dup1\n        /* \"contracts/device.sol\":1107:1116  _deviceId */\n      dup4\n        /* \"contracts/device.sol\":1107:1120  _deviceId - 1 */\n      tag_22\n      swap2\n      swap1\n      tag_23\n      jump\t// in\n    tag_22:\n        /* \"contracts/device.sol\":1099:1121  devices[_deviceId - 1] */\n      dup2\n      sload\n      dup2\n      lt\n      tag_24\n      jumpi\n      tag_25\n      tag_26\n      jump\t// in\n    tag_25:\n    tag_24:\n      swap1\n      0x00\n      mstore\n      keccak256(0x00, 0x20)\n      swap1\n      0x08\n      mul\n      add\n        /* \"contracts/device.sol\":1092:1121  return devices[_deviceId - 1] */\n      mload(0x40)\n      dup1\n      0xc0\n      add\n      0x40\n      mstore\n      swap1\n      dup2\n      0x00\n      dup3\n      add\n      sload\n      dup2\n      mstore\n      0x20\n      add\n      0x01\n      dup3\n      add\n      0x00\n      swap1\n      sload\n      swap1\n      0x0100\n      exp\n      swap1\n      div\n      0xffffffffffffffffffffffffffffffffffffffff\n      and\n      0xffffffffffffffffffffffffffffffffffffffff\n      and\n      0xffffffffffffffffffffffffffffffffffffffff\n      and\n      dup2\n      mstore\n      0x20\n      add\n      0x01\n      dup3\n      add\n      0x14\n      swap1\n      sload\n      swap1\n      0x0100\n      exp\n      swap1\n      div\n      0xff\n      and\n      0x03\n      dup2\n      gt\n      iszero\n      tag_28\n      jumpi\n      tag_29\n      tag_30\n      jump\t// in\n    tag_29:\n    tag_28:\n      0x03\n      dup2\n      gt\n      iszero\n      tag_31\n      jumpi\n      tag_32\n      tag_30\n      jump\t// in\n    tag_32:\n    tag_31:\n      dup2\n      mstore\n      0x20\n      add\n      0x02\n      dup3\n      add\n      dup1\n      sload\n      tag_33\n      swap1\n      tag_34\n      jump\t// in\n    tag_33:\n      dup1\n      0x1f\n      add\n      0x20\n      dup1\n      swap2\n      div\n      mul\n      0x20\n      add\n      mload(0x40)\n      swap1\n      dup2\n      add\n      0x40\n      mstore\n      dup1\n      swap3\n      swap2\n      swap1\n      dup2\n      dup2\n      mstore\n      0x20\n      add\n      dup3\n      dup1\n      sload\n      tag_35\n      swap1\n      tag_34\n      jump\t// in\n    tag_35:\n      dup1\n      iszero\n      tag_36\n      jumpi\n      dup1\n      0x1f\n      lt\n      tag_37\n      jumpi\n      0x0100\n      dup1\n      dup4\n      sload\n      div\n      mul\n      dup4\n      mstore\n      swap2\n      0x20\n      add\n      swap2\n      jump(tag_36)\n    tag_37:\n      dup3\n      add\n      swap2\n      swap1\n      0x00\n      mstore\n      keccak256(0x00, 0x20)\n      swap1\n    tag_38:\n      dup2\n      sload\n      dup2\n      mstore\n      swap1\n      0x01\n      add\n      swap1\n      0x20\n      add\n      dup1\n      dup4\n      gt\n      tag_38\n      jumpi\n      dup3\n      swap1\n      sub\n      0x1f\n      and\n      dup3\n      add\n      swap2\n    tag_36:\n      pop\n      pop\n      pop\n      pop\n      pop\n      dup2\n      mstore\n      0x20\n      add\n      0x03\n      dup3\n      add\n      dup1\n      sload\n      tag_39\n      swap1\n      tag_34\n      jump\t// in\n    tag_39:\n      dup1\n      0x1f\n      add\n      0x20\n      dup1\n      swap2\n      div\n      mul\n      0x20\n      add\n      mload(0x40)\n      swap1\n      dup2\n      add\n      0x40\n      mstore\n      dup1\n      swap3\n      swap2\n      swap1\n      dup2\n      dup2\n      mstore\n      0x20\n      add\n      dup3\n      dup1\n      sload\n      tag_40\n      swap1\n      tag_34\n      jump\t// in\n    tag_40:\n      dup1\n      iszero\n      tag_41\n      jumpi\n      dup1\n      0x1f\n      lt\n      tag_42\n      jumpi\n      0x0100\n      dup1\n      dup4\n      sload\n      div\n      mul\n      dup4\n      mstore\n      swap2\n      0x20\n      add\n      swap2\n      jump(tag_41)\n    tag_42:\n      dup3\n      add\n      swap2\n      swap1\n      0x00\n      mstore\n      keccak256(0x00, 0x20)\n      swap1\n    tag_43:\n      dup2\n      sload\n      dup2\n      mstore\n      swap1\n      0x01\n      add\n      swap1\n      0x20\n      add\n      dup1\n      dup4\n      gt\n      tag_43\n      jumpi\n      dup3\n      swap1\n      sub\n      0x1f\n      and\n      dup3\n      add\n      swap2\n    tag_41:\n      pop\n      pop\n      pop\n      pop\n      pop\n      dup2\n      mstore\n      0x20\n      add\n      0x04\n      dup3\n      add\n      mload(0x40)\n      dup1\n      0x80\n      add\n      0x40\n      mstore\n      swap1\n      dup2\n      0x00\n      dup3\n      add\n      sload\n      dup2\n      mstore\n      0x20\n      add\n      0x01\n      dup3\n      add\n      sload\n      dup2\n      mstore\n      0x20\n      add\n      0x02\n      dup3\n      add\n      sload\n      dup2\n      mstore\n      0x20\n      add\n      0x03\n      dup3\n      add\n      sload\n      dup2\n      mstore\n      pop\n      pop\n      dup2\n      mstore\n      pop\n      pop\n      swap1\n      pop\n        /* \"contracts/device.sol\":954:1128  function getDevice(uint _deviceId) view public returns(deviceInfo memory) {... */\n      swap2\n      swap1\n      pop\n      jump\t// out\n        /* \"contracts/device.sol\":421:449  deviceInfo [] public devices */\n    tag_13:\n      0x01\n      dup2\n      dup2\n      sload\n      dup2\n      lt\n      tag_44\n      jumpi\n      0x00\n      dup1\n      revert\n    tag_44:\n      swap1\n      0x00\n      mstore\n      keccak256(0x00, 0x20)\n      swap1\n      0x08\n      mul\n      add\n      0x00\n      swap2\n      pop\n      swap1\n      pop\n      dup1\n      0x00\n      add\n      sload\n      swap1\n      dup1\n      0x01\n      add\n      0x00\n      swap1\n      sload\n      swap1\n      0x0100\n      exp\n      swap1\n      div\n      0xffffffffffffffffffffffffffffffffffffffff\n      and\n      swap1\n      dup1\n      0x01\n      add\n      0x14\n      swap1\n      sload\n      swap1\n      0x0100\n      exp\n      swap1\n      div\n      0xff\n      and\n      swap1\n      dup1\n      0x02\n      add\n      dup1\n      sload\n      tag_46\n      swap1\n      tag_34\n      jump\t// in\n    tag_46:\n      dup1\n      0x1f\n      add\n      0x20\n      dup1\n      swap2\n      div\n      mul\n      0x20\n      add\n      mload(0x40)\n      swap1\n      dup2\n      add\n      0x40\n      mstore\n      dup1\n      swap3\n      swap2\n      swap1\n      dup2\n      dup2\n      mstore\n      0x20\n      add\n      dup3\n      dup1\n      sload\n      tag_47\n      swap1\n      tag_34\n      jump\t// in\n    tag_47:\n      dup1\n      iszero\n      tag_48\n      jumpi\n      dup1\n      0x1f\n      lt\n      tag_49\n      jumpi\n      0x0100\n      dup1\n      dup4\n      sload\n      div\n      mul\n      dup4\n      mstore\n      swap2\n      0x20\n      add\n      swap2\n      jump(tag_48)\n    tag_49:\n      dup3\n      add\n      swap2\n      swap1\n      0x00\n      mstore\n      keccak256(0x00, 0x20)\n      swap1\n    tag_50:\n      dup2\n      sload\n      dup2\n      mstore\n      swap1\n      0x01\n      add\n      swap1\n      0x20\n      add\n      dup1\n      dup4\n      gt\n      tag_50\n      jumpi\n      dup3\n      swap1\n      sub\n      0x1f\n      and\n      dup3\n      add\n      swap2\n    tag_48:\n      pop\n      pop\n      pop\n      pop\n      pop\n      swap1\n      dup1\n      0x03\n      add\n      dup1\n      sload\n      tag_51\n      swap1\n      tag_34\n      jump\t// in\n    tag_51:\n      dup1\n      0x1f\n      add\n      0x20\n      dup1\n      swap2\n      div\n      mul\n      0x20\n      add\n      mload(0x40)\n      swap1\n      dup2\n      add\n      0x40\n      mstore\n      dup1\n      swap3\n      swap2\n      swap1\n      dup2\n      dup2\n      mstore\n      0x20\n      add\n      dup3\n      dup1\n      sload\n      tag_52\n      swap1\n      tag_34\n      jump\t// in\n    tag_52:\n      dup1\n      iszero\n      tag_53\n      jumpi\n      dup1\n      0x1f\n      lt\n      tag_54\n      jumpi\n      0x0100\n      dup1\n      dup4\n      sload\n      div\n      mul\n      dup4\n      mstore\n      swap2\n      0x20\n      add\n      swap2\n      jump(tag_53)\n    tag_54:\n      dup3\n      add\n      swap2\n      swap1\n      0x00\n      mstore\n      keccak256(0x00, 0x20)\n      swap1\n    tag_55:\n      dup2\n      sload\n      dup2\n      mstore\n      swap1\n      0x01\n      add\n      swap1\n      0x20\n      add\n      dup1\n      dup4\n      gt\n      tag_55\n      jumpi\n      dup3\n      swap1\n      sub\n      0x1f\n      and\n      dup3\n      add\n      swap2\n    tag_53:\n      pop\n      pop\n      pop\n      pop\n      pop\n      swap1\n      dup1\n      0x04\n      add\n      mload(0x40)\n      dup1\n      0x80\n      add\n      0x40\n      mstore\n      swap1\n      dup2\n      0x00\n      dup3\n      add\n      sload\n      dup2\n      mstore\n      0x20\n      add\n      0x01\n      dup3\n      add\n      sload\n      dup2\n      mstore\n      0x20\n      add\n      0x02\n      dup3\n      add\n      sload\n      dup2\n      mstore\n      0x20\n      add\n      0x03\n      dup3\n      add\n      sload\n      dup2\n      mstore\n      pop\n      pop\n      swap1\n      pop\n      dup7\n      jump\t// out\n    tag_17:\n      mload(0x40)\n      dup1\n      0xc0\n      add\n      0x40\n      mstore\n      dup1\n      0x00\n      dup2\n      mstore\n      0x20\n      add\n      and(0xffffffffffffffffffffffffffffffffffffffff, 0x00)\n      dup2\n      mstore\n      0x20\n      add\n      0x00\n      0x03\n      dup2\n      gt\n      iszero\n      tag_56\n      jumpi\n      tag_57\n      tag_30\n      jump\t// in\n    tag_57:\n    tag_56:\n      dup2\n      mstore\n      0x20\n      add\n      0x60\n      dup2\n      mstore\n      0x20\n      add\n      0x60\n      dup2\n      mstore\n      0x20\n      add\n      tag_58\n      tag_59\n      jump\t// in\n    tag_58:\n      dup2\n      mstore\n      pop\n      swap1\n      jump\t// out\n    tag_59:\n      mload(0x40)\n      dup1\n      0x80\n      add\n      0x40\n      mstore\n      dup1\n      0x00\n      dup2\n      mstore\n      0x20\n      add\n      0x00\n      dup2\n      mstore\n      0x20\n      add\n      0x00\n      dup2\n      mstore\n      0x20\n      add\n      0x00\n      dup2\n      mstore\n      pop\n      swap1\n      jump\t// out\n        /* \"#utility.yul\":88:205   */\n    tag_61:\n        /* \"#utility.yul\":197:198   */\n      0x00\n        /* \"#utility.yul\":194:195   */\n      dup1\n        /* \"#utility.yul\":187:199   */\n      revert\n        /* \"#utility.yul\":334:411   */\n    tag_63:\n        /* \"#utility.yul\":371:378   */\n      0x00\n        /* \"#utility.yul\":400:405   */\n      dup2\n        /* \"#utility.yul\":389:405   */\n      swap1\n      pop\n        /* \"#utility.yul\":334:411   */\n      swap2\n      swap1\n      pop\n      jump\t// out\n        /* \"#utility.yul\":417:539   */\n    tag_64:\n        /* \"#utility.yul\":490:514   */\n      tag_97\n        /* \"#utility.yul\":508:513   */\n      dup2\n        /* \"#utility.yul\":490:514   */\n      tag_63\n      jump\t// in\n    tag_97:\n        /* \"#utility.yul\":483:488   */\n      dup2\n        /* \"#utility.yul\":480:515   */\n      eq\n        /* \"#utility.yul\":470:533   */\n      tag_98\n      jumpi\n        /* \"#utility.yul\":529:530   */\n      0x00\n        /* \"#utility.yul\":526:527   */\n      dup1\n        /* \"#utility.yul\":519:531   */\n      revert\n        /* \"#utility.yul\":470:533   */\n    tag_98:\n        /* \"#utility.yul\":417:539   */\n      pop\n      jump\t// out\n        /* \"#utility.yul\":545:684   */\n    tag_65:\n        /* \"#utility.yul\":591:596   */\n      0x00\n        /* \"#utility.yul\":629:635   */\n      dup2\n        /* \"#utility.yul\":616:636   */\n      calldataload\n        /* \"#utility.yul\":607:636   */\n      swap1\n      pop\n        /* \"#utility.yul\":645:678   */\n      tag_100\n        /* \"#utility.yul\":672:677   */\n      dup2\n        /* \"#utility.yul\":645:678   */\n      tag_64\n      jump\t// in\n    tag_100:\n        /* \"#utility.yul\":545:684   */\n      swap3\n      swap2\n      pop\n      pop\n      jump\t// out\n        /* \"#utility.yul\":690:1019   */\n    tag_7:\n        /* \"#utility.yul\":749:755   */\n      0x00\n        /* \"#utility.yul\":798:800   */\n      0x20\n        /* \"#utility.yul\":786:795   */\n      dup3\n        /* \"#utility.yul\":777:784   */\n      dup5\n        /* \"#utility.yul\":773:796   */\n      sub\n        /* \"#utility.yul\":769:801   */\n      slt\n        /* \"#utility.yul\":766:885   */\n      iszero\n      tag_102\n      jumpi\n        /* \"#utility.yul\":804:883   */\n      tag_103\n      tag_61\n      jump\t// in\n    tag_103:\n        /* \"#utility.yul\":766:885   */\n    tag_102:\n        /* \"#utility.yul\":924:925   */\n      0x00\n        /* \"#utility.yul\":949:1002   */\n      tag_104\n        /* \"#utility.yul\":994:1001   */\n      dup5\n        /* \"#utility.yul\":985:991   */\n      dup3\n        /* \"#utility.yul\":974:983   */\n      dup6\n        /* \"#utility.yul\":970:992   */\n      add\n        /* \"#utility.yul\":949:1002   */\n      tag_65\n      jump\t// in\n    tag_104:\n        /* \"#utility.yul\":939:1002   */\n      swap2\n      pop\n        /* \"#utility.yul\":895:1012   */\n      pop\n        /* \"#utility.yul\":690:1019   */\n      swap3\n      swap2\n      pop\n      pop\n      jump\t// out\n        /* \"#utility.yul\":1025:1133   */\n    tag_66:\n        /* \"#utility.yul\":1102:1126   */\n      tag_106\n        /* \"#utility.yul\":1120:1125   */\n      dup2\n        /* \"#utility.yul\":1102:1126   */\n      tag_63\n      jump\t// in\n    tag_106:\n        /* \"#utility.yul\":1097:1100   */\n      dup3\n        /* \"#utility.yul\":1090:1127   */\n      mstore\n        /* \"#utility.yul\":1025:1133   */\n      pop\n      pop\n      jump\t// out\n        /* \"#utility.yul\":1139:1265   */\n    tag_67:\n        /* \"#utility.yul\":1176:1183   */\n      0x00\n        /* \"#utility.yul\":1216:1258   */\n      0xffffffffffffffffffffffffffffffffffffffff\n        /* \"#utility.yul\":1209:1214   */\n      dup3\n        /* \"#utility.yul\":1205:1259   */\n      and\n        /* \"#utility.yul\":1194:1259   */\n      swap1\n      pop\n        /* \"#utility.yul\":1139:1265   */\n      swap2\n      swap1\n      pop\n      jump\t// out\n        /* \"#utility.yul\":1271:1367   */\n    tag_68:\n        /* \"#utility.yul\":1308:1315   */\n      0x00\n        /* \"#utility.yul\":1337:1361   */\n      tag_109\n        /* \"#utility.yul\":1355:1360   */\n      dup3\n        /* \"#utility.yul\":1337:1361   */\n      tag_67\n      jump\t// in\n    tag_109:\n        /* \"#utility.yul\":1326:1361   */\n      swap1\n      pop\n        /* \"#utility.yul\":1271:1367   */\n      swap2\n      swap1\n      pop\n      jump\t// out\n        /* \"#utility.yul\":1373:1481   */\n    tag_69:\n        /* \"#utility.yul\":1450:1474   */\n      tag_111\n        /* \"#utility.yul\":1468:1473   */\n      dup2\n        /* \"#utility.yul\":1450:1474   */\n      tag_68\n      jump\t// in\n    tag_111:\n        /* \"#utility.yul\":1445:1448   */\n      dup3\n        /* \"#utility.yul\":1438:1475   */\n      mstore\n        /* \"#utility.yul\":1373:1481   */\n      pop\n      pop\n      jump\t// out\n        /* \"#utility.yul\":1487:1667   */\n    tag_30:\n        /* \"#utility.yul\":1535:1612   */\n      0x4e487b7100000000000000000000000000000000000000000000000000000000\n        /* \"#utility.yul\":1532:1533   */\n      0x00\n        /* \"#utility.yul\":1525:1613   */\n      mstore\n        /* \"#utility.yul\":1632:1636   */\n      0x21\n        /* \"#utility.yul\":1629:1630   */\n      0x04\n        /* \"#utility.yul\":1622:1637   */\n      mstore\n        /* \"#utility.yul\":1656:1660   */\n      0x24\n        /* \"#utility.yul\":1653:1654   */\n      0x00\n        /* \"#utility.yul\":1646:1661   */\n      revert\n        /* \"#utility.yul\":1673:1792   */\n    tag_70:\n        /* \"#utility.yul\":1760:1761   */\n      0x04\n        /* \"#utility.yul\":1753:1758   */\n      dup2\n        /* \"#utility.yul\":1750:1762   */\n      lt\n        /* \"#utility.yul\":1740:1786   */\n      tag_114\n      jumpi\n        /* \"#utility.yul\":1766:1784   */\n      tag_115\n      tag_30\n      jump\t// in\n    tag_115:\n        /* \"#utility.yul\":1740:1786   */\n    tag_114:\n        /* \"#utility.yul\":1673:1792   */\n      pop\n      jump\t// out\n        /* \"#utility.yul\":1798:1937   */\n    tag_71:\n        /* \"#utility.yul\":1849:1856   */\n      0x00\n        /* \"#utility.yul\":1878:1883   */\n      dup2\n        /* \"#utility.yul\":1867:1883   */\n      swap1\n      pop\n        /* \"#utility.yul\":1884:1931   */\n      tag_117\n        /* \"#utility.yul\":1925:1930   */\n      dup3\n        /* \"#utility.yul\":1884:1931   */\n      tag_70\n      jump\t// in\n    tag_117:\n        /* \"#utility.yul\":1798:1937   */\n      swap2\n      swap1\n      pop\n      jump\t// out\n        /* \"#utility.yul\":1943:2082   */\n    tag_72:\n        /* \"#utility.yul\":2005:2014   */\n      0x00\n        /* \"#utility.yul\":2038:2076   */\n      tag_119\n        /* \"#utility.yul\":2070:2075   */\n      dup3\n        /* \"#utility.yul\":2038:2076   */\n      tag_71\n      jump\t// in\n    tag_119:\n        /* \"#utility.yul\":2025:2076   */\n      swap1\n      pop\n        /* \"#utility.yul\":1943:2082   */\n      swap2\n      swap1\n      pop\n      jump\t// out\n        /* \"#utility.yul\":2088:2233   */\n    tag_73:\n        /* \"#utility.yul\":2177:2226   */\n      tag_121\n        /* \"#utility.yul\":2220:2225   */\n      dup2\n        /* \"#utility.yul\":2177:2226   */\n      tag_72\n      jump\t// in\n    tag_121:\n        /* \"#utility.yul\":2172:2175   */\n      dup3\n        /* \"#utility.yul\":2165:2227   */\n      mstore\n        /* \"#utility.yul\":2088:2233   */\n      pop\n      pop\n      jump\t// out\n        /* \"#utility.yul\":2239:2338   */\n    tag_74:\n        /* \"#utility.yul\":2291:2297   */\n      0x00\n        /* \"#utility.yul\":2325:2330   */\n      dup2\n        /* \"#utility.yul\":2319:2331   */\n      mload\n        /* \"#utility.yul\":2309:2331   */\n      swap1\n      pop\n        /* \"#utility.yul\":2239:2338   */\n      swap2\n      swap1\n      pop\n      jump\t// out\n        /* \"#utility.yul\":2344:2503   */\n    tag_75:\n        /* \"#utility.yul\":2418:2429   */\n      0x00\n        /* \"#utility.yul\":2452:2458   */\n      dup3\n        /* \"#utility.yul\":2447:2450   */\n      dup3\n        /* \"#utility.yul\":2440:2459   */\n      mstore\n        /* \"#utility.yul\":2492:2496   */\n      0x20\n        /* \"#utility.yul\":2487:2490   */\n      dup3\n        /* \"#utility.yul\":2483:2497   */\n      add\n        /* \"#utility.yul\":2468:2497   */\n      swap1\n      pop\n        /* \"#utility.yul\":2344:2503   */\n      swap3\n      swap2\n      pop\n      pop\n      jump\t// out\n        /* \"#utility.yul\":2509:2755   */\n    tag_76:\n        /* \"#utility.yul\":2590:2591   */\n      0x00\n        /* \"#utility.yul\":2600:2713   */\n    tag_125:\n        /* \"#utility.yul\":2614:2620   */\n      dup4\n        /* \"#utility.yul\":2611:2612   */\n      dup2\n        /* \"#utility.yul\":2608:2621   */\n      lt\n        /* \"#utility.yul\":2600:2713   */\n      iszero\n      tag_127\n      jumpi\n        /* \"#utility.yul\":2699:2700   */\n      dup1\n        /* \"#utility.yul\":2694:2697   */\n      dup3\n        /* \"#utility.yul\":2690:2701   */\n      add\n        /* \"#utility.yul\":2684:2702   */\n      mload\n        /* \"#utility.yul\":2680:2681   */\n      dup2\n        /* \"#utility.yul\":2675:2678   */\n      dup5\n        /* \"#utility.yul\":2671:2682   */\n      add\n        /* \"#utility.yul\":2664:2703   */\n      mstore\n        /* \"#utility.yul\":2636:2638   */\n      0x20\n        /* \"#utility.yul\":2633:2634   */\n      dup2\n        /* \"#utility.yul\":2629:2639   */\n      add\n        /* \"#utility.yul\":2624:2639   */\n      swap1\n      pop\n        /* \"#utility.yul\":2600:2713   */\n      jump(tag_125)\n    tag_127:\n        /* \"#utility.yul\":2747:2748   */\n      0x00\n        /* \"#utility.yul\":2738:2744   */\n      dup5\n        /* \"#utility.yul\":2733:2736   */\n      dup5\n        /* \"#utility.yul\":2729:2745   */\n      add\n        /* \"#utility.yul\":2722:2749   */\n      mstore\n        /* \"#utility.yul\":2571:2755   */\n      pop\n        /* \"#utility.yul\":2509:2755   */\n      pop\n      pop\n      pop\n      jump\t// out\n        /* \"#utility.yul\":2761:2863   */\n    tag_77:\n        /* \"#utility.yul\":2802:2808   */\n      0x00\n        /* \"#utility.yul\":2853:2855   */\n      0x1f\n        /* \"#utility.yul\":2849:2856   */\n      not\n        /* \"#utility.yul\":2844:2846   */\n      0x1f\n        /* \"#utility.yul\":2837:2842   */\n      dup4\n        /* \"#utility.yul\":2833:2847   */\n      add\n        /* \"#utility.yul\":2829:2857   */\n      and\n        /* \"#utility.yul\":2819:2857   */\n      swap1\n      pop\n        /* \"#utility.yul\":2761:2863   */\n      swap2\n      swap1\n      pop\n      jump\t// out\n        /* \"#utility.yul\":2869:3226   */\n    tag_78:\n        /* \"#utility.yul\":2947:2950   */\n      0x00\n        /* \"#utility.yul\":2975:3014   */\n      tag_130\n        /* \"#utility.yul\":3008:3013   */\n      dup3\n        /* \"#utility.yul\":2975:3014   */\n      tag_74\n      jump\t// in\n    tag_130:\n        /* \"#utility.yul\":3030:3091   */\n      tag_131\n        /* \"#utility.yul\":3084:3090   */\n      dup2\n        /* \"#utility.yul\":3079:3082   */\n      dup6\n        /* \"#utility.yul\":3030:3091   */\n      tag_75\n      jump\t// in\n    tag_131:\n        /* \"#utility.yul\":3023:3091   */\n      swap4\n      pop\n        /* \"#utility.yul\":3100:3165   */\n      tag_132\n        /* \"#utility.yul\":3158:3164   */\n      dup2\n        /* \"#utility.yul\":3153:3156   */\n      dup6\n        /* \"#utility.yul\":3146:3150   */\n      0x20\n        /* \"#utility.yul\":3139:3144   */\n      dup7\n        /* \"#utility.yul\":3135:3151   */\n      add\n        /* \"#utility.yul\":3100:3165   */\n      tag_76\n      jump\t// in\n    tag_132:\n        /* \"#utility.yul\":3190:3219   */\n      tag_133\n        /* \"#utility.yul\":3212:3218   */\n      dup2\n        /* \"#utility.yul\":3190:3219   */\n      tag_77\n      jump\t// in\n    tag_133:\n        /* \"#utility.yul\":3185:3188   */\n      dup5\n        /* \"#utility.yul\":3181:3220   */\n      add\n        /* \"#utility.yul\":3174:3220   */\n      swap2\n      pop\n        /* \"#utility.yul\":2951:3226   */\n      pop\n        /* \"#utility.yul\":2869:3226   */\n      swap3\n      swap2\n      pop\n      pop\n      jump\t// out\n        /* \"#utility.yul\":3268:4136   */\n    tag_79:\n        /* \"#utility.yul\":3397:3401   */\n      0x80\n        /* \"#utility.yul\":3392:3395   */\n      dup3\n        /* \"#utility.yul\":3388:3402   */\n      add\n        /* \"#utility.yul\":3491:3495   */\n      0x00\n        /* \"#utility.yul\":3484:3489   */\n      dup3\n        /* \"#utility.yul\":3480:3496   */\n      add\n        /* \"#utility.yul\":3474:3497   */\n      mload\n        /* \"#utility.yul\":3510:3573   */\n      tag_135\n        /* \"#utility.yul\":3567:3571   */\n      0x00\n        /* \"#utility.yul\":3562:3565   */\n      dup6\n        /* \"#utility.yul\":3558:3572   */\n      add\n        /* \"#utility.yul\":3544:3556   */\n      dup3\n        /* \"#utility.yul\":3510:3573   */\n      tag_66\n      jump\t// in\n    tag_135:\n        /* \"#utility.yul\":3412:3583   */\n      pop\n        /* \"#utility.yul\":3673:3677   */\n      0x20\n        /* \"#utility.yul\":3666:3671   */\n      dup3\n        /* \"#utility.yul\":3662:3678   */\n      add\n        /* \"#utility.yul\":3656:3679   */\n      mload\n        /* \"#utility.yul\":3692:3755   */\n      tag_136\n        /* \"#utility.yul\":3749:3753   */\n      0x20\n        /* \"#utility.yul\":3744:3747   */\n      dup6\n        /* \"#utility.yul\":3740:3754   */\n      add\n        /* \"#utility.yul\":3726:3738   */\n      dup3\n        /* \"#utility.yul\":3692:3755   */\n      tag_66\n      jump\t// in\n    tag_136:\n        /* \"#utility.yul\":3593:3765   */\n      pop\n        /* \"#utility.yul\":3854:3858   */\n      0x40\n        /* \"#utility.yul\":3847:3852   */\n      dup3\n        /* \"#utility.yul\":3843:3859   */\n      add\n        /* \"#utility.yul\":3837:3860   */\n      mload\n        /* \"#utility.yul\":3873:3936   */\n      tag_137\n        /* \"#utility.yul\":3930:3934   */\n      0x40\n        /* \"#utility.yul\":3925:3928   */\n      dup6\n        /* \"#utility.yul\":3921:3935   */\n      add\n        /* \"#utility.yul\":3907:3919   */\n      dup3\n        /* \"#utility.yul\":3873:3936   */\n      tag_66\n      jump\t// in\n    tag_137:\n        /* \"#utility.yul\":3775:3946   */\n      pop\n        /* \"#utility.yul\":4037:4041   */\n      0x60\n        /* \"#utility.yul\":4030:4035   */\n      dup3\n        /* \"#utility.yul\":4026:4042   */\n      add\n        /* \"#utility.yul\":4020:4043   */\n      mload\n        /* \"#utility.yul\":4056:4119   */\n      tag_138\n        /* \"#utility.yul\":4113:4117   */\n      0x60\n        /* \"#utility.yul\":4108:4111   */\n      dup6\n        /* \"#utility.yul\":4104:4118   */\n      add\n        /* \"#utility.yul\":4090:4102   */\n      dup3\n        /* \"#utility.yul\":4056:4119   */\n      tag_66\n      jump\t// in\n    tag_138:\n        /* \"#utility.yul\":3956:4129   */\n      pop\n        /* \"#utility.yul\":3366:4136   */\n      pop\n        /* \"#utility.yul\":3268:4136   */\n      pop\n      pop\n      jump\t// out\n        /* \"#utility.yul\":4188:5632   */\n    tag_80:\n        /* \"#utility.yul\":4309:4312   */\n      0x00\n        /* \"#utility.yul\":4345:4351   */\n      0x0120\n        /* \"#utility.yul\":4340:4343   */\n      dup4\n        /* \"#utility.yul\":4336:4352   */\n      add\n        /* \"#utility.yul\":4432:4436   */\n      0x00\n        /* \"#utility.yul\":4425:4430   */\n      dup4\n        /* \"#utility.yul\":4421:4437   */\n      add\n        /* \"#utility.yul\":4415:4438   */\n      mload\n        /* \"#utility.yul\":4451:4514   */\n      tag_140\n        /* \"#utility.yul\":4508:4512   */\n      0x00\n        /* \"#utility.yul\":4503:4506   */\n      dup7\n        /* \"#utility.yul\":4499:4513   */\n      add\n        /* \"#utility.yul\":4485:4497   */\n      dup3\n        /* \"#utility.yul\":4451:4514   */\n      tag_66\n      jump\t// in\n    tag_140:\n        /* \"#utility.yul\":4362:4524   */\n      pop\n        /* \"#utility.yul\":4607:4611   */\n      0x20\n        /* \"#utility.yul\":4600:4605   */\n      dup4\n        /* \"#utility.yul\":4596:4612   */\n      add\n        /* \"#utility.yul\":4590:4613   */\n      mload\n        /* \"#utility.yul\":4626:4689   */\n      tag_141\n        /* \"#utility.yul\":4683:4687   */\n      0x20\n        /* \"#utility.yul\":4678:4681   */\n      dup7\n        /* \"#utility.yul\":4674:4688   */\n      add\n        /* \"#utility.yul\":4660:4672   */\n      dup3\n        /* \"#utility.yul\":4626:4689   */\n      tag_69\n      jump\t// in\n    tag_141:\n        /* \"#utility.yul\":4534:4699   */\n      pop\n        /* \"#utility.yul\":4783:4787   */\n      0x40\n        /* \"#utility.yul\":4776:4781   */\n      dup4\n        /* \"#utility.yul\":4772:4788   */\n      add\n        /* \"#utility.yul\":4766:4789   */\n      mload\n        /* \"#utility.yul\":4802:4877   */\n      tag_142\n        /* \"#utility.yul\":4871:4875   */\n      0x40\n        /* \"#utility.yul\":4866:4869   */\n      dup7\n        /* \"#utility.yul\":4862:4876   */\n      add\n        /* \"#utility.yul\":4848:4860   */\n      dup3\n        /* \"#utility.yul\":4802:4877   */\n      tag_73\n      jump\t// in\n    tag_142:\n        /* \"#utility.yul\":4709:4887   */\n      pop\n        /* \"#utility.yul\":4974:4978   */\n      0x60\n        /* \"#utility.yul\":4967:4972   */\n      dup4\n        /* \"#utility.yul\":4963:4979   */\n      add\n        /* \"#utility.yul\":4957:4980   */\n      mload\n        /* \"#utility.yul\":5027:5030   */\n      dup5\n        /* \"#utility.yul\":5021:5025   */\n      dup3\n        /* \"#utility.yul\":5017:5031   */\n      sub\n        /* \"#utility.yul\":5010:5014   */\n      0x60\n        /* \"#utility.yul\":5005:5008   */\n      dup7\n        /* \"#utility.yul\":5001:5015   */\n      add\n        /* \"#utility.yul\":4994:5032   */\n      mstore\n        /* \"#utility.yul\":5053:5126   */\n      tag_143\n        /* \"#utility.yul\":5121:5125   */\n      dup3\n        /* \"#utility.yul\":5107:5119   */\n      dup3\n        /* \"#utility.yul\":5053:5126   */\n      tag_78\n      jump\t// in\n    tag_143:\n        /* \"#utility.yul\":5045:5126   */\n      swap2\n      pop\n        /* \"#utility.yul\":4897:5137   */\n      pop\n        /* \"#utility.yul\":5225:5229   */\n      0x80\n        /* \"#utility.yul\":5218:5223   */\n      dup4\n        /* \"#utility.yul\":5214:5230   */\n      add\n        /* \"#utility.yul\":5208:5231   */\n      mload\n        /* \"#utility.yul\":5278:5281   */\n      dup5\n        /* \"#utility.yul\":5272:5276   */\n      dup3\n        /* \"#utility.yul\":5268:5282   */\n      sub\n        /* \"#utility.yul\":5261:5265   */\n      0x80\n        /* \"#utility.yul\":5256:5259   */\n      dup7\n        /* \"#utility.yul\":5252:5266   */\n      add\n        /* \"#utility.yul\":5245:5283   */\n      mstore\n        /* \"#utility.yul\":5304:5377   */\n      tag_144\n        /* \"#utility.yul\":5372:5376   */\n      dup3\n        /* \"#utility.yul\":5358:5370   */\n      dup3\n        /* \"#utility.yul\":5304:5377   */\n      tag_78\n      jump\t// in\n    tag_144:\n        /* \"#utility.yul\":5296:5377   */\n      swap2\n      pop\n        /* \"#utility.yul\":5147:5388   */\n      pop\n        /* \"#utility.yul\":5471:5475   */\n      0xa0\n        /* \"#utility.yul\":5464:5469   */\n      dup4\n        /* \"#utility.yul\":5460:5476   */\n      add\n        /* \"#utility.yul\":5454:5477   */\n      mload\n        /* \"#utility.yul\":5490:5595   */\n      tag_145\n        /* \"#utility.yul\":5589:5593   */\n      0xa0\n        /* \"#utility.yul\":5584:5587   */\n      dup7\n        /* \"#utility.yul\":5580:5594   */\n      add\n        /* \"#utility.yul\":5566:5578   */\n      dup3\n        /* \"#utility.yul\":5490:5595   */\n      tag_79\n      jump\t// in\n    tag_145:\n        /* \"#utility.yul\":5398:5605   */\n      pop\n        /* \"#utility.yul\":5622:5626   */\n      dup1\n        /* \"#utility.yul\":5615:5626   */\n      swap2\n      pop\n        /* \"#utility.yul\":4314:5632   */\n      pop\n        /* \"#utility.yul\":4188:5632   */\n      swap3\n      swap2\n      pop\n      pop\n      jump\t// out\n        /* \"#utility.yul\":5638:6015   */\n    tag_10:\n        /* \"#utility.yul\":5783:5787   */\n      0x00\n        /* \"#utility.yul\":5821:5823   */\n      0x20\n        /* \"#utility.yul\":5810:5819   */\n      dup3\n        /* \"#utility.yul\":5806:5824   */\n      add\n        /* \"#utility.yul\":5798:5824   */\n      swap1\n      pop\n        /* \"#utility.yul\":5870:5879   */\n      dup2\n        /* \"#utility.yul\":5864:5868   */\n      dup2\n        /* \"#utility.yul\":5860:5880   */\n      sub\n        /* \"#utility.yul\":5856:5857   */\n      0x00\n        /* \"#utility.yul\":5845:5854   */\n      dup4\n        /* \"#utility.yul\":5841:5858   */\n      add\n        /* \"#utility.yul\":5834:5881   */\n      mstore\n        /* \"#utility.yul\":5898:6008   */\n      tag_147\n        /* \"#utility.yul\":6003:6007   */\n      dup2\n        /* \"#utility.yul\":5994:6000   */\n      dup5\n        /* \"#utility.yul\":5898:6008   */\n      tag_80\n      jump\t// in\n    tag_147:\n        /* \"#utility.yul\":5890:6008   */\n      swap1\n      pop\n        /* \"#utility.yul\":5638:6015   */\n      swap3\n      swap2\n      pop\n      pop\n      jump\t// out\n        /* \"#utility.yul\":6021:6139   */\n    tag_81:\n        /* \"#utility.yul\":6108:6132   */\n      tag_149\n        /* \"#utility.yul\":6126:6131   */\n      dup2\n        /* \"#utility.yul\":6108:6132   */\n      tag_63\n      jump\t// in\n    tag_149:\n        /* \"#utility.yul\":6103:6106   */\n      dup3\n        /* \"#utility.yul\":6096:6133   */\n      mstore\n        /* \"#utility.yul\":6021:6139   */\n      pop\n      pop\n      jump\t// out\n        /* \"#utility.yul\":6145:6263   */\n    tag_82:\n        /* \"#utility.yul\":6232:6256   */\n      tag_151\n        /* \"#utility.yul\":6250:6255   */\n      dup2\n        /* \"#utility.yul\":6232:6256   */\n      tag_68\n      jump\t// in\n    tag_151:\n        /* \"#utility.yul\":6227:6230   */\n      dup3\n        /* \"#utility.yul\":6220:6257   */\n      mstore\n        /* \"#utility.yul\":6145:6263   */\n      pop\n      pop\n      jump\t// out\n        /* \"#utility.yul\":6269:6424   */\n    tag_83:\n        /* \"#utility.yul\":6368:6417   */\n      tag_153\n        /* \"#utility.yul\":6411:6416   */\n      dup2\n        /* \"#utility.yul\":6368:6417   */\n      tag_72\n      jump\t// in\n    tag_153:\n        /* \"#utility.yul\":6363:6366   */\n      dup3\n        /* \"#utility.yul\":6356:6418   */\n      mstore\n        /* \"#utility.yul\":6269:6424   */\n      pop\n      pop\n      jump\t// out\n        /* \"#utility.yul\":6430:6599   */\n    tag_84:\n        /* \"#utility.yul\":6514:6525   */\n      0x00\n        /* \"#utility.yul\":6548:6554   */\n      dup3\n        /* \"#utility.yul\":6543:6546   */\n      dup3\n        /* \"#utility.yul\":6536:6555   */\n      mstore\n        /* \"#utility.yul\":6588:6592   */\n      0x20\n        /* \"#utility.yul\":6583:6586   */\n      dup3\n        /* \"#utility.yul\":6579:6593   */\n      add\n        /* \"#utility.yul\":6564:6593   */\n      swap1\n      pop\n        /* \"#utility.yul\":6430:6599   */\n      swap3\n      swap2\n      pop\n      pop\n      jump\t// out\n        /* \"#utility.yul\":6605:6982   */\n    tag_85:\n        /* \"#utility.yul\":6693:6696   */\n      0x00\n        /* \"#utility.yul\":6721:6760   */\n      tag_156\n        /* \"#utility.yul\":6754:6759   */\n      dup3\n        /* \"#utility.yul\":6721:6760   */\n      tag_74\n      jump\t// in\n    tag_156:\n        /* \"#utility.yul\":6776:6847   */\n      tag_157\n        /* \"#utility.yul\":6840:6846   */\n      dup2\n        /* \"#utility.yul\":6835:6838   */\n      dup6\n        /* \"#utility.yul\":6776:6847   */\n      tag_84\n      jump\t// in\n    tag_157:\n        /* \"#utility.yul\":6769:6847   */\n      swap4\n      pop\n        /* \"#utility.yul\":6856:6921   */\n      tag_158\n        /* \"#utility.yul\":6914:6920   */\n      dup2\n        /* \"#utility.yul\":6909:6912   */\n      dup6\n        /* \"#utility.yul\":6902:6906   */\n      0x20\n        /* \"#utility.yul\":6895:6900   */\n      dup7\n        /* \"#utility.yul\":6891:6907   */\n      add\n        /* \"#utility.yul\":6856:6921   */\n      tag_76\n      jump\t// in\n    tag_158:\n        /* \"#utility.yul\":6946:6975   */\n      tag_159\n        /* \"#utility.yul\":6968:6974   */\n      dup2\n        /* \"#utility.yul\":6946:6975   */\n      tag_77\n      jump\t// in\n    tag_159:\n        /* \"#utility.yul\":6941:6944   */\n      dup5\n        /* \"#utility.yul\":6937:6976   */\n      add\n        /* \"#utility.yul\":6930:6976   */\n      swap2\n      pop\n        /* \"#utility.yul\":6697:6982   */\n      pop\n        /* \"#utility.yul\":6605:6982   */\n      swap3\n      swap2\n      pop\n      pop\n      jump\t// out\n        /* \"#utility.yul\":7024:7902   */\n    tag_86:\n        /* \"#utility.yul\":7163:7167   */\n      0x80\n        /* \"#utility.yul\":7158:7161   */\n      dup3\n        /* \"#utility.yul\":7154:7168   */\n      add\n        /* \"#utility.yul\":7257:7261   */\n      0x00\n        /* \"#utility.yul\":7250:7255   */\n      dup3\n        /* \"#utility.yul\":7246:7262   */\n      add\n        /* \"#utility.yul\":7240:7263   */\n      mload\n        /* \"#utility.yul\":7276:7339   */\n      tag_161\n        /* \"#utility.yul\":7333:7337   */\n      0x00\n        /* \"#utility.yul\":7328:7331   */\n      dup6\n        /* \"#utility.yul\":7324:7338   */\n      add\n        /* \"#utility.yul\":7310:7322   */\n      dup3\n        /* \"#utility.yul\":7276:7339   */\n      tag_66\n      jump\t// in\n    tag_161:\n        /* \"#utility.yul\":7178:7349   */\n      pop\n        /* \"#utility.yul\":7439:7443   */\n      0x20\n        /* \"#utility.yul\":7432:7437   */\n      dup3\n        /* \"#utility.yul\":7428:7444   */\n      add\n        /* \"#utility.yul\":7422:7445   */\n      mload\n        /* \"#utility.yul\":7458:7521   */\n      tag_162\n        /* \"#utility.yul\":7515:7519   */\n      0x20\n        /* \"#utility.yul\":7510:7513   */\n      dup6\n        /* \"#utility.yul\":7506:7520   */\n      add\n        /* \"#utility.yul\":7492:7504   */\n      dup3\n        /* \"#utility.yul\":7458:7521   */\n      tag_66\n      jump\t// in\n    tag_162:\n        /* \"#utility.yul\":7359:7531   */\n      pop\n        /* \"#utility.yul\":7620:7624   */\n      0x40\n        /* \"#utility.yul\":7613:7618   */\n      dup3\n        /* \"#utility.yul\":7609:7625   */\n      add\n        /* \"#utility.yul\":7603:7626   */\n      mload\n        /* \"#utility.yul\":7639:7702   */\n      tag_163\n        /* \"#utility.yul\":7696:7700   */\n      0x40\n        /* \"#utility.yul\":7691:7694   */\n      dup6\n        /* \"#utility.yul\":7687:7701   */\n      add\n        /* \"#utility.yul\":7673:7685   */\n      dup3\n        /* \"#utility.yul\":7639:7702   */\n      tag_66\n      jump\t// in\n    tag_163:\n        /* \"#utility.yul\":7541:7712   */\n      pop\n        /* \"#utility.yul\":7803:7807   */\n      0x60\n        /* \"#utility.yul\":7796:7801   */\n      dup3\n        /* \"#utility.yul\":7792:7808   */\n      add\n        /* \"#utility.yul\":7786:7809   */\n      mload\n        /* \"#utility.yul\":7822:7885   */\n      tag_164\n        /* \"#utility.yul\":7879:7883   */\n      0x60\n        /* \"#utility.yul\":7874:7877   */\n      dup6\n        /* \"#utility.yul\":7870:7884   */\n      add\n        /* \"#utility.yul\":7856:7868   */\n      dup3\n        /* \"#utility.yul\":7822:7885   */\n      tag_66\n      jump\t// in\n    tag_164:\n        /* \"#utility.yul\":7722:7895   */\n      pop\n        /* \"#utility.yul\":7132:7902   */\n      pop\n        /* \"#utility.yul\":7024:7902   */\n      pop\n      pop\n      jump\t// out\n        /* \"#utility.yul\":7908:8973   */\n    tag_15:\n        /* \"#utility.yul\":8235:8239   */\n      0x00\n        /* \"#utility.yul\":8273:8276   */\n      0x0120\n        /* \"#utility.yul\":8262:8271   */\n      dup3\n        /* \"#utility.yul\":8258:8277   */\n      add\n        /* \"#utility.yul\":8250:8277   */\n      swap1\n      pop\n        /* \"#utility.yul\":8287:8358   */\n      tag_166\n        /* \"#utility.yul\":8355:8356   */\n      0x00\n        /* \"#utility.yul\":8344:8353   */\n      dup4\n        /* \"#utility.yul\":8340:8357   */\n      add\n        /* \"#utility.yul\":8331:8337   */\n      dup10\n        /* \"#utility.yul\":8287:8358   */\n      tag_81\n      jump\t// in\n    tag_166:\n        /* \"#utility.yul\":8368:8440   */\n      tag_167\n        /* \"#utility.yul\":8436:8438   */\n      0x20\n        /* \"#utility.yul\":8425:8434   */\n      dup4\n        /* \"#utility.yul\":8421:8439   */\n      add\n        /* \"#utility.yul\":8412:8418   */\n      dup9\n        /* \"#utility.yul\":8368:8440   */\n      tag_82\n      jump\t// in\n    tag_167:\n        /* \"#utility.yul\":8450:8534   */\n      tag_168\n        /* \"#utility.yul\":8530:8532   */\n      0x40\n        /* \"#utility.yul\":8519:8528   */\n      dup4\n        /* \"#utility.yul\":8515:8533   */\n      add\n        /* \"#utility.yul\":8506:8512   */\n      dup8\n        /* \"#utility.yul\":8450:8534   */\n      tag_83\n      jump\t// in\n    tag_168:\n        /* \"#utility.yul\":8581:8590   */\n      dup2\n        /* \"#utility.yul\":8575:8579   */\n      dup2\n        /* \"#utility.yul\":8571:8591   */\n      sub\n        /* \"#utility.yul\":8566:8568   */\n      0x60\n        /* \"#utility.yul\":8555:8564   */\n      dup4\n        /* \"#utility.yul\":8551:8569   */\n      add\n        /* \"#utility.yul\":8544:8592   */\n      mstore\n        /* \"#utility.yul\":8609:8687   */\n      tag_169\n        /* \"#utility.yul\":8682:8686   */\n      dup2\n        /* \"#utility.yul\":8673:8679   */\n      dup7\n        /* \"#utility.yul\":8609:8687   */\n      tag_85\n      jump\t// in\n    tag_169:\n        /* \"#utility.yul\":8601:8687   */\n      swap1\n      pop\n        /* \"#utility.yul\":8735:8744   */\n      dup2\n        /* \"#utility.yul\":8729:8733   */\n      dup2\n        /* \"#utility.yul\":8725:8745   */\n      sub\n        /* \"#utility.yul\":8719:8722   */\n      0x80\n        /* \"#utility.yul\":8708:8717   */\n      dup4\n        /* \"#utility.yul\":8704:8723   */\n      add\n        /* \"#utility.yul\":8697:8746   */\n      mstore\n        /* \"#utility.yul\":8763:8841   */\n      tag_170\n        /* \"#utility.yul\":8836:8840   */\n      dup2\n        /* \"#utility.yul\":8827:8833   */\n      dup6\n        /* \"#utility.yul\":8763:8841   */\n      tag_85\n      jump\t// in\n    tag_170:\n        /* \"#utility.yul\":8755:8841   */\n      swap1\n      pop\n        /* \"#utility.yul\":8851:8966   */\n      tag_171\n        /* \"#utility.yul\":8961:8964   */\n      0xa0\n        /* \"#utility.yul\":8950:8959   */\n      dup4\n        /* \"#utility.yul\":8946:8965   */\n      add\n        /* \"#utility.yul\":8937:8943   */\n      dup5\n        /* \"#utility.yul\":8851:8966   */\n      tag_86\n      jump\t// in\n    tag_171:\n        /* \"#utility.yul\":7908:8973   */\n      swap8\n      swap7\n      pop\n      pop\n      pop\n      pop\n      pop\n      pop\n      pop\n      jump\t// out\n        /* \"#utility.yul\":8979:9147   */\n    tag_87:\n        /* \"#utility.yul\":9119:9139   */\n      0x6e656564206465766963655f6964203e20300000000000000000000000000000\n        /* \"#utility.yul\":9115:9116   */\n      0x00\n        /* \"#utility.yul\":9107:9113   */\n      dup3\n        /* \"#utility.yul\":9103:9117   */\n      add\n        /* \"#utility.yul\":9096:9140   */\n      mstore\n        /* \"#utility.yul\":8979:9147   */\n      pop\n      jump\t// out\n        /* \"#utility.yul\":9153:9519   */\n    tag_88:\n        /* \"#utility.yul\":9295:9298   */\n      0x00\n        /* \"#utility.yul\":9316:9383   */\n      tag_174\n        /* \"#utility.yul\":9380:9382   */\n      0x12\n        /* \"#utility.yul\":9375:9378   */\n      dup4\n        /* \"#utility.yul\":9316:9383   */\n      tag_84\n      jump\t// in\n    tag_174:\n        /* \"#utility.yul\":9309:9383   */\n      swap2\n      pop\n        /* \"#utility.yul\":9392:9485   */\n      tag_175\n        /* \"#utility.yul\":9481:9484   */\n      dup3\n        /* \"#utility.yul\":9392:9485   */\n      tag_87\n      jump\t// in\n    tag_175:\n        /* \"#utility.yul\":9510:9512   */\n      0x20\n        /* \"#utility.yul\":9505:9508   */\n      dup3\n        /* \"#utility.yul\":9501:9513   */\n      add\n        /* \"#utility.yul\":9494:9513   */\n      swap1\n      pop\n        /* \"#utility.yul\":9153:9519   */\n      swap2\n      swap1\n      pop\n      jump\t// out\n        /* \"#utility.yul\":9525:9944   */\n    tag_21:\n        /* \"#utility.yul\":9691:9695   */\n      0x00\n        /* \"#utility.yul\":9729:9731   */\n      0x20\n        /* \"#utility.yul\":9718:9727   */\n      dup3\n        /* \"#utility.yul\":9714:9732   */\n      add\n        /* \"#utility.yul\":9706:9732   */\n      swap1\n      pop\n        /* \"#utility.yul\":9778:9787   */\n      dup2\n        /* \"#utility.yul\":9772:9776   */\n      dup2\n        /* \"#utility.yul\":9768:9788   */\n      sub\n        /* \"#utility.yul\":9764:9765   */\n      0x00\n        /* \"#utility.yul\":9753:9762   */\n      dup4\n        /* \"#utility.yul\":9749:9766   */\n      add\n        /* \"#utility.yul\":9742:9789   */\n      mstore\n        /* \"#utility.yul\":9806:9937   */\n      tag_177\n        /* \"#utility.yul\":9932:9936   */\n      dup2\n        /* \"#utility.yul\":9806:9937   */\n      tag_88\n      jump\t// in\n    tag_177:\n        /* \"#utility.yul\":9798:9937   */\n      swap1\n      pop\n        /* \"#utility.yul\":9525:9944   */\n      swap2\n      swap1\n      pop\n      jump\t// out\n        /* \"#utility.yul\":9950:10130   */\n    tag_89:\n        /* \"#utility.yul\":9998:10075   */\n      0x4e487b7100000000000000000000000000000000000000000000000000000000\n        /* \"#utility.yul\":9995:9996   */\n      0x00\n        /* \"#utility.yul\":9988:10076   */\n      mstore\n        /* \"#utility.yul\":10095:10099   */\n      0x11\n        /* \"#utility.yul\":10092:10093   */\n      0x04\n        /* \"#utility.yul\":10085:10100   */\n      mstore\n        /* \"#utility.yul\":10119:10123   */\n      0x24\n        /* \"#utility.yul\":10116:10117   */\n      0x00\n        /* \"#utility.yul\":10109:10124   */\n      revert\n        /* \"#utility.yul\":10136:10330   */\n    tag_23:\n        /* \"#utility.yul\":10176:10180   */\n      0x00\n        /* \"#utility.yul\":10196:10216   */\n      tag_180\n        /* \"#utility.yul\":10214:10215   */\n      dup3\n        /* \"#utility.yul\":10196:10216   */\n      tag_63\n      jump\t// in\n    tag_180:\n        /* \"#utility.yul\":10191:10216   */\n      swap2\n      pop\n        /* \"#utility.yul\":10230:10250   */\n      tag_181\n        /* \"#utility.yul\":10248:10249   */\n      dup4\n        /* \"#utility.yul\":10230:10250   */\n      tag_63\n      jump\t// in\n    tag_181:\n        /* \"#utility.yul\":10225:10250   */\n      swap3\n      pop\n        /* \"#utility.yul\":10274:10275   */\n      dup3\n        /* \"#utility.yul\":10271:10272   */\n      dup3\n        /* \"#utility.yul\":10267:10276   */\n      sub\n        /* \"#utility.yul\":10259:10276   */\n      swap1\n      pop\n        /* \"#utility.yul\":10298:10299   */\n      dup2\n        /* \"#utility.yul\":10292:10296   */\n      dup2\n        /* \"#utility.yul\":10289:10300   */\n      gt\n        /* \"#utility.yul\":10286:10323   */\n      iszero\n      tag_182\n      jumpi\n        /* \"#utility.yul\":10303:10321   */\n      tag_183\n      tag_89\n      jump\t// in\n    tag_183:\n        /* \"#utility.yul\":10286:10323   */\n    tag_182:\n        /* \"#utility.yul\":10136:10330   */\n      swap3\n      swap2\n      pop\n      pop\n      jump\t// out\n        /* \"#utility.yul\":10336:10516   */\n    tag_26:\n        /* \"#utility.yul\":10384:10461   */\n      0x4e487b7100000000000000000000000000000000000000000000000000000000\n        /* \"#utility.yul\":10381:10382   */\n      0x00\n        /* \"#utility.yul\":10374:10462   */\n      mstore\n        /* \"#utility.yul\":10481:10485   */\n      0x32\n        /* \"#utility.yul\":10478:10479   */\n      0x04\n        /* \"#utility.yul\":10471:10486   */\n      mstore\n        /* \"#utility.yul\":10505:10509   */\n      0x24\n        /* \"#utility.yul\":10502:10503   */\n      0x00\n        /* \"#utility.yul\":10495:10510   */\n      revert\n        /* \"#utility.yul\":10522:10702   */\n    tag_90:\n        /* \"#utility.yul\":10570:10647   */\n      0x4e487b7100000000000000000000000000000000000000000000000000000000\n        /* \"#utility.yul\":10567:10568   */\n      0x00\n        /* \"#utility.yul\":10560:10648   */\n      mstore\n        /* \"#utility.yul\":10667:10671   */\n      0x22\n        /* \"#utility.yul\":10664:10665   */\n      0x04\n        /* \"#utility.yul\":10657:10672   */\n      mstore\n        /* \"#utility.yul\":10691:10695   */\n      0x24\n        /* \"#utility.yul\":10688:10689   */\n      0x00\n        /* \"#utility.yul\":10681:10696   */\n      revert\n        /* \"#utility.yul\":10708:11028   */\n    tag_34:\n        /* \"#utility.yul\":10752:10758   */\n      0x00\n        /* \"#utility.yul\":10789:10790   */\n      0x02\n        /* \"#utility.yul\":10783:10787   */\n      dup3\n        /* \"#utility.yul\":10779:10791   */\n      div\n        /* \"#utility.yul\":10769:10791   */\n      swap1\n      pop\n        /* \"#utility.yul\":10836:10837   */\n      0x01\n        /* \"#utility.yul\":10830:10834   */\n      dup3\n        /* \"#utility.yul\":10826:10838   */\n      and\n        /* \"#utility.yul\":10857:10875   */\n      dup1\n        /* \"#utility.yul\":10847:10928   */\n      tag_187\n      jumpi\n        /* \"#utility.yul\":10913:10917   */\n      0x7f\n        /* \"#utility.yul\":10905:10911   */\n      dup3\n        /* \"#utility.yul\":10901:10918   */\n      and\n        /* \"#utility.yul\":10891:10918   */\n      swap2\n      pop\n        /* \"#utility.yul\":10847:10928   */\n    tag_187:\n        /* \"#utility.yul\":10975:10977   */\n      0x20\n        /* \"#utility.yul\":10967:10973   */\n      dup3\n        /* \"#utility.yul\":10964:10978   */\n      lt\n        /* \"#utility.yul\":10944:10962   */\n      dup2\n        /* \"#utility.yul\":10941:10979   */\n      sub\n        /* \"#utility.yul\":10938:11022   */\n      tag_188\n      jumpi\n        /* \"#utility.yul\":10994:11012   */\n      tag_189\n      tag_90\n      jump\t// in\n    tag_189:\n        /* \"#utility.yul\":10938:11022   */\n    tag_188:\n        /* \"#utility.yul\":10759:11028   */\n      pop\n        /* \"#utility.yul\":10708:11028   */\n      swap2\n      swap1\n      pop\n      jump\t// out\n\n    auxdata: 0xa2646970667358221220d5b6cee9f5bc1873702bb49525af3bd0460f674b18b087525d7d458fec48fd1564736f6c63430008150033\n}\n",
				"bytecode": {
					"linkReferences": {},
					"object": "60806040525f8055348015610012575f80fd5b50610ab9806100205f395ff3fe608060405234801561000f575f80fd5b5060043610610034575f3560e01c806309f110b11461003857806310ff8e3114610068575b5f80fd5b610052600480360381019061004d9190610584565b61009d565b60405161005f91906107db565b60405180910390f35b610082600480360381019061007d9190610584565b610318565b604051610094969594939291906108c3565b60405180910390f35b6100a56104c8565b5f82116100e7576040517f08c379a00000000000000000000000000000000000000000000000000000000081526004016100de9061097b565b60405180910390fd5b600180836100f591906109c6565b81548110610106576101056109f9565b5b905f5260205f2090600802016040518060c00160405290815f8201548152602001600182015f9054906101000a900473ffffffffffffffffffffffffffffffffffffffff1673ffffffffffffffffffffffffffffffffffffffff1673ffffffffffffffffffffffffffffffffffffffff1681526020016001820160149054906101000a900460ff1660038111156101a05761019f6105fd565b5b60038111156101b2576101b16105fd565b5b81526020016002820180546101c690610a53565b80601f01602080910402602001604051908101604052809291908181526020018280546101f290610a53565b801561023d5780601f106102145761010080835404028352916020019161023d565b820191905f5260205f20905b81548152906001019060200180831161022057829003601f168201915b5050505050815260200160038201805461025690610a53565b80601f016020809104026020016040519081016040528092919081815260200182805461028290610a53565b80156102cd5780601f106102a4576101008083540402835291602001916102cd565b820191905f5260205f20905b8154815290600101906020018083116102b057829003601f168201915b50505050508152602001600482016040518060800160405290815f82015481526020016001820154815260200160028201548152602001600382015481525050815250509050919050565b60018181548110610327575f80fd5b905f5260205f2090600802015f91509050805f015490806001015f9054906101000a900473ffffffffffffffffffffffffffffffffffffffff16908060010160149054906101000a900460ff169080600201805461038490610a53565b80601f01602080910402602001604051908101604052809291908181526020018280546103b090610a53565b80156103fb5780601f106103d2576101008083540402835291602001916103fb565b820191905f5260205f20905b8154815290600101906020018083116103de57829003601f168201915b50505050509080600301805461041090610a53565b80601f016020809104026020016040519081016040528092919081815260200182805461043c90610a53565b80156104875780601f1061045e57610100808354040283529160200191610487565b820191905f5260205f20905b81548152906001019060200180831161046a57829003601f168201915b505050505090806004016040518060800160405290815f82015481526020016001820154815260200160028201548152602001600382015481525050905086565b6040518060c001604052805f81526020015f73ffffffffffffffffffffffffffffffffffffffff1681526020015f6003811115610508576105076105fd565b5b81526020016060815260200160608152602001610523610529565b81525090565b60405180608001604052805f81526020015f81526020015f81526020015f81525090565b5f80fd5b5f819050919050565b61056381610551565b811461056d575f80fd5b50565b5f8135905061057e8161055a565b92915050565b5f602082840312156105995761059861054d565b5b5f6105a684828501610570565b91505092915050565b6105b881610551565b82525050565b5f73ffffffffffffffffffffffffffffffffffffffff82169050919050565b5f6105e7826105be565b9050919050565b6105f7816105dd565b82525050565b7f4e487b71000000000000000000000000000000000000000000000000000000005f52602160045260245ffd5b6004811061063b5761063a6105fd565b5b50565b5f81905061064b8261062a565b919050565b5f61065a8261063e565b9050919050565b61066a81610650565b82525050565b5f81519050919050565b5f82825260208201905092915050565b5f5b838110156106a757808201518184015260208101905061068c565b5f8484015250505050565b5f601f19601f8301169050919050565b5f6106cc82610670565b6106d6818561067a565b93506106e681856020860161068a565b6106ef816106b2565b840191505092915050565b608082015f82015161070e5f8501826105af565b50602082015161072160208501826105af565b50604082015161073460408501826105af565b50606082015161074760608501826105af565b50505050565b5f61012083015f8301516107635f8601826105af565b50602083015161077660208601826105ee565b5060408301516107896040860182610661565b50606083015184820360608601526107a182826106c2565b915050608083015184820360808601526107bb82826106c2565b91505060a08301516107d060a08601826106fa565b508091505092915050565b5f6020820190508181035f8301526107f3818461074d565b905092915050565b61080481610551565b82525050565b610813816105dd565b82525050565b61082281610650565b82525050565b5f82825260208201905092915050565b5f61084282610670565b61084c8185610828565b935061085c81856020860161068a565b610865816106b2565b840191505092915050565b608082015f8201516108845f8501826105af565b50602082015161089760208501826105af565b5060408201516108aa60408501826105af565b5060608201516108bd60608501826105af565b50505050565b5f610120820190506108d75f8301896107fb565b6108e4602083018861080a565b6108f16040830187610819565b81810360608301526109038186610838565b905081810360808301526109178185610838565b905061092660a0830184610870565b979650505050505050565b7f6e656564206465766963655f6964203e203000000000000000000000000000005f82015250565b5f610965601283610828565b915061097082610931565b602082019050919050565b5f6020820190508181035f83015261099281610959565b9050919050565b7f4e487b71000000000000000000000000000000000000000000000000000000005f52601160045260245ffd5b5f6109d082610551565b91506109db83610551565b92508282039050818111156109f3576109f2610999565b5b92915050565b7f4e487b71000000000000000000000000000000000000000000000000000000005f52603260045260245ffd5b7f4e487b71000000000000000000000000000000000000000000000000000000005f52602260045260245ffd5b5f6002820490506001821680610a6a57607f821691505b602082108103610a7d57610a7c610a26565b5b5091905056fea2646970667358221220d5b6cee9f5bc1873702bb49525af3bd0460f674b18b087525d7d458fec48fd1564736f6c63430008150033",
					"opcodes": "PUSH1 0x80 PUSH1 0x40 MSTORE PUSH0 DUP1 SSTORE CALLVALUE DUP1 ISZERO PUSH2 0x12 JUMPI PUSH0 DUP1 REVERT JUMPDEST POP PUSH2 0xAB9 DUP1 PUSH2 0x20 PUSH0 CODECOPY PUSH0 RETURN INVALID PUSH1 0x80 PUSH1 0x40 MSTORE CALLVALUE DUP1 ISZERO PUSH2 0xF JUMPI PUSH0 DUP1 REVERT JUMPDEST POP PUSH1 0x4 CALLDATASIZE LT PUSH2 0x34 JUMPI PUSH0 CALLDATALOAD PUSH1 0xE0 SHR DUP1 PUSH4 0x9F110B1 EQ PUSH2 0x38 JUMPI DUP1 PUSH4 0x10FF8E31 EQ PUSH2 0x68 JUMPI JUMPDEST PUSH0 DUP1 REVERT JUMPDEST PUSH2 0x52 PUSH1 0x4 DUP1 CALLDATASIZE SUB DUP2 ADD SWAP1 PUSH2 0x4D SWAP2 SWAP1 PUSH2 0x584 JUMP JUMPDEST PUSH2 0x9D JUMP JUMPDEST PUSH1 0x40 MLOAD PUSH2 0x5F SWAP2 SWAP1 PUSH2 0x7DB JUMP JUMPDEST PUSH1 0x40 MLOAD DUP1 SWAP2 SUB SWAP1 RETURN JUMPDEST PUSH2 0x82 PUSH1 0x4 DUP1 CALLDATASIZE SUB DUP2 ADD SWAP1 PUSH2 0x7D SWAP2 SWAP1 PUSH2 0x584 JUMP JUMPDEST PUSH2 0x318 JUMP JUMPDEST PUSH1 0x40 MLOAD PUSH2 0x94 SWAP7 SWAP6 SWAP5 SWAP4 SWAP3 SWAP2 SWAP1 PUSH2 0x8C3 JUMP JUMPDEST PUSH1 0x40 MLOAD DUP1 SWAP2 SUB SWAP1 RETURN JUMPDEST PUSH2 0xA5 PUSH2 0x4C8 JUMP JUMPDEST PUSH0 DUP3 GT PUSH2 0xE7 JUMPI PUSH1 0x40 MLOAD PUSH32 0x8C379A000000000000000000000000000000000000000000000000000000000 DUP2 MSTORE PUSH1 0x4 ADD PUSH2 0xDE SWAP1 PUSH2 0x97B JUMP JUMPDEST PUSH1 0x40 MLOAD DUP1 SWAP2 SUB SWAP1 REVERT JUMPDEST PUSH1 0x1 DUP1 DUP4 PUSH2 0xF5 SWAP2 SWAP1 PUSH2 0x9C6 JUMP JUMPDEST DUP2 SLOAD DUP2 LT PUSH2 0x106 JUMPI PUSH2 0x105 PUSH2 0x9F9 JUMP JUMPDEST JUMPDEST SWAP1 PUSH0 MSTORE PUSH1 0x20 PUSH0 KECCAK256 SWAP1 PUSH1 0x8 MUL ADD PUSH1 0x40 MLOAD DUP1 PUSH1 0xC0 ADD PUSH1 0x40 MSTORE SWAP1 DUP2 PUSH0 DUP3 ADD SLOAD DUP2 MSTORE PUSH1 0x20 ADD PUSH1 0x1 DUP3 ADD PUSH0 SWAP1 SLOAD SWAP1 PUSH2 0x100 EXP SWAP1 DIV PUSH20 0xFFFFFFFFFFFFFFFFFFFFFFFFFFFFFFFFFFFFFFFF AND PUSH20 0xFFFFFFFFFFFFFFFFFFFFFFFFFFFFFFFFFFFFFFFF AND PUSH20 0xFFFFFFFFFFFFFFFFFFFFFFFFFFFFFFFFFFFFFFFF AND DUP2 MSTORE PUSH1 0x20 ADD PUSH1 0x1 DUP3 ADD PUSH1 0x14 SWAP1 SLOAD SWAP1 PUSH2 0x100 EXP SWAP1 DIV PUSH1 0xFF AND PUSH1 0x3 DUP2 GT ISZERO PUSH2 0x1A0 JUMPI PUSH2 0x19F PUSH2 0x5FD JUMP JUMPDEST JUMPDEST PUSH1 0x3 DUP2 GT ISZERO PUSH2 0x1B2 JUMPI PUSH2 0x1B1 PUSH2 0x5FD JUMP JUMPDEST JUMPDEST DUP2 MSTORE PUSH1 0x20 ADD PUSH1 0x2 DUP3 ADD DUP1 SLOAD PUSH2 0x1C6 SWAP1 PUSH2 0xA53 JUMP JUMPDEST DUP1 PUSH1 0x1F ADD PUSH1 0x20 DUP1 SWAP2 DIV MUL PUSH1 0x20 ADD PUSH1 0x40 MLOAD SWAP1 DUP2 ADD PUSH1 0x40 MSTORE DUP1 SWAP3 SWAP2 SWAP1 DUP2 DUP2 MSTORE PUSH1 0x20 ADD DUP3 DUP1 SLOAD PUSH2 0x1F2 SWAP1 PUSH2 0xA53 JUMP JUMPDEST DUP1 ISZERO PUSH2 0x23D JUMPI DUP1 PUSH1 0x1F LT PUSH2 0x214 JUMPI PUSH2 0x100 DUP1 DUP4 SLOAD DIV MUL DUP4 MSTORE SWAP2 PUSH1 0x20 ADD SWAP2 PUSH2 0x23D JUMP JUMPDEST DUP3 ADD SWAP2 SWAP1 PUSH0 MSTORE PUSH1 0x20 PUSH0 KECCAK256 SWAP1 JUMPDEST DUP2 SLOAD DUP2 MSTORE SWAP1 PUSH1 0x1 ADD SWAP1 PUSH1 0x20 ADD DUP1 DUP4 GT PUSH2 0x220 JUMPI DUP3 SWAP1 SUB PUSH1 0x1F AND DUP3 ADD SWAP2 JUMPDEST POP POP POP POP POP DUP2 MSTORE PUSH1 0x20 ADD PUSH1 0x3 DUP3 ADD DUP1 SLOAD PUSH2 0x256 SWAP1 PUSH2 0xA53 JUMP JUMPDEST DUP1 PUSH1 0x1F ADD PUSH1 0x20 DUP1 SWAP2 DIV MUL PUSH1 0x20 ADD PUSH1 0x40 MLOAD SWAP1 DUP2 ADD PUSH1 0x40 MSTORE DUP1 SWAP3 SWAP2 SWAP1 DUP2 DUP2 MSTORE PUSH1 0x20 ADD DUP3 DUP1 SLOAD PUSH2 0x282 SWAP1 PUSH2 0xA53 JUMP JUMPDEST DUP1 ISZERO PUSH2 0x2CD JUMPI DUP1 PUSH1 0x1F LT PUSH2 0x2A4 JUMPI PUSH2 0x100 DUP1 DUP4 SLOAD DIV MUL DUP4 MSTORE SWAP2 PUSH1 0x20 ADD SWAP2 PUSH2 0x2CD JUMP JUMPDEST DUP3 ADD SWAP2 SWAP1 PUSH0 MSTORE PUSH1 0x20 PUSH0 KECCAK256 SWAP1 JUMPDEST DUP2 SLOAD DUP2 MSTORE SWAP1 PUSH1 0x1 ADD SWAP1 PUSH1 0x20 ADD DUP1 DUP4 GT PUSH2 0x2B0 JUMPI DUP3 SWAP1 SUB PUSH1 0x1F AND DUP3 ADD SWAP2 JUMPDEST POP POP POP POP POP DUP2 MSTORE PUSH1 0x20 ADD PUSH1 0x4 DUP3 ADD PUSH1 0x40 MLOAD DUP1 PUSH1 0x80 ADD PUSH1 0x40 MSTORE SWAP1 DUP2 PUSH0 DUP3 ADD SLOAD DUP2 MSTORE PUSH1 0x20 ADD PUSH1 0x1 DUP3 ADD SLOAD DUP2 MSTORE PUSH1 0x20 ADD PUSH1 0x2 DUP3 ADD SLOAD DUP2 MSTORE PUSH1 0x20 ADD PUSH1 0x3 DUP3 ADD SLOAD DUP2 MSTORE POP POP DUP2 MSTORE POP POP SWAP1 POP SWAP2 SWAP1 POP JUMP JUMPDEST PUSH1 0x1 DUP2 DUP2 SLOAD DUP2 LT PUSH2 0x327 JUMPI PUSH0 DUP1 REVERT JUMPDEST SWAP1 PUSH0 MSTORE PUSH1 0x20 PUSH0 KECCAK256 SWAP1 PUSH1 0x8 MUL ADD PUSH0 SWAP2 POP SWAP1 POP DUP1 PUSH0 ADD SLOAD SWAP1 DUP1 PUSH1 0x1 ADD PUSH0 SWAP1 SLOAD SWAP1 PUSH2 0x100 EXP SWAP1 DIV PUSH20 0xFFFFFFFFFFFFFFFFFFFFFFFFFFFFFFFFFFFFFFFF AND SWAP1 DUP1 PUSH1 0x1 ADD PUSH1 0x14 SWAP1 SLOAD SWAP1 PUSH2 0x100 EXP SWAP1 DIV PUSH1 0xFF AND SWAP1 DUP1 PUSH1 0x2 ADD DUP1 SLOAD PUSH2 0x384 SWAP1 PUSH2 0xA53 JUMP JUMPDEST DUP1 PUSH1 0x1F ADD PUSH1 0x20 DUP1 SWAP2 DIV MUL PUSH1 0x20 ADD PUSH1 0x40 MLOAD SWAP1 DUP2 ADD PUSH1 0x40 MSTORE DUP1 SWAP3 SWAP2 SWAP1 DUP2 DUP2 MSTORE PUSH1 0x20 ADD DUP3 DUP1 SLOAD PUSH2 0x3B0 SWAP1 PUSH2 0xA53 JUMP JUMPDEST DUP1 ISZERO PUSH2 0x3FB JUMPI DUP1 PUSH1 0x1F LT PUSH2 0x3D2 JUMPI PUSH2 0x100 DUP1 DUP4 SLOAD DIV MUL DUP4 MSTORE SWAP2 PUSH1 0x20 ADD SWAP2 PUSH2 0x3FB JUMP JUMPDEST DUP3 ADD SWAP2 SWAP1 PUSH0 MSTORE PUSH1 0x20 PUSH0 KECCAK256 SWAP1 JUMPDEST DUP2 SLOAD DUP2 MSTORE SWAP1 PUSH1 0x1 ADD SWAP1 PUSH1 0x20 ADD DUP1 DUP4 GT PUSH2 0x3DE JUMPI DUP3 SWAP1 SUB PUSH1 0x1F AND DUP3 ADD SWAP2 JUMPDEST POP POP POP POP POP SWAP1 DUP1 PUSH1 0x3 ADD DUP1 SLOAD PUSH2 0x410 SWAP1 PUSH2 0xA53 JUMP JUMPDEST DUP1 PUSH1 0x1F ADD PUSH1 0x20 DUP1 SWAP2 DIV MUL PUSH1 0x20 ADD PUSH1 0x40 MLOAD SWAP1 DUP2 ADD PUSH1 0x40 MSTORE DUP1 SWAP3 SWAP2 SWAP1 DUP2 DUP2 MSTORE PUSH1 0x20 ADD DUP3 DUP1 SLOAD PUSH2 0x43C SWAP1 PUSH2 0xA53 JUMP JUMPDEST DUP1 ISZERO PUSH2 0x487 JUMPI DUP1 PUSH1 0x1F LT PUSH2 0x45E JUMPI PUSH2 0x100 DUP1 DUP4 SLOAD DIV MUL DUP4 MSTORE SWAP2 PUSH1 0x20 ADD SWAP2 PUSH2 0x487 JUMP JUMPDEST DUP3 ADD SWAP2 SWAP1 PUSH0 MSTORE PUSH1 0x20 PUSH0 KECCAK256 SWAP1 JUMPDEST DUP2 SLOAD DUP2 MSTORE SWAP1 PUSH1 0x1 ADD SWAP1 PUSH1 0x20 ADD DUP1 DUP4 GT PUSH2 0x46A JUMPI DUP3 SWAP1 SUB PUSH1 0x1F AND DUP3 ADD SWAP2 JUMPDEST POP POP POP POP POP SWAP1 DUP1 PUSH1 0x4 ADD PUSH1 0x40 MLOAD DUP1 PUSH1 0x80 ADD PUSH1 0x40 MSTORE SWAP1 DUP2 PUSH0 DUP3 ADD SLOAD DUP2 MSTORE PUSH1 0x20 ADD PUSH1 0x1 DUP3 ADD SLOAD DUP2 MSTORE PUSH1 0x20 ADD PUSH1 0x2 DUP3 ADD SLOAD DUP2 MSTORE PUSH1 0x20 ADD PUSH1 0x3 DUP3 ADD SLOAD DUP2 MSTORE POP POP SWAP1 POP DUP7 JUMP JUMPDEST PUSH1 0x40 MLOAD DUP1 PUSH1 0xC0 ADD PUSH1 0x40 MSTORE DUP1 PUSH0 DUP2 MSTORE PUSH1 0x20 ADD PUSH0 PUSH20 0xFFFFFFFFFFFFFFFFFFFFFFFFFFFFFFFFFFFFFFFF AND DUP2 MSTORE PUSH1 0x20 ADD PUSH0 PUSH1 0x3 DUP2 GT ISZERO PUSH2 0x508 JUMPI PUSH2 0x507 PUSH2 0x5FD JUMP JUMPDEST JUMPDEST DUP2 MSTORE PUSH1 0x20 ADD PUSH1 0x60 DUP2 MSTORE PUSH1 0x20 ADD PUSH1 0x60 DUP2 MSTORE PUSH1 0x20 ADD PUSH2 0x523 PUSH2 0x529 JUMP JUMPDEST DUP2 MSTORE POP SWAP1 JUMP JUMPDEST PUSH1 0x40 MLOAD DUP1 PUSH1 0x80 ADD PUSH1 0x40 MSTORE DUP1 PUSH0 DUP2 MSTORE PUSH1 0x20 ADD PUSH0 DUP2 MSTORE PUSH1 0x20 ADD PUSH0 DUP2 MSTORE PUSH1 0x20 ADD PUSH0 DUP2 MSTORE POP SWAP1 JUMP JUMPDEST PUSH0 DUP1 REVERT JUMPDEST PUSH0 DUP2 SWAP1 POP SWAP2 SWAP1 POP JUMP JUMPDEST PUSH2 0x563 DUP2 PUSH2 0x551 JUMP JUMPDEST DUP2 EQ PUSH2 0x56D JUMPI PUSH0 DUP1 REVERT JUMPDEST POP JUMP JUMPDEST PUSH0 DUP2 CALLDATALOAD SWAP1 POP PUSH2 0x57E DUP2 PUSH2 0x55A JUMP JUMPDEST SWAP3 SWAP2 POP POP JUMP JUMPDEST PUSH0 PUSH1 0x20 DUP3 DUP5 SUB SLT ISZERO PUSH2 0x599 JUMPI PUSH2 0x598 PUSH2 0x54D JUMP JUMPDEST JUMPDEST PUSH0 PUSH2 0x5A6 DUP5 DUP3 DUP6 ADD PUSH2 0x570 JUMP JUMPDEST SWAP2 POP POP SWAP3 SWAP2 POP POP JUMP JUMPDEST PUSH2 0x5B8 DUP2 PUSH2 0x551 JUMP JUMPDEST DUP3 MSTORE POP POP JUMP JUMPDEST PUSH0 PUSH20 0xFFFFFFFFFFFFFFFFFFFFFFFFFFFFFFFFFFFFFFFF DUP3 AND SWAP1 POP SWAP2 SWAP1 POP JUMP JUMPDEST PUSH0 PUSH2 0x5E7 DUP3 PUSH2 0x5BE JUMP JUMPDEST SWAP1 POP SWAP2 SWAP1 POP JUMP JUMPDEST PUSH2 0x5F7 DUP2 PUSH2 0x5DD JUMP JUMPDEST DUP3 MSTORE POP POP JUMP JUMPDEST PUSH32 0x4E487B7100000000000000000000000000000000000000000000000000000000 PUSH0 MSTORE PUSH1 0x21 PUSH1 0x4 MSTORE PUSH1 0x24 PUSH0 REVERT JUMPDEST PUSH1 0x4 DUP2 LT PUSH2 0x63B JUMPI PUSH2 0x63A PUSH2 0x5FD JUMP JUMPDEST JUMPDEST POP JUMP JUMPDEST PUSH0 DUP2 SWAP1 POP PUSH2 0x64B DUP3 PUSH2 0x62A JUMP JUMPDEST SWAP2 SWAP1 POP JUMP JUMPDEST PUSH0 PUSH2 0x65A DUP3 PUSH2 0x63E JUMP JUMPDEST SWAP1 POP SWAP2 SWAP1 POP JUMP JUMPDEST PUSH2 0x66A DUP2 PUSH2 0x650 JUMP JUMPDEST DUP3 MSTORE POP POP JUMP JUMPDEST PUSH0 DUP2 MLOAD SWAP1 POP SWAP2 SWAP1 POP JUMP JUMPDEST PUSH0 DUP3 DUP3 MSTORE PUSH1 0x20 DUP3 ADD SWAP1 POP SWAP3 SWAP2 POP POP JUMP JUMPDEST PUSH0 JUMPDEST DUP4 DUP2 LT ISZERO PUSH2 0x6A7 JUMPI DUP1 DUP3 ADD MLOAD DUP2 DUP5 ADD MSTORE PUSH1 0x20 DUP2 ADD SWAP1 POP PUSH2 0x68C JUMP JUMPDEST PUSH0 DUP5 DUP5 ADD MSTORE POP POP POP POP JUMP JUMPDEST PUSH0 PUSH1 0x1F NOT PUSH1 0x1F DUP4 ADD AND SWAP1 POP SWAP2 SWAP1 POP JUMP JUMPDEST PUSH0 PUSH2 0x6CC DUP3 PUSH2 0x670 JUMP JUMPDEST PUSH2 0x6D6 DUP2 DUP6 PUSH2 0x67A JUMP JUMPDEST SWAP4 POP PUSH2 0x6E6 DUP2 DUP6 PUSH1 0x20 DUP7 ADD PUSH2 0x68A JUMP JUMPDEST PUSH2 0x6EF DUP2 PUSH2 0x6B2 JUMP JUMPDEST DUP5 ADD SWAP2 POP POP SWAP3 SWAP2 POP POP JUMP JUMPDEST PUSH1 0x80 DUP3 ADD PUSH0 DUP3 ADD MLOAD PUSH2 0x70E PUSH0 DUP6 ADD DUP3 PUSH2 0x5AF JUMP JUMPDEST POP PUSH1 0x20 DUP3 ADD MLOAD PUSH2 0x721 PUSH1 0x20 DUP6 ADD DUP3 PUSH2 0x5AF JUMP JUMPDEST POP PUSH1 0x40 DUP3 ADD MLOAD PUSH2 0x734 PUSH1 0x40 DUP6 ADD DUP3 PUSH2 0x5AF JUMP JUMPDEST POP PUSH1 0x60 DUP3 ADD MLOAD PUSH2 0x747 PUSH1 0x60 DUP6 ADD DUP3 PUSH2 0x5AF JUMP JUMPDEST POP POP POP POP JUMP JUMPDEST PUSH0 PUSH2 0x120 DUP4 ADD PUSH0 DUP4 ADD MLOAD PUSH2 0x763 PUSH0 DUP7 ADD DUP3 PUSH2 0x5AF JUMP JUMPDEST POP PUSH1 0x20 DUP4 ADD MLOAD PUSH2 0x776 PUSH1 0x20 DUP7 ADD DUP3 PUSH2 0x5EE JUMP JUMPDEST POP PUSH1 0x40 DUP4 ADD MLOAD PUSH2 0x789 PUSH1 0x40 DUP7 ADD DUP3 PUSH2 0x661 JUMP JUMPDEST POP PUSH1 0x60 DUP4 ADD MLOAD DUP5 DUP3 SUB PUSH1 0x60 DUP7 ADD MSTORE PUSH2 0x7A1 DUP3 DUP3 PUSH2 0x6C2 JUMP JUMPDEST SWAP2 POP POP PUSH1 0x80 DUP4 ADD MLOAD DUP5 DUP3 SUB PUSH1 0x80 DUP7 ADD MSTORE PUSH2 0x7BB DUP3 DUP3 PUSH2 0x6C2 JUMP JUMPDEST SWAP2 POP POP PUSH1 0xA0 DUP4 ADD MLOAD PUSH2 0x7D0 PUSH1 0xA0 DUP7 ADD DUP3 PUSH2 0x6FA JUMP JUMPDEST POP DUP1 SWAP2 POP POP SWAP3 SWAP2 POP POP JUMP JUMPDEST PUSH0 PUSH1 0x20 DUP3 ADD SWAP1 POP DUP2 DUP2 SUB PUSH0 DUP4 ADD MSTORE PUSH2 0x7F3 DUP2 DUP5 PUSH2 0x74D JUMP JUMPDEST SWAP1 POP SWAP3 SWAP2 POP POP JUMP JUMPDEST PUSH2 0x804 DUP2 PUSH2 0x551 JUMP JUMPDEST DUP3 MSTORE POP POP JUMP JUMPDEST PUSH2 0x813 DUP2 PUSH2 0x5DD JUMP JUMPDEST DUP3 MSTORE POP POP JUMP JUMPDEST PUSH2 0x822 DUP2 PUSH2 0x650 JUMP JUMPDEST DUP3 MSTORE POP POP JUMP JUMPDEST PUSH0 DUP3 DUP3 MSTORE PUSH1 0x20 DUP3 ADD SWAP1 POP SWAP3 SWAP2 POP POP JUMP JUMPDEST PUSH0 PUSH2 0x842 DUP3 PUSH2 0x670 JUMP JUMPDEST PUSH2 0x84C DUP2 DUP6 PUSH2 0x828 JUMP JUMPDEST SWAP4 POP PUSH2 0x85C DUP2 DUP6 PUSH1 0x20 DUP7 ADD PUSH2 0x68A JUMP JUMPDEST PUSH2 0x865 DUP2 PUSH2 0x6B2 JUMP JUMPDEST DUP5 ADD SWAP2 POP POP SWAP3 SWAP2 POP POP JUMP JUMPDEST PUSH1 0x80 DUP3 ADD PUSH0 DUP3 ADD MLOAD PUSH2 0x884 PUSH0 DUP6 ADD DUP3 PUSH2 0x5AF JUMP JUMPDEST POP PUSH1 0x20 DUP3 ADD MLOAD PUSH2 0x897 PUSH1 0x20 DUP6 ADD DUP3 PUSH2 0x5AF JUMP JUMPDEST POP PUSH1 0x40 DUP3 ADD MLOAD PUSH2 0x8AA PUSH1 0x40 DUP6 ADD DUP3 PUSH2 0x5AF JUMP JUMPDEST POP PUSH1 0x60 DUP3 ADD MLOAD PUSH2 0x8BD PUSH1 0x60 DUP6 ADD DUP3 PUSH2 0x5AF JUMP JUMPDEST POP POP POP POP JUMP JUMPDEST PUSH0 PUSH2 0x120 DUP3 ADD SWAP1 POP PUSH2 0x8D7 PUSH0 DUP4 ADD DUP10 PUSH2 0x7FB JUMP JUMPDEST PUSH2 0x8E4 PUSH1 0x20 DUP4 ADD DUP9 PUSH2 0x80A JUMP JUMPDEST PUSH2 0x8F1 PUSH1 0x40 DUP4 ADD DUP8 PUSH2 0x819 JUMP JUMPDEST DUP2 DUP2 SUB PUSH1 0x60 DUP4 ADD MSTORE PUSH2 0x903 DUP2 DUP7 PUSH2 0x838 JUMP JUMPDEST SWAP1 POP DUP2 DUP2 SUB PUSH1 0x80 DUP4 ADD MSTORE PUSH2 0x917 DUP2 DUP6 PUSH2 0x838 JUMP JUMPDEST SWAP1 POP PUSH2 0x926 PUSH1 0xA0 DUP4 ADD DUP5 PUSH2 0x870 JUMP JUMPDEST SWAP8 SWAP7 POP POP POP POP POP POP POP JUMP JUMPDEST PUSH32 0x6E656564206465766963655F6964203E20300000000000000000000000000000 PUSH0 DUP3 ADD MSTORE POP JUMP JUMPDEST PUSH0 PUSH2 0x965 PUSH1 0x12 DUP4 PUSH2 0x828 JUMP JUMPDEST SWAP2 POP PUSH2 0x970 DUP3 PUSH2 0x931 JUMP JUMPDEST PUSH1 0x20 DUP3 ADD SWAP1 POP SWAP2 SWAP1 POP JUMP JUMPDEST PUSH0 PUSH1 0x20 DUP3 ADD SWAP1 POP DUP2 DUP2 SUB PUSH0 DUP4 ADD MSTORE PUSH2 0x992 DUP2 PUSH2 0x959 JUMP JUMPDEST SWAP1 POP SWAP2 SWAP1 POP JUMP JUMPDEST PUSH32 0x4E487B7100000000000000000000000000000000000000000000000000000000 PUSH0 MSTORE PUSH1 0x11 PUSH1 0x4 MSTORE PUSH1 0x24 PUSH0 REVERT JUMPDEST PUSH0 PUSH2 0x9D0 DUP3 PUSH2 0x551 JUMP JUMPDEST SWAP2 POP PUSH2 0x9DB DUP4 PUSH2 0x551 JUMP JUMPDEST SWAP3 POP DUP3 DUP3 SUB SWAP1 POP DUP2 DUP2 GT ISZERO PUSH2 0x9F3 JUMPI PUSH2 0x9F2 PUSH2 0x999 JUMP JUMPDEST JUMPDEST SWAP3 SWAP2 POP POP JUMP JUMPDEST PUSH32 0x4E487B7100000000000000000000000000000000000000000000000000000000 PUSH0 MSTORE PUSH1 0x32 PUSH1 0x4 MSTORE PUSH1 0x24 PUSH0 REVERT JUMPDEST PUSH32 0x4E487B7100000000000000000000000000000000000000000000000000000000 PUSH0 MSTORE PUSH1 0x22 PUSH1 0x4 MSTORE PUSH1 0x24 PUSH0 REVERT JUMPDEST PUSH0 PUSH1 0x2 DUP3 DIV SWAP1 POP PUSH1 0x1 DUP3 AND DUP1 PUSH2 0xA6A JUMPI PUSH1 0x7F DUP3 AND SWAP2 POP JUMPDEST PUSH1 0x20 DUP3 LT DUP2 SUB PUSH2 0xA7D JUMPI PUSH2 0xA7C PUSH2 0xA26 JUMP JUMPDEST JUMPDEST POP SWAP2 SWAP1 POP JUMP INVALID LOG2 PUSH5 0x6970667358 0x22 SLT KECCAK256 0xD5 0xB6 0xCE 0xE9 CREATE2 0xBC XOR PUSH20 0x702BB49525AF3BD0460F674B18B087525D7D458F 0xEC BASEFEE REVERT ISZERO PUSH5 0x736F6C6343 STOP ADDMOD ISZERO STOP CALLER "
				},
				"gasEstimates": {
					"creation": {
						"codeDepositCost": "549000",
						"executionCost": "5584",
						"totalCost": "554584"
					},
					"external": {
						"devices(uint256)": "infinite",
						"getDevice(uint256)": "infinite"
					},
					"internal": {
						"deleteDevices(uint256)": "infinite",
						"offlineDevice(uint256)": "infinite",
						"online(string memory,string memory,struct Price memory)": "infinite",
						"rentDevice(uint256)": "infinite",
						"terminateDevice(uint256)": "infinite"
					}
				},
				"methodIdentifiers": {
					"devices(uint256)": "10ff8e31",
					"getDevice(uint256)": "09f110b1"
				}
			},
			"storageLayout": {
				"storage": [
					{
						"astId": 33,
						"contract": "contracts/device.sol:Device",
						"label": "id",
						"offset": 0,
						"slot": "0",
						"type": "t_uint256"
					},
					{
						"astId": 37,
						"contract": "contracts/device.sol:Device",
						"label": "devices",
						"offset": 0,
						"slot": "1",
						"type": "t_array(t_struct(deviceInfo)30_storage)dyn_storage"
					}
				],
				"types": {
					"t_address": {
						"encoding": "inplace",
						"label": "address",
						"numberOfBytes": "20"
					},
					"t_array(t_struct(deviceInfo)30_storage)dyn_storage": {
						"base": "t_struct(deviceInfo)30_storage",
						"encoding": "dynamic_array",
						"label": "struct deviceInfo[]",
						"numberOfBytes": "32"
					},
					"t_enum(DeviceStatus)6": {
						"encoding": "inplace",
						"label": "enum DeviceStatus",
						"numberOfBytes": "1"
					},
					"t_string_storage": {
						"encoding": "bytes",
						"label": "string",
						"numberOfBytes": "32"
					},
					"t_struct(Price)15_storage": {
						"encoding": "inplace",
						"label": "struct Price",
						"members": [
							{
								"astId": 8,
								"contract": "contracts/device.sol:Device",
								"label": "serverPrice",
								"offset": 0,
								"slot": "0",
								"type": "t_uint256"
							},
							{
								"astId": 10,
								"contract": "contracts/device.sol:Device",
								"label": "storagePrice",
								"offset": 0,
								"slot": "1",
								"type": "t_uint256"
							},
							{
								"astId": 12,
								"contract": "contracts/device.sol:Device",
								"label": "upbandWidth",
								"offset": 0,
								"slot": "2",
								"type": "t_uint256"
							},
							{
								"astId": 14,
								"contract": "contracts/device.sol:Device",
								"label": "downbandWidth",
								"offset": 0,
								"slot": "3",
								"type": "t_uint256"
							}
						],
						"numberOfBytes": "128"
					},
					"t_struct(deviceInfo)30_storage": {
						"encoding": "inplace",
						"label": "struct deviceInfo",
						"members": [
							{
								"astId": 17,
								"contract": "contracts/device.sol:Device",
								"label": "id",
								"offset": 0,
								"slot": "0",
								"type": "t_uint256"
							},
							{
								"astId": 19,
								"contract": "contracts/device.sol:Device",
								"label": "owner",
								"offset": 0,
								"slot": "1",
								"type": "t_address"
							},
							{
								"astId": 22,
								"contract": "contracts/device.sol:Device",
								"label": "status",
								"offset": 20,
								"slot": "1",
								"type": "t_enum(DeviceStatus)6"
							},
							{
								"astId": 24,
								"contract": "contracts/device.sol:Device",
								"label": "machineId",
								"offset": 0,
								"slot": "2",
								"type": "t_string_storage"
							},
							{
								"astId": 26,
								"contract": "contracts/device.sol:Device",
								"label": "serverInfo",
								"offset": 0,
								"slot": "3",
								"type": "t_string_storage"
							},
							{
								"astId": 29,
								"contract": "contracts/device.sol:Device",
								"label": "price",
								"offset": 0,
								"slot": "4",
								"type": "t_struct(Price)15_storage"
							}
						],
						"numberOfBytes": "256"
					},
					"t_uint256": {
						"encoding": "inplace",
						"label": "uint256",
						"numberOfBytes": "32"
					}
				}
			},
			"userdoc": {
				"kind": "user",
				"methods": {},
				"version": 1
			}
		}
	}
}