{
	"data": {
		"bytecode": {
			"linkReferences": {},
			"object": "60806040525f80555f6002555f6003555f60045f6101000a81548160ff021916908360ff160217905550348015610034575f80fd5b50611924806100425f395ff3fe608060405234801561000f575f80fd5b50600436106100a7575f3560e01c80637a36b3ee1161006f5780637a36b3ee146101a4578063a3a4aff4146101d4578063c46dcec514610204578063c74ce95c14610238578063d67b9afd14610256578063e939567914610286576100a7565b806309f110b1146100ab5780630b92426d146100db57806310ff8e311461010b57806311b800eb14610140578063588e00a514610174575b5f80fd5b6100c560048036038101906100c09190610e70565b6102b6565b6040516100d291906110c7565b60405180910390f35b6100f560048036038101906100f091906111d8565b610531565b6040516101029190611237565b60405180910390f35b61012560048036038101906101209190610e70565b610555565b60405161013796959493929190611309565b60405180910390f35b61015a60048036038101906101559190610e70565b610705565b60405161016b959493929190611377565b60405180910390f35b61018e60048036038101906101899190610e70565b610765565b60405161019b919061142e565b60405180910390f35b6101be60048036038101906101b991906114fb565b61085b565b6040516101cb9190611571565b60405180910390f35b6101ee60048036038101906101e991906111d8565b6109e4565b6040516101fb9190611237565b60405180910390f35b61021e60048036038101906102199190610e70565b610a36565b60405161022f959493929190611377565b60405180910390f35b610240610a96565b60405161024d91906115ac565b60405180910390f35b610270600480360381019061026b9190610e70565b610aa8565b60405161027d919061142e565b60405180910390f35b6102a0600480360381019061029b9190610e70565b610c00565b6040516102ad9190611571565b60405180910390f35b6102be610d67565b5f8211610300576040517f08c379a00000000000000000000000000000000000000000000000000000000081526004016102f79061160f565b60405180910390fd5b6001808361030e919061165a565b8154811061031f5761031e61168d565b5b905f5260205f2090600802016040518060c00160405290815f8201548152602001600182015f9054906101000a900473ffffffffffffffffffffffffffffffffffffffff1673ffffffffffffffffffffffffffffffffffffffff1673ffffffffffffffffffffffffffffffffffffffff1681526020016001820160149054906101000a900460ff1660038111156103b9576103b8610ee9565b5b60038111156103cb576103ca610ee9565b5b81526020016002820180546103df906116e7565b80601f016020809104026020016040519081016040528092919081815260200182805461040b906116e7565b80156104565780601f1061042d57610100808354040283529160200191610456565b820191905f5260205f20905b81548152906001019060200180831161043957829003601f168201915b5050505050815260200160038201805461046f906116e7565b80601f016020809104026020016040519081016040528092919081815260200182805461049b906116e7565b80156104e65780601f106104bd576101008083540402835291602001916104e6565b820191905f5260205f20905b8154815290600101906020018083116104c957829003601f168201915b50505050508152602001600482016040518060800160405290815f82015481526020016001820154815260200160028201548152602001600382015481525050815250509050919050565b5f838361053e919061165a565b825f015161054c9190611717565b90509392505050565b60018181548110610564575f80fd5b905f5260205f2090600802015f91509050805f015490806001015f9054906101000a900473ffffffffffffffffffffffffffffffffffffffff16908060010160149054906101000a900460ff16908060020180546105c1906116e7565b80601f01602080910402602001604051908101604052809291908181526020018280546105ed906116e7565b80156106385780601f1061060f57610100808354040283529160200191610638565b820191905f5260205f20905b81548152906001019060200180831161061b57829003601f168201915b50505050509080600301805461064d906116e7565b80601f0160208091040260200160405190810160405280929190818152602001828054610679906116e7565b80156106c45780601f1061069b576101008083540402835291602001916106c4565b820191905f5260205f20905b8154815290600101906020018083116106a757829003601f168201915b505050505090806004016040518060800160405290815f82015481526020016001820154815260200160028201548152602001600382015481525050905086565b60068181548110610714575f80fd5b905f5260205f2090600502015f91509050805f015f9054906101000a900473ffffffffffffffffffffffffffffffffffffffff16908060010154908060020154908060030154908060040154905085565b61076d610dc8565b42600660018461077d919061165a565b8154811061078e5761078d61168d565b5b905f5260205f2090600502016003018190555060066001836107b0919061165a565b815481106107c1576107c061168d565b5b905f5260205f2090600502016040518060a00160405290815f82015f9054906101000a900473ffffffffffffffffffffffffffffffffffffffff1673ffffffffffffffffffffffffffffffffffffffff1673ffffffffffffffffffffffffffffffffffffffff1681526020016001820154815260200160028201548152602001600382015481526020016004820154815250509050919050565b60605f8390505f8390505f815183516108749190611758565b67ffffffffffffffff81111561088d5761088c6110eb565b5b6040519080825280601f01601f1916602001820160405280156108bf5781602001600182028036833780820191505090505b5090505f805b845181101561094c578481815181106108e1576108e061168d565b5b602001015160f81c60f81b8383806108f89061178b565b94508151811061090b5761090a61168d565b5b60200101907effffffffffffffffffffffffffffffffffffffffffffffffffffffffffffff191690815f1a90535080806109449061178b565b9150506108c5565b505f5b83518110156109d65783818151811061096b5761096a61168d565b5b602001015160f81c60f81b8383806109829061178b565b9450815181106109955761099461168d565b5b60200101907effffffffffffffffffffffffffffffffffffffffffffffffffffffffffffff191690815f1a90535080806109ce9061178b565b91505061094f565b508194505050505092915050565b5f610e1084846109f4919061165a565b1115610a1257610e10825f0151610a0b9190611717565b9050610a2f565b8383610a1e919061165a565b825f0151610a2c9190611717565b90505b9392505050565b60058181548110610a45575f80fd5b905f5260205f2090600502015f91509050805f015f9054906101000a900473ffffffffffffffffffffffffffffffffffffffff16908060010154908060020154908060030154908060040154905085565b60045f9054906101000a900460ff1681565b610ab0610dc8565b5f6001600580549050610ac3919061165a565b90505b600580549050811015610bbf578260058281548110610ae857610ae761168d565b5b905f5260205f2090600502016004015403610bac5760058181548110610b1157610b1061168d565b5b905f5260205f2090600502016040518060a00160405290815f82015f9054906101000a900473ffffffffffffffffffffffffffffffffffffffff1673ffffffffffffffffffffffffffffffffffffffff1673ffffffffffffffffffffffffffffffffffffffff168152602001600182015481526020016002820154815260200160038201548152602001600482015481525050915050610bfb565b8080610bb7906117d2565b915050610ac6565b506040517f08c379a0000000000000000000000000000000000000000000000000000000008152600401610bf290611843565b60405180910390fd5b919050565b60605f8203610c46576040518060400160405280600181526020017f30000000000000000000000000000000000000000000000000000000000000008152509050610d62565b5f8290505f5b5f8214610c75578080610c5e9061178b565b915050600a82610c6e919061188e565b9150610c4c565b5f8167ffffffffffffffff811115610c9057610c8f6110eb565b5b6040519080825280601f01601f191660200182016040528015610cc25781602001600182028036833780820191505090505b5090505f600183610cd3919061165a565b90505b5f8614610d5a57600a86610cea91906118be565b6030610cf69190611758565b60f81b828280610d05906117d2565b935081518110610d1857610d1761168d565b5b60200101907effffffffffffffffffffffffffffffffffffffffffffffffffffffffffffff191690815f1a905350600a86610d53919061188e565b9550610cd6565b819450505050505b919050565b6040518060c001604052805f81526020015f73ffffffffffffffffffffffffffffffffffffffff1681526020015f6003811115610da757610da6610ee9565b5b81526020016060815260200160608152602001610dc2610e08565b81525090565b6040518060a001604052805f73ffffffffffffffffffffffffffffffffffffffff1681526020015f81526020015f81526020015f81526020015f81525090565b60405180608001604052805f81526020015f81526020015f81526020015f81525090565b5f604051905090565b5f80fd5b5f80fd5b5f819050919050565b610e4f81610e3d565b8114610e59575f80fd5b50565b5f81359050610e6a81610e46565b92915050565b5f60208284031215610e8557610e84610e35565b5b5f610e9284828501610e5c565b91505092915050565b610ea481610e3d565b82525050565b5f73ffffffffffffffffffffffffffffffffffffffff82169050919050565b5f610ed382610eaa565b9050919050565b610ee381610ec9565b82525050565b7f4e487b71000000000000000000000000000000000000000000000000000000005f52602160045260245ffd5b60048110610f2757610f26610ee9565b5b50565b5f819050610f3782610f16565b919050565b5f610f4682610f2a565b9050919050565b610f5681610f3c565b82525050565b5f81519050919050565b5f82825260208201905092915050565b5f5b83811015610f93578082015181840152602081019050610f78565b5f8484015250505050565b5f601f19601f8301169050919050565b5f610fb882610f5c565b610fc28185610f66565b9350610fd2818560208601610f76565b610fdb81610f9e565b840191505092915050565b608082015f820151610ffa5f850182610e9b565b50602082015161100d6020850182610e9b565b5060408201516110206040850182610e9b565b5060608201516110336060850182610e9b565b50505050565b5f61012083015f83015161104f5f860182610e9b565b5060208301516110626020860182610eda565b5060408301516110756040860182610f4d565b506060830151848203606086015261108d8282610fae565b915050608083015184820360808601526110a78282610fae565b91505060a08301516110bc60a0860182610fe6565b508091505092915050565b5f6020820190508181035f8301526110df8184611039565b905092915050565b5f80fd5b7f4e487b71000000000000000000000000000000000000000000000000000000005f52604160045260245ffd5b61112182610f9e565b810181811067ffffffffffffffff821117156111405761113f6110eb565b5b80604052505050565b5f611152610e2c565b905061115e8282611118565b919050565b5f60808284031215611178576111776110e7565b5b6111826080611149565b90505f61119184828501610e5c565b5f8301525060206111a484828501610e5c565b60208301525060406111b884828501610e5c565b60408301525060606111cc84828501610e5c565b60608301525092915050565b5f805f60c084860312156111ef576111ee610e35565b5b5f6111fc86828701610e5c565b935050602061120d86828701610e5c565b925050604061121e86828701611163565b9150509250925092565b61123181610e3d565b82525050565b5f60208201905061124a5f830184611228565b92915050565b61125981610ec9565b82525050565b61126881610f3c565b82525050565b5f82825260208201905092915050565b5f61128882610f5c565b611292818561126e565b93506112a2818560208601610f76565b6112ab81610f9e565b840191505092915050565b608082015f8201516112ca5f850182610e9b565b5060208201516112dd6020850182610e9b565b5060408201516112f06040850182610e9b565b5060608201516113036060850182610e9b565b50505050565b5f6101208201905061131d5f830189611228565b61132a6020830188611250565b611337604083018761125f565b8181036060830152611349818661127e565b9050818103608083015261135d818561127e565b905061136c60a08301846112b6565b979650505050505050565b5f60a08201905061138a5f830188611250565b6113976020830187611228565b6113a46040830186611228565b6113b16060830185611228565b6113be6080830184611228565b9695505050505050565b60a082015f8201516113dc5f850182610eda565b5060208201516113ef6020850182610e9b565b5060408201516114026040850182610e9b565b5060608201516114156060850182610e9b565b5060808201516114286080850182610e9b565b50505050565b5f60a0820190506114415f8301846113c8565b92915050565b5f80fd5b5f80fd5b5f67ffffffffffffffff821115611469576114686110eb565b5b61147282610f9e565b9050602081019050919050565b828183375f83830152505050565b5f61149f61149a8461144f565b611149565b9050828152602081018484840111156114bb576114ba61144b565b5b6114c684828561147f565b509392505050565b5f82601f8301126114e2576114e1611447565b5b81356114f284826020860161148d565b91505092915050565b5f806040838503121561151157611510610e35565b5b5f83013567ffffffffffffffff81111561152e5761152d610e39565b5b61153a858286016114ce565b925050602083013567ffffffffffffffff81111561155b5761155a610e39565b5b611567858286016114ce565b9150509250929050565b5f6020820190508181035f830152611589818461127e565b905092915050565b5f60ff82169050919050565b6115a681611591565b82525050565b5f6020820190506115bf5f83018461159d565b92915050565b7f6e656564206465766963655f6964203e203000000000000000000000000000005f82015250565b5f6115f960128361126e565b9150611604826115c5565b602082019050919050565b5f6020820190508181035f830152611626816115ed565b9050919050565b7f4e487b71000000000000000000000000000000000000000000000000000000005f52601160045260245ffd5b5f61166482610e3d565b915061166f83610e3d565b92508282039050818111156116875761168661162d565b5b92915050565b7f4e487b71000000000000000000000000000000000000000000000000000000005f52603260045260245ffd5b7f4e487b71000000000000000000000000000000000000000000000000000000005f52602260045260245ffd5b5f60028204905060018216806116fe57607f821691505b602082108103611711576117106116ba565b5b50919050565b5f61172182610e3d565b915061172c83610e3d565b925082820261173a81610e3d565b915082820484148315176117515761175061162d565b5b5092915050565b5f61176282610e3d565b915061176d83610e3d565b92508282019050808211156117855761178461162d565b5b92915050565b5f61179582610e3d565b91507fffffffffffffffffffffffffffffffffffffffffffffffffffffffffffffffff82036117c7576117c661162d565b5b600182019050919050565b5f6117dc82610e3d565b91505f82036117ee576117ed61162d565b5b600182039050919050565b7f63616e27742066696e64206c65617365210000000000000000000000000000005f82015250565b5f61182d60118361126e565b9150611838826117f9565b602082019050919050565b5f6020820190508181035f83015261185a81611821565b9050919050565b7f4e487b71000000000000000000000000000000000000000000000000000000005f52601260045260245ffd5b5f61189882610e3d565b91506118a383610e3d565b9250826118b3576118b2611861565b5b828204905092915050565b5f6118c882610e3d565b91506118d383610e3d565b9250826118e3576118e2611861565b5b82820690509291505056fea2646970667358221220c2245ea7e92c3948e3e6e68859dab2560353fa84dba5adc00509c5cf70d85a5764736f6c63430008150033",
			"opcodes": "PUSH1 0x80 PUSH1 0x40 MSTORE PUSH0 DUP1 SSTORE PUSH0 PUSH1 0x2 SSTORE PUSH0 PUSH1 0x3 SSTORE PUSH0 PUSH1 0x4 PUSH0 PUSH2 0x100 EXP DUP2 SLOAD DUP2 PUSH1 0xFF MUL NOT AND SWAP1 DUP4 PUSH1 0xFF AND MUL OR SWAP1 SSTORE POP CALLVALUE DUP1 ISZERO PUSH2 0x34 JUMPI PUSH0 DUP1 REVERT JUMPDEST POP PUSH2 0x1924 DUP1 PUSH2 0x42 PUSH0 CODECOPY PUSH0 RETURN INVALID PUSH1 0x80 PUSH1 0x40 MSTORE CALLVALUE DUP1 ISZERO PUSH2 0xF JUMPI PUSH0 DUP1 REVERT JUMPDEST POP PUSH1 0x4 CALLDATASIZE LT PUSH2 0xA7 JUMPI PUSH0 CALLDATALOAD PUSH1 0xE0 SHR DUP1 PUSH4 0x7A36B3EE GT PUSH2 0x6F JUMPI DUP1 PUSH4 0x7A36B3EE EQ PUSH2 0x1A4 JUMPI DUP1 PUSH4 0xA3A4AFF4 EQ PUSH2 0x1D4 JUMPI DUP1 PUSH4 0xC46DCEC5 EQ PUSH2 0x204 JUMPI DUP1 PUSH4 0xC74CE95C EQ PUSH2 0x238 JUMPI DUP1 PUSH4 0xD67B9AFD EQ PUSH2 0x256 JUMPI DUP1 PUSH4 0xE9395679 EQ PUSH2 0x286 JUMPI PUSH2 0xA7 JUMP JUMPDEST DUP1 PUSH4 0x9F110B1 EQ PUSH2 0xAB JUMPI DUP1 PUSH4 0xB92426D EQ PUSH2 0xDB JUMPI DUP1 PUSH4 0x10FF8E31 EQ PUSH2 0x10B JUMPI DUP1 PUSH4 0x11B800EB EQ PUSH2 0x140 JUMPI DUP1 PUSH4 0x588E00A5 EQ PUSH2 0x174 JUMPI JUMPDEST PUSH0 DUP1 REVERT JUMPDEST PUSH2 0xC5 PUSH1 0x4 DUP1 CALLDATASIZE SUB DUP2 ADD SWAP1 PUSH2 0xC0 SWAP2 SWAP1 PUSH2 0xE70 JUMP JUMPDEST PUSH2 0x2B6 JUMP JUMPDEST PUSH1 0x40 MLOAD PUSH2 0xD2 SWAP2 SWAP1 PUSH2 0x10C7 JUMP JUMPDEST PUSH1 0x40 MLOAD DUP1 SWAP2 SUB SWAP1 RETURN JUMPDEST PUSH2 0xF5 PUSH1 0x4 DUP1 CALLDATASIZE SUB DUP2 ADD SWAP1 PUSH2 0xF0 SWAP2 SWAP1 PUSH2 0x11D8 JUMP JUMPDEST PUSH2 0x531 JUMP JUMPDEST PUSH1 0x40 MLOAD PUSH2 0x102 SWAP2 SWAP1 PUSH2 0x1237 JUMP JUMPDEST PUSH1 0x40 MLOAD DUP1 SWAP2 SUB SWAP1 RETURN JUMPDEST PUSH2 0x125 PUSH1 0x4 DUP1 CALLDATASIZE SUB DUP2 ADD SWAP1 PUSH2 0x120 SWAP2 SWAP1 PUSH2 0xE70 JUMP JUMPDEST PUSH2 0x555 JUMP JUMPDEST PUSH1 0x40 MLOAD PUSH2 0x137 SWAP7 SWAP6 SWAP5 SWAP4 SWAP3 SWAP2 SWAP1 PUSH2 0x1309 JUMP JUMPDEST PUSH1 0x40 MLOAD DUP1 SWAP2 SUB SWAP1 RETURN JUMPDEST PUSH2 0x15A PUSH1 0x4 DUP1 CALLDATASIZE SUB DUP2 ADD SWAP1 PUSH2 0x155 SWAP2 SWAP1 PUSH2 0xE70 JUMP JUMPDEST PUSH2 0x705 JUMP JUMPDEST PUSH1 0x40 MLOAD PUSH2 0x16B SWAP6 SWAP5 SWAP4 SWAP3 SWAP2 SWAP1 PUSH2 0x1377 JUMP JUMPDEST PUSH1 0x40 MLOAD DUP1 SWAP2 SUB SWAP1 RETURN JUMPDEST PUSH2 0x18E PUSH1 0x4 DUP1 CALLDATASIZE SUB DUP2 ADD SWAP1 PUSH2 0x189 SWAP2 SWAP1 PUSH2 0xE70 JUMP JUMPDEST PUSH2 0x765 JUMP JUMPDEST PUSH1 0x40 MLOAD PUSH2 0x19B SWAP2 SWAP1 PUSH2 0x142E JUMP JUMPDEST PUSH1 0x40 MLOAD DUP1 SWAP2 SUB SWAP1 RETURN JUMPDEST PUSH2 0x1BE PUSH1 0x4 DUP1 CALLDATASIZE SUB DUP2 ADD SWAP1 PUSH2 0x1B9 SWAP2 SWAP1 PUSH2 0x14FB JUMP JUMPDEST PUSH2 0x85B JUMP JUMPDEST PUSH1 0x40 MLOAD PUSH2 0x1CB SWAP2 SWAP1 PUSH2 0x1571 JUMP JUMPDEST PUSH1 0x40 MLOAD DUP1 SWAP2 SUB SWAP1 RETURN JUMPDEST PUSH2 0x1EE PUSH1 0x4 DUP1 CALLDATASIZE SUB DUP2 ADD SWAP1 PUSH2 0x1E9 SWAP2 SWAP1 PUSH2 0x11D8 JUMP JUMPDEST PUSH2 0x9E4 JUMP JUMPDEST PUSH1 0x40 MLOAD PUSH2 0x1FB SWAP2 SWAP1 PUSH2 0x1237 JUMP JUMPDEST PUSH1 0x40 MLOAD DUP1 SWAP2 SUB SWAP1 RETURN JUMPDEST PUSH2 0x21E PUSH1 0x4 DUP1 CALLDATASIZE SUB DUP2 ADD SWAP1 PUSH2 0x219 SWAP2 SWAP1 PUSH2 0xE70 JUMP JUMPDEST PUSH2 0xA36 JUMP JUMPDEST PUSH1 0x40 MLOAD PUSH2 0x22F SWAP6 SWAP5 SWAP4 SWAP3 SWAP2 SWAP1 PUSH2 0x1377 JUMP JUMPDEST PUSH1 0x40 MLOAD DUP1 SWAP2 SUB SWAP1 RETURN JUMPDEST PUSH2 0x240 PUSH2 0xA96 JUMP JUMPDEST PUSH1 0x40 MLOAD PUSH2 0x24D SWAP2 SWAP1 PUSH2 0x15AC JUMP JUMPDEST PUSH1 0x40 MLOAD DUP1 SWAP2 SUB SWAP1 RETURN JUMPDEST PUSH2 0x270 PUSH1 0x4 DUP1 CALLDATASIZE SUB DUP2 ADD SWAP1 PUSH2 0x26B SWAP2 SWAP1 PUSH2 0xE70 JUMP JUMPDEST PUSH2 0xAA8 JUMP JUMPDEST PUSH1 0x40 MLOAD PUSH2 0x27D SWAP2 SWAP1 PUSH2 0x142E JUMP JUMPDEST PUSH1 0x40 MLOAD DUP1 SWAP2 SUB SWAP1 RETURN JUMPDEST PUSH2 0x2A0 PUSH1 0x4 DUP1 CALLDATASIZE SUB DUP2 ADD SWAP1 PUSH2 0x29B SWAP2 SWAP1 PUSH2 0xE70 JUMP JUMPDEST PUSH2 0xC00 JUMP JUMPDEST PUSH1 0x40 MLOAD PUSH2 0x2AD SWAP2 SWAP1 PUSH2 0x1571 JUMP JUMPDEST PUSH1 0x40 MLOAD DUP1 SWAP2 SUB SWAP1 RETURN JUMPDEST PUSH2 0x2BE PUSH2 0xD67 JUMP JUMPDEST PUSH0 DUP3 GT PUSH2 0x300 JUMPI PUSH1 0x40 MLOAD PUSH32 0x8C379A000000000000000000000000000000000000000000000000000000000 DUP2 MSTORE PUSH1 0x4 ADD PUSH2 0x2F7 SWAP1 PUSH2 0x160F JUMP JUMPDEST PUSH1 0x40 MLOAD DUP1 SWAP2 SUB SWAP1 REVERT JUMPDEST PUSH1 0x1 DUP1 DUP4 PUSH2 0x30E SWAP2 SWAP1 PUSH2 0x165A JUMP JUMPDEST DUP2 SLOAD DUP2 LT PUSH2 0x31F JUMPI PUSH2 0x31E PUSH2 0x168D JUMP JUMPDEST JUMPDEST SWAP1 PUSH0 MSTORE PUSH1 0x20 PUSH0 KECCAK256 SWAP1 PUSH1 0x8 MUL ADD PUSH1 0x40 MLOAD DUP1 PUSH1 0xC0 ADD PUSH1 0x40 MSTORE SWAP1 DUP2 PUSH0 DUP3 ADD SLOAD DUP2 MSTORE PUSH1 0x20 ADD PUSH1 0x1 DUP3 ADD PUSH0 SWAP1 SLOAD SWAP1 PUSH2 0x100 EXP SWAP1 DIV PUSH20 0xFFFFFFFFFFFFFFFFFFFFFFFFFFFFFFFFFFFFFFFF AND PUSH20 0xFFFFFFFFFFFFFFFFFFFFFFFFFFFFFFFFFFFFFFFF AND PUSH20 0xFFFFFFFFFFFFFFFFFFFFFFFFFFFFFFFFFFFFFFFF AND DUP2 MSTORE PUSH1 0x20 ADD PUSH1 0x1 DUP3 ADD PUSH1 0x14 SWAP1 SLOAD SWAP1 PUSH2 0x100 EXP SWAP1 DIV PUSH1 0xFF AND PUSH1 0x3 DUP2 GT ISZERO PUSH2 0x3B9 JUMPI PUSH2 0x3B8 PUSH2 0xEE9 JUMP JUMPDEST JUMPDEST PUSH1 0x3 DUP2 GT ISZERO PUSH2 0x3CB JUMPI PUSH2 0x3CA PUSH2 0xEE9 JUMP JUMPDEST JUMPDEST DUP2 MSTORE PUSH1 0x20 ADD PUSH1 0x2 DUP3 ADD DUP1 SLOAD PUSH2 0x3DF SWAP1 PUSH2 0x16E7 JUMP JUMPDEST DUP1 PUSH1 0x1F ADD PUSH1 0x20 DUP1 SWAP2 DIV MUL PUSH1 0x20 ADD PUSH1 0x40 MLOAD SWAP1 DUP2 ADD PUSH1 0x40 MSTORE DUP1 SWAP3 SWAP2 SWAP1 DUP2 DUP2 MSTORE PUSH1 0x20 ADD DUP3 DUP1 SLOAD PUSH2 0x40B SWAP1 PUSH2 0x16E7 JUMP JUMPDEST DUP1 ISZERO PUSH2 0x456 JUMPI DUP1 PUSH1 0x1F LT PUSH2 0x42D JUMPI PUSH2 0x100 DUP1 DUP4 SLOAD DIV MUL DUP4 MSTORE SWAP2 PUSH1 0x20 ADD SWAP2 PUSH2 0x456 JUMP JUMPDEST DUP3 ADD SWAP2 SWAP1 PUSH0 MSTORE PUSH1 0x20 PUSH0 KECCAK256 SWAP1 JUMPDEST DUP2 SLOAD DUP2 MSTORE SWAP1 PUSH1 0x1 ADD SWAP1 PUSH1 0x20 ADD DUP1 DUP4 GT PUSH2 0x439 JUMPI DUP3 SWAP1 SUB PUSH1 0x1F AND DUP3 ADD SWAP2 JUMPDEST POP POP POP POP POP DUP2 MSTORE PUSH1 0x20 ADD PUSH1 0x3 DUP3 ADD DUP1 SLOAD PUSH2 0x46F SWAP1 PUSH2 0x16E7 JUMP JUMPDEST DUP1 PUSH1 0x1F ADD PUSH1 0x20 DUP1 SWAP2 DIV MUL PUSH1 0x20 ADD PUSH1 0x40 MLOAD SWAP1 DUP2 ADD PUSH1 0x40 MSTORE DUP1 SWAP3 SWAP2 SWAP1 DUP2 DUP2 MSTORE PUSH1 0x20 ADD DUP3 DUP1 SLOAD PUSH2 0x49B SWAP1 PUSH2 0x16E7 JUMP JUMPDEST DUP1 ISZERO PUSH2 0x4E6 JUMPI DUP1 PUSH1 0x1F LT PUSH2 0x4BD JUMPI PUSH2 0x100 DUP1 DUP4 SLOAD DIV MUL DUP4 MSTORE SWAP2 PUSH1 0x20 ADD SWAP2 PUSH2 0x4E6 JUMP JUMPDEST DUP3 ADD SWAP2 SWAP1 PUSH0 MSTORE PUSH1 0x20 PUSH0 KECCAK256 SWAP1 JUMPDEST DUP2 SLOAD DUP2 MSTORE SWAP1 PUSH1 0x1 ADD SWAP1 PUSH1 0x20 ADD DUP1 DUP4 GT PUSH2 0x4C9 JUMPI DUP3 SWAP1 SUB PUSH1 0x1F AND DUP3 ADD SWAP2 JUMPDEST POP POP POP POP POP DUP2 MSTORE PUSH1 0x20 ADD PUSH1 0x4 DUP3 ADD PUSH1 0x40 MLOAD DUP1 PUSH1 0x80 ADD PUSH1 0x40 MSTORE SWAP1 DUP2 PUSH0 DUP3 ADD SLOAD DUP2 MSTORE PUSH1 0x20 ADD PUSH1 0x1 DUP3 ADD SLOAD DUP2 MSTORE PUSH1 0x20 ADD PUSH1 0x2 DUP3 ADD SLOAD DUP2 MSTORE PUSH1 0x20 ADD PUSH1 0x3 DUP3 ADD SLOAD DUP2 MSTORE POP POP DUP2 MSTORE POP POP SWAP1 POP SWAP2 SWAP1 POP JUMP JUMPDEST PUSH0 DUP4 DUP4 PUSH2 0x53E SWAP2 SWAP1 PUSH2 0x165A JUMP JUMPDEST DUP3 PUSH0 ADD MLOAD PUSH2 0x54C SWAP2 SWAP1 PUSH2 0x1717 JUMP JUMPDEST SWAP1 POP SWAP4 SWAP3 POP POP POP JUMP JUMPDEST PUSH1 0x1 DUP2 DUP2 SLOAD DUP2 LT PUSH2 0x564 JUMPI PUSH0 DUP1 REVERT JUMPDEST SWAP1 PUSH0 MSTORE PUSH1 0x20 PUSH0 KECCAK256 SWAP1 PUSH1 0x8 MUL ADD PUSH0 SWAP2 POP SWAP1 POP DUP1 PUSH0 ADD SLOAD SWAP1 DUP1 PUSH1 0x1 ADD PUSH0 SWAP1 SLOAD SWAP1 PUSH2 0x100 EXP SWAP1 DIV PUSH20 0xFFFFFFFFFFFFFFFFFFFFFFFFFFFFFFFFFFFFFFFF AND SWAP1 DUP1 PUSH1 0x1 ADD PUSH1 0x14 SWAP1 SLOAD SWAP1 PUSH2 0x100 EXP SWAP1 DIV PUSH1 0xFF AND SWAP1 DUP1 PUSH1 0x2 ADD DUP1 SLOAD PUSH2 0x5C1 SWAP1 PUSH2 0x16E7 JUMP JUMPDEST DUP1 PUSH1 0x1F ADD PUSH1 0x20 DUP1 SWAP2 DIV MUL PUSH1 0x20 ADD PUSH1 0x40 MLOAD SWAP1 DUP2 ADD PUSH1 0x40 MSTORE DUP1 SWAP3 SWAP2 SWAP1 DUP2 DUP2 MSTORE PUSH1 0x20 ADD DUP3 DUP1 SLOAD PUSH2 0x5ED SWAP1 PUSH2 0x16E7 JUMP JUMPDEST DUP1 ISZERO PUSH2 0x638 JUMPI DUP1 PUSH1 0x1F LT PUSH2 0x60F JUMPI PUSH2 0x100 DUP1 DUP4 SLOAD DIV MUL DUP4 MSTORE SWAP2 PUSH1 0x20 ADD SWAP2 PUSH2 0x638 JUMP JUMPDEST DUP3 ADD SWAP2 SWAP1 PUSH0 MSTORE PUSH1 0x20 PUSH0 KECCAK256 SWAP1 JUMPDEST DUP2 SLOAD DUP2 MSTORE SWAP1 PUSH1 0x1 ADD SWAP1 PUSH1 0x20 ADD DUP1 DUP4 GT PUSH2 0x61B JUMPI DUP3 SWAP1 SUB PUSH1 0x1F AND DUP3 ADD SWAP2 JUMPDEST POP POP POP POP POP SWAP1 DUP1 PUSH1 0x3 ADD DUP1 SLOAD PUSH2 0x64D SWAP1 PUSH2 0x16E7 JUMP JUMPDEST DUP1 PUSH1 0x1F ADD PUSH1 0x20 DUP1 SWAP2 DIV MUL PUSH1 0x20 ADD PUSH1 0x40 MLOAD SWAP1 DUP2 ADD PUSH1 0x40 MSTORE DUP1 SWAP3 SWAP2 SWAP1 DUP2 DUP2 MSTORE PUSH1 0x20 ADD DUP3 DUP1 SLOAD PUSH2 0x679 SWAP1 PUSH2 0x16E7 JUMP JUMPDEST DUP1 ISZERO PUSH2 0x6C4 JUMPI DUP1 PUSH1 0x1F LT PUSH2 0x69B JUMPI PUSH2 0x100 DUP1 DUP4 SLOAD DIV MUL DUP4 MSTORE SWAP2 PUSH1 0x20 ADD SWAP2 PUSH2 0x6C4 JUMP JUMPDEST DUP3 ADD SWAP2 SWAP1 PUSH0 MSTORE PUSH1 0x20 PUSH0 KECCAK256 SWAP1 JUMPDEST DUP2 SLOAD DUP2 MSTORE SWAP1 PUSH1 0x1 ADD SWAP1 PUSH1 0x20 ADD DUP1 DUP4 GT PUSH2 0x6A7 JUMPI DUP3 SWAP1 SUB PUSH1 0x1F AND DUP3 ADD SWAP2 JUMPDEST POP POP POP POP POP SWAP1 DUP1 PUSH1 0x4 ADD PUSH1 0x40 MLOAD DUP1 PUSH1 0x80 ADD PUSH1 0x40 MSTORE SWAP1 DUP2 PUSH0 DUP3 ADD SLOAD DUP2 MSTORE PUSH1 0x20 ADD PUSH1 0x1 DUP3 ADD SLOAD DUP2 MSTORE PUSH1 0x20 ADD PUSH1 0x2 DUP3 ADD SLOAD DUP2 MSTORE PUSH1 0x20 ADD PUSH1 0x3 DUP3 ADD SLOAD DUP2 MSTORE POP POP SWAP1 POP DUP7 JUMP JUMPDEST PUSH1 0x6 DUP2 DUP2 SLOAD DUP2 LT PUSH2 0x714 JUMPI PUSH0 DUP1 REVERT JUMPDEST SWAP1 PUSH0 MSTORE PUSH1 0x20 PUSH0 KECCAK256 SWAP1 PUSH1 0x5 MUL ADD PUSH0 SWAP2 POP SWAP1 POP DUP1 PUSH0 ADD PUSH0 SWAP1 SLOAD SWAP1 PUSH2 0x100 EXP SWAP1 DIV PUSH20 0xFFFFFFFFFFFFFFFFFFFFFFFFFFFFFFFFFFFFFFFF AND SWAP1 DUP1 PUSH1 0x1 ADD SLOAD SWAP1 DUP1 PUSH1 0x2 ADD SLOAD SWAP1 DUP1 PUSH1 0x3 ADD SLOAD SWAP1 DUP1 PUSH1 0x4 ADD SLOAD SWAP1 POP DUP6 JUMP JUMPDEST PUSH2 0x76D PUSH2 0xDC8 JUMP JUMPDEST TIMESTAMP PUSH1 0x6 PUSH1 0x1 DUP5 PUSH2 0x77D SWAP2 SWAP1 PUSH2 0x165A JUMP JUMPDEST DUP2 SLOAD DUP2 LT PUSH2 0x78E JUMPI PUSH2 0x78D PUSH2 0x168D JUMP JUMPDEST JUMPDEST SWAP1 PUSH0 MSTORE PUSH1 0x20 PUSH0 KECCAK256 SWAP1 PUSH1 0x5 MUL ADD PUSH1 0x3 ADD DUP2 SWAP1 SSTORE POP PUSH1 0x6 PUSH1 0x1 DUP4 PUSH2 0x7B0 SWAP2 SWAP1 PUSH2 0x165A JUMP JUMPDEST DUP2 SLOAD DUP2 LT PUSH2 0x7C1 JUMPI PUSH2 0x7C0 PUSH2 0x168D JUMP JUMPDEST JUMPDEST SWAP1 PUSH0 MSTORE PUSH1 0x20 PUSH0 KECCAK256 SWAP1 PUSH1 0x5 MUL ADD PUSH1 0x40 MLOAD DUP1 PUSH1 0xA0 ADD PUSH1 0x40 MSTORE SWAP1 DUP2 PUSH0 DUP3 ADD PUSH0 SWAP1 SLOAD SWAP1 PUSH2 0x100 EXP SWAP1 DIV PUSH20 0xFFFFFFFFFFFFFFFFFFFFFFFFFFFFFFFFFFFFFFFF AND PUSH20 0xFFFFFFFFFFFFFFFFFFFFFFFFFFFFFFFFFFFFFFFF AND PUSH20 0xFFFFFFFFFFFFFFFFFFFFFFFFFFFFFFFFFFFFFFFF AND DUP2 MSTORE PUSH1 0x20 ADD PUSH1 0x1 DUP3 ADD SLOAD DUP2 MSTORE PUSH1 0x20 ADD PUSH1 0x2 DUP3 ADD SLOAD DUP2 MSTORE PUSH1 0x20 ADD PUSH1 0x3 DUP3 ADD SLOAD DUP2 MSTORE PUSH1 0x20 ADD PUSH1 0x4 DUP3 ADD SLOAD DUP2 MSTORE POP POP SWAP1 POP SWAP2 SWAP1 POP JUMP JUMPDEST PUSH1 0x60 PUSH0 DUP4 SWAP1 POP PUSH0 DUP4 SWAP1 POP PUSH0 DUP2 MLOAD DUP4 MLOAD PUSH2 0x874 SWAP2 SWAP1 PUSH2 0x1758 JUMP JUMPDEST PUSH8 0xFFFFFFFFFFFFFFFF DUP2 GT ISZERO PUSH2 0x88D JUMPI PUSH2 0x88C PUSH2 0x10EB JUMP JUMPDEST JUMPDEST PUSH1 0x40 MLOAD SWAP1 DUP1 DUP3 MSTORE DUP1 PUSH1 0x1F ADD PUSH1 0x1F NOT AND PUSH1 0x20 ADD DUP3 ADD PUSH1 0x40 MSTORE DUP1 ISZERO PUSH2 0x8BF JUMPI DUP2 PUSH1 0x20 ADD PUSH1 0x1 DUP3 MUL DUP1 CALLDATASIZE DUP4 CALLDATACOPY DUP1 DUP3 ADD SWAP2 POP POP SWAP1 POP JUMPDEST POP SWAP1 POP PUSH0 DUP1 JUMPDEST DUP5 MLOAD DUP2 LT ISZERO PUSH2 0x94C JUMPI DUP5 DUP2 DUP2 MLOAD DUP2 LT PUSH2 0x8E1 JUMPI PUSH2 0x8E0 PUSH2 0x168D JUMP JUMPDEST JUMPDEST PUSH1 0x20 ADD ADD MLOAD PUSH1 0xF8 SHR PUSH1 0xF8 SHL DUP4 DUP4 DUP1 PUSH2 0x8F8 SWAP1 PUSH2 0x178B JUMP JUMPDEST SWAP5 POP DUP2 MLOAD DUP2 LT PUSH2 0x90B JUMPI PUSH2 0x90A PUSH2 0x168D JUMP JUMPDEST JUMPDEST PUSH1 0x20 ADD ADD SWAP1 PUSH31 0xFFFFFFFFFFFFFFFFFFFFFFFFFFFFFFFFFFFFFFFFFFFFFFFFFFFFFFFFFFFFFF NOT AND SWAP1 DUP2 PUSH0 BYTE SWAP1 MSTORE8 POP DUP1 DUP1 PUSH2 0x944 SWAP1 PUSH2 0x178B JUMP JUMPDEST SWAP2 POP POP PUSH2 0x8C5 JUMP JUMPDEST POP PUSH0 JUMPDEST DUP4 MLOAD DUP2 LT ISZERO PUSH2 0x9D6 JUMPI DUP4 DUP2 DUP2 MLOAD DUP2 LT PUSH2 0x96B JUMPI PUSH2 0x96A PUSH2 0x168D JUMP JUMPDEST JUMPDEST PUSH1 0x20 ADD ADD MLOAD PUSH1 0xF8 SHR PUSH1 0xF8 SHL DUP4 DUP4 DUP1 PUSH2 0x982 SWAP1 PUSH2 0x178B JUMP JUMPDEST SWAP5 POP DUP2 MLOAD DUP2 LT PUSH2 0x995 JUMPI PUSH2 0x994 PUSH2 0x168D JUMP JUMPDEST JUMPDEST PUSH1 0x20 ADD ADD SWAP1 PUSH31 0xFFFFFFFFFFFFFFFFFFFFFFFFFFFFFFFFFFFFFFFFFFFFFFFFFFFFFFFFFFFFFF NOT AND SWAP1 DUP2 PUSH0 BYTE SWAP1 MSTORE8 POP DUP1 DUP1 PUSH2 0x9CE SWAP1 PUSH2 0x178B JUMP JUMPDEST SWAP2 POP POP PUSH2 0x94F JUMP JUMPDEST POP DUP2 SWAP5 POP POP POP POP POP SWAP3 SWAP2 POP POP JUMP JUMPDEST PUSH0 PUSH2 0xE10 DUP5 DUP5 PUSH2 0x9F4 SWAP2 SWAP1 PUSH2 0x165A JUMP JUMPDEST GT ISZERO PUSH2 0xA12 JUMPI PUSH2 0xE10 DUP3 PUSH0 ADD MLOAD PUSH2 0xA0B SWAP2 SWAP1 PUSH2 0x1717 JUMP JUMPDEST SWAP1 POP PUSH2 0xA2F JUMP JUMPDEST DUP4 DUP4 PUSH2 0xA1E SWAP2 SWAP1 PUSH2 0x165A JUMP JUMPDEST DUP3 PUSH0 ADD MLOAD PUSH2 0xA2C SWAP2 SWAP1 PUSH2 0x1717 JUMP JUMPDEST SWAP1 POP JUMPDEST SWAP4 SWAP3 POP POP POP JUMP JUMPDEST PUSH1 0x5 DUP2 DUP2 SLOAD DUP2 LT PUSH2 0xA45 JUMPI PUSH0 DUP1 REVERT JUMPDEST SWAP1 PUSH0 MSTORE PUSH1 0x20 PUSH0 KECCAK256 SWAP1 PUSH1 0x5 MUL ADD PUSH0 SWAP2 POP SWAP1 POP DUP1 PUSH0 ADD PUSH0 SWAP1 SLOAD SWAP1 PUSH2 0x100 EXP SWAP1 DIV PUSH20 0xFFFFFFFFFFFFFFFFFFFFFFFFFFFFFFFFFFFFFFFF AND SWAP1 DUP1 PUSH1 0x1 ADD SLOAD SWAP1 DUP1 PUSH1 0x2 ADD SLOAD SWAP1 DUP1 PUSH1 0x3 ADD SLOAD SWAP1 DUP1 PUSH1 0x4 ADD SLOAD SWAP1 POP DUP6 JUMP JUMPDEST PUSH1 0x4 PUSH0 SWAP1 SLOAD SWAP1 PUSH2 0x100 EXP SWAP1 DIV PUSH1 0xFF AND DUP2 JUMP JUMPDEST PUSH2 0xAB0 PUSH2 0xDC8 JUMP JUMPDEST PUSH0 PUSH1 0x1 PUSH1 0x5 DUP1 SLOAD SWAP1 POP PUSH2 0xAC3 SWAP2 SWAP1 PUSH2 0x165A JUMP JUMPDEST SWAP1 POP JUMPDEST PUSH1 0x5 DUP1 SLOAD SWAP1 POP DUP2 LT ISZERO PUSH2 0xBBF JUMPI DUP3 PUSH1 0x5 DUP3 DUP2 SLOAD DUP2 LT PUSH2 0xAE8 JUMPI PUSH2 0xAE7 PUSH2 0x168D JUMP JUMPDEST JUMPDEST SWAP1 PUSH0 MSTORE PUSH1 0x20 PUSH0 KECCAK256 SWAP1 PUSH1 0x5 MUL ADD PUSH1 0x4 ADD SLOAD SUB PUSH2 0xBAC JUMPI PUSH1 0x5 DUP2 DUP2 SLOAD DUP2 LT PUSH2 0xB11 JUMPI PUSH2 0xB10 PUSH2 0x168D JUMP JUMPDEST JUMPDEST SWAP1 PUSH0 MSTORE PUSH1 0x20 PUSH0 KECCAK256 SWAP1 PUSH1 0x5 MUL ADD PUSH1 0x40 MLOAD DUP1 PUSH1 0xA0 ADD PUSH1 0x40 MSTORE SWAP1 DUP2 PUSH0 DUP3 ADD PUSH0 SWAP1 SLOAD SWAP1 PUSH2 0x100 EXP SWAP1 DIV PUSH20 0xFFFFFFFFFFFFFFFFFFFFFFFFFFFFFFFFFFFFFFFF AND PUSH20 0xFFFFFFFFFFFFFFFFFFFFFFFFFFFFFFFFFFFFFFFF AND PUSH20 0xFFFFFFFFFFFFFFFFFFFFFFFFFFFFFFFFFFFFFFFF AND DUP2 MSTORE PUSH1 0x20 ADD PUSH1 0x1 DUP3 ADD SLOAD DUP2 MSTORE PUSH1 0x20 ADD PUSH1 0x2 DUP3 ADD SLOAD DUP2 MSTORE PUSH1 0x20 ADD PUSH1 0x3 DUP3 ADD SLOAD DUP2 MSTORE PUSH1 0x20 ADD PUSH1 0x4 DUP3 ADD SLOAD DUP2 MSTORE POP POP SWAP2 POP POP PUSH2 0xBFB JUMP JUMPDEST DUP1 DUP1 PUSH2 0xBB7 SWAP1 PUSH2 0x17D2 JUMP JUMPDEST SWAP2 POP POP PUSH2 0xAC6 JUMP JUMPDEST POP PUSH1 0x40 MLOAD PUSH32 0x8C379A000000000000000000000000000000000000000000000000000000000 DUP2 MSTORE PUSH1 0x4 ADD PUSH2 0xBF2 SWAP1 PUSH2 0x1843 JUMP JUMPDEST PUSH1 0x40 MLOAD DUP1 SWAP2 SUB SWAP1 REVERT JUMPDEST SWAP2 SWAP1 POP JUMP JUMPDEST PUSH1 0x60 PUSH0 DUP3 SUB PUSH2 0xC46 JUMPI PUSH1 0x40 MLOAD DUP1 PUSH1 0x40 ADD PUSH1 0x40 MSTORE DUP1 PUSH1 0x1 DUP2 MSTORE PUSH1 0x20 ADD PUSH32 0x3000000000000000000000000000000000000000000000000000000000000000 DUP2 MSTORE POP SWAP1 POP PUSH2 0xD62 JUMP JUMPDEST PUSH0 DUP3 SWAP1 POP PUSH0 JUMPDEST PUSH0 DUP3 EQ PUSH2 0xC75 JUMPI DUP1 DUP1 PUSH2 0xC5E SWAP1 PUSH2 0x178B JUMP JUMPDEST SWAP2 POP POP PUSH1 0xA DUP3 PUSH2 0xC6E SWAP2 SWAP1 PUSH2 0x188E JUMP JUMPDEST SWAP2 POP PUSH2 0xC4C JUMP JUMPDEST PUSH0 DUP2 PUSH8 0xFFFFFFFFFFFFFFFF DUP2 GT ISZERO PUSH2 0xC90 JUMPI PUSH2 0xC8F PUSH2 0x10EB JUMP JUMPDEST JUMPDEST PUSH1 0x40 MLOAD SWAP1 DUP1 DUP3 MSTORE DUP1 PUSH1 0x1F ADD PUSH1 0x1F NOT AND PUSH1 0x20 ADD DUP3 ADD PUSH1 0x40 MSTORE DUP1 ISZERO PUSH2 0xCC2 JUMPI DUP2 PUSH1 0x20 ADD PUSH1 0x1 DUP3 MUL DUP1 CALLDATASIZE DUP4 CALLDATACOPY DUP1 DUP3 ADD SWAP2 POP POP SWAP1 POP JUMPDEST POP SWAP1 POP PUSH0 PUSH1 0x1 DUP4 PUSH2 0xCD3 SWAP2 SWAP1 PUSH2 0x165A JUMP JUMPDEST SWAP1 POP JUMPDEST PUSH0 DUP7 EQ PUSH2 0xD5A JUMPI PUSH1 0xA DUP7 PUSH2 0xCEA SWAP2 SWAP1 PUSH2 0x18BE JUMP JUMPDEST PUSH1 0x30 PUSH2 0xCF6 SWAP2 SWAP1 PUSH2 0x1758 JUMP JUMPDEST PUSH1 0xF8 SHL DUP3 DUP3 DUP1 PUSH2 0xD05 SWAP1 PUSH2 0x17D2 JUMP JUMPDEST SWAP4 POP DUP2 MLOAD DUP2 LT PUSH2 0xD18 JUMPI PUSH2 0xD17 PUSH2 0x168D JUMP JUMPDEST JUMPDEST PUSH1 0x20 ADD ADD SWAP1 PUSH31 0xFFFFFFFFFFFFFFFFFFFFFFFFFFFFFFFFFFFFFFFFFFFFFFFFFFFFFFFFFFFFFF NOT AND SWAP1 DUP2 PUSH0 BYTE SWAP1 MSTORE8 POP PUSH1 0xA DUP7 PUSH2 0xD53 SWAP2 SWAP1 PUSH2 0x188E JUMP JUMPDEST SWAP6 POP PUSH2 0xCD6 JUMP JUMPDEST DUP2 SWAP5 POP POP POP POP POP JUMPDEST SWAP2 SWAP1 POP JUMP JUMPDEST PUSH1 0x40 MLOAD DUP1 PUSH1 0xC0 ADD PUSH1 0x40 MSTORE DUP1 PUSH0 DUP2 MSTORE PUSH1 0x20 ADD PUSH0 PUSH20 0xFFFFFFFFFFFFFFFFFFFFFFFFFFFFFFFFFFFFFFFF AND DUP2 MSTORE PUSH1 0x20 ADD PUSH0 PUSH1 0x3 DUP2 GT ISZERO PUSH2 0xDA7 JUMPI PUSH2 0xDA6 PUSH2 0xEE9 JUMP JUMPDEST JUMPDEST DUP2 MSTORE PUSH1 0x20 ADD PUSH1 0x60 DUP2 MSTORE PUSH1 0x20 ADD PUSH1 0x60 DUP2 MSTORE PUSH1 0x20 ADD PUSH2 0xDC2 PUSH2 0xE08 JUMP JUMPDEST DUP2 MSTORE POP SWAP1 JUMP JUMPDEST PUSH1 0x40 MLOAD DUP1 PUSH1 0xA0 ADD PUSH1 0x40 MSTORE DUP1 PUSH0 PUSH20 0xFFFFFFFFFFFFFFFFFFFFFFFFFFFFFFFFFFFFFFFF AND DUP2 MSTORE PUSH1 0x20 ADD PUSH0 DUP2 MSTORE PUSH1 0x20 ADD PUSH0 DUP2 MSTORE PUSH1 0x20 ADD PUSH0 DUP2 MSTORE PUSH1 0x20 ADD PUSH0 DUP2 MSTORE POP SWAP1 JUMP JUMPDEST PUSH1 0x40 MLOAD DUP1 PUSH1 0x80 ADD PUSH1 0x40 MSTORE DUP1 PUSH0 DUP2 MSTORE PUSH1 0x20 ADD PUSH0 DUP2 MSTORE PUSH1 0x20 ADD PUSH0 DUP2 MSTORE PUSH1 0x20 ADD PUSH0 DUP2 MSTORE POP SWAP1 JUMP JUMPDEST PUSH0 PUSH1 0x40 MLOAD SWAP1 POP SWAP1 JUMP JUMPDEST PUSH0 DUP1 REVERT JUMPDEST PUSH0 DUP1 REVERT JUMPDEST PUSH0 DUP2 SWAP1 POP SWAP2 SWAP1 POP JUMP JUMPDEST PUSH2 0xE4F DUP2 PUSH2 0xE3D JUMP JUMPDEST DUP2 EQ PUSH2 0xE59 JUMPI PUSH0 DUP1 REVERT JUMPDEST POP JUMP JUMPDEST PUSH0 DUP2 CALLDATALOAD SWAP1 POP PUSH2 0xE6A DUP2 PUSH2 0xE46 JUMP JUMPDEST SWAP3 SWAP2 POP POP JUMP JUMPDEST PUSH0 PUSH1 0x20 DUP3 DUP5 SUB SLT ISZERO PUSH2 0xE85 JUMPI PUSH2 0xE84 PUSH2 0xE35 JUMP JUMPDEST JUMPDEST PUSH0 PUSH2 0xE92 DUP5 DUP3 DUP6 ADD PUSH2 0xE5C JUMP JUMPDEST SWAP2 POP POP SWAP3 SWAP2 POP POP JUMP JUMPDEST PUSH2 0xEA4 DUP2 PUSH2 0xE3D JUMP JUMPDEST DUP3 MSTORE POP POP JUMP JUMPDEST PUSH0 PUSH20 0xFFFFFFFFFFFFFFFFFFFFFFFFFFFFFFFFFFFFFFFF DUP3 AND SWAP1 POP SWAP2 SWAP1 POP JUMP JUMPDEST PUSH0 PUSH2 0xED3 DUP3 PUSH2 0xEAA JUMP JUMPDEST SWAP1 POP SWAP2 SWAP1 POP JUMP JUMPDEST PUSH2 0xEE3 DUP2 PUSH2 0xEC9 JUMP JUMPDEST DUP3 MSTORE POP POP JUMP JUMPDEST PUSH32 0x4E487B7100000000000000000000000000000000000000000000000000000000 PUSH0 MSTORE PUSH1 0x21 PUSH1 0x4 MSTORE PUSH1 0x24 PUSH0 REVERT JUMPDEST PUSH1 0x4 DUP2 LT PUSH2 0xF27 JUMPI PUSH2 0xF26 PUSH2 0xEE9 JUMP JUMPDEST JUMPDEST POP JUMP JUMPDEST PUSH0 DUP2 SWAP1 POP PUSH2 0xF37 DUP3 PUSH2 0xF16 JUMP JUMPDEST SWAP2 SWAP1 POP JUMP JUMPDEST PUSH0 PUSH2 0xF46 DUP3 PUSH2 0xF2A JUMP JUMPDEST SWAP1 POP SWAP2 SWAP1 POP JUMP JUMPDEST PUSH2 0xF56 DUP2 PUSH2 0xF3C JUMP JUMPDEST DUP3 MSTORE POP POP JUMP JUMPDEST PUSH0 DUP2 MLOAD SWAP1 POP SWAP2 SWAP1 POP JUMP JUMPDEST PUSH0 DUP3 DUP3 MSTORE PUSH1 0x20 DUP3 ADD SWAP1 POP SWAP3 SWAP2 POP POP JUMP JUMPDEST PUSH0 JUMPDEST DUP4 DUP2 LT ISZERO PUSH2 0xF93 JUMPI DUP1 DUP3 ADD MLOAD DUP2 DUP5 ADD MSTORE PUSH1 0x20 DUP2 ADD SWAP1 POP PUSH2 0xF78 JUMP JUMPDEST PUSH0 DUP5 DUP5 ADD MSTORE POP POP POP POP JUMP JUMPDEST PUSH0 PUSH1 0x1F NOT PUSH1 0x1F DUP4 ADD AND SWAP1 POP SWAP2 SWAP1 POP JUMP JUMPDEST PUSH0 PUSH2 0xFB8 DUP3 PUSH2 0xF5C JUMP JUMPDEST PUSH2 0xFC2 DUP2 DUP6 PUSH2 0xF66 JUMP JUMPDEST SWAP4 POP PUSH2 0xFD2 DUP2 DUP6 PUSH1 0x20 DUP7 ADD PUSH2 0xF76 JUMP JUMPDEST PUSH2 0xFDB DUP2 PUSH2 0xF9E JUMP JUMPDEST DUP5 ADD SWAP2 POP POP SWAP3 SWAP2 POP POP JUMP JUMPDEST PUSH1 0x80 DUP3 ADD PUSH0 DUP3 ADD MLOAD PUSH2 0xFFA PUSH0 DUP6 ADD DUP3 PUSH2 0xE9B JUMP JUMPDEST POP PUSH1 0x20 DUP3 ADD MLOAD PUSH2 0x100D PUSH1 0x20 DUP6 ADD DUP3 PUSH2 0xE9B JUMP JUMPDEST POP PUSH1 0x40 DUP3 ADD MLOAD PUSH2 0x1020 PUSH1 0x40 DUP6 ADD DUP3 PUSH2 0xE9B JUMP JUMPDEST POP PUSH1 0x60 DUP3 ADD MLOAD PUSH2 0x1033 PUSH1 0x60 DUP6 ADD DUP3 PUSH2 0xE9B JUMP JUMPDEST POP POP POP POP JUMP JUMPDEST PUSH0 PUSH2 0x120 DUP4 ADD PUSH0 DUP4 ADD MLOAD PUSH2 0x104F PUSH0 DUP7 ADD DUP3 PUSH2 0xE9B JUMP JUMPDEST POP PUSH1 0x20 DUP4 ADD MLOAD PUSH2 0x1062 PUSH1 0x20 DUP7 ADD DUP3 PUSH2 0xEDA JUMP JUMPDEST POP PUSH1 0x40 DUP4 ADD MLOAD PUSH2 0x1075 PUSH1 0x40 DUP7 ADD DUP3 PUSH2 0xF4D JUMP JUMPDEST POP PUSH1 0x60 DUP4 ADD MLOAD DUP5 DUP3 SUB PUSH1 0x60 DUP7 ADD MSTORE PUSH2 0x108D DUP3 DUP3 PUSH2 0xFAE JUMP JUMPDEST SWAP2 POP POP PUSH1 0x80 DUP4 ADD MLOAD DUP5 DUP3 SUB PUSH1 0x80 DUP7 ADD MSTORE PUSH2 0x10A7 DUP3 DUP3 PUSH2 0xFAE JUMP JUMPDEST SWAP2 POP POP PUSH1 0xA0 DUP4 ADD MLOAD PUSH2 0x10BC PUSH1 0xA0 DUP7 ADD DUP3 PUSH2 0xFE6 JUMP JUMPDEST POP DUP1 SWAP2 POP POP SWAP3 SWAP2 POP POP JUMP JUMPDEST PUSH0 PUSH1 0x20 DUP3 ADD SWAP1 POP DUP2 DUP2 SUB PUSH0 DUP4 ADD MSTORE PUSH2 0x10DF DUP2 DUP5 PUSH2 0x1039 JUMP JUMPDEST SWAP1 POP SWAP3 SWAP2 POP POP JUMP JUMPDEST PUSH0 DUP1 REVERT JUMPDEST PUSH32 0x4E487B7100000000000000000000000000000000000000000000000000000000 PUSH0 MSTORE PUSH1 0x41 PUSH1 0x4 MSTORE PUSH1 0x24 PUSH0 REVERT JUMPDEST PUSH2 0x1121 DUP3 PUSH2 0xF9E JUMP JUMPDEST DUP2 ADD DUP2 DUP2 LT PUSH8 0xFFFFFFFFFFFFFFFF DUP3 GT OR ISZERO PUSH2 0x1140 JUMPI PUSH2 0x113F PUSH2 0x10EB JUMP JUMPDEST JUMPDEST DUP1 PUSH1 0x40 MSTORE POP POP POP JUMP JUMPDEST PUSH0 PUSH2 0x1152 PUSH2 0xE2C JUMP JUMPDEST SWAP1 POP PUSH2 0x115E DUP3 DUP3 PUSH2 0x1118 JUMP JUMPDEST SWAP2 SWAP1 POP JUMP JUMPDEST PUSH0 PUSH1 0x80 DUP3 DUP5 SUB SLT ISZERO PUSH2 0x1178 JUMPI PUSH2 0x1177 PUSH2 0x10E7 JUMP JUMPDEST JUMPDEST PUSH2 0x1182 PUSH1 0x80 PUSH2 0x1149 JUMP JUMPDEST SWAP1 POP PUSH0 PUSH2 0x1191 DUP5 DUP3 DUP6 ADD PUSH2 0xE5C JUMP JUMPDEST PUSH0 DUP4 ADD MSTORE POP PUSH1 0x20 PUSH2 0x11A4 DUP5 DUP3 DUP6 ADD PUSH2 0xE5C JUMP JUMPDEST PUSH1 0x20 DUP4 ADD MSTORE POP PUSH1 0x40 PUSH2 0x11B8 DUP5 DUP3 DUP6 ADD PUSH2 0xE5C JUMP JUMPDEST PUSH1 0x40 DUP4 ADD MSTORE POP PUSH1 0x60 PUSH2 0x11CC DUP5 DUP3 DUP6 ADD PUSH2 0xE5C JUMP JUMPDEST PUSH1 0x60 DUP4 ADD MSTORE POP SWAP3 SWAP2 POP POP JUMP JUMPDEST PUSH0 DUP1 PUSH0 PUSH1 0xC0 DUP5 DUP7 SUB SLT ISZERO PUSH2 0x11EF JUMPI PUSH2 0x11EE PUSH2 0xE35 JUMP JUMPDEST JUMPDEST PUSH0 PUSH2 0x11FC DUP7 DUP3 DUP8 ADD PUSH2 0xE5C JUMP JUMPDEST SWAP4 POP POP PUSH1 0x20 PUSH2 0x120D DUP7 DUP3 DUP8 ADD PUSH2 0xE5C JUMP JUMPDEST SWAP3 POP POP PUSH1 0x40 PUSH2 0x121E DUP7 DUP3 DUP8 ADD PUSH2 0x1163 JUMP JUMPDEST SWAP2 POP POP SWAP3 POP SWAP3 POP SWAP3 JUMP JUMPDEST PUSH2 0x1231 DUP2 PUSH2 0xE3D JUMP JUMPDEST DUP3 MSTORE POP POP JUMP JUMPDEST PUSH0 PUSH1 0x20 DUP3 ADD SWAP1 POP PUSH2 0x124A PUSH0 DUP4 ADD DUP5 PUSH2 0x1228 JUMP JUMPDEST SWAP3 SWAP2 POP POP JUMP JUMPDEST PUSH2 0x1259 DUP2 PUSH2 0xEC9 JUMP JUMPDEST DUP3 MSTORE POP POP JUMP JUMPDEST PUSH2 0x1268 DUP2 PUSH2 0xF3C JUMP JUMPDEST DUP3 MSTORE POP POP JUMP JUMPDEST PUSH0 DUP3 DUP3 MSTORE PUSH1 0x20 DUP3 ADD SWAP1 POP SWAP3 SWAP2 POP POP JUMP JUMPDEST PUSH0 PUSH2 0x1288 DUP3 PUSH2 0xF5C JUMP JUMPDEST PUSH2 0x1292 DUP2 DUP6 PUSH2 0x126E JUMP JUMPDEST SWAP4 POP PUSH2 0x12A2 DUP2 DUP6 PUSH1 0x20 DUP7 ADD PUSH2 0xF76 JUMP JUMPDEST PUSH2 0x12AB DUP2 PUSH2 0xF9E JUMP JUMPDEST DUP5 ADD SWAP2 POP POP SWAP3 SWAP2 POP POP JUMP JUMPDEST PUSH1 0x80 DUP3 ADD PUSH0 DUP3 ADD MLOAD PUSH2 0x12CA PUSH0 DUP6 ADD DUP3 PUSH2 0xE9B JUMP JUMPDEST POP PUSH1 0x20 DUP3 ADD MLOAD PUSH2 0x12DD PUSH1 0x20 DUP6 ADD DUP3 PUSH2 0xE9B JUMP JUMPDEST POP PUSH1 0x40 DUP3 ADD MLOAD PUSH2 0x12F0 PUSH1 0x40 DUP6 ADD DUP3 PUSH2 0xE9B JUMP JUMPDEST POP PUSH1 0x60 DUP3 ADD MLOAD PUSH2 0x1303 PUSH1 0x60 DUP6 ADD DUP3 PUSH2 0xE9B JUMP JUMPDEST POP POP POP POP JUMP JUMPDEST PUSH0 PUSH2 0x120 DUP3 ADD SWAP1 POP PUSH2 0x131D PUSH0 DUP4 ADD DUP10 PUSH2 0x1228 JUMP JUMPDEST PUSH2 0x132A PUSH1 0x20 DUP4 ADD DUP9 PUSH2 0x1250 JUMP JUMPDEST PUSH2 0x1337 PUSH1 0x40 DUP4 ADD DUP8 PUSH2 0x125F JUMP JUMPDEST DUP2 DUP2 SUB PUSH1 0x60 DUP4 ADD MSTORE PUSH2 0x1349 DUP2 DUP7 PUSH2 0x127E JUMP JUMPDEST SWAP1 POP DUP2 DUP2 SUB PUSH1 0x80 DUP4 ADD MSTORE PUSH2 0x135D DUP2 DUP6 PUSH2 0x127E JUMP JUMPDEST SWAP1 POP PUSH2 0x136C PUSH1 0xA0 DUP4 ADD DUP5 PUSH2 0x12B6 JUMP JUMPDEST SWAP8 SWAP7 POP POP POP POP POP POP POP JUMP JUMPDEST PUSH0 PUSH1 0xA0 DUP3 ADD SWAP1 POP PUSH2 0x138A PUSH0 DUP4 ADD DUP9 PUSH2 0x1250 JUMP JUMPDEST PUSH2 0x1397 PUSH1 0x20 DUP4 ADD DUP8 PUSH2 0x1228 JUMP JUMPDEST PUSH2 0x13A4 PUSH1 0x40 DUP4 ADD DUP7 PUSH2 0x1228 JUMP JUMPDEST PUSH2 0x13B1 PUSH1 0x60 DUP4 ADD DUP6 PUSH2 0x1228 JUMP JUMPDEST PUSH2 0x13BE PUSH1 0x80 DUP4 ADD DUP5 PUSH2 0x1228 JUMP JUMPDEST SWAP7 SWAP6 POP POP POP POP POP POP JUMP JUMPDEST PUSH1 0xA0 DUP3 ADD PUSH0 DUP3 ADD MLOAD PUSH2 0x13DC PUSH0 DUP6 ADD DUP3 PUSH2 0xEDA JUMP JUMPDEST POP PUSH1 0x20 DUP3 ADD MLOAD PUSH2 0x13EF PUSH1 0x20 DUP6 ADD DUP3 PUSH2 0xE9B JUMP JUMPDEST POP PUSH1 0x40 DUP3 ADD MLOAD PUSH2 0x1402 PUSH1 0x40 DUP6 ADD DUP3 PUSH2 0xE9B JUMP JUMPDEST POP PUSH1 0x60 DUP3 ADD MLOAD PUSH2 0x1415 PUSH1 0x60 DUP6 ADD DUP3 PUSH2 0xE9B JUMP JUMPDEST POP PUSH1 0x80 DUP3 ADD MLOAD PUSH2 0x1428 PUSH1 0x80 DUP6 ADD DUP3 PUSH2 0xE9B JUMP JUMPDEST POP POP POP POP JUMP JUMPDEST PUSH0 PUSH1 0xA0 DUP3 ADD SWAP1 POP PUSH2 0x1441 PUSH0 DUP4 ADD DUP5 PUSH2 0x13C8 JUMP JUMPDEST SWAP3 SWAP2 POP POP JUMP JUMPDEST PUSH0 DUP1 REVERT JUMPDEST PUSH0 DUP1 REVERT JUMPDEST PUSH0 PUSH8 0xFFFFFFFFFFFFFFFF DUP3 GT ISZERO PUSH2 0x1469 JUMPI PUSH2 0x1468 PUSH2 0x10EB JUMP JUMPDEST JUMPDEST PUSH2 0x1472 DUP3 PUSH2 0xF9E JUMP JUMPDEST SWAP1 POP PUSH1 0x20 DUP2 ADD SWAP1 POP SWAP2 SWAP1 POP JUMP JUMPDEST DUP3 DUP2 DUP4 CALLDATACOPY PUSH0 DUP4 DUP4 ADD MSTORE POP POP POP JUMP JUMPDEST PUSH0 PUSH2 0x149F PUSH2 0x149A DUP5 PUSH2 0x144F JUMP JUMPDEST PUSH2 0x1149 JUMP JUMPDEST SWAP1 POP DUP3 DUP2 MSTORE PUSH1 0x20 DUP2 ADD DUP5 DUP5 DUP5 ADD GT ISZERO PUSH2 0x14BB JUMPI PUSH2 0x14BA PUSH2 0x144B JUMP JUMPDEST JUMPDEST PUSH2 0x14C6 DUP5 DUP3 DUP6 PUSH2 0x147F JUMP JUMPDEST POP SWAP4 SWAP3 POP POP POP JUMP JUMPDEST PUSH0 DUP3 PUSH1 0x1F DUP4 ADD SLT PUSH2 0x14E2 JUMPI PUSH2 0x14E1 PUSH2 0x1447 JUMP JUMPDEST JUMPDEST DUP2 CALLDATALOAD PUSH2 0x14F2 DUP5 DUP3 PUSH1 0x20 DUP7 ADD PUSH2 0x148D JUMP JUMPDEST SWAP2 POP POP SWAP3 SWAP2 POP POP JUMP JUMPDEST PUSH0 DUP1 PUSH1 0x40 DUP4 DUP6 SUB SLT ISZERO PUSH2 0x1511 JUMPI PUSH2 0x1510 PUSH2 0xE35 JUMP JUMPDEST JUMPDEST PUSH0 DUP4 ADD CALLDATALOAD PUSH8 0xFFFFFFFFFFFFFFFF DUP2 GT ISZERO PUSH2 0x152E JUMPI PUSH2 0x152D PUSH2 0xE39 JUMP JUMPDEST JUMPDEST PUSH2 0x153A DUP6 DUP3 DUP7 ADD PUSH2 0x14CE JUMP JUMPDEST SWAP3 POP POP PUSH1 0x20 DUP4 ADD CALLDATALOAD PUSH8 0xFFFFFFFFFFFFFFFF DUP2 GT ISZERO PUSH2 0x155B JUMPI PUSH2 0x155A PUSH2 0xE39 JUMP JUMPDEST JUMPDEST PUSH2 0x1567 DUP6 DUP3 DUP7 ADD PUSH2 0x14CE JUMP JUMPDEST SWAP2 POP POP SWAP3 POP SWAP3 SWAP1 POP JUMP JUMPDEST PUSH0 PUSH1 0x20 DUP3 ADD SWAP1 POP DUP2 DUP2 SUB PUSH0 DUP4 ADD MSTORE PUSH2 0x1589 DUP2 DUP5 PUSH2 0x127E JUMP JUMPDEST SWAP1 POP SWAP3 SWAP2 POP POP JUMP JUMPDEST PUSH0 PUSH1 0xFF DUP3 AND SWAP1 POP SWAP2 SWAP1 POP JUMP JUMPDEST PUSH2 0x15A6 DUP2 PUSH2 0x1591 JUMP JUMPDEST DUP3 MSTORE POP POP JUMP JUMPDEST PUSH0 PUSH1 0x20 DUP3 ADD SWAP1 POP PUSH2 0x15BF PUSH0 DUP4 ADD DUP5 PUSH2 0x159D JUMP JUMPDEST SWAP3 SWAP2 POP POP JUMP JUMPDEST PUSH32 0x6E656564206465766963655F6964203E20300000000000000000000000000000 PUSH0 DUP3 ADD MSTORE POP JUMP JUMPDEST PUSH0 PUSH2 0x15F9 PUSH1 0x12 DUP4 PUSH2 0x126E JUMP JUMPDEST SWAP2 POP PUSH2 0x1604 DUP3 PUSH2 0x15C5 JUMP JUMPDEST PUSH1 0x20 DUP3 ADD SWAP1 POP SWAP2 SWAP1 POP JUMP JUMPDEST PUSH0 PUSH1 0x20 DUP3 ADD SWAP1 POP DUP2 DUP2 SUB PUSH0 DUP4 ADD MSTORE PUSH2 0x1626 DUP2 PUSH2 0x15ED JUMP JUMPDEST SWAP1 POP SWAP2 SWAP1 POP JUMP JUMPDEST PUSH32 0x4E487B7100000000000000000000000000000000000000000000000000000000 PUSH0 MSTORE PUSH1 0x11 PUSH1 0x4 MSTORE PUSH1 0x24 PUSH0 REVERT JUMPDEST PUSH0 PUSH2 0x1664 DUP3 PUSH2 0xE3D JUMP JUMPDEST SWAP2 POP PUSH2 0x166F DUP4 PUSH2 0xE3D JUMP JUMPDEST SWAP3 POP DUP3 DUP3 SUB SWAP1 POP DUP2 DUP2 GT ISZERO PUSH2 0x1687 JUMPI PUSH2 0x1686 PUSH2 0x162D JUMP JUMPDEST JUMPDEST SWAP3 SWAP2 POP POP JUMP JUMPDEST PUSH32 0x4E487B7100000000000000000000000000000000000000000000000000000000 PUSH0 MSTORE PUSH1 0x32 PUSH1 0x4 MSTORE PUSH1 0x24 PUSH0 REVERT JUMPDEST PUSH32 0x4E487B7100000000000000000000000000000000000000000000000000000000 PUSH0 MSTORE PUSH1 0x22 PUSH1 0x4 MSTORE PUSH1 0x24 PUSH0 REVERT JUMPDEST PUSH0 PUSH1 0x2 DUP3 DIV SWAP1 POP PUSH1 0x1 DUP3 AND DUP1 PUSH2 0x16FE JUMPI PUSH1 0x7F DUP3 AND SWAP2 POP JUMPDEST PUSH1 0x20 DUP3 LT DUP2 SUB PUSH2 0x1711 JUMPI PUSH2 0x1710 PUSH2 0x16BA JUMP JUMPDEST JUMPDEST POP SWAP2 SWAP1 POP JUMP JUMPDEST PUSH0 PUSH2 0x1721 DUP3 PUSH2 0xE3D JUMP JUMPDEST SWAP2 POP PUSH2 0x172C DUP4 PUSH2 0xE3D JUMP JUMPDEST SWAP3 POP DUP3 DUP3 MUL PUSH2 0x173A DUP2 PUSH2 0xE3D JUMP JUMPDEST SWAP2 POP DUP3 DUP3 DIV DUP5 EQ DUP4 ISZERO OR PUSH2 0x1751 JUMPI PUSH2 0x1750 PUSH2 0x162D JUMP JUMPDEST JUMPDEST POP SWAP3 SWAP2 POP POP JUMP JUMPDEST PUSH0 PUSH2 0x1762 DUP3 PUSH2 0xE3D JUMP JUMPDEST SWAP2 POP PUSH2 0x176D DUP4 PUSH2 0xE3D JUMP JUMPDEST SWAP3 POP DUP3 DUP3 ADD SWAP1 POP DUP1 DUP3 GT ISZERO PUSH2 0x1785 JUMPI PUSH2 0x1784 PUSH2 0x162D JUMP JUMPDEST JUMPDEST SWAP3 SWAP2 POP POP JUMP JUMPDEST PUSH0 PUSH2 0x1795 DUP3 PUSH2 0xE3D JUMP JUMPDEST SWAP2 POP PUSH32 0xFFFFFFFFFFFFFFFFFFFFFFFFFFFFFFFFFFFFFFFFFFFFFFFFFFFFFFFFFFFFFFFF DUP3 SUB PUSH2 0x17C7 JUMPI PUSH2 0x17C6 PUSH2 0x162D JUMP JUMPDEST JUMPDEST PUSH1 0x1 DUP3 ADD SWAP1 POP SWAP2 SWAP1 POP JUMP JUMPDEST PUSH0 PUSH2 0x17DC DUP3 PUSH2 0xE3D JUMP JUMPDEST SWAP2 POP PUSH0 DUP3 SUB PUSH2 0x17EE JUMPI PUSH2 0x17ED PUSH2 0x162D JUMP JUMPDEST JUMPDEST PUSH1 0x1 DUP3 SUB SWAP1 POP SWAP2 SWAP1 POP JUMP JUMPDEST PUSH32 0x63616E27742066696E64206C6561736521000000000000000000000000000000 PUSH0 DUP3 ADD MSTORE POP JUMP JUMPDEST PUSH0 PUSH2 0x182D PUSH1 0x11 DUP4 PUSH2 0x126E JUMP JUMPDEST SWAP2 POP PUSH2 0x1838 DUP3 PUSH2 0x17F9 JUMP JUMPDEST PUSH1 0x20 DUP3 ADD SWAP1 POP SWAP2 SWAP1 POP JUMP JUMPDEST PUSH0 PUSH1 0x20 DUP3 ADD SWAP1 POP DUP2 DUP2 SUB PUSH0 DUP4 ADD MSTORE PUSH2 0x185A DUP2 PUSH2 0x1821 JUMP JUMPDEST SWAP1 POP SWAP2 SWAP1 POP JUMP JUMPDEST PUSH32 0x4E487B7100000000000000000000000000000000000000000000000000000000 PUSH0 MSTORE PUSH1 0x12 PUSH1 0x4 MSTORE PUSH1 0x24 PUSH0 REVERT JUMPDEST PUSH0 PUSH2 0x1898 DUP3 PUSH2 0xE3D JUMP JUMPDEST SWAP2 POP PUSH2 0x18A3 DUP4 PUSH2 0xE3D JUMP JUMPDEST SWAP3 POP DUP3 PUSH2 0x18B3 JUMPI PUSH2 0x18B2 PUSH2 0x1861 JUMP JUMPDEST JUMPDEST DUP3 DUP3 DIV SWAP1 POP SWAP3 SWAP2 POP POP JUMP JUMPDEST PUSH0 PUSH2 0x18C8 DUP3 PUSH2 0xE3D JUMP JUMPDEST SWAP2 POP PUSH2 0x18D3 DUP4 PUSH2 0xE3D JUMP JUMPDEST SWAP3 POP DUP3 PUSH2 0x18E3 JUMPI PUSH2 0x18E2 PUSH2 0x1861 JUMP JUMPDEST JUMPDEST DUP3 DUP3 MOD SWAP1 POP SWAP3 SWAP2 POP POP JUMP INVALID LOG2 PUSH5 0x6970667358 0x22 SLT KECCAK256 0xC2 0x24 0x5E 0xA7 0xE9 0x2C CODECOPY BASEFEE 0xE3 0xE6 0xE6 DUP9 MSIZE 0xDA 0xB2 JUMP SUB MSTORE8 STATICCALL DUP5 0xDB 0xA5 0xAD 0xC0 SDIV MULMOD 0xC5 0xCF PUSH17 0xD85A5764736F6C63430008150033000000 "
		},
		"gasEstimates": {
			"creation": {
				"codeDepositCost": "1287200",
				"executionCost": "40620",
				"totalCost": "1327820"
			},
			"external": {
				"concatenateStrings(string,string)": "infinite",
				"devices(uint256)": "infinite",
				"getDevice(uint256)": "infinite",
				"getLeaseByDeviceId(uint256)": "infinite",
				"leaseProvider(uint256)": "infinite",
				"leaseRecipient(uint256)": "infinite",
				"platformSharingRatio()": "2532",
				"providerStakeCalcute(uint256,uint256,(uint256,uint256,uint256,uint256))": "infinite",
				"recipientStakeCalcute(uint256,uint256,(uint256,uint256,uint256,uint256))": "infinite",
				"terminateLease(uint256)": "infinite",
				"uintToString(uint256)": "infinite"
			},
			"internal": {
				"createRentLease(uint256,uint256,uint256)": "infinite",
				"onlineLease(address,uint256,uint256,uint256)": "infinite",
				"renewalRentLease(uint256,uint256)": "infinite"
			}
		},
		"methodIdentifiers": {
			"concatenateStrings(string,string)": "7a36b3ee",
			"devices(uint256)": "10ff8e31",
			"getDevice(uint256)": "09f110b1",
			"getLeaseByDeviceId(uint256)": "d67b9afd",
			"leaseProvider(uint256)": "c46dcec5",
			"leaseRecipient(uint256)": "11b800eb",
			"platformSharingRatio()": "c74ce95c",
			"providerStakeCalcute(uint256,uint256,(uint256,uint256,uint256,uint256))": "a3a4aff4",
			"recipientStakeCalcute(uint256,uint256,(uint256,uint256,uint256,uint256))": "0b92426d",
			"terminateLease(uint256)": "588e00a5",
			"uintToString(uint256)": "e9395679"
		}
	},
	"abi": [
		{
			"inputs": [
				{
					"internalType": "string",
					"name": "a",
					"type": "string"
				},
				{
					"internalType": "string",
					"name": "b",
					"type": "string"
				}
			],
			"name": "concatenateStrings",
			"outputs": [
				{
					"internalType": "string",
					"name": "",
					"type": "string"
				}
			],
			"stateMutability": "pure",
			"type": "function"
		},
		{
			"inputs": [
				{
					"internalType": "uint256",
					"name": "",
					"type": "uint256"
				}
			],
			"name": "devices",
			"outputs": [
				{
					"internalType": "uint256",
					"name": "id",
					"type": "uint256"
				},
				{
					"internalType": "address",
					"name": "owner",
					"type": "address"
				},
				{
					"internalType": "enum DeviceStatus",
					"name": "status",
					"type": "uint8"
				},
				{
					"internalType": "string",
					"name": "machineId",
					"type": "string"
				},
				{
					"internalType": "string",
					"name": "serverInfo",
					"type": "string"
				},
				{
					"components": [
						{
							"internalType": "uint256",
							"name": "serverPrice",
							"type": "uint256"
						},
						{
							"internalType": "uint256",
							"name": "storagePrice",
							"type": "uint256"
						},
						{
							"internalType": "uint256",
							"name": "upbandWidth",
							"type": "uint256"
						},
						{
							"internalType": "uint256",
							"name": "downbandWidth",
							"type": "uint256"
						}
					],
					"internalType": "struct Price",
					"name": "price",
					"type": "tuple"
				}
			],
			"stateMutability": "view",
			"type": "function"
		},
		{
			"inputs": [
				{
					"internalType": "uint256",
					"name": "_deviceId",
					"type": "uint256"
				}
			],
			"name": "getDevice",
			"outputs": [
				{
					"components": [
						{
							"internalType": "uint256",
							"name": "id",
							"type": "uint256"
						},
						{
							"internalType": "address",
							"name": "owner",
							"type": "address"
						},
						{
							"internalType": "enum DeviceStatus",
							"name": "status",
							"type": "uint8"
						},
						{
							"internalType": "string",
							"name": "machineId",
							"type": "string"
						},
						{
							"internalType": "string",
							"name": "serverInfo",
							"type": "string"
						},
						{
							"components": [
								{
									"internalType": "uint256",
									"name": "serverPrice",
									"type": "uint256"
								},
								{
									"internalType": "uint256",
									"name": "storagePrice",
									"type": "uint256"
								},
								{
									"internalType": "uint256",
									"name": "upbandWidth",
									"type": "uint256"
								},
								{
									"internalType": "uint256",
									"name": "downbandWidth",
									"type": "uint256"
								}
							],
							"internalType": "struct Price",
							"name": "price",
							"type": "tuple"
						}
					],
					"internalType": "struct deviceInfo",
					"name": "",
					"type": "tuple"
				}
			],
			"stateMutability": "view",
			"type": "function"
		},
		{
			"inputs": [
				{
					"internalType": "uint256",
					"name": "_deviceId",
					"type": "uint256"
				}
			],
			"name": "getLeaseByDeviceId",
			"outputs": [
				{
					"components": [
						{
							"internalType": "address",
							"name": "owner",
							"type": "address"
						},
						{
							"internalType": "uint256",
							"name": "leaseId",
							"type": "uint256"
						},
						{
							"internalType": "uint256",
							"name": "startTime",
							"type": "uint256"
						},
						{
							"internalType": "uint256",
							"name": "expireTime",
							"type": "uint256"
						},
						{
							"internalType": "uint256",
							"name": "deviceId",
							"type": "uint256"
						}
					],
					"internalType": "struct leaseInfo",
					"name": "",
					"type": "tuple"
				}
			],
			"stateMutability": "view",
			"type": "function"
		},
		{
			"inputs": [
				{
					"internalType": "uint256",
					"name": "",
					"type": "uint256"
				}
			],
			"name": "leaseProvider",
			"outputs": [
				{
					"internalType": "address",
					"name": "owner",
					"type": "address"
				},
				{
					"internalType": "uint256",
					"name": "leaseId",
					"type": "uint256"
				},
				{
					"internalType": "uint256",
					"name": "startTime",
					"type": "uint256"
				},
				{
					"internalType": "uint256",
					"name": "expireTime",
					"type": "uint256"
				},
				{
					"internalType": "uint256",
					"name": "deviceId",
					"type": "uint256"
				}
			],
			"stateMutability": "view",
			"type": "function"
		},
		{
			"inputs": [
				{
					"internalType": "uint256",
					"name": "",
					"type": "uint256"
				}
			],
			"name": "leaseRecipient",
			"outputs": [
				{
					"internalType": "address",
					"name": "owner",
					"type": "address"
				},
				{
					"internalType": "uint256",
					"name": "leaseId",
					"type": "uint256"
				},
				{
					"internalType": "uint256",
					"name": "startTime",
					"type": "uint256"
				},
				{
					"internalType": "uint256",
					"name": "expireTime",
					"type": "uint256"
				},
				{
					"internalType": "uint256",
					"name": "deviceId",
					"type": "uint256"
				}
			],
			"stateMutability": "view",
			"type": "function"
		},
		{
			"inputs": [],
			"name": "platformSharingRatio",
			"outputs": [
				{
					"internalType": "uint8",
					"name": "",
					"type": "uint8"
				}
			],
			"stateMutability": "view",
			"type": "function"
		},
		{
			"inputs": [
				{
					"internalType": "uint256",
					"name": "_startTime",
					"type": "uint256"
				},
				{
					"internalType": "uint256",
					"name": "_endTime",
					"type": "uint256"
				},
				{
					"components": [
						{
							"internalType": "uint256",
							"name": "serverPrice",
							"type": "uint256"
						},
						{
							"internalType": "uint256",
							"name": "storagePrice",
							"type": "uint256"
						},
						{
							"internalType": "uint256",
							"name": "upbandWidth",
							"type": "uint256"
						},
						{
							"internalType": "uint256",
							"name": "downbandWidth",
							"type": "uint256"
						}
					],
					"internalType": "struct Price",
					"name": "_price",
					"type": "tuple"
				}
			],
			"name": "providerStakeCalcute",
			"outputs": [
				{
					"internalType": "uint256",
					"name": "",
					"type": "uint256"
				}
			],
			"stateMutability": "pure",
			"type": "function"
		},
		{
			"inputs": [
				{
					"internalType": "uint256",
					"name": "_startTime",
					"type": "uint256"
				},
				{
					"internalType": "uint256",
					"name": "_endTime",
					"type": "uint256"
				},
				{
					"components": [
						{
							"internalType": "uint256",
							"name": "serverPrice",
							"type": "uint256"
						},
						{
							"internalType": "uint256",
							"name": "storagePrice",
							"type": "uint256"
						},
						{
							"internalType": "uint256",
							"name": "upbandWidth",
							"type": "uint256"
						},
						{
							"internalType": "uint256",
							"name": "downbandWidth",
							"type": "uint256"
						}
					],
					"internalType": "struct Price",
					"name": "_price",
					"type": "tuple"
				}
			],
			"name": "recipientStakeCalcute",
			"outputs": [
				{
					"internalType": "uint256",
					"name": "",
					"type": "uint256"
				}
			],
			"stateMutability": "pure",
			"type": "function"
		},
		{
			"inputs": [
				{
					"internalType": "uint256",
					"name": "_leaseId",
					"type": "uint256"
				}
			],
			"name": "terminateLease",
			"outputs": [
				{
					"components": [
						{
							"internalType": "address",
							"name": "owner",
							"type": "address"
						},
						{
							"internalType": "uint256",
							"name": "leaseId",
							"type": "uint256"
						},
						{
							"internalType": "uint256",
							"name": "startTime",
							"type": "uint256"
						},
						{
							"internalType": "uint256",
							"name": "expireTime",
							"type": "uint256"
						},
						{
							"internalType": "uint256",
							"name": "deviceId",
							"type": "uint256"
						}
					],
					"internalType": "struct leaseInfo",
					"name": "",
					"type": "tuple"
				}
			],
			"stateMutability": "nonpayable",
			"type": "function"
		},
		{
			"inputs": [
				{
					"internalType": "uint256",
					"name": "number",
					"type": "uint256"
				}
			],
			"name": "uintToString",
			"outputs": [
				{
					"internalType": "string",
					"name": "",
					"type": "string"
				}
			],
			"stateMutability": "pure",
			"type": "function"
		}
	]
}