{
  "contractName": "AccountFactory",
  "abi": [
    {
      "anonymous": false,
      "inputs": [
        {
          "indexed": true,
          "internalType": "address",
          "name": "previousOwner",
          "type": "address"
        },
        {
          "indexed": true,
          "internalType": "address",
          "name": "newOwner",
          "type": "address"
        }
      ],
      "name": "OwnershipTransferred",
      "type": "event"
    },
    {
      "inputs": [],
      "name": "owner",
      "outputs": [
        {
          "internalType": "address",
          "name": "",
          "type": "address"
        }
      ],
      "stateMutability": "view",
      "type": "function",
      "constant": true
    },
    {
      "inputs": [],
      "name": "renounceOwnership",
      "outputs": [],
      "stateMutability": "nonpayable",
      "type": "function"
    },
    {
      "inputs": [
        {
          "internalType": "address",
          "name": "newOwner",
          "type": "address"
        }
      ],
      "name": "transferOwnership",
      "outputs": [],
      "stateMutability": "nonpayable",
      "type": "function"
    },
    {
      "inputs": [],
      "name": "register",
      "outputs": [
        {
          "components": [
            {
              "internalType": "address",
              "name": "addr",
              "type": "address"
            },
            {
              "internalType": "uint256",
              "name": "balance",
              "type": "uint256"
            },
            {
              "internalType": "uint256",
              "name": "providerBlockedFunds",
              "type": "uint256"
            },
            {
              "internalType": "uint256",
              "name": "recipientBlockedFunds",
              "type": "uint256"
            },
            {
              "internalType": "string",
              "name": "info",
              "type": "string"
            }
          ],
          "internalType": "struct AccountFactory.accountInfo",
          "name": "accountinfo",
          "type": "tuple"
        }
      ],
      "stateMutability": "nonpayable",
      "type": "function"
    },
    {
      "inputs": [],
      "name": "withdraw",
      "outputs": [],
      "stateMutability": "nonpayable",
      "type": "function"
    },
    {
      "inputs": [],
      "name": "cancellation",
      "outputs": [],
      "stateMutability": "nonpayable",
      "type": "function"
    },
    {
      "inputs": [
        {
          "internalType": "string",
          "name": "_info",
          "type": "string"
        }
      ],
      "name": "setProviderInfo",
      "outputs": [],
      "stateMutability": "nonpayable",
      "type": "function"
    },
    {
      "inputs": [
        {
          "internalType": "address",
          "name": "user",
          "type": "address"
        },
        {
          "internalType": "uint256",
          "name": "_stakeAmount",
          "type": "uint256"
        }
      ],
      "name": "onlineBlockedFund",
      "outputs": [],
      "stateMutability": "nonpayable",
      "type": "function"
    },
    {
      "inputs": [
        {
          "internalType": "address",
          "name": "user",
          "type": "address"
        },
        {
          "internalType": "uint256",
          "name": "_stakeAmount",
          "type": "uint256"
        }
      ],
      "name": "offlineUnBlockedFund",
      "outputs": [],
      "stateMutability": "nonpayable",
      "type": "function"
    },
    {
      "inputs": [
        {
          "internalType": "address",
          "name": "user",
          "type": "address"
        },
        {
          "internalType": "uint256",
          "name": "_stakeAmount",
          "type": "uint256"
        }
      ],
      "name": "rentBlockedFund",
      "outputs": [],
      "stateMutability": "nonpayable",
      "type": "function"
    },
    {
      "inputs": [
        {
          "internalType": "address",
          "name": "_recipient",
          "type": "address"
        },
        {
          "internalType": "address",
          "name": "_provider",
          "type": "address"
        },
        {
          "internalType": "uint256",
          "name": "_stakeAmount",
          "type": "uint256"
        },
        {
          "internalType": "uint256",
          "name": "_unBlockedAmount",
          "type": "uint256"
        }
      ],
      "name": "rentUnBlockedFund",
      "outputs": [],
      "stateMutability": "nonpayable",
      "type": "function"
    },
    {
      "inputs": [],
      "name": "stake",
      "outputs": [],
      "stateMutability": "payable",
      "type": "function",
      "payable": true
    },
    {
      "inputs": [
        {
          "internalType": "uint256",
          "name": "amount",
          "type": "uint256"
        }
      ],
      "name": "unstake",
      "outputs": [],
      "stateMutability": "payable",
      "type": "function",
      "payable": true
    },
    {
      "inputs": [
        {
          "internalType": "address",
          "name": "_user",
          "type": "address"
        }
      ],
      "name": "isRegister",
      "outputs": [
        {
          "internalType": "bool",
          "name": "",
          "type": "bool"
        }
      ],
      "stateMutability": "view",
      "type": "function",
      "constant": true
    },
    {
      "inputs": [
        {
          "internalType": "address",
          "name": "_addr",
          "type": "address"
        }
      ],
      "name": "getAccount",
      "outputs": [
        {
          "components": [
            {
              "internalType": "address",
              "name": "addr",
              "type": "address"
            },
            {
              "internalType": "uint256",
              "name": "balance",
              "type": "uint256"
            },
            {
              "internalType": "uint256",
              "name": "providerBlockedFunds",
              "type": "uint256"
            },
            {
              "internalType": "uint256",
              "name": "recipientBlockedFunds",
              "type": "uint256"
            },
            {
              "internalType": "string",
              "name": "info",
              "type": "string"
            }
          ],
          "internalType": "struct AccountFactory.accountInfo",
          "name": "",
          "type": "tuple"
        }
      ],
      "stateMutability": "view",
      "type": "function",
      "constant": true
    }
  ],
  "bytecode": "0x608060405234801561000f575f80fd5b5061002c61002161003160201b60201c565b61003860201b60201c565b6100f9565b5f33905090565b5f805f9054906101000a900473ffffffffffffffffffffffffffffffffffffffff169050815f806101000a81548173ffffffffffffffffffffffffffffffffffffffff021916908373ffffffffffffffffffffffffffffffffffffffff1602179055508173ffffffffffffffffffffffffffffffffffffffff168173ffffffffffffffffffffffffffffffffffffffff167f8be0079c531659141344cd1fd0a4f28419497f9722a3daafe3b4186f6b6457e060405160405180910390a35050565b61235580620001075f395ff3fe6080604052600436106100e7575f3560e01c80633e185b9e11610089578063b6f9978111610058578063b6f997811461025b578063c7f997d214610283578063f2fde38b146102ab578063fbcbc0f1146102d3576100e7565b80633e185b9e146101dd5780634040507814610205578063715018a61461021b5780638da5cb5b14610231576100e7565b80632e17de78116100c55780632e17de78146101795780633940ab77146101955780633a4b66f1146101bd5780633ccfd60b146101c7576100e7565b8063183bed66146100eb5780631aa3a0081461011357806322fdef941461013d575b5f80fd5b3480156100f6575f80fd5b50610111600480360381019061010c919061188a565b61030f565b005b34801561011e575f80fd5b50610127610442565b60405161013491906119e3565b60405180910390f35b348015610148575f80fd5b50610163600480360381019061015e9190611a03565b61072e565b6040516101709190611a48565b60405180910390f35b610193600480360381019061018e9190611a61565b6107c4565b005b3480156101a0575f80fd5b506101bb60048036038101906101b69190611bb8565b610a30565b005b6101c5610b4f565b005b3480156101d2575f80fd5b506101db610e6d565b005b3480156101e8575f80fd5b5061020360048036038101906101fe9190611bff565b610f36565b005b348015610210575f80fd5b50610219611052565b005b348015610226575f80fd5b5061022f6110dd565b005b34801561023c575f80fd5b50610245611164565b6040516102529190611c72565b60405180910390f35b348015610266575f80fd5b50610281600480360381019061027c919061188a565b61118b565b005b34801561028e575f80fd5b506102a960048036038101906102a4919061188a565b61123b565b005b3480156102b6575f80fd5b506102d160048036038101906102cc9190611a03565b61136e565b005b3480156102de575f80fd5b506102f960048036038101906102f49190611a03565b611464565b60405161030691906119e3565b60405180910390f35b60015f8373ffffffffffffffffffffffffffffffffffffffff1673ffffffffffffffffffffffffffffffffffffffff1681526020019081526020015f2060010154811115610392576040517f08c379a000000000000000000000000000000000000000000000000000000000815260040161038990611ce5565b60405180910390fd5b8060015f8473ffffffffffffffffffffffffffffffffffffffff1673ffffffffffffffffffffffffffffffffffffffff1681526020019081526020015f206001015f8282546103e19190611d30565b925050819055508060015f8473ffffffffffffffffffffffffffffffffffffffff1673ffffffffffffffffffffffffffffffffffffffff1681526020019081526020015f206002015f8282546104379190611d63565b925050819055505050565b61044a611753565b5f73ffffffffffffffffffffffffffffffffffffffff1660015f3373ffffffffffffffffffffffffffffffffffffffff1673ffffffffffffffffffffffffffffffffffffffff1681526020019081526020015f205f015f9054906101000a900473ffffffffffffffffffffffffffffffffffffffff1673ffffffffffffffffffffffffffffffffffffffff16036105df576040518060a001604052803373ffffffffffffffffffffffffffffffffffffffff1681526020015f81526020015f81526020015f815260200160405180602001604052805f81525081525060015f3373ffffffffffffffffffffffffffffffffffffffff1673ffffffffffffffffffffffffffffffffffffffff1681526020019081526020015f205f820151815f015f6101000a81548173ffffffffffffffffffffffffffffffffffffffff021916908373ffffffffffffffffffffffffffffffffffffffff16021790555060208201518160010155604082015181600201556060820151816003015560808201518160040190816105da9190611f90565b509050505b60015f3373ffffffffffffffffffffffffffffffffffffffff1673ffffffffffffffffffffffffffffffffffffffff1681526020019081526020015f206040518060a00160405290815f82015f9054906101000a900473ffffffffffffffffffffffffffffffffffffffff1673ffffffffffffffffffffffffffffffffffffffff1673ffffffffffffffffffffffffffffffffffffffff1681526020016001820154815260200160028201548152602001600382015481526020016004820180546106a990611dc3565b80601f01602080910402602001604051908101604052809291908181526020018280546106d590611dc3565b80156107205780601f106106f757610100808354040283529160200191610720565b820191905f5260205f20905b81548152906001019060200180831161070357829003601f168201915b505050505081525050905090565b5f8073ffffffffffffffffffffffffffffffffffffffff1660015f8473ffffffffffffffffffffffffffffffffffffffff1673ffffffffffffffffffffffffffffffffffffffff1681526020019081526020015f205f015f9054906101000a900473ffffffffffffffffffffffffffffffffffffffff1673ffffffffffffffffffffffffffffffffffffffff1614159050919050565b5f60015f3373ffffffffffffffffffffffffffffffffffffffff1673ffffffffffffffffffffffffffffffffffffffff1681526020019081526020015f206040518060a00160405290815f82015f9054906101000a900473ffffffffffffffffffffffffffffffffffffffff1673ffffffffffffffffffffffffffffffffffffffff1673ffffffffffffffffffffffffffffffffffffffff16815260200160018201548152602001600282015481526020016003820154815260200160048201805461088f90611dc3565b80601f01602080910402602001604051908101604052809291908181526020018280546108bb90611dc3565b80156109065780601f106108dd57610100808354040283529160200191610906565b820191905f5260205f20905b8154815290600101906020018083116108e957829003601f168201915b50505050508152505090508181602001511015610958576040517f08c379a000000000000000000000000000000000000000000000000000000000815260040161094f906120a9565b60405180910390fd5b8160015f3373ffffffffffffffffffffffffffffffffffffffff1673ffffffffffffffffffffffffffffffffffffffff1681526020019081526020015f20600101546109a49190611d30565b60015f3373ffffffffffffffffffffffffffffffffffffffff1673ffffffffffffffffffffffffffffffffffffffff1681526020019081526020015f20600101819055503373ffffffffffffffffffffffffffffffffffffffff166108fc8390811502906040515f60405180830381858888f19350505050158015610a2b573d5f803e3d5ffd5b505050565b335f73ffffffffffffffffffffffffffffffffffffffff1660015f8373ffffffffffffffffffffffffffffffffffffffff1673ffffffffffffffffffffffffffffffffffffffff1681526020019081526020015f205f015f9054906101000a900473ffffffffffffffffffffffffffffffffffffffff1673ffffffffffffffffffffffffffffffffffffffff1603610afd576040517f08c379a0000000000000000000000000000000000000000000000000000000008152600401610af490612111565b60405180910390fd5b8160015f3373ffffffffffffffffffffffffffffffffffffffff1673ffffffffffffffffffffffffffffffffffffffff1681526020019081526020015f206004019081610b4a9190611f90565b505050565b335f73ffffffffffffffffffffffffffffffffffffffff1660015f8373ffffffffffffffffffffffffffffffffffffffff1673ffffffffffffffffffffffffffffffffffffffff1681526020019081526020015f205f015f9054906101000a900473ffffffffffffffffffffffffffffffffffffffff1673ffffffffffffffffffffffffffffffffffffffff1603610c1c576040517f08c379a0000000000000000000000000000000000000000000000000000000008152600401610c1390612111565b60405180910390fd5b5f60015f3373ffffffffffffffffffffffffffffffffffffffff1673ffffffffffffffffffffffffffffffffffffffff1681526020019081526020015f2090505f73ffffffffffffffffffffffffffffffffffffffff16815f015f9054906101000a900473ffffffffffffffffffffffffffffffffffffffff1673ffffffffffffffffffffffffffffffffffffffff1603610dd85733815f015f6101000a81548173ffffffffffffffffffffffffffffffffffffffff021916908373ffffffffffffffffffffffffffffffffffffffff1602179055503481600101819055508060015f3373ffffffffffffffffffffffffffffffffffffffff1673ffffffffffffffffffffffffffffffffffffffff1681526020019081526020015f205f82015f9054906101000a900473ffffffffffffffffffffffffffffffffffffffff16815f015f6101000a81548173ffffffffffffffffffffffffffffffffffffffff021916908373ffffffffffffffffffffffffffffffffffffffff16021790555060018201548160010155600282015481600201556003820154816003015560048201816004019081610dce9190612144565b5090505050610e6a565b3460015f3373ffffffffffffffffffffffffffffffffffffffff1673ffffffffffffffffffffffffffffffffffffffff1681526020019081526020015f2060010154610e249190611d63565b60015f3373ffffffffffffffffffffffffffffffffffffffff1673ffffffffffffffffffffffffffffffffffffffff1681526020019081526020015f2060010181905550505b50565b610e7561168b565b73ffffffffffffffffffffffffffffffffffffffff16610e93611164565b73ffffffffffffffffffffffffffffffffffffffff1614610ee9576040517f08c379a0000000000000000000000000000000000000000000000000000000008152600401610ee090612273565b60405180910390fd5b610ef1611164565b73ffffffffffffffffffffffffffffffffffffffff166108fc4790811502906040515f60405180830381858888f19350505050158015610f33573d5f803e3d5ffd5b50565b8060015f8673ffffffffffffffffffffffffffffffffffffffff1673ffffffffffffffffffffffffffffffffffffffff1681526020019081526020015f206003015f828254610f859190611d30565b9250508190555080821015610ff6578181610fa09190611d30565b60015f8673ffffffffffffffffffffffffffffffffffffffff1673ffffffffffffffffffffffffffffffffffffffff1681526020019081526020015f206001015f828254610fee9190611d63565b925050819055505b8160015f8573ffffffffffffffffffffffffffffffffffffffff1673ffffffffffffffffffffffffffffffffffffffff1681526020019081526020015f206001015f8282546110459190611d63565b9250508190555050505050565b60015f3373ffffffffffffffffffffffffffffffffffffffff1673ffffffffffffffffffffffffffffffffffffffff1681526020019081526020015f205f8082015f6101000a81549073ffffffffffffffffffffffffffffffffffffffff0219169055600182015f9055600282015f9055600382015f9055600482015f6110d99190611794565b5050565b6110e561168b565b73ffffffffffffffffffffffffffffffffffffffff16611103611164565b73ffffffffffffffffffffffffffffffffffffffff1614611159576040517f08c379a000000000000000000000000000000000000000000000000000000000815260040161115090612273565b60405180910390fd5b6111625f611692565b565b5f805f9054906101000a900473ffffffffffffffffffffffffffffffffffffffff16905090565b8060015f8473ffffffffffffffffffffffffffffffffffffffff1673ffffffffffffffffffffffffffffffffffffffff1681526020019081526020015f206001015f8282546111da9190611d63565b925050819055508060015f8473ffffffffffffffffffffffffffffffffffffffff1673ffffffffffffffffffffffffffffffffffffffff1681526020019081526020015f206002015f8282546112309190611d30565b925050819055505050565b60015f8373ffffffffffffffffffffffffffffffffffffffff1673ffffffffffffffffffffffffffffffffffffffff1681526020019081526020015f20600101548111156112be576040517f08c379a00000000000000000000000000000000000000000000000000000000081526004016112b590611ce5565b60405180910390fd5b8060015f8473ffffffffffffffffffffffffffffffffffffffff1673ffffffffffffffffffffffffffffffffffffffff1681526020019081526020015f206001015f82825461130d9190611d30565b925050819055508060015f8473ffffffffffffffffffffffffffffffffffffffff1673ffffffffffffffffffffffffffffffffffffffff1681526020019081526020015f206003015f8282546113639190611d63565b925050819055505050565b61137661168b565b73ffffffffffffffffffffffffffffffffffffffff16611394611164565b73ffffffffffffffffffffffffffffffffffffffff16146113ea576040517f08c379a00000000000000000000000000000000000000000000000000000000081526004016113e190612273565b60405180910390fd5b5f73ffffffffffffffffffffffffffffffffffffffff168173ffffffffffffffffffffffffffffffffffffffff1603611458576040517f08c379a000000000000000000000000000000000000000000000000000000000815260040161144f90612301565b60405180910390fd5b61146181611692565b50565b61146c611753565b815f73ffffffffffffffffffffffffffffffffffffffff1660015f8373ffffffffffffffffffffffffffffffffffffffff1673ffffffffffffffffffffffffffffffffffffffff1681526020019081526020015f205f015f9054906101000a900473ffffffffffffffffffffffffffffffffffffffff1673ffffffffffffffffffffffffffffffffffffffff1603611539576040517f08c379a000000000000000000000000000000000000000000000000000000000815260040161153090612111565b60405180910390fd5b60015f8473ffffffffffffffffffffffffffffffffffffffff1673ffffffffffffffffffffffffffffffffffffffff1681526020019081526020015f206040518060a00160405290815f82015f9054906101000a900473ffffffffffffffffffffffffffffffffffffffff1673ffffffffffffffffffffffffffffffffffffffff1673ffffffffffffffffffffffffffffffffffffffff16815260200160018201548152602001600282015481526020016003820154815260200160048201805461160390611dc3565b80601f016020809104026020016040519081016040528092919081815260200182805461162f90611dc3565b801561167a5780601f106116515761010080835404028352916020019161167a565b820191905f5260205f20905b81548152906001019060200180831161165d57829003601f168201915b505050505081525050915050919050565b5f33905090565b5f805f9054906101000a900473ffffffffffffffffffffffffffffffffffffffff169050815f806101000a81548173ffffffffffffffffffffffffffffffffffffffff021916908373ffffffffffffffffffffffffffffffffffffffff1602179055508173ffffffffffffffffffffffffffffffffffffffff168173ffffffffffffffffffffffffffffffffffffffff167f8be0079c531659141344cd1fd0a4f28419497f9722a3daafe3b4186f6b6457e060405160405180910390a35050565b6040518060a001604052805f73ffffffffffffffffffffffffffffffffffffffff1681526020015f81526020015f81526020015f8152602001606081525090565b5080546117a090611dc3565b5f825580601f106117b157506117ce565b601f0160209004905f5260205f20908101906117cd91906117d1565b5b50565b5b808211156117e8575f815f9055506001016117d2565b5090565b5f604051905090565b5f80fd5b5f80fd5b5f73ffffffffffffffffffffffffffffffffffffffff82169050919050565b5f611826826117fd565b9050919050565b6118368161181c565b8114611840575f80fd5b50565b5f813590506118518161182d565b92915050565b5f819050919050565b61186981611857565b8114611873575f80fd5b50565b5f8135905061188481611860565b92915050565b5f80604083850312156118a05761189f6117f5565b5b5f6118ad85828601611843565b92505060206118be85828601611876565b9150509250929050565b6118d18161181c565b82525050565b6118e081611857565b82525050565b5f81519050919050565b5f82825260208201905092915050565b5f5b8381101561191d578082015181840152602081019050611902565b5f8484015250505050565b5f601f19601f8301169050919050565b5f611942826118e6565b61194c81856118f0565b935061195c818560208601611900565b61196581611928565b840191505092915050565b5f60a083015f8301516119855f8601826118c8565b50602083015161199860208601826118d7565b5060408301516119ab60408601826118d7565b5060608301516119be60608601826118d7565b50608083015184820360808601526119d68282611938565b9150508091505092915050565b5f6020820190508181035f8301526119fb8184611970565b905092915050565b5f60208284031215611a1857611a176117f5565b5b5f611a2584828501611843565b91505092915050565b5f8115159050919050565b611a4281611a2e565b82525050565b5f602082019050611a5b5f830184611a39565b92915050565b5f60208284031215611a7657611a756117f5565b5b5f611a8384828501611876565b91505092915050565b5f80fd5b5f80fd5b7f4e487b71000000000000000000000000000000000000000000000000000000005f52604160045260245ffd5b611aca82611928565b810181811067ffffffffffffffff82111715611ae957611ae8611a94565b5b80604052505050565b5f611afb6117ec565b9050611b078282611ac1565b919050565b5f67ffffffffffffffff821115611b2657611b25611a94565b5b611b2f82611928565b9050602081019050919050565b828183375f83830152505050565b5f611b5c611b5784611b0c565b611af2565b905082815260208101848484011115611b7857611b77611a90565b5b611b83848285611b3c565b509392505050565b5f82601f830112611b9f57611b9e611a8c565b5b8135611baf848260208601611b4a565b91505092915050565b5f60208284031215611bcd57611bcc6117f5565b5b5f82013567ffffffffffffffff811115611bea57611be96117f9565b5b611bf684828501611b8b565b91505092915050565b5f805f8060808587031215611c1757611c166117f5565b5b5f611c2487828801611843565b9450506020611c3587828801611843565b9350506040611c4687828801611876565b9250506060611c5787828801611876565b91505092959194509250565b611c6c8161181c565b82525050565b5f602082019050611c855f830184611c63565b92915050565b5f82825260208201905092915050565b7f62616c616e6365206e6f7420656e6f7567682120706c65617365207374616b655f82015250565b5f611ccf602083611c8b565b9150611cda82611c9b565b602082019050919050565b5f6020820190508181035f830152611cfc81611cc3565b9050919050565b7f4e487b71000000000000000000000000000000000000000000000000000000005f52601160045260245ffd5b5f611d3a82611857565b9150611d4583611857565b9250828203905081811115611d5d57611d5c611d03565b5b92915050565b5f611d6d82611857565b9150611d7883611857565b9250828201905080821115611d9057611d8f611d03565b5b92915050565b7f4e487b71000000000000000000000000000000000000000000000000000000005f52602260045260245ffd5b5f6002820490506001821680611dda57607f821691505b602082108103611ded57611dec611d96565b5b50919050565b5f819050815f5260205f209050919050565b5f6020601f8301049050919050565b5f82821b905092915050565b5f60088302611e4f7fffffffffffffffffffffffffffffffffffffffffffffffffffffffffffffffff82611e14565b611e598683611e14565b95508019841693508086168417925050509392505050565b5f819050919050565b5f611e94611e8f611e8a84611857565b611e71565b611857565b9050919050565b5f819050919050565b611ead83611e7a565b611ec1611eb982611e9b565b848454611e20565b825550505050565b5f90565b611ed5611ec9565b611ee0818484611ea4565b505050565b5b81811015611f0357611ef85f82611ecd565b600181019050611ee6565b5050565b601f821115611f4857611f1981611df3565b611f2284611e05565b81016020851015611f31578190505b611f45611f3d85611e05565b830182611ee5565b50505b505050565b5f82821c905092915050565b5f611f685f1984600802611f4d565b1980831691505092915050565b5f611f808383611f59565b9150826002028217905092915050565b611f99826118e6565b67ffffffffffffffff811115611fb257611fb1611a94565b5b611fbc8254611dc3565b611fc7828285611f07565b5f60209050601f831160018114611ff8575f8415611fe6578287015190505b611ff08582611f75565b865550612057565b601f19841661200686611df3565b5f5b8281101561202d57848901518255600182019150602085019450602081019050612008565b8683101561204a5784890151612046601f891682611f59565b8355505b6001600288020188555050505b505050505050565b7f616d6f756e74206e6f7420656e6f7567680000000000000000000000000000005f82015250565b5f612093601183611c8b565b915061209e8261205f565b602082019050919050565b5f6020820190508181035f8301526120c081612087565b9050919050565b7f6e656564207265676973746572206669727374000000000000000000000000005f82015250565b5f6120fb601383611c8b565b9150612106826120c7565b602082019050919050565b5f6020820190508181035f830152612128816120ef565b9050919050565b5f8154905061213d81611dc3565b9050919050565b818103612152575050612227565b61215b8261212f565b67ffffffffffffffff81111561217457612173611a94565b5b61217e8254611dc3565b612189828285611f07565b5f601f8311600181146121b6575f84156121a4578287015490505b6121ae8582611f75565b865550612220565b601f1984166121c487611df3565b96506121cf86611df3565b5f5b828110156121f6578489015482556001820191506001850194506020810190506121d1565b86831015612213578489015461220f601f891682611f59565b8355505b6001600288020188555050505b5050505050505b565b7f4f776e61626c653a2063616c6c6572206973206e6f7420746865206f776e65725f82015250565b5f61225d602083611c8b565b915061226882612229565b602082019050919050565b5f6020820190508181035f83015261228a81612251565b9050919050565b7f4f776e61626c653a206e6577206f776e657220697320746865207a65726f20615f8201527f6464726573730000000000000000000000000000000000000000000000000000602082015250565b5f6122eb602683611c8b565b91506122f682612291565b604082019050919050565b5f6020820190508181035f830152612318816122df565b905091905056fea2646970667358221220bdbad24bd82991892a4c314a163bb946f08c8502d836677e2e127f451b6988c764736f6c63430008150033",
  "immutableReferences": {},
  "source": "// SPDX-License-Identifier: SEE LICENSE IN LICENSE\npragma solidity ^0.8.0;\nimport \"openzeppelin-solidity/contracts/access/Ownable.sol\";\ncontract AccountFactory is Ownable {\n\n    struct accountInfo {\n        address addr;\n        uint balance;\n        uint providerBlockedFunds;\n        uint recipientBlockedFunds;\n        string info;\n    }\n    mapping (address => accountInfo) ownerToAccount;\n\n    function register() public returns (accountInfo memory accountinfo) {\n        // key\n        if (ownerToAccount[msg.sender].addr == address(0)) {\n            ownerToAccount[msg.sender] = accountInfo(msg.sender, 0, 0, 0, \"\");\n        }\n        return ownerToAccount[msg.sender];\n    }\n\n    function withdraw() public onlyOwner {\n        payable(owner()).transfer(address(this).balance);\n    }\n\n    function cancellation() public  {\n        delete(ownerToAccount[msg.sender]);\n    }\n\n    function setProviderInfo(string memory _info) public _needAccountExist(msg.sender){\n        ownerToAccount[msg.sender].info = _info;\n    }\n\n    function onlineBlockedFund(address user, uint _stakeAmount) public {\n        require(_stakeAmount <= ownerToAccount[user].balance, \"balance not enough! please stake\");\n        ownerToAccount[user].balance -= _stakeAmount;\n        ownerToAccount[user].providerBlockedFunds += _stakeAmount;\n    }\n\n    function offlineUnBlockedFund(address user, uint _stakeAmount) public {\n        ownerToAccount[user].balance += _stakeAmount;\n        ownerToAccount[user].providerBlockedFunds -= _stakeAmount;\n    }\n\n    function rentBlockedFund(address user, uint _stakeAmount) public {\n        require(_stakeAmount <= ownerToAccount[user].balance, \"balance not enough! please stake\");\n        ownerToAccount[user].balance -= _stakeAmount;\n        ownerToAccount[user].recipientBlockedFunds += _stakeAmount;\n    }\n\n    function rentUnBlockedFund(address _recipient, address _provider, uint _stakeAmount, uint _unBlockedAmount) public {\n        ownerToAccount[_recipient].recipientBlockedFunds -= _unBlockedAmount;\n        if (_stakeAmount < _unBlockedAmount) {\n            ownerToAccount[_recipient].balance += _unBlockedAmount - _stakeAmount;\n        }\n        ownerToAccount[_provider].balance += _stakeAmount;\n    }\n\n    // \n    function stake() payable public _needAccountExist(msg.sender) {\n        accountInfo storage info = ownerToAccount[msg.sender];\n        if (info.addr == address(0)) {\n            info.addr = msg.sender;\n            info.balance = msg.value;\n            ownerToAccount[msg.sender] = info;\n            return ;\n        }\n        ownerToAccount[msg.sender].balance = ownerToAccount[msg.sender].balance + msg.value;\n    }\n\n    function unstake(uint amount) payable public {\n        accountInfo memory info = ownerToAccount[msg.sender];\n        require(info.balance >= amount, \"amount not enough\");\n        ownerToAccount[msg.sender].balance = ownerToAccount[msg.sender].balance - amount;\n        payable(msg.sender).transfer(amount);\n    }\n\n    modifier _needAccountExist(address _user) {\n        require(ownerToAccount[_user].addr != address(0), \"need register first\");\n        _;\n    }\n\n    function isRegister(address _user) public view returns(bool){\n        return ownerToAccount[_user].addr != address(0);\n    }\n\n    function getAccount(address _addr) view public _needAccountExist(_addr) returns (accountInfo memory)  {\n        return ownerToAccount[_addr];\n    }\n}",
  "sourcePath": "/Users/irongyi/solidity_project/apus_network_v0/contracts/account.sol",
  "compiler": {
    "name": "solc",
    "version": "0.8.21+commit.d9974bed.Emscripten.clang"
  },
  "schemaVersion": "3.4.15",
  "updatedAt": "2023-09-08T01:06:03.502Z",
  "networkType": "ethereum",
  "devdoc": {
    "kind": "dev",
    "methods": {
      "owner()": {
        "details": "Returns the address of the current owner."
      },
      "renounceOwnership()": {
        "details": "Leaves the contract without owner. It will not be possible to call `onlyOwner` functions anymore. Can only be called by the current owner. NOTE: Renouncing ownership will leave the contract without an owner, thereby removing any functionality that is only available to the owner."
      },
      "transferOwnership(address)": {
        "details": "Transfers ownership of the contract to a new account (`newOwner`). Can only be called by the current owner."
      }
    },
    "version": 1
  },
  "userdoc": {
    "kind": "user",
    "methods": {},
    "version": 1
  }
}