{
  "contractName": "AccountFactory",
  "abi": [
    {
      "anonymous": false,
      "inputs": [
        {
          "indexed": true,
          "internalType": "address",
          "name": "previousOwner",
          "type": "address"
        },
        {
          "indexed": true,
          "internalType": "address",
          "name": "newOwner",
          "type": "address"
        }
      ],
      "name": "OwnershipTransferred",
      "type": "event"
    },
    {
      "inputs": [],
      "name": "owner",
      "outputs": [
        {
          "internalType": "address",
          "name": "",
          "type": "address"
        }
      ],
      "stateMutability": "view",
      "type": "function",
      "constant": true
    },
    {
      "inputs": [],
      "name": "renounceOwnership",
      "outputs": [],
      "stateMutability": "nonpayable",
      "type": "function"
    },
    {
      "inputs": [
        {
          "internalType": "address",
          "name": "newOwner",
          "type": "address"
        }
      ],
      "name": "transferOwnership",
      "outputs": [],
      "stateMutability": "nonpayable",
      "type": "function"
    },
    {
      "inputs": [],
      "name": "register",
      "outputs": [
        {
          "components": [
            {
              "internalType": "address",
              "name": "addr",
              "type": "address"
            },
            {
              "internalType": "uint256",
              "name": "balance",
              "type": "uint256"
            },
            {
              "internalType": "uint256",
              "name": "providerBlockedFunds",
              "type": "uint256"
            },
            {
              "internalType": "uint256",
              "name": "recipientBlockedFunds",
              "type": "uint256"
            },
            {
              "internalType": "string",
              "name": "info",
              "type": "string"
            }
          ],
          "internalType": "struct AccountFactory.accountInfo",
          "name": "accountinfo",
          "type": "tuple"
        }
      ],
      "stateMutability": "nonpayable",
      "type": "function"
    },
    {
      "inputs": [],
      "name": "withdraw",
      "outputs": [],
      "stateMutability": "nonpayable",
      "type": "function"
    },
    {
      "inputs": [],
      "name": "cancellation",
      "outputs": [],
      "stateMutability": "nonpayable",
      "type": "function"
    },
    {
      "inputs": [
        {
          "internalType": "string",
          "name": "_info",
          "type": "string"
        }
      ],
      "name": "setProviderInfo",
      "outputs": [],
      "stateMutability": "nonpayable",
      "type": "function"
    },
    {
      "inputs": [
        {
          "internalType": "address",
          "name": "user",
          "type": "address"
        },
        {
          "internalType": "uint256",
          "name": "_stakeAmount",
          "type": "uint256"
        }
      ],
      "name": "onlineBlockedFund",
      "outputs": [],
      "stateMutability": "nonpayable",
      "type": "function"
    },
    {
      "inputs": [
        {
          "internalType": "address",
          "name": "user",
          "type": "address"
        },
        {
          "internalType": "uint256",
          "name": "_stakeAmount",
          "type": "uint256"
        }
      ],
      "name": "offlineUnBlockedFund",
      "outputs": [],
      "stateMutability": "nonpayable",
      "type": "function"
    },
    {
      "inputs": [
        {
          "internalType": "address",
          "name": "user",
          "type": "address"
        },
        {
          "internalType": "uint256",
          "name": "_stakeAmount",
          "type": "uint256"
        }
      ],
      "name": "rentBlockedFund",
      "outputs": [],
      "stateMutability": "nonpayable",
      "type": "function"
    },
    {
      "inputs": [
        {
          "internalType": "address",
          "name": "_recipient",
          "type": "address"
        },
        {
          "internalType": "address",
          "name": "_provider",
          "type": "address"
        },
        {
          "internalType": "uint256",
          "name": "_stakeAmount",
          "type": "uint256"
        },
        {
          "internalType": "int256",
          "name": "_unBlockedAmount",
          "type": "int256"
        }
      ],
      "name": "rentUnBlockedFund",
      "outputs": [],
      "stateMutability": "nonpayable",
      "type": "function"
    },
    {
      "inputs": [],
      "name": "stake",
      "outputs": [],
      "stateMutability": "payable",
      "type": "function",
      "payable": true
    },
    {
      "inputs": [
        {
          "internalType": "uint256",
          "name": "amount",
          "type": "uint256"
        }
      ],
      "name": "unstake",
      "outputs": [],
      "stateMutability": "payable",
      "type": "function",
      "payable": true
    },
    {
      "inputs": [
        {
          "internalType": "address",
          "name": "_user",
          "type": "address"
        }
      ],
      "name": "isRegister",
      "outputs": [
        {
          "internalType": "bool",
          "name": "",
          "type": "bool"
        }
      ],
      "stateMutability": "view",
      "type": "function",
      "constant": true
    },
    {
      "inputs": [
        {
          "internalType": "address",
          "name": "_addr",
          "type": "address"
        }
      ],
      "name": "getAccount",
      "outputs": [
        {
          "components": [
            {
              "internalType": "address",
              "name": "addr",
              "type": "address"
            },
            {
              "internalType": "uint256",
              "name": "balance",
              "type": "uint256"
            },
            {
              "internalType": "uint256",
              "name": "providerBlockedFunds",
              "type": "uint256"
            },
            {
              "internalType": "uint256",
              "name": "recipientBlockedFunds",
              "type": "uint256"
            },
            {
              "internalType": "string",
              "name": "info",
              "type": "string"
            }
          ],
          "internalType": "struct AccountFactory.accountInfo",
          "name": "",
          "type": "tuple"
        }
      ],
      "stateMutability": "view",
      "type": "function",
      "constant": true
    }
  ],
  "bytecode": "0x608060405234801562000010575f80fd5b5062000031620000256200003760201b60201c565b6200003e60201b60201c565b620000ff565b5f33905090565b5f805f9054906101000a900473ffffffffffffffffffffffffffffffffffffffff169050815f806101000a81548173ffffffffffffffffffffffffffffffffffffffff021916908373ffffffffffffffffffffffffffffffffffffffff1602179055508173ffffffffffffffffffffffffffffffffffffffff168173ffffffffffffffffffffffffffffffffffffffff167f8be0079c531659141344cd1fd0a4f28419497f9722a3daafe3b4186f6b6457e060405160405180910390a35050565b6124be806200010d5f395ff3fe6080604052600436106100e7575f3560e01c80634040507811610089578063c7f997d211610058578063c7f997d21461025b578063d2f2cf6614610283578063f2fde38b146102ab578063fbcbc0f1146102d3576100e7565b806340405078146101dd578063715018a6146101f35780638da5cb5b14610209578063b6f9978114610233576100e7565b80632e17de78116100c55780632e17de78146101795780633940ab77146101955780633a4b66f1146101bd5780633ccfd60b146101c7576100e7565b8063183bed66146100eb5780631aa3a0081461011357806322fdef941461013d575b5f80fd5b3480156100f6575f80fd5b50610111600480360381019061010c919061194a565b61030f565b005b34801561011e575f80fd5b50610127610442565b6040516101349190611aa3565b60405180910390f35b348015610148575f80fd5b50610163600480360381019061015e9190611ac3565b61072e565b6040516101709190611b08565b60405180910390f35b610193600480360381019061018e9190611b21565b6107c4565b005b3480156101a0575f80fd5b506101bb60048036038101906101b69190611c78565b610a30565b005b6101c5610b4f565b005b3480156101d2575f80fd5b506101db610e6d565b005b3480156101e8575f80fd5b506101f1610f36565b005b3480156101fe575f80fd5b50610207610fc1565b005b348015610214575f80fd5b5061021d611048565b60405161022a9190611cce565b60405180910390f35b34801561023e575f80fd5b506102596004803603810190610254919061194a565b61106f565b005b348015610266575f80fd5b50610281600480360381019061027c919061194a565b61111f565b005b34801561028e575f80fd5b506102a960048036038101906102a49190611d1a565b611252565b005b3480156102b6575f80fd5b506102d160048036038101906102cc9190611ac3565b61142e565b005b3480156102de575f80fd5b506102f960048036038101906102f49190611ac3565b611524565b6040516103069190611aa3565b60405180910390f35b60015f8373ffffffffffffffffffffffffffffffffffffffff1673ffffffffffffffffffffffffffffffffffffffff1681526020019081526020015f2060010154811115610392576040517f08c379a000000000000000000000000000000000000000000000000000000000815260040161038990611dd8565b60405180910390fd5b8060015f8473ffffffffffffffffffffffffffffffffffffffff1673ffffffffffffffffffffffffffffffffffffffff1681526020019081526020015f206001015f8282546103e19190611e23565b925050819055508060015f8473ffffffffffffffffffffffffffffffffffffffff1673ffffffffffffffffffffffffffffffffffffffff1681526020019081526020015f206002015f8282546104379190611e56565b925050819055505050565b61044a611813565b5f73ffffffffffffffffffffffffffffffffffffffff1660015f3373ffffffffffffffffffffffffffffffffffffffff1673ffffffffffffffffffffffffffffffffffffffff1681526020019081526020015f205f015f9054906101000a900473ffffffffffffffffffffffffffffffffffffffff1673ffffffffffffffffffffffffffffffffffffffff16036105df576040518060a001604052803373ffffffffffffffffffffffffffffffffffffffff1681526020015f81526020015f81526020015f815260200160405180602001604052805f81525081525060015f3373ffffffffffffffffffffffffffffffffffffffff1673ffffffffffffffffffffffffffffffffffffffff1681526020019081526020015f205f820151815f015f6101000a81548173ffffffffffffffffffffffffffffffffffffffff021916908373ffffffffffffffffffffffffffffffffffffffff16021790555060208201518160010155604082015181600201556060820151816003015560808201518160040190816105da9190612083565b509050505b60015f3373ffffffffffffffffffffffffffffffffffffffff1673ffffffffffffffffffffffffffffffffffffffff1681526020019081526020015f206040518060a00160405290815f82015f9054906101000a900473ffffffffffffffffffffffffffffffffffffffff1673ffffffffffffffffffffffffffffffffffffffff1673ffffffffffffffffffffffffffffffffffffffff1681526020016001820154815260200160028201548152602001600382015481526020016004820180546106a990611eb6565b80601f01602080910402602001604051908101604052809291908181526020018280546106d590611eb6565b80156107205780601f106106f757610100808354040283529160200191610720565b820191905f5260205f20905b81548152906001019060200180831161070357829003601f168201915b505050505081525050905090565b5f8073ffffffffffffffffffffffffffffffffffffffff1660015f8473ffffffffffffffffffffffffffffffffffffffff1673ffffffffffffffffffffffffffffffffffffffff1681526020019081526020015f205f015f9054906101000a900473ffffffffffffffffffffffffffffffffffffffff1673ffffffffffffffffffffffffffffffffffffffff1614159050919050565b5f60015f3373ffffffffffffffffffffffffffffffffffffffff1673ffffffffffffffffffffffffffffffffffffffff1681526020019081526020015f206040518060a00160405290815f82015f9054906101000a900473ffffffffffffffffffffffffffffffffffffffff1673ffffffffffffffffffffffffffffffffffffffff1673ffffffffffffffffffffffffffffffffffffffff16815260200160018201548152602001600282015481526020016003820154815260200160048201805461088f90611eb6565b80601f01602080910402602001604051908101604052809291908181526020018280546108bb90611eb6565b80156109065780601f106108dd57610100808354040283529160200191610906565b820191905f5260205f20905b8154815290600101906020018083116108e957829003601f168201915b50505050508152505090508181602001511015610958576040517f08c379a000000000000000000000000000000000000000000000000000000000815260040161094f9061219c565b60405180910390fd5b8160015f3373ffffffffffffffffffffffffffffffffffffffff1673ffffffffffffffffffffffffffffffffffffffff1681526020019081526020015f20600101546109a49190611e23565b60015f3373ffffffffffffffffffffffffffffffffffffffff1673ffffffffffffffffffffffffffffffffffffffff1681526020019081526020015f20600101819055503373ffffffffffffffffffffffffffffffffffffffff166108fc8390811502906040515f60405180830381858888f19350505050158015610a2b573d5f803e3d5ffd5b505050565b335f73ffffffffffffffffffffffffffffffffffffffff1660015f8373ffffffffffffffffffffffffffffffffffffffff1673ffffffffffffffffffffffffffffffffffffffff1681526020019081526020015f205f015f9054906101000a900473ffffffffffffffffffffffffffffffffffffffff1673ffffffffffffffffffffffffffffffffffffffff1603610afd576040517f08c379a0000000000000000000000000000000000000000000000000000000008152600401610af490612204565b60405180910390fd5b8160015f3373ffffffffffffffffffffffffffffffffffffffff1673ffffffffffffffffffffffffffffffffffffffff1681526020019081526020015f206004019081610b4a9190612083565b505050565b335f73ffffffffffffffffffffffffffffffffffffffff1660015f8373ffffffffffffffffffffffffffffffffffffffff1673ffffffffffffffffffffffffffffffffffffffff1681526020019081526020015f205f015f9054906101000a900473ffffffffffffffffffffffffffffffffffffffff1673ffffffffffffffffffffffffffffffffffffffff1603610c1c576040517f08c379a0000000000000000000000000000000000000000000000000000000008152600401610c1390612204565b60405180910390fd5b5f60015f3373ffffffffffffffffffffffffffffffffffffffff1673ffffffffffffffffffffffffffffffffffffffff1681526020019081526020015f2090505f73ffffffffffffffffffffffffffffffffffffffff16815f015f9054906101000a900473ffffffffffffffffffffffffffffffffffffffff1673ffffffffffffffffffffffffffffffffffffffff1603610dd85733815f015f6101000a81548173ffffffffffffffffffffffffffffffffffffffff021916908373ffffffffffffffffffffffffffffffffffffffff1602179055503481600101819055508060015f3373ffffffffffffffffffffffffffffffffffffffff1673ffffffffffffffffffffffffffffffffffffffff1681526020019081526020015f205f82015f9054906101000a900473ffffffffffffffffffffffffffffffffffffffff16815f015f6101000a81548173ffffffffffffffffffffffffffffffffffffffff021916908373ffffffffffffffffffffffffffffffffffffffff16021790555060018201548160010155600282015481600201556003820154816003015560048201816004019081610dce9190612237565b5090505050610e6a565b3460015f3373ffffffffffffffffffffffffffffffffffffffff1673ffffffffffffffffffffffffffffffffffffffff1681526020019081526020015f2060010154610e249190611e56565b60015f3373ffffffffffffffffffffffffffffffffffffffff1673ffffffffffffffffffffffffffffffffffffffff1681526020019081526020015f2060010181905550505b50565b610e7561174b565b73ffffffffffffffffffffffffffffffffffffffff16610e93611048565b73ffffffffffffffffffffffffffffffffffffffff1614610ee9576040517f08c379a0000000000000000000000000000000000000000000000000000000008152600401610ee090612366565b60405180910390fd5b610ef1611048565b73ffffffffffffffffffffffffffffffffffffffff166108fc4790811502906040515f60405180830381858888f19350505050158015610f33573d5f803e3d5ffd5b50565b60015f3373ffffffffffffffffffffffffffffffffffffffff1673ffffffffffffffffffffffffffffffffffffffff1681526020019081526020015f205f8082015f6101000a81549073ffffffffffffffffffffffffffffffffffffffff0219169055600182015f9055600282015f9055600382015f9055600482015f610fbd9190611854565b5050565b610fc961174b565b73ffffffffffffffffffffffffffffffffffffffff16610fe7611048565b73ffffffffffffffffffffffffffffffffffffffff161461103d576040517f08c379a000000000000000000000000000000000000000000000000000000000815260040161103490612366565b60405180910390fd5b6110465f611752565b565b5f805f9054906101000a900473ffffffffffffffffffffffffffffffffffffffff16905090565b8060015f8473ffffffffffffffffffffffffffffffffffffffff1673ffffffffffffffffffffffffffffffffffffffff1681526020019081526020015f206001015f8282546110be9190611e56565b925050819055508060015f8473ffffffffffffffffffffffffffffffffffffffff1673ffffffffffffffffffffffffffffffffffffffff1681526020019081526020015f206002015f8282546111149190611e23565b925050819055505050565b60015f8373ffffffffffffffffffffffffffffffffffffffff1673ffffffffffffffffffffffffffffffffffffffff1681526020019081526020015f20600101548111156111a2576040517f08c379a000000000000000000000000000000000000000000000000000000000815260040161119990611dd8565b60405180910390fd5b8060015f8473ffffffffffffffffffffffffffffffffffffffff1673ffffffffffffffffffffffffffffffffffffffff1681526020019081526020015f206001015f8282546111f19190611e23565b925050819055508060015f8473ffffffffffffffffffffffffffffffffffffffff1673ffffffffffffffffffffffffffffffffffffffff1681526020019081526020015f206003015f8282546112479190611e56565b925050819055505050565b5f8112156113d257807fffffffffffffffffffffffffffffffffffffffffffffffffffffffffffffffff6112869190612384565b905080826112949190611e23565b60015f8673ffffffffffffffffffffffffffffffffffffffff1673ffffffffffffffffffffffffffffffffffffffff1681526020019081526020015f206003015f8282546112e29190611e23565b925050819055508060015f8673ffffffffffffffffffffffffffffffffffffffff1673ffffffffffffffffffffffffffffffffffffffff1681526020019081526020015f20600101541061138b578060015f8673ffffffffffffffffffffffffffffffffffffffff1673ffffffffffffffffffffffffffffffffffffffff1681526020019081526020015f206001015f82825461137f9190611e23565b925050819055506113d1565b5f60015f8673ffffffffffffffffffffffffffffffffffffffff1673ffffffffffffffffffffffffffffffffffffffff1681526020019081526020015f20600101819055505b5b8160015f8573ffffffffffffffffffffffffffffffffffffffff1673ffffffffffffffffffffffffffffffffffffffff1681526020019081526020015f206001015f8282546114219190611e56565b9250508190555050505050565b61143661174b565b73ffffffffffffffffffffffffffffffffffffffff16611454611048565b73ffffffffffffffffffffffffffffffffffffffff16146114aa576040517f08c379a00000000000000000000000000000000000000000000000000000000081526004016114a190612366565b60405180910390fd5b5f73ffffffffffffffffffffffffffffffffffffffff168173ffffffffffffffffffffffffffffffffffffffff1603611518576040517f08c379a000000000000000000000000000000000000000000000000000000000815260040161150f9061246a565b60405180910390fd5b61152181611752565b50565b61152c611813565b815f73ffffffffffffffffffffffffffffffffffffffff1660015f8373ffffffffffffffffffffffffffffffffffffffff1673ffffffffffffffffffffffffffffffffffffffff1681526020019081526020015f205f015f9054906101000a900473ffffffffffffffffffffffffffffffffffffffff1673ffffffffffffffffffffffffffffffffffffffff16036115f9576040517f08c379a00000000000000000000000000000000000000000000000000000000081526004016115f090612204565b60405180910390fd5b60015f8473ffffffffffffffffffffffffffffffffffffffff1673ffffffffffffffffffffffffffffffffffffffff1681526020019081526020015f206040518060a00160405290815f82015f9054906101000a900473ffffffffffffffffffffffffffffffffffffffff1673ffffffffffffffffffffffffffffffffffffffff1673ffffffffffffffffffffffffffffffffffffffff1681526020016001820154815260200160028201548152602001600382015481526020016004820180546116c390611eb6565b80601f01602080910402602001604051908101604052809291908181526020018280546116ef90611eb6565b801561173a5780601f106117115761010080835404028352916020019161173a565b820191905f5260205f20905b81548152906001019060200180831161171d57829003601f168201915b505050505081525050915050919050565b5f33905090565b5f805f9054906101000a900473ffffffffffffffffffffffffffffffffffffffff169050815f806101000a81548173ffffffffffffffffffffffffffffffffffffffff021916908373ffffffffffffffffffffffffffffffffffffffff1602179055508173ffffffffffffffffffffffffffffffffffffffff168173ffffffffffffffffffffffffffffffffffffffff167f8be0079c531659141344cd1fd0a4f28419497f9722a3daafe3b4186f6b6457e060405160405180910390a35050565b6040518060a001604052805f73ffffffffffffffffffffffffffffffffffffffff1681526020015f81526020015f81526020015f8152602001606081525090565b50805461186090611eb6565b5f825580601f10611871575061188e565b601f0160209004905f5260205f209081019061188d9190611891565b5b50565b5b808211156118a8575f815f905550600101611892565b5090565b5f604051905090565b5f80fd5b5f80fd5b5f73ffffffffffffffffffffffffffffffffffffffff82169050919050565b5f6118e6826118bd565b9050919050565b6118f6816118dc565b8114611900575f80fd5b50565b5f81359050611911816118ed565b92915050565b5f819050919050565b61192981611917565b8114611933575f80fd5b50565b5f8135905061194481611920565b92915050565b5f80604083850312156119605761195f6118b5565b5b5f61196d85828601611903565b925050602061197e85828601611936565b9150509250929050565b611991816118dc565b82525050565b6119a081611917565b82525050565b5f81519050919050565b5f82825260208201905092915050565b5f5b838110156119dd5780820151818401526020810190506119c2565b5f8484015250505050565b5f601f19601f8301169050919050565b5f611a02826119a6565b611a0c81856119b0565b9350611a1c8185602086016119c0565b611a25816119e8565b840191505092915050565b5f60a083015f830151611a455f860182611988565b506020830151611a586020860182611997565b506040830151611a6b6040860182611997565b506060830151611a7e6060860182611997565b5060808301518482036080860152611a9682826119f8565b9150508091505092915050565b5f6020820190508181035f830152611abb8184611a30565b905092915050565b5f60208284031215611ad857611ad76118b5565b5b5f611ae584828501611903565b91505092915050565b5f8115159050919050565b611b0281611aee565b82525050565b5f602082019050611b1b5f830184611af9565b92915050565b5f60208284031215611b3657611b356118b5565b5b5f611b4384828501611936565b91505092915050565b5f80fd5b5f80fd5b7f4e487b71000000000000000000000000000000000000000000000000000000005f52604160045260245ffd5b611b8a826119e8565b810181811067ffffffffffffffff82111715611ba957611ba8611b54565b5b80604052505050565b5f611bbb6118ac565b9050611bc78282611b81565b919050565b5f67ffffffffffffffff821115611be657611be5611b54565b5b611bef826119e8565b9050602081019050919050565b828183375f83830152505050565b5f611c1c611c1784611bcc565b611bb2565b905082815260208101848484011115611c3857611c37611b50565b5b611c43848285611bfc565b509392505050565b5f82601f830112611c5f57611c5e611b4c565b5b8135611c6f848260208601611c0a565b91505092915050565b5f60208284031215611c8d57611c8c6118b5565b5b5f82013567ffffffffffffffff811115611caa57611ca96118b9565b5b611cb684828501611c4b565b91505092915050565b611cc8816118dc565b82525050565b5f602082019050611ce15f830184611cbf565b92915050565b5f819050919050565b611cf981611ce7565b8114611d03575f80fd5b50565b5f81359050611d1481611cf0565b92915050565b5f805f8060808587031215611d3257611d316118b5565b5b5f611d3f87828801611903565b9450506020611d5087828801611903565b9350506040611d6187828801611936565b9250506060611d7287828801611d06565b91505092959194509250565b5f82825260208201905092915050565b7f62616c616e6365206e6f7420656e6f7567682120706c65617365207374616b655f82015250565b5f611dc2602083611d7e565b9150611dcd82611d8e565b602082019050919050565b5f6020820190508181035f830152611def81611db6565b9050919050565b7f4e487b71000000000000000000000000000000000000000000000000000000005f52601160045260245ffd5b5f611e2d82611917565b9150611e3883611917565b9250828203905081811115611e5057611e4f611df6565b5b92915050565b5f611e6082611917565b9150611e6b83611917565b9250828201905080821115611e8357611e82611df6565b5b92915050565b7f4e487b71000000000000000000000000000000000000000000000000000000005f52602260045260245ffd5b5f6002820490506001821680611ecd57607f821691505b602082108103611ee057611edf611e89565b5b50919050565b5f819050815f5260205f209050919050565b5f6020601f8301049050919050565b5f82821b905092915050565b5f60088302611f427fffffffffffffffffffffffffffffffffffffffffffffffffffffffffffffffff82611f07565b611f4c8683611f07565b95508019841693508086168417925050509392505050565b5f819050919050565b5f611f87611f82611f7d84611917565b611f64565b611917565b9050919050565b5f819050919050565b611fa083611f6d565b611fb4611fac82611f8e565b848454611f13565b825550505050565b5f90565b611fc8611fbc565b611fd3818484611f97565b505050565b5b81811015611ff657611feb5f82611fc0565b600181019050611fd9565b5050565b601f82111561203b5761200c81611ee6565b61201584611ef8565b81016020851015612024578190505b61203861203085611ef8565b830182611fd8565b50505b505050565b5f82821c905092915050565b5f61205b5f1984600802612040565b1980831691505092915050565b5f612073838361204c565b9150826002028217905092915050565b61208c826119a6565b67ffffffffffffffff8111156120a5576120a4611b54565b5b6120af8254611eb6565b6120ba828285611ffa565b5f60209050601f8311600181146120eb575f84156120d9578287015190505b6120e38582612068565b86555061214a565b601f1984166120f986611ee6565b5f5b82811015612120578489015182556001820191506020850194506020810190506120fb565b8683101561213d5784890151612139601f89168261204c565b8355505b6001600288020188555050505b505050505050565b7f616d6f756e74206e6f7420656e6f7567680000000000000000000000000000005f82015250565b5f612186601183611d7e565b915061219182612152565b602082019050919050565b5f6020820190508181035f8301526121b38161217a565b9050919050565b7f6e656564207265676973746572206669727374000000000000000000000000005f82015250565b5f6121ee601383611d7e565b91506121f9826121ba565b602082019050919050565b5f6020820190508181035f83015261221b816121e2565b9050919050565b5f8154905061223081611eb6565b9050919050565b81810361224557505061231a565b61224e82612222565b67ffffffffffffffff81111561226757612266611b54565b5b6122718254611eb6565b61227c828285611ffa565b5f601f8311600181146122a9575f8415612297578287015490505b6122a18582612068565b865550612313565b601f1984166122b787611ee6565b96506122c286611ee6565b5f5b828110156122e9578489015482556001820191506001850194506020810190506122c4565b868310156123065784890154612302601f89168261204c565b8355505b6001600288020188555050505b5050505050505b565b7f4f776e61626c653a2063616c6c6572206973206e6f7420746865206f776e65725f82015250565b5f612350602083611d7e565b915061235b8261231c565b602082019050919050565b5f6020820190508181035f83015261237d81612344565b9050919050565b5f61238e82611ce7565b915061239983611ce7565b92508282026123a781611ce7565b91507f800000000000000000000000000000000000000000000000000000000000000084145f841216156123de576123dd611df6565b5b82820584148315176123f3576123f2611df6565b5b5092915050565b7f4f776e61626c653a206e6577206f776e657220697320746865207a65726f20615f8201527f6464726573730000000000000000000000000000000000000000000000000000602082015250565b5f612454602683611d7e565b915061245f826123fa565b604082019050919050565b5f6020820190508181035f83015261248181612448565b905091905056fea26469706673582212204b0092497cc86c9aea56411f20a14308175ea81d0777d9624d1c104c9a43258664736f6c63430008150033",
  "immutableReferences": {},
  "source": "// SPDX-License-Identifier: SEE LICENSE IN LICENSE\npragma solidity ^0.8.0;\nimport \"openzeppelin-solidity/contracts/access/Ownable.sol\";\ncontract AccountFactory is Ownable {\n\n    struct accountInfo {\n        address addr;\n        uint balance;\n        uint providerBlockedFunds;\n        uint recipientBlockedFunds;\n        string info;\n    }\n    mapping (address => accountInfo) ownerToAccount;\n\n    function register() public returns (accountInfo memory accountinfo) {\n        // key\n        if (ownerToAccount[msg.sender].addr == address(0)) {\n            ownerToAccount[msg.sender] = accountInfo(msg.sender, 0, 0, 0, \"\");\n        }\n        return ownerToAccount[msg.sender];\n    }\n\n    function withdraw() public onlyOwner {\n        payable(owner()).transfer(address(this).balance);\n    }\n\n    function cancellation() public  {\n        delete(ownerToAccount[msg.sender]);\n    }\n\n    function setProviderInfo(string memory _info) public _needAccountExist(msg.sender){\n        ownerToAccount[msg.sender].info = _info;\n    }\n\n    function onlineBlockedFund(address user, uint _stakeAmount) public {\n        require(_stakeAmount <= ownerToAccount[user].balance, \"balance not enough! please stake\");\n        ownerToAccount[user].balance -= _stakeAmount;\n        ownerToAccount[user].providerBlockedFunds += _stakeAmount;\n    }\n\n    function offlineUnBlockedFund(address user, uint _stakeAmount) public {\n        ownerToAccount[user].balance += _stakeAmount;\n        ownerToAccount[user].providerBlockedFunds -= _stakeAmount;\n    }\n\n    function rentBlockedFund(address user, uint _stakeAmount) public {\n        require(_stakeAmount <= ownerToAccount[user].balance, \"balance not enough! please stake\");\n        ownerToAccount[user].balance -= _stakeAmount;\n        ownerToAccount[user].recipientBlockedFunds += _stakeAmount;\n    }\n\n    function rentUnBlockedFund(address _recipient, address _provider, uint _stakeAmount, int _unBlockedAmount) public {\n        if (_unBlockedAmount >= 0) {\n            // ownerToAccount[_recipient].recipientBlockedFunds -= _stakeAmount + uint(_unBlockedAmount);\n            // ownerToAccount[_recipient].balance += uint(_unBlockedAmount);\n        } else {\n            _unBlockedAmount = -1 * _unBlockedAmount;\n            ownerToAccount[_recipient].recipientBlockedFunds -= _stakeAmount - uint(_unBlockedAmount);\n            if (ownerToAccount[_recipient].balance >= uint(_unBlockedAmount)) {\n                ownerToAccount[_recipient].balance -= uint(_unBlockedAmount);\n            } else {\n                ownerToAccount[_recipient].balance = 0;\n            }\n        }\n\n        ownerToAccount[_provider].balance += _stakeAmount;\n    }\n\n    // \n    function stake() payable public _needAccountExist(msg.sender) {\n        accountInfo storage info = ownerToAccount[msg.sender];\n        if (info.addr == address(0)) {\n            info.addr = msg.sender;\n            info.balance = msg.value;\n            ownerToAccount[msg.sender] = info;\n            return ;\n        }\n        ownerToAccount[msg.sender].balance = ownerToAccount[msg.sender].balance + msg.value;\n    }\n\n    function unstake(uint amount) payable public {\n        accountInfo memory info = ownerToAccount[msg.sender];\n        require(info.balance >= amount, \"amount not enough\");\n        ownerToAccount[msg.sender].balance = ownerToAccount[msg.sender].balance - amount;\n        payable(msg.sender).transfer(amount);\n    }\n\n    modifier _needAccountExist(address _user) {\n        require(ownerToAccount[_user].addr != address(0), \"need register first\");\n        _;\n    }\n\n    function isRegister(address _user) public view returns(bool){\n        return ownerToAccount[_user].addr != address(0);\n    }\n\n    function getAccount(address _addr) view public _needAccountExist(_addr) returns (accountInfo memory)  {\n        return ownerToAccount[_addr];\n    }\n}",
  "sourcePath": "/Users/irongyi/solidity_project/apus_network_v0/contracts/account.sol",
  "compiler": {
    "name": "solc",
    "version": "0.8.21+commit.d9974bed.Emscripten.clang"
  },
  "schemaVersion": "3.4.15",
  "updatedAt": "2023-09-07T14:04:05.832Z",
  "networkType": "ethereum",
  "devdoc": {
    "kind": "dev",
    "methods": {
      "owner()": {
        "details": "Returns the address of the current owner."
      },
      "renounceOwnership()": {
        "details": "Leaves the contract without owner. It will not be possible to call `onlyOwner` functions anymore. Can only be called by the current owner. NOTE: Renouncing ownership will leave the contract without an owner, thereby removing any functionality that is only available to the owner."
      },
      "transferOwnership(address)": {
        "details": "Transfers ownership of the contract to a new account (`newOwner`). Can only be called by the current owner."
      }
    },
    "version": 1
  },
  "userdoc": {
    "kind": "user",
    "methods": {},
    "version": 1
  }
}