{
  "contractName": "AccountFactory",
  "abi": [
    {
      "anonymous": false,
      "inputs": [
        {
          "indexed": true,
          "internalType": "address",
          "name": "previousOwner",
          "type": "address"
        },
        {
          "indexed": true,
          "internalType": "address",
          "name": "newOwner",
          "type": "address"
        }
      ],
      "name": "OwnershipTransferred",
      "type": "event"
    },
    {
      "inputs": [],
      "name": "owner",
      "outputs": [
        {
          "internalType": "address",
          "name": "",
          "type": "address"
        }
      ],
      "stateMutability": "view",
      "type": "function"
    },
    {
      "inputs": [],
      "name": "renounceOwnership",
      "outputs": [],
      "stateMutability": "nonpayable",
      "type": "function"
    },
    {
      "inputs": [
        {
          "internalType": "address",
          "name": "newOwner",
          "type": "address"
        }
      ],
      "name": "transferOwnership",
      "outputs": [],
      "stateMutability": "nonpayable",
      "type": "function"
    },
    {
      "inputs": [],
      "name": "register",
      "outputs": [
        {
          "components": [
            {
              "internalType": "address",
              "name": "addr",
              "type": "address"
            },
            {
              "internalType": "uint256",
              "name": "balance",
              "type": "uint256"
            },
            {
              "internalType": "uint256",
              "name": "providerBlockedFunds",
              "type": "uint256"
            },
            {
              "internalType": "uint256",
              "name": "recipientBlockedFunds",
              "type": "uint256"
            },
            {
              "internalType": "string",
              "name": "info",
              "type": "string"
            }
          ],
          "internalType": "struct AccountFactory.accountInfo",
          "name": "accountinfo",
          "type": "tuple"
        }
      ],
      "stateMutability": "nonpayable",
      "type": "function"
    },
    {
      "inputs": [],
      "name": "withdraw",
      "outputs": [],
      "stateMutability": "nonpayable",
      "type": "function"
    },
    {
      "inputs": [],
      "name": "cancellation",
      "outputs": [],
      "stateMutability": "nonpayable",
      "type": "function"
    },
    {
      "inputs": [
        {
          "internalType": "string",
          "name": "_info",
          "type": "string"
        }
      ],
      "name": "setProviderInfo",
      "outputs": [],
      "stateMutability": "nonpayable",
      "type": "function"
    },
    {
      "inputs": [],
      "name": "stake",
      "outputs": [],
      "stateMutability": "payable",
      "type": "function"
    },
    {
      "inputs": [
        {
          "internalType": "uint256",
          "name": "amount",
          "type": "uint256"
        }
      ],
      "name": "unstake",
      "outputs": [],
      "stateMutability": "payable",
      "type": "function"
    },
    {
      "inputs": [
        {
          "internalType": "address",
          "name": "_user",
          "type": "address"
        }
      ],
      "name": "isRegister",
      "outputs": [
        {
          "internalType": "bool",
          "name": "",
          "type": "bool"
        }
      ],
      "stateMutability": "view",
      "type": "function"
    },
    {
      "inputs": [
        {
          "internalType": "address",
          "name": "_addr",
          "type": "address"
        }
      ],
      "name": "getAccount",
      "outputs": [
        {
          "components": [
            {
              "internalType": "address",
              "name": "addr",
              "type": "address"
            },
            {
              "internalType": "uint256",
              "name": "balance",
              "type": "uint256"
            },
            {
              "internalType": "uint256",
              "name": "providerBlockedFunds",
              "type": "uint256"
            },
            {
              "internalType": "uint256",
              "name": "recipientBlockedFunds",
              "type": "uint256"
            },
            {
              "internalType": "string",
              "name": "info",
              "type": "string"
            }
          ],
          "internalType": "struct AccountFactory.accountInfo",
          "name": "",
          "type": "tuple"
        }
      ],
      "stateMutability": "view",
      "type": "function"
    }
  ],
  "bytecode": "0x608060405234801561000f575f80fd5b5061002c61002161003160201b60201c565b61003860201b60201c565b6100f9565b5f33905090565b5f805f9054906101000a900473ffffffffffffffffffffffffffffffffffffffff169050815f806101000a81548173ffffffffffffffffffffffffffffffffffffffff021916908373ffffffffffffffffffffffffffffffffffffffff1602179055508173ffffffffffffffffffffffffffffffffffffffff168173ffffffffffffffffffffffffffffffffffffffff167f8be0079c531659141344cd1fd0a4f28419497f9722a3daafe3b4186f6b6457e060405160405180910390a35050565b611d2d806101065f395ff3fe60806040526004361061009b575f3560e01c80633ccfd60b116100635780633ccfd60b146101535780634040507814610169578063715018a61461017f5780638da5cb5b14610195578063f2fde38b146101bf578063fbcbc0f1146101e75761009b565b80631aa3a0081461009f57806322fdef94146100c95780632e17de78146101055780633940ab77146101215780633a4b66f114610149575b5f80fd5b3480156100aa575f80fd5b506100b3610223565b6040516100c09190611422565b60405180910390f35b3480156100d4575f80fd5b506100ef60048036038101906100ea919061147d565b61050f565b6040516100fc91906114c2565b60405180910390f35b61011f600480360381019061011a9190611505565b6105a5565b005b34801561012c575f80fd5b506101476004803603810190610142919061165c565b610811565b005b610151610930565b005b34801561015e575f80fd5b50610167610c4e565b005b348015610174575f80fd5b5061017d610d17565b005b34801561018a575f80fd5b50610193610da2565b005b3480156101a0575f80fd5b506101a9610e29565b6040516101b691906116b2565b60405180910390f35b3480156101ca575f80fd5b506101e560048036038101906101e0919061147d565b610e50565b005b3480156101f2575f80fd5b5061020d6004803603810190610208919061147d565b610f46565b60405161021a9190611422565b60405180910390f35b61022b611235565b5f73ffffffffffffffffffffffffffffffffffffffff1660015f3373ffffffffffffffffffffffffffffffffffffffff1673ffffffffffffffffffffffffffffffffffffffff1681526020019081526020015f205f015f9054906101000a900473ffffffffffffffffffffffffffffffffffffffff1673ffffffffffffffffffffffffffffffffffffffff16036103c0576040518060a001604052803373ffffffffffffffffffffffffffffffffffffffff1681526020015f81526020015f81526020015f815260200160405180602001604052805f81525081525060015f3373ffffffffffffffffffffffffffffffffffffffff1673ffffffffffffffffffffffffffffffffffffffff1681526020019081526020015f205f820151815f015f6101000a81548173ffffffffffffffffffffffffffffffffffffffff021916908373ffffffffffffffffffffffffffffffffffffffff16021790555060208201518160010155604082015181600201556060820151816003015560808201518160040190816103bb91906118c5565b509050505b60015f3373ffffffffffffffffffffffffffffffffffffffff1673ffffffffffffffffffffffffffffffffffffffff1681526020019081526020015f206040518060a00160405290815f82015f9054906101000a900473ffffffffffffffffffffffffffffffffffffffff1673ffffffffffffffffffffffffffffffffffffffff1673ffffffffffffffffffffffffffffffffffffffff16815260200160018201548152602001600282015481526020016003820154815260200160048201805461048a906116f8565b80601f01602080910402602001604051908101604052809291908181526020018280546104b6906116f8565b80156105015780601f106104d857610100808354040283529160200191610501565b820191905f5260205f20905b8154815290600101906020018083116104e457829003601f168201915b505050505081525050905090565b5f8073ffffffffffffffffffffffffffffffffffffffff1660015f8473ffffffffffffffffffffffffffffffffffffffff1673ffffffffffffffffffffffffffffffffffffffff1681526020019081526020015f205f015f9054906101000a900473ffffffffffffffffffffffffffffffffffffffff1673ffffffffffffffffffffffffffffffffffffffff1614159050919050565b5f60015f3373ffffffffffffffffffffffffffffffffffffffff1673ffffffffffffffffffffffffffffffffffffffff1681526020019081526020015f206040518060a00160405290815f82015f9054906101000a900473ffffffffffffffffffffffffffffffffffffffff1673ffffffffffffffffffffffffffffffffffffffff1673ffffffffffffffffffffffffffffffffffffffff168152602001600182015481526020016002820154815260200160038201548152602001600482018054610670906116f8565b80601f016020809104026020016040519081016040528092919081815260200182805461069c906116f8565b80156106e75780601f106106be576101008083540402835291602001916106e7565b820191905f5260205f20905b8154815290600101906020018083116106ca57829003601f168201915b50505050508152505090508181602001511015610739576040517f08c379a0000000000000000000000000000000000000000000000000000000008152600401610730906119ee565b60405180910390fd5b8160015f3373ffffffffffffffffffffffffffffffffffffffff1673ffffffffffffffffffffffffffffffffffffffff1681526020019081526020015f20600101546107859190611a39565b60015f3373ffffffffffffffffffffffffffffffffffffffff1673ffffffffffffffffffffffffffffffffffffffff1681526020019081526020015f20600101819055503373ffffffffffffffffffffffffffffffffffffffff166108fc8390811502906040515f60405180830381858888f1935050505015801561080c573d5f803e3d5ffd5b505050565b335f73ffffffffffffffffffffffffffffffffffffffff1660015f8373ffffffffffffffffffffffffffffffffffffffff1673ffffffffffffffffffffffffffffffffffffffff1681526020019081526020015f205f015f9054906101000a900473ffffffffffffffffffffffffffffffffffffffff1673ffffffffffffffffffffffffffffffffffffffff16036108de576040517f08c379a00000000000000000000000000000000000000000000000000000000081526004016108d590611ab6565b60405180910390fd5b8160015f3373ffffffffffffffffffffffffffffffffffffffff1673ffffffffffffffffffffffffffffffffffffffff1681526020019081526020015f20600401908161092b91906118c5565b505050565b335f73ffffffffffffffffffffffffffffffffffffffff1660015f8373ffffffffffffffffffffffffffffffffffffffff1673ffffffffffffffffffffffffffffffffffffffff1681526020019081526020015f205f015f9054906101000a900473ffffffffffffffffffffffffffffffffffffffff1673ffffffffffffffffffffffffffffffffffffffff16036109fd576040517f08c379a00000000000000000000000000000000000000000000000000000000081526004016109f490611ab6565b60405180910390fd5b5f60015f3373ffffffffffffffffffffffffffffffffffffffff1673ffffffffffffffffffffffffffffffffffffffff1681526020019081526020015f2090505f73ffffffffffffffffffffffffffffffffffffffff16815f015f9054906101000a900473ffffffffffffffffffffffffffffffffffffffff1673ffffffffffffffffffffffffffffffffffffffff1603610bb95733815f015f6101000a81548173ffffffffffffffffffffffffffffffffffffffff021916908373ffffffffffffffffffffffffffffffffffffffff1602179055503481600101819055508060015f3373ffffffffffffffffffffffffffffffffffffffff1673ffffffffffffffffffffffffffffffffffffffff1681526020019081526020015f205f82015f9054906101000a900473ffffffffffffffffffffffffffffffffffffffff16815f015f6101000a81548173ffffffffffffffffffffffffffffffffffffffff021916908373ffffffffffffffffffffffffffffffffffffffff16021790555060018201548160010155600282015481600201556003820154816003015560048201816004019081610baf9190611ae9565b5090505050610c4b565b3460015f3373ffffffffffffffffffffffffffffffffffffffff1673ffffffffffffffffffffffffffffffffffffffff1681526020019081526020015f2060010154610c059190611bce565b60015f3373ffffffffffffffffffffffffffffffffffffffff1673ffffffffffffffffffffffffffffffffffffffff1681526020019081526020015f2060010181905550505b50565b610c5661116d565b73ffffffffffffffffffffffffffffffffffffffff16610c74610e29565b73ffffffffffffffffffffffffffffffffffffffff1614610cca576040517f08c379a0000000000000000000000000000000000000000000000000000000008152600401610cc190611c4b565b60405180910390fd5b610cd2610e29565b73ffffffffffffffffffffffffffffffffffffffff166108fc4790811502906040515f60405180830381858888f19350505050158015610d14573d5f803e3d5ffd5b50565b60015f3373ffffffffffffffffffffffffffffffffffffffff1673ffffffffffffffffffffffffffffffffffffffff1681526020019081526020015f205f8082015f6101000a81549073ffffffffffffffffffffffffffffffffffffffff0219169055600182015f9055600282015f9055600382015f9055600482015f610d9e9190611276565b5050565b610daa61116d565b73ffffffffffffffffffffffffffffffffffffffff16610dc8610e29565b73ffffffffffffffffffffffffffffffffffffffff1614610e1e576040517f08c379a0000000000000000000000000000000000000000000000000000000008152600401610e1590611c4b565b60405180910390fd5b610e275f611174565b565b5f805f9054906101000a900473ffffffffffffffffffffffffffffffffffffffff16905090565b610e5861116d565b73ffffffffffffffffffffffffffffffffffffffff16610e76610e29565b73ffffffffffffffffffffffffffffffffffffffff1614610ecc576040517f08c379a0000000000000000000000000000000000000000000000000000000008152600401610ec390611c4b565b60405180910390fd5b5f73ffffffffffffffffffffffffffffffffffffffff168173ffffffffffffffffffffffffffffffffffffffff1603610f3a576040517f08c379a0000000000000000000000000000000000000000000000000000000008152600401610f3190611cd9565b60405180910390fd5b610f4381611174565b50565b610f4e611235565b815f73ffffffffffffffffffffffffffffffffffffffff1660015f8373ffffffffffffffffffffffffffffffffffffffff1673ffffffffffffffffffffffffffffffffffffffff1681526020019081526020015f205f015f9054906101000a900473ffffffffffffffffffffffffffffffffffffffff1673ffffffffffffffffffffffffffffffffffffffff160361101b576040517f08c379a000000000000000000000000000000000000000000000000000000000815260040161101290611ab6565b60405180910390fd5b60015f8473ffffffffffffffffffffffffffffffffffffffff1673ffffffffffffffffffffffffffffffffffffffff1681526020019081526020015f206040518060a00160405290815f82015f9054906101000a900473ffffffffffffffffffffffffffffffffffffffff1673ffffffffffffffffffffffffffffffffffffffff1673ffffffffffffffffffffffffffffffffffffffff1681526020016001820154815260200160028201548152602001600382015481526020016004820180546110e5906116f8565b80601f0160208091040260200160405190810160405280929190818152602001828054611111906116f8565b801561115c5780601f106111335761010080835404028352916020019161115c565b820191905f5260205f20905b81548152906001019060200180831161113f57829003601f168201915b505050505081525050915050919050565b5f33905090565b5f805f9054906101000a900473ffffffffffffffffffffffffffffffffffffffff169050815f806101000a81548173ffffffffffffffffffffffffffffffffffffffff021916908373ffffffffffffffffffffffffffffffffffffffff1602179055508173ffffffffffffffffffffffffffffffffffffffff168173ffffffffffffffffffffffffffffffffffffffff167f8be0079c531659141344cd1fd0a4f28419497f9722a3daafe3b4186f6b6457e060405160405180910390a35050565b6040518060a001604052805f73ffffffffffffffffffffffffffffffffffffffff1681526020015f81526020015f81526020015f8152602001606081525090565b508054611282906116f8565b5f825580601f1061129357506112b0565b601f0160209004905f5260205f20908101906112af91906112b3565b5b50565b5b808211156112ca575f815f9055506001016112b4565b5090565b5f73ffffffffffffffffffffffffffffffffffffffff82169050919050565b5f6112f7826112ce565b9050919050565b611307816112ed565b82525050565b5f819050919050565b61131f8161130d565b82525050565b5f81519050919050565b5f82825260208201905092915050565b5f5b8381101561135c578082015181840152602081019050611341565b5f8484015250505050565b5f601f19601f8301169050919050565b5f61138182611325565b61138b818561132f565b935061139b81856020860161133f565b6113a481611367565b840191505092915050565b5f60a083015f8301516113c45f8601826112fe565b5060208301516113d76020860182611316565b5060408301516113ea6040860182611316565b5060608301516113fd6060860182611316565b50608083015184820360808601526114158282611377565b9150508091505092915050565b5f6020820190508181035f83015261143a81846113af565b905092915050565b5f604051905090565b5f80fd5b5f80fd5b61145c816112ed565b8114611466575f80fd5b50565b5f8135905061147781611453565b92915050565b5f602082840312156114925761149161144b565b5b5f61149f84828501611469565b91505092915050565b5f8115159050919050565b6114bc816114a8565b82525050565b5f6020820190506114d55f8301846114b3565b92915050565b6114e48161130d565b81146114ee575f80fd5b50565b5f813590506114ff816114db565b92915050565b5f6020828403121561151a5761151961144b565b5b5f611527848285016114f1565b91505092915050565b5f80fd5b5f80fd5b7f4e487b71000000000000000000000000000000000000000000000000000000005f52604160045260245ffd5b61156e82611367565b810181811067ffffffffffffffff8211171561158d5761158c611538565b5b80604052505050565b5f61159f611442565b90506115ab8282611565565b919050565b5f67ffffffffffffffff8211156115ca576115c9611538565b5b6115d382611367565b9050602081019050919050565b828183375f83830152505050565b5f6116006115fb846115b0565b611596565b90508281526020810184848401111561161c5761161b611534565b5b6116278482856115e0565b509392505050565b5f82601f83011261164357611642611530565b5b81356116538482602086016115ee565b91505092915050565b5f602082840312156116715761167061144b565b5b5f82013567ffffffffffffffff81111561168e5761168d61144f565b5b61169a8482850161162f565b91505092915050565b6116ac816112ed565b82525050565b5f6020820190506116c55f8301846116a3565b92915050565b7f4e487b71000000000000000000000000000000000000000000000000000000005f52602260045260245ffd5b5f600282049050600182168061170f57607f821691505b602082108103611722576117216116cb565b5b50919050565b5f819050815f5260205f209050919050565b5f6020601f8301049050919050565b5f82821b905092915050565b5f600883026117847fffffffffffffffffffffffffffffffffffffffffffffffffffffffffffffffff82611749565b61178e8683611749565b95508019841693508086168417925050509392505050565b5f819050919050565b5f6117c96117c46117bf8461130d565b6117a6565b61130d565b9050919050565b5f819050919050565b6117e2836117af565b6117f66117ee826117d0565b848454611755565b825550505050565b5f90565b61180a6117fe565b6118158184846117d9565b505050565b5b818110156118385761182d5f82611802565b60018101905061181b565b5050565b601f82111561187d5761184e81611728565b6118578461173a565b81016020851015611866578190505b61187a6118728561173a565b83018261181a565b50505b505050565b5f82821c905092915050565b5f61189d5f1984600802611882565b1980831691505092915050565b5f6118b5838361188e565b9150826002028217905092915050565b6118ce82611325565b67ffffffffffffffff8111156118e7576118e6611538565b5b6118f182546116f8565b6118fc82828561183c565b5f60209050601f83116001811461192d575f841561191b578287015190505b61192585826118aa565b86555061198c565b601f19841661193b86611728565b5f5b828110156119625784890151825560018201915060208501945060208101905061193d565b8683101561197f578489015161197b601f89168261188e565b8355505b6001600288020188555050505b505050505050565b5f82825260208201905092915050565b7f616d6f756e74206e6f7420656e6f7567680000000000000000000000000000005f82015250565b5f6119d8601183611994565b91506119e3826119a4565b602082019050919050565b5f6020820190508181035f830152611a05816119cc565b9050919050565b7f4e487b71000000000000000000000000000000000000000000000000000000005f52601160045260245ffd5b5f611a438261130d565b9150611a4e8361130d565b9250828203905081811115611a6657611a65611a0c565b5b92915050565b7f6e656564207265676973746572206669727374000000000000000000000000005f82015250565b5f611aa0601383611994565b9150611aab82611a6c565b602082019050919050565b5f6020820190508181035f830152611acd81611a94565b9050919050565b5f81549050611ae2816116f8565b9050919050565b818103611af7575050611bcc565b611b0082611ad4565b67ffffffffffffffff811115611b1957611b18611538565b5b611b2382546116f8565b611b2e82828561183c565b5f601f831160018114611b5b575f8415611b49578287015490505b611b5385826118aa565b865550611bc5565b601f198416611b6987611728565b9650611b7486611728565b5f5b82811015611b9b57848901548255600182019150600185019450602081019050611b76565b86831015611bb85784890154611bb4601f89168261188e565b8355505b6001600288020188555050505b5050505050505b565b5f611bd88261130d565b9150611be38361130d565b9250828201905080821115611bfb57611bfa611a0c565b5b92915050565b7f4f776e61626c653a2063616c6c6572206973206e6f7420746865206f776e65725f82015250565b5f611c35602083611994565b9150611c4082611c01565b602082019050919050565b5f6020820190508181035f830152611c6281611c29565b9050919050565b7f4f776e61626c653a206e6577206f776e657220697320746865207a65726f20615f8201527f6464726573730000000000000000000000000000000000000000000000000000602082015250565b5f611cc3602683611994565b9150611cce82611c69565b604082019050919050565b5f6020820190508181035f830152611cf081611cb7565b905091905056fea264697066735822122063ca88fd3cddf68f62081b3c6661b5ea6b5d628aabc3de27c61a49069de8a58964736f6c63430008150033",
  "immutableReferences": {},
  "source": "// SPDX-License-Identifier: SEE LICENSE IN LICENSE\npragma solidity ^0.8.0;\nimport \"openzeppelin-solidity/contracts/access/Ownable.sol\";\ncontract AccountFactory is Ownable {\n\n    struct accountInfo {\n        address addr;\n        uint balance;\n        uint providerBlockedFunds;\n        uint recipientBlockedFunds;\n        string info;\n    }\n    mapping (address => accountInfo) ownerToAccount;\n\n    function register() public returns (accountInfo memory accountinfo) {\n        // key\n        if (ownerToAccount[msg.sender].addr == address(0)) {\n            ownerToAccount[msg.sender] = accountInfo(msg.sender, 0, 0, 0, \"\");\n        }\n        return ownerToAccount[msg.sender];\n    }\n\n    function withdraw() public onlyOwner {\n        payable(owner()).transfer(address(this).balance);\n    }\n\n    function cancellation() public  {\n        delete(ownerToAccount[msg.sender]);\n    }\n\n    function setProviderInfo(string memory _info) public _needAccountExist(msg.sender){\n        ownerToAccount[msg.sender].info = _info;\n    }\n\n    function onlineBlockedFund(uint _stakeAmount) internal {\n        require(_stakeAmount <= ownerToAccount[msg.sender].balance, \"balance not enough! please stake\");\n        ownerToAccount[msg.sender].balance -= _stakeAmount;\n        ownerToAccount[msg.sender].providerBlockedFunds += _stakeAmount;\n    }\n\n    // \n    function stake() payable public _needAccountExist(msg.sender) {\n        accountInfo storage info = ownerToAccount[msg.sender];\n        if (info.addr == address(0)) {\n            info.addr = msg.sender;\n            info.balance = msg.value;\n            ownerToAccount[msg.sender] = info;\n            return ;\n        }\n        ownerToAccount[msg.sender].balance = ownerToAccount[msg.sender].balance + msg.value;\n    }\n\n    function unstake(uint amount) payable public {\n        accountInfo memory info = ownerToAccount[msg.sender];\n        require(info.balance >= amount, \"amount not enough\");\n        ownerToAccount[msg.sender].balance = ownerToAccount[msg.sender].balance - amount;\n        payable(msg.sender).transfer(amount);\n    }\n\n    modifier _needAccountExist(address _user) {\n        require(ownerToAccount[_user].addr != address(0), \"need register first\");\n        _;\n    }\n\n    function isRegister(address _user) public view returns(bool){\n        return ownerToAccount[_user].addr != address(0);\n    }\n\n    function getAccount(address _addr) view public _needAccountExist(_addr) returns (accountInfo memory)  {\n        return ownerToAccount[_addr];\n    }\n}",
  "sourcePath": "/Users/irongyi/solidity_project/apus_network_v0/contracts/account.sol",
  "compiler": {
    "name": "solc",
    "version": "0.8.21+commit.d9974bed.Emscripten.clang"
  },
  "schemaVersion": "3.4.15",
  "updatedAt": "2023-09-06T03:42:14.590Z",
  "devdoc": {
    "kind": "dev",
    "methods": {
      "owner()": {
        "details": "Returns the address of the current owner."
      },
      "renounceOwnership()": {
        "details": "Leaves the contract without owner. It will not be possible to call `onlyOwner` functions anymore. Can only be called by the current owner. NOTE: Renouncing ownership will leave the contract without an owner, thereby removing any functionality that is only available to the owner."
      },
      "transferOwnership(address)": {
        "details": "Transfers ownership of the contract to a new account (`newOwner`). Can only be called by the current owner."
      }
    },
    "version": 1
  },
  "userdoc": {
    "kind": "user",
    "methods": {},
    "version": 1
  }
}