{
  "contractName": "AccountFactory",
  "abi": [
    {
      "anonymous": false,
      "inputs": [
        {
          "indexed": true,
          "internalType": "address",
          "name": "previousOwner",
          "type": "address"
        },
        {
          "indexed": true,
          "internalType": "address",
          "name": "newOwner",
          "type": "address"
        }
      ],
      "name": "OwnershipTransferred",
      "type": "event"
    },
    {
      "inputs": [],
      "name": "owner",
      "outputs": [
        {
          "internalType": "address",
          "name": "",
          "type": "address"
        }
      ],
      "stateMutability": "view",
      "type": "function",
      "constant": true
    },
    {
      "inputs": [],
      "name": "renounceOwnership",
      "outputs": [],
      "stateMutability": "nonpayable",
      "type": "function"
    },
    {
      "inputs": [
        {
          "internalType": "address",
          "name": "newOwner",
          "type": "address"
        }
      ],
      "name": "transferOwnership",
      "outputs": [],
      "stateMutability": "nonpayable",
      "type": "function"
    },
    {
      "inputs": [],
      "name": "register",
      "outputs": [
        {
          "components": [
            {
              "internalType": "address",
              "name": "addr",
              "type": "address"
            },
            {
              "internalType": "uint256",
              "name": "balance",
              "type": "uint256"
            },
            {
              "internalType": "uint256",
              "name": "providerBlockedFunds",
              "type": "uint256"
            },
            {
              "internalType": "uint256",
              "name": "recipientBlockedFunds",
              "type": "uint256"
            },
            {
              "internalType": "string",
              "name": "info",
              "type": "string"
            }
          ],
          "internalType": "struct AccountFactory.accountInfo",
          "name": "accountinfo",
          "type": "tuple"
        }
      ],
      "stateMutability": "nonpayable",
      "type": "function"
    },
    {
      "inputs": [],
      "name": "withdraw",
      "outputs": [],
      "stateMutability": "nonpayable",
      "type": "function"
    },
    {
      "inputs": [],
      "name": "cancellation",
      "outputs": [],
      "stateMutability": "nonpayable",
      "type": "function"
    },
    {
      "inputs": [
        {
          "internalType": "string",
          "name": "_info",
          "type": "string"
        }
      ],
      "name": "setProviderInfo",
      "outputs": [],
      "stateMutability": "nonpayable",
      "type": "function"
    },
    {
      "inputs": [
        {
          "internalType": "address",
          "name": "user",
          "type": "address"
        },
        {
          "internalType": "uint256",
          "name": "_stakeAmount",
          "type": "uint256"
        }
      ],
      "name": "onlineBlockedFund",
      "outputs": [],
      "stateMutability": "nonpayable",
      "type": "function"
    },
    {
      "inputs": [
        {
          "internalType": "address",
          "name": "user",
          "type": "address"
        },
        {
          "internalType": "uint256",
          "name": "_stakeAmount",
          "type": "uint256"
        }
      ],
      "name": "offlineUnBlockedFund",
      "outputs": [],
      "stateMutability": "nonpayable",
      "type": "function"
    },
    {
      "inputs": [
        {
          "internalType": "address",
          "name": "user",
          "type": "address"
        },
        {
          "internalType": "uint256",
          "name": "_stakeAmount",
          "type": "uint256"
        }
      ],
      "name": "rentBlockedFund",
      "outputs": [],
      "stateMutability": "nonpayable",
      "type": "function"
    },
    {
      "inputs": [
        {
          "internalType": "address",
          "name": "_recipient",
          "type": "address"
        },
        {
          "internalType": "address",
          "name": "_provider",
          "type": "address"
        },
        {
          "internalType": "uint256",
          "name": "_stakeAmount",
          "type": "uint256"
        },
        {
          "internalType": "uint256",
          "name": "_unBlockedAmount",
          "type": "uint256"
        }
      ],
      "name": "rentUnBlockedFund",
      "outputs": [],
      "stateMutability": "nonpayable",
      "type": "function"
    },
    {
      "inputs": [],
      "name": "stake",
      "outputs": [],
      "stateMutability": "payable",
      "type": "function",
      "payable": true
    },
    {
      "inputs": [
        {
          "internalType": "uint256",
          "name": "amount",
          "type": "uint256"
        }
      ],
      "name": "unstake",
      "outputs": [],
      "stateMutability": "payable",
      "type": "function",
      "payable": true
    },
    {
      "inputs": [
        {
          "internalType": "address",
          "name": "_user",
          "type": "address"
        }
      ],
      "name": "isRegister",
      "outputs": [
        {
          "internalType": "bool",
          "name": "",
          "type": "bool"
        }
      ],
      "stateMutability": "view",
      "type": "function",
      "constant": true
    },
    {
      "inputs": [
        {
          "internalType": "address",
          "name": "_addr",
          "type": "address"
        }
      ],
      "name": "getAccount",
      "outputs": [
        {
          "components": [
            {
              "internalType": "address",
              "name": "addr",
              "type": "address"
            },
            {
              "internalType": "uint256",
              "name": "balance",
              "type": "uint256"
            },
            {
              "internalType": "uint256",
              "name": "providerBlockedFunds",
              "type": "uint256"
            },
            {
              "internalType": "uint256",
              "name": "recipientBlockedFunds",
              "type": "uint256"
            },
            {
              "internalType": "string",
              "name": "info",
              "type": "string"
            }
          ],
          "internalType": "struct AccountFactory.accountInfo",
          "name": "",
          "type": "tuple"
        }
      ],
      "stateMutability": "view",
      "type": "function",
      "constant": true
    }
  ],
  "bytecode": "0x608060405234801561000f575f80fd5b5061002c61002161003160201b60201c565b61003860201b60201c565b6100f9565b5f33905090565b5f805f9054906101000a900473ffffffffffffffffffffffffffffffffffffffff169050815f806101000a81548173ffffffffffffffffffffffffffffffffffffffff021916908373ffffffffffffffffffffffffffffffffffffffff1602179055508173ffffffffffffffffffffffffffffffffffffffff168173ffffffffffffffffffffffffffffffffffffffff167f8be0079c531659141344cd1fd0a4f28419497f9722a3daafe3b4186f6b6457e060405160405180910390a35050565b61234c80620001075f395ff3fe6080604052600436106100e7575f3560e01c80633e185b9e11610089578063b6f9978111610058578063b6f997811461025b578063c7f997d214610283578063f2fde38b146102ab578063fbcbc0f1146102d3576100e7565b80633e185b9e146101dd5780634040507814610205578063715018a61461021b5780638da5cb5b14610231576100e7565b80632e17de78116100c55780632e17de78146101795780633940ab77146101955780633a4b66f1146101bd5780633ccfd60b146101c7576100e7565b8063183bed66146100eb5780631aa3a0081461011357806322fdef941461013d575b5f80fd5b3480156100f6575f80fd5b50610111600480360381019061010c9190611881565b61030f565b005b34801561011e575f80fd5b50610127610442565b60405161013491906119da565b60405180910390f35b348015610148575f80fd5b50610163600480360381019061015e91906119fa565b61072e565b6040516101709190611a3f565b60405180910390f35b610193600480360381019061018e9190611a58565b6107c4565b005b3480156101a0575f80fd5b506101bb60048036038101906101b69190611baf565b610a30565b005b6101c5610b4f565b005b3480156101d2575f80fd5b506101db610e6d565b005b3480156101e8575f80fd5b5061020360048036038101906101fe9190611bf6565b610f36565b005b348015610210575f80fd5b50610219611049565b005b348015610226575f80fd5b5061022f6110d4565b005b34801561023c575f80fd5b5061024561115b565b6040516102529190611c69565b60405180910390f35b348015610266575f80fd5b50610281600480360381019061027c9190611881565b611182565b005b34801561028e575f80fd5b506102a960048036038101906102a49190611881565b611232565b005b3480156102b6575f80fd5b506102d160048036038101906102cc91906119fa565b611365565b005b3480156102de575f80fd5b506102f960048036038101906102f491906119fa565b61145b565b60405161030691906119da565b60405180910390f35b60015f8373ffffffffffffffffffffffffffffffffffffffff1673ffffffffffffffffffffffffffffffffffffffff1681526020019081526020015f2060010154811115610392576040517f08c379a000000000000000000000000000000000000000000000000000000000815260040161038990611cdc565b60405180910390fd5b8060015f8473ffffffffffffffffffffffffffffffffffffffff1673ffffffffffffffffffffffffffffffffffffffff1681526020019081526020015f206001015f8282546103e19190611d27565b925050819055508060015f8473ffffffffffffffffffffffffffffffffffffffff1673ffffffffffffffffffffffffffffffffffffffff1681526020019081526020015f206002015f8282546104379190611d5a565b925050819055505050565b61044a61174a565b5f73ffffffffffffffffffffffffffffffffffffffff1660015f3373ffffffffffffffffffffffffffffffffffffffff1673ffffffffffffffffffffffffffffffffffffffff1681526020019081526020015f205f015f9054906101000a900473ffffffffffffffffffffffffffffffffffffffff1673ffffffffffffffffffffffffffffffffffffffff16036105df576040518060a001604052803373ffffffffffffffffffffffffffffffffffffffff1681526020015f81526020015f81526020015f815260200160405180602001604052805f81525081525060015f3373ffffffffffffffffffffffffffffffffffffffff1673ffffffffffffffffffffffffffffffffffffffff1681526020019081526020015f205f820151815f015f6101000a81548173ffffffffffffffffffffffffffffffffffffffff021916908373ffffffffffffffffffffffffffffffffffffffff16021790555060208201518160010155604082015181600201556060820151816003015560808201518160040190816105da9190611f87565b509050505b60015f3373ffffffffffffffffffffffffffffffffffffffff1673ffffffffffffffffffffffffffffffffffffffff1681526020019081526020015f206040518060a00160405290815f82015f9054906101000a900473ffffffffffffffffffffffffffffffffffffffff1673ffffffffffffffffffffffffffffffffffffffff1673ffffffffffffffffffffffffffffffffffffffff1681526020016001820154815260200160028201548152602001600382015481526020016004820180546106a990611dba565b80601f01602080910402602001604051908101604052809291908181526020018280546106d590611dba565b80156107205780601f106106f757610100808354040283529160200191610720565b820191905f5260205f20905b81548152906001019060200180831161070357829003601f168201915b505050505081525050905090565b5f8073ffffffffffffffffffffffffffffffffffffffff1660015f8473ffffffffffffffffffffffffffffffffffffffff1673ffffffffffffffffffffffffffffffffffffffff1681526020019081526020015f205f015f9054906101000a900473ffffffffffffffffffffffffffffffffffffffff1673ffffffffffffffffffffffffffffffffffffffff1614159050919050565b5f60015f3373ffffffffffffffffffffffffffffffffffffffff1673ffffffffffffffffffffffffffffffffffffffff1681526020019081526020015f206040518060a00160405290815f82015f9054906101000a900473ffffffffffffffffffffffffffffffffffffffff1673ffffffffffffffffffffffffffffffffffffffff1673ffffffffffffffffffffffffffffffffffffffff16815260200160018201548152602001600282015481526020016003820154815260200160048201805461088f90611dba565b80601f01602080910402602001604051908101604052809291908181526020018280546108bb90611dba565b80156109065780601f106108dd57610100808354040283529160200191610906565b820191905f5260205f20905b8154815290600101906020018083116108e957829003601f168201915b50505050508152505090508181602001511015610958576040517f08c379a000000000000000000000000000000000000000000000000000000000815260040161094f906120a0565b60405180910390fd5b8160015f3373ffffffffffffffffffffffffffffffffffffffff1673ffffffffffffffffffffffffffffffffffffffff1681526020019081526020015f20600101546109a49190611d27565b60015f3373ffffffffffffffffffffffffffffffffffffffff1673ffffffffffffffffffffffffffffffffffffffff1681526020019081526020015f20600101819055503373ffffffffffffffffffffffffffffffffffffffff166108fc8390811502906040515f60405180830381858888f19350505050158015610a2b573d5f803e3d5ffd5b505050565b335f73ffffffffffffffffffffffffffffffffffffffff1660015f8373ffffffffffffffffffffffffffffffffffffffff1673ffffffffffffffffffffffffffffffffffffffff1681526020019081526020015f205f015f9054906101000a900473ffffffffffffffffffffffffffffffffffffffff1673ffffffffffffffffffffffffffffffffffffffff1603610afd576040517f08c379a0000000000000000000000000000000000000000000000000000000008152600401610af490612108565b60405180910390fd5b8160015f3373ffffffffffffffffffffffffffffffffffffffff1673ffffffffffffffffffffffffffffffffffffffff1681526020019081526020015f206004019081610b4a9190611f87565b505050565b335f73ffffffffffffffffffffffffffffffffffffffff1660015f8373ffffffffffffffffffffffffffffffffffffffff1673ffffffffffffffffffffffffffffffffffffffff1681526020019081526020015f205f015f9054906101000a900473ffffffffffffffffffffffffffffffffffffffff1673ffffffffffffffffffffffffffffffffffffffff1603610c1c576040517f08c379a0000000000000000000000000000000000000000000000000000000008152600401610c1390612108565b60405180910390fd5b5f60015f3373ffffffffffffffffffffffffffffffffffffffff1673ffffffffffffffffffffffffffffffffffffffff1681526020019081526020015f2090505f73ffffffffffffffffffffffffffffffffffffffff16815f015f9054906101000a900473ffffffffffffffffffffffffffffffffffffffff1673ffffffffffffffffffffffffffffffffffffffff1603610dd85733815f015f6101000a81548173ffffffffffffffffffffffffffffffffffffffff021916908373ffffffffffffffffffffffffffffffffffffffff1602179055503481600101819055508060015f3373ffffffffffffffffffffffffffffffffffffffff1673ffffffffffffffffffffffffffffffffffffffff1681526020019081526020015f205f82015f9054906101000a900473ffffffffffffffffffffffffffffffffffffffff16815f015f6101000a81548173ffffffffffffffffffffffffffffffffffffffff021916908373ffffffffffffffffffffffffffffffffffffffff16021790555060018201548160010155600282015481600201556003820154816003015560048201816004019081610dce919061213b565b5090505050610e6a565b3460015f3373ffffffffffffffffffffffffffffffffffffffff1673ffffffffffffffffffffffffffffffffffffffff1681526020019081526020015f2060010154610e249190611d5a565b60015f3373ffffffffffffffffffffffffffffffffffffffff1673ffffffffffffffffffffffffffffffffffffffff1681526020019081526020015f2060010181905550505b50565b610e75611682565b73ffffffffffffffffffffffffffffffffffffffff16610e9361115b565b73ffffffffffffffffffffffffffffffffffffffff1614610ee9576040517f08c379a0000000000000000000000000000000000000000000000000000000008152600401610ee09061226a565b60405180910390fd5b610ef161115b565b73ffffffffffffffffffffffffffffffffffffffff166108fc4790811502906040515f60405180830381858888f19350505050158015610f33573d5f803e3d5ffd5b50565b8082610f429190611d5a565b60015f8673ffffffffffffffffffffffffffffffffffffffff1673ffffffffffffffffffffffffffffffffffffffff1681526020019081526020015f206003015f828254610f909190611d27565b925050819055508060015f8673ffffffffffffffffffffffffffffffffffffffff1673ffffffffffffffffffffffffffffffffffffffff1681526020019081526020015f206001015f828254610fe69190611d5a565b925050819055508160015f8573ffffffffffffffffffffffffffffffffffffffff1673ffffffffffffffffffffffffffffffffffffffff1681526020019081526020015f206001015f82825461103c9190611d5a565b9250508190555050505050565b60015f3373ffffffffffffffffffffffffffffffffffffffff1673ffffffffffffffffffffffffffffffffffffffff1681526020019081526020015f205f8082015f6101000a81549073ffffffffffffffffffffffffffffffffffffffff0219169055600182015f9055600282015f9055600382015f9055600482015f6110d0919061178b565b5050565b6110dc611682565b73ffffffffffffffffffffffffffffffffffffffff166110fa61115b565b73ffffffffffffffffffffffffffffffffffffffff1614611150576040517f08c379a00000000000000000000000000000000000000000000000000000000081526004016111479061226a565b60405180910390fd5b6111595f611689565b565b5f805f9054906101000a900473ffffffffffffffffffffffffffffffffffffffff16905090565b8060015f8473ffffffffffffffffffffffffffffffffffffffff1673ffffffffffffffffffffffffffffffffffffffff1681526020019081526020015f206001015f8282546111d19190611d5a565b925050819055508060015f8473ffffffffffffffffffffffffffffffffffffffff1673ffffffffffffffffffffffffffffffffffffffff1681526020019081526020015f206002015f8282546112279190611d27565b925050819055505050565b60015f8373ffffffffffffffffffffffffffffffffffffffff1673ffffffffffffffffffffffffffffffffffffffff1681526020019081526020015f20600101548111156112b5576040517f08c379a00000000000000000000000000000000000000000000000000000000081526004016112ac90611cdc565b60405180910390fd5b8060015f8473ffffffffffffffffffffffffffffffffffffffff1673ffffffffffffffffffffffffffffffffffffffff1681526020019081526020015f206001015f8282546113049190611d27565b925050819055508060015f8473ffffffffffffffffffffffffffffffffffffffff1673ffffffffffffffffffffffffffffffffffffffff1681526020019081526020015f206003015f82825461135a9190611d5a565b925050819055505050565b61136d611682565b73ffffffffffffffffffffffffffffffffffffffff1661138b61115b565b73ffffffffffffffffffffffffffffffffffffffff16146113e1576040517f08c379a00000000000000000000000000000000000000000000000000000000081526004016113d89061226a565b60405180910390fd5b5f73ffffffffffffffffffffffffffffffffffffffff168173ffffffffffffffffffffffffffffffffffffffff160361144f576040517f08c379a0000000000000000000000000000000000000000000000000000000008152600401611446906122f8565b60405180910390fd5b61145881611689565b50565b61146361174a565b815f73ffffffffffffffffffffffffffffffffffffffff1660015f8373ffffffffffffffffffffffffffffffffffffffff1673ffffffffffffffffffffffffffffffffffffffff1681526020019081526020015f205f015f9054906101000a900473ffffffffffffffffffffffffffffffffffffffff1673ffffffffffffffffffffffffffffffffffffffff1603611530576040517f08c379a000000000000000000000000000000000000000000000000000000000815260040161152790612108565b60405180910390fd5b60015f8473ffffffffffffffffffffffffffffffffffffffff1673ffffffffffffffffffffffffffffffffffffffff1681526020019081526020015f206040518060a00160405290815f82015f9054906101000a900473ffffffffffffffffffffffffffffffffffffffff1673ffffffffffffffffffffffffffffffffffffffff1673ffffffffffffffffffffffffffffffffffffffff1681526020016001820154815260200160028201548152602001600382015481526020016004820180546115fa90611dba565b80601f016020809104026020016040519081016040528092919081815260200182805461162690611dba565b80156116715780601f1061164857610100808354040283529160200191611671565b820191905f5260205f20905b81548152906001019060200180831161165457829003601f168201915b505050505081525050915050919050565b5f33905090565b5f805f9054906101000a900473ffffffffffffffffffffffffffffffffffffffff169050815f806101000a81548173ffffffffffffffffffffffffffffffffffffffff021916908373ffffffffffffffffffffffffffffffffffffffff1602179055508173ffffffffffffffffffffffffffffffffffffffff168173ffffffffffffffffffffffffffffffffffffffff167f8be0079c531659141344cd1fd0a4f28419497f9722a3daafe3b4186f6b6457e060405160405180910390a35050565b6040518060a001604052805f73ffffffffffffffffffffffffffffffffffffffff1681526020015f81526020015f81526020015f8152602001606081525090565b50805461179790611dba565b5f825580601f106117a857506117c5565b601f0160209004905f5260205f20908101906117c491906117c8565b5b50565b5b808211156117df575f815f9055506001016117c9565b5090565b5f604051905090565b5f80fd5b5f80fd5b5f73ffffffffffffffffffffffffffffffffffffffff82169050919050565b5f61181d826117f4565b9050919050565b61182d81611813565b8114611837575f80fd5b50565b5f8135905061184881611824565b92915050565b5f819050919050565b6118608161184e565b811461186a575f80fd5b50565b5f8135905061187b81611857565b92915050565b5f8060408385031215611897576118966117ec565b5b5f6118a48582860161183a565b92505060206118b58582860161186d565b9150509250929050565b6118c881611813565b82525050565b6118d78161184e565b82525050565b5f81519050919050565b5f82825260208201905092915050565b5f5b838110156119145780820151818401526020810190506118f9565b5f8484015250505050565b5f601f19601f8301169050919050565b5f611939826118dd565b61194381856118e7565b93506119538185602086016118f7565b61195c8161191f565b840191505092915050565b5f60a083015f83015161197c5f8601826118bf565b50602083015161198f60208601826118ce565b5060408301516119a260408601826118ce565b5060608301516119b560608601826118ce565b50608083015184820360808601526119cd828261192f565b9150508091505092915050565b5f6020820190508181035f8301526119f28184611967565b905092915050565b5f60208284031215611a0f57611a0e6117ec565b5b5f611a1c8482850161183a565b91505092915050565b5f8115159050919050565b611a3981611a25565b82525050565b5f602082019050611a525f830184611a30565b92915050565b5f60208284031215611a6d57611a6c6117ec565b5b5f611a7a8482850161186d565b91505092915050565b5f80fd5b5f80fd5b7f4e487b71000000000000000000000000000000000000000000000000000000005f52604160045260245ffd5b611ac18261191f565b810181811067ffffffffffffffff82111715611ae057611adf611a8b565b5b80604052505050565b5f611af26117e3565b9050611afe8282611ab8565b919050565b5f67ffffffffffffffff821115611b1d57611b1c611a8b565b5b611b268261191f565b9050602081019050919050565b828183375f83830152505050565b5f611b53611b4e84611b03565b611ae9565b905082815260208101848484011115611b6f57611b6e611a87565b5b611b7a848285611b33565b509392505050565b5f82601f830112611b9657611b95611a83565b5b8135611ba6848260208601611b41565b91505092915050565b5f60208284031215611bc457611bc36117ec565b5b5f82013567ffffffffffffffff811115611be157611be06117f0565b5b611bed84828501611b82565b91505092915050565b5f805f8060808587031215611c0e57611c0d6117ec565b5b5f611c1b8782880161183a565b9450506020611c2c8782880161183a565b9350506040611c3d8782880161186d565b9250506060611c4e8782880161186d565b91505092959194509250565b611c6381611813565b82525050565b5f602082019050611c7c5f830184611c5a565b92915050565b5f82825260208201905092915050565b7f62616c616e6365206e6f7420656e6f7567682120706c65617365207374616b655f82015250565b5f611cc6602083611c82565b9150611cd182611c92565b602082019050919050565b5f6020820190508181035f830152611cf381611cba565b9050919050565b7f4e487b71000000000000000000000000000000000000000000000000000000005f52601160045260245ffd5b5f611d318261184e565b9150611d3c8361184e565b9250828203905081811115611d5457611d53611cfa565b5b92915050565b5f611d648261184e565b9150611d6f8361184e565b9250828201905080821115611d8757611d86611cfa565b5b92915050565b7f4e487b71000000000000000000000000000000000000000000000000000000005f52602260045260245ffd5b5f6002820490506001821680611dd157607f821691505b602082108103611de457611de3611d8d565b5b50919050565b5f819050815f5260205f209050919050565b5f6020601f8301049050919050565b5f82821b905092915050565b5f60088302611e467fffffffffffffffffffffffffffffffffffffffffffffffffffffffffffffffff82611e0b565b611e508683611e0b565b95508019841693508086168417925050509392505050565b5f819050919050565b5f611e8b611e86611e818461184e565b611e68565b61184e565b9050919050565b5f819050919050565b611ea483611e71565b611eb8611eb082611e92565b848454611e17565b825550505050565b5f90565b611ecc611ec0565b611ed7818484611e9b565b505050565b5b81811015611efa57611eef5f82611ec4565b600181019050611edd565b5050565b601f821115611f3f57611f1081611dea565b611f1984611dfc565b81016020851015611f28578190505b611f3c611f3485611dfc565b830182611edc565b50505b505050565b5f82821c905092915050565b5f611f5f5f1984600802611f44565b1980831691505092915050565b5f611f778383611f50565b9150826002028217905092915050565b611f90826118dd565b67ffffffffffffffff811115611fa957611fa8611a8b565b5b611fb38254611dba565b611fbe828285611efe565b5f60209050601f831160018114611fef575f8415611fdd578287015190505b611fe78582611f6c565b86555061204e565b601f198416611ffd86611dea565b5f5b8281101561202457848901518255600182019150602085019450602081019050611fff565b86831015612041578489015161203d601f891682611f50565b8355505b6001600288020188555050505b505050505050565b7f616d6f756e74206e6f7420656e6f7567680000000000000000000000000000005f82015250565b5f61208a601183611c82565b915061209582612056565b602082019050919050565b5f6020820190508181035f8301526120b78161207e565b9050919050565b7f6e656564207265676973746572206669727374000000000000000000000000005f82015250565b5f6120f2601383611c82565b91506120fd826120be565b602082019050919050565b5f6020820190508181035f83015261211f816120e6565b9050919050565b5f8154905061213481611dba565b9050919050565b81810361214957505061221e565b61215282612126565b67ffffffffffffffff81111561216b5761216a611a8b565b5b6121758254611dba565b612180828285611efe565b5f601f8311600181146121ad575f841561219b578287015490505b6121a58582611f6c565b865550612217565b601f1984166121bb87611dea565b96506121c686611dea565b5f5b828110156121ed578489015482556001820191506001850194506020810190506121c8565b8683101561220a5784890154612206601f891682611f50565b8355505b6001600288020188555050505b5050505050505b565b7f4f776e61626c653a2063616c6c6572206973206e6f7420746865206f776e65725f82015250565b5f612254602083611c82565b915061225f82612220565b602082019050919050565b5f6020820190508181035f83015261228181612248565b9050919050565b7f4f776e61626c653a206e6577206f776e657220697320746865207a65726f20615f8201527f6464726573730000000000000000000000000000000000000000000000000000602082015250565b5f6122e2602683611c82565b91506122ed82612288565b604082019050919050565b5f6020820190508181035f83015261230f816122d6565b905091905056fea26469706673582212201f0ab8a3c6a854a1502314feb854e6742af48af09bc82d5c581555f89d0c81a364736f6c63430008150033",
  "immutableReferences": {},
  "source": "// SPDX-License-Identifier: SEE LICENSE IN LICENSE\npragma solidity ^0.8.0;\nimport \"openzeppelin-solidity/contracts/access/Ownable.sol\";\ncontract AccountFactory is Ownable {\n\n    struct accountInfo {\n        address addr;\n        uint balance;\n        uint providerBlockedFunds;\n        uint recipientBlockedFunds;\n        string info;\n    }\n    mapping (address => accountInfo) ownerToAccount;\n\n    function register() public returns (accountInfo memory accountinfo) {\n        // key\n        if (ownerToAccount[msg.sender].addr == address(0)) {\n            ownerToAccount[msg.sender] = accountInfo(msg.sender, 0, 0, 0, \"\");\n        }\n        return ownerToAccount[msg.sender];\n    }\n\n    function withdraw() public onlyOwner {\n        payable(owner()).transfer(address(this).balance);\n    }\n\n    function cancellation() public  {\n        delete(ownerToAccount[msg.sender]);\n    }\n\n    function setProviderInfo(string memory _info) public _needAccountExist(msg.sender){\n        ownerToAccount[msg.sender].info = _info;\n    }\n\n    function onlineBlockedFund(address user, uint _stakeAmount) public {\n        require(_stakeAmount <= ownerToAccount[user].balance, \"balance not enough! please stake\");\n        ownerToAccount[user].balance -= _stakeAmount;\n        ownerToAccount[user].providerBlockedFunds += _stakeAmount;\n    }\n\n    function offlineUnBlockedFund(address user, uint _stakeAmount) public {\n        ownerToAccount[user].balance += _stakeAmount;\n        ownerToAccount[user].providerBlockedFunds -= _stakeAmount;\n    }\n\n    function rentBlockedFund(address user, uint _stakeAmount) public {\n        require(_stakeAmount <= ownerToAccount[user].balance, \"balance not enough! please stake\");\n        ownerToAccount[user].balance -= _stakeAmount;\n        ownerToAccount[user].recipientBlockedFunds += _stakeAmount;\n    }\n\n    function rentUnBlockedFund(address _recipient, address _provider, uint _stakeAmount, uint _unBlockedAmount) public {\n        ownerToAccount[_recipient].recipientBlockedFunds -= _stakeAmount + _unBlockedAmount;\n        ownerToAccount[_recipient].balance += _unBlockedAmount;\n\n        ownerToAccount[_provider].balance += _stakeAmount;\n    }\n\n    // \n    function stake() payable public _needAccountExist(msg.sender) {\n        accountInfo storage info = ownerToAccount[msg.sender];\n        if (info.addr == address(0)) {\n            info.addr = msg.sender;\n            info.balance = msg.value;\n            ownerToAccount[msg.sender] = info;\n            return ;\n        }\n        ownerToAccount[msg.sender].balance = ownerToAccount[msg.sender].balance + msg.value;\n    }\n\n    function unstake(uint amount) payable public {\n        accountInfo memory info = ownerToAccount[msg.sender];\n        require(info.balance >= amount, \"amount not enough\");\n        ownerToAccount[msg.sender].balance = ownerToAccount[msg.sender].balance - amount;\n        payable(msg.sender).transfer(amount);\n    }\n\n    modifier _needAccountExist(address _user) {\n        require(ownerToAccount[_user].addr != address(0), \"need register first\");\n        _;\n    }\n\n    function isRegister(address _user) public view returns(bool){\n        return ownerToAccount[_user].addr != address(0);\n    }\n\n    function getAccount(address _addr) view public _needAccountExist(_addr) returns (accountInfo memory)  {\n        return ownerToAccount[_addr];\n    }\n}",
  "sourcePath": "/Users/irongyi/solidity_project/apus_network_v0/contracts/account.sol",
  "compiler": {
    "name": "solc",
    "version": "0.8.21+commit.d9974bed.Emscripten.clang"
  },
  "schemaVersion": "3.4.15",
  "updatedAt": "2023-09-07T03:49:43.461Z",
  "networkType": "ethereum",
  "devdoc": {
    "kind": "dev",
    "methods": {
      "owner()": {
        "details": "Returns the address of the current owner."
      },
      "renounceOwnership()": {
        "details": "Leaves the contract without owner. It will not be possible to call `onlyOwner` functions anymore. Can only be called by the current owner. NOTE: Renouncing ownership will leave the contract without an owner, thereby removing any functionality that is only available to the owner."
      },
      "transferOwnership(address)": {
        "details": "Transfers ownership of the contract to a new account (`newOwner`). Can only be called by the current owner."
      }
    },
    "version": 1
  },
  "userdoc": {
    "kind": "user",
    "methods": {},
    "version": 1
  }
}