{
  "contractName": "AccountFactory",
  "abi": [
    {
      "anonymous": false,
      "inputs": [
        {
          "indexed": true,
          "internalType": "address",
          "name": "previousOwner",
          "type": "address"
        },
        {
          "indexed": true,
          "internalType": "address",
          "name": "newOwner",
          "type": "address"
        }
      ],
      "name": "OwnershipTransferred",
      "type": "event"
    },
    {
      "inputs": [],
      "name": "owner",
      "outputs": [
        {
          "internalType": "address",
          "name": "",
          "type": "address"
        }
      ],
      "stateMutability": "view",
      "type": "function"
    },
    {
      "inputs": [],
      "name": "renounceOwnership",
      "outputs": [],
      "stateMutability": "nonpayable",
      "type": "function"
    },
    {
      "inputs": [
        {
          "internalType": "address",
          "name": "newOwner",
          "type": "address"
        }
      ],
      "name": "transferOwnership",
      "outputs": [],
      "stateMutability": "nonpayable",
      "type": "function"
    },
    {
      "inputs": [],
      "name": "register",
      "outputs": [
        {
          "components": [
            {
              "internalType": "address",
              "name": "addr",
              "type": "address"
            },
            {
              "internalType": "uint256",
              "name": "balance",
              "type": "uint256"
            },
            {
              "internalType": "uint256",
              "name": "providerBlockedFunds",
              "type": "uint256"
            },
            {
              "internalType": "uint256",
              "name": "recipientBlockedFunds",
              "type": "uint256"
            },
            {
              "internalType": "string",
              "name": "info",
              "type": "string"
            }
          ],
          "internalType": "struct AccountFactory.accountInfo",
          "name": "accountinfo",
          "type": "tuple"
        }
      ],
      "stateMutability": "nonpayable",
      "type": "function"
    },
    {
      "inputs": [],
      "name": "withdraw",
      "outputs": [],
      "stateMutability": "nonpayable",
      "type": "function"
    },
    {
      "inputs": [],
      "name": "cancellation",
      "outputs": [],
      "stateMutability": "nonpayable",
      "type": "function"
    },
    {
      "inputs": [
        {
          "internalType": "string",
          "name": "_info",
          "type": "string"
        }
      ],
      "name": "setProviderInfo",
      "outputs": [],
      "stateMutability": "nonpayable",
      "type": "function"
    },
    {
      "inputs": [],
      "name": "stake",
      "outputs": [],
      "stateMutability": "payable",
      "type": "function"
    },
    {
      "inputs": [
        {
          "internalType": "uint256",
          "name": "amount",
          "type": "uint256"
        }
      ],
      "name": "unstake",
      "outputs": [],
      "stateMutability": "payable",
      "type": "function"
    },
    {
      "inputs": [
        {
          "internalType": "address",
          "name": "_addr",
          "type": "address"
        }
      ],
      "name": "getAccount",
      "outputs": [
        {
          "components": [
            {
              "internalType": "address",
              "name": "addr",
              "type": "address"
            },
            {
              "internalType": "uint256",
              "name": "balance",
              "type": "uint256"
            },
            {
              "internalType": "uint256",
              "name": "providerBlockedFunds",
              "type": "uint256"
            },
            {
              "internalType": "uint256",
              "name": "recipientBlockedFunds",
              "type": "uint256"
            },
            {
              "internalType": "string",
              "name": "info",
              "type": "string"
            }
          ],
          "internalType": "struct AccountFactory.accountInfo",
          "name": "",
          "type": "tuple"
        }
      ],
      "stateMutability": "view",
      "type": "function"
    }
  ],
  "bytecode": "0x608060405234801561000f575f80fd5b5061002c61002161003160201b60201c565b61003860201b60201c565b6100f9565b5f33905090565b5f805f9054906101000a900473ffffffffffffffffffffffffffffffffffffffff169050815f806101000a81548173ffffffffffffffffffffffffffffffffffffffff021916908373ffffffffffffffffffffffffffffffffffffffff1602179055508173ffffffffffffffffffffffffffffffffffffffff168173ffffffffffffffffffffffffffffffffffffffff167f8be0079c531659141344cd1fd0a4f28419497f9722a3daafe3b4186f6b6457e060405160405180910390a35050565b611c1d806101065f395ff3fe608060405260043610610090575f3560e01c806340405078116100585780634040507814610122578063715018a6146101385780638da5cb5b1461014e578063f2fde38b14610178578063fbcbc0f1146101a057610090565b80631aa3a008146100945780632e17de78146100be5780633940ab77146100da5780633a4b66f1146101025780633ccfd60b1461010c575b5f80fd5b34801561009f575f80fd5b506100a86101dc565b6040516100b59190611345565b60405180910390f35b6100d860048036038101906100d391906113a0565b6104c8565b005b3480156100e5575f80fd5b5061010060048036038101906100fb91906114f7565b610734565b005b61010a610853565b005b348015610117575f80fd5b50610120610b71565b005b34801561012d575f80fd5b50610136610c3a565b005b348015610143575f80fd5b5061014c610cc5565b005b348015610159575f80fd5b50610162610d4c565b60405161016f919061154d565b60405180910390f35b348015610183575f80fd5b5061019e60048036038101906101999190611590565b610d73565b005b3480156101ab575f80fd5b506101c660048036038101906101c19190611590565b610e69565b6040516101d39190611345565b60405180910390f35b6101e4611158565b5f73ffffffffffffffffffffffffffffffffffffffff1660015f3373ffffffffffffffffffffffffffffffffffffffff1673ffffffffffffffffffffffffffffffffffffffff1681526020019081526020015f205f015f9054906101000a900473ffffffffffffffffffffffffffffffffffffffff1673ffffffffffffffffffffffffffffffffffffffff1603610379576040518060a001604052803373ffffffffffffffffffffffffffffffffffffffff1681526020015f81526020015f81526020015f815260200160405180602001604052805f81525081525060015f3373ffffffffffffffffffffffffffffffffffffffff1673ffffffffffffffffffffffffffffffffffffffff1681526020019081526020015f205f820151815f015f6101000a81548173ffffffffffffffffffffffffffffffffffffffff021916908373ffffffffffffffffffffffffffffffffffffffff160217905550602082015181600101556040820151816002015560608201518160030155608082015181600401908161037491906117b5565b509050505b60015f3373ffffffffffffffffffffffffffffffffffffffff1673ffffffffffffffffffffffffffffffffffffffff1681526020019081526020015f206040518060a00160405290815f82015f9054906101000a900473ffffffffffffffffffffffffffffffffffffffff1673ffffffffffffffffffffffffffffffffffffffff1673ffffffffffffffffffffffffffffffffffffffff168152602001600182015481526020016002820154815260200160038201548152602001600482018054610443906115e8565b80601f016020809104026020016040519081016040528092919081815260200182805461046f906115e8565b80156104ba5780601f10610491576101008083540402835291602001916104ba565b820191905f5260205f20905b81548152906001019060200180831161049d57829003601f168201915b505050505081525050905090565b5f60015f3373ffffffffffffffffffffffffffffffffffffffff1673ffffffffffffffffffffffffffffffffffffffff1681526020019081526020015f206040518060a00160405290815f82015f9054906101000a900473ffffffffffffffffffffffffffffffffffffffff1673ffffffffffffffffffffffffffffffffffffffff1673ffffffffffffffffffffffffffffffffffffffff168152602001600182015481526020016002820154815260200160038201548152602001600482018054610593906115e8565b80601f01602080910402602001604051908101604052809291908181526020018280546105bf906115e8565b801561060a5780601f106105e15761010080835404028352916020019161060a565b820191905f5260205f20905b8154815290600101906020018083116105ed57829003601f168201915b5050505050815250509050818160200151101561065c576040517f08c379a0000000000000000000000000000000000000000000000000000000008152600401610653906118de565b60405180910390fd5b8160015f3373ffffffffffffffffffffffffffffffffffffffff1673ffffffffffffffffffffffffffffffffffffffff1681526020019081526020015f20600101546106a89190611929565b60015f3373ffffffffffffffffffffffffffffffffffffffff1673ffffffffffffffffffffffffffffffffffffffff1681526020019081526020015f20600101819055503373ffffffffffffffffffffffffffffffffffffffff166108fc8390811502906040515f60405180830381858888f1935050505015801561072f573d5f803e3d5ffd5b505050565b335f73ffffffffffffffffffffffffffffffffffffffff1660015f8373ffffffffffffffffffffffffffffffffffffffff1673ffffffffffffffffffffffffffffffffffffffff1681526020019081526020015f205f015f9054906101000a900473ffffffffffffffffffffffffffffffffffffffff1673ffffffffffffffffffffffffffffffffffffffff1603610801576040517f08c379a00000000000000000000000000000000000000000000000000000000081526004016107f8906119a6565b60405180910390fd5b8160015f3373ffffffffffffffffffffffffffffffffffffffff1673ffffffffffffffffffffffffffffffffffffffff1681526020019081526020015f20600401908161084e91906117b5565b505050565b335f73ffffffffffffffffffffffffffffffffffffffff1660015f8373ffffffffffffffffffffffffffffffffffffffff1673ffffffffffffffffffffffffffffffffffffffff1681526020019081526020015f205f015f9054906101000a900473ffffffffffffffffffffffffffffffffffffffff1673ffffffffffffffffffffffffffffffffffffffff1603610920576040517f08c379a0000000000000000000000000000000000000000000000000000000008152600401610917906119a6565b60405180910390fd5b5f60015f3373ffffffffffffffffffffffffffffffffffffffff1673ffffffffffffffffffffffffffffffffffffffff1681526020019081526020015f2090505f73ffffffffffffffffffffffffffffffffffffffff16815f015f9054906101000a900473ffffffffffffffffffffffffffffffffffffffff1673ffffffffffffffffffffffffffffffffffffffff1603610adc5733815f015f6101000a81548173ffffffffffffffffffffffffffffffffffffffff021916908373ffffffffffffffffffffffffffffffffffffffff1602179055503481600101819055508060015f3373ffffffffffffffffffffffffffffffffffffffff1673ffffffffffffffffffffffffffffffffffffffff1681526020019081526020015f205f82015f9054906101000a900473ffffffffffffffffffffffffffffffffffffffff16815f015f6101000a81548173ffffffffffffffffffffffffffffffffffffffff021916908373ffffffffffffffffffffffffffffffffffffffff16021790555060018201548160010155600282015481600201556003820154816003015560048201816004019081610ad291906119d9565b5090505050610b6e565b3460015f3373ffffffffffffffffffffffffffffffffffffffff1673ffffffffffffffffffffffffffffffffffffffff1681526020019081526020015f2060010154610b289190611abe565b60015f3373ffffffffffffffffffffffffffffffffffffffff1673ffffffffffffffffffffffffffffffffffffffff1681526020019081526020015f2060010181905550505b50565b610b79611090565b73ffffffffffffffffffffffffffffffffffffffff16610b97610d4c565b73ffffffffffffffffffffffffffffffffffffffff1614610bed576040517f08c379a0000000000000000000000000000000000000000000000000000000008152600401610be490611b3b565b60405180910390fd5b610bf5610d4c565b73ffffffffffffffffffffffffffffffffffffffff166108fc4790811502906040515f60405180830381858888f19350505050158015610c37573d5f803e3d5ffd5b50565b60015f3373ffffffffffffffffffffffffffffffffffffffff1673ffffffffffffffffffffffffffffffffffffffff1681526020019081526020015f205f8082015f6101000a81549073ffffffffffffffffffffffffffffffffffffffff0219169055600182015f9055600282015f9055600382015f9055600482015f610cc19190611199565b5050565b610ccd611090565b73ffffffffffffffffffffffffffffffffffffffff16610ceb610d4c565b73ffffffffffffffffffffffffffffffffffffffff1614610d41576040517f08c379a0000000000000000000000000000000000000000000000000000000008152600401610d3890611b3b565b60405180910390fd5b610d4a5f611097565b565b5f805f9054906101000a900473ffffffffffffffffffffffffffffffffffffffff16905090565b610d7b611090565b73ffffffffffffffffffffffffffffffffffffffff16610d99610d4c565b73ffffffffffffffffffffffffffffffffffffffff1614610def576040517f08c379a0000000000000000000000000000000000000000000000000000000008152600401610de690611b3b565b60405180910390fd5b5f73ffffffffffffffffffffffffffffffffffffffff168173ffffffffffffffffffffffffffffffffffffffff1603610e5d576040517f08c379a0000000000000000000000000000000000000000000000000000000008152600401610e5490611bc9565b60405180910390fd5b610e6681611097565b50565b610e71611158565b815f73ffffffffffffffffffffffffffffffffffffffff1660015f8373ffffffffffffffffffffffffffffffffffffffff1673ffffffffffffffffffffffffffffffffffffffff1681526020019081526020015f205f015f9054906101000a900473ffffffffffffffffffffffffffffffffffffffff1673ffffffffffffffffffffffffffffffffffffffff1603610f3e576040517f08c379a0000000000000000000000000000000000000000000000000000000008152600401610f35906119a6565b60405180910390fd5b60015f8473ffffffffffffffffffffffffffffffffffffffff1673ffffffffffffffffffffffffffffffffffffffff1681526020019081526020015f206040518060a00160405290815f82015f9054906101000a900473ffffffffffffffffffffffffffffffffffffffff1673ffffffffffffffffffffffffffffffffffffffff1673ffffffffffffffffffffffffffffffffffffffff168152602001600182015481526020016002820154815260200160038201548152602001600482018054611008906115e8565b80601f0160208091040260200160405190810160405280929190818152602001828054611034906115e8565b801561107f5780601f106110565761010080835404028352916020019161107f565b820191905f5260205f20905b81548152906001019060200180831161106257829003601f168201915b505050505081525050915050919050565b5f33905090565b5f805f9054906101000a900473ffffffffffffffffffffffffffffffffffffffff169050815f806101000a81548173ffffffffffffffffffffffffffffffffffffffff021916908373ffffffffffffffffffffffffffffffffffffffff1602179055508173ffffffffffffffffffffffffffffffffffffffff168173ffffffffffffffffffffffffffffffffffffffff167f8be0079c531659141344cd1fd0a4f28419497f9722a3daafe3b4186f6b6457e060405160405180910390a35050565b6040518060a001604052805f73ffffffffffffffffffffffffffffffffffffffff1681526020015f81526020015f81526020015f8152602001606081525090565b5080546111a5906115e8565b5f825580601f106111b657506111d3565b601f0160209004905f5260205f20908101906111d291906111d6565b5b50565b5b808211156111ed575f815f9055506001016111d7565b5090565b5f73ffffffffffffffffffffffffffffffffffffffff82169050919050565b5f61121a826111f1565b9050919050565b61122a81611210565b82525050565b5f819050919050565b61124281611230565b82525050565b5f81519050919050565b5f82825260208201905092915050565b5f5b8381101561127f578082015181840152602081019050611264565b5f8484015250505050565b5f601f19601f8301169050919050565b5f6112a482611248565b6112ae8185611252565b93506112be818560208601611262565b6112c78161128a565b840191505092915050565b5f60a083015f8301516112e75f860182611221565b5060208301516112fa6020860182611239565b50604083015161130d6040860182611239565b5060608301516113206060860182611239565b5060808301518482036080860152611338828261129a565b9150508091505092915050565b5f6020820190508181035f83015261135d81846112d2565b905092915050565b5f604051905090565b5f80fd5b5f80fd5b61137f81611230565b8114611389575f80fd5b50565b5f8135905061139a81611376565b92915050565b5f602082840312156113b5576113b461136e565b5b5f6113c28482850161138c565b91505092915050565b5f80fd5b5f80fd5b7f4e487b71000000000000000000000000000000000000000000000000000000005f52604160045260245ffd5b6114098261128a565b810181811067ffffffffffffffff82111715611428576114276113d3565b5b80604052505050565b5f61143a611365565b90506114468282611400565b919050565b5f67ffffffffffffffff821115611465576114646113d3565b5b61146e8261128a565b9050602081019050919050565b828183375f83830152505050565b5f61149b6114968461144b565b611431565b9050828152602081018484840111156114b7576114b66113cf565b5b6114c284828561147b565b509392505050565b5f82601f8301126114de576114dd6113cb565b5b81356114ee848260208601611489565b91505092915050565b5f6020828403121561150c5761150b61136e565b5b5f82013567ffffffffffffffff81111561152957611528611372565b5b611535848285016114ca565b91505092915050565b61154781611210565b82525050565b5f6020820190506115605f83018461153e565b92915050565b61156f81611210565b8114611579575f80fd5b50565b5f8135905061158a81611566565b92915050565b5f602082840312156115a5576115a461136e565b5b5f6115b28482850161157c565b91505092915050565b7f4e487b71000000000000000000000000000000000000000000000000000000005f52602260045260245ffd5b5f60028204905060018216806115ff57607f821691505b602082108103611612576116116115bb565b5b50919050565b5f819050815f5260205f209050919050565b5f6020601f8301049050919050565b5f82821b905092915050565b5f600883026116747fffffffffffffffffffffffffffffffffffffffffffffffffffffffffffffffff82611639565b61167e8683611639565b95508019841693508086168417925050509392505050565b5f819050919050565b5f6116b96116b46116af84611230565b611696565b611230565b9050919050565b5f819050919050565b6116d28361169f565b6116e66116de826116c0565b848454611645565b825550505050565b5f90565b6116fa6116ee565b6117058184846116c9565b505050565b5b818110156117285761171d5f826116f2565b60018101905061170b565b5050565b601f82111561176d5761173e81611618565b6117478461162a565b81016020851015611756578190505b61176a6117628561162a565b83018261170a565b50505b505050565b5f82821c905092915050565b5f61178d5f1984600802611772565b1980831691505092915050565b5f6117a5838361177e565b9150826002028217905092915050565b6117be82611248565b67ffffffffffffffff8111156117d7576117d66113d3565b5b6117e182546115e8565b6117ec82828561172c565b5f60209050601f83116001811461181d575f841561180b578287015190505b611815858261179a565b86555061187c565b601f19841661182b86611618565b5f5b828110156118525784890151825560018201915060208501945060208101905061182d565b8683101561186f578489015161186b601f89168261177e565b8355505b6001600288020188555050505b505050505050565b5f82825260208201905092915050565b7f616d6f756e74206e6f7420656e6f7567680000000000000000000000000000005f82015250565b5f6118c8601183611884565b91506118d382611894565b602082019050919050565b5f6020820190508181035f8301526118f5816118bc565b9050919050565b7f4e487b71000000000000000000000000000000000000000000000000000000005f52601160045260245ffd5b5f61193382611230565b915061193e83611230565b9250828203905081811115611956576119556118fc565b5b92915050565b7f6e656564207265676973746572206669727374000000000000000000000000005f82015250565b5f611990601383611884565b915061199b8261195c565b602082019050919050565b5f6020820190508181035f8301526119bd81611984565b9050919050565b5f815490506119d2816115e8565b9050919050565b8181036119e7575050611abc565b6119f0826119c4565b67ffffffffffffffff811115611a0957611a086113d3565b5b611a1382546115e8565b611a1e82828561172c565b5f601f831160018114611a4b575f8415611a39578287015490505b611a43858261179a565b865550611ab5565b601f198416611a5987611618565b9650611a6486611618565b5f5b82811015611a8b57848901548255600182019150600185019450602081019050611a66565b86831015611aa85784890154611aa4601f89168261177e565b8355505b6001600288020188555050505b5050505050505b565b5f611ac882611230565b9150611ad383611230565b9250828201905080821115611aeb57611aea6118fc565b5b92915050565b7f4f776e61626c653a2063616c6c6572206973206e6f7420746865206f776e65725f82015250565b5f611b25602083611884565b9150611b3082611af1565b602082019050919050565b5f6020820190508181035f830152611b5281611b19565b9050919050565b7f4f776e61626c653a206e6577206f776e657220697320746865207a65726f20615f8201527f6464726573730000000000000000000000000000000000000000000000000000602082015250565b5f611bb3602683611884565b9150611bbe82611b59565b604082019050919050565b5f6020820190508181035f830152611be081611ba7565b905091905056fea2646970667358221220e0724678a0b81d16976221075e4a142921dbe0eaafd87845a9dd72c0b29dac3c64736f6c63430008150033",
  "immutableReferences": {},
  "source": "// SPDX-License-Identifier: SEE LICENSE IN LICENSE\npragma solidity ^0.8.0;\nimport \"openzeppelin-solidity/contracts/access/Ownable.sol\";\ncontract AccountFactory is Ownable {\n\n    struct accountInfo {\n        address addr;\n        uint balance;\n        uint providerBlockedFunds;\n        uint recipientBlockedFunds;\n        string info;\n    }\n    mapping (address => accountInfo) ownerToAccount;\n\n    function register() public returns (accountInfo memory accountinfo) {\n        // key\n        if (ownerToAccount[msg.sender].addr == address(0)) {\n            ownerToAccount[msg.sender] = accountInfo(msg.sender, 0, 0, 0, \"\");\n        }\n        return ownerToAccount[msg.sender];\n    }\n\n    function withdraw() public onlyOwner {\n        payable(owner()).transfer(address(this).balance);\n    }\n\n    function cancellation() public  {\n        delete(ownerToAccount[msg.sender]);\n    }\n\n    function setProviderInfo(string memory _info) public _needAccountExist(msg.sender){\n        ownerToAccount[msg.sender].info = _info;\n    }\n\n    function onlineBlockedFund(uint _stakeAmount) internal {\n        require(_stakeAmount <= ownerToAccount[msg.sender].balance, \"balance not enough! please stake\");\n        ownerToAccount[msg.sender].balance -= _stakeAmount;\n        ownerToAccount[msg.sender].providerBlockedFunds += _stakeAmount;\n    }\n\n    // \n    function stake() payable public _needAccountExist(msg.sender) {\n        accountInfo storage info = ownerToAccount[msg.sender];\n        if (info.addr == address(0)) {\n            info.addr = msg.sender;\n            info.balance = msg.value;\n            ownerToAccount[msg.sender] = info;\n            return ;\n        }\n        ownerToAccount[msg.sender].balance = ownerToAccount[msg.sender].balance + msg.value;\n    }\n\n    function unstake(uint amount) payable public {\n        accountInfo memory info = ownerToAccount[msg.sender];\n        require(info.balance >= amount, \"amount not enough\");\n        ownerToAccount[msg.sender].balance = ownerToAccount[msg.sender].balance - amount;\n        payable(msg.sender).transfer(amount);\n    }\n\n    modifier _needAccountExist(address _user) {\n        require(ownerToAccount[_user].addr != address(0), \"need register first\");\n        _;\n    }\n\n    function getAccount(address _addr) view public _needAccountExist(_addr) returns (accountInfo memory)  {\n        return ownerToAccount[_addr];\n    }\n}",
  "sourcePath": "/Users/irongyi/solidity_project/apus_network_v0/contracts/account.sol",
  "compiler": {
    "name": "solc",
    "version": "0.8.21+commit.d9974bed.Emscripten.clang"
  },
  "schemaVersion": "3.4.15",
  "updatedAt": "2023-09-05T14:17:28.880Z",
  "devdoc": {
    "kind": "dev",
    "methods": {
      "owner()": {
        "details": "Returns the address of the current owner."
      },
      "renounceOwnership()": {
        "details": "Leaves the contract without owner. It will not be possible to call `onlyOwner` functions anymore. Can only be called by the current owner. NOTE: Renouncing ownership will leave the contract without an owner, thereby removing any functionality that is only available to the owner."
      },
      "transferOwnership(address)": {
        "details": "Transfers ownership of the contract to a new account (`newOwner`). Can only be called by the current owner."
      }
    },
    "version": 1
  },
  "userdoc": {
    "kind": "user",
    "methods": {},
    "version": 1
  }
}