{
  "contractName": "ApusProofTask",
  "abi": [
    {
      "inputs": [
        {
          "internalType": "address",
          "name": "marketAddress",
          "type": "address"
        }
      ],
      "stateMutability": "nonpayable",
      "type": "constructor"
    },
    {
      "anonymous": false,
      "inputs": [
        {
          "indexed": false,
          "internalType": "uint256",
          "name": "taskId",
          "type": "uint256"
        },
        {
          "indexed": false,
          "internalType": "address",
          "name": "prover",
          "type": "address"
        },
        {
          "indexed": false,
          "internalType": "uint256",
          "name": "amount",
          "type": "uint256"
        }
      ],
      "name": "RewardSent",
      "type": "event"
    },
    {
      "anonymous": false,
      "inputs": [
        {
          "indexed": false,
          "internalType": "uint256",
          "name": "taskId",
          "type": "uint256"
        },
        {
          "indexed": false,
          "internalType": "enum ApusData.TaskType",
          "name": "provider",
          "type": "uint8"
        },
        {
          "indexed": false,
          "internalType": "uint256",
          "name": "blockID",
          "type": "uint256"
        },
        {
          "indexed": false,
          "internalType": "bytes",
          "name": "meta",
          "type": "bytes"
        },
        {
          "components": [
            {
              "internalType": "address",
              "name": "prover",
              "type": "address"
            },
            {
              "internalType": "uint256",
              "name": "clientId",
              "type": "uint256"
            },
            {
              "internalType": "uint256",
              "name": "expiry",
              "type": "uint256"
            },
            {
              "internalType": "bytes",
              "name": "signature",
              "type": "bytes"
            }
          ],
          "indexed": false,
          "internalType": "struct ApusData.ProofAssignment",
          "name": "assignment",
          "type": "tuple"
        }
      ],
      "name": "TaskBound",
      "type": "event"
    },
    {
      "inputs": [
        {
          "internalType": "uint64",
          "name": "",
          "type": "uint64"
        }
      ],
      "name": "blockTasks",
      "outputs": [
        {
          "internalType": "uint256",
          "name": "",
          "type": "uint256"
        }
      ],
      "stateMutability": "view",
      "type": "function",
      "constant": true
    },
    {
      "inputs": [
        {
          "internalType": "address",
          "name": "",
          "type": "address"
        },
        {
          "internalType": "uint256",
          "name": "",
          "type": "uint256"
        },
        {
          "internalType": "uint256",
          "name": "",
          "type": "uint256"
        }
      ],
      "name": "proverTasks",
      "outputs": [
        {
          "internalType": "uint256",
          "name": "",
          "type": "uint256"
        }
      ],
      "stateMutability": "view",
      "type": "function",
      "constant": true
    },
    {
      "inputs": [
        {
          "internalType": "enum ApusData.TaskType",
          "name": "",
          "type": "uint8"
        }
      ],
      "name": "taskContracts",
      "outputs": [
        {
          "internalType": "address",
          "name": "",
          "type": "address"
        }
      ],
      "stateMutability": "view",
      "type": "function",
      "constant": true
    },
    {
      "inputs": [],
      "name": "taskId",
      "outputs": [
        {
          "internalType": "uint256",
          "name": "",
          "type": "uint256"
        }
      ],
      "stateMutability": "view",
      "type": "function",
      "constant": true
    },
    {
      "inputs": [
        {
          "internalType": "uint256",
          "name": "",
          "type": "uint256"
        }
      ],
      "name": "tasks",
      "outputs": [
        {
          "internalType": "enum ApusData.TaskType",
          "name": "_type",
          "type": "uint8"
        },
        {
          "internalType": "uint64",
          "name": "blockID",
          "type": "uint64"
        },
        {
          "internalType": "bytes",
          "name": "meta",
          "type": "bytes"
        },
        {
          "components": [
            {
              "internalType": "address",
              "name": "prover",
              "type": "address"
            },
            {
              "internalType": "uint256",
              "name": "clientId",
              "type": "uint256"
            },
            {
              "internalType": "uint256",
              "name": "expiry",
              "type": "uint256"
            },
            {
              "internalType": "bytes",
              "name": "signature",
              "type": "bytes"
            }
          ],
          "internalType": "struct ApusData.ProofAssignment",
          "name": "assigment",
          "type": "tuple"
        },
        {
          "internalType": "enum ApusData.TaskStatus",
          "name": "status",
          "type": "uint8"
        }
      ],
      "stateMutability": "view",
      "type": "function",
      "constant": true
    },
    {
      "inputs": [
        {
          "internalType": "enum ApusData.TaskType",
          "name": "",
          "type": "uint8"
        },
        {
          "internalType": "uint256",
          "name": "",
          "type": "uint256"
        }
      ],
      "name": "typedTasks",
      "outputs": [
        {
          "internalType": "uint256",
          "name": "",
          "type": "uint256"
        }
      ],
      "stateMutability": "view",
      "type": "function",
      "constant": true
    },
    {
      "inputs": [
        {
          "internalType": "enum ApusData.TaskType",
          "name": "_type",
          "type": "uint8"
        },
        {
          "internalType": "address",
          "name": "contractAddr",
          "type": "address"
        }
      ],
      "name": "setTaskContract",
      "outputs": [],
      "stateMutability": "nonpayable",
      "type": "function"
    },
    {
      "inputs": [
        {
          "internalType": "address",
          "name": "marketAddress",
          "type": "address"
        }
      ],
      "name": "setMarket",
      "outputs": [],
      "stateMutability": "nonpayable",
      "type": "function"
    },
    {
      "inputs": [
        {
          "internalType": "enum ApusData.TaskType",
          "name": "_type",
          "type": "uint8"
        }
      ],
      "name": "getContract",
      "outputs": [
        {
          "internalType": "address",
          "name": "",
          "type": "address"
        }
      ],
      "stateMutability": "view",
      "type": "function",
      "constant": true
    },
    {
      "inputs": [
        {
          "internalType": "uint256",
          "name": "_taskId",
          "type": "uint256"
        }
      ],
      "name": "getTask",
      "outputs": [
        {
          "components": [
            {
              "internalType": "enum ApusData.TaskType",
              "name": "_type",
              "type": "uint8"
            },
            {
              "internalType": "uint64",
              "name": "blockID",
              "type": "uint64"
            },
            {
              "internalType": "bytes",
              "name": "meta",
              "type": "bytes"
            },
            {
              "components": [
                {
                  "internalType": "address",
                  "name": "prover",
                  "type": "address"
                },
                {
                  "internalType": "uint256",
                  "name": "clientId",
                  "type": "uint256"
                },
                {
                  "internalType": "uint256",
                  "name": "expiry",
                  "type": "uint256"
                },
                {
                  "internalType": "bytes",
                  "name": "signature",
                  "type": "bytes"
                }
              ],
              "internalType": "struct ApusData.ProofAssignment",
              "name": "assigment",
              "type": "tuple"
            },
            {
              "internalType": "enum ApusData.TaskStatus",
              "name": "status",
              "type": "uint8"
            }
          ],
          "internalType": "struct ApusData.ProofTask",
          "name": "",
          "type": "tuple"
        }
      ],
      "stateMutability": "view",
      "type": "function",
      "constant": true
    },
    {
      "inputs": [
        {
          "internalType": "enum ApusData.TaskType",
          "name": "_type",
          "type": "uint8"
        }
      ],
      "name": "getTasksByType",
      "outputs": [
        {
          "internalType": "uint256[]",
          "name": "",
          "type": "uint256[]"
        }
      ],
      "stateMutability": "view",
      "type": "function",
      "constant": true
    },
    {
      "inputs": [
        {
          "internalType": "address",
          "name": "prover",
          "type": "address"
        },
        {
          "internalType": "uint256",
          "name": "clientId",
          "type": "uint256"
        }
      ],
      "name": "getTasksByProver",
      "outputs": [
        {
          "internalType": "uint256[]",
          "name": "",
          "type": "uint256[]"
        }
      ],
      "stateMutability": "view",
      "type": "function",
      "constant": true
    },
    {
      "inputs": [
        {
          "internalType": "uint64",
          "name": "blockId",
          "type": "uint64"
        }
      ],
      "name": "getAssignmentByBlockId",
      "outputs": [
        {
          "components": [
            {
              "internalType": "address",
              "name": "prover",
              "type": "address"
            },
            {
              "internalType": "uint256",
              "name": "clientId",
              "type": "uint256"
            },
            {
              "internalType": "uint256",
              "name": "expiry",
              "type": "uint256"
            },
            {
              "internalType": "bytes",
              "name": "signature",
              "type": "bytes"
            }
          ],
          "internalType": "struct ApusData.ProofAssignment",
          "name": "",
          "type": "tuple"
        }
      ],
      "stateMutability": "view",
      "type": "function",
      "constant": true
    },
    {
      "inputs": [
        {
          "internalType": "enum ApusData.TaskType",
          "name": "_type",
          "type": "uint8"
        },
        {
          "internalType": "uint64",
          "name": "blockId",
          "type": "uint64"
        },
        {
          "internalType": "bytes",
          "name": "meta",
          "type": "bytes"
        },
        {
          "components": [
            {
              "internalType": "address",
              "name": "prover",
              "type": "address"
            },
            {
              "internalType": "uint256",
              "name": "clientId",
              "type": "uint256"
            },
            {
              "internalType": "uint256",
              "name": "expiry",
              "type": "uint256"
            },
            {
              "internalType": "bytes",
              "name": "signature",
              "type": "bytes"
            }
          ],
          "internalType": "struct ApusData.ProofAssignment",
          "name": "assignment",
          "type": "tuple"
        }
      ],
      "name": "bindTask",
      "outputs": [],
      "stateMutability": "nonpayable",
      "type": "function"
    },
    {
      "inputs": [
        {
          "internalType": "uint256",
          "name": "_taskId",
          "type": "uint256"
        }
      ],
      "name": "proveTask",
      "outputs": [],
      "stateMutability": "nonpayable",
      "type": "function"
    },
    {
      "inputs": [
        {
          "internalType": "address",
          "name": "owner",
          "type": "address"
        },
        {
          "internalType": "uint256",
          "name": "clientID",
          "type": "uint256"
        }
      ],
      "name": "dispatchTaskToClient",
      "outputs": [
        {
          "internalType": "bool",
          "name": "success",
          "type": "bool"
        }
      ],
      "stateMutability": "nonpayable",
      "type": "function"
    },
    {
      "inputs": [
        {
          "internalType": "address",
          "name": "owner",
          "type": "address"
        },
        {
          "internalType": "uint256",
          "name": "clientID",
          "type": "uint256"
        }
      ],
      "name": "releaseTaskToClient",
      "outputs": [
        {
          "internalType": "bool",
          "name": "",
          "type": "bool"
        }
      ],
      "stateMutability": "nonpayable",
      "type": "function"
    }
  ],
  "bytecode": "0x608060405234801562000010575f80fd5b5060405162002b1738038062002b178339818101604052810190620000369190620000e8565b8060015f6101000a81548173ffffffffffffffffffffffffffffffffffffffff021916908373ffffffffffffffffffffffffffffffffffffffff1602179055505f80819055505062000118565b5f80fd5b5f73ffffffffffffffffffffffffffffffffffffffff82169050919050565b5f620000b28262000087565b9050919050565b620000c481620000a6565b8114620000cf575f80fd5b50565b5f81519050620000e281620000b9565b92915050565b5f602082840312156200010057620000ff62000083565b5b5f6200010f84828501620000d2565b91505092915050565b6129f180620001265f395ff3fe608060405234801561000f575f80fd5b5060043610610109575f3560e01c80636dcea85f116100a0578063becb4cda1161006f578063becb4cda14610303578063de981f1b14610333578063f76a36e114610363578063fa3f0cd914610393578063fdd5dfd3146103c357610109565b80636dcea85f14610253578063871788b01461026f5780638c7c7b0d1461029f5780638d977672146102cf57610109565b80633322b23d116100dc5780633322b23d146101cd57806339b8ebf8146101eb5780633de6790a146102075780634c6839161461022357610109565b80631d65e77e1461010d578063293742561461013d578063317bf7ec1461016d5780633313f2ef1461019d575b5f80fd5b61012760048036038101906101229190611807565b6103df565b6040516101349190611abf565b60405180910390f35b61015760048036038101906101529190611b09565b610648565b6040516101649190611b68565b60405180910390f35b61018760048036038101906101829190611bab565b61067e565b6040516101949190611b68565b60405180910390f35b6101b760048036038101906101b29190611bd6565b610693565b6040516101c49190611cbc565b60405180910390f35b6101d5610736565b6040516101e29190611b68565b60405180910390f35b61020560048036038101906102009190611cff565b61073b565b005b610221600480360381019061021c9190611807565b6107b0565b005b61023d60048036038101906102389190611d3d565b610a1e565b60405161024a9190611b68565b60405180910390f35b61026d60048036038101906102689190611d7b565b610a49565b005b61028960048036038101906102849190611da6565b610a8c565b6040516102969190611de0565b60405180910390f35b6102b960048036038101906102b49190611bd6565b610abc565b6040516102c69190611e13565b60405180910390f35b6102e960048036038101906102e49190611807565b610b60565b6040516102fa959493929190611f01565b60405180910390f35b61031d60048036038101906103189190611bd6565b610d45565b60405161032a9190611e13565b60405180910390f35b61034d60048036038101906103489190611da6565b610de9565b60405161035a9190611de0565b60405180910390f35b61037d60048036038101906103789190611bab565b610e44565b60405161038a9190611f60565b60405180910390f35b6103ad60048036038101906103a89190611da6565b610f8f565b6040516103ba9190611cbc565b60405180910390f35b6103dd60048036038101906103d89190612003565b611018565b005b6103e7611729565b60025f8381526020019081526020015f206040518060a00160405290815f82015f9054906101000a900460ff165f81111561042557610424611832565b5b5f81111561043657610435611832565b5b81526020015f820160019054906101000a900467ffffffffffffffff1667ffffffffffffffff1667ffffffffffffffff16815260200160018201805461047b906120d0565b80601f01602080910402602001604051908101604052809291908181526020018280546104a7906120d0565b80156104f25780601f106104c9576101008083540402835291602001916104f2565b820191905f5260205f20905b8154815290600101906020018083116104d557829003601f168201915b50505050508152602001600282016040518060800160405290815f82015f9054906101000a900473ffffffffffffffffffffffffffffffffffffffff1673ffffffffffffffffffffffffffffffffffffffff1673ffffffffffffffffffffffffffffffffffffffff1681526020016001820154815260200160028201548152602001600382018054610583906120d0565b80601f01602080910402602001604051908101604052809291908181526020018280546105af906120d0565b80156105fa5780601f106105d1576101008083540402835291602001916105fa565b820191905f5260205f20905b8154815290600101906020018083116105dd57829003601f168201915b5050505050815250508152602001600682015f9054906101000a900460ff16600481111561062b5761062a611832565b5b600481111561063d5761063c611832565b5b815250509050919050565b6004602052825f5260405f20602052815f5260405f20818154811061066b575f80fd5b905f5260205f20015f9250925050505481565b6005602052805f5260405f205f915090505481565b606060045f8473ffffffffffffffffffffffffffffffffffffffff1673ffffffffffffffffffffffffffffffffffffffff1681526020019081526020015f205f8381526020019081526020015f2080548060200260200160405190810160405280929190818152602001828054801561072957602002820191905f5260205f20905b815481526020019060010190808311610715575b5050505050905092915050565b5f5481565b8060065f845f81111561075157610750611832565b5b5f81111561076257610761611832565b5b81526020019081526020015f205f6101000a81548173ffffffffffffffffffffffffffffffffffffffff021916908373ffffffffffffffffffffffffffffffffffffffff1602179055505050565b5f811180156107c057505f548111155b6107ff576040517f08c379a00000000000000000000000000000000000000000000000000000000081526004016107f69061215a565b60405180910390fd5b5f60025f8381526020019081526020015f209050806002015f015f9054906101000a900473ffffffffffffffffffffffffffffffffffffffff1673ffffffffffffffffffffffffffffffffffffffff163373ffffffffffffffffffffffffffffffffffffffff16146108a6576040517f08c379a000000000000000000000000000000000000000000000000000000000815260040161089d906121c2565b60405180910390fd5b60015f9054906101000a900473ffffffffffffffffffffffffffffffffffffffff1673ffffffffffffffffffffffffffffffffffffffff1663becb4cda826002015f015f9054906101000a900473ffffffffffffffffffffffffffffffffffffffff1683600201600101546040518363ffffffff1660e01b815260040161092e9291906121e0565b6020604051808303815f875af115801561094a573d5f803e3d5ffd5b505050506040513d601f19601f8201168201806040525081019061096e9190612231565b505f600481111561098257610981611832565b5b816006015f9054906101000a900460ff1660048111156109a5576109a4611832565b5b146109e5576040517f08c379a00000000000000000000000000000000000000000000000000000000081526004016109dc906122cc565b60405180910390fd5b6002816006015f6101000a81548160ff02191690836004811115610a0c57610a0b611832565b5b0217905550610a1a826113ff565b5050565b6003602052815f5260405f208181548110610a37575f80fd5b905f5260205f20015f91509150505481565b8060015f6101000a81548173ffffffffffffffffffffffffffffffffffffffff021916908373ffffffffffffffffffffffffffffffffffffffff16021790555050565b6006602052805f5260405f205f915054906101000a900473ffffffffffffffffffffffffffffffffffffffff1681565b5f60015f9054906101000a900473ffffffffffffffffffffffffffffffffffffffff1673ffffffffffffffffffffffffffffffffffffffff16638c7c7b0d84846040518363ffffffff1660e01b8152600401610b199291906121e0565b6020604051808303815f875af1158015610b35573d5f803e3d5ffd5b505050506040513d601f19601f82011682018060405250810190610b599190612231565b5092915050565b6002602052805f5260405f205f91509050805f015f9054906101000a900460ff1690805f0160019054906101000a900467ffffffffffffffff1690806001018054610baa906120d0565b80601f0160208091040260200160405190810160405280929190818152602001828054610bd6906120d0565b8015610c215780601f10610bf857610100808354040283529160200191610c21565b820191905f5260205f20905b815481529060010190602001808311610c0457829003601f168201915b505050505090806002016040518060800160405290815f82015f9054906101000a900473ffffffffffffffffffffffffffffffffffffffff1673ffffffffffffffffffffffffffffffffffffffff1673ffffffffffffffffffffffffffffffffffffffff1681526020016001820154815260200160028201548152602001600382018054610cae906120d0565b80601f0160208091040260200160405190810160405280929190818152602001828054610cda906120d0565b8015610d255780601f10610cfc57610100808354040283529160200191610d25565b820191905f5260205f20905b815481529060010190602001808311610d0857829003601f168201915b50505050508152505090806006015f9054906101000a900460ff16905085565b5f60015f9054906101000a900473ffffffffffffffffffffffffffffffffffffffff1673ffffffffffffffffffffffffffffffffffffffff1663becb4cda84846040518363ffffffff1660e01b8152600401610da29291906121e0565b6020604051808303815f875af1158015610dbe573d5f803e3d5ffd5b505050506040513d601f19601f82011682018060405250810190610de29190612231565b5092915050565b5f60065f835f811115610dff57610dfe611832565b5b5f811115610e1057610e0f611832565b5b81526020019081526020015f205f9054906101000a900473ffffffffffffffffffffffffffffffffffffffff169050919050565b610e4c611788565b60025f60055f8567ffffffffffffffff1667ffffffffffffffff1681526020019081526020015f205481526020019081526020015f206002016040518060800160405290815f82015f9054906101000a900473ffffffffffffffffffffffffffffffffffffffff1673ffffffffffffffffffffffffffffffffffffffff1673ffffffffffffffffffffffffffffffffffffffff1681526020016001820154815260200160028201548152602001600382018054610f08906120d0565b80601f0160208091040260200160405190810160405280929190818152602001828054610f34906120d0565b8015610f7f5780601f10610f5657610100808354040283529160200191610f7f565b820191905f5260205f20905b815481529060010190602001808311610f6257829003601f168201915b5050505050815250509050919050565b606060035f835f811115610fa657610fa5611832565b5b5f811115610fb757610fb6611832565b5b81526020019081526020015f2080548060200260200160405190810160405280929190818152602001828054801561100c57602002820191905f5260205f20905b815481526020019060010190808311610ff8575b50505050509050919050565b5f8081548092919061102990612317565b91905055506040518060a00160405280865f81111561104b5761104a611832565b5b81526020018567ffffffffffffffff16815260200184848080601f0160208091040260200160405190810160405280939291908181526020018383808284375f81840152601f19601f820116905080830192505050505050508152602001826110b39061251f565b81526020015f60048111156110cb576110ca611832565b5b81525060025f805481526020019081526020015f205f820151815f015f6101000a81548160ff02191690835f81111561110757611106611832565b5b02179055506020820151815f0160016101000a81548167ffffffffffffffff021916908367ffffffffffffffff160217905550604082015181600101908161114f91906126ce565b506060820151816002015f820151815f015f6101000a81548173ffffffffffffffffffffffffffffffffffffffff021916908373ffffffffffffffffffffffffffffffffffffffff160217905550602082015181600101556040820151816002015560608201518160030190816111c691906126ce565b5050506080820151816006015f6101000a81548160ff021916908360048111156111f3576111f2611832565b5b021790555090505060035f865f8111156112105761120f611832565b5b5f81111561122157611220611832565b5b81526020019081526020015f205f54908060018154018082558091505060019003905f5260205f20015f909190919091505560045f825f0160208101906112689190611d7b565b73ffffffffffffffffffffffffffffffffffffffff1673ffffffffffffffffffffffffffffffffffffffff1681526020019081526020015f205f826020013581526020019081526020015f205f54908060018154018082558091505060019003905f5260205f20015f90919091909150555f5460055f8667ffffffffffffffff1667ffffffffffffffff1681526020019081526020015f208190555060015f9054906101000a900473ffffffffffffffffffffffffffffffffffffffff1673ffffffffffffffffffffffffffffffffffffffff16638c7c7b0d825f0160208101906113539190611d7b565b83602001356040518363ffffffff1660e01b81526004016113759291906121e0565b6020604051808303815f875af1158015611391573d5f803e3d5ffd5b505050506040513d601f19601f820116820180604052508101906113b59190612231565b507fb7dc28d3e6e00b907c89b07b0676ab8f1569b8443a79b2ca58bf61cde63ed4475f5486868686866040516113f096959493929190612941565b60405180910390a15050505050565b5f60025f8381526020019081526020015f206040518060a00160405290815f82015f9054906101000a900460ff165f81111561143e5761143d611832565b5b5f81111561144f5761144e611832565b5b81526020015f820160019054906101000a900467ffffffffffffffff1667ffffffffffffffff1667ffffffffffffffff168152602001600182018054611494906120d0565b80601f01602080910402602001604051908101604052809291908181526020018280546114c0906120d0565b801561150b5780601f106114e25761010080835404028352916020019161150b565b820191905f5260205f20905b8154815290600101906020018083116114ee57829003601f168201915b50505050508152602001600282016040518060800160405290815f82015f9054906101000a900473ffffffffffffffffffffffffffffffffffffffff1673ffffffffffffffffffffffffffffffffffffffff1673ffffffffffffffffffffffffffffffffffffffff168152602001600182015481526020016002820154815260200160038201805461159c906120d0565b80601f01602080910402602001604051908101604052809291908181526020018280546115c8906120d0565b80156116135780601f106115ea57610100808354040283529160200191611613565b820191905f5260205f20905b8154815290600101906020018083116115f657829003601f168201915b5050505050815250508152602001600682015f9054906101000a900460ff16600481111561164457611643611832565b5b600481111561165657611655611832565b5b8152505090505f815f015190505f60065f835f81111561167957611678611832565b5b5f81111561168a57611689611832565b5b81526020019081526020015f205f9054906101000a900473ffffffffffffffffffffffffffffffffffffffff1690508073ffffffffffffffffffffffffffffffffffffffff166311fe7e4384602001516040518263ffffffff1660e01b81526004016116f691906129a2565b5f604051808303815f87803b15801561170d575f80fd5b505af115801561171f573d5f803e3d5ffd5b5050505050505050565b6040518060a001604052805f8081111561174657611745611832565b5b81526020015f67ffffffffffffffff1681526020016060815260200161176a611788565b81526020015f600481111561178257611781611832565b5b81525090565b60405180608001604052805f73ffffffffffffffffffffffffffffffffffffffff1681526020015f81526020015f8152602001606081525090565b5f604051905090565b5f80fd5b5f80fd5b5f819050919050565b6117e6816117d4565b81146117f0575f80fd5b50565b5f81359050611801816117dd565b92915050565b5f6020828403121561181c5761181b6117cc565b5b5f611829848285016117f3565b91505092915050565b7f4e487b71000000000000000000000000000000000000000000000000000000005f52602160045260245ffd5b600181106118705761186f611832565b5b50565b5f8190506118808261185f565b919050565b5f61188f82611873565b9050919050565b61189f81611885565b82525050565b5f67ffffffffffffffff82169050919050565b6118c1816118a5565b82525050565b5f81519050919050565b5f82825260208201905092915050565b5f5b838110156118fe5780820151818401526020810190506118e3565b5f8484015250505050565b5f601f19601f8301169050919050565b5f611923826118c7565b61192d81856118d1565b935061193d8185602086016118e1565b61194681611909565b840191505092915050565b5f73ffffffffffffffffffffffffffffffffffffffff82169050919050565b5f61197a82611951565b9050919050565b61198a81611970565b82525050565b611999816117d4565b82525050565b5f608083015f8301516119b45f860182611981565b5060208301516119c76020860182611990565b5060408301516119da6040860182611990565b50606083015184820360608601526119f28282611919565b9150508091505092915050565b60058110611a1057611a0f611832565b5b50565b5f819050611a20826119ff565b919050565b5f611a2f82611a13565b9050919050565b611a3f81611a25565b82525050565b5f60a083015f830151611a5a5f860182611896565b506020830151611a6d60208601826118b8565b5060408301518482036040860152611a858282611919565b91505060608301518482036060860152611a9f828261199f565b9150506080830151611ab46080860182611a36565b508091505092915050565b5f6020820190508181035f830152611ad78184611a45565b905092915050565b611ae881611970565b8114611af2575f80fd5b50565b5f81359050611b0381611adf565b92915050565b5f805f60608486031215611b2057611b1f6117cc565b5b5f611b2d86828701611af5565b9350506020611b3e868287016117f3565b9250506040611b4f868287016117f3565b9150509250925092565b611b62816117d4565b82525050565b5f602082019050611b7b5f830184611b59565b92915050565b611b8a816118a5565b8114611b94575f80fd5b50565b5f81359050611ba581611b81565b92915050565b5f60208284031215611bc057611bbf6117cc565b5b5f611bcd84828501611b97565b91505092915050565b5f8060408385031215611bec57611beb6117cc565b5b5f611bf985828601611af5565b9250506020611c0a858286016117f3565b9150509250929050565b5f81519050919050565b5f82825260208201905092915050565b5f819050602082019050919050565b5f611c488383611990565b60208301905092915050565b5f602082019050919050565b5f611c6a82611c14565b611c748185611c1e565b9350611c7f83611c2e565b805f5b83811015611caf578151611c968882611c3d565b9750611ca183611c54565b925050600181019050611c82565b5085935050505092915050565b5f6020820190508181035f830152611cd48184611c60565b905092915050565b60018110611ce8575f80fd5b50565b5f81359050611cf981611cdc565b92915050565b5f8060408385031215611d1557611d146117cc565b5b5f611d2285828601611ceb565b9250506020611d3385828601611af5565b9150509250929050565b5f8060408385031215611d5357611d526117cc565b5b5f611d6085828601611ceb565b9250506020611d71858286016117f3565b9150509250929050565b5f60208284031215611d9057611d8f6117cc565b5b5f611d9d84828501611af5565b91505092915050565b5f60208284031215611dbb57611dba6117cc565b5b5f611dc884828501611ceb565b91505092915050565b611dda81611970565b82525050565b5f602082019050611df35f830184611dd1565b92915050565b5f8115159050919050565b611e0d81611df9565b82525050565b5f602082019050611e265f830184611e04565b92915050565b611e3581611885565b82525050565b611e44816118a5565b82525050565b5f82825260208201905092915050565b5f611e64826118c7565b611e6e8185611e4a565b9350611e7e8185602086016118e1565b611e8781611909565b840191505092915050565b5f608083015f830151611ea75f860182611981565b506020830151611eba6020860182611990565b506040830151611ecd6040860182611990565b5060608301518482036060860152611ee58282611919565b9150508091505092915050565b611efb81611a25565b82525050565b5f60a082019050611f145f830188611e2c565b611f216020830187611e3b565b8181036040830152611f338186611e5a565b90508181036060830152611f478185611e92565b9050611f566080830184611ef2565b9695505050505050565b5f6020820190508181035f830152611f788184611e92565b905092915050565b5f80fd5b5f80fd5b5f80fd5b5f8083601f840112611fa157611fa0611f80565b5b8235905067ffffffffffffffff811115611fbe57611fbd611f84565b5b602083019150836001820283011115611fda57611fd9611f88565b5b9250929050565b5f80fd5b5f60808284031215611ffa57611ff9611fe1565b5b81905092915050565b5f805f805f6080868803121561201c5761201b6117cc565b5b5f61202988828901611ceb565b955050602061203a88828901611b97565b945050604086013567ffffffffffffffff81111561205b5761205a6117d0565b5b61206788828901611f8c565b9350935050606086013567ffffffffffffffff81111561208a576120896117d0565b5b61209688828901611fe5565b9150509295509295909350565b7f4e487b71000000000000000000000000000000000000000000000000000000005f52602260045260245ffd5b5f60028204905060018216806120e757607f821691505b6020821081036120fa576120f96120a3565b5b50919050565b5f82825260208201905092915050565b7f496e76616c6964207461736b49640000000000000000000000000000000000005f82015250565b5f612144600e83612100565b915061214f82612110565b602082019050919050565b5f6020820190508181035f83015261217181612138565b9050919050565b7f43616c6c6572206973206e6f74207468652070726f76657200000000000000005f82015250565b5f6121ac601883612100565b91506121b782612178565b602082019050919050565b5f6020820190508181035f8301526121d9816121a0565b9050919050565b5f6040820190506121f35f830185611dd1565b6122006020830184611b59565b9392505050565b61221081611df9565b811461221a575f80fd5b50565b5f8151905061222b81612207565b92915050565b5f60208284031215612246576122456117cc565b5b5f6122538482850161221d565b91505092915050565b7f5461736b206973206e6f742070656e64696e67206f7220646f6573206e6f74205f8201527f6578697374000000000000000000000000000000000000000000000000000000602082015250565b5f6122b6602583612100565b91506122c18261225c565b604082019050919050565b5f6020820190508181035f8301526122e3816122aa565b9050919050565b7f4e487b71000000000000000000000000000000000000000000000000000000005f52601160045260245ffd5b5f612321826117d4565b91507fffffffffffffffffffffffffffffffffffffffffffffffffffffffffffffffff8203612353576123526122ea565b5b600182019050919050565b5f80fd5b7f4e487b71000000000000000000000000000000000000000000000000000000005f52604160045260245ffd5b61239882611909565b810181811067ffffffffffffffff821117156123b7576123b6612362565b5b80604052505050565b5f6123c96117c3565b90506123d5828261238f565b919050565b5f80fd5b5f80fd5b5f67ffffffffffffffff8211156123fc576123fb612362565b5b61240582611909565b9050602081019050919050565b828183375f83830152505050565b5f61243261242d846123e2565b6123c0565b90508281526020810184848401111561244e5761244d6123de565b5b612459848285612412565b509392505050565b5f82601f83011261247557612474611f80565b5b8135612485848260208601612420565b91505092915050565b5f608082840312156124a3576124a261235e565b5b6124ad60806123c0565b90505f6124bc84828501611af5565b5f8301525060206124cf848285016117f3565b60208301525060406124e3848285016117f3565b604083015250606082013567ffffffffffffffff811115612507576125066123da565b5b61251384828501612461565b60608301525092915050565b5f61252a368361248e565b9050919050565b5f819050815f5260205f209050919050565b5f6020601f8301049050919050565b5f82821b905092915050565b5f6008830261258d7fffffffffffffffffffffffffffffffffffffffffffffffffffffffffffffffff82612552565b6125978683612552565b95508019841693508086168417925050509392505050565b5f819050919050565b5f6125d26125cd6125c8846117d4565b6125af565b6117d4565b9050919050565b5f819050919050565b6125eb836125b8565b6125ff6125f7826125d9565b84845461255e565b825550505050565b5f90565b612613612607565b61261e8184846125e2565b505050565b5b81811015612641576126365f8261260b565b600181019050612624565b5050565b601f8211156126865761265781612531565b61266084612543565b8101602085101561266f578190505b61268361267b85612543565b830182612623565b50505b505050565b5f82821c905092915050565b5f6126a65f198460080261268b565b1980831691505092915050565b5f6126be8383612697565b9150826002028217905092915050565b6126d7826118c7565b67ffffffffffffffff8111156126f0576126ef612362565b5b6126fa82546120d0565b612705828285612645565b5f60209050601f831160018114612736575f8415612724578287015190505b61272e85826126b3565b865550612795565b601f19841661274486612531565b5f5b8281101561276b57848901518255600182019150602085019450602081019050612746565b868310156127885784890151612784601f891682612697565b8355505b6001600288020188555050505b505050505050565b5f6127b76127b26127ad846118a5565b6125af565b6117d4565b9050919050565b6127c78161279d565b82525050565b5f6127d88385611e4a565b93506127e5838584612412565b6127ee83611909565b840190509392505050565b5f6128076020840184611af5565b905092915050565b5f61281d60208401846117f3565b905092915050565b5f80fd5b5f80fd5b5f80fd5b5f808335600160200384360303811261284d5761284c61282d565b5b83810192508235915060208301925067ffffffffffffffff82111561287557612874612825565b5b60018202360383131561288b5761288a612829565b5b509250929050565b5f61289e83856118d1565b93506128ab838584612412565b6128b483611909565b840190509392505050565b5f608083016128d05f8401846127f9565b6128dc5f860182611981565b506128ea602084018461280f565b6128f76020860182611990565b50612905604084018461280f565b6129126040860182611990565b506129206060840184612831565b8583036060870152612933838284612893565b925050508091505092915050565b5f60a0820190506129545f830189611b59565b6129616020830188611e2c565b61296e60408301876127be565b81810360608301526129818185876127cd565b9050818103608083015261299581846128bf565b9050979650505050505050565b5f6020820190506129b55f830184611e3b565b9291505056fea2646970667358221220d63a598b2b5d5ca30e6b33cef6a087e4f79aa6cb24a708a4bd907b9722f146c964736f6c63430008140033",
  "immutableReferences": {},
  "source": "\n// SPDX-License-Identifier: MIT\npragma solidity ^0.8.20;\n\nimport {Market} from \"./market.sol\";\nimport { ApusData } from \"./ApusData.sol\";\nimport { IProofTask, IReward } from \"./ApusInterface.sol\";\n\ncontract ApusProofTask is IProofTask {\n    uint256 public taskId;\n\n    Market apusMarket;\n\n    constructor(address marketAddress) {\n        apusMarket = Market(marketAddress);\n        taskId = 0;\n    }\n\n    event TaskBound(\n        uint256 taskId,\n        ApusData.TaskType provider,\n        uint256 blockID,\n        bytes meta,\n        ApusData.ProofAssignment assignment\n    );\n\n    event RewardSent(\n        uint256 taskId,\n        address prover,\n        uint256 amount\n    );\n\n    // TaskID\n    mapping(uint256 => ApusData.ProofTask) public tasks;\n\n    // ID\n    mapping(ApusData.TaskType => uint256[]) public typedTasks;\n\n    // IDID\n    mapping(address => mapping(uint256 => uint256[])) public proverTasks;\n\n    // blockID\n    mapping(uint64 => uint256) public blockTasks;\n\n    // task\n    mapping(ApusData.TaskType => address) public taskContracts;\n\n    // task\n    function setTaskContract(\n        ApusData.TaskType _type,\n        address contractAddr\n    ) external {\n        taskContracts[_type] = contractAddr;\n    }\n\n    // market:\n    function setMarket(address marketAddress) public {\n        apusMarket = Market(marketAddress);\n    }\n\n    // task\n    function getContract(\n        ApusData.TaskType _type\n    ) external view returns (address) {\n        return taskContracts[_type];\n    }\n\n    // \n    function getTask(uint256 _taskId) external view returns (ApusData.ProofTask memory) {\n        return tasks[_taskId];\n    }\n\n    // \n    function getTasksByType(\n        ApusData.TaskType _type\n    ) external view returns (uint256[] memory) {\n        return typedTasks[_type];\n    }\n\n    // prover\n    function getTasksByProver(\n        address prover,\n        uint256 clientId\n    ) external view returns (uint256[] memory) {\n        return proverTasks[prover][clientId];\n    }\n\n    // blockIDassignment\n    function getAssignmentByBlockId(\n        uint64 blockId\n    ) public view returns (ApusData.ProofAssignment memory) {\n        return tasks[blockTasks[blockId]].assigment;\n    }\n\n    // Task\n    function bindTask(\n        ApusData.TaskType _type,\n        uint64 blockId,\n        bytes calldata meta,\n        ApusData.ProofAssignment calldata assignment\n    ) external {\n        // \n        // taskId\n        taskId++;\n        tasks[taskId] = ApusData.ProofTask({\n            _type: _type,\n            blockID: blockId,\n            meta: meta,\n            assigment: assignment,\n            status: ApusData.TaskStatus.Assigned\n        });\n        // typedTasksproverTasksblockTasks\n        typedTasks[_type].push(taskId);\n        proverTasks[assignment.prover][assignment.clientId].push(taskId);\n        blockTasks[blockId] = taskId;\n        apusMarket.dispatchTaskToClient(assignment.prover, assignment.clientId);\n        // \n        emit TaskBound(taskId, _type, blockId, meta, assignment);\n    }\n\n    // Task\n    function proveTask(uint256 _taskId) external {\n        // taskId\n        require(_taskId > 0 && _taskId <= taskId, \"Invalid taskId\");\n        // \n        ApusData.ProofTask storage task = tasks[_taskId];\n        // prover\n        require(msg.sender == task.assigment.prover, \"Caller is not the prover\");\n        apusMarket.releaseTaskToClient(task.assigment.prover, task.assigment.clientId);\n\n        // \n        require(task.status == ApusData.TaskStatus.Assigned, \"Task is not pending or does not exist\");\n        // task\n        task.status = ApusData.TaskStatus.Proved;\n\n        // reward\n        reward(_taskId);\n    }\n\n    // , Apus\n    function reward(uint256 _taskId) internal {\n        // \n        ApusData.ProofTask memory task = tasks[_taskId];\n        // \n        ApusData.TaskType _type = task._type;\n        address contractAddr = taskContracts[_type];\n        // ApusTaikoProverPoolrewardProver\n        IReward(contractAddr).reward(task.blockID);\n    }\n\n\n   function dispatchTaskToClient(address owner, uint256 clientID) public returns (bool success) {\n        apusMarket.dispatchTaskToClient(owner, clientID);\n    }\n\n    function releaseTaskToClient(address owner, uint256 clientID) public returns (bool) {\n        apusMarket.releaseTaskToClient(owner, clientID);\n    }\n}\n",
  "sourcePath": "/Users/irongyi/solidity_project/apus_zkp_market/contracts/ApusProofTask.sol",
  "compiler": {
    "name": "solc",
    "version": "0.8.20+commit.a1b79de6.Emscripten.clang"
  },
  "schemaVersion": "3.4.16",
  "updatedAt": "2023-11-03T04:32:56.452Z",
  "networkType": "ethereum",
  "devdoc": {
    "kind": "dev",
    "methods": {},
    "version": 1
  },
  "userdoc": {
    "kind": "user",
    "methods": {},
    "version": 1
  }
}