{
  "contractName": "ApusTaikoProverPool",
  "abi": [
    {
      "inputs": [
        {
          "internalType": "address",
          "name": "_ttkojAddress",
          "type": "address"
        }
      ],
      "stateMutability": "nonpayable",
      "type": "constructor"
    },
    {
      "inputs": [],
      "name": "ECDSAInvalidSignature",
      "type": "error"
    },
    {
      "inputs": [
        {
          "internalType": "uint256",
          "name": "length",
          "type": "uint256"
        }
      ],
      "name": "ECDSAInvalidSignatureLength",
      "type": "error"
    },
    {
      "inputs": [
        {
          "internalType": "bytes32",
          "name": "s",
          "type": "bytes32"
        }
      ],
      "name": "ECDSAInvalidSignatureS",
      "type": "error"
    },
    {
      "inputs": [
        {
          "internalType": "address",
          "name": "owner",
          "type": "address"
        }
      ],
      "name": "OwnableInvalidOwner",
      "type": "error"
    },
    {
      "inputs": [
        {
          "internalType": "address",
          "name": "account",
          "type": "address"
        }
      ],
      "name": "OwnableUnauthorizedAccount",
      "type": "error"
    },
    {
      "anonymous": false,
      "inputs": [
        {
          "indexed": true,
          "internalType": "address",
          "name": "previousOwner",
          "type": "address"
        },
        {
          "indexed": true,
          "internalType": "address",
          "name": "newOwner",
          "type": "address"
        }
      ],
      "name": "OwnershipTransferred",
      "type": "event"
    },
    {
      "anonymous": false,
      "inputs": [
        {
          "indexed": false,
          "internalType": "uint64",
          "name": "blockId",
          "type": "uint64"
        },
        {
          "indexed": false,
          "internalType": "address",
          "name": "prover",
          "type": "address"
        },
        {
          "indexed": false,
          "internalType": "uint256",
          "name": "amount",
          "type": "uint256"
        }
      ],
      "name": "RewardTransfered",
      "type": "event"
    },
    {
      "anonymous": false,
      "inputs": [
        {
          "indexed": true,
          "internalType": "bytes32",
          "name": "_messageHash",
          "type": "bytes32"
        },
        {
          "indexed": true,
          "internalType": "address",
          "name": "_signer",
          "type": "address"
        },
        {
          "indexed": true,
          "internalType": "bytes4",
          "name": "_magicValue",
          "type": "bytes4"
        }
      ],
      "name": "SignatureValidation",
      "type": "event"
    },
    {
      "inputs": [],
      "name": "apusTokenContract",
      "outputs": [
        {
          "internalType": "address",
          "name": "",
          "type": "address"
        }
      ],
      "stateMutability": "view",
      "type": "function",
      "constant": true
    },
    {
      "inputs": [],
      "name": "owner",
      "outputs": [
        {
          "internalType": "address",
          "name": "",
          "type": "address"
        }
      ],
      "stateMutability": "view",
      "type": "function",
      "constant": true
    },
    {
      "inputs": [],
      "name": "proofTaskContract",
      "outputs": [
        {
          "internalType": "address",
          "name": "",
          "type": "address"
        }
      ],
      "stateMutability": "view",
      "type": "function",
      "constant": true
    },
    {
      "inputs": [
        {
          "internalType": "uint256",
          "name": "",
          "type": "uint256"
        }
      ],
      "name": "pubkeys",
      "outputs": [
        {
          "internalType": "address",
          "name": "",
          "type": "address"
        }
      ],
      "stateMutability": "view",
      "type": "function",
      "constant": true
    },
    {
      "inputs": [],
      "name": "renounceOwnership",
      "outputs": [],
      "stateMutability": "nonpayable",
      "type": "function"
    },
    {
      "inputs": [
        {
          "internalType": "uint64",
          "name": "",
          "type": "uint64"
        }
      ],
      "name": "rewards",
      "outputs": [
        {
          "internalType": "address",
          "name": "prover",
          "type": "address"
        },
        {
          "internalType": "uint64",
          "name": "expiry",
          "type": "uint64"
        },
        {
          "internalType": "uint256",
          "name": "amount",
          "type": "uint256"
        }
      ],
      "stateMutability": "view",
      "type": "function",
      "constant": true
    },
    {
      "inputs": [
        {
          "internalType": "address",
          "name": "newOwner",
          "type": "address"
        }
      ],
      "name": "transferOwnership",
      "outputs": [],
      "stateMutability": "nonpayable",
      "type": "function"
    },
    {
      "inputs": [],
      "name": "ttkojToken",
      "outputs": [
        {
          "internalType": "contract IERC20",
          "name": "",
          "type": "address"
        }
      ],
      "stateMutability": "view",
      "type": "function",
      "constant": true
    },
    {
      "inputs": [
        {
          "internalType": "bytes32",
          "name": "_messageHash",
          "type": "bytes32"
        },
        {
          "internalType": "bytes",
          "name": "_signature",
          "type": "bytes"
        }
      ],
      "name": "isValidSignature",
      "outputs": [
        {
          "internalType": "bytes4",
          "name": "magicValue",
          "type": "bytes4"
        }
      ],
      "stateMutability": "view",
      "type": "function",
      "constant": true
    },
    {
      "inputs": [
        {
          "internalType": "address",
          "name": "prover",
          "type": "address"
        }
      ],
      "name": "addProver",
      "outputs": [],
      "stateMutability": "nonpayable",
      "type": "function"
    },
    {
      "inputs": [
        {
          "internalType": "address",
          "name": "_proofTaskContract",
          "type": "address"
        }
      ],
      "name": "setProofTaskContract",
      "outputs": [],
      "stateMutability": "nonpayable",
      "type": "function"
    },
    {
      "inputs": [],
      "name": "getProofTaskContract",
      "outputs": [
        {
          "internalType": "address",
          "name": "",
          "type": "address"
        }
      ],
      "stateMutability": "view",
      "type": "function",
      "constant": true
    },
    {
      "inputs": [
        {
          "internalType": "string",
          "name": "source",
          "type": "string"
        }
      ],
      "name": "convert",
      "outputs": [
        {
          "internalType": "bytes32",
          "name": "result",
          "type": "bytes32"
        }
      ],
      "stateMutability": "pure",
      "type": "function",
      "constant": true
    },
    {
      "inputs": [
        {
          "internalType": "address",
          "name": "prover",
          "type": "address"
        },
        {
          "internalType": "uint256",
          "name": "clientId",
          "type": "uint256"
        },
        {
          "internalType": "uint256",
          "name": "expiry",
          "type": "uint256"
        },
        {
          "internalType": "bytes",
          "name": "signature",
          "type": "bytes"
        }
      ],
      "name": "genProofAssignment",
      "outputs": [
        {
          "internalType": "bytes",
          "name": "",
          "type": "bytes"
        }
      ],
      "stateMutability": "pure",
      "type": "function",
      "constant": true
    },
    {
      "inputs": [
        {
          "internalType": "uint64",
          "name": "blockId",
          "type": "uint64"
        },
        {
          "components": [
            {
              "internalType": "bytes32",
              "name": "txListHash",
              "type": "bytes32"
            },
            {
              "internalType": "address",
              "name": "proposer",
              "type": "address"
            },
            {
              "internalType": "uint24",
              "name": "txListByteStart",
              "type": "uint24"
            },
            {
              "internalType": "uint24",
              "name": "txListByteEnd",
              "type": "uint24"
            },
            {
              "internalType": "bool",
              "name": "cacheTxListInfo",
              "type": "bool"
            }
          ],
          "internalType": "struct TaikoData.BlockMetadataInput",
          "name": "input",
          "type": "tuple"
        },
        {
          "components": [
            {
              "internalType": "address",
              "name": "prover",
              "type": "address"
            },
            {
              "internalType": "uint64",
              "name": "expiry",
              "type": "uint64"
            },
            {
              "internalType": "bytes",
              "name": "data",
              "type": "bytes"
            }
          ],
          "internalType": "struct TaikoData.ProverAssignment",
          "name": "assignment",
          "type": "tuple"
        }
      ],
      "name": "onBlockAssigned",
      "outputs": [],
      "stateMutability": "payable",
      "type": "function",
      "payable": true
    },
    {
      "inputs": [
        {
          "internalType": "uint64",
          "name": "blockId",
          "type": "uint64"
        }
      ],
      "name": "reward",
      "outputs": [],
      "stateMutability": "payable",
      "type": "function",
      "payable": true
    },
    {
      "inputs": [
        {
          "internalType": "uint256",
          "name": "amount",
          "type": "uint256"
        }
      ],
      "name": "rewardApusToken",
      "outputs": [],
      "stateMutability": "nonpayable",
      "type": "function"
    },
    {
      "inputs": [
        {
          "internalType": "address",
          "name": "_spender",
          "type": "address"
        },
        {
          "internalType": "uint256",
          "name": "_value",
          "type": "uint256"
        }
      ],
      "name": "approveTTKOj",
      "outputs": [],
      "stateMutability": "nonpayable",
      "type": "function"
    },
    {
      "inputs": [
        {
          "internalType": "bytes4",
          "name": "interfaceId",
          "type": "bytes4"
        }
      ],
      "name": "supportsInterface",
      "outputs": [
        {
          "internalType": "bool",
          "name": "",
          "type": "bool"
        }
      ],
      "stateMutability": "pure",
      "type": "function",
      "constant": true
    }
  ],
  "bytecode": "0x608060405234801562000010575f80fd5b50604051620024fc380380620024fc833981810160405281019062000036919062000229565b335f73ffffffffffffffffffffffffffffffffffffffff168173ffffffffffffffffffffffffffffffffffffffff1603620000aa575f6040517f1e4fbdf7000000000000000000000000000000000000000000000000000000008152600401620000a191906200026a565b60405180910390fd5b620000bb816200010360201b60201c565b508060025f6101000a81548173ffffffffffffffffffffffffffffffffffffffff021916908373ffffffffffffffffffffffffffffffffffffffff1602179055505062000285565b5f805f9054906101000a900473ffffffffffffffffffffffffffffffffffffffff169050815f806101000a81548173ffffffffffffffffffffffffffffffffffffffff021916908373ffffffffffffffffffffffffffffffffffffffff1602179055508173ffffffffffffffffffffffffffffffffffffffff168173ffffffffffffffffffffffffffffffffffffffff167f8be0079c531659141344cd1fd0a4f28419497f9722a3daafe3b4186f6b6457e060405160405180910390a35050565b5f80fd5b5f73ffffffffffffffffffffffffffffffffffffffff82169050919050565b5f620001f382620001c8565b9050919050565b6200020581620001e7565b811462000210575f80fd5b50565b5f815190506200022381620001fa565b92915050565b5f60208284031215620002415762000240620001c4565b5b5f620002508482850162000213565b91505092915050565b6200026481620001e7565b82525050565b5f6020820190506200027f5f83018462000259565b92915050565b61226980620002935f395ff3fe608060405260043610610113575f3560e01c80637bd3e3f61161009f578063ceeb4cab11610063578063ceeb4cab14610389578063e9740a21146103b3578063ee2a7e6e146103db578063f2fde38b14610403578063fc9b5c611461042b57610113565b80637bd3e3f6146102935780637be6efc1146102cf5780638da5cb5b146102f9578063962a64cd14610323578063ab14793a1461035f57610113565b80631d49e457116100e65780631d49e457146101d5578063357cbfc4146101fd5780633a901c35146102195780633c324f5914610255578063715018a61461027d57610113565b806301ffc9a71461011757806310dd0c351461015357806311fe7e431461017d5780631626ba7e14610199575b5f80fd5b348015610122575f80fd5b5061013d600480360381019061013891906112b7565b610469565b60405161014a91906112fc565b60405180910390f35b34801561015e575f80fd5b506101676104d2565b6040516101749190611354565b60405180910390f35b610197600480360381019061019291906113aa565b6104f7565b005b3480156101a4575f80fd5b506101bf60048036038101906101ba9190611544565b610652565b6040516101cc91906115ad565b60405180910390f35b3480156101e0575f80fd5b506101fb60048036038101906101f691906115f0565b61074c565b005b6102176004803603810190610212919061165b565b6107af565b005b348015610224575f80fd5b5061023f600480360381019061023a9190611757565b610975565b60405161024c9190611855565b60405180910390f35b348015610260575f80fd5b5061027b60048036038101906102769190611875565b610a20565b005b348015610288575f80fd5b50610291610b7a565b005b34801561029e575f80fd5b506102b960048036038101906102b491906118b3565b610b8d565b6040516102c69190611354565b60405180910390f35b3480156102da575f80fd5b506102e3610bc8565b6040516102f09190611354565b60405180910390f35b348015610304575f80fd5b5061030d610bf0565b60405161031a9190611354565b60405180910390f35b34801561032e575f80fd5b506103496004803603810190610344919061197c565b610c17565b60405161035691906119d2565b60405180910390f35b34801561036a575f80fd5b50610373610c3d565b6040516103809190611a46565b60405180910390f35b348015610394575f80fd5b5061039d610c62565b6040516103aa9190611354565b60405180910390f35b3480156103be575f80fd5b506103d960048036038101906103d491906115f0565b610c87565b005b3480156103e6575f80fd5b5061040160048036038101906103fc91906118b3565b610cca565b005b34801561040e575f80fd5b50610429600480360381019061042491906115f0565b610d5e565b005b348015610436575f80fd5b50610451600480360381019061044c91906113aa565b610de2565b60405161046093929190611a7d565b60405180910390f35b5f7f357cbfc4000000000000000000000000000000000000000000000000000000007bffffffffffffffffffffffffffffffffffffffffffffffffffffffff1916827bffffffffffffffffffffffffffffffffffffffffffffffffffffffff1916149050919050565b60045f9054906101000a900473ffffffffffffffffffffffffffffffffffffffff1681565b6104ff610e3a565b5f60055f8367ffffffffffffffff1667ffffffffffffffff1681526020019081526020015f206040518060600160405290815f82015f9054906101000a900473ffffffffffffffffffffffffffffffffffffffff1673ffffffffffffffffffffffffffffffffffffffff1673ffffffffffffffffffffffffffffffffffffffff1681526020015f820160149054906101000a900467ffffffffffffffff1667ffffffffffffffff1667ffffffffffffffff1681526020016001820154815250509050805f015173ffffffffffffffffffffffffffffffffffffffff166108fc826040015190811502906040515f60405180830381858888f1935050505015801561060b573d5f803e3d5ffd5b507fa0deca4dcb17de2cea2f22d4db345338cb795a93d3e6e5a56d822d4f25ae387082825f0151836040015160405161064693929190611ab2565b60405180910390a15050565b5f806106678385610ec190919063ffffffff16565b90505f5b60018054905081101561070a578173ffffffffffffffffffffffffffffffffffffffff16600182815481106106a3576106a2611ae7565b5b905f5260205f20015f9054906101000a900473ffffffffffffffffffffffffffffffffffffffff1673ffffffffffffffffffffffffffffffffffffffff16036106f757631626ba7e60e01b92505050610746565b808061070290611b41565b91505061066b565b506040517f08c379a000000000000000000000000000000000000000000000000000000000815260040161073d90611be2565b60405180910390fd5b92915050565b600181908060018154018082558091505060019003905f5260205f20015f9091909190916101000a81548173ffffffffffffffffffffffffffffffffffffffff021916908373ffffffffffffffffffffffffffffffffffffffff16021790555050565b5f8180604001906107c09190611c0c565b8101906107cd9190611d07565b905060035f9054906101000a900473ffffffffffffffffffffffffffffffffffffffff1673ffffffffffffffffffffffffffffffffffffffff1663fdd5dfd35f868660405160200161081f9190611ed2565b604051602081830303815290604052856040518563ffffffff1660e01b815260040161084e9493929190612015565b5f604051808303815f87803b158015610865575f80fd5b505af1158015610877573d5f803e3d5ffd5b505050506040518060600160405280825f015173ffffffffffffffffffffffffffffffffffffffff1681526020018360200160208101906108b891906113aa565b67ffffffffffffffff1681526020013481525060055f8667ffffffffffffffff1667ffffffffffffffff1681526020019081526020015f205f820151815f015f6101000a81548173ffffffffffffffffffffffffffffffffffffffff021916908373ffffffffffffffffffffffffffffffffffffffff1602179055506020820151815f0160146101000a81548167ffffffffffffffff021916908367ffffffffffffffff1602179055506040820151816001015590505050505050565b60605f60405180608001604052808873ffffffffffffffffffffffffffffffffffffffff16815260200187815260200186815260200185858080601f0160208091040260200160405190810160405280939291908181526020018383808284375f81840152601f19601f82011690508083019250505050505050815250905080604051602001610a059190612066565b60405160208183030381529060405291505095945050505050565b610a28610e3a565b5f73ffffffffffffffffffffffffffffffffffffffff168273ffffffffffffffffffffffffffffffffffffffff1603610a96576040517f08c379a0000000000000000000000000000000000000000000000000000000008152600401610a8d906120d0565b60405180910390fd5b5f60025f9054906101000a900473ffffffffffffffffffffffffffffffffffffffff1673ffffffffffffffffffffffffffffffffffffffff1663095ea7b384846040518363ffffffff1660e01b8152600401610af39291906120ee565b6020604051808303815f875af1158015610b0f573d5f803e3d5ffd5b505050506040513d601f19601f82011682018060405250810190610b339190612129565b905080610b75576040517f08c379a0000000000000000000000000000000000000000000000000000000008152600401610b6c9061219e565b60405180910390fd5b505050565b610b82610e3a565b610b8b5f610eeb565b565b60018181548110610b9c575f80fd5b905f5260205f20015f915054906101000a900473ffffffffffffffffffffffffffffffffffffffff1681565b5f60035f9054906101000a900473ffffffffffffffffffffffffffffffffffffffff16905090565b5f805f9054906101000a900473ffffffffffffffffffffffffffffffffffffffff16905090565b5f808290505f815103610c2f575f801b915050610c38565b60208301519150505b919050565b60025f9054906101000a900473ffffffffffffffffffffffffffffffffffffffff1681565b60035f9054906101000a900473ffffffffffffffffffffffffffffffffffffffff1681565b8060035f6101000a81548173ffffffffffffffffffffffffffffffffffffffff021916908373ffffffffffffffffffffffffffffffffffffffff16021790555050565b610cd2610e3a565b60045f9054906101000a900473ffffffffffffffffffffffffffffffffffffffff1673ffffffffffffffffffffffffffffffffffffffff166340c10f1930836040518363ffffffff1660e01b8152600401610d2e9291906120ee565b5f604051808303815f87803b158015610d45575f80fd5b505af1158015610d57573d5f803e3d5ffd5b5050505050565b610d66610e3a565b5f73ffffffffffffffffffffffffffffffffffffffff168173ffffffffffffffffffffffffffffffffffffffff1603610dd6575f6040517f1e4fbdf7000000000000000000000000000000000000000000000000000000008152600401610dcd9190611354565b60405180910390fd5b610ddf81610eeb565b50565b6005602052805f5260405f205f91509050805f015f9054906101000a900473ffffffffffffffffffffffffffffffffffffffff1690805f0160149054906101000a900467ffffffffffffffff16908060010154905083565b610e42610fac565b73ffffffffffffffffffffffffffffffffffffffff16610e60610bf0565b73ffffffffffffffffffffffffffffffffffffffff1614610ebf57610e83610fac565b6040517f118cdaa7000000000000000000000000000000000000000000000000000000008152600401610eb69190611354565b60405180910390fd5b565b5f805f80610ecf8686610fb3565b925092509250610edf8282611008565b82935050505092915050565b5f805f9054906101000a900473ffffffffffffffffffffffffffffffffffffffff169050815f806101000a81548173ffffffffffffffffffffffffffffffffffffffff021916908373ffffffffffffffffffffffffffffffffffffffff1602179055508173ffffffffffffffffffffffffffffffffffffffff168173ffffffffffffffffffffffffffffffffffffffff167f8be0079c531659141344cd1fd0a4f28419497f9722a3daafe3b4186f6b6457e060405160405180910390a35050565b5f33905090565b5f805f6041845103610ff3575f805f602087015192506040870151915060608701515f1a9050610fe58882858561116a565b955095509550505050611001565b5f600285515f1b9250925092505b9250925092565b5f600381111561101b5761101a611eeb565b5b82600381111561102e5761102d611eeb565b5b0315611166576001600381111561104857611047611eeb565b5b82600381111561105b5761105a611eeb565b5b03611092576040517ff645eedf00000000000000000000000000000000000000000000000000000000815260040160405180910390fd5b600260038111156110a6576110a5611eeb565b5b8260038111156110b9576110b8611eeb565b5b036110fd57805f1c6040517ffce698f70000000000000000000000000000000000000000000000000000000081526004016110f491906121bc565b60405180910390fd5b6003808111156111105761110f611eeb565b5b82600381111561112357611122611eeb565b5b0361116557806040517fd78bce0c00000000000000000000000000000000000000000000000000000000815260040161115c91906119d2565b60405180910390fd5b5b5050565b5f805f7f7fffffffffffffffffffffffffffffff5d576e7357a4501ddfe92f46681b20a0845f1c11156111a6575f600385925092509250611247565b5f6001888888886040515f81526020016040526040516111c994939291906121f0565b6020604051602081039080840390855afa1580156111e9573d5f803e3d5ffd5b5050506020604051035190505f73ffffffffffffffffffffffffffffffffffffffff168173ffffffffffffffffffffffffffffffffffffffff160361123a575f60015f801b93509350935050611247565b805f805f1b935093509350505b9450945094915050565b5f604051905090565b5f80fd5b5f80fd5b5f7fffffffff0000000000000000000000000000000000000000000000000000000082169050919050565b61129681611262565b81146112a0575f80fd5b50565b5f813590506112b18161128d565b92915050565b5f602082840312156112cc576112cb61125a565b5b5f6112d9848285016112a3565b91505092915050565b5f8115159050919050565b6112f6816112e2565b82525050565b5f60208201905061130f5f8301846112ed565b92915050565b5f73ffffffffffffffffffffffffffffffffffffffff82169050919050565b5f61133e82611315565b9050919050565b61134e81611334565b82525050565b5f6020820190506113675f830184611345565b92915050565b5f67ffffffffffffffff82169050919050565b6113898161136d565b8114611393575f80fd5b50565b5f813590506113a481611380565b92915050565b5f602082840312156113bf576113be61125a565b5b5f6113cc84828501611396565b91505092915050565b5f819050919050565b6113e7816113d5565b81146113f1575f80fd5b50565b5f81359050611402816113de565b92915050565b5f80fd5b5f80fd5b5f601f19601f8301169050919050565b7f4e487b71000000000000000000000000000000000000000000000000000000005f52604160045260245ffd5b61145682611410565b810181811067ffffffffffffffff8211171561147557611474611420565b5b80604052505050565b5f611487611251565b9050611493828261144d565b919050565b5f67ffffffffffffffff8211156114b2576114b1611420565b5b6114bb82611410565b9050602081019050919050565b828183375f83830152505050565b5f6114e86114e384611498565b61147e565b9050828152602081018484840111156115045761150361140c565b5b61150f8482856114c8565b509392505050565b5f82601f83011261152b5761152a611408565b5b813561153b8482602086016114d6565b91505092915050565b5f806040838503121561155a5761155961125a565b5b5f611567858286016113f4565b925050602083013567ffffffffffffffff8111156115885761158761125e565b5b61159485828601611517565b9150509250929050565b6115a781611262565b82525050565b5f6020820190506115c05f83018461159e565b92915050565b6115cf81611334565b81146115d9575f80fd5b50565b5f813590506115ea816115c6565b92915050565b5f602082840312156116055761160461125a565b5b5f611612848285016115dc565b91505092915050565b5f80fd5b5f60a082840312156116345761163361161b565b5b81905092915050565b5f606082840312156116525761165161161b565b5b81905092915050565b5f805f60e084860312156116725761167161125a565b5b5f61167f86828701611396565b93505060206116908682870161161f565b92505060c084013567ffffffffffffffff8111156116b1576116b061125e565b5b6116bd8682870161163d565b9150509250925092565b5f819050919050565b6116d9816116c7565b81146116e3575f80fd5b50565b5f813590506116f4816116d0565b92915050565b5f80fd5b5f80fd5b5f8083601f84011261171757611716611408565b5b8235905067ffffffffffffffff811115611734576117336116fa565b5b6020830191508360018202830111156117505761174f6116fe565b5b9250929050565b5f805f805f608086880312156117705761176f61125a565b5b5f61177d888289016115dc565b955050602061178e888289016116e6565b945050604061179f888289016116e6565b935050606086013567ffffffffffffffff8111156117c0576117bf61125e565b5b6117cc88828901611702565b92509250509295509295909350565b5f81519050919050565b5f82825260208201905092915050565b5f5b838110156118125780820151818401526020810190506117f7565b5f8484015250505050565b5f611827826117db565b61183181856117e5565b93506118418185602086016117f5565b61184a81611410565b840191505092915050565b5f6020820190508181035f83015261186d818461181d565b905092915050565b5f806040838503121561188b5761188a61125a565b5b5f611898858286016115dc565b92505060206118a9858286016116e6565b9150509250929050565b5f602082840312156118c8576118c761125a565b5b5f6118d5848285016116e6565b91505092915050565b5f67ffffffffffffffff8211156118f8576118f7611420565b5b61190182611410565b9050602081019050919050565b5f61192061191b846118de565b61147e565b90508281526020810184848401111561193c5761193b61140c565b5b6119478482856114c8565b509392505050565b5f82601f83011261196357611962611408565b5b813561197384826020860161190e565b91505092915050565b5f602082840312156119915761199061125a565b5b5f82013567ffffffffffffffff8111156119ae576119ad61125e565b5b6119ba8482850161194f565b91505092915050565b6119cc816113d5565b82525050565b5f6020820190506119e55f8301846119c3565b92915050565b5f819050919050565b5f611a0e611a09611a0484611315565b6119eb565b611315565b9050919050565b5f611a1f826119f4565b9050919050565b5f611a3082611a15565b9050919050565b611a4081611a26565b82525050565b5f602082019050611a595f830184611a37565b92915050565b611a688161136d565b82525050565b611a77816116c7565b82525050565b5f606082019050611a905f830186611345565b611a9d6020830185611a5f565b611aaa6040830184611a6e565b949350505050565b5f606082019050611ac55f830186611a5f565b611ad26020830185611345565b611adf6040830184611a6e565b949350505050565b7f4e487b71000000000000000000000000000000000000000000000000000000005f52603260045260245ffd5b7f4e487b71000000000000000000000000000000000000000000000000000000005f52601160045260245ffd5b5f611b4b826116c7565b91507fffffffffffffffffffffffffffffffffffffffffffffffffffffffffffffffff8203611b7d57611b7c611b14565b5b600182019050919050565b5f82825260208201905092915050565b7f756e76616c6964207369676e61747572650000000000000000000000000000005f82015250565b5f611bcc601183611b88565b9150611bd782611b98565b602082019050919050565b5f6020820190508181035f830152611bf981611bc0565b9050919050565b5f80fd5b5f80fd5b5f80fd5b5f8083356001602003843603038112611c2857611c27611c00565b5b80840192508235915067ffffffffffffffff821115611c4a57611c49611c04565b5b602083019250600182023603831315611c6657611c65611c08565b5b509250929050565b5f80fd5b5f80fd5b5f60808284031215611c8b57611c8a611c6e565b5b611c95608061147e565b90505f611ca4848285016115dc565b5f830152506020611cb7848285016116e6565b6020830152506040611ccb848285016116e6565b604083015250606082013567ffffffffffffffff811115611cef57611cee611c72565b5b611cfb84828501611517565b60608301525092915050565b5f60208284031215611d1c57611d1b61125a565b5b5f82013567ffffffffffffffff811115611d3957611d3861125e565b5b611d4584828501611c76565b91505092915050565b5f611d5c60208401846113f4565b905092915050565b611d6d816113d5565b82525050565b5f611d8160208401846115dc565b905092915050565b611d9281611334565b82525050565b5f62ffffff82169050919050565b611daf81611d98565b8114611db9575f80fd5b50565b5f81359050611dca81611da6565b92915050565b5f611dde6020840184611dbc565b905092915050565b611def81611d98565b82525050565b611dfe816112e2565b8114611e08575f80fd5b50565b5f81359050611e1981611df5565b92915050565b5f611e2d6020840184611e0b565b905092915050565b611e3e816112e2565b82525050565b60a08201611e545f830183611d4e565b611e605f850182611d64565b50611e6e6020830183611d73565b611e7b6020850182611d89565b50611e896040830183611dd0565b611e966040850182611de6565b50611ea46060830183611dd0565b611eb16060850182611de6565b50611ebf6080830183611e1f565b611ecc6080850182611e35565b50505050565b5f60a082019050611ee55f830184611e44565b92915050565b7f4e487b71000000000000000000000000000000000000000000000000000000005f52602160045260245ffd5b60018110611f2957611f28611eeb565b5b50565b5f819050611f3982611f18565b919050565b5f611f4882611f2c565b9050919050565b611f5881611f3e565b82525050565b611f67816116c7565b82525050565b5f82825260208201905092915050565b5f611f87826117db565b611f918185611f6d565b9350611fa18185602086016117f5565b611faa81611410565b840191505092915050565b5f608083015f830151611fca5f860182611d89565b506020830151611fdd6020860182611f5e565b506040830151611ff06040860182611f5e565b50606083015184820360608601526120088282611f7d565b9150508091505092915050565b5f6080820190506120285f830187611f4f565b6120356020830186611a5f565b8181036040830152612047818561181d565b9050818103606083015261205b8184611fb5565b905095945050505050565b5f6020820190508181035f83015261207e8184611fb5565b905092915050565b7f417070726f766520746f207a65726f20616464726573730000000000000000005f82015250565b5f6120ba601783611b88565b91506120c582612086565b602082019050919050565b5f6020820190508181035f8301526120e7816120ae565b9050919050565b5f6040820190506121015f830185611345565b61210e6020830184611a6e565b9392505050565b5f8151905061212381611df5565b92915050565b5f6020828403121561213e5761213d61125a565b5b5f61214b84828501612115565b91505092915050565b7f417070726f7665206661696c65640000000000000000000000000000000000005f82015250565b5f612188600e83611b88565b915061219382612154565b602082019050919050565b5f6020820190508181035f8301526121b58161217c565b9050919050565b5f6020820190506121cf5f830184611a6e565b92915050565b5f60ff82169050919050565b6121ea816121d5565b82525050565b5f6080820190506122035f8301876119c3565b61221060208301866121e1565b61221d60408301856119c3565b61222a60608301846119c3565b9594505050505056fea2646970667358221220731499c07d0ed5a1767985939f11899511a7bd62c91790d569d1890f9db7fd6b64736f6c63430008140033",
  "immutableReferences": {},
  "source": "// SPDX-License-Identifier: MIT\npragma solidity ^0.8.20;\n\nimport {TaikoData} from \"./TaikoData.sol\";\nimport {ApusData} from \"./ApusData.sol\";\nimport {IReward, IProver, IProofTask} from \"./ApusInterface.sol\";\nimport {Ownable} from \"@openzeppelin/contracts/access/Ownable.sol\";\nimport \"@openzeppelin/contracts/token/ERC20/IERC20.sol\";\nimport \"@openzeppelin/contracts/utils/cryptography/ECDSA.sol\";\n// import \"@openzeppelin/contracts/utils/Address.sol\";\n\ninterface IERC1271 {\n    function isValidSignature(bytes32 _messageHash, bytes memory _signature) external view returns (bytes4 magicValue);\n    event SignatureValidation(bytes32 indexed _messageHash, address indexed _signer, bytes4 indexed _magicValue);\n}\n\n\n//  ERC20 \ninterface IERC20Mintable {\n    function mint(address to, uint256 amount) external;\n}\n\ncontract ApusTaikoProverPool is IProver, IReward, IERC1271, Ownable {\n    using ECDSA for bytes32;\n\n    // using Address for address;\n    address[] public pubkeys;\n    bytes4 private constant _INTERFACE_ID_ERC1271 = 0x1626ba7e;\n    IERC20 public ttkojToken;\n\n    constructor(address _ttkojAddress) Ownable(msg.sender) {\n        unchecked {\n            ttkojToken = IERC20(_ttkojAddress);\n        }\n    }\n\n    // \n    // modifier onlyOwner {\n    //     require(msg.sender == owner, \"Caller is not owner\");\n    //     _;\n    // }\n\n    // IProofTask\n    address public proofTaskContract;\n    // Apus ERC20\n    address public apusTokenContract;\n\n    function isValidSignature(bytes32 _messageHash, bytes memory _signature) public view override returns (bytes4 magicValue) {\n        address signer = _messageHash.recover(_signature);\n        for (uint256 i = 0; i < pubkeys.length; i++) {\n            if (pubkeys[i] == signer) {\n                return _INTERFACE_ID_ERC1271;\n            }\n        }\n        revert(\"unvalid signature\");\n    }\n\n    // not safe add ownerable after test\n    function addProver(address prover) public {\n        pubkeys.push(prover);\n    }\n\n    // IProofTask\n    function setProofTaskContract(address _proofTaskContract) external {\n        proofTaskContract = _proofTaskContract;\n    }\n\n    // IProofTask\n    function getProofTaskContract() external view returns (address) {\n        return proofTaskContract;\n    }\n\n    struct Reward {\n        address prover;\n        uint64 expiry;\n        uint256 amount;\n    }\n    \n    event RewardTransfered(\n        uint64 blockId,\n        address prover,\n        uint256 amount\n    );\n\n    // blockID\n    mapping(uint64 => Reward) public rewards;\n\n    function convert(string memory source) public pure returns (bytes32 result) {\n        bytes memory tempEmptyStringTest = bytes(source);\n        if (tempEmptyStringTest.length == 0) {\n            return 0x0;\n        }\n\n        assembly {\n            result := mload(add(source, 32))\n        }\n    }\n\n\n    // ApusData.ProofAssignmentencodebytes\n    function genProofAssignment(address prover, uint256 clientId, uint256 expiry, bytes calldata signature) public pure returns (bytes memory) {\n        ApusData.ProofAssignment memory assignment = ApusData.ProofAssignment({\n            prover: prover,\n            clientId: clientId,\n            expiry: expiry,\n            signature: signature\n        });\n        return abi.encode(assignment);\n    }\n\n    function onBlockAssigned(\n        uint64 blockId,\n        TaikoData.BlockMetadataInput calldata input,\n        TaikoData.ProverAssignment calldata assignment\n    ) external payable {\n        // assignment.data -> ProofAssignment\n        ApusData.ProofAssignment memory apusAssignment = abi.decode(assignment.data, (ApusData.ProofAssignment));\n        // IProofTaskbindTask\n        IProofTask(proofTaskContract).bindTask(\n            ApusData.TaskType.TaikoZKEvm,\n            blockId,\n            abi.encode(input),\n            apusAssignment\n        );\n        // \n        rewards[blockId] = Reward({\n            prover: apusAssignment.prover,\n            expiry: assignment.expiry,\n            amount: msg.value\n        });\n    }\n\n    function reward(uint64 blockId) external payable onlyOwner {\n        // \n        Reward memory rewardList = rewards[blockId];\n        // \n        payable(rewardList.prover).transfer(rewardList.amount);\n        // \n        emit RewardTransfered(blockId, rewardList.prover, rewardList.amount);\n    }\n\n    function rewardApusToken(uint256 amount) external onlyOwner {\n        // ERC20 mint token\n        IERC20Mintable(apusTokenContract).mint(address(this), amount);\n        // token\n    }\n\n    function approveTTKOj(address _spender, uint256 _value) external onlyOwner {\n        require(_spender != address(0), \"Approve to zero address\");\n        // ERC20approvemsg.sender\n        bool success = ttkojToken.approve(_spender, _value);\n        require(success, \"Approve failed\");\n    }\n\n    function supportsInterface(bytes4 interfaceId) external pure returns (bool) {\n        return interfaceId == type(IProver).interfaceId;\n    }\n}\n",
  "sourcePath": "/Users/irongyi/solidity_project/apus_zkp_market/contracts/ApusTaikoProverPool.sol",
  "compiler": {
    "name": "solc",
    "version": "0.8.20+commit.a1b79de6.Emscripten.clang"
  },
  "schemaVersion": "3.4.16",
  "updatedAt": "2023-11-03T04:32:57.128Z",
  "networkType": "ethereum",
  "devdoc": {
    "errors": {
      "ECDSAInvalidSignature()": [
        {
          "details": "The signature derives the `address(0)`."
        }
      ],
      "ECDSAInvalidSignatureLength(uint256)": [
        {
          "details": "The signature has an invalid length."
        }
      ],
      "ECDSAInvalidSignatureS(bytes32)": [
        {
          "details": "The signature has an S value that is in the upper half order."
        }
      ],
      "OwnableInvalidOwner(address)": [
        {
          "details": "The owner is not a valid owner account. (eg. `address(0)`)"
        }
      ],
      "OwnableUnauthorizedAccount(address)": [
        {
          "details": "The caller account is not authorized to perform an operation."
        }
      ]
    },
    "kind": "dev",
    "methods": {
      "onBlockAssigned(uint64,(bytes32,address,uint24,uint24,bool),(address,uint64,bytes))": {
        "params": {
          "assignment": "The assignment to evaluate",
          "blockId": "The ID of the proposed block. Note that the ID is only known when the block is proposed, therefore, it should not be used for verifying prover authorization.",
          "input": "The block's BlockMetadataInput data."
        }
      },
      "owner()": {
        "details": "Returns the address of the current owner."
      },
      "renounceOwnership()": {
        "details": "Leaves the contract without owner. It will not be possible to call `onlyOwner` functions. Can only be called by the current owner. NOTE: Renouncing ownership will leave the contract without an owner, thereby disabling any functionality that is only available to the owner."
      },
      "transferOwnership(address)": {
        "details": "Transfers ownership of the contract to a new account (`newOwner`). Can only be called by the current owner."
      }
    },
    "version": 1
  },
  "userdoc": {
    "kind": "user",
    "methods": {
      "onBlockAssigned(uint64,(bytes32,address,uint24,uint24,bool),(address,uint64,bytes))": {
        "notice": "Assigns a prover to a specific block or reverts if this prover is not available."
      }
    },
    "version": 1
  }
}