{
  "contractName": "ApusToken",
  "abi": [
    {
      "inputs": [],
      "name": "get",
      "outputs": [],
      "stateMutability": "view",
      "type": "function",
      "constant": true
    }
  ],
  "bytecode": "0x608060405234801561000f575f80fd5b506102d88061001d5f395ff3fe608060405234801561000f575f80fd5b5060043610610029575f3560e01c80636d4ce63c1461002d575b5f80fd5b610035610037565b005b5f6005905061007b6040518060400160405280600981526020017f636f756e743a202564000000000000000000000000000000000000000000000081525082610086565b610083610122565b50565b61011e828260405160240161009c929190610274565b6040516020818303038152906040527fb60e72cc000000000000000000000000000000000000000000000000000000007bffffffffffffffffffffffffffffffffffffffffffffffffffffffff19166020820180517bffffffffffffffffffffffffffffffffffffffffffffffffffffffff83818316178352505050506101af565b5050565b6101ad6040516024016040516020818303038152906040527f51973ec9000000000000000000000000000000000000000000000000000000007bffffffffffffffffffffffffffffffffffffffffffffffffffffffff19166020820180517bffffffffffffffffffffffffffffffffffffffffffffffffffffffff83818316178352505050506101af565b565b5f6a636f6e736f6c652e6c6f6790508151602083015f808383865afa5050505050565b5f81519050919050565b5f82825260208201905092915050565b5f5b838110156102095780820151818401526020810190506101ee565b5f8484015250505050565b5f601f19601f8301169050919050565b5f61022e826101d2565b61023881856101dc565b93506102488185602086016101ec565b61025181610214565b840191505092915050565b5f819050919050565b61026e8161025c565b82525050565b5f6040820190508181035f83015261028c8185610224565b905061029b6020830184610265565b939250505056fea264697066735822122066adee824f06674f24447a760a7c5af3755a88dc782121cdcaa4e77861c185ad64736f6c63430008140033",
  "immutableReferences": {},
  "source": "// SPDX-License-Identifier: MIT\npragma solidity ^0.8.20;\n\nimport \"./console.sol\";\n\ncontract ApusToken {\n    // Search the n'st lowest price prover \n\n    function get() public view {\n        uint256 count = 5;\n        console.log('count: %d', count);\n        console.log();\n    }\n}",
  "sourcePath": "/Users/irongyi/solidity_project/apus_zkp_market/contracts/token.sol",
  "compiler": {
    "name": "solc",
    "version": "0.8.20+commit.a1b79de6.Emscripten.clang"
  },
  "schemaVersion": "3.4.16",
  "updatedAt": "2023-11-03T04:32:57.725Z",
  "networkType": "ethereum",
  "devdoc": {
    "kind": "dev",
    "methods": {},
    "version": 1
  },
  "userdoc": {
    "kind": "user",
    "methods": {},
    "version": 1
  }
}