{
  "contractName": "Billing",
  "abi": [
    {
      "inputs": [
        {
          "internalType": "string",
          "name": "a",
          "type": "string"
        },
        {
          "internalType": "string",
          "name": "b",
          "type": "string"
        }
      ],
      "name": "concatenateStrings",
      "outputs": [
        {
          "internalType": "string",
          "name": "",
          "type": "string"
        }
      ],
      "stateMutability": "pure",
      "type": "function"
    },
    {
      "inputs": [
        {
          "internalType": "uint256",
          "name": "",
          "type": "uint256"
        }
      ],
      "name": "devices",
      "outputs": [
        {
          "internalType": "uint256",
          "name": "id",
          "type": "uint256"
        },
        {
          "internalType": "address",
          "name": "owner",
          "type": "address"
        },
        {
          "internalType": "enum DeviceStatus",
          "name": "status",
          "type": "uint8"
        },
        {
          "internalType": "string",
          "name": "machineId",
          "type": "string"
        },
        {
          "internalType": "string",
          "name": "serverInfo",
          "type": "string"
        },
        {
          "components": [
            {
              "internalType": "uint256",
              "name": "serverPrice",
              "type": "uint256"
            },
            {
              "internalType": "uint256",
              "name": "storagePrice",
              "type": "uint256"
            },
            {
              "internalType": "uint256",
              "name": "upbandWidth",
              "type": "uint256"
            },
            {
              "internalType": "uint256",
              "name": "downbandWidth",
              "type": "uint256"
            }
          ],
          "internalType": "struct Price",
          "name": "price",
          "type": "tuple"
        }
      ],
      "stateMutability": "view",
      "type": "function"
    },
    {
      "inputs": [
        {
          "internalType": "uint256",
          "name": "_deviceId",
          "type": "uint256"
        }
      ],
      "name": "getLeaseByDeviceId",
      "outputs": [
        {
          "components": [
            {
              "internalType": "address",
              "name": "owner",
              "type": "address"
            },
            {
              "internalType": "uint256",
              "name": "leaseId",
              "type": "uint256"
            },
            {
              "internalType": "uint256",
              "name": "startTime",
              "type": "uint256"
            },
            {
              "internalType": "uint256",
              "name": "expireTime",
              "type": "uint256"
            },
            {
              "internalType": "uint256",
              "name": "deviceId",
              "type": "uint256"
            }
          ],
          "internalType": "struct providerLeaseInfo",
          "name": "",
          "type": "tuple"
        }
      ],
      "stateMutability": "view",
      "type": "function"
    },
    {
      "inputs": [
        {
          "internalType": "uint256",
          "name": "",
          "type": "uint256"
        }
      ],
      "name": "leaseProvider",
      "outputs": [
        {
          "internalType": "address",
          "name": "owner",
          "type": "address"
        },
        {
          "internalType": "uint256",
          "name": "leaseId",
          "type": "uint256"
        },
        {
          "internalType": "uint256",
          "name": "startTime",
          "type": "uint256"
        },
        {
          "internalType": "uint256",
          "name": "expireTime",
          "type": "uint256"
        },
        {
          "internalType": "uint256",
          "name": "deviceId",
          "type": "uint256"
        }
      ],
      "stateMutability": "view",
      "type": "function"
    },
    {
      "inputs": [],
      "name": "platformSharingRatio",
      "outputs": [
        {
          "internalType": "uint8",
          "name": "",
          "type": "uint8"
        }
      ],
      "stateMutability": "view",
      "type": "function"
    },
    {
      "inputs": [
        {
          "internalType": "uint256",
          "name": "",
          "type": "uint256"
        }
      ],
      "name": "providerBillings",
      "outputs": [
        {
          "internalType": "address",
          "name": "user",
          "type": "address"
        },
        {
          "internalType": "uint256",
          "name": "id",
          "type": "uint256"
        },
        {
          "internalType": "uint256",
          "name": "leaseId",
          "type": "uint256"
        },
        {
          "internalType": "uint256",
          "name": "providerBlockedFund",
          "type": "uint256"
        },
        {
          "internalType": "uint256",
          "name": "recipientBlockedFunds",
          "type": "uint256"
        },
        {
          "internalType": "uint256",
          "name": "amount",
          "type": "uint256"
        },
        {
          "internalType": "enum billingStatus",
          "name": "status",
          "type": "uint8"
        },
        {
          "internalType": "enum billingType",
          "name": "billType",
          "type": "uint8"
        }
      ],
      "stateMutability": "view",
      "type": "function"
    },
    {
      "inputs": [
        {
          "internalType": "uint256",
          "name": "_startTime",
          "type": "uint256"
        },
        {
          "internalType": "uint256",
          "name": "_endTime",
          "type": "uint256"
        },
        {
          "components": [
            {
              "internalType": "uint256",
              "name": "serverPrice",
              "type": "uint256"
            },
            {
              "internalType": "uint256",
              "name": "storagePrice",
              "type": "uint256"
            },
            {
              "internalType": "uint256",
              "name": "upbandWidth",
              "type": "uint256"
            },
            {
              "internalType": "uint256",
              "name": "downbandWidth",
              "type": "uint256"
            }
          ],
          "internalType": "struct Price",
          "name": "_price",
          "type": "tuple"
        }
      ],
      "name": "providerStakeCalcute",
      "outputs": [
        {
          "internalType": "uint256",
          "name": "",
          "type": "uint256"
        }
      ],
      "stateMutability": "pure",
      "type": "function"
    },
    {
      "inputs": [
        {
          "internalType": "uint256",
          "name": "number",
          "type": "uint256"
        }
      ],
      "name": "uintToString",
      "outputs": [
        {
          "internalType": "string",
          "name": "",
          "type": "string"
        }
      ],
      "stateMutability": "pure",
      "type": "function"
    },
    {
      "inputs": [
        {
          "internalType": "uint256",
          "name": "_leaseId",
          "type": "uint256"
        }
      ],
      "name": "getProviderBillingByLeaseId",
      "outputs": [
        {
          "components": [
            {
              "internalType": "address",
              "name": "user",
              "type": "address"
            },
            {
              "internalType": "uint256",
              "name": "id",
              "type": "uint256"
            },
            {
              "internalType": "uint256",
              "name": "leaseId",
              "type": "uint256"
            },
            {
              "internalType": "uint256",
              "name": "providerBlockedFund",
              "type": "uint256"
            },
            {
              "internalType": "uint256",
              "name": "recipientBlockedFunds",
              "type": "uint256"
            },
            {
              "internalType": "uint256",
              "name": "amount",
              "type": "uint256"
            },
            {
              "internalType": "enum billingStatus",
              "name": "status",
              "type": "uint8"
            },
            {
              "internalType": "enum billingType",
              "name": "billType",
              "type": "uint8"
            }
          ],
          "internalType": "struct billingInfo",
          "name": "",
          "type": "tuple"
        }
      ],
      "stateMutability": "view",
      "type": "function"
    }
  ],
  "bytecode": "0x60806040525f80555f6002555f60035f6101000a81548160ff021916908360ff1602179055505f600555348015610034575f80fd5b50611743806100425f395ff3fe608060405234801561000f575f80fd5b5060043610610091575f3560e01c8063a3a4aff411610064578063a3a4aff414610161578063c46dcec514610191578063c74ce95c146101c5578063d67b9afd146101e3578063e93956791461021357610091565b80630f35ceb71461009557806310ff8e31146100c55780636020948e146100fa5780637a36b3ee14610131575b5f80fd5b6100af60048036038101906100aa9190610c07565b610243565b6040516100bc9190610dd9565b60405180910390f35b6100df60048036038101906100da9190610c07565b610407565b6040516100f196959493929190610f34565b60405180910390f35b610114600480360381019061010f9190610c07565b6105b7565b604051610128989796959493929190610fc0565b60405180910390f35b61014b60048036038101906101469190611168565b610642565b60405161015891906111de565b60405180910390f35b61017b60048036038101906101769190611277565b6107cb565b60405161018891906112c7565b60405180910390f35b6101ab60048036038101906101a69190610c07565b6107ef565b6040516101bc9594939291906112e0565b60405180910390f35b6101cd61084f565b6040516101da919061134c565b60405180910390f35b6101fd60048036038101906101f89190610c07565b610861565b60405161020a91906113cb565b60405180910390f35b61022d60048036038101906102289190610c07565b6109a5565b60405161023a91906111de565b60405180910390f35b61024b610b0c565b5f5b6006805490508110156103c657826006828154811061026f5761026e6113e4565b5b905f5260205f20906007020160020154036103b35760068181548110610298576102976113e4565b5b905f5260205f209060070201604051806101000160405290815f82015f9054906101000a900473ffffffffffffffffffffffffffffffffffffffff1673ffffffffffffffffffffffffffffffffffffffff1673ffffffffffffffffffffffffffffffffffffffff1681526020016001820154815260200160028201548152602001600382015481526020016004820154815260200160058201548152602001600682015f9054906101000a900460ff16600281111561035a57610359610c80565b5b600281111561036c5761036b610c80565b5b81526020016006820160019054906101000a900460ff16600281111561039557610394610c80565b5b60028111156103a7576103a6610c80565b5b81525050915050610402565b80806103be9061143e565b91505061024d565b506040517f08c379a00000000000000000000000000000000000000000000000000000000081526004016103f9906114cf565b60405180910390fd5b919050565b60018181548110610416575f80fd5b905f5260205f2090600802015f91509050805f015490806001015f9054906101000a900473ffffffffffffffffffffffffffffffffffffffff16908060010160149054906101000a900460ff16908060020180546104739061151a565b80601f016020809104026020016040519081016040528092919081815260200182805461049f9061151a565b80156104ea5780601f106104c1576101008083540402835291602001916104ea565b820191905f5260205f20905b8154815290600101906020018083116104cd57829003601f168201915b5050505050908060030180546104ff9061151a565b80601f016020809104026020016040519081016040528092919081815260200182805461052b9061151a565b80156105765780601f1061054d57610100808354040283529160200191610576565b820191905f5260205f20905b81548152906001019060200180831161055957829003601f168201915b505050505090806004016040518060800160405290815f82015481526020016001820154815260200160028201548152602001600382015481525050905086565b600681815481106105c6575f80fd5b905f5260205f2090600702015f91509050805f015f9054906101000a900473ffffffffffffffffffffffffffffffffffffffff1690806001015490806002015490806003015490806004015490806005015490806006015f9054906101000a900460ff16908060060160019054906101000a900460ff16905088565b60605f8390505f8390505f8151835161065b919061154a565b67ffffffffffffffff81111561067457610673611044565b5b6040519080825280601f01601f1916602001820160405280156106a65781602001600182028036833780820191505090505b5090505f805b8451811015610733578481815181106106c8576106c76113e4565b5b602001015160f81c60f81b8383806106df9061143e565b9450815181106106f2576106f16113e4565b5b60200101907effffffffffffffffffffffffffffffffffffffffffffffffffffffffffffff191690815f1a905350808061072b9061143e565b9150506106ac565b505f5b83518110156107bd57838181518110610752576107516113e4565b5b602001015160f81c60f81b8383806107699061143e565b94508151811061077c5761077b6113e4565b5b60200101907effffffffffffffffffffffffffffffffffffffffffffffffffffffffffffff191690815f1a90535080806107b59061143e565b915050610736565b508194505050505092915050565b5f83836107d8919061157d565b825f01516107e691906115b0565b90509392505050565b600481815481106107fe575f80fd5b905f5260205f2090600502015f91509050805f015f9054906101000a900473ffffffffffffffffffffffffffffffffffffffff16908060010154908060020154908060030154908060040154905085565b60035f9054906101000a900460ff1681565b610869610b83565b5f5b60048054905081101561096457826004828154811061088d5761088c6113e4565b5b905f5260205f209060050201600401540361095157600481815481106108b6576108b56113e4565b5b905f5260205f2090600502016040518060a00160405290815f82015f9054906101000a900473ffffffffffffffffffffffffffffffffffffffff1673ffffffffffffffffffffffffffffffffffffffff1673ffffffffffffffffffffffffffffffffffffffff1681526020016001820154815260200160028201548152602001600382015481526020016004820154815250509150506109a0565b808061095c9061143e565b91505061086b565b506040517f08c379a00000000000000000000000000000000000000000000000000000000081526004016109979061163b565b60405180910390fd5b919050565b60605f82036109eb576040518060400160405280600181526020017f30000000000000000000000000000000000000000000000000000000000000008152509050610b07565b5f8290505f5b5f8214610a1a578080610a039061143e565b915050600a82610a139190611686565b91506109f1565b5f8167ffffffffffffffff811115610a3557610a34611044565b5b6040519080825280601f01601f191660200182016040528015610a675781602001600182028036833780820191505090505b5090505f600183610a78919061157d565b90505b5f8614610aff57600a86610a8f91906116b6565b6030610a9b919061154a565b60f81b828280610aaa906116e6565b935081518110610abd57610abc6113e4565b5b60200101907effffffffffffffffffffffffffffffffffffffffffffffffffffffffffffff191690815f1a905350600a86610af89190611686565b9550610a7b565b819450505050505b919050565b6040518061010001604052805f73ffffffffffffffffffffffffffffffffffffffff1681526020015f81526020015f81526020015f81526020015f81526020015f81526020015f6002811115610b6557610b64610c80565b5b81526020015f6002811115610b7d57610b7c610c80565b5b81525090565b6040518060a001604052805f73ffffffffffffffffffffffffffffffffffffffff1681526020015f81526020015f81526020015f81526020015f81525090565b5f604051905090565b5f80fd5b5f80fd5b5f819050919050565b610be681610bd4565b8114610bf0575f80fd5b50565b5f81359050610c0181610bdd565b92915050565b5f60208284031215610c1c57610c1b610bcc565b5b5f610c2984828501610bf3565b91505092915050565b5f73ffffffffffffffffffffffffffffffffffffffff82169050919050565b5f610c5b82610c32565b9050919050565b610c6b81610c51565b82525050565b610c7a81610bd4565b82525050565b7f4e487b71000000000000000000000000000000000000000000000000000000005f52602160045260245ffd5b60038110610cbe57610cbd610c80565b5b50565b5f819050610cce82610cad565b919050565b5f610cdd82610cc1565b9050919050565b610ced81610cd3565b82525050565b60038110610d0457610d03610c80565b5b50565b5f819050610d1482610cf3565b919050565b5f610d2382610d07565b9050919050565b610d3381610d19565b82525050565b61010082015f820151610d4e5f850182610c62565b506020820151610d616020850182610c71565b506040820151610d746040850182610c71565b506060820151610d876060850182610c71565b506080820151610d9a6080850182610c71565b5060a0820151610dad60a0850182610c71565b5060c0820151610dc060c0850182610ce4565b5060e0820151610dd360e0850182610d2a565b50505050565b5f61010082019050610ded5f830184610d39565b92915050565b610dfc81610bd4565b82525050565b610e0b81610c51565b82525050565b60048110610e2257610e21610c80565b5b50565b5f819050610e3282610e11565b919050565b5f610e4182610e25565b9050919050565b610e5181610e37565b82525050565b5f81519050919050565b5f82825260208201905092915050565b5f5b83811015610e8e578082015181840152602081019050610e73565b5f8484015250505050565b5f601f19601f8301169050919050565b5f610eb382610e57565b610ebd8185610e61565b9350610ecd818560208601610e71565b610ed681610e99565b840191505092915050565b608082015f820151610ef55f850182610c71565b506020820151610f086020850182610c71565b506040820151610f1b6040850182610c71565b506060820151610f2e6060850182610c71565b50505050565b5f61012082019050610f485f830189610df3565b610f556020830188610e02565b610f626040830187610e48565b8181036060830152610f748186610ea9565b90508181036080830152610f888185610ea9565b9050610f9760a0830184610ee1565b979650505050505050565b610fab81610cd3565b82525050565b610fba81610d19565b82525050565b5f61010082019050610fd45f83018b610e02565b610fe1602083018a610df3565b610fee6040830189610df3565b610ffb6060830188610df3565b6110086080830187610df3565b61101560a0830186610df3565b61102260c0830185610fa2565b61102f60e0830184610fb1565b9998505050505050505050565b5f80fd5b5f80fd5b7f4e487b71000000000000000000000000000000000000000000000000000000005f52604160045260245ffd5b61107a82610e99565b810181811067ffffffffffffffff8211171561109957611098611044565b5b80604052505050565b5f6110ab610bc3565b90506110b78282611071565b919050565b5f67ffffffffffffffff8211156110d6576110d5611044565b5b6110df82610e99565b9050602081019050919050565b828183375f83830152505050565b5f61110c611107846110bc565b6110a2565b90508281526020810184848401111561112857611127611040565b5b6111338482856110ec565b509392505050565b5f82601f83011261114f5761114e61103c565b5b813561115f8482602086016110fa565b91505092915050565b5f806040838503121561117e5761117d610bcc565b5b5f83013567ffffffffffffffff81111561119b5761119a610bd0565b5b6111a78582860161113b565b925050602083013567ffffffffffffffff8111156111c8576111c7610bd0565b5b6111d48582860161113b565b9150509250929050565b5f6020820190508181035f8301526111f68184610ea9565b905092915050565b5f80fd5b5f60808284031215611217576112166111fe565b5b61122160806110a2565b90505f61123084828501610bf3565b5f83015250602061124384828501610bf3565b602083015250604061125784828501610bf3565b604083015250606061126b84828501610bf3565b60608301525092915050565b5f805f60c0848603121561128e5761128d610bcc565b5b5f61129b86828701610bf3565b93505060206112ac86828701610bf3565b92505060406112bd86828701611202565b9150509250925092565b5f6020820190506112da5f830184610df3565b92915050565b5f60a0820190506112f35f830188610e02565b6113006020830187610df3565b61130d6040830186610df3565b61131a6060830185610df3565b6113276080830184610df3565b9695505050505050565b5f60ff82169050919050565b61134681611331565b82525050565b5f60208201905061135f5f83018461133d565b92915050565b60a082015f8201516113795f850182610c62565b50602082015161138c6020850182610c71565b50604082015161139f6040850182610c71565b5060608201516113b26060850182610c71565b5060808201516113c56080850182610c71565b50505050565b5f60a0820190506113de5f830184611365565b92915050565b7f4e487b71000000000000000000000000000000000000000000000000000000005f52603260045260245ffd5b7f4e487b71000000000000000000000000000000000000000000000000000000005f52601160045260245ffd5b5f61144882610bd4565b91507fffffffffffffffffffffffffffffffffffffffffffffffffffffffffffffffff820361147a57611479611411565b5b600182019050919050565b7f63616e27742066696e642062696c6c696e6721000000000000000000000000005f82015250565b5f6114b9601383610e61565b91506114c482611485565b602082019050919050565b5f6020820190508181035f8301526114e6816114ad565b9050919050565b7f4e487b71000000000000000000000000000000000000000000000000000000005f52602260045260245ffd5b5f600282049050600182168061153157607f821691505b602082108103611544576115436114ed565b5b50919050565b5f61155482610bd4565b915061155f83610bd4565b925082820190508082111561157757611576611411565b5b92915050565b5f61158782610bd4565b915061159283610bd4565b92508282039050818111156115aa576115a9611411565b5b92915050565b5f6115ba82610bd4565b91506115c583610bd4565b92508282026115d381610bd4565b915082820484148315176115ea576115e9611411565b5b5092915050565b7f63616e27742066696e64206c65617365210000000000000000000000000000005f82015250565b5f611625601183610e61565b9150611630826115f1565b602082019050919050565b5f6020820190508181035f83015261165281611619565b9050919050565b7f4e487b71000000000000000000000000000000000000000000000000000000005f52601260045260245ffd5b5f61169082610bd4565b915061169b83610bd4565b9250826116ab576116aa611659565b5b828204905092915050565b5f6116c082610bd4565b91506116cb83610bd4565b9250826116db576116da611659565b5b828206905092915050565b5f6116f082610bd4565b91505f820361170257611701611411565b5b60018203905091905056fea2646970667358221220eb65f5c8e5fe8213b1051d509eb1fd6ad14ec101fa857251689ed0a702ed8b4464736f6c63430008150033",
  "immutableReferences": {},
  "source": "// SPDX-License-Identifier: SEE LICENSE IN LICENSE\npragma solidity ^0.8.0;\n\nimport \"./device.sol\";\n\nenum leaseType {Machine, Developer}\nenum billingStatus {UnPayed, Payed, UnValid}\nenum billingType {ProviderStake, DeveloperRent, TreasureBilling}\n\nstruct billingInfo {\n    address user;\n    // token, \n    uint id;\n    uint leaseId;\n    uint providerBlockedFund;\n    uint recipientBlockedFunds;\n    // \n    uint amount;  // , , lease\n    billingStatus status;\n    billingType billType;\n}\n\nstruct providerLeaseInfo {\n    address owner;\n    uint leaseId;\n    uint startTime;\n    uint expireTime;\n    uint deviceId;\n}\n\ncontract Lease is Device {\n    uint private leaseId = 0;\n    uint8 public platformSharingRatio = 0;\n\n\n    providerLeaseInfo [] public leaseProvider;\n    // leaseInfo [] public leaseDeveloper;\n\n    function onlineLease(address _owner, uint _devcieId, uint _startTime, uint _endTime) internal returns(uint){\n        leaseId = leaseId + 1;\n        // deviceInfo memory device = devices[_devcieId];\n        leaseProvider.push(providerLeaseInfo(_owner, leaseId, _startTime, _endTime, _devcieId));\n        return leaseId;\n    }\n\n    function providerStakeCalcute(uint _startTime, uint _endTime, Price memory _price) pure public returns(uint) {\n        return _price.serverPrice * (_endTime - _startTime);\n    }\n\n    function getLeaseByDeviceId(uint _deviceId) view public returns(providerLeaseInfo memory) {\n        for (uint i = 0; i < leaseProvider.length; i++) {\n            if (leaseProvider[i].deviceId == _deviceId) {\n                return leaseProvider[i];\n            }\n        }\n\n        revert(\"can't find lease!\");\n    }\n\n\n    // function renewalLease(uint _leaseId, uint _period) internal {\n\n    //     uint _index = 0;\n    //     (, _index) = getLeaseInfo(_leaseId);\n    //     require(leases[_index].recipient == msg.sender, \"only recipient can renewal lease\");\n    //     require(leases[_index].expireTime > block.timestamp, \"lease always expire\");\n\n    //     leases[_index].expireTime = leases[_index].expireTime + _period;\n    //     leases[_index].billing.fee = leases[_index].billing.fee + _period * (leases[_index].expireTime- leases[_index].startTime);\n    // }\n\n    // function expireLease(uint _leaseId) internal returns (uint index, billingInfo memory bInfo){\n    //     uint _index;\n    //     // leaseInfo memory _lInfo;\n    //     (, _index) = getLeaseInfo(_leaseId);\n        \n    //     leases[_index].billing.status = billingStatus.payed;\n    //     return (_index, leases[_index].billing);\n    // }\n\n    // function getLeaseInfo(uint _leaseId) private view returns (leaseInfo memory info, uint index){\n    //     for (uint i = 0; i < leases.length; i++) {\n    //         if (leases[i].leaseId == _leaseId) {\n    //             return (leases[i], i);\n    //         }\n    //     }\n    //     revert(concatenateStrings(\"unknown lease_id: \", uintToString(_leaseId)));\n    // }\n\n    function concatenateStrings(string memory a, string memory b) public pure returns (string memory) {\n        bytes memory strA = bytes(a);\n        bytes memory strB = bytes(b);\n\n        bytes memory result = new bytes(strA.length + strB.length);\n        \n        uint256 k = 0;\n        for (uint256 i = 0; i < strA.length; i++) {\n            result[k++] = strA[i];\n        }\n        \n        for (uint256 i = 0; i < strB.length; i++) {\n            result[k++] = strB[i];\n        }\n        \n        return string(result);\n    }\n\n    function uintToString(uint256 number) public pure returns (string memory) {\n        if (number == 0) {\n            return \"0\";\n        }\n        \n        uint256 temp = number;\n        uint256 digits;\n        \n        while (temp != 0) {\n            digits++;\n            temp /= 10;\n        }\n        \n        bytes memory buffer = new bytes(digits);\n        uint256 _index = digits - 1;\n        \n        while (number != 0) {\n            buffer[_index--] = bytes1(uint8(48 + number % 10));\n            number /= 10;\n        }\n        \n        return string(buffer);\n    }\n}\n\n// contract Billing is Lease{\n\n//     function settle(billingInfo memory _billingInfo) internal {\n\n//     }\n\n//     function invalid(billingInfo memory _billInfo) internal{\n\n//     }\n// }\n\ncontract Billing is Lease {\n    uint private providerBillingCounter = 0;\n    billingInfo [] public providerBillings;\n\n    function getProviderBillingByLeaseId(uint _leaseId) view public returns(billingInfo memory) {\n        for (uint i = 0; i < providerBillings.length; i++) {\n            if (providerBillings[i].leaseId == _leaseId) {\n                return providerBillings[i];\n            }\n        }\n        revert(\"can't find billing!\");\n    }\n\n    function providerOfflineBilling(uint _billId) internal {\n        if (providerBillings[_billId - 1].status == billingStatus.Payed) {\n            revert(\"stake amount has already unblocked\");\n        }\n        providerBillings[_billId - 1].status = billingStatus.Payed;\n    }\n\n    function providerOnlineBilling(uint _leaseId, uint _stakeAmount) internal {\n        // , \n        providerBillingCounter = providerBillingCounter + 1;\n        providerBillings.push(billingInfo(msg.sender, providerBillingCounter, _leaseId, _stakeAmount, 0, 0, billingStatus.UnPayed, billingType.ProviderStake));\n    }\n}\n\n\n// struct billingInfo {\n//     address user;\n//     // token, \n//     uint providerBlockedFund;\n//     uint recipientBlockedFunds;\n//     // \n//     uint amount;  // , , lease\n//     billingStatus status;\n//     billingType billType;\n// }",
  "sourcePath": "/Users/irongyi/solidity_project/apus_network_v0/contracts/lease.sol",
  "compiler": {
    "name": "solc",
    "version": "0.8.21+commit.d9974bed.Emscripten.clang"
  },
  "schemaVersion": "3.4.15",
  "updatedAt": "2023-09-06T08:12:53.497Z",
  "devdoc": {
    "kind": "dev",
    "methods": {},
    "version": 1
  },
  "userdoc": {
    "kind": "user",
    "methods": {},
    "version": 1
  }
}