{
  "contractName": "Billing",
  "abi": [
    {
      "inputs": [
        {
          "internalType": "string",
          "name": "a",
          "type": "string"
        },
        {
          "internalType": "string",
          "name": "b",
          "type": "string"
        }
      ],
      "name": "concatenateStrings",
      "outputs": [
        {
          "internalType": "string",
          "name": "",
          "type": "string"
        }
      ],
      "stateMutability": "pure",
      "type": "function"
    },
    {
      "inputs": [
        {
          "internalType": "uint256",
          "name": "",
          "type": "uint256"
        }
      ],
      "name": "devices",
      "outputs": [
        {
          "internalType": "uint256",
          "name": "id",
          "type": "uint256"
        },
        {
          "internalType": "address",
          "name": "owner",
          "type": "address"
        },
        {
          "internalType": "enum DeviceStatus",
          "name": "status",
          "type": "uint8"
        },
        {
          "internalType": "string",
          "name": "machineId",
          "type": "string"
        },
        {
          "internalType": "string",
          "name": "serverInfo",
          "type": "string"
        },
        {
          "components": [
            {
              "internalType": "uint256",
              "name": "serverPrice",
              "type": "uint256"
            },
            {
              "internalType": "uint256",
              "name": "storagePrice",
              "type": "uint256"
            },
            {
              "internalType": "uint256",
              "name": "upbandWidth",
              "type": "uint256"
            },
            {
              "internalType": "uint256",
              "name": "downbandWidth",
              "type": "uint256"
            }
          ],
          "internalType": "struct Price",
          "name": "price",
          "type": "tuple"
        }
      ],
      "stateMutability": "view",
      "type": "function"
    },
    {
      "inputs": [
        {
          "internalType": "uint256",
          "name": "_deviceId",
          "type": "uint256"
        }
      ],
      "name": "getDevice",
      "outputs": [
        {
          "components": [
            {
              "internalType": "uint256",
              "name": "id",
              "type": "uint256"
            },
            {
              "internalType": "address",
              "name": "owner",
              "type": "address"
            },
            {
              "internalType": "enum DeviceStatus",
              "name": "status",
              "type": "uint8"
            },
            {
              "internalType": "string",
              "name": "machineId",
              "type": "string"
            },
            {
              "internalType": "string",
              "name": "serverInfo",
              "type": "string"
            },
            {
              "components": [
                {
                  "internalType": "uint256",
                  "name": "serverPrice",
                  "type": "uint256"
                },
                {
                  "internalType": "uint256",
                  "name": "storagePrice",
                  "type": "uint256"
                },
                {
                  "internalType": "uint256",
                  "name": "upbandWidth",
                  "type": "uint256"
                },
                {
                  "internalType": "uint256",
                  "name": "downbandWidth",
                  "type": "uint256"
                }
              ],
              "internalType": "struct Price",
              "name": "price",
              "type": "tuple"
            }
          ],
          "internalType": "struct deviceInfo",
          "name": "",
          "type": "tuple"
        }
      ],
      "stateMutability": "view",
      "type": "function"
    },
    {
      "inputs": [
        {
          "internalType": "uint256",
          "name": "_deviceId",
          "type": "uint256"
        }
      ],
      "name": "getLeaseByDeviceId",
      "outputs": [
        {
          "components": [
            {
              "internalType": "address",
              "name": "owner",
              "type": "address"
            },
            {
              "internalType": "uint256",
              "name": "leaseId",
              "type": "uint256"
            },
            {
              "internalType": "uint256",
              "name": "startTime",
              "type": "uint256"
            },
            {
              "internalType": "uint256",
              "name": "expireTime",
              "type": "uint256"
            },
            {
              "internalType": "uint256",
              "name": "deviceId",
              "type": "uint256"
            }
          ],
          "internalType": "struct leaseInfo",
          "name": "",
          "type": "tuple"
        }
      ],
      "stateMutability": "view",
      "type": "function"
    },
    {
      "inputs": [
        {
          "internalType": "uint256",
          "name": "",
          "type": "uint256"
        }
      ],
      "name": "leaseProvider",
      "outputs": [
        {
          "internalType": "address",
          "name": "owner",
          "type": "address"
        },
        {
          "internalType": "uint256",
          "name": "leaseId",
          "type": "uint256"
        },
        {
          "internalType": "uint256",
          "name": "startTime",
          "type": "uint256"
        },
        {
          "internalType": "uint256",
          "name": "expireTime",
          "type": "uint256"
        },
        {
          "internalType": "uint256",
          "name": "deviceId",
          "type": "uint256"
        }
      ],
      "stateMutability": "view",
      "type": "function"
    },
    {
      "inputs": [
        {
          "internalType": "uint256",
          "name": "",
          "type": "uint256"
        }
      ],
      "name": "leaseRecipient",
      "outputs": [
        {
          "internalType": "address",
          "name": "owner",
          "type": "address"
        },
        {
          "internalType": "uint256",
          "name": "leaseId",
          "type": "uint256"
        },
        {
          "internalType": "uint256",
          "name": "startTime",
          "type": "uint256"
        },
        {
          "internalType": "uint256",
          "name": "expireTime",
          "type": "uint256"
        },
        {
          "internalType": "uint256",
          "name": "deviceId",
          "type": "uint256"
        }
      ],
      "stateMutability": "view",
      "type": "function"
    },
    {
      "inputs": [],
      "name": "platformSharingRatio",
      "outputs": [
        {
          "internalType": "uint8",
          "name": "",
          "type": "uint8"
        }
      ],
      "stateMutability": "view",
      "type": "function"
    },
    {
      "inputs": [
        {
          "internalType": "uint256",
          "name": "",
          "type": "uint256"
        }
      ],
      "name": "providerBillings",
      "outputs": [
        {
          "internalType": "address",
          "name": "user",
          "type": "address"
        },
        {
          "internalType": "uint256",
          "name": "id",
          "type": "uint256"
        },
        {
          "internalType": "uint256",
          "name": "leaseId",
          "type": "uint256"
        },
        {
          "internalType": "uint256",
          "name": "providerBlockedFund",
          "type": "uint256"
        },
        {
          "internalType": "uint256",
          "name": "recipientBlockedFunds",
          "type": "uint256"
        },
        {
          "internalType": "uint256",
          "name": "amount",
          "type": "uint256"
        },
        {
          "internalType": "enum billingStatus",
          "name": "status",
          "type": "uint8"
        },
        {
          "internalType": "enum billingType",
          "name": "billType",
          "type": "uint8"
        }
      ],
      "stateMutability": "view",
      "type": "function"
    },
    {
      "inputs": [
        {
          "internalType": "uint256",
          "name": "_startTime",
          "type": "uint256"
        },
        {
          "internalType": "uint256",
          "name": "_endTime",
          "type": "uint256"
        },
        {
          "components": [
            {
              "internalType": "uint256",
              "name": "serverPrice",
              "type": "uint256"
            },
            {
              "internalType": "uint256",
              "name": "storagePrice",
              "type": "uint256"
            },
            {
              "internalType": "uint256",
              "name": "upbandWidth",
              "type": "uint256"
            },
            {
              "internalType": "uint256",
              "name": "downbandWidth",
              "type": "uint256"
            }
          ],
          "internalType": "struct Price",
          "name": "_price",
          "type": "tuple"
        }
      ],
      "name": "providerStakeCalcute",
      "outputs": [
        {
          "internalType": "uint256",
          "name": "",
          "type": "uint256"
        }
      ],
      "stateMutability": "pure",
      "type": "function"
    },
    {
      "inputs": [
        {
          "internalType": "uint256",
          "name": "",
          "type": "uint256"
        }
      ],
      "name": "recipientBillings",
      "outputs": [
        {
          "internalType": "address",
          "name": "user",
          "type": "address"
        },
        {
          "internalType": "uint256",
          "name": "id",
          "type": "uint256"
        },
        {
          "internalType": "uint256",
          "name": "leaseId",
          "type": "uint256"
        },
        {
          "internalType": "uint256",
          "name": "providerBlockedFund",
          "type": "uint256"
        },
        {
          "internalType": "uint256",
          "name": "recipientBlockedFunds",
          "type": "uint256"
        },
        {
          "internalType": "uint256",
          "name": "amount",
          "type": "uint256"
        },
        {
          "internalType": "enum billingStatus",
          "name": "status",
          "type": "uint8"
        },
        {
          "internalType": "enum billingType",
          "name": "billType",
          "type": "uint8"
        }
      ],
      "stateMutability": "view",
      "type": "function"
    },
    {
      "inputs": [
        {
          "internalType": "uint256",
          "name": "_startTime",
          "type": "uint256"
        },
        {
          "internalType": "uint256",
          "name": "_endTime",
          "type": "uint256"
        },
        {
          "components": [
            {
              "internalType": "uint256",
              "name": "serverPrice",
              "type": "uint256"
            },
            {
              "internalType": "uint256",
              "name": "storagePrice",
              "type": "uint256"
            },
            {
              "internalType": "uint256",
              "name": "upbandWidth",
              "type": "uint256"
            },
            {
              "internalType": "uint256",
              "name": "downbandWidth",
              "type": "uint256"
            }
          ],
          "internalType": "struct Price",
          "name": "_price",
          "type": "tuple"
        }
      ],
      "name": "recipientStakeCalcute",
      "outputs": [
        {
          "internalType": "uint256",
          "name": "",
          "type": "uint256"
        }
      ],
      "stateMutability": "pure",
      "type": "function"
    },
    {
      "inputs": [
        {
          "internalType": "uint256",
          "name": "_leaseId",
          "type": "uint256"
        }
      ],
      "name": "terminateLease",
      "outputs": [
        {
          "components": [
            {
              "internalType": "address",
              "name": "owner",
              "type": "address"
            },
            {
              "internalType": "uint256",
              "name": "leaseId",
              "type": "uint256"
            },
            {
              "internalType": "uint256",
              "name": "startTime",
              "type": "uint256"
            },
            {
              "internalType": "uint256",
              "name": "expireTime",
              "type": "uint256"
            },
            {
              "internalType": "uint256",
              "name": "deviceId",
              "type": "uint256"
            }
          ],
          "internalType": "struct leaseInfo",
          "name": "",
          "type": "tuple"
        }
      ],
      "stateMutability": "nonpayable",
      "type": "function"
    },
    {
      "inputs": [
        {
          "internalType": "uint256",
          "name": "number",
          "type": "uint256"
        }
      ],
      "name": "uintToString",
      "outputs": [
        {
          "internalType": "string",
          "name": "",
          "type": "string"
        }
      ],
      "stateMutability": "pure",
      "type": "function"
    },
    {
      "inputs": [
        {
          "internalType": "uint256",
          "name": "_leaseId",
          "type": "uint256"
        }
      ],
      "name": "getRecipientBillingByLeaseId",
      "outputs": [
        {
          "components": [
            {
              "internalType": "address",
              "name": "user",
              "type": "address"
            },
            {
              "internalType": "uint256",
              "name": "id",
              "type": "uint256"
            },
            {
              "internalType": "uint256",
              "name": "leaseId",
              "type": "uint256"
            },
            {
              "internalType": "uint256",
              "name": "providerBlockedFund",
              "type": "uint256"
            },
            {
              "internalType": "uint256",
              "name": "recipientBlockedFunds",
              "type": "uint256"
            },
            {
              "internalType": "uint256",
              "name": "amount",
              "type": "uint256"
            },
            {
              "internalType": "enum billingStatus",
              "name": "status",
              "type": "uint8"
            },
            {
              "internalType": "enum billingType",
              "name": "billType",
              "type": "uint8"
            }
          ],
          "internalType": "struct billingInfo",
          "name": "",
          "type": "tuple"
        }
      ],
      "stateMutability": "view",
      "type": "function"
    },
    {
      "inputs": [
        {
          "internalType": "uint256",
          "name": "_leaseId",
          "type": "uint256"
        }
      ],
      "name": "getProviderBillingByLeaseId",
      "outputs": [
        {
          "components": [
            {
              "internalType": "address",
              "name": "user",
              "type": "address"
            },
            {
              "internalType": "uint256",
              "name": "id",
              "type": "uint256"
            },
            {
              "internalType": "uint256",
              "name": "leaseId",
              "type": "uint256"
            },
            {
              "internalType": "uint256",
              "name": "providerBlockedFund",
              "type": "uint256"
            },
            {
              "internalType": "uint256",
              "name": "recipientBlockedFunds",
              "type": "uint256"
            },
            {
              "internalType": "uint256",
              "name": "amount",
              "type": "uint256"
            },
            {
              "internalType": "enum billingStatus",
              "name": "status",
              "type": "uint8"
            },
            {
              "internalType": "enum billingType",
              "name": "billType",
              "type": "uint8"
            }
          ],
          "internalType": "struct billingInfo",
          "name": "",
          "type": "tuple"
        }
      ],
      "stateMutability": "view",
      "type": "function"
    }
  ],
  "bytecode": "0x60806040525f80555f6002555f6003555f60045f6101000a81548160ff021916908360ff1602179055505f6007555f60085534801561003c575f80fd5b5061219b8061004a5f395ff3fe608060405234801561000f575f80fd5b50600436106100f3575f3560e01c80637a36b3ee11610095578063c74ce95c11610064578063c74ce95c1461031b578063d67b9afd14610339578063dee4006f14610369578063e9395679146103a0576100f3565b80637a36b3ee14610257578063a3a4aff414610287578063aca8d5b4146102b7578063c46dcec5146102e7576100f3565b806310ff8e31116100d157806310ff8e311461018757806311b800eb146101bc578063588e00a5146101f05780636020948e14610220576100f3565b806309f110b1146100f75780630b92426d146101275780630f35ceb714610157575b5f80fd5b610111600480360381019061010c919061149f565b6103d0565b60405161011e91906116f6565b60405180910390f35b610141600480360381019061013c9190611807565b61064b565b60405161014e9190611866565b60405180910390f35b610171600480360381019061016c919061149f565b61066f565b60405161017e91906119ab565b60405180910390f35b6101a1600480360381019061019c919061149f565b610833565b6040516101b396959493929190611a7e565b60405180910390f35b6101d660048036038101906101d1919061149f565b6109e3565b6040516101e7959493929190611aec565b60405180910390f35b61020a6004803603810190610205919061149f565b610a43565b6040516102179190611ba3565b60405180910390f35b61023a6004803603810190610235919061149f565b610b39565b60405161024e989796959493929190611bda565b60405180910390f35b610271600480360381019061026c9190611d0a565b610bc4565b60405161027e9190611d80565b60405180910390f35b6102a1600480360381019061029c9190611807565b610d4d565b6040516102ae9190611866565b60405180910390f35b6102d160048036038101906102cc919061149f565b610d9f565b6040516102de91906119ab565b60405180910390f35b61030160048036038101906102fc919061149f565b610f63565b604051610312959493929190611aec565b60405180910390f35b610323610fc3565b6040516103309190611dbb565b60405180910390f35b610353600480360381019061034e919061149f565b610fd5565b6040516103609190611ba3565b60405180910390f35b610383600480360381019061037e919061149f565b61112d565b604051610397989796959493929190611bda565b60405180910390f35b6103ba60048036038101906103b5919061149f565b6111b8565b6040516103c79190611d80565b60405180910390f35b6103d861131f565b5f821161041a576040517f08c379a000000000000000000000000000000000000000000000000000000000815260040161041190611e1e565b60405180910390fd5b600180836104289190611e69565b8154811061043957610438611e9c565b5b905f5260205f2090600802016040518060c00160405290815f8201548152602001600182015f9054906101000a900473ffffffffffffffffffffffffffffffffffffffff1673ffffffffffffffffffffffffffffffffffffffff1673ffffffffffffffffffffffffffffffffffffffff1681526020016001820160149054906101000a900460ff1660038111156104d3576104d2611518565b5b60038111156104e5576104e4611518565b5b81526020016002820180546104f990611ef6565b80601f016020809104026020016040519081016040528092919081815260200182805461052590611ef6565b80156105705780601f1061054757610100808354040283529160200191610570565b820191905f5260205f20905b81548152906001019060200180831161055357829003601f168201915b5050505050815260200160038201805461058990611ef6565b80601f01602080910402602001604051908101604052809291908181526020018280546105b590611ef6565b80156106005780601f106105d757610100808354040283529160200191610600565b820191905f5260205f20905b8154815290600101906020018083116105e357829003601f168201915b50505050508152602001600482016040518060800160405290815f82015481526020016001820154815260200160028201548152602001600382015481525050815250509050919050565b5f83836106589190611e69565b825f01516106669190611f26565b90509392505050565b610677611380565b5f5b6009805490508110156107f257826009828154811061069b5761069a611e9c565b5b905f5260205f20906007020160020154036107df57600981815481106106c4576106c3611e9c565b5b905f5260205f209060070201604051806101000160405290815f82015f9054906101000a900473ffffffffffffffffffffffffffffffffffffffff1673ffffffffffffffffffffffffffffffffffffffff1673ffffffffffffffffffffffffffffffffffffffff1681526020016001820154815260200160028201548152602001600382015481526020016004820154815260200160058201548152602001600682015f9054906101000a900460ff16600281111561078657610785611518565b5b600281111561079857610797611518565b5b81526020016006820160019054906101000a900460ff1660028111156107c1576107c0611518565b5b60028111156107d3576107d2611518565b5b8152505091505061082e565b80806107ea90611f67565b915050610679565b506040517f08c379a000000000000000000000000000000000000000000000000000000000815260040161082590611ff8565b60405180910390fd5b919050565b60018181548110610842575f80fd5b905f5260205f2090600802015f91509050805f015490806001015f9054906101000a900473ffffffffffffffffffffffffffffffffffffffff16908060010160149054906101000a900460ff169080600201805461089f90611ef6565b80601f01602080910402602001604051908101604052809291908181526020018280546108cb90611ef6565b80156109165780601f106108ed57610100808354040283529160200191610916565b820191905f5260205f20905b8154815290600101906020018083116108f957829003601f168201915b50505050509080600301805461092b90611ef6565b80601f016020809104026020016040519081016040528092919081815260200182805461095790611ef6565b80156109a25780601f10610979576101008083540402835291602001916109a2565b820191905f5260205f20905b81548152906001019060200180831161098557829003601f168201915b505050505090806004016040518060800160405290815f82015481526020016001820154815260200160028201548152602001600382015481525050905086565b600681815481106109f2575f80fd5b905f5260205f2090600502015f91509050805f015f9054906101000a900473ffffffffffffffffffffffffffffffffffffffff16908060010154908060020154908060030154908060040154905085565b610a4b6113f7565b426006600184610a5b9190611e69565b81548110610a6c57610a6b611e9c565b5b905f5260205f209060050201600301819055506006600183610a8e9190611e69565b81548110610a9f57610a9e611e9c565b5b905f5260205f2090600502016040518060a00160405290815f82015f9054906101000a900473ffffffffffffffffffffffffffffffffffffffff1673ffffffffffffffffffffffffffffffffffffffff1673ffffffffffffffffffffffffffffffffffffffff1681526020016001820154815260200160028201548152602001600382015481526020016004820154815250509050919050565b60098181548110610b48575f80fd5b905f5260205f2090600702015f91509050805f015f9054906101000a900473ffffffffffffffffffffffffffffffffffffffff1690806001015490806002015490806003015490806004015490806005015490806006015f9054906101000a900460ff16908060060160019054906101000a900460ff16905088565b60605f8390505f8390505f81518351610bdd9190612016565b67ffffffffffffffff811115610bf657610bf561171a565b5b6040519080825280601f01601f191660200182016040528015610c285781602001600182028036833780820191505090505b5090505f805b8451811015610cb557848181518110610c4a57610c49611e9c565b5b602001015160f81c60f81b838380610c6190611f67565b945081518110610c7457610c73611e9c565b5b60200101907effffffffffffffffffffffffffffffffffffffffffffffffffffffffffffff191690815f1a9053508080610cad90611f67565b915050610c2e565b505f5b8351811015610d3f57838181518110610cd457610cd3611e9c565b5b602001015160f81c60f81b838380610ceb90611f67565b945081518110610cfe57610cfd611e9c565b5b60200101907effffffffffffffffffffffffffffffffffffffffffffffffffffffffffffff191690815f1a9053508080610d3790611f67565b915050610cb8565b508194505050505092915050565b5f610e108484610d5d9190611e69565b1115610d7b57610e10825f0151610d749190611f26565b9050610d98565b8383610d879190611e69565b825f0151610d959190611f26565b90505b9392505050565b610da7611380565b5f5b600a80549050811015610f225782600a8281548110610dcb57610dca611e9c565b5b905f5260205f2090600702016002015403610f0f5760098181548110610df457610df3611e9c565b5b905f5260205f209060070201604051806101000160405290815f82015f9054906101000a900473ffffffffffffffffffffffffffffffffffffffff1673ffffffffffffffffffffffffffffffffffffffff1673ffffffffffffffffffffffffffffffffffffffff1681526020016001820154815260200160028201548152602001600382015481526020016004820154815260200160058201548152602001600682015f9054906101000a900460ff166002811115610eb657610eb5611518565b5b6002811115610ec857610ec7611518565b5b81526020016006820160019054906101000a900460ff166002811115610ef157610ef0611518565b5b6002811115610f0357610f02611518565b5b81525050915050610f5e565b8080610f1a90611f67565b915050610da9565b506040517f08c379a0000000000000000000000000000000000000000000000000000000008152600401610f5590611ff8565b60405180910390fd5b919050565b60058181548110610f72575f80fd5b905f5260205f2090600502015f91509050805f015f9054906101000a900473ffffffffffffffffffffffffffffffffffffffff16908060010154908060020154908060030154908060040154905085565b60045f9054906101000a900460ff1681565b610fdd6113f7565b5f6001600580549050610ff09190611e69565b90505b6005805490508110156110ec57826005828154811061101557611014611e9c565b5b905f5260205f20906005020160040154036110d9576005818154811061103e5761103d611e9c565b5b905f5260205f2090600502016040518060a00160405290815f82015f9054906101000a900473ffffffffffffffffffffffffffffffffffffffff1673ffffffffffffffffffffffffffffffffffffffff1673ffffffffffffffffffffffffffffffffffffffff168152602001600182015481526020016002820154815260200160038201548152602001600482015481525050915050611128565b80806110e490612049565b915050610ff3565b506040517f08c379a000000000000000000000000000000000000000000000000000000000815260040161111f906120ba565b60405180910390fd5b919050565b600a818154811061113c575f80fd5b905f5260205f2090600702015f91509050805f015f9054906101000a900473ffffffffffffffffffffffffffffffffffffffff1690806001015490806002015490806003015490806004015490806005015490806006015f9054906101000a900460ff16908060060160019054906101000a900460ff16905088565b60605f82036111fe576040518060400160405280600181526020017f3000000000000000000000000000000000000000000000000000000000000000815250905061131a565b5f8290505f5b5f821461122d57808061121690611f67565b915050600a826112269190612105565b9150611204565b5f8167ffffffffffffffff8111156112485761124761171a565b5b6040519080825280601f01601f19166020018201604052801561127a5781602001600182028036833780820191505090505b5090505f60018361128b9190611e69565b90505b5f861461131257600a866112a29190612135565b60306112ae9190612016565b60f81b8282806112bd90612049565b9350815181106112d0576112cf611e9c565b5b60200101907effffffffffffffffffffffffffffffffffffffffffffffffffffffffffffff191690815f1a905350600a8661130b9190612105565b955061128e565b819450505050505b919050565b6040518060c001604052805f81526020015f73ffffffffffffffffffffffffffffffffffffffff1681526020015f600381111561135f5761135e611518565b5b8152602001606081526020016060815260200161137a611437565b81525090565b6040518061010001604052805f73ffffffffffffffffffffffffffffffffffffffff1681526020015f81526020015f81526020015f81526020015f81526020015f81526020015f60028111156113d9576113d8611518565b5b81526020015f60028111156113f1576113f0611518565b5b81525090565b6040518060a001604052805f73ffffffffffffffffffffffffffffffffffffffff1681526020015f81526020015f81526020015f81526020015f81525090565b60405180608001604052805f81526020015f81526020015f81526020015f81525090565b5f604051905090565b5f80fd5b5f80fd5b5f819050919050565b61147e8161146c565b8114611488575f80fd5b50565b5f8135905061149981611475565b92915050565b5f602082840312156114b4576114b3611464565b5b5f6114c18482850161148b565b91505092915050565b6114d38161146c565b82525050565b5f73ffffffffffffffffffffffffffffffffffffffff82169050919050565b5f611502826114d9565b9050919050565b611512816114f8565b82525050565b7f4e487b71000000000000000000000000000000000000000000000000000000005f52602160045260245ffd5b6004811061155657611555611518565b5b50565b5f81905061156682611545565b919050565b5f61157582611559565b9050919050565b6115858161156b565b82525050565b5f81519050919050565b5f82825260208201905092915050565b5f5b838110156115c25780820151818401526020810190506115a7565b5f8484015250505050565b5f601f19601f8301169050919050565b5f6115e78261158b565b6115f18185611595565b93506116018185602086016115a5565b61160a816115cd565b840191505092915050565b608082015f8201516116295f8501826114ca565b50602082015161163c60208501826114ca565b50604082015161164f60408501826114ca565b50606082015161166260608501826114ca565b50505050565b5f61012083015f83015161167e5f8601826114ca565b5060208301516116916020860182611509565b5060408301516116a4604086018261157c565b50606083015184820360608601526116bc82826115dd565b915050608083015184820360808601526116d682826115dd565b91505060a08301516116eb60a0860182611615565b508091505092915050565b5f6020820190508181035f83015261170e8184611668565b905092915050565b5f80fd5b7f4e487b71000000000000000000000000000000000000000000000000000000005f52604160045260245ffd5b611750826115cd565b810181811067ffffffffffffffff8211171561176f5761176e61171a565b5b80604052505050565b5f61178161145b565b905061178d8282611747565b919050565b5f608082840312156117a7576117a6611716565b5b6117b16080611778565b90505f6117c08482850161148b565b5f8301525060206117d38482850161148b565b60208301525060406117e78482850161148b565b60408301525060606117fb8482850161148b565b60608301525092915050565b5f805f60c0848603121561181e5761181d611464565b5b5f61182b8682870161148b565b935050602061183c8682870161148b565b925050604061184d86828701611792565b9150509250925092565b6118608161146c565b82525050565b5f6020820190506118795f830184611857565b92915050565b600381106118905761188f611518565b5b50565b5f8190506118a08261187f565b919050565b5f6118af82611893565b9050919050565b6118bf816118a5565b82525050565b600381106118d6576118d5611518565b5b50565b5f8190506118e6826118c5565b919050565b5f6118f5826118d9565b9050919050565b611905816118eb565b82525050565b61010082015f8201516119205f850182611509565b50602082015161193360208501826114ca565b50604082015161194660408501826114ca565b50606082015161195960608501826114ca565b50608082015161196c60808501826114ca565b5060a082015161197f60a08501826114ca565b5060c082015161199260c08501826118b6565b5060e08201516119a560e08501826118fc565b50505050565b5f610100820190506119bf5f83018461190b565b92915050565b6119ce816114f8565b82525050565b6119dd8161156b565b82525050565b5f82825260208201905092915050565b5f6119fd8261158b565b611a0781856119e3565b9350611a178185602086016115a5565b611a20816115cd565b840191505092915050565b608082015f820151611a3f5f8501826114ca565b506020820151611a5260208501826114ca565b506040820151611a6560408501826114ca565b506060820151611a7860608501826114ca565b50505050565b5f61012082019050611a925f830189611857565b611a9f60208301886119c5565b611aac60408301876119d4565b8181036060830152611abe81866119f3565b90508181036080830152611ad281856119f3565b9050611ae160a0830184611a2b565b979650505050505050565b5f60a082019050611aff5f8301886119c5565b611b0c6020830187611857565b611b196040830186611857565b611b266060830185611857565b611b336080830184611857565b9695505050505050565b60a082015f820151611b515f850182611509565b506020820151611b6460208501826114ca565b506040820151611b7760408501826114ca565b506060820151611b8a60608501826114ca565b506080820151611b9d60808501826114ca565b50505050565b5f60a082019050611bb65f830184611b3d565b92915050565b611bc5816118a5565b82525050565b611bd4816118eb565b82525050565b5f61010082019050611bee5f83018b6119c5565b611bfb602083018a611857565b611c086040830189611857565b611c156060830188611857565b611c226080830187611857565b611c2f60a0830186611857565b611c3c60c0830185611bbc565b611c4960e0830184611bcb565b9998505050505050505050565b5f80fd5b5f80fd5b5f67ffffffffffffffff821115611c7857611c7761171a565b5b611c81826115cd565b9050602081019050919050565b828183375f83830152505050565b5f611cae611ca984611c5e565b611778565b905082815260208101848484011115611cca57611cc9611c5a565b5b611cd5848285611c8e565b509392505050565b5f82601f830112611cf157611cf0611c56565b5b8135611d01848260208601611c9c565b91505092915050565b5f8060408385031215611d2057611d1f611464565b5b5f83013567ffffffffffffffff811115611d3d57611d3c611468565b5b611d4985828601611cdd565b925050602083013567ffffffffffffffff811115611d6a57611d69611468565b5b611d7685828601611cdd565b9150509250929050565b5f6020820190508181035f830152611d9881846119f3565b905092915050565b5f60ff82169050919050565b611db581611da0565b82525050565b5f602082019050611dce5f830184611dac565b92915050565b7f6e656564206465766963655f6964203e203000000000000000000000000000005f82015250565b5f611e086012836119e3565b9150611e1382611dd4565b602082019050919050565b5f6020820190508181035f830152611e3581611dfc565b9050919050565b7f4e487b71000000000000000000000000000000000000000000000000000000005f52601160045260245ffd5b5f611e738261146c565b9150611e7e8361146c565b9250828203905081811115611e9657611e95611e3c565b5b92915050565b7f4e487b71000000000000000000000000000000000000000000000000000000005f52603260045260245ffd5b7f4e487b71000000000000000000000000000000000000000000000000000000005f52602260045260245ffd5b5f6002820490506001821680611f0d57607f821691505b602082108103611f2057611f1f611ec9565b5b50919050565b5f611f308261146c565b9150611f3b8361146c565b9250828202611f498161146c565b91508282048414831517611f6057611f5f611e3c565b5b5092915050565b5f611f718261146c565b91507fffffffffffffffffffffffffffffffffffffffffffffffffffffffffffffffff8203611fa357611fa2611e3c565b5b600182019050919050565b7f63616e27742066696e642062696c6c696e6721000000000000000000000000005f82015250565b5f611fe26013836119e3565b9150611fed82611fae565b602082019050919050565b5f6020820190508181035f83015261200f81611fd6565b9050919050565b5f6120208261146c565b915061202b8361146c565b925082820190508082111561204357612042611e3c565b5b92915050565b5f6120538261146c565b91505f820361206557612064611e3c565b5b600182039050919050565b7f63616e27742066696e64206c65617365210000000000000000000000000000005f82015250565b5f6120a46011836119e3565b91506120af82612070565b602082019050919050565b5f6020820190508181035f8301526120d181612098565b9050919050565b7f4e487b71000000000000000000000000000000000000000000000000000000005f52601260045260245ffd5b5f61210f8261146c565b915061211a8361146c565b92508261212a576121296120d8565b5b828204905092915050565b5f61213f8261146c565b915061214a8361146c565b92508261215a576121596120d8565b5b82820690509291505056fea26469706673582212201368b29203296615b4b4c95f9a6896d2e6ba16943d1cc75e0ee8fb79ba4fb98e64736f6c63430008150033",
  "immutableReferences": {},
  "source": "// SPDX-License-Identifier: SEE LICENSE IN LICENSE\npragma solidity ^0.8.0;\n\nimport \"./device.sol\";\n\nenum leaseType {Machine, Developer}\nenum billingStatus {UnPayed, Payed, UnValid}\nenum billingType {ProviderStake, DeveloperRent, TreasureBilling}\n\nstruct billingInfo {\n    address user;\n    // token, \n    uint id;\n    uint leaseId;\n    uint providerBlockedFund;\n    uint recipientBlockedFunds;\n    // \n    uint amount;  // , , lease\n    billingStatus status;\n    billingType billType;\n}\n\nstruct leaseInfo {\n    address owner;\n    uint leaseId;\n    uint startTime;\n    uint expireTime;\n    uint deviceId;\n}\n\ncontract Lease is Device {\n    uint private leaseId = 0;\n    uint private recipientLeaseId = 0;\n    uint8 public platformSharingRatio = 0;\n\n\n    leaseInfo [] public leaseProvider;\n    leaseInfo [] public leaseRecipient;\n    // leaseInfo [] public leaseDeveloper;\n\n    function onlineLease(address _owner, uint _devcieId, uint _startTime, uint _endTime) internal returns(uint){\n        leaseId = leaseId + 1;\n        // deviceInfo memory device = devices[_devcieId];\n        leaseProvider.push(leaseInfo(_owner, leaseId, _startTime, _endTime, _devcieId));\n        return leaseId;\n    }\n\n    function providerStakeCalcute(uint _startTime, uint _endTime, Price memory _price) pure public returns(uint) {\n        if ((_endTime - _startTime) > 3600) {\n            return _price.serverPrice * 3600;\n        }\n        return _price.serverPrice * (_endTime - _startTime);\n    }\n\n    function recipientStakeCalcute(uint _startTime, uint _endTime, Price memory _price) pure public returns(uint) {\n        return _price.serverPrice * (_endTime - _startTime);\n    }\n\n    function createRentLease(uint _deviceId, uint _startTime, uint _endTime) internal _curDeviceLease(_deviceId) returns (uint) {\n        recipientLeaseId = recipientLeaseId + 1;\n        leaseRecipient.push(leaseInfo(msg.sender, recipientLeaseId, _startTime, _endTime, _deviceId));\n        return recipientLeaseId;\n\n    }\n    function renewalRentLease(uint _leaseId, uint _endTime) internal returns (leaseInfo memory) {\n        // uint _period =  _endTime - leaseRecipient[_leaseId - 1].expireTime;\n        leaseRecipient[_leaseId - 1].expireTime = _endTime;\n        return leaseRecipient[_leaseId - 1];\n    }\n\n    function terminateLease(uint _leaseId) public returns(leaseInfo memory) {\n        leaseRecipient[_leaseId - 1].expireTime = block.timestamp;\n        return leaseRecipient[_leaseId - 1];\n    }\n\n    function getLeaseByDeviceId(uint _deviceId) view public returns(leaseInfo memory) {\n        for (uint i = leaseProvider.length - 1; i < leaseProvider.length; i--) {\n            if (leaseProvider[i].deviceId == _deviceId) {\n                return leaseProvider[i];\n            }\n        }\n\n        revert(\"can't find lease!\");\n    }\n\n    modifier _curDeviceLease(uint _deviceId) {\n\n        // for (uint i = leaseRecipient.length - 1; i >= 0; i--) {\n        //     if (leaseRecipient[i].deviceId == _deviceId) {\n        //         require(leaseRecipient[i].expireTime > block.timestamp, \"device already has lease\");\n        //     }\n        // }\n        _;\n    }\n\n\n    function concatenateStrings(string memory a, string memory b) public pure returns (string memory) {\n        bytes memory strA = bytes(a);\n        bytes memory strB = bytes(b);\n\n        bytes memory result = new bytes(strA.length + strB.length);\n        \n        uint256 k = 0;\n        for (uint256 i = 0; i < strA.length; i++) {\n            result[k++] = strA[i];\n        }\n        \n        for (uint256 i = 0; i < strB.length; i++) {\n            result[k++] = strB[i];\n        }\n        \n        return string(result);\n    }\n\n    function uintToString(uint256 number) public pure returns (string memory) {\n        if (number == 0) {\n            return \"0\";\n        }\n        \n        uint256 temp = number;\n        uint256 digits;\n        \n        while (temp != 0) {\n            digits++;\n            temp /= 10;\n        }\n        \n        bytes memory buffer = new bytes(digits);\n        uint256 _index = digits - 1;\n        \n        while (number != 0) {\n            buffer[_index--] = bytes1(uint8(48 + number % 10));\n            number /= 10;\n        }\n        \n        return string(buffer);\n    }\n\n}\n\n// contract Billing is Lease{\n\n//     function settle(billingInfo memory _billingInfo) internal {\n\n//     }\n\n//     function invalid(billingInfo memory _billInfo) internal{\n\n//     }\n// }\n\ncontract Billing is Lease {\n    uint private providerBillingCounter = 0;\n    uint private recipientBillingCounter = 0;\n    billingInfo [] public providerBillings;\n    billingInfo [] public recipientBillings;\n\n    function getRecipientBillingByLeaseId(uint _leaseId) view public returns(billingInfo memory) {\n        for (uint i = 0; i < recipientBillings.length; i++) {\n            if (recipientBillings[i].leaseId == _leaseId) {\n                return providerBillings[i];\n            }\n        }\n        revert(\"can't find billing!\");\n    }\n    function getProviderBillingByLeaseId(uint _leaseId) view public returns(billingInfo memory) {\n        for (uint i = 0; i < providerBillings.length; i++) {\n            if (providerBillings[i].leaseId == _leaseId) {\n                return providerBillings[i];\n            }\n        }\n        revert(\"can't find billing!\");\n    }\n\n    function providerOfflineBilling(uint _billId) internal {\n        if (providerBillings[_billId - 1].status == billingStatus.Payed) {\n            revert(\"stake amount has already unblocked\");\n        }\n        providerBillings[_billId - 1].status = billingStatus.Payed;\n    }\n\n    function providerOnlineBilling(uint _leaseId, uint _stakeAmount) internal {\n        // , \n        providerBillingCounter = providerBillingCounter + 1;\n        providerBillings.push(billingInfo(msg.sender, providerBillingCounter, _leaseId, _stakeAmount, 0, 0, billingStatus.UnPayed, billingType.ProviderStake));\n    }\n\n    function createRentBilling(uint _leaseId, uint _stakeAmount) internal {\n\n        // , \n        recipientBillingCounter = recipientBillingCounter + 1;\n        recipientBillings.push(billingInfo(msg.sender, recipientBillingCounter, _leaseId, 0, _stakeAmount, 0, billingStatus.UnPayed, billingType.DeveloperRent));\n    }\n\n    function renewalRentBilling(uint _billId, uint _stakeAmount) internal returns (uint) {\n        uint extraStakeAmount = _stakeAmount - recipientBillings[_billId - 1].recipientBlockedFunds;\n        recipientBillings[_billId - 1].recipientBlockedFunds = _stakeAmount;\n        return extraStakeAmount;\n    }\n    \n    function terminateBilling(uint _billId, uint _stakeAmount) internal returns (int){\n        int unBlockedAmount = int(recipientBillings[_billId - 1].recipientBlockedFunds) - int(_stakeAmount);\n        recipientBillings[_billId - 1].status = billingStatus.Payed;\n        recipientBillings[_billId - 1].amount = _stakeAmount;\n        return unBlockedAmount;\n    }\n\n}\n\n\n// struct billingInfo {\n//     address user;\n//     // token, \n//     uint providerBlockedFund;\n//     uint recipientBlockedFunds;\n//     // \n//     uint amount;  // , , lease\n//     billingStatus status;\n//     billingType billType;\n// }",
  "sourcePath": "/Users/irongyi/solidity_project/apus_network_v0/contracts/lease.sol",
  "compiler": {
    "name": "solc",
    "version": "0.8.21+commit.d9974bed.Emscripten.clang"
  },
  "schemaVersion": "3.4.15",
  "updatedAt": "2023-09-07T14:04:02.218Z",
  "devdoc": {
    "kind": "dev",
    "methods": {},
    "version": 1
  },
  "userdoc": {
    "kind": "user",
    "methods": {},
    "version": 1
  }
}