{
  "contractName": "Device",
  "abi": [
    {
      "inputs": [
        {
          "internalType": "uint256",
          "name": "",
          "type": "uint256"
        }
      ],
      "name": "devices",
      "outputs": [
        {
          "internalType": "uint256",
          "name": "id",
          "type": "uint256"
        },
        {
          "internalType": "address",
          "name": "owner",
          "type": "address"
        },
        {
          "internalType": "enum DeviceStatus",
          "name": "status",
          "type": "uint8"
        },
        {
          "internalType": "string",
          "name": "machineId",
          "type": "string"
        },
        {
          "internalType": "string",
          "name": "serverInfo",
          "type": "string"
        },
        {
          "components": [
            {
              "internalType": "uint256",
              "name": "serverPrice",
              "type": "uint256"
            },
            {
              "internalType": "uint256",
              "name": "storagePrice",
              "type": "uint256"
            },
            {
              "internalType": "uint256",
              "name": "upbandWidth",
              "type": "uint256"
            },
            {
              "internalType": "uint256",
              "name": "downbandWidth",
              "type": "uint256"
            }
          ],
          "internalType": "struct Price",
          "name": "price",
          "type": "tuple"
        }
      ],
      "stateMutability": "view",
      "type": "function"
    },
    {
      "inputs": [
        {
          "internalType": "uint256",
          "name": "_deviceId",
          "type": "uint256"
        }
      ],
      "name": "getDevice",
      "outputs": [
        {
          "components": [
            {
              "internalType": "uint256",
              "name": "id",
              "type": "uint256"
            },
            {
              "internalType": "address",
              "name": "owner",
              "type": "address"
            },
            {
              "internalType": "enum DeviceStatus",
              "name": "status",
              "type": "uint8"
            },
            {
              "internalType": "string",
              "name": "machineId",
              "type": "string"
            },
            {
              "internalType": "string",
              "name": "serverInfo",
              "type": "string"
            },
            {
              "components": [
                {
                  "internalType": "uint256",
                  "name": "serverPrice",
                  "type": "uint256"
                },
                {
                  "internalType": "uint256",
                  "name": "storagePrice",
                  "type": "uint256"
                },
                {
                  "internalType": "uint256",
                  "name": "upbandWidth",
                  "type": "uint256"
                },
                {
                  "internalType": "uint256",
                  "name": "downbandWidth",
                  "type": "uint256"
                }
              ],
              "internalType": "struct Price",
              "name": "price",
              "type": "tuple"
            }
          ],
          "internalType": "struct deviceInfo",
          "name": "",
          "type": "tuple"
        }
      ],
      "stateMutability": "view",
      "type": "function"
    }
  ],
  "bytecode": "0x60806040525f8055348015610012575f80fd5b50610ab9806100205f395ff3fe608060405234801561000f575f80fd5b5060043610610034575f3560e01c806309f110b11461003857806310ff8e3114610068575b5f80fd5b610052600480360381019061004d9190610584565b61009d565b60405161005f91906107db565b60405180910390f35b610082600480360381019061007d9190610584565b610318565b604051610094969594939291906108c3565b60405180910390f35b6100a56104c8565b5f82116100e7576040517f08c379a00000000000000000000000000000000000000000000000000000000081526004016100de9061097b565b60405180910390fd5b600180836100f591906109c6565b81548110610106576101056109f9565b5b905f5260205f2090600802016040518060c00160405290815f8201548152602001600182015f9054906101000a900473ffffffffffffffffffffffffffffffffffffffff1673ffffffffffffffffffffffffffffffffffffffff1673ffffffffffffffffffffffffffffffffffffffff1681526020016001820160149054906101000a900460ff1660038111156101a05761019f6105fd565b5b60038111156101b2576101b16105fd565b5b81526020016002820180546101c690610a53565b80601f01602080910402602001604051908101604052809291908181526020018280546101f290610a53565b801561023d5780601f106102145761010080835404028352916020019161023d565b820191905f5260205f20905b81548152906001019060200180831161022057829003601f168201915b5050505050815260200160038201805461025690610a53565b80601f016020809104026020016040519081016040528092919081815260200182805461028290610a53565b80156102cd5780601f106102a4576101008083540402835291602001916102cd565b820191905f5260205f20905b8154815290600101906020018083116102b057829003601f168201915b50505050508152602001600482016040518060800160405290815f82015481526020016001820154815260200160028201548152602001600382015481525050815250509050919050565b60018181548110610327575f80fd5b905f5260205f2090600802015f91509050805f015490806001015f9054906101000a900473ffffffffffffffffffffffffffffffffffffffff16908060010160149054906101000a900460ff169080600201805461038490610a53565b80601f01602080910402602001604051908101604052809291908181526020018280546103b090610a53565b80156103fb5780601f106103d2576101008083540402835291602001916103fb565b820191905f5260205f20905b8154815290600101906020018083116103de57829003601f168201915b50505050509080600301805461041090610a53565b80601f016020809104026020016040519081016040528092919081815260200182805461043c90610a53565b80156104875780601f1061045e57610100808354040283529160200191610487565b820191905f5260205f20905b81548152906001019060200180831161046a57829003601f168201915b505050505090806004016040518060800160405290815f82015481526020016001820154815260200160028201548152602001600382015481525050905086565b6040518060c001604052805f81526020015f73ffffffffffffffffffffffffffffffffffffffff1681526020015f6003811115610508576105076105fd565b5b81526020016060815260200160608152602001610523610529565b81525090565b60405180608001604052805f81526020015f81526020015f81526020015f81525090565b5f80fd5b5f819050919050565b61056381610551565b811461056d575f80fd5b50565b5f8135905061057e8161055a565b92915050565b5f602082840312156105995761059861054d565b5b5f6105a684828501610570565b91505092915050565b6105b881610551565b82525050565b5f73ffffffffffffffffffffffffffffffffffffffff82169050919050565b5f6105e7826105be565b9050919050565b6105f7816105dd565b82525050565b7f4e487b71000000000000000000000000000000000000000000000000000000005f52602160045260245ffd5b6004811061063b5761063a6105fd565b5b50565b5f81905061064b8261062a565b919050565b5f61065a8261063e565b9050919050565b61066a81610650565b82525050565b5f81519050919050565b5f82825260208201905092915050565b5f5b838110156106a757808201518184015260208101905061068c565b5f8484015250505050565b5f601f19601f8301169050919050565b5f6106cc82610670565b6106d6818561067a565b93506106e681856020860161068a565b6106ef816106b2565b840191505092915050565b608082015f82015161070e5f8501826105af565b50602082015161072160208501826105af565b50604082015161073460408501826105af565b50606082015161074760608501826105af565b50505050565b5f61012083015f8301516107635f8601826105af565b50602083015161077660208601826105ee565b5060408301516107896040860182610661565b50606083015184820360608601526107a182826106c2565b915050608083015184820360808601526107bb82826106c2565b91505060a08301516107d060a08601826106fa565b508091505092915050565b5f6020820190508181035f8301526107f3818461074d565b905092915050565b61080481610551565b82525050565b610813816105dd565b82525050565b61082281610650565b82525050565b5f82825260208201905092915050565b5f61084282610670565b61084c8185610828565b935061085c81856020860161068a565b610865816106b2565b840191505092915050565b608082015f8201516108845f8501826105af565b50602082015161089760208501826105af565b5060408201516108aa60408501826105af565b5060608201516108bd60608501826105af565b50505050565b5f610120820190506108d75f8301896107fb565b6108e4602083018861080a565b6108f16040830187610819565b81810360608301526109038186610838565b905081810360808301526109178185610838565b905061092660a0830184610870565b979650505050505050565b7f6e656564206465766963655f6964203e203000000000000000000000000000005f82015250565b5f610965601283610828565b915061097082610931565b602082019050919050565b5f6020820190508181035f83015261099281610959565b9050919050565b7f4e487b71000000000000000000000000000000000000000000000000000000005f52601160045260245ffd5b5f6109d082610551565b91506109db83610551565b92508282039050818111156109f3576109f2610999565b5b92915050565b7f4e487b71000000000000000000000000000000000000000000000000000000005f52603260045260245ffd5b7f4e487b71000000000000000000000000000000000000000000000000000000005f52602260045260245ffd5b5f6002820490506001821680610a6a57607f821691505b602082108103610a7d57610a7c610a26565b5b5091905056fea26469706673582212204db9ba3b1cf7436e766e45f54323632b13c5df3c35c72227a6c34bf055c51bbd64736f6c63430008150033",
  "immutableReferences": {},
  "source": "// SPDX-License-Identifier: SEE LICENSE IN LICENSE\npragma solidity ^0.8.0;\n\nenum DeviceStatus {Created, Online, Running, Offline}\n\nstruct Price {\n    uint serverPrice;\n    uint storagePrice;\n    uint upbandWidth;\n    uint downbandWidth;\n}\n\nstruct deviceInfo {\n    uint id;\n    address owner;\n    DeviceStatus status;\n    string machineId;\n    string serverInfo;\n    Price price;\n}\n\ncontract Device {\n    uint id = 0;\n    deviceInfo [] public devices;\n\n    modifier _isOwner(address _owner) {\n        _;\n    }\n\n    // , price \n    function online(string memory _machineId, string memory _serverInfo, Price memory _price) internal returns (uint) {\n        id += 1;\n        // msg.sender , , \n        devices.push(deviceInfo(id, msg.sender,  DeviceStatus.Online, _machineId, _serverInfo, _price));\n        return id;\n    }\n\n    function getDevice(uint _deviceId) view public returns(deviceInfo memory) {\n        require(_deviceId > 0, \"need device_id > 0\");\n        return devices[_deviceId - 1];\n    }\n\n    function deleteDevices(uint _deviceId) internal {\n        require(devices[_deviceId].status == DeviceStatus.Online || devices[_deviceId].status == DeviceStatus.Created, \"need pre status online or created\");\n        devices[_deviceId - 1].status = DeviceStatus.Offline;\n    }\n\n    function offlineDevice(uint _deviceId) internal {\n        require(devices[_deviceId - 1].status == DeviceStatus.Online, \"need pre status online\");\n        devices[_deviceId - 1].status = DeviceStatus.Offline;\n    }\n\n    function rentDevice(uint _deviceId) internal {\n        require(devices[_deviceId - 1].status == DeviceStatus.Online, \"need pre status online\");\n        devices[_deviceId - 1].status = DeviceStatus.Running;\n    }\n\n    function terminateDevice(uint _deviceId) internal {\n        devices[_deviceId - 1].status = DeviceStatus.Online;\n\n    }\n\n}",
  "sourcePath": "/Users/irongyi/solidity_project/apus_network_v0/contracts/device.sol",
  "compiler": {
    "name": "solc",
    "version": "0.8.21+commit.d9974bed.Emscripten.clang"
  },
  "schemaVersion": "3.4.15",
  "updatedAt": "2023-09-07T03:49:40.164Z",
  "devdoc": {
    "kind": "dev",
    "methods": {},
    "version": 1
  },
  "userdoc": {
    "kind": "user",
    "methods": {},
    "version": 1
  }
}