{
  "contractName": "Device",
  "abi": [
    {
      "inputs": [
        {
          "internalType": "uint256",
          "name": "",
          "type": "uint256"
        }
      ],
      "name": "devices",
      "outputs": [
        {
          "internalType": "uint256",
          "name": "id",
          "type": "uint256"
        },
        {
          "internalType": "address",
          "name": "owner",
          "type": "address"
        },
        {
          "internalType": "enum DeviceStatus",
          "name": "status",
          "type": "uint8"
        },
        {
          "internalType": "string",
          "name": "machineId",
          "type": "string"
        },
        {
          "internalType": "string",
          "name": "serverInfo",
          "type": "string"
        },
        {
          "components": [
            {
              "internalType": "uint256",
              "name": "serverPrice",
              "type": "uint256"
            },
            {
              "internalType": "uint256",
              "name": "storagePrice",
              "type": "uint256"
            },
            {
              "internalType": "uint256",
              "name": "upbandWidth",
              "type": "uint256"
            },
            {
              "internalType": "uint256",
              "name": "downbandWidth",
              "type": "uint256"
            }
          ],
          "internalType": "struct Price",
          "name": "price",
          "type": "tuple"
        }
      ],
      "stateMutability": "view",
      "type": "function"
    }
  ],
  "bytecode": "0x60806040525f8055348015610012575f80fd5b50610522806100205f395ff3fe608060405234801561000f575f80fd5b5060043610610029575f3560e01c806310ff8e311461002d575b5f80fd5b61004760048036038101906100429190610249565b610062565b60405161005996959493929190610421565b60405180910390f35b60018181548110610071575f80fd5b905f5260205f2090600802015f91509050805f015490806001015f9054906101000a900473ffffffffffffffffffffffffffffffffffffffff16908060010160149054906101000a900460ff16908060020180546100ce906104bc565b80601f01602080910402602001604051908101604052809291908181526020018280546100fa906104bc565b80156101455780601f1061011c57610100808354040283529160200191610145565b820191905f5260205f20905b81548152906001019060200180831161012857829003601f168201915b50505050509080600301805461015a906104bc565b80601f0160208091040260200160405190810160405280929190818152602001828054610186906104bc565b80156101d15780601f106101a8576101008083540402835291602001916101d1565b820191905f5260205f20905b8154815290600101906020018083116101b457829003601f168201915b505050505090806004016040518060800160405290815f82015481526020016001820154815260200160028201548152602001600382015481525050905086565b5f80fd5b5f819050919050565b61022881610216565b8114610232575f80fd5b50565b5f813590506102438161021f565b92915050565b5f6020828403121561025e5761025d610212565b5b5f61026b84828501610235565b91505092915050565b61027d81610216565b82525050565b5f73ffffffffffffffffffffffffffffffffffffffff82169050919050565b5f6102ac82610283565b9050919050565b6102bc816102a2565b82525050565b7f4e487b71000000000000000000000000000000000000000000000000000000005f52602160045260245ffd5b60048110610300576102ff6102c2565b5b50565b5f819050610310826102ef565b919050565b5f61031f82610303565b9050919050565b61032f81610315565b82525050565b5f81519050919050565b5f82825260208201905092915050565b5f5b8381101561036c578082015181840152602081019050610351565b5f8484015250505050565b5f601f19601f8301169050919050565b5f61039182610335565b61039b818561033f565b93506103ab81856020860161034f565b6103b481610377565b840191505092915050565b6103c881610216565b82525050565b608082015f8201516103e25f8501826103bf565b5060208201516103f560208501826103bf565b50604082015161040860408501826103bf565b50606082015161041b60608501826103bf565b50505050565b5f610120820190506104355f830189610274565b61044260208301886102b3565b61044f6040830187610326565b81810360608301526104618186610387565b905081810360808301526104758185610387565b905061048460a08301846103ce565b979650505050505050565b7f4e487b71000000000000000000000000000000000000000000000000000000005f52602260045260245ffd5b5f60028204905060018216806104d357607f821691505b6020821081036104e6576104e561048f565b5b5091905056fea26469706673582212200e9836d42b74dc7969423d1177f87c31bc2601c71cc7cc520ce3e573adc0225c64736f6c63430008150033",
  "immutableReferences": {},
  "source": "// SPDX-License-Identifier: SEE LICENSE IN LICENSE\npragma solidity ^0.8.0;\n\nenum DeviceStatus {Created, Online, Running, Offline}\n\nstruct Price {\n    uint serverPrice;\n    uint storagePrice;\n    uint upbandWidth;\n    uint downbandWidth;\n}\n\nstruct deviceInfo {\n\n        uint id;\n        address owner;\n        DeviceStatus status;\n        string machineId;\n        string serverInfo;\n        Price price;\n}\n\ncontract DeviceFactory {\n    uint id = 0;\n    deviceInfo [] public devices;\n\n    modifier _isOwner(address _owner) {\n        _;\n    }\n\n    // , price \n    function online(string memory _machineId, string memory _serverInfo, Price memory _price) internal returns (uint) {\n        id += 1;\n        // msg.sender , , \n        devices.push(deviceInfo(id, msg.sender,  DeviceStatus.Online, _machineId, _serverInfo, _price));\n        return id;\n    }\n\n    function getDevice(uint _deviceId) view internal returns(deviceInfo memory) {\n        require(_deviceId > 0, \"need device_id > 0\");\n        return devices[_deviceId - 1];\n    }\n\n    function deleteDevices(uint _deviceId) internal {\n        require(devices[_deviceId].status == DeviceStatus.Online || devices[_deviceId].status == DeviceStatus.Created, \"need pre status online or created\");\n        devices[_deviceId - 1].status = DeviceStatus.Offline;\n    }\n\n}\n\n\ncontract Device is DeviceFactory {\n\n    modifier canRent(string memory _deviceId) {\n        _;\n    }\n\n    function onlineDevice(uint _deviceId) internal {\n        require(devices[_deviceId].status == DeviceStatus.Created, \"need pre status created\");\n        devices[_deviceId].status = DeviceStatus.Online;\n    }\n\n    function offlineDevice(uint _deviceId) internal {\n        require(devices[_deviceId].status == DeviceStatus.Online, \"need pre status online\");\n        devices[_deviceId].status = DeviceStatus.Offline;\n    }\n\n    function rentDevice(uint _deviceId) internal {\n        require(devices[_deviceId].status == DeviceStatus.Online , \"need pre status online\");\n        devices[_deviceId].status = DeviceStatus.Running;\n    }\n\n    function expireDevice(uint _deviceId) internal {\n        require(devices[_deviceId].status == DeviceStatus.Running, \"need pre status running\");\n        devices[_deviceId].status = DeviceStatus.Online;\n    }\n\n}",
  "sourcePath": "/Users/irongyi/solidity_project/apus_network_v0/contracts/device.sol",
  "compiler": {
    "name": "solc",
    "version": "0.8.21+commit.d9974bed.Emscripten.clang"
  },
  "schemaVersion": "3.4.15",
  "updatedAt": "2023-09-06T03:42:14.598Z",
  "devdoc": {
    "kind": "dev",
    "methods": {},
    "version": 1
  },
  "userdoc": {
    "kind": "user",
    "methods": {},
    "version": 1
  }
}