{
  "contractName": "Device",
  "abi": [
    {
      "inputs": [
        {
          "internalType": "uint256",
          "name": "",
          "type": "uint256"
        }
      ],
      "name": "devices",
      "outputs": [
        {
          "internalType": "address",
          "name": "owner",
          "type": "address"
        },
        {
          "internalType": "uint256",
          "name": "id",
          "type": "uint256"
        },
        {
          "internalType": "enum DeviceStatus",
          "name": "status",
          "type": "uint8"
        },
        {
          "internalType": "uint256",
          "name": "price",
          "type": "uint256"
        },
        {
          "internalType": "string",
          "name": "extraData",
          "type": "string"
        }
      ],
      "stateMutability": "view",
      "type": "function"
    }
  ],
  "bytecode": "0x60806040525f8055348015610012575f80fd5b506103eb806100205f395ff3fe608060405234801561000f575f80fd5b5060043610610029575f3560e01c806310ff8e311461002d575b5f80fd5b6100476004803603810190610042919061018a565b610061565b604051610058959493929190610300565b60405180910390f35b60018181548110610070575f80fd5b905f5260205f2090600502015f91509050805f015f9054906101000a900473ffffffffffffffffffffffffffffffffffffffff1690806001015490806002015f9054906101000a900460ff16908060030154908060040180546100d290610385565b80601f01602080910402602001604051908101604052809291908181526020018280546100fe90610385565b80156101495780601f1061012057610100808354040283529160200191610149565b820191905f5260205f20905b81548152906001019060200180831161012c57829003601f168201915b5050505050905085565b5f80fd5b5f819050919050565b61016981610157565b8114610173575f80fd5b50565b5f8135905061018481610160565b92915050565b5f6020828403121561019f5761019e610153565b5b5f6101ac84828501610176565b91505092915050565b5f73ffffffffffffffffffffffffffffffffffffffff82169050919050565b5f6101de826101b5565b9050919050565b6101ee816101d4565b82525050565b6101fd81610157565b82525050565b7f4e487b71000000000000000000000000000000000000000000000000000000005f52602160045260245ffd5b6004811061024157610240610203565b5b50565b5f81905061025182610230565b919050565b5f61026082610244565b9050919050565b61027081610256565b82525050565b5f81519050919050565b5f82825260208201905092915050565b5f5b838110156102ad578082015181840152602081019050610292565b5f8484015250505050565b5f601f19601f8301169050919050565b5f6102d282610276565b6102dc8185610280565b93506102ec818560208601610290565b6102f5816102b8565b840191505092915050565b5f60a0820190506103135f8301886101e5565b61032060208301876101f4565b61032d6040830186610267565b61033a60608301856101f4565b818103608083015261034c81846102c8565b90509695505050505050565b7f4e487b71000000000000000000000000000000000000000000000000000000005f52602260045260245ffd5b5f600282049050600182168061039c57607f821691505b6020821081036103af576103ae610358565b5b5091905056fea264697066735822122078c16f6856d34fb875c66fde7b57ab5c156085feacbed02f5a4ea20a2aec2a8e64736f6c63430008150033",
  "immutableReferences": {},
  "source": "// SPDX-License-Identifier: SEE LICENSE IN LICENSE\npragma solidity ^0.8.0;\n\nenum DeviceStatus {Created, Online, Running, Offline}\n\nstruct deviceInfo {\n        address owner;\n        uint id;\n        // uint8 status;\n        DeviceStatus status;\n        uint price;\n        string extraData;\n\n}\n\ncontract DeviceFactory {\n    uint id = 0;\n    deviceInfo [] public devices;\n\n    modifier _isOwner(address _owner) {\n        _;\n    }\n\n    // , price \n    function createDevice(uint _price, string memory _extraData) internal {\n        id += 1;\n        devices.push(deviceInfo(msg.sender, id, DeviceStatus.Created, _price, _extraData));\n    }\n\n    function deleteDevices(uint _deviceId) internal {\n        require(devices[_deviceId].status == DeviceStatus.Online || devices[_deviceId].status == DeviceStatus.Created, \"need pre status online or created\");\n        devices[_deviceId - 1].status = DeviceStatus.Offline;\n    }\n\n}\n\n\ncontract Device is DeviceFactory {\n\n    modifier canRent(string memory _deviceId) {\n        _;\n    }\n\n    function onlineDevice(uint _deviceId) internal {\n        require(devices[_deviceId].status == DeviceStatus.Created, \"need pre status created\");\n        devices[_deviceId].status = DeviceStatus.Online;\n    }\n\n    function offlineDevice(uint _deviceId) internal {\n        require(devices[_deviceId].status == DeviceStatus.Online || devices[_deviceId].status == DeviceStatus.Created, \"need pre status online or created\");\n        devices[_deviceId].status = DeviceStatus.Offline;\n        if (devices[_deviceId].status == DeviceStatus.Online) {\n        }\n    }\n\n    function rentDevice(uint _deviceId) internal {\n        require(devices[_deviceId].status == DeviceStatus.Online , \"need pre status online\");\n        devices[_deviceId].status = DeviceStatus.Running;\n    }\n\n    function expireDevice(uint _deviceId) internal {\n        require(devices[_deviceId].status == DeviceStatus.Running, \"need pre status running\");\n        devices[_deviceId].status = DeviceStatus.Online;\n    }\n\n}",
  "sourcePath": "/Users/irongyi/solidity_project/apus_network_v0/contracts/device.sol",
  "compiler": {
    "name": "solc",
    "version": "0.8.21+commit.d9974bed.Emscripten.clang"
  },
  "schemaVersion": "3.4.15",
  "updatedAt": "2023-09-05T01:08:37.515Z",
  "devdoc": {
    "kind": "dev",
    "methods": {},
    "version": 1
  },
  "userdoc": {
    "kind": "user",
    "methods": {},
    "version": 1
  }
}