{
  "contractName": "Helper",
  "abi": [
    {
      "inputs": [
        {
          "internalType": "address",
          "name": "_accountFactoryAddress",
          "type": "address"
        }
      ],
      "stateMutability": "nonpayable",
      "type": "constructor"
    },
    {
      "inputs": [],
      "name": "account_contract",
      "outputs": [
        {
          "internalType": "contract AccountFactory",
          "name": "",
          "type": "address"
        }
      ],
      "stateMutability": "view",
      "type": "function",
      "constant": true
    },
    {
      "inputs": [
        {
          "internalType": "string",
          "name": "a",
          "type": "string"
        },
        {
          "internalType": "string",
          "name": "b",
          "type": "string"
        }
      ],
      "name": "concatenateStrings",
      "outputs": [
        {
          "internalType": "string",
          "name": "",
          "type": "string"
        }
      ],
      "stateMutability": "pure",
      "type": "function",
      "constant": true
    },
    {
      "inputs": [
        {
          "internalType": "uint256",
          "name": "",
          "type": "uint256"
        }
      ],
      "name": "devices",
      "outputs": [
        {
          "internalType": "uint256",
          "name": "id",
          "type": "uint256"
        },
        {
          "internalType": "address",
          "name": "owner",
          "type": "address"
        },
        {
          "internalType": "enum DeviceStatus",
          "name": "status",
          "type": "uint8"
        },
        {
          "internalType": "string",
          "name": "machineId",
          "type": "string"
        },
        {
          "internalType": "string",
          "name": "serverInfo",
          "type": "string"
        },
        {
          "components": [
            {
              "internalType": "uint256",
              "name": "serverPrice",
              "type": "uint256"
            },
            {
              "internalType": "uint256",
              "name": "storagePrice",
              "type": "uint256"
            },
            {
              "internalType": "uint256",
              "name": "upbandWidth",
              "type": "uint256"
            },
            {
              "internalType": "uint256",
              "name": "downbandWidth",
              "type": "uint256"
            }
          ],
          "internalType": "struct Price",
          "name": "price",
          "type": "tuple"
        }
      ],
      "stateMutability": "view",
      "type": "function",
      "constant": true
    },
    {
      "inputs": [
        {
          "internalType": "uint256",
          "name": "_deviceId",
          "type": "uint256"
        }
      ],
      "name": "getDevice",
      "outputs": [
        {
          "components": [
            {
              "internalType": "uint256",
              "name": "id",
              "type": "uint256"
            },
            {
              "internalType": "address",
              "name": "owner",
              "type": "address"
            },
            {
              "internalType": "enum DeviceStatus",
              "name": "status",
              "type": "uint8"
            },
            {
              "internalType": "string",
              "name": "machineId",
              "type": "string"
            },
            {
              "internalType": "string",
              "name": "serverInfo",
              "type": "string"
            },
            {
              "components": [
                {
                  "internalType": "uint256",
                  "name": "serverPrice",
                  "type": "uint256"
                },
                {
                  "internalType": "uint256",
                  "name": "storagePrice",
                  "type": "uint256"
                },
                {
                  "internalType": "uint256",
                  "name": "upbandWidth",
                  "type": "uint256"
                },
                {
                  "internalType": "uint256",
                  "name": "downbandWidth",
                  "type": "uint256"
                }
              ],
              "internalType": "struct Price",
              "name": "price",
              "type": "tuple"
            }
          ],
          "internalType": "struct deviceInfo",
          "name": "",
          "type": "tuple"
        }
      ],
      "stateMutability": "view",
      "type": "function",
      "constant": true
    },
    {
      "inputs": [
        {
          "internalType": "uint256",
          "name": "_deviceId",
          "type": "uint256"
        }
      ],
      "name": "getLeaseByDeviceId",
      "outputs": [
        {
          "components": [
            {
              "internalType": "address",
              "name": "owner",
              "type": "address"
            },
            {
              "internalType": "uint256",
              "name": "leaseId",
              "type": "uint256"
            },
            {
              "internalType": "uint256",
              "name": "startTime",
              "type": "uint256"
            },
            {
              "internalType": "uint256",
              "name": "expireTime",
              "type": "uint256"
            },
            {
              "internalType": "uint256",
              "name": "deviceId",
              "type": "uint256"
            }
          ],
          "internalType": "struct leaseInfo",
          "name": "",
          "type": "tuple"
        }
      ],
      "stateMutability": "view",
      "type": "function",
      "constant": true
    },
    {
      "inputs": [
        {
          "internalType": "uint256",
          "name": "_leaseId",
          "type": "uint256"
        }
      ],
      "name": "getProviderBillingByLeaseId",
      "outputs": [
        {
          "components": [
            {
              "internalType": "address",
              "name": "user",
              "type": "address"
            },
            {
              "internalType": "uint256",
              "name": "id",
              "type": "uint256"
            },
            {
              "internalType": "uint256",
              "name": "leaseId",
              "type": "uint256"
            },
            {
              "internalType": "uint256",
              "name": "providerBlockedFund",
              "type": "uint256"
            },
            {
              "internalType": "uint256",
              "name": "recipientBlockedFunds",
              "type": "uint256"
            },
            {
              "internalType": "uint256",
              "name": "amount",
              "type": "uint256"
            },
            {
              "internalType": "enum billingStatus",
              "name": "status",
              "type": "uint8"
            },
            {
              "internalType": "enum billingType",
              "name": "billType",
              "type": "uint8"
            }
          ],
          "internalType": "struct billingInfo",
          "name": "",
          "type": "tuple"
        }
      ],
      "stateMutability": "view",
      "type": "function",
      "constant": true
    },
    {
      "inputs": [
        {
          "internalType": "uint256",
          "name": "_leaseId",
          "type": "uint256"
        }
      ],
      "name": "getRecipientBillingByLeaseId",
      "outputs": [
        {
          "components": [
            {
              "internalType": "address",
              "name": "user",
              "type": "address"
            },
            {
              "internalType": "uint256",
              "name": "id",
              "type": "uint256"
            },
            {
              "internalType": "uint256",
              "name": "leaseId",
              "type": "uint256"
            },
            {
              "internalType": "uint256",
              "name": "providerBlockedFund",
              "type": "uint256"
            },
            {
              "internalType": "uint256",
              "name": "recipientBlockedFunds",
              "type": "uint256"
            },
            {
              "internalType": "uint256",
              "name": "amount",
              "type": "uint256"
            },
            {
              "internalType": "enum billingStatus",
              "name": "status",
              "type": "uint8"
            },
            {
              "internalType": "enum billingType",
              "name": "billType",
              "type": "uint8"
            }
          ],
          "internalType": "struct billingInfo",
          "name": "",
          "type": "tuple"
        }
      ],
      "stateMutability": "view",
      "type": "function",
      "constant": true
    },
    {
      "inputs": [
        {
          "internalType": "uint256",
          "name": "",
          "type": "uint256"
        }
      ],
      "name": "leaseProvider",
      "outputs": [
        {
          "internalType": "address",
          "name": "owner",
          "type": "address"
        },
        {
          "internalType": "uint256",
          "name": "leaseId",
          "type": "uint256"
        },
        {
          "internalType": "uint256",
          "name": "startTime",
          "type": "uint256"
        },
        {
          "internalType": "uint256",
          "name": "expireTime",
          "type": "uint256"
        },
        {
          "internalType": "uint256",
          "name": "deviceId",
          "type": "uint256"
        }
      ],
      "stateMutability": "view",
      "type": "function",
      "constant": true
    },
    {
      "inputs": [
        {
          "internalType": "uint256",
          "name": "",
          "type": "uint256"
        }
      ],
      "name": "leaseRecipient",
      "outputs": [
        {
          "internalType": "address",
          "name": "owner",
          "type": "address"
        },
        {
          "internalType": "uint256",
          "name": "leaseId",
          "type": "uint256"
        },
        {
          "internalType": "uint256",
          "name": "startTime",
          "type": "uint256"
        },
        {
          "internalType": "uint256",
          "name": "expireTime",
          "type": "uint256"
        },
        {
          "internalType": "uint256",
          "name": "deviceId",
          "type": "uint256"
        }
      ],
      "stateMutability": "view",
      "type": "function",
      "constant": true
    },
    {
      "inputs": [],
      "name": "platformSharingRatio",
      "outputs": [
        {
          "internalType": "uint8",
          "name": "",
          "type": "uint8"
        }
      ],
      "stateMutability": "view",
      "type": "function",
      "constant": true
    },
    {
      "inputs": [
        {
          "internalType": "uint256",
          "name": "",
          "type": "uint256"
        }
      ],
      "name": "providerBillings",
      "outputs": [
        {
          "internalType": "address",
          "name": "user",
          "type": "address"
        },
        {
          "internalType": "uint256",
          "name": "id",
          "type": "uint256"
        },
        {
          "internalType": "uint256",
          "name": "leaseId",
          "type": "uint256"
        },
        {
          "internalType": "uint256",
          "name": "providerBlockedFund",
          "type": "uint256"
        },
        {
          "internalType": "uint256",
          "name": "recipientBlockedFunds",
          "type": "uint256"
        },
        {
          "internalType": "uint256",
          "name": "amount",
          "type": "uint256"
        },
        {
          "internalType": "enum billingStatus",
          "name": "status",
          "type": "uint8"
        },
        {
          "internalType": "enum billingType",
          "name": "billType",
          "type": "uint8"
        }
      ],
      "stateMutability": "view",
      "type": "function",
      "constant": true
    },
    {
      "inputs": [
        {
          "internalType": "uint256",
          "name": "_startTime",
          "type": "uint256"
        },
        {
          "internalType": "uint256",
          "name": "_endTime",
          "type": "uint256"
        },
        {
          "components": [
            {
              "internalType": "uint256",
              "name": "serverPrice",
              "type": "uint256"
            },
            {
              "internalType": "uint256",
              "name": "storagePrice",
              "type": "uint256"
            },
            {
              "internalType": "uint256",
              "name": "upbandWidth",
              "type": "uint256"
            },
            {
              "internalType": "uint256",
              "name": "downbandWidth",
              "type": "uint256"
            }
          ],
          "internalType": "struct Price",
          "name": "_price",
          "type": "tuple"
        }
      ],
      "name": "providerStakeCalcute",
      "outputs": [
        {
          "internalType": "uint256",
          "name": "",
          "type": "uint256"
        }
      ],
      "stateMutability": "pure",
      "type": "function",
      "constant": true
    },
    {
      "inputs": [
        {
          "internalType": "uint256",
          "name": "",
          "type": "uint256"
        }
      ],
      "name": "recipientBillings",
      "outputs": [
        {
          "internalType": "address",
          "name": "user",
          "type": "address"
        },
        {
          "internalType": "uint256",
          "name": "id",
          "type": "uint256"
        },
        {
          "internalType": "uint256",
          "name": "leaseId",
          "type": "uint256"
        },
        {
          "internalType": "uint256",
          "name": "providerBlockedFund",
          "type": "uint256"
        },
        {
          "internalType": "uint256",
          "name": "recipientBlockedFunds",
          "type": "uint256"
        },
        {
          "internalType": "uint256",
          "name": "amount",
          "type": "uint256"
        },
        {
          "internalType": "enum billingStatus",
          "name": "status",
          "type": "uint8"
        },
        {
          "internalType": "enum billingType",
          "name": "billType",
          "type": "uint8"
        }
      ],
      "stateMutability": "view",
      "type": "function",
      "constant": true
    },
    {
      "inputs": [
        {
          "internalType": "uint256",
          "name": "_startTime",
          "type": "uint256"
        },
        {
          "internalType": "uint256",
          "name": "_endTime",
          "type": "uint256"
        },
        {
          "components": [
            {
              "internalType": "uint256",
              "name": "serverPrice",
              "type": "uint256"
            },
            {
              "internalType": "uint256",
              "name": "storagePrice",
              "type": "uint256"
            },
            {
              "internalType": "uint256",
              "name": "upbandWidth",
              "type": "uint256"
            },
            {
              "internalType": "uint256",
              "name": "downbandWidth",
              "type": "uint256"
            }
          ],
          "internalType": "struct Price",
          "name": "_price",
          "type": "tuple"
        }
      ],
      "name": "recipientStakeCalcute",
      "outputs": [
        {
          "internalType": "uint256",
          "name": "",
          "type": "uint256"
        }
      ],
      "stateMutability": "pure",
      "type": "function",
      "constant": true
    },
    {
      "inputs": [
        {
          "internalType": "uint256",
          "name": "_leaseId",
          "type": "uint256"
        }
      ],
      "name": "terminateLease",
      "outputs": [
        {
          "components": [
            {
              "internalType": "address",
              "name": "owner",
              "type": "address"
            },
            {
              "internalType": "uint256",
              "name": "leaseId",
              "type": "uint256"
            },
            {
              "internalType": "uint256",
              "name": "startTime",
              "type": "uint256"
            },
            {
              "internalType": "uint256",
              "name": "expireTime",
              "type": "uint256"
            },
            {
              "internalType": "uint256",
              "name": "deviceId",
              "type": "uint256"
            }
          ],
          "internalType": "struct leaseInfo",
          "name": "",
          "type": "tuple"
        }
      ],
      "stateMutability": "nonpayable",
      "type": "function"
    },
    {
      "inputs": [
        {
          "internalType": "uint256",
          "name": "number",
          "type": "uint256"
        }
      ],
      "name": "uintToString",
      "outputs": [
        {
          "internalType": "string",
          "name": "",
          "type": "string"
        }
      ],
      "stateMutability": "pure",
      "type": "function",
      "constant": true
    },
    {
      "inputs": [
        {
          "internalType": "uint256",
          "name": "_deviceId",
          "type": "uint256"
        },
        {
          "internalType": "uint256",
          "name": "_endTime",
          "type": "uint256"
        }
      ],
      "name": "rentServer",
      "outputs": [],
      "stateMutability": "nonpayable",
      "type": "function"
    },
    {
      "inputs": [
        {
          "internalType": "uint256",
          "name": "_leaseId",
          "type": "uint256"
        },
        {
          "internalType": "uint256",
          "name": "_endTime",
          "type": "uint256"
        }
      ],
      "name": "RenewalLeaseServer",
      "outputs": [],
      "stateMutability": "nonpayable",
      "type": "function"
    },
    {
      "inputs": [
        {
          "internalType": "uint256",
          "name": "_leaseId",
          "type": "uint256"
        }
      ],
      "name": "terminateInstance",
      "outputs": [],
      "stateMutability": "nonpayable",
      "type": "function"
    },
    {
      "inputs": [
        {
          "internalType": "string",
          "name": "_machineId",
          "type": "string"
        },
        {
          "internalType": "string",
          "name": "_serverInfo",
          "type": "string"
        },
        {
          "components": [
            {
              "internalType": "uint256",
              "name": "serverPrice",
              "type": "uint256"
            },
            {
              "internalType": "uint256",
              "name": "storagePrice",
              "type": "uint256"
            },
            {
              "internalType": "uint256",
              "name": "upbandWidth",
              "type": "uint256"
            },
            {
              "internalType": "uint256",
              "name": "downbandWidth",
              "type": "uint256"
            }
          ],
          "internalType": "struct Price",
          "name": "_price",
          "type": "tuple"
        },
        {
          "internalType": "uint256",
          "name": "_startTime",
          "type": "uint256"
        },
        {
          "internalType": "uint256",
          "name": "_endTime",
          "type": "uint256"
        }
      ],
      "name": "onlineServer",
      "outputs": [],
      "stateMutability": "nonpayable",
      "type": "function"
    },
    {
      "inputs": [
        {
          "internalType": "uint256",
          "name": "_deviceId",
          "type": "uint256"
        }
      ],
      "name": "offlineServer",
      "outputs": [],
      "stateMutability": "nonpayable",
      "type": "function"
    },
    {
      "inputs": [
        {
          "internalType": "uint256",
          "name": "_limit",
          "type": "uint256"
        },
        {
          "internalType": "uint256",
          "name": "_offset",
          "type": "uint256"
        }
      ],
      "name": "listDevices",
      "outputs": [
        {
          "components": [
            {
              "internalType": "uint256",
              "name": "id",
              "type": "uint256"
            },
            {
              "internalType": "address",
              "name": "owner",
              "type": "address"
            },
            {
              "internalType": "enum DeviceStatus",
              "name": "status",
              "type": "uint8"
            },
            {
              "internalType": "string",
              "name": "machineId",
              "type": "string"
            },
            {
              "internalType": "string",
              "name": "serverInfo",
              "type": "string"
            },
            {
              "components": [
                {
                  "internalType": "uint256",
                  "name": "serverPrice",
                  "type": "uint256"
                },
                {
                  "internalType": "uint256",
                  "name": "storagePrice",
                  "type": "uint256"
                },
                {
                  "internalType": "uint256",
                  "name": "upbandWidth",
                  "type": "uint256"
                },
                {
                  "internalType": "uint256",
                  "name": "downbandWidth",
                  "type": "uint256"
                }
              ],
              "internalType": "struct Price",
              "name": "price",
              "type": "tuple"
            }
          ],
          "internalType": "struct deviceInfo[]",
          "name": "_allDevices",
          "type": "tuple[]"
        }
      ],
      "stateMutability": "view",
      "type": "function",
      "constant": true
    },
    {
      "inputs": [
        {
          "internalType": "address",
          "name": "_provider",
          "type": "address"
        },
        {
          "internalType": "uint256",
          "name": "_limit",
          "type": "uint256"
        },
        {
          "internalType": "uint256",
          "name": "_offset",
          "type": "uint256"
        }
      ],
      "name": "listOwnDevices",
      "outputs": [
        {
          "components": [
            {
              "internalType": "uint256",
              "name": "id",
              "type": "uint256"
            },
            {
              "internalType": "address",
              "name": "owner",
              "type": "address"
            },
            {
              "internalType": "enum DeviceStatus",
              "name": "status",
              "type": "uint8"
            },
            {
              "internalType": "string",
              "name": "machineId",
              "type": "string"
            },
            {
              "internalType": "string",
              "name": "serverInfo",
              "type": "string"
            },
            {
              "components": [
                {
                  "internalType": "uint256",
                  "name": "serverPrice",
                  "type": "uint256"
                },
                {
                  "internalType": "uint256",
                  "name": "storagePrice",
                  "type": "uint256"
                },
                {
                  "internalType": "uint256",
                  "name": "upbandWidth",
                  "type": "uint256"
                },
                {
                  "internalType": "uint256",
                  "name": "downbandWidth",
                  "type": "uint256"
                }
              ],
              "internalType": "struct Price",
              "name": "price",
              "type": "tuple"
            }
          ],
          "internalType": "struct deviceInfo[]",
          "name": "_ownDevices",
          "type": "tuple[]"
        }
      ],
      "stateMutability": "view",
      "type": "function",
      "constant": true
    },
    {
      "inputs": [],
      "name": "getAll",
      "outputs": [
        {
          "components": [
            {
              "internalType": "address",
              "name": "user",
              "type": "address"
            },
            {
              "internalType": "uint256",
              "name": "id",
              "type": "uint256"
            },
            {
              "internalType": "uint256",
              "name": "leaseId",
              "type": "uint256"
            },
            {
              "internalType": "uint256",
              "name": "providerBlockedFund",
              "type": "uint256"
            },
            {
              "internalType": "uint256",
              "name": "recipientBlockedFunds",
              "type": "uint256"
            },
            {
              "internalType": "uint256",
              "name": "amount",
              "type": "uint256"
            },
            {
              "internalType": "enum billingStatus",
              "name": "status",
              "type": "uint8"
            },
            {
              "internalType": "enum billingType",
              "name": "billType",
              "type": "uint8"
            }
          ],
          "internalType": "struct billingInfo[]",
          "name": "",
          "type": "tuple[]"
        },
        {
          "components": [
            {
              "internalType": "address",
              "name": "user",
              "type": "address"
            },
            {
              "internalType": "uint256",
              "name": "id",
              "type": "uint256"
            },
            {
              "internalType": "uint256",
              "name": "leaseId",
              "type": "uint256"
            },
            {
              "internalType": "uint256",
              "name": "providerBlockedFund",
              "type": "uint256"
            },
            {
              "internalType": "uint256",
              "name": "recipientBlockedFunds",
              "type": "uint256"
            },
            {
              "internalType": "uint256",
              "name": "amount",
              "type": "uint256"
            },
            {
              "internalType": "enum billingStatus",
              "name": "status",
              "type": "uint8"
            },
            {
              "internalType": "enum billingType",
              "name": "billType",
              "type": "uint8"
            }
          ],
          "internalType": "struct billingInfo[]",
          "name": "",
          "type": "tuple[]"
        },
        {
          "components": [
            {
              "internalType": "address",
              "name": "owner",
              "type": "address"
            },
            {
              "internalType": "uint256",
              "name": "leaseId",
              "type": "uint256"
            },
            {
              "internalType": "uint256",
              "name": "startTime",
              "type": "uint256"
            },
            {
              "internalType": "uint256",
              "name": "expireTime",
              "type": "uint256"
            },
            {
              "internalType": "uint256",
              "name": "deviceId",
              "type": "uint256"
            }
          ],
          "internalType": "struct leaseInfo[]",
          "name": "",
          "type": "tuple[]"
        },
        {
          "components": [
            {
              "internalType": "address",
              "name": "owner",
              "type": "address"
            },
            {
              "internalType": "uint256",
              "name": "leaseId",
              "type": "uint256"
            },
            {
              "internalType": "uint256",
              "name": "startTime",
              "type": "uint256"
            },
            {
              "internalType": "uint256",
              "name": "expireTime",
              "type": "uint256"
            },
            {
              "internalType": "uint256",
              "name": "deviceId",
              "type": "uint256"
            }
          ],
          "internalType": "struct leaseInfo[]",
          "name": "",
          "type": "tuple[]"
        },
        {
          "components": [
            {
              "internalType": "uint256",
              "name": "id",
              "type": "uint256"
            },
            {
              "internalType": "address",
              "name": "owner",
              "type": "address"
            },
            {
              "internalType": "enum DeviceStatus",
              "name": "status",
              "type": "uint8"
            },
            {
              "internalType": "string",
              "name": "machineId",
              "type": "string"
            },
            {
              "internalType": "string",
              "name": "serverInfo",
              "type": "string"
            },
            {
              "components": [
                {
                  "internalType": "uint256",
                  "name": "serverPrice",
                  "type": "uint256"
                },
                {
                  "internalType": "uint256",
                  "name": "storagePrice",
                  "type": "uint256"
                },
                {
                  "internalType": "uint256",
                  "name": "upbandWidth",
                  "type": "uint256"
                },
                {
                  "internalType": "uint256",
                  "name": "downbandWidth",
                  "type": "uint256"
                }
              ],
              "internalType": "struct Price",
              "name": "price",
              "type": "tuple"
            }
          ],
          "internalType": "struct deviceInfo[]",
          "name": "",
          "type": "tuple[]"
        }
      ],
      "stateMutability": "view",
      "type": "function",
      "constant": true
    }
  ],
  "bytecode": "0x60806040525f80555f6002555f6003555f60045f6101000a81548160ff021916908360ff1602179055505f6007555f6008553480156200003d575f80fd5b5060405162004d9738038062004d9783398181016040528101906200006391906200010f565b80600b5f6101000a81548173ffffffffffffffffffffffffffffffffffffffff021916908373ffffffffffffffffffffffffffffffffffffffff160217905550506200013f565b5f80fd5b5f73ffffffffffffffffffffffffffffffffffffffff82169050919050565b5f620000d982620000ae565b9050919050565b620000eb81620000cd565b8114620000f6575f80fd5b50565b5f815190506200010981620000e0565b92915050565b5f60208284031215620001275762000126620000aa565b5b5f6200013684828501620000f9565b91505092915050565b614c4a806200014d5f395ff3fe608060405234801561000f575f80fd5b5060043610610156575f3560e01c80636020948e116100c1578063c46dcec51161007a578063c46dcec514610446578063c74ce95c1461047a578063d67b9afd14610498578063dee4006f146104c8578063e9395679146104ff578063ff459ec61461052f57610156565b80636020948e1461034757806372f002d41461037e578063755991241461039a5780637a36b3ee146103b6578063a3a4aff4146103e6578063aca8d5b41461041657610156565b806311b800eb1161011357806311b800eb146102595780632b90c5921461028d5780633196e617146102bd57806353ed5143146102d9578063588e00a5146102fb5780635f41fa0e1461032b57610156565b806309f110b11461015a5780630a2640661461018a5780630b92426d146101a65780630f35ceb7146101d6578063101a76cd1461020657806310ff8e3114610224575b5f80fd5b610174600480360381019061016f91906134c3565b61055f565b604051610181919061371a565b60405180910390f35b6101a4600480360381019061019f919061373a565b6107da565b005b6101c060048036038101906101bb9190613869565b6108ba565b6040516101cd91906138c8565b60405180910390f35b6101f060048036038101906101eb91906134c3565b6108de565b6040516101fd9190613a0d565b60405180910390f35b61020e610aa2565b60405161021b9190613a82565b60405180910390f35b61023e600480360381019061023991906134c3565b610ac7565b60405161025096959493929190613b54565b60405180910390f35b610273600480360381019061026e91906134c3565b610c77565b604051610284959493929190613bc2565b60405180910390f35b6102a760048036038101906102a2919061373a565b610cd7565b6040516102b49190613d5c565b60405180910390f35b6102d760048036038101906102d291906134c3565b6110a8565b005b6102e161116c565b6040516102f2959493929190613fd3565b60405180910390f35b610315600480360381019061031091906134c3565b611821565b60405161032291906140ad565b60405180910390f35b6103456004803603810190610340919061417a565b611917565b005b610361600480360381019061035c91906134c3565b6119df565b604051610375989796959493929190614248565b60405180910390f35b610398600480360381019061039391906134c3565b611a6a565b005b6103b460048036038101906103af919061373a565b611b63565b005b6103d060048036038101906103cb91906142c4565b611c39565b6040516103dd919061433a565b60405180910390f35b61040060048036038101906103fb9190613869565b611dc2565b60405161040d91906138c8565b60405180910390f35b610430600480360381019061042b91906134c3565b611e14565b60405161043d9190613a0d565b60405180910390f35b610460600480360381019061045b91906134c3565b611fd8565b604051610471959493929190613bc2565b60405180910390f35b610482612038565b60405161048f9190614375565b60405180910390f35b6104b260048036038101906104ad91906134c3565b61204a565b6040516104bf91906140ad565b60405180910390f35b6104e260048036038101906104dd91906134c3565b6121a2565b6040516104f6989796959493929190614248565b60405180910390f35b610519600480360381019061051491906134c3565b61222d565b604051610526919061433a565b60405180910390f35b610549600480360381019061054491906143b8565b612394565b6040516105569190613d5c565b60405180910390f35b610567613343565b5f82116105a9576040517f08c379a00000000000000000000000000000000000000000000000000000000081526004016105a090614452565b60405180910390fd5b600180836105b7919061449d565b815481106105c8576105c76144d0565b5b905f5260205f2090600802016040518060c00160405290815f8201548152602001600182015f9054906101000a900473ffffffffffffffffffffffffffffffffffffffff1673ffffffffffffffffffffffffffffffffffffffff1673ffffffffffffffffffffffffffffffffffffffff1681526020016001820160149054906101000a900460ff1660038111156106625761066161353c565b5b60038111156106745761067361353c565b5b81526020016002820180546106889061452a565b80601f01602080910402602001604051908101604052809291908181526020018280546106b49061452a565b80156106ff5780601f106106d6576101008083540402835291602001916106ff565b820191905f5260205f20905b8154815290600101906020018083116106e257829003601f168201915b505050505081526020016003820180546107189061452a565b80601f01602080910402602001604051908101604052809291908181526020018280546107449061452a565b801561078f5780601f106107665761010080835404028352916020019161078f565b820191905f5260205f20905b81548152906001019060200180831161077257829003601f168201915b50505050508152602001600482016040518060800160405290815f82015481526020016001820154815260200160028201548152602001600382015481525050815250509050919050565b5f6107e5838361271f565b90505f6107f5826080015161055f565b90505f61080b8360400151858460a001516108ba565b90505f61081786611e14565b9050610827816020015183612816565b9150600b5f9054906101000a900473ffffffffffffffffffffffffffffffffffffffff1673ffffffffffffffffffffffffffffffffffffffff1663c7f997d233846040518363ffffffff1660e01b815260040161088592919061455a565b5f604051808303815f87803b15801561089c575f80fd5b505af11580156108ae573d5f803e3d5ffd5b50505050505050505050565b5f83836108c7919061449d565b825f01516108d59190614581565b90509392505050565b6108e66133a4565b5f5b600980549050811015610a6157826009828154811061090a576109096144d0565b5b905f5260205f2090600702016002015403610a4e5760098181548110610933576109326144d0565b5b905f5260205f209060070201604051806101000160405290815f82015f9054906101000a900473ffffffffffffffffffffffffffffffffffffffff1673ffffffffffffffffffffffffffffffffffffffff1673ffffffffffffffffffffffffffffffffffffffff1681526020016001820154815260200160028201548152602001600382015481526020016004820154815260200160058201548152602001600682015f9054906101000a900460ff1660028111156109f5576109f461353c565b5b6002811115610a0757610a0661353c565b5b81526020016006820160019054906101000a900460ff166002811115610a3057610a2f61353c565b5b6002811115610a4257610a4161353c565b5b81525050915050610a9d565b8080610a59906145c2565b9150506108e8565b506040517f08c379a0000000000000000000000000000000000000000000000000000000008152600401610a9490614653565b60405180910390fd5b919050565b600b5f9054906101000a900473ffffffffffffffffffffffffffffffffffffffff1681565b60018181548110610ad6575f80fd5b905f5260205f2090600802015f91509050805f015490806001015f9054906101000a900473ffffffffffffffffffffffffffffffffffffffff16908060010160149054906101000a900460ff1690806002018054610b339061452a565b80601f0160208091040260200160405190810160405280929190818152602001828054610b5f9061452a565b8015610baa5780601f10610b8157610100808354040283529160200191610baa565b820191905f5260205f20905b815481529060010190602001808311610b8d57829003601f168201915b505050505090806003018054610bbf9061452a565b80601f0160208091040260200160405190810160405280929190818152602001828054610beb9061452a565b8015610c365780601f10610c0d57610100808354040283529160200191610c36565b820191905f5260205f20905b815481529060010190602001808311610c1957829003601f168201915b505050505090806004016040518060800160405290815f82015481526020016001820154815260200160028201548152602001600382015481525050905086565b60068181548110610c86575f80fd5b905f5260205f2090600502015f91509050805f015f9054906101000a900473ffffffffffffffffffffffffffffffffffffffff16908060010154908060020154908060030154908060040154905085565b60605f8367ffffffffffffffff811115610cf457610cf361377c565b5b604051908082528060200260200182016040528015610d2d57816020015b610d1a613343565b815260200190600190039081610d125790505b5090505f808585610d3e9190614581565b90505b60018054905081101561109b5760016003811115610d6257610d6161353c565b5b60018281548110610d7657610d756144d0565b5b905f5260205f20906008020160010160149054906101000a900460ff166003811115610da557610da461353c565b5b1480610e05575060026003811115610dc057610dbf61353c565b5b60018281548110610dd457610dd36144d0565b5b905f5260205f20906008020160010160149054906101000a900460ff166003811115610e0357610e0261353c565b5b145b15611088578582101561105e5760018181548110610e2657610e256144d0565b5b905f5260205f2090600802016040518060c00160405290815f8201548152602001600182015f9054906101000a900473ffffffffffffffffffffffffffffffffffffffff1673ffffffffffffffffffffffffffffffffffffffff1673ffffffffffffffffffffffffffffffffffffffff1681526020016001820160149054906101000a900460ff166003811115610ec057610ebf61353c565b5b6003811115610ed257610ed161353c565b5b8152602001600282018054610ee69061452a565b80601f0160208091040260200160405190810160405280929190818152602001828054610f129061452a565b8015610f5d5780601f10610f3457610100808354040283529160200191610f5d565b820191905f5260205f20905b815481529060010190602001808311610f4057829003601f168201915b50505050508152602001600382018054610f769061452a565b80601f0160208091040260200160405190810160405280929190818152602001828054610fa29061452a565b8015610fed5780601f10610fc457610100808354040283529160200191610fed565b820191905f5260205f20905b815481529060010190602001808311610fd057829003601f168201915b50505050508152602001600482016040518060800160405290815f8201548152602001600182015481526020016002820154815260200160038201548152505081525050838381518110611044576110436144d0565b5b6020026020010181905250818061105a906145c2565b9250505b60018561106b9190614671565b866110769190614581565b8210611087578293505050506110a2565b5b8080611093906145c2565b915050610d41565b5081925050505b92915050565b6110b181612893565b5f6110bb8261204a565b90505f6110cb82602001516108de565b90506110da816020015161298f565b600b5f9054906101000a900473ffffffffffffffffffffffffffffffffffffffff1673ffffffffffffffffffffffffffffffffffffffff1663b6f997813383606001516040518363ffffffff1660e01b815260040161113a92919061455a565b5f604051808303815f87803b158015611151575f80fd5b505af1158015611163573d5f803e3d5ffd5b50505050505050565b60608060608060606009600a60056006600184805480602002602001604051908101604052809291908181526020015f905b828210156112ca578382905f5260205f209060070201604051806101000160405290815f82015f9054906101000a900473ffffffffffffffffffffffffffffffffffffffff1673ffffffffffffffffffffffffffffffffffffffff1673ffffffffffffffffffffffffffffffffffffffff1681526020016001820154815260200160028201548152602001600382015481526020016004820154815260200160058201548152602001600682015f9054906101000a900460ff16600281111561126a5761126961353c565b5b600281111561127c5761127b61353c565b5b81526020016006820160019054906101000a900460ff1660028111156112a5576112a461353c565b5b60028111156112b7576112b661353c565b5b815250508152602001906001019061119e565b50505050945083805480602002602001604051908101604052809291908181526020015f905b8282101561141c578382905f5260205f209060070201604051806101000160405290815f82015f9054906101000a900473ffffffffffffffffffffffffffffffffffffffff1673ffffffffffffffffffffffffffffffffffffffff1673ffffffffffffffffffffffffffffffffffffffff1681526020016001820154815260200160028201548152602001600382015481526020016004820154815260200160058201548152602001600682015f9054906101000a900460ff1660028111156113bc576113bb61353c565b5b60028111156113ce576113cd61353c565b5b81526020016006820160019054906101000a900460ff1660028111156113f7576113f661353c565b5b60028111156114095761140861353c565b5b81525050815260200190600101906112f0565b50505050935082805480602002602001604051908101604052809291908181526020015f905b828210156114ee578382905f5260205f2090600502016040518060a00160405290815f82015f9054906101000a900473ffffffffffffffffffffffffffffffffffffffff1673ffffffffffffffffffffffffffffffffffffffff1673ffffffffffffffffffffffffffffffffffffffff16815260200160018201548152602001600282015481526020016003820154815260200160048201548152505081526020019060010190611442565b50505050925081805480602002602001604051908101604052809291908181526020015f905b828210156115c0578382905f5260205f2090600502016040518060a00160405290815f82015f9054906101000a900473ffffffffffffffffffffffffffffffffffffffff1673ffffffffffffffffffffffffffffffffffffffff1673ffffffffffffffffffffffffffffffffffffffff16815260200160018201548152602001600282015481526020016003820154815260200160048201548152505081526020019060010190611514565b50505050915080805480602002602001604051908101604052809291908181526020015f905b8282101561180a578382905f5260205f2090600802016040518060c00160405290815f8201548152602001600182015f9054906101000a900473ffffffffffffffffffffffffffffffffffffffff1673ffffffffffffffffffffffffffffffffffffffff1673ffffffffffffffffffffffffffffffffffffffff1681526020016001820160149054906101000a900460ff16600381111561168a5761168961353c565b5b600381111561169c5761169b61353c565b5b81526020016002820180546116b09061452a565b80601f01602080910402602001604051908101604052809291908181526020018280546116dc9061452a565b80156117275780601f106116fe57610100808354040283529160200191611727565b820191905f5260205f20905b81548152906001019060200180831161170a57829003601f168201915b505050505081526020016003820180546117409061452a565b80601f016020809104026020016040519081016040528092919081815260200182805461176c9061452a565b80156117b75780601f1061178e576101008083540402835291602001916117b7565b820191905f5260205f20905b81548152906001019060200180831161179a57829003601f168201915b50505050508152602001600482016040518060800160405290815f8201548152602001600182015481526020016002820154815260200160038201548152505081525050815260200190600101906115e6565b505050509050945094509450945094509091929394565b61182961341b565b426006600184611839919061449d565b8154811061184a576118496144d0565b5b905f5260205f20906005020160030181905550600660018361186c919061449d565b8154811061187d5761187c6144d0565b5b905f5260205f2090600502016040518060a00160405290815f82015f9054906101000a900473ffffffffffffffffffffffffffffffffffffffff1673ffffffffffffffffffffffffffffffffffffffff1673ffffffffffffffffffffffffffffffffffffffff1681526020016001820154815260200160028201548152602001600382015481526020016004820154815250509050919050565b5f611923838386611dc2565b9050600b5f9054906101000a900473ffffffffffffffffffffffffffffffffffffffff1673ffffffffffffffffffffffffffffffffffffffff1663183bed6633836040518363ffffffff1660e01b815260040161198192919061455a565b5f604051808303815f87803b158015611998575f80fd5b505af11580156119aa573d5f803e3d5ffd5b505050505f6119ba878787612a8b565b90505f6119c933838787612c0b565b90506119d58184612d03565b5050505050505050565b600981815481106119ee575f80fd5b905f5260205f2090600702015f91509050805f015f9054906101000a900473ffffffffffffffffffffffffffffffffffffffff1690806001015490806002015490806003015490806004015490806005015490806006015f9054906101000a900460ff16908060060160019054906101000a900460ff16905088565b5f611a7482611821565b9050611a838160800151612e91565b5f611a91826080015161055f565b90505f611aab836040015184606001518460a001516108ba565b90505f611ab785611e14565b90505f611ac8826020015184612eeb565b9050600b5f9054906101000a900473ffffffffffffffffffffffffffffffffffffffff1673ffffffffffffffffffffffffffffffffffffffff1663d2f2cf6633866020015186856040518563ffffffff1660e01b8152600401611b2e94939291906146bc565b5f604051808303815f87803b158015611b45575f80fd5b505af1158015611b57573d5f803e3d5ffd5b50505050505050505050565b5f4290505f611b718461055f565b9050611b7c84612fbf565b5f611b888584866130bb565b90505f611b9a84868560a001516108ba565b9050611ba782600a6131b4565b600b5f9054906101000a900473ffffffffffffffffffffffffffffffffffffffff1673ffffffffffffffffffffffffffffffffffffffff1663c7f997d233600a6040518363ffffffff1660e01b8152600401611c04929190614738565b5f604051808303815f87803b158015611c1b575f80fd5b505af1158015611c2d573d5f803e3d5ffd5b50505050505050505050565b60605f8390505f8390505f81518351611c529190614671565b67ffffffffffffffff811115611c6b57611c6a61377c565b5b6040519080825280601f01601f191660200182016040528015611c9d5781602001600182028036833780820191505090505b5090505f805b8451811015611d2a57848181518110611cbf57611cbe6144d0565b5b602001015160f81c60f81b838380611cd6906145c2565b945081518110611ce957611ce86144d0565b5b60200101907effffffffffffffffffffffffffffffffffffffffffffffffffffffffffffff191690815f1a9053508080611d22906145c2565b915050611ca3565b505f5b8351811015611db457838181518110611d4957611d486144d0565b5b602001015160f81c60f81b838380611d60906145c2565b945081518110611d7357611d726144d0565b5b60200101907effffffffffffffffffffffffffffffffffffffffffffffffffffffffffffff191690815f1a9053508080611dac906145c2565b915050611d2d565b508194505050505092915050565b5f610e108484611dd2919061449d565b1115611df057610e10825f0151611de99190614581565b9050611e0d565b8383611dfc919061449d565b825f0151611e0a9190614581565b90505b9392505050565b611e1c6133a4565b5f5b600a80549050811015611f975782600a8281548110611e4057611e3f6144d0565b5b905f5260205f2090600702016002015403611f845760098181548110611e6957611e686144d0565b5b905f5260205f209060070201604051806101000160405290815f82015f9054906101000a900473ffffffffffffffffffffffffffffffffffffffff1673ffffffffffffffffffffffffffffffffffffffff1673ffffffffffffffffffffffffffffffffffffffff1681526020016001820154815260200160028201548152602001600382015481526020016004820154815260200160058201548152602001600682015f9054906101000a900460ff166002811115611f2b57611f2a61353c565b5b6002811115611f3d57611f3c61353c565b5b81526020016006820160019054906101000a900460ff166002811115611f6657611f6561353c565b5b6002811115611f7857611f7761353c565b5b81525050915050611fd3565b8080611f8f906145c2565b915050611e1e565b506040517f08c379a0000000000000000000000000000000000000000000000000000000008152600401611fca90614653565b60405180910390fd5b919050565b60058181548110611fe7575f80fd5b905f5260205f2090600502015f91509050805f015f9054906101000a900473ffffffffffffffffffffffffffffffffffffffff16908060010154908060020154908060030154908060040154905085565b60045f9054906101000a900460ff1681565b61205261341b565b5f6001600580549050612065919061449d565b90505b60058054905081101561216157826005828154811061208a576120896144d0565b5b905f5260205f209060050201600401540361214e57600581815481106120b3576120b26144d0565b5b905f5260205f2090600502016040518060a00160405290815f82015f9054906101000a900473ffffffffffffffffffffffffffffffffffffffff1673ffffffffffffffffffffffffffffffffffffffff1673ffffffffffffffffffffffffffffffffffffffff16815260200160018201548152602001600282015481526020016003820154815260200160048201548152505091505061219d565b80806121599061475f565b915050612068565b506040517f08c379a0000000000000000000000000000000000000000000000000000000008152600401612194906147d0565b60405180910390fd5b919050565b600a81815481106121b1575f80fd5b905f5260205f2090600702015f91509050805f015f9054906101000a900473ffffffffffffffffffffffffffffffffffffffff1690806001015490806002015490806003015490806004015490806005015490806006015f9054906101000a900460ff16908060060160019054906101000a900460ff16905088565b60605f8203612273576040518060400160405280600181526020017f3000000000000000000000000000000000000000000000000000000000000000815250905061238f565b5f8290505f5b5f82146122a257808061228b906145c2565b915050600a8261229b919061481b565b9150612279565b5f8167ffffffffffffffff8111156122bd576122bc61377c565b5b6040519080825280601f01601f1916602001820160405280156122ef5781602001600182028036833780820191505090505b5090505f600183612300919061449d565b90505b5f861461238757600a86612317919061484b565b60306123239190614671565b60f81b8282806123329061475f565b935081518110612345576123446144d0565b5b60200101907effffffffffffffffffffffffffffffffffffffffffffffffffffffffffffff191690815f1a905350600a86612380919061481b565b9550612303565b819450505050505b919050565b60605f8367ffffffffffffffff8111156123b1576123b061377c565b5b6040519080825280602002602001820160405280156123ea57816020015b6123d7613343565b8152602001906001900390816123cf5790505b5090505f8085856123fb9190614581565b90505b600180549050811015612711578673ffffffffffffffffffffffffffffffffffffffff1660018281548110612436576124356144d0565b5b905f5260205f2090600802016001015f9054906101000a900473ffffffffffffffffffffffffffffffffffffffff1673ffffffffffffffffffffffffffffffffffffffff16036126fe57858210156126d4576001818154811061249c5761249b6144d0565b5b905f5260205f2090600802016040518060c00160405290815f8201548152602001600182015f9054906101000a900473ffffffffffffffffffffffffffffffffffffffff1673ffffffffffffffffffffffffffffffffffffffff1673ffffffffffffffffffffffffffffffffffffffff1681526020016001820160149054906101000a900460ff1660038111156125365761253561353c565b5b60038111156125485761254761353c565b5b815260200160028201805461255c9061452a565b80601f01602080910402602001604051908101604052809291908181526020018280546125889061452a565b80156125d35780601f106125aa576101008083540402835291602001916125d3565b820191905f5260205f20905b8154815290600101906020018083116125b657829003601f168201915b505050505081526020016003820180546125ec9061452a565b80601f01602080910402602001604051908101604052809291908181526020018280546126189061452a565b80156126635780601f1061263a57610100808354040283529160200191612663565b820191905f5260205f20905b81548152906001019060200180831161264657829003601f168201915b50505050508152602001600482016040518060800160405290815f82015481526020016001820154815260200160028201548152602001600382015481525050815250508383815181106126ba576126b96144d0565b5b602002602001018190525081806126d0906145c2565b9250505b6001856126e19190614671565b866126ec9190614581565b82106126fd57829350505050612718565b5b8080612709906145c2565b9150506123fe565b5081925050505b9392505050565b61272761341b565b816006600185612737919061449d565b81548110612748576127476144d0565b5b905f5260205f20906005020160030181905550600660018461276a919061449d565b8154811061277b5761277a6144d0565b5b905f5260205f2090600502016040518060a00160405290815f82015f9054906101000a900473ffffffffffffffffffffffffffffffffffffffff1673ffffffffffffffffffffffffffffffffffffffff1673ffffffffffffffffffffffffffffffffffffffff168152602001600182015481526020016002820154815260200160038201548152602001600482015481525050905092915050565b5f80600a600185612827919061449d565b81548110612838576128376144d0565b5b905f5260205f2090600702016004015483612853919061449d565b905082600a600186612865919061449d565b81548110612876576128756144d0565b5b905f5260205f209060070201600401819055508091505092915050565b600160038111156128a7576128a661353c565b5b600180836128b5919061449d565b815481106128c6576128c56144d0565b5b905f5260205f20906008020160010160149054906101000a900460ff1660038111156128f5576128f461353c565b5b14612935576040517f08c379a000000000000000000000000000000000000000000000000000000000815260040161292c906148c5565b60405180910390fd5b600360018083612945919061449d565b81548110612956576129556144d0565b5b905f5260205f20906008020160010160146101000a81548160ff021916908360038111156129875761298661353c565b5b021790555050565b600160028111156129a3576129a261353c565b5b60096001836129b2919061449d565b815481106129c3576129c26144d0565b5b905f5260205f2090600702016006015f9054906101000a900460ff1660028111156129f1576129f061353c565b5b03612a31576040517f08c379a0000000000000000000000000000000000000000000000000000000008152600401612a2890614953565b60405180910390fd5b60016009600183612a42919061449d565b81548110612a5357612a526144d0565b5b905f5260205f2090600702016006015f6101000a81548160ff02191690836002811115612a8357612a8261353c565b5b021790555050565b5f60015f80828254612a9d9190614671565b9250508190555060016040518060c001604052805f5481526020013373ffffffffffffffffffffffffffffffffffffffff16815260200160016003811115612ae857612ae761353c565b5b815260200186815260200185815260200184815250908060018154018082558091505060019003905f5260205f2090600802015f909190919091505f820151815f01556020820151816001015f6101000a81548173ffffffffffffffffffffffffffffffffffffffff021916908373ffffffffffffffffffffffffffffffffffffffff16021790555060408201518160010160146101000a81548160ff02191690836003811115612b9c57612b9b61353c565b5b02179055506060820151816002019081612bb69190614b05565b506080820151816003019081612bcc9190614b05565b5060a0820151816004015f820151815f0155602082015181600101556040820151816002015560608201518160030155505050505f5490509392505050565b5f6001600254612c1b9190614671565b60028190555060056040518060a001604052808773ffffffffffffffffffffffffffffffffffffffff168152602001600254815260200185815260200184815260200186815250908060018154018082558091505060019003905f5260205f2090600502015f909190919091505f820151815f015f6101000a81548173ffffffffffffffffffffffffffffffffffffffff021916908373ffffffffffffffffffffffffffffffffffffffff1602179055506020820151816001015560408201518160020155606082015181600301556080820151816004015550506002549050949350505050565b6001600754612d129190614671565b60078190555060096040518061010001604052803373ffffffffffffffffffffffffffffffffffffffff16815260200160075481526020018481526020018381526020015f81526020015f81526020015f6002811115612d7557612d7461353c565b5b81526020015f6002811115612d8d57612d8c61353c565b5b815250908060018154018082558091505060019003905f5260205f2090600702015f909190919091505f820151815f015f6101000a81548173ffffffffffffffffffffffffffffffffffffffff021916908373ffffffffffffffffffffffffffffffffffffffff1602179055506020820151816001015560408201518160020155606082015181600301556080820151816004015560a0820151816005015560c0820151816006015f6101000a81548160ff02191690836002811115612e5657612e5561353c565b5b021790555060e08201518160060160016101000a81548160ff02191690836002811115612e8657612e8561353c565b5b021790555050505050565b600180600183612ea1919061449d565b81548110612eb257612eb16144d0565b5b905f5260205f20906008020160010160146101000a81548160ff02191690836003811115612ee357612ee261353c565b5b021790555050565b5f8082600a600186612efd919061449d565b81548110612f0e57612f0d6144d0565b5b905f5260205f20906007020160040154612f289190614bd4565b90506001600a600186612f3b919061449d565b81548110612f4c57612f4b6144d0565b5b905f5260205f2090600702016006015f6101000a81548160ff02191690836002811115612f7c57612f7b61353c565b5b021790555082600a600186612f91919061449d565b81548110612fa257612fa16144d0565b5b905f5260205f209060070201600501819055508091505092915050565b60016003811115612fd357612fd261353c565b5b60018083612fe1919061449d565b81548110612ff257612ff16144d0565b5b905f5260205f20906008020160010160149054906101000a900460ff1660038111156130215761302061353c565b5b14613061576040517f08c379a0000000000000000000000000000000000000000000000000000000008152600401613058906148c5565b60405180910390fd5b600260018083613071919061449d565b81548110613082576130816144d0565b5b905f5260205f20906008020160010160146101000a81548160ff021916908360038111156130b3576130b261353c565b5b021790555050565b5f8360016003546130cc9190614671565b60038190555060066040518060a001604052803373ffffffffffffffffffffffffffffffffffffffff168152602001600354815260200186815260200185815260200187815250908060018154018082558091505060019003905f5260205f2090600502015f909190919091505f820151815f015f6101000a81548173ffffffffffffffffffffffffffffffffffffffff021916908373ffffffffffffffffffffffffffffffffffffffff1602179055506020820151816001015560408201518160020155606082015181600301556080820151816004015550506003549150509392505050565b60016008546131c39190614671565b600881905550600a6040518061010001604052803373ffffffffffffffffffffffffffffffffffffffff16815260200160085481526020018481526020015f81526020018381526020015f81526020015f60028111156132265761322561353c565b5b81526020016001600281111561323f5761323e61353c565b5b815250908060018154018082558091505060019003905f5260205f2090600702015f909190919091505f820151815f015f6101000a81548173ffffffffffffffffffffffffffffffffffffffff021916908373ffffffffffffffffffffffffffffffffffffffff1602179055506020820151816001015560408201518160020155606082015181600301556080820151816004015560a0820151816005015560c0820151816006015f6101000a81548160ff021916908360028111156133085761330761353c565b5b021790555060e08201518160060160016101000a81548160ff021916908360028111156133385761333761353c565b5b021790555050505050565b6040518060c001604052805f81526020015f73ffffffffffffffffffffffffffffffffffffffff1681526020015f60038111156133835761338261353c565b5b8152602001606081526020016060815260200161339e61345b565b81525090565b6040518061010001604052805f73ffffffffffffffffffffffffffffffffffffffff1681526020015f81526020015f81526020015f81526020015f81526020015f81526020015f60028111156133fd576133fc61353c565b5b81526020015f60028111156134155761341461353c565b5b81525090565b6040518060a001604052805f73ffffffffffffffffffffffffffffffffffffffff1681526020015f81526020015f81526020015f81526020015f81525090565b60405180608001604052805f81526020015f81526020015f81526020015f81525090565b5f604051905090565b5f80fd5b5f80fd5b5f819050919050565b6134a281613490565b81146134ac575f80fd5b50565b5f813590506134bd81613499565b92915050565b5f602082840312156134d8576134d7613488565b5b5f6134e5848285016134af565b91505092915050565b6134f781613490565b82525050565b5f73ffffffffffffffffffffffffffffffffffffffff82169050919050565b5f613526826134fd565b9050919050565b6135368161351c565b82525050565b7f4e487b71000000000000000000000000000000000000000000000000000000005f52602160045260245ffd5b6004811061357a5761357961353c565b5b50565b5f81905061358a82613569565b919050565b5f6135998261357d565b9050919050565b6135a98161358f565b82525050565b5f81519050919050565b5f82825260208201905092915050565b5f5b838110156135e65780820151818401526020810190506135cb565b5f8484015250505050565b5f601f19601f8301169050919050565b5f61360b826135af565b61361581856135b9565b93506136258185602086016135c9565b61362e816135f1565b840191505092915050565b608082015f82015161364d5f8501826134ee565b50602082015161366060208501826134ee565b50604082015161367360408501826134ee565b50606082015161368660608501826134ee565b50505050565b5f61012083015f8301516136a25f8601826134ee565b5060208301516136b5602086018261352d565b5060408301516136c860408601826135a0565b50606083015184820360608601526136e08282613601565b915050608083015184820360808601526136fa8282613601565b91505060a083015161370f60a0860182613639565b508091505092915050565b5f6020820190508181035f830152613732818461368c565b905092915050565b5f80604083850312156137505761374f613488565b5b5f61375d858286016134af565b925050602061376e858286016134af565b9150509250929050565b5f80fd5b7f4e487b71000000000000000000000000000000000000000000000000000000005f52604160045260245ffd5b6137b2826135f1565b810181811067ffffffffffffffff821117156137d1576137d061377c565b5b80604052505050565b5f6137e361347f565b90506137ef82826137a9565b919050565b5f6080828403121561380957613808613778565b5b61381360806137da565b90505f613822848285016134af565b5f830152506020613835848285016134af565b6020830152506040613849848285016134af565b604083015250606061385d848285016134af565b60608301525092915050565b5f805f60c084860312156138805761387f613488565b5b5f61388d868287016134af565b935050602061389e868287016134af565b92505060406138af868287016137f4565b9150509250925092565b6138c281613490565b82525050565b5f6020820190506138db5f8301846138b9565b92915050565b600381106138f2576138f161353c565b5b50565b5f819050613902826138e1565b919050565b5f613911826138f5565b9050919050565b61392181613907565b82525050565b600381106139385761393761353c565b5b50565b5f81905061394882613927565b919050565b5f6139578261393b565b9050919050565b6139678161394d565b82525050565b61010082015f8201516139825f85018261352d565b50602082015161399560208501826134ee565b5060408201516139a860408501826134ee565b5060608201516139bb60608501826134ee565b5060808201516139ce60808501826134ee565b5060a08201516139e160a08501826134ee565b5060c08201516139f460c0850182613918565b5060e0820151613a0760e085018261395e565b50505050565b5f61010082019050613a215f83018461396d565b92915050565b5f819050919050565b5f613a4a613a45613a40846134fd565b613a27565b6134fd565b9050919050565b5f613a5b82613a30565b9050919050565b5f613a6c82613a51565b9050919050565b613a7c81613a62565b82525050565b5f602082019050613a955f830184613a73565b92915050565b613aa48161351c565b82525050565b613ab38161358f565b82525050565b5f82825260208201905092915050565b5f613ad3826135af565b613add8185613ab9565b9350613aed8185602086016135c9565b613af6816135f1565b840191505092915050565b608082015f820151613b155f8501826134ee565b506020820151613b2860208501826134ee565b506040820151613b3b60408501826134ee565b506060820151613b4e60608501826134ee565b50505050565b5f61012082019050613b685f8301896138b9565b613b756020830188613a9b565b613b826040830187613aaa565b8181036060830152613b948186613ac9565b90508181036080830152613ba88185613ac9565b9050613bb760a0830184613b01565b979650505050505050565b5f60a082019050613bd55f830188613a9b565b613be260208301876138b9565b613bef60408301866138b9565b613bfc60608301856138b9565b613c0960808301846138b9565b9695505050505050565b5f81519050919050565b5f82825260208201905092915050565b5f819050602082019050919050565b5f61012083015f830151613c525f8601826134ee565b506020830151613c65602086018261352d565b506040830151613c7860408601826135a0565b5060608301518482036060860152613c908282613601565b91505060808301518482036080860152613caa8282613601565b91505060a0830151613cbf60a0860182613639565b508091505092915050565b5f613cd58383613c3c565b905092915050565b5f602082019050919050565b5f613cf382613c13565b613cfd8185613c1d565b935083602082028501613d0f85613c2d565b805f5b85811015613d4a5784840389528151613d2b8582613cca565b9450613d3683613cdd565b925060208a01995050600181019050613d12565b50829750879550505050505092915050565b5f6020820190508181035f830152613d748184613ce9565b905092915050565b5f81519050919050565b5f82825260208201905092915050565b5f819050602082019050919050565b61010082015f820151613dba5f85018261352d565b506020820151613dcd60208501826134ee565b506040820151613de060408501826134ee565b506060820151613df360608501826134ee565b506080820151613e0660808501826134ee565b5060a0820151613e1960a08501826134ee565b5060c0820151613e2c60c0850182613918565b5060e0820151613e3f60e085018261395e565b50505050565b5f613e508383613da5565b6101008301905092915050565b5f602082019050919050565b5f613e7382613d7c565b613e7d8185613d86565b9350613e8883613d96565b805f5b83811015613eb8578151613e9f8882613e45565b9750613eaa83613e5d565b925050600181019050613e8b565b5085935050505092915050565b5f81519050919050565b5f82825260208201905092915050565b5f819050602082019050919050565b60a082015f820151613f025f85018261352d565b506020820151613f1560208501826134ee565b506040820151613f2860408501826134ee565b506060820151613f3b60608501826134ee565b506080820151613f4e60808501826134ee565b50505050565b5f613f5f8383613eee565b60a08301905092915050565b5f602082019050919050565b5f613f8182613ec5565b613f8b8185613ecf565b9350613f9683613edf565b805f5b83811015613fc6578151613fad8882613f54565b9750613fb883613f6b565b925050600181019050613f99565b5085935050505092915050565b5f60a0820190508181035f830152613feb8188613e69565b90508181036020830152613fff8187613e69565b905081810360408301526140138186613f77565b905081810360608301526140278185613f77565b9050818103608083015261403b8184613ce9565b90509695505050505050565b60a082015f82015161405b5f85018261352d565b50602082015161406e60208501826134ee565b50604082015161408160408501826134ee565b50606082015161409460608501826134ee565b5060808201516140a760808501826134ee565b50505050565b5f60a0820190506140c05f830184614047565b92915050565b5f80fd5b5f80fd5b5f67ffffffffffffffff8211156140e8576140e761377c565b5b6140f1826135f1565b9050602081019050919050565b828183375f83830152505050565b5f61411e614119846140ce565b6137da565b90508281526020810184848401111561413a576141396140ca565b5b6141458482856140fe565b509392505050565b5f82601f830112614161576141606140c6565b5b813561417184826020860161410c565b91505092915050565b5f805f805f610100868803121561419457614193613488565b5b5f86013567ffffffffffffffff8111156141b1576141b061348c565b5b6141bd8882890161414d565b955050602086013567ffffffffffffffff8111156141de576141dd61348c565b5b6141ea8882890161414d565b94505060406141fb888289016137f4565b93505060c061420c888289016134af565b92505060e061421d888289016134af565b9150509295509295909350565b61423381613907565b82525050565b6142428161394d565b82525050565b5f6101008201905061425c5f83018b613a9b565b614269602083018a6138b9565b61427660408301896138b9565b61428360608301886138b9565b61429060808301876138b9565b61429d60a08301866138b9565b6142aa60c083018561422a565b6142b760e0830184614239565b9998505050505050505050565b5f80604083850312156142da576142d9613488565b5b5f83013567ffffffffffffffff8111156142f7576142f661348c565b5b6143038582860161414d565b925050602083013567ffffffffffffffff8111156143245761432361348c565b5b6143308582860161414d565b9150509250929050565b5f6020820190508181035f8301526143528184613ac9565b905092915050565b5f60ff82169050919050565b61436f8161435a565b82525050565b5f6020820190506143885f830184614366565b92915050565b6143978161351c565b81146143a1575f80fd5b50565b5f813590506143b28161438e565b92915050565b5f805f606084860312156143cf576143ce613488565b5b5f6143dc868287016143a4565b93505060206143ed868287016134af565b92505060406143fe868287016134af565b9150509250925092565b7f6e656564206465766963655f6964203e203000000000000000000000000000005f82015250565b5f61443c601283613ab9565b915061444782614408565b602082019050919050565b5f6020820190508181035f83015261446981614430565b9050919050565b7f4e487b71000000000000000000000000000000000000000000000000000000005f52601160045260245ffd5b5f6144a782613490565b91506144b283613490565b92508282039050818111156144ca576144c9614470565b5b92915050565b7f4e487b71000000000000000000000000000000000000000000000000000000005f52603260045260245ffd5b7f4e487b71000000000000000000000000000000000000000000000000000000005f52602260045260245ffd5b5f600282049050600182168061454157607f821691505b602082108103614554576145536144fd565b5b50919050565b5f60408201905061456d5f830185613a9b565b61457a60208301846138b9565b9392505050565b5f61458b82613490565b915061459683613490565b92508282026145a481613490565b915082820484148315176145bb576145ba614470565b5b5092915050565b5f6145cc82613490565b91507fffffffffffffffffffffffffffffffffffffffffffffffffffffffffffffffff82036145fe576145fd614470565b5b600182019050919050565b7f63616e27742066696e642062696c6c696e6721000000000000000000000000005f82015250565b5f61463d601383613ab9565b915061464882614609565b602082019050919050565b5f6020820190508181035f83015261466a81614631565b9050919050565b5f61467b82613490565b915061468683613490565b925082820190508082111561469e5761469d614470565b5b92915050565b5f819050919050565b6146b6816146a4565b82525050565b5f6080820190506146cf5f830187613a9b565b6146dc6020830186613a9b565b6146e960408301856138b9565b6146f660608301846146ad565b95945050505050565b5f819050919050565b5f61472261471d614718846146ff565b613a27565b613490565b9050919050565b61473281614708565b82525050565b5f60408201905061474b5f830185613a9b565b6147586020830184614729565b9392505050565b5f61476982613490565b91505f820361477b5761477a614470565b5b600182039050919050565b7f63616e27742066696e64206c65617365210000000000000000000000000000005f82015250565b5f6147ba601183613ab9565b91506147c582614786565b602082019050919050565b5f6020820190508181035f8301526147e7816147ae565b9050919050565b7f4e487b71000000000000000000000000000000000000000000000000000000005f52601260045260245ffd5b5f61482582613490565b915061483083613490565b9250826148405761483f6147ee565b5b828204905092915050565b5f61485582613490565b915061486083613490565b9250826148705761486f6147ee565b5b828206905092915050565b7f6e6565642070726520737461747573206f6e6c696e65000000000000000000005f82015250565b5f6148af601683613ab9565b91506148ba8261487b565b602082019050919050565b5f6020820190508181035f8301526148dc816148a3565b9050919050565b7f7374616b6520616d6f756e742068617320616c726561647920756e626c6f636b5f8201527f6564000000000000000000000000000000000000000000000000000000000000602082015250565b5f61493d602283613ab9565b9150614948826148e3565b604082019050919050565b5f6020820190508181035f83015261496a81614931565b9050919050565b5f819050815f5260205f209050919050565b5f6020601f8301049050919050565b5f82821b905092915050565b5f600883026149cd7fffffffffffffffffffffffffffffffffffffffffffffffffffffffffffffffff82614992565b6149d78683614992565b95508019841693508086168417925050509392505050565b5f614a09614a046149ff84613490565b613a27565b613490565b9050919050565b5f819050919050565b614a22836149ef565b614a36614a2e82614a10565b84845461499e565b825550505050565b5f90565b614a4a614a3e565b614a55818484614a19565b505050565b5b81811015614a7857614a6d5f82614a42565b600181019050614a5b565b5050565b601f821115614abd57614a8e81614971565b614a9784614983565b81016020851015614aa6578190505b614aba614ab285614983565b830182614a5a565b50505b505050565b5f82821c905092915050565b5f614add5f1984600802614ac2565b1980831691505092915050565b5f614af58383614ace565b9150826002028217905092915050565b614b0e826135af565b67ffffffffffffffff811115614b2757614b2661377c565b5b614b31825461452a565b614b3c828285614a7c565b5f60209050601f831160018114614b6d575f8415614b5b578287015190505b614b658582614aea565b865550614bcc565b601f198416614b7b86614971565b5f5b82811015614ba257848901518255600182019150602085019450602081019050614b7d565b86831015614bbf5784890151614bbb601f891682614ace565b8355505b6001600288020188555050505b505050505050565b5f614bde826146a4565b9150614be9836146a4565b925082820390508181125f8412168282135f851215161715614c0e57614c0d614470565b5b9291505056fea26469706673582212204697f28773c7a9bdca8e0cad17925170722c42afbcb992d098366edfc30c149964736f6c63430008150033",
  "immutableReferences": {},
  "source": "// SPDX-License-Identifier: SEE LICENSE IN LICENSE\npragma solidity ^0.8.0;\nimport \"./lease.sol\";\nimport \"./account.sol\";\nimport \"./device.sol\";\n\ncontract Helper is Billing {\n\n    AccountFactory public account_contract;\n\n    constructor(address _accountFactoryAddress) {\n        account_contract = AccountFactory(_accountFactoryAddress);\n    }\n\n    // function getAccountContract() private view returns(address)\n\n    function rentServer(uint _deviceId, uint _endTime) public {\n        // device rent\n        uint _startTime = block.timestamp;\n        deviceInfo memory dc = getDevice(_deviceId);\n        rentDevice(_deviceId);\n        uint _leaseId = createRentLease(_deviceId, _startTime, _endTime);\n        uint _stakeAmount = recipientStakeCalcute(_startTime, _endTime, dc.price);\n        createRentBilling(_leaseId, 10);\n        account_contract.rentBlockedFund(msg.sender, 10);\n    }\n\n    // \n    function RenewalLeaseServer(uint _leaseId, uint _endTime) public {\n        leaseInfo memory _lease  = renewalRentLease(_leaseId, _endTime);\n\n        // device rent\n        deviceInfo memory _dc = getDevice(_lease.deviceId);\n        uint _stakeAmount = recipientStakeCalcute(_lease.startTime, _endTime, _dc.price);\n        billingInfo memory _bi = getRecipientBillingByLeaseId(_leaseId);\n        _stakeAmount = renewalRentBilling(_bi.id, _stakeAmount);\n        account_contract.rentBlockedFund(msg.sender, _stakeAmount);\n    }\n\n    function terminateInstance(uint _leaseId) public {\n\n        leaseInfo memory _lease  = terminateLease(_leaseId);\n\n        terminateDevice(_lease.deviceId);\n        // // device rent\n        deviceInfo memory _dc = getDevice(_lease.deviceId);\n\n        uint _stakeAmount = recipientStakeCalcute(_lease.startTime, _lease.expireTime, _dc.price);\n\n        billingInfo memory _bi = getRecipientBillingByLeaseId(_leaseId);\n\n        int _unBlockedAmount = terminateBilling(_bi.id, _stakeAmount);\n\n        account_contract.rentUnBlockedFund(msg.sender, _dc.owner, _stakeAmount, _unBlockedAmount);\n    }\n\n\n    function onlineServer(string memory _machineId, string memory _serverInfo, Price memory _price, uint _startTime, uint _endTime) public {\n        \n        uint _stakeAmount = providerStakeCalcute(_startTime, _endTime, _price);\n        account_contract.onlineBlockedFund(msg.sender, _stakeAmount);\n        uint _deviceId = online(_machineId, _serverInfo, _price);\n        uint _leaseId = onlineLease(msg.sender, _deviceId, _startTime, _endTime);\n        providerOnlineBilling(_leaseId, _stakeAmount);\n    }\n\n    function offlineServer(uint _deviceId) public {\n        offlineDevice(_deviceId);\n        leaseInfo memory _pli = getLeaseByDeviceId(_deviceId);\n        billingInfo memory _bi = getProviderBillingByLeaseId(_pli.leaseId);\n        providerOfflineBilling(_bi.id);\n        account_contract.offlineUnBlockedFund(msg.sender, _bi.providerBlockedFund);\n    }\n\n    function listDevices(uint _limit, uint _offset) public view returns (deviceInfo [] memory _allDevices){\n        deviceInfo [] memory ds = new deviceInfo[](_limit);\n        uint counter = 0;\n        for (uint i = _offset * _limit; i < devices.length; i++ ) {\n            if (devices[i].status == DeviceStatus.Online || devices[i].status == DeviceStatus.Running ) {\n                if (counter < _limit) {\n                    ds[counter] = devices[i];\n                    counter ++;\n                }\n\n                if  (counter >= _limit * (_offset + 1)) {\n                    return ds;\n                }\n            }\n        }\n        return ds;\n    }\n\n    function listOwnDevices(address _provider, uint _limit, uint _offset) public view returns (deviceInfo [] memory _ownDevices){\n        deviceInfo [] memory ds = new deviceInfo [](_limit);\n        uint counter = 0;\n        for (uint i = _offset * _limit; i < devices.length; i++ ) {\n            if (devices[i].owner == _provider) {\n                if (counter < _limit) {\n                    ds[counter] = devices[i];\n                    counter ++;\n                }\n                if  (counter >= _limit * (_offset + 1)) {\n                    return ds;\n                }\n            }\n        }\n        return ds;\n    }\n\n    // , \n    function getAll() public view returns(billingInfo [] memory, billingInfo [] memory, leaseInfo [] memory, leaseInfo [] memory, deviceInfo [] memory){\n        return (providerBillings, recipientBillings, leaseProvider, leaseRecipient, devices);\n    }\n\n}",
  "sourcePath": "/Users/irongyi/solidity_project/apus_network_v0/contracts/helper.sol",
  "compiler": {
    "name": "solc",
    "version": "0.8.21+commit.d9974bed.Emscripten.clang"
  },
  "schemaVersion": "3.4.15",
  "updatedAt": "2023-09-07T14:04:05.803Z",
  "networkType": "ethereum",
  "devdoc": {
    "kind": "dev",
    "methods": {},
    "version": 1
  },
  "userdoc": {
    "kind": "user",
    "methods": {},
    "version": 1
  }
}