{
  "contractName": "Helper",
  "abi": [
    {
      "anonymous": false,
      "inputs": [
        {
          "indexed": true,
          "internalType": "address",
          "name": "previousOwner",
          "type": "address"
        },
        {
          "indexed": true,
          "internalType": "address",
          "name": "newOwner",
          "type": "address"
        }
      ],
      "name": "OwnershipTransferred",
      "type": "event"
    },
    {
      "inputs": [],
      "name": "cancellation",
      "outputs": [],
      "stateMutability": "nonpayable",
      "type": "function"
    },
    {
      "inputs": [
        {
          "internalType": "string",
          "name": "a",
          "type": "string"
        },
        {
          "internalType": "string",
          "name": "b",
          "type": "string"
        }
      ],
      "name": "concatenateStrings",
      "outputs": [
        {
          "internalType": "string",
          "name": "",
          "type": "string"
        }
      ],
      "stateMutability": "pure",
      "type": "function",
      "constant": true
    },
    {
      "inputs": [
        {
          "internalType": "uint256",
          "name": "",
          "type": "uint256"
        }
      ],
      "name": "devices",
      "outputs": [
        {
          "internalType": "uint256",
          "name": "id",
          "type": "uint256"
        },
        {
          "internalType": "address",
          "name": "owner",
          "type": "address"
        },
        {
          "internalType": "enum DeviceStatus",
          "name": "status",
          "type": "uint8"
        },
        {
          "internalType": "string",
          "name": "machineId",
          "type": "string"
        },
        {
          "internalType": "string",
          "name": "serverInfo",
          "type": "string"
        },
        {
          "components": [
            {
              "internalType": "uint256",
              "name": "serverPrice",
              "type": "uint256"
            },
            {
              "internalType": "uint256",
              "name": "storagePrice",
              "type": "uint256"
            },
            {
              "internalType": "uint256",
              "name": "upbandWidth",
              "type": "uint256"
            },
            {
              "internalType": "uint256",
              "name": "downbandWidth",
              "type": "uint256"
            }
          ],
          "internalType": "struct Price",
          "name": "price",
          "type": "tuple"
        }
      ],
      "stateMutability": "view",
      "type": "function",
      "constant": true
    },
    {
      "inputs": [
        {
          "internalType": "address",
          "name": "_addr",
          "type": "address"
        }
      ],
      "name": "getAccount",
      "outputs": [
        {
          "components": [
            {
              "internalType": "address",
              "name": "addr",
              "type": "address"
            },
            {
              "internalType": "uint256",
              "name": "balance",
              "type": "uint256"
            },
            {
              "internalType": "uint256",
              "name": "providerBlockedFunds",
              "type": "uint256"
            },
            {
              "internalType": "uint256",
              "name": "recipientBlockedFunds",
              "type": "uint256"
            },
            {
              "internalType": "string",
              "name": "info",
              "type": "string"
            }
          ],
          "internalType": "struct AccountFactory.accountInfo",
          "name": "",
          "type": "tuple"
        }
      ],
      "stateMutability": "view",
      "type": "function",
      "constant": true
    },
    {
      "inputs": [
        {
          "internalType": "uint256",
          "name": "_deviceId",
          "type": "uint256"
        }
      ],
      "name": "getLeaseByDeviceId",
      "outputs": [
        {
          "components": [
            {
              "internalType": "uint256",
              "name": "leaseId",
              "type": "uint256"
            },
            {
              "internalType": "uint256",
              "name": "startTime",
              "type": "uint256"
            },
            {
              "internalType": "uint256",
              "name": "expireTime",
              "type": "uint256"
            },
            {
              "internalType": "uint256",
              "name": "deviceId",
              "type": "uint256"
            }
          ],
          "internalType": "struct providerLeaseInfo",
          "name": "",
          "type": "tuple"
        }
      ],
      "stateMutability": "view",
      "type": "function",
      "constant": true
    },
    {
      "inputs": [
        {
          "internalType": "address",
          "name": "_user",
          "type": "address"
        }
      ],
      "name": "isRegister",
      "outputs": [
        {
          "internalType": "bool",
          "name": "",
          "type": "bool"
        }
      ],
      "stateMutability": "view",
      "type": "function",
      "constant": true
    },
    {
      "inputs": [
        {
          "internalType": "uint256",
          "name": "",
          "type": "uint256"
        }
      ],
      "name": "leaseProvider",
      "outputs": [
        {
          "internalType": "uint256",
          "name": "leaseId",
          "type": "uint256"
        },
        {
          "internalType": "uint256",
          "name": "startTime",
          "type": "uint256"
        },
        {
          "internalType": "uint256",
          "name": "expireTime",
          "type": "uint256"
        },
        {
          "internalType": "uint256",
          "name": "deviceId",
          "type": "uint256"
        }
      ],
      "stateMutability": "view",
      "type": "function",
      "constant": true
    },
    {
      "inputs": [],
      "name": "owner",
      "outputs": [
        {
          "internalType": "address",
          "name": "",
          "type": "address"
        }
      ],
      "stateMutability": "view",
      "type": "function",
      "constant": true
    },
    {
      "inputs": [],
      "name": "platformSharingRatio",
      "outputs": [
        {
          "internalType": "uint8",
          "name": "",
          "type": "uint8"
        }
      ],
      "stateMutability": "view",
      "type": "function",
      "constant": true
    },
    {
      "inputs": [
        {
          "internalType": "uint256",
          "name": "_startTime",
          "type": "uint256"
        },
        {
          "internalType": "uint256",
          "name": "_endTime",
          "type": "uint256"
        },
        {
          "components": [
            {
              "internalType": "uint256",
              "name": "serverPrice",
              "type": "uint256"
            },
            {
              "internalType": "uint256",
              "name": "storagePrice",
              "type": "uint256"
            },
            {
              "internalType": "uint256",
              "name": "upbandWidth",
              "type": "uint256"
            },
            {
              "internalType": "uint256",
              "name": "downbandWidth",
              "type": "uint256"
            }
          ],
          "internalType": "struct Price",
          "name": "_price",
          "type": "tuple"
        }
      ],
      "name": "providerStakeCalcute",
      "outputs": [
        {
          "internalType": "uint256",
          "name": "",
          "type": "uint256"
        }
      ],
      "stateMutability": "pure",
      "type": "function",
      "constant": true
    },
    {
      "inputs": [],
      "name": "register",
      "outputs": [
        {
          "components": [
            {
              "internalType": "address",
              "name": "addr",
              "type": "address"
            },
            {
              "internalType": "uint256",
              "name": "balance",
              "type": "uint256"
            },
            {
              "internalType": "uint256",
              "name": "providerBlockedFunds",
              "type": "uint256"
            },
            {
              "internalType": "uint256",
              "name": "recipientBlockedFunds",
              "type": "uint256"
            },
            {
              "internalType": "string",
              "name": "info",
              "type": "string"
            }
          ],
          "internalType": "struct AccountFactory.accountInfo",
          "name": "accountinfo",
          "type": "tuple"
        }
      ],
      "stateMutability": "nonpayable",
      "type": "function"
    },
    {
      "inputs": [],
      "name": "renounceOwnership",
      "outputs": [],
      "stateMutability": "nonpayable",
      "type": "function"
    },
    {
      "inputs": [
        {
          "internalType": "string",
          "name": "_info",
          "type": "string"
        }
      ],
      "name": "setProviderInfo",
      "outputs": [],
      "stateMutability": "nonpayable",
      "type": "function"
    },
    {
      "inputs": [],
      "name": "stake",
      "outputs": [],
      "stateMutability": "payable",
      "type": "function",
      "payable": true
    },
    {
      "inputs": [
        {
          "internalType": "address",
          "name": "newOwner",
          "type": "address"
        }
      ],
      "name": "transferOwnership",
      "outputs": [],
      "stateMutability": "nonpayable",
      "type": "function"
    },
    {
      "inputs": [
        {
          "internalType": "uint256",
          "name": "number",
          "type": "uint256"
        }
      ],
      "name": "uintToString",
      "outputs": [
        {
          "internalType": "string",
          "name": "",
          "type": "string"
        }
      ],
      "stateMutability": "pure",
      "type": "function",
      "constant": true
    },
    {
      "inputs": [
        {
          "internalType": "uint256",
          "name": "amount",
          "type": "uint256"
        }
      ],
      "name": "unstake",
      "outputs": [],
      "stateMutability": "payable",
      "type": "function",
      "payable": true
    },
    {
      "inputs": [],
      "name": "withdraw",
      "outputs": [],
      "stateMutability": "nonpayable",
      "type": "function"
    },
    {
      "inputs": [
        {
          "internalType": "string",
          "name": "_machineId",
          "type": "string"
        },
        {
          "internalType": "string",
          "name": "_serverInfo",
          "type": "string"
        },
        {
          "components": [
            {
              "internalType": "uint256",
              "name": "serverPrice",
              "type": "uint256"
            },
            {
              "internalType": "uint256",
              "name": "storagePrice",
              "type": "uint256"
            },
            {
              "internalType": "uint256",
              "name": "upbandWidth",
              "type": "uint256"
            },
            {
              "internalType": "uint256",
              "name": "downbandWidth",
              "type": "uint256"
            }
          ],
          "internalType": "struct Price",
          "name": "_price",
          "type": "tuple"
        },
        {
          "internalType": "uint256",
          "name": "_startTime",
          "type": "uint256"
        },
        {
          "internalType": "uint256",
          "name": "_endTime",
          "type": "uint256"
        }
      ],
      "name": "onlineServer",
      "outputs": [],
      "stateMutability": "nonpayable",
      "type": "function"
    },
    {
      "inputs": [
        {
          "internalType": "uint256",
          "name": "_limit",
          "type": "uint256"
        },
        {
          "internalType": "uint256",
          "name": "_offset",
          "type": "uint256"
        }
      ],
      "name": "listDevices",
      "outputs": [
        {
          "components": [
            {
              "internalType": "uint256",
              "name": "id",
              "type": "uint256"
            },
            {
              "internalType": "address",
              "name": "owner",
              "type": "address"
            },
            {
              "internalType": "enum DeviceStatus",
              "name": "status",
              "type": "uint8"
            },
            {
              "internalType": "string",
              "name": "machineId",
              "type": "string"
            },
            {
              "internalType": "string",
              "name": "serverInfo",
              "type": "string"
            },
            {
              "components": [
                {
                  "internalType": "uint256",
                  "name": "serverPrice",
                  "type": "uint256"
                },
                {
                  "internalType": "uint256",
                  "name": "storagePrice",
                  "type": "uint256"
                },
                {
                  "internalType": "uint256",
                  "name": "upbandWidth",
                  "type": "uint256"
                },
                {
                  "internalType": "uint256",
                  "name": "downbandWidth",
                  "type": "uint256"
                }
              ],
              "internalType": "struct Price",
              "name": "price",
              "type": "tuple"
            }
          ],
          "internalType": "struct deviceInfo[]",
          "name": "_allDevices",
          "type": "tuple[]"
        }
      ],
      "stateMutability": "view",
      "type": "function",
      "constant": true
    },
    {
      "inputs": [
        {
          "internalType": "address",
          "name": "_provider",
          "type": "address"
        },
        {
          "internalType": "uint256",
          "name": "_limit",
          "type": "uint256"
        },
        {
          "internalType": "uint256",
          "name": "_offset",
          "type": "uint256"
        }
      ],
      "name": "listOwnDevices",
      "outputs": [
        {
          "components": [
            {
              "internalType": "uint256",
              "name": "id",
              "type": "uint256"
            },
            {
              "internalType": "address",
              "name": "owner",
              "type": "address"
            },
            {
              "internalType": "enum DeviceStatus",
              "name": "status",
              "type": "uint8"
            },
            {
              "internalType": "string",
              "name": "machineId",
              "type": "string"
            },
            {
              "internalType": "string",
              "name": "serverInfo",
              "type": "string"
            },
            {
              "components": [
                {
                  "internalType": "uint256",
                  "name": "serverPrice",
                  "type": "uint256"
                },
                {
                  "internalType": "uint256",
                  "name": "storagePrice",
                  "type": "uint256"
                },
                {
                  "internalType": "uint256",
                  "name": "upbandWidth",
                  "type": "uint256"
                },
                {
                  "internalType": "uint256",
                  "name": "downbandWidth",
                  "type": "uint256"
                }
              ],
              "internalType": "struct Price",
              "name": "price",
              "type": "tuple"
            }
          ],
          "internalType": "struct deviceInfo[]",
          "name": "_ownDevices",
          "type": "tuple[]"
        }
      ],
      "stateMutability": "view",
      "type": "function",
      "constant": true
    }
  ],
  "bytecode": "0x60806040525f80555f6002555f60035f6101000a81548160ff021916908360ff16021790555034801562000031575f80fd5b5062000052620000466200005860201b60201c565b6200005f60201b60201c565b62000122565b5f33905090565b5f60055f9054906101000a900473ffffffffffffffffffffffffffffffffffffffff1690508160055f6101000a81548173ffffffffffffffffffffffffffffffffffffffff021916908373ffffffffffffffffffffffffffffffffffffffff1602179055508173ffffffffffffffffffffffffffffffffffffffff168173ffffffffffffffffffffffffffffffffffffffff167f8be0079c531659141344cd1fd0a4f28419497f9722a3daafe3b4186f6b6457e060405160405180910390a35050565b613a9c80620001305f395ff3fe608060405260043610610129575f3560e01c8063715018a6116100aa578063c74ce95c1161006e578063c74ce95c146103a9578063d67b9afd146103d3578063e93956791461040f578063f2fde38b1461044b578063fbcbc0f114610473578063ff459ec6146104af57610129565b8063715018a6146102b25780637a36b3ee146102c85780638da5cb5b14610304578063a3a4aff41461032e578063c46dcec51461036a57610129565b80633940ab77116100f15780633940ab771461022c5780633a4b66f1146102545780633ccfd60b1461025e57806340405078146102745780635f41fa0e1461028a57610129565b806310ff8e311461012d5780631aa3a0081461016e57806322fdef94146101985780632b90c592146101d45780632e17de7814610210575b5f80fd5b348015610138575f80fd5b50610153600480360381019061014e9190612769565b6104eb565b60405161016596959493929190612941565b60405180910390f35b348015610179575f80fd5b5061018261069b565b60405161018f9190612a79565b60405180910390f35b3480156101a3575f80fd5b506101be60048036038101906101b99190612ac3565b610987565b6040516101cb9190612b08565b60405180910390f35b3480156101df575f80fd5b506101fa60048036038101906101f59190612b21565b610a1d565b6040516102079190612d0a565b60405180910390f35b61022a60048036038101906102259190612769565b610e03565b005b348015610237575f80fd5b50610252600480360381019061024d9190612e56565b61106f565b005b61025c61118e565b005b348015610269575f80fd5b506102726114ac565b005b34801561027f575f80fd5b50610288611575565b005b348015610295575f80fd5b506102b060048036038101906102ab9190612f16565b611600565b005b3480156102bd575f80fd5b506102c661163a565b005b3480156102d3575f80fd5b506102ee60048036038101906102e99190612fc6565b6116c1565b6040516102fb919061303c565b60405180910390f35b34801561030f575f80fd5b5061031861184a565b604051610325919061305c565b60405180910390f35b348015610339575f80fd5b50610354600480360381019061034f9190613075565b611872565b60405161036191906130c5565b60405180910390f35b348015610375575f80fd5b50610390600480360381019061038b9190612769565b611896565b6040516103a094939291906130de565b60405180910390f35b3480156103b4575f80fd5b506103bd6118d1565b6040516103ca919061313c565b60405180910390f35b3480156103de575f80fd5b506103f960048036038101906103f49190612769565b6118e3565b60405161040691906131a8565b60405180910390f35b34801561041a575f80fd5b5061043560048036038101906104309190612769565b6119d2565b604051610442919061303c565b60405180910390f35b348015610456575f80fd5b50610471600480360381019061046c9190612ac3565b611b39565b005b34801561047e575f80fd5b5061049960048036038101906104949190612ac3565b611c2f565b6040516104a69190612a79565b60405180910390f35b3480156104ba575f80fd5b506104d560048036038101906104d091906131c1565b611e56565b6040516104e29190612d0a565b60405180910390f35b600181815481106104fa575f80fd5b905f5260205f2090600802015f91509050805f015490806001015f9054906101000a900473ffffffffffffffffffffffffffffffffffffffff16908060010160149054906101000a900460ff16908060020180546105579061323e565b80601f01602080910402602001604051908101604052809291908181526020018280546105839061323e565b80156105ce5780601f106105a5576101008083540402835291602001916105ce565b820191905f5260205f20905b8154815290600101906020018083116105b157829003601f168201915b5050505050908060030180546105e39061323e565b80601f016020809104026020016040519081016040528092919081815260200182805461060f9061323e565b801561065a5780601f106106315761010080835404028352916020019161065a565b820191905f5260205f20905b81548152906001019060200180831161063d57829003601f168201915b505050505090806004016040518060800160405290815f82015481526020016001820154815260200160028201548152602001600382015481525050905086565b6106a36125e3565b5f73ffffffffffffffffffffffffffffffffffffffff1660065f3373ffffffffffffffffffffffffffffffffffffffff1673ffffffffffffffffffffffffffffffffffffffff1681526020019081526020015f205f015f9054906101000a900473ffffffffffffffffffffffffffffffffffffffff1673ffffffffffffffffffffffffffffffffffffffff1603610838576040518060a001604052803373ffffffffffffffffffffffffffffffffffffffff1681526020015f81526020015f81526020015f815260200160405180602001604052805f81525081525060065f3373ffffffffffffffffffffffffffffffffffffffff1673ffffffffffffffffffffffffffffffffffffffff1681526020019081526020015f205f820151815f015f6101000a81548173ffffffffffffffffffffffffffffffffffffffff021916908373ffffffffffffffffffffffffffffffffffffffff1602179055506020820151816001015560408201518160020155606082015181600301556080820151816004019081610833919061340b565b509050505b60065f3373ffffffffffffffffffffffffffffffffffffffff1673ffffffffffffffffffffffffffffffffffffffff1681526020019081526020015f206040518060a00160405290815f82015f9054906101000a900473ffffffffffffffffffffffffffffffffffffffff1673ffffffffffffffffffffffffffffffffffffffff1673ffffffffffffffffffffffffffffffffffffffff1681526020016001820154815260200160028201548152602001600382015481526020016004820180546109029061323e565b80601f016020809104026020016040519081016040528092919081815260200182805461092e9061323e565b80156109795780601f1061095057610100808354040283529160200191610979565b820191905f5260205f20905b81548152906001019060200180831161095c57829003601f168201915b505050505081525050905090565b5f8073ffffffffffffffffffffffffffffffffffffffff1660065f8473ffffffffffffffffffffffffffffffffffffffff1673ffffffffffffffffffffffffffffffffffffffff1681526020019081526020015f205f015f9054906101000a900473ffffffffffffffffffffffffffffffffffffffff1673ffffffffffffffffffffffffffffffffffffffff1614159050919050565b60605f8367ffffffffffffffff811115610a3a57610a39612d32565b5b604051908082528060200260200182016040528015610a7357816020015b610a60612624565b815260200190600190039081610a585790505b5090505f808585610a849190613507565b90505b600180549050811015610df65760016003811115610aa857610aa76127e2565b5b60018281548110610abc57610abb613548565b5b905f5260205f20906008020160010160149054906101000a900460ff166003811115610aeb57610aea6127e2565b5b1480610b4b575060026003811115610b0657610b056127e2565b5b60018281548110610b1a57610b19613548565b5b905f5260205f20906008020160010160149054906101000a900460ff166003811115610b4957610b486127e2565b5b145b15610de3578180610b5b90613575565b9250508486610b6a9190613507565b821115610dc55760018181548110610b8557610b84613548565b5b905f5260205f2090600802016040518060c00160405290815f8201548152602001600182015f9054906101000a900473ffffffffffffffffffffffffffffffffffffffff1673ffffffffffffffffffffffffffffffffffffffff1673ffffffffffffffffffffffffffffffffffffffff1681526020016001820160149054906101000a900460ff166003811115610c1f57610c1e6127e2565b5b6003811115610c3157610c306127e2565b5b8152602001600282018054610c459061323e565b80601f0160208091040260200160405190810160405280929190818152602001828054610c719061323e565b8015610cbc5780601f10610c9357610100808354040283529160200191610cbc565b820191905f5260205f20905b815481529060010190602001808311610c9f57829003601f168201915b50505050508152602001600382018054610cd59061323e565b80601f0160208091040260200160405190810160405280929190818152602001828054610d019061323e565b8015610d4c5780601f10610d2357610100808354040283529160200191610d4c565b820191905f5260205f20905b815481529060010190602001808311610d2f57829003601f168201915b50505050508152602001600482016040518060800160405290815f8201548152602001600182015481526020016002820154815260200160038201548152505081525050838688610d9d9190613507565b84610da891906135bc565b81518110610db957610db8613548565b5b60200260200101819052505b8486610dd19190613507565b8210610de257829350505050610dfd565b5b8080610dee90613575565b915050610a87565b5081925050505b92915050565b5f60065f3373ffffffffffffffffffffffffffffffffffffffff1673ffffffffffffffffffffffffffffffffffffffff1681526020019081526020015f206040518060a00160405290815f82015f9054906101000a900473ffffffffffffffffffffffffffffffffffffffff1673ffffffffffffffffffffffffffffffffffffffff1673ffffffffffffffffffffffffffffffffffffffff168152602001600182015481526020016002820154815260200160038201548152602001600482018054610ece9061323e565b80601f0160208091040260200160405190810160405280929190818152602001828054610efa9061323e565b8015610f455780601f10610f1c57610100808354040283529160200191610f45565b820191905f5260205f20905b815481529060010190602001808311610f2857829003601f168201915b50505050508152505090508181602001511015610f97576040517f08c379a0000000000000000000000000000000000000000000000000000000008152600401610f8e90613639565b60405180910390fd5b8160065f3373ffffffffffffffffffffffffffffffffffffffff1673ffffffffffffffffffffffffffffffffffffffff1681526020019081526020015f2060010154610fe391906135bc565b60065f3373ffffffffffffffffffffffffffffffffffffffff1673ffffffffffffffffffffffffffffffffffffffff1681526020019081526020015f20600101819055503373ffffffffffffffffffffffffffffffffffffffff166108fc8390811502906040515f60405180830381858888f1935050505015801561106a573d5f803e3d5ffd5b505050565b335f73ffffffffffffffffffffffffffffffffffffffff1660065f8373ffffffffffffffffffffffffffffffffffffffff1673ffffffffffffffffffffffffffffffffffffffff1681526020019081526020015f205f015f9054906101000a900473ffffffffffffffffffffffffffffffffffffffff1673ffffffffffffffffffffffffffffffffffffffff160361113c576040517f08c379a0000000000000000000000000000000000000000000000000000000008152600401611133906136a1565b60405180910390fd5b8160065f3373ffffffffffffffffffffffffffffffffffffffff1673ffffffffffffffffffffffffffffffffffffffff1681526020019081526020015f206004019081611189919061340b565b505050565b335f73ffffffffffffffffffffffffffffffffffffffff1660065f8373ffffffffffffffffffffffffffffffffffffffff1673ffffffffffffffffffffffffffffffffffffffff1681526020019081526020015f205f015f9054906101000a900473ffffffffffffffffffffffffffffffffffffffff1673ffffffffffffffffffffffffffffffffffffffff160361125b576040517f08c379a0000000000000000000000000000000000000000000000000000000008152600401611252906136a1565b60405180910390fd5b5f60065f3373ffffffffffffffffffffffffffffffffffffffff1673ffffffffffffffffffffffffffffffffffffffff1681526020019081526020015f2090505f73ffffffffffffffffffffffffffffffffffffffff16815f015f9054906101000a900473ffffffffffffffffffffffffffffffffffffffff1673ffffffffffffffffffffffffffffffffffffffff16036114175733815f015f6101000a81548173ffffffffffffffffffffffffffffffffffffffff021916908373ffffffffffffffffffffffffffffffffffffffff1602179055503481600101819055508060065f3373ffffffffffffffffffffffffffffffffffffffff1673ffffffffffffffffffffffffffffffffffffffff1681526020019081526020015f205f82015f9054906101000a900473ffffffffffffffffffffffffffffffffffffffff16815f015f6101000a81548173ffffffffffffffffffffffffffffffffffffffff021916908373ffffffffffffffffffffffffffffffffffffffff1602179055506001820154816001015560028201548160020155600382015481600301556004820181600401908161140d91906136d4565b50905050506114a9565b3460065f3373ffffffffffffffffffffffffffffffffffffffff1673ffffffffffffffffffffffffffffffffffffffff1681526020019081526020015f206001015461146391906137b9565b60065f3373ffffffffffffffffffffffffffffffffffffffff1673ffffffffffffffffffffffffffffffffffffffff1681526020019081526020015f2060010181905550505b50565b6114b46121d2565b73ffffffffffffffffffffffffffffffffffffffff166114d261184a565b73ffffffffffffffffffffffffffffffffffffffff1614611528576040517f08c379a000000000000000000000000000000000000000000000000000000000815260040161151f90613836565b60405180910390fd5b61153061184a565b73ffffffffffffffffffffffffffffffffffffffff166108fc4790811502906040515f60405180830381858888f19350505050158015611572573d5f803e3d5ffd5b50565b60065f3373ffffffffffffffffffffffffffffffffffffffff1673ffffffffffffffffffffffffffffffffffffffff1681526020019081526020015f205f8082015f6101000a81549073ffffffffffffffffffffffffffffffffffffffff0219169055600182015f9055600282015f9055600382015f9055600482015f6115fc9190612685565b5050565b5f61160c838386611872565b9050611617816121d9565b5f61162387878761230b565b905061163081858561248b565b5050505050505050565b6116426121d2565b73ffffffffffffffffffffffffffffffffffffffff1661166061184a565b73ffffffffffffffffffffffffffffffffffffffff16146116b6576040517f08c379a00000000000000000000000000000000000000000000000000000000081526004016116ad90613836565b60405180910390fd5b6116bf5f612520565b565b60605f8390505f8390505f815183516116da91906137b9565b67ffffffffffffffff8111156116f3576116f2612d32565b5b6040519080825280601f01601f1916602001820160405280156117255781602001600182028036833780820191505090505b5090505f805b84518110156117b25784818151811061174757611746613548565b5b602001015160f81c60f81b83838061175e90613575565b94508151811061177157611770613548565b5b60200101907effffffffffffffffffffffffffffffffffffffffffffffffffffffffffffff191690815f1a90535080806117aa90613575565b91505061172b565b505f5b835181101561183c578381815181106117d1576117d0613548565b5b602001015160f81c60f81b8383806117e890613575565b9450815181106117fb576117fa613548565b5b60200101907effffffffffffffffffffffffffffffffffffffffffffffffffffffffffffff191690815f1a905350808061183490613575565b9150506117b5565b508194505050505092915050565b5f60055f9054906101000a900473ffffffffffffffffffffffffffffffffffffffff16905090565b5f838361187f91906135bc565b825f015161188d9190613507565b90509392505050565b600481815481106118a5575f80fd5b905f5260205f2090600402015f91509050805f0154908060010154908060020154908060030154905084565b60035f9054906101000a900460ff1681565b6118eb6126c2565b5f5b60048054905081101561199157826004828154811061190f5761190e613548565b5b905f5260205f209060040201600301540361197e576004818154811061193857611937613548565b5b905f5260205f2090600402016040518060800160405290815f820154815260200160018201548152602001600282015481526020016003820154815250509150506119cd565b808061198990613575565b9150506118ed565b506040517f08c379a00000000000000000000000000000000000000000000000000000000081526004016119c49061389e565b60405180910390fd5b919050565b60605f8203611a18576040518060400160405280600181526020017f30000000000000000000000000000000000000000000000000000000000000008152509050611b34565b5f8290505f5b5f8214611a47578080611a3090613575565b915050600a82611a4091906138e9565b9150611a1e565b5f8167ffffffffffffffff811115611a6257611a61612d32565b5b6040519080825280601f01601f191660200182016040528015611a945781602001600182028036833780820191505090505b5090505f600183611aa591906135bc565b90505b5f8614611b2c57600a86611abc9190613919565b6030611ac891906137b9565b60f81b828280611ad790613949565b935081518110611aea57611ae9613548565b5b60200101907effffffffffffffffffffffffffffffffffffffffffffffffffffffffffffff191690815f1a905350600a86611b2591906138e9565b9550611aa8565b819450505050505b919050565b611b416121d2565b73ffffffffffffffffffffffffffffffffffffffff16611b5f61184a565b73ffffffffffffffffffffffffffffffffffffffff1614611bb5576040517f08c379a0000000000000000000000000000000000000000000000000000000008152600401611bac90613836565b60405180910390fd5b5f73ffffffffffffffffffffffffffffffffffffffff168173ffffffffffffffffffffffffffffffffffffffff1603611c23576040517f08c379a0000000000000000000000000000000000000000000000000000000008152600401611c1a906139e0565b60405180910390fd5b611c2c81612520565b50565b611c376125e3565b815f73ffffffffffffffffffffffffffffffffffffffff1660065f8373ffffffffffffffffffffffffffffffffffffffff1673ffffffffffffffffffffffffffffffffffffffff1681526020019081526020015f205f015f9054906101000a900473ffffffffffffffffffffffffffffffffffffffff1673ffffffffffffffffffffffffffffffffffffffff1603611d04576040517f08c379a0000000000000000000000000000000000000000000000000000000008152600401611cfb906136a1565b60405180910390fd5b60065f8473ffffffffffffffffffffffffffffffffffffffff1673ffffffffffffffffffffffffffffffffffffffff1681526020019081526020015f206040518060a00160405290815f82015f9054906101000a900473ffffffffffffffffffffffffffffffffffffffff1673ffffffffffffffffffffffffffffffffffffffff1673ffffffffffffffffffffffffffffffffffffffff168152602001600182015481526020016002820154815260200160038201548152602001600482018054611dce9061323e565b80601f0160208091040260200160405190810160405280929190818152602001828054611dfa9061323e565b8015611e455780601f10611e1c57610100808354040283529160200191611e45565b820191905f5260205f20905b815481529060010190602001808311611e2857829003601f168201915b505050505081525050915050919050565b60605f8367ffffffffffffffff811115611e7357611e72612d32565b5b604051908082528060200260200182016040528015611eac57816020015b611e99612624565b815260200190600190039081611e915790505b5090505f805b6001805490508110156121c4578673ffffffffffffffffffffffffffffffffffffffff1660018281548110611eea57611ee9613548565b5b905f5260205f2090600802016001015f9054906101000a900473ffffffffffffffffffffffffffffffffffffffff1673ffffffffffffffffffffffffffffffffffffffff16036121b1578486611f409190613507565b8211156121855760018181548110611f5b57611f5a613548565b5b905f5260205f2090600802016040518060c00160405290815f8201548152602001600182015f9054906101000a900473ffffffffffffffffffffffffffffffffffffffff1673ffffffffffffffffffffffffffffffffffffffff1673ffffffffffffffffffffffffffffffffffffffff1681526020016001820160149054906101000a900460ff166003811115611ff557611ff46127e2565b5b6003811115612007576120066127e2565b5b815260200160028201805461201b9061323e565b80601f01602080910402602001604051908101604052809291908181526020018280546120479061323e565b80156120925780601f1061206957610100808354040283529160200191612092565b820191905f5260205f20905b81548152906001019060200180831161207557829003601f168201915b505050505081526020016003820180546120ab9061323e565b80601f01602080910402602001604051908101604052809291908181526020018280546120d79061323e565b80156121225780601f106120f957610100808354040283529160200191612122565b820191905f5260205f20905b81548152906001019060200180831161210557829003601f168201915b50505050508152602001600482016040518060800160405290815f820154815260200160018201548152602001600282015481526020016003820154815250508152505083838151811061217957612178613548565b5b60200260200101819052505b818061219090613575565b925050848661219f9190613507565b82106121b0578293505050506121cb565b5b80806121bc90613575565b915050611eb2565b5081925050505b9392505050565b5f33905090565b60065f3373ffffffffffffffffffffffffffffffffffffffff1673ffffffffffffffffffffffffffffffffffffffff1681526020019081526020015f206001015481111561225c576040517f08c379a000000000000000000000000000000000000000000000000000000000815260040161225390613a48565b60405180910390fd5b8060065f3373ffffffffffffffffffffffffffffffffffffffff1673ffffffffffffffffffffffffffffffffffffffff1681526020019081526020015f206001015f8282546122ab91906135bc565b925050819055508060065f3373ffffffffffffffffffffffffffffffffffffffff1673ffffffffffffffffffffffffffffffffffffffff1681526020019081526020015f206002015f82825461230191906137b9565b9250508190555050565b5f60015f8082825461231d91906137b9565b9250508190555060016040518060c001604052805f5481526020013373ffffffffffffffffffffffffffffffffffffffff16815260200160016003811115612368576123676127e2565b5b815260200186815260200185815260200184815250908060018154018082558091505060019003905f5260205f2090600802015f909190919091505f820151815f01556020820151816001015f6101000a81548173ffffffffffffffffffffffffffffffffffffffff021916908373ffffffffffffffffffffffffffffffffffffffff16021790555060408201518160010160146101000a81548160ff0219169083600381111561241c5761241b6127e2565b5b02179055506060820151816002019081612436919061340b565b50608082015181600301908161244c919061340b565b5060a0820151816004015f820151815f0155602082015181600101556040820151816002015560608201518160030155505050505f5490509392505050565b5f600160025461249b91906137b9565b60028190555060046040518060800160405280600254815260200185815260200184815260200186815250908060018154018082558091505060019003905f5260205f2090600402015f909190919091505f820151815f0155602082015181600101556040820151816002015560608201518160030155505060025490509392505050565b5f60055f9054906101000a900473ffffffffffffffffffffffffffffffffffffffff1690508160055f6101000a81548173ffffffffffffffffffffffffffffffffffffffff021916908373ffffffffffffffffffffffffffffffffffffffff1602179055508173ffffffffffffffffffffffffffffffffffffffff168173ffffffffffffffffffffffffffffffffffffffff167f8be0079c531659141344cd1fd0a4f28419497f9722a3daafe3b4186f6b6457e060405160405180910390a35050565b6040518060a001604052805f73ffffffffffffffffffffffffffffffffffffffff1681526020015f81526020015f81526020015f8152602001606081525090565b6040518060c001604052805f81526020015f73ffffffffffffffffffffffffffffffffffffffff1681526020015f6003811115612664576126636127e2565b5b8152602001606081526020016060815260200161267f6126e6565b81525090565b5080546126919061323e565b5f825580601f106126a257506126bf565b601f0160209004905f5260205f20908101906126be919061270a565b5b50565b60405180608001604052805f81526020015f81526020015f81526020015f81525090565b60405180608001604052805f81526020015f81526020015f81526020015f81525090565b5b80821115612721575f815f90555060010161270b565b5090565b5f604051905090565b5f80fd5b5f80fd5b5f819050919050565b61274881612736565b8114612752575f80fd5b50565b5f813590506127638161273f565b92915050565b5f6020828403121561277e5761277d61272e565b5b5f61278b84828501612755565b91505092915050565b61279d81612736565b82525050565b5f73ffffffffffffffffffffffffffffffffffffffff82169050919050565b5f6127cc826127a3565b9050919050565b6127dc816127c2565b82525050565b7f4e487b71000000000000000000000000000000000000000000000000000000005f52602160045260245ffd5b600481106128205761281f6127e2565b5b50565b5f8190506128308261280f565b919050565b5f61283f82612823565b9050919050565b61284f81612835565b82525050565b5f81519050919050565b5f82825260208201905092915050565b5f5b8381101561288c578082015181840152602081019050612871565b5f8484015250505050565b5f601f19601f8301169050919050565b5f6128b182612855565b6128bb818561285f565b93506128cb81856020860161286f565b6128d481612897565b840191505092915050565b6128e881612736565b82525050565b608082015f8201516129025f8501826128df565b50602082015161291560208501826128df565b50604082015161292860408501826128df565b50606082015161293b60608501826128df565b50505050565b5f610120820190506129555f830189612794565b61296260208301886127d3565b61296f6040830187612846565b818103606083015261298181866128a7565b9050818103608083015261299581856128a7565b90506129a460a08301846128ee565b979650505050505050565b6129b8816127c2565b82525050565b5f82825260208201905092915050565b5f6129d882612855565b6129e281856129be565b93506129f281856020860161286f565b6129fb81612897565b840191505092915050565b5f60a083015f830151612a1b5f8601826129af565b506020830151612a2e60208601826128df565b506040830151612a4160408601826128df565b506060830151612a5460608601826128df565b5060808301518482036080860152612a6c82826129ce565b9150508091505092915050565b5f6020820190508181035f830152612a918184612a06565b905092915050565b612aa2816127c2565b8114612aac575f80fd5b50565b5f81359050612abd81612a99565b92915050565b5f60208284031215612ad857612ad761272e565b5b5f612ae584828501612aaf565b91505092915050565b5f8115159050919050565b612b0281612aee565b82525050565b5f602082019050612b1b5f830184612af9565b92915050565b5f8060408385031215612b3757612b3661272e565b5b5f612b4485828601612755565b9250506020612b5585828601612755565b9150509250929050565b5f81519050919050565b5f82825260208201905092915050565b5f819050602082019050919050565b612b9181612835565b82525050565b608082015f820151612bab5f8501826128df565b506020820151612bbe60208501826128df565b506040820151612bd160408501826128df565b506060820151612be460608501826128df565b50505050565b5f61012083015f830151612c005f8601826128df565b506020830151612c1360208601826129af565b506040830151612c266040860182612b88565b5060608301518482036060860152612c3e82826129ce565b91505060808301518482036080860152612c5882826129ce565b91505060a0830151612c6d60a0860182612b97565b508091505092915050565b5f612c838383612bea565b905092915050565b5f602082019050919050565b5f612ca182612b5f565b612cab8185612b69565b935083602082028501612cbd85612b79565b805f5b85811015612cf85784840389528151612cd98582612c78565b9450612ce483612c8b565b925060208a01995050600181019050612cc0565b50829750879550505050505092915050565b5f6020820190508181035f830152612d228184612c97565b905092915050565b5f80fd5b5f80fd5b7f4e487b71000000000000000000000000000000000000000000000000000000005f52604160045260245ffd5b612d6882612897565b810181811067ffffffffffffffff82111715612d8757612d86612d32565b5b80604052505050565b5f612d99612725565b9050612da58282612d5f565b919050565b5f67ffffffffffffffff821115612dc457612dc3612d32565b5b612dcd82612897565b9050602081019050919050565b828183375f83830152505050565b5f612dfa612df584612daa565b612d90565b905082815260208101848484011115612e1657612e15612d2e565b5b612e21848285612dda565b509392505050565b5f82601f830112612e3d57612e3c612d2a565b5b8135612e4d848260208601612de8565b91505092915050565b5f60208284031215612e6b57612e6a61272e565b5b5f82013567ffffffffffffffff811115612e8857612e87612732565b5b612e9484828501612e29565b91505092915050565b5f80fd5b5f60808284031215612eb657612eb5612e9d565b5b612ec06080612d90565b90505f612ecf84828501612755565b5f830152506020612ee284828501612755565b6020830152506040612ef684828501612755565b6040830152506060612f0a84828501612755565b60608301525092915050565b5f805f805f6101008688031215612f3057612f2f61272e565b5b5f86013567ffffffffffffffff811115612f4d57612f4c612732565b5b612f5988828901612e29565b955050602086013567ffffffffffffffff811115612f7a57612f79612732565b5b612f8688828901612e29565b9450506040612f9788828901612ea1565b93505060c0612fa888828901612755565b92505060e0612fb988828901612755565b9150509295509295909350565b5f8060408385031215612fdc57612fdb61272e565b5b5f83013567ffffffffffffffff811115612ff957612ff8612732565b5b61300585828601612e29565b925050602083013567ffffffffffffffff81111561302657613025612732565b5b61303285828601612e29565b9150509250929050565b5f6020820190508181035f83015261305481846128a7565b905092915050565b5f60208201905061306f5f8301846127d3565b92915050565b5f805f60c0848603121561308c5761308b61272e565b5b5f61309986828701612755565b93505060206130aa86828701612755565b92505060406130bb86828701612ea1565b9150509250925092565b5f6020820190506130d85f830184612794565b92915050565b5f6080820190506130f15f830187612794565b6130fe6020830186612794565b61310b6040830185612794565b6131186060830184612794565b95945050505050565b5f60ff82169050919050565b61313681613121565b82525050565b5f60208201905061314f5f83018461312d565b92915050565b608082015f8201516131695f8501826128df565b50602082015161317c60208501826128df565b50604082015161318f60408501826128df565b5060608201516131a260608501826128df565b50505050565b5f6080820190506131bb5f830184613155565b92915050565b5f805f606084860312156131d8576131d761272e565b5b5f6131e586828701612aaf565b93505060206131f686828701612755565b925050604061320786828701612755565b9150509250925092565b7f4e487b71000000000000000000000000000000000000000000000000000000005f52602260045260245ffd5b5f600282049050600182168061325557607f821691505b60208210810361326857613267613211565b5b50919050565b5f819050815f5260205f209050919050565b5f6020601f8301049050919050565b5f82821b905092915050565b5f600883026132ca7fffffffffffffffffffffffffffffffffffffffffffffffffffffffffffffffff8261328f565b6132d4868361328f565b95508019841693508086168417925050509392505050565b5f819050919050565b5f61330f61330a61330584612736565b6132ec565b612736565b9050919050565b5f819050919050565b613328836132f5565b61333c61333482613316565b84845461329b565b825550505050565b5f90565b613350613344565b61335b81848461331f565b505050565b5b8181101561337e576133735f82613348565b600181019050613361565b5050565b601f8211156133c3576133948161326e565b61339d84613280565b810160208510156133ac578190505b6133c06133b885613280565b830182613360565b50505b505050565b5f82821c905092915050565b5f6133e35f19846008026133c8565b1980831691505092915050565b5f6133fb83836133d4565b9150826002028217905092915050565b61341482612855565b67ffffffffffffffff81111561342d5761342c612d32565b5b613437825461323e565b613442828285613382565b5f60209050601f831160018114613473575f8415613461578287015190505b61346b85826133f0565b8655506134d2565b601f1984166134818661326e565b5f5b828110156134a857848901518255600182019150602085019450602081019050613483565b868310156134c557848901516134c1601f8916826133d4565b8355505b6001600288020188555050505b505050505050565b7f4e487b71000000000000000000000000000000000000000000000000000000005f52601160045260245ffd5b5f61351182612736565b915061351c83612736565b925082820261352a81612736565b91508282048414831517613541576135406134da565b5b5092915050565b7f4e487b71000000000000000000000000000000000000000000000000000000005f52603260045260245ffd5b5f61357f82612736565b91507fffffffffffffffffffffffffffffffffffffffffffffffffffffffffffffffff82036135b1576135b06134da565b5b600182019050919050565b5f6135c682612736565b91506135d183612736565b92508282039050818111156135e9576135e86134da565b5b92915050565b7f616d6f756e74206e6f7420656e6f7567680000000000000000000000000000005f82015250565b5f61362360118361285f565b915061362e826135ef565b602082019050919050565b5f6020820190508181035f83015261365081613617565b9050919050565b7f6e656564207265676973746572206669727374000000000000000000000000005f82015250565b5f61368b60138361285f565b915061369682613657565b602082019050919050565b5f6020820190508181035f8301526136b88161367f565b9050919050565b5f815490506136cd8161323e565b9050919050565b8181036136e25750506137b7565b6136eb826136bf565b67ffffffffffffffff81111561370457613703612d32565b5b61370e825461323e565b613719828285613382565b5f601f831160018114613746575f8415613734578287015490505b61373e85826133f0565b8655506137b0565b601f1984166137548761326e565b965061375f8661326e565b5f5b8281101561378657848901548255600182019150600185019450602081019050613761565b868310156137a3578489015461379f601f8916826133d4565b8355505b6001600288020188555050505b5050505050505b565b5f6137c382612736565b91506137ce83612736565b92508282019050808211156137e6576137e56134da565b5b92915050565b7f4f776e61626c653a2063616c6c6572206973206e6f7420746865206f776e65725f82015250565b5f61382060208361285f565b915061382b826137ec565b602082019050919050565b5f6020820190508181035f83015261384d81613814565b9050919050565b7f63616e27742066696e64206c65617365210000000000000000000000000000005f82015250565b5f61388860118361285f565b915061389382613854565b602082019050919050565b5f6020820190508181035f8301526138b58161387c565b9050919050565b7f4e487b71000000000000000000000000000000000000000000000000000000005f52601260045260245ffd5b5f6138f382612736565b91506138fe83612736565b92508261390e5761390d6138bc565b5b828204905092915050565b5f61392382612736565b915061392e83612736565b92508261393e5761393d6138bc565b5b828206905092915050565b5f61395382612736565b91505f8203613965576139646134da565b5b600182039050919050565b7f4f776e61626c653a206e6577206f776e657220697320746865207a65726f20615f8201527f6464726573730000000000000000000000000000000000000000000000000000602082015250565b5f6139ca60268361285f565b91506139d582613970565b604082019050919050565b5f6020820190508181035f8301526139f7816139be565b9050919050565b7f62616c616e6365206e6f7420656e6f7567682120706c65617365207374616b655f82015250565b5f613a3260208361285f565b9150613a3d826139fe565b602082019050919050565b5f6020820190508181035f830152613a5f81613a26565b905091905056fea264697066735822122080e8962e835571bbfb5755dc6d895be16ad046da04380c47e52ebd7c22be616c64736f6c63430008150033",
  "immutableReferences": {},
  "source": "// SPDX-License-Identifier: SEE LICENSE IN LICENSE\npragma solidity ^0.8.0;\nimport \"./lease.sol\";\nimport \"./account.sol\";\nimport \"./device.sol\";\n\n// contract Helper is Lease, Device, Provider, Recipient {\ncontract Helper is Lease, AccountFactory {\n\n    function onlineServer(string memory _machineId, string memory _serverInfo, Price memory _price, uint _startTime, uint _endTime) public {\n        \n        uint _stakeAmount = providerStakeCalcute(_startTime, _endTime, _price);\n        onlineBlockedFund(_stakeAmount);\n        uint _deviceId = online(_machineId, _serverInfo, _price);\n        onlineLease(_deviceId, _startTime, _endTime);\n    }\n\n    function listDevices(uint _limit, uint _offset) public view returns (deviceInfo [] memory _allDevices){\n        deviceInfo [] memory ds = new deviceInfo[](_limit);\n        uint counter = 0;\n        for (uint i = _offset * _limit; i < devices.length; i++ ) {\n            if (devices[i].status == DeviceStatus.Online || devices[i].status == DeviceStatus.Running ) {\n                counter ++;\n                if (counter > _limit * _offset) {\n                    ds[counter - _limit * _offset] = devices[i];\n                }\n\n                if  (counter >= _limit * _offset) {\n                    return ds;\n                }\n            }\n        }\n        return ds;\n    }\n\n    function listOwnDevices(address _provider, uint _limit, uint _offset) public view returns (deviceInfo [] memory _ownDevices){\n        deviceInfo [] memory ds = new deviceInfo [](_limit);\n        uint counter = 0;\n        for (uint i = 0; i < devices.length; i++ ) {\n            if (devices[i].owner == _provider) {\n                if (counter > _limit * _offset) {\n                    ds[counter] = devices[i];\n                }\n                counter ++;\n                if  (counter >= _limit * _offset) {\n                    return ds;\n                }\n            }\n        }\n        return ds;\n    }\n\n    // function listLease(address _user, uint _limit, uint _offset) public view returns (leaseInfo [] memory leaseInfos) {\n    //     leaseInfo [] memory _ls = new leaseInfo [] (_limit);\n    //     uint counter = 0;\n    //     for (uint i = 0; i < leases.length; i++ ) {\n    //         if (leases[i].provider == _user ) {\n    //             counter ++;\n    //             if (counter > _limit * _offset) {\n    //                 _ls[counter] = leases[i];\n    //             }\n\n    //             if  (counter >= _limit * _offset) {\n    //                 return _ls;\n    //             }\n    //         }\n    //     }\n    //     return _ls;\n    // }\n}",
  "sourcePath": "/Users/irongyi/solidity_project/apus_network_v0/contracts/helper.sol",
  "compiler": {
    "name": "solc",
    "version": "0.8.21+commit.d9974bed.Emscripten.clang"
  },
  "schemaVersion": "3.4.15",
  "updatedAt": "2023-09-06T03:42:18.726Z",
  "networkType": "ethereum",
  "devdoc": {
    "kind": "dev",
    "methods": {
      "owner()": {
        "details": "Returns the address of the current owner."
      },
      "renounceOwnership()": {
        "details": "Leaves the contract without owner. It will not be possible to call `onlyOwner` functions anymore. Can only be called by the current owner. NOTE: Renouncing ownership will leave the contract without an owner, thereby removing any functionality that is only available to the owner."
      },
      "transferOwnership(address)": {
        "details": "Transfers ownership of the contract to a new account (`newOwner`). Can only be called by the current owner."
      }
    },
    "version": 1
  },
  "userdoc": {
    "kind": "user",
    "methods": {},
    "version": 1
  }
}