{
  "contractName": "Helper",
  "abi": [
    {
      "anonymous": false,
      "inputs": [
        {
          "indexed": true,
          "internalType": "address",
          "name": "previousOwner",
          "type": "address"
        },
        {
          "indexed": true,
          "internalType": "address",
          "name": "newOwner",
          "type": "address"
        }
      ],
      "name": "OwnershipTransferred",
      "type": "event"
    },
    {
      "inputs": [],
      "name": "cancellation",
      "outputs": [],
      "stateMutability": "nonpayable",
      "type": "function"
    },
    {
      "inputs": [
        {
          "internalType": "string",
          "name": "a",
          "type": "string"
        },
        {
          "internalType": "string",
          "name": "b",
          "type": "string"
        }
      ],
      "name": "concatenateStrings",
      "outputs": [
        {
          "internalType": "string",
          "name": "",
          "type": "string"
        }
      ],
      "stateMutability": "pure",
      "type": "function",
      "constant": true
    },
    {
      "inputs": [
        {
          "internalType": "uint256",
          "name": "",
          "type": "uint256"
        }
      ],
      "name": "devices",
      "outputs": [
        {
          "internalType": "uint256",
          "name": "id",
          "type": "uint256"
        },
        {
          "internalType": "address",
          "name": "owner",
          "type": "address"
        },
        {
          "internalType": "enum DeviceStatus",
          "name": "status",
          "type": "uint8"
        },
        {
          "internalType": "string",
          "name": "machineId",
          "type": "string"
        },
        {
          "internalType": "string",
          "name": "serverInfo",
          "type": "string"
        },
        {
          "components": [
            {
              "internalType": "uint256",
              "name": "serverPrice",
              "type": "uint256"
            },
            {
              "internalType": "uint256",
              "name": "storagePrice",
              "type": "uint256"
            },
            {
              "internalType": "uint256",
              "name": "upbandWidth",
              "type": "uint256"
            },
            {
              "internalType": "uint256",
              "name": "downbandWidth",
              "type": "uint256"
            }
          ],
          "internalType": "struct Price",
          "name": "price",
          "type": "tuple"
        }
      ],
      "stateMutability": "view",
      "type": "function",
      "constant": true
    },
    {
      "inputs": [
        {
          "internalType": "address",
          "name": "_addr",
          "type": "address"
        }
      ],
      "name": "getAccount",
      "outputs": [
        {
          "components": [
            {
              "internalType": "address",
              "name": "addr",
              "type": "address"
            },
            {
              "internalType": "uint256",
              "name": "balance",
              "type": "uint256"
            },
            {
              "internalType": "uint256",
              "name": "providerBlockedFunds",
              "type": "uint256"
            },
            {
              "internalType": "uint256",
              "name": "recipientBlockedFunds",
              "type": "uint256"
            },
            {
              "internalType": "string",
              "name": "info",
              "type": "string"
            }
          ],
          "internalType": "struct AccountFactory.accountInfo",
          "name": "",
          "type": "tuple"
        }
      ],
      "stateMutability": "view",
      "type": "function",
      "constant": true
    },
    {
      "inputs": [
        {
          "internalType": "uint256",
          "name": "",
          "type": "uint256"
        }
      ],
      "name": "leaseProvider",
      "outputs": [
        {
          "internalType": "uint256",
          "name": "leaseId",
          "type": "uint256"
        },
        {
          "internalType": "uint256",
          "name": "startTime",
          "type": "uint256"
        },
        {
          "internalType": "uint256",
          "name": "expireTime",
          "type": "uint256"
        },
        {
          "internalType": "uint256",
          "name": "deviceId",
          "type": "uint256"
        }
      ],
      "stateMutability": "view",
      "type": "function",
      "constant": true
    },
    {
      "inputs": [],
      "name": "owner",
      "outputs": [
        {
          "internalType": "address",
          "name": "",
          "type": "address"
        }
      ],
      "stateMutability": "view",
      "type": "function",
      "constant": true
    },
    {
      "inputs": [],
      "name": "platformSharingRatio",
      "outputs": [
        {
          "internalType": "uint8",
          "name": "",
          "type": "uint8"
        }
      ],
      "stateMutability": "view",
      "type": "function",
      "constant": true
    },
    {
      "inputs": [
        {
          "internalType": "uint256",
          "name": "_startTime",
          "type": "uint256"
        },
        {
          "internalType": "uint256",
          "name": "_endTime",
          "type": "uint256"
        },
        {
          "components": [
            {
              "internalType": "uint256",
              "name": "serverPrice",
              "type": "uint256"
            },
            {
              "internalType": "uint256",
              "name": "storagePrice",
              "type": "uint256"
            },
            {
              "internalType": "uint256",
              "name": "upbandWidth",
              "type": "uint256"
            },
            {
              "internalType": "uint256",
              "name": "downbandWidth",
              "type": "uint256"
            }
          ],
          "internalType": "struct Price",
          "name": "_price",
          "type": "tuple"
        }
      ],
      "name": "providerStakeCalcute",
      "outputs": [
        {
          "internalType": "uint256",
          "name": "",
          "type": "uint256"
        }
      ],
      "stateMutability": "pure",
      "type": "function",
      "constant": true
    },
    {
      "inputs": [],
      "name": "register",
      "outputs": [
        {
          "components": [
            {
              "internalType": "address",
              "name": "addr",
              "type": "address"
            },
            {
              "internalType": "uint256",
              "name": "balance",
              "type": "uint256"
            },
            {
              "internalType": "uint256",
              "name": "providerBlockedFunds",
              "type": "uint256"
            },
            {
              "internalType": "uint256",
              "name": "recipientBlockedFunds",
              "type": "uint256"
            },
            {
              "internalType": "string",
              "name": "info",
              "type": "string"
            }
          ],
          "internalType": "struct AccountFactory.accountInfo",
          "name": "accountinfo",
          "type": "tuple"
        }
      ],
      "stateMutability": "nonpayable",
      "type": "function"
    },
    {
      "inputs": [],
      "name": "renounceOwnership",
      "outputs": [],
      "stateMutability": "nonpayable",
      "type": "function"
    },
    {
      "inputs": [
        {
          "internalType": "string",
          "name": "_info",
          "type": "string"
        }
      ],
      "name": "setProviderInfo",
      "outputs": [],
      "stateMutability": "nonpayable",
      "type": "function"
    },
    {
      "inputs": [],
      "name": "stake",
      "outputs": [],
      "stateMutability": "payable",
      "type": "function",
      "payable": true
    },
    {
      "inputs": [
        {
          "internalType": "address",
          "name": "newOwner",
          "type": "address"
        }
      ],
      "name": "transferOwnership",
      "outputs": [],
      "stateMutability": "nonpayable",
      "type": "function"
    },
    {
      "inputs": [
        {
          "internalType": "uint256",
          "name": "number",
          "type": "uint256"
        }
      ],
      "name": "uintToString",
      "outputs": [
        {
          "internalType": "string",
          "name": "",
          "type": "string"
        }
      ],
      "stateMutability": "pure",
      "type": "function",
      "constant": true
    },
    {
      "inputs": [
        {
          "internalType": "uint256",
          "name": "amount",
          "type": "uint256"
        }
      ],
      "name": "unstake",
      "outputs": [],
      "stateMutability": "payable",
      "type": "function",
      "payable": true
    },
    {
      "inputs": [],
      "name": "withdraw",
      "outputs": [],
      "stateMutability": "nonpayable",
      "type": "function"
    },
    {
      "inputs": [
        {
          "internalType": "string",
          "name": "_machineId",
          "type": "string"
        },
        {
          "internalType": "string",
          "name": "_serverInfo",
          "type": "string"
        },
        {
          "components": [
            {
              "internalType": "uint256",
              "name": "serverPrice",
              "type": "uint256"
            },
            {
              "internalType": "uint256",
              "name": "storagePrice",
              "type": "uint256"
            },
            {
              "internalType": "uint256",
              "name": "upbandWidth",
              "type": "uint256"
            },
            {
              "internalType": "uint256",
              "name": "downbandWidth",
              "type": "uint256"
            }
          ],
          "internalType": "struct Price",
          "name": "_price",
          "type": "tuple"
        },
        {
          "internalType": "uint256",
          "name": "_startTime",
          "type": "uint256"
        },
        {
          "internalType": "uint256",
          "name": "_endTime",
          "type": "uint256"
        }
      ],
      "name": "onlineServer",
      "outputs": [],
      "stateMutability": "nonpayable",
      "type": "function"
    },
    {
      "inputs": [],
      "name": "listDevices",
      "outputs": [
        {
          "components": [
            {
              "internalType": "uint256",
              "name": "id",
              "type": "uint256"
            },
            {
              "internalType": "address",
              "name": "owner",
              "type": "address"
            },
            {
              "internalType": "enum DeviceStatus",
              "name": "status",
              "type": "uint8"
            },
            {
              "internalType": "string",
              "name": "machineId",
              "type": "string"
            },
            {
              "internalType": "string",
              "name": "serverInfo",
              "type": "string"
            },
            {
              "components": [
                {
                  "internalType": "uint256",
                  "name": "serverPrice",
                  "type": "uint256"
                },
                {
                  "internalType": "uint256",
                  "name": "storagePrice",
                  "type": "uint256"
                },
                {
                  "internalType": "uint256",
                  "name": "upbandWidth",
                  "type": "uint256"
                },
                {
                  "internalType": "uint256",
                  "name": "downbandWidth",
                  "type": "uint256"
                }
              ],
              "internalType": "struct Price",
              "name": "price",
              "type": "tuple"
            }
          ],
          "internalType": "struct deviceInfo[]",
          "name": "_allDevices",
          "type": "tuple[]"
        }
      ],
      "stateMutability": "view",
      "type": "function",
      "constant": true
    },
    {
      "inputs": [
        {
          "internalType": "address",
          "name": "_provider",
          "type": "address"
        },
        {
          "internalType": "uint256",
          "name": "_limit",
          "type": "uint256"
        },
        {
          "internalType": "uint256",
          "name": "_offset",
          "type": "uint256"
        }
      ],
      "name": "listOwnDevices",
      "outputs": [
        {
          "components": [
            {
              "internalType": "uint256",
              "name": "id",
              "type": "uint256"
            },
            {
              "internalType": "address",
              "name": "owner",
              "type": "address"
            },
            {
              "internalType": "enum DeviceStatus",
              "name": "status",
              "type": "uint8"
            },
            {
              "internalType": "string",
              "name": "machineId",
              "type": "string"
            },
            {
              "internalType": "string",
              "name": "serverInfo",
              "type": "string"
            },
            {
              "components": [
                {
                  "internalType": "uint256",
                  "name": "serverPrice",
                  "type": "uint256"
                },
                {
                  "internalType": "uint256",
                  "name": "storagePrice",
                  "type": "uint256"
                },
                {
                  "internalType": "uint256",
                  "name": "upbandWidth",
                  "type": "uint256"
                },
                {
                  "internalType": "uint256",
                  "name": "downbandWidth",
                  "type": "uint256"
                }
              ],
              "internalType": "struct Price",
              "name": "price",
              "type": "tuple"
            }
          ],
          "internalType": "struct deviceInfo[]",
          "name": "_ownDevices",
          "type": "tuple[]"
        }
      ],
      "stateMutability": "view",
      "type": "function",
      "constant": true
    }
  ],
  "bytecode": "0x60806040525f80555f6002555f60035f6101000a81548160ff021916908360ff16021790555034801562000031575f80fd5b5062000052620000466200005860201b60201c565b6200005f60201b60201c565b62000122565b5f33905090565b5f60055f9054906101000a900473ffffffffffffffffffffffffffffffffffffffff1690508160055f6101000a81548173ffffffffffffffffffffffffffffffffffffffff021916908373ffffffffffffffffffffffffffffffffffffffff1602179055508173ffffffffffffffffffffffffffffffffffffffff168173ffffffffffffffffffffffffffffffffffffffff167f8be0079c531659141344cd1fd0a4f28419497f9722a3daafe3b4186f6b6457e060405160405180910390a35050565b61357880620001305f395ff3fe608060405260043610610113575f3560e01c8063715018a61161009f578063c74ce95c11610063578063c74ce95c14610345578063e93956791461036f578063f2fde38b146103ab578063fbcbc0f1146103d3578063ff459ec61461040f57610113565b8063715018a61461024e5780637a36b3ee146102645780638da5cb5b146102a0578063a3a4aff4146102ca578063c46dcec51461030657610113565b80633940ab77116100e65780633940ab77146101c85780633a4b66f1146101f05780633ccfd60b146101fa57806340405078146102105780635f41fa0e1461022657610113565b806310ff8e31146101175780631aa3a00814610158578063246bdc8e146101825780632e17de78146101ac575b5f80fd5b348015610122575f80fd5b5061013d6004803603810190610138919061238a565b61044b565b60405161014f96959493929190612562565b60405180910390f35b348015610163575f80fd5b5061016c6105fb565b604051610179919061269a565b60405180910390f35b34801561018d575f80fd5b506101966108e7565b6040516101a39190612865565b60405180910390f35b6101c660048036038101906101c1919061238a565b610b37565b005b3480156101d3575f80fd5b506101ee60048036038101906101e991906129b1565b610da3565b005b6101f8610ec2565b005b348015610205575f80fd5b5061020e6111e0565b005b34801561021b575f80fd5b506102246112a9565b005b348015610231575f80fd5b5061024c60048036038101906102479190612a71565b611334565b005b348015610259575f80fd5b5061026261136e565b005b34801561026f575f80fd5b5061028a60048036038101906102859190612b21565b6113f5565b6040516102979190612b97565b60405180910390f35b3480156102ab575f80fd5b506102b461157e565b6040516102c19190612bb7565b60405180910390f35b3480156102d5575f80fd5b506102f060048036038101906102eb9190612bd0565b6115a6565b6040516102fd9190612c20565b60405180910390f35b348015610311575f80fd5b5061032c6004803603810190610327919061238a565b6115ca565b60405161033c9493929190612c39565b60405180910390f35b348015610350575f80fd5b50610359611605565b6040516103669190612c97565b60405180910390f35b34801561037a575f80fd5b506103956004803603810190610390919061238a565b611617565b6040516103a29190612b97565b60405180910390f35b3480156103b6575f80fd5b506103d160048036038101906103cc9190612cda565b61177e565b005b3480156103de575f80fd5b506103f960048036038101906103f49190612cda565b611874565b604051610406919061269a565b60405180910390f35b34801561041a575f80fd5b5061043560048036038101906104309190612d05565b611a9b565b6040516104429190612865565b60405180910390f35b6001818154811061045a575f80fd5b905f5260205f2090600802015f91509050805f015490806001015f9054906101000a900473ffffffffffffffffffffffffffffffffffffffff16908060010160149054906101000a900460ff16908060020180546104b790612d82565b80601f01602080910402602001604051908101604052809291908181526020018280546104e390612d82565b801561052e5780601f106105055761010080835404028352916020019161052e565b820191905f5260205f20905b81548152906001019060200180831161051157829003601f168201915b50505050509080600301805461054390612d82565b80601f016020809104026020016040519081016040528092919081815260200182805461056f90612d82565b80156105ba5780601f10610591576101008083540402835291602001916105ba565b820191905f5260205f20905b81548152906001019060200180831161059d57829003601f168201915b505050505090806004016040518060800160405290815f82015481526020016001820154815260200160028201548152602001600382015481525050905086565b610603612228565b5f73ffffffffffffffffffffffffffffffffffffffff1660065f3373ffffffffffffffffffffffffffffffffffffffff1673ffffffffffffffffffffffffffffffffffffffff1681526020019081526020015f205f015f9054906101000a900473ffffffffffffffffffffffffffffffffffffffff1673ffffffffffffffffffffffffffffffffffffffff1603610798576040518060a001604052803373ffffffffffffffffffffffffffffffffffffffff1681526020015f81526020015f81526020015f815260200160405180602001604052805f81525081525060065f3373ffffffffffffffffffffffffffffffffffffffff1673ffffffffffffffffffffffffffffffffffffffff1681526020019081526020015f205f820151815f015f6101000a81548173ffffffffffffffffffffffffffffffffffffffff021916908373ffffffffffffffffffffffffffffffffffffffff16021790555060208201518160010155604082015181600201556060820151816003015560808201518160040190816107939190612f4f565b509050505b60065f3373ffffffffffffffffffffffffffffffffffffffff1673ffffffffffffffffffffffffffffffffffffffff1681526020019081526020015f206040518060a00160405290815f82015f9054906101000a900473ffffffffffffffffffffffffffffffffffffffff1673ffffffffffffffffffffffffffffffffffffffff1673ffffffffffffffffffffffffffffffffffffffff16815260200160018201548152602001600282015481526020016003820154815260200160048201805461086290612d82565b80601f016020809104026020016040519081016040528092919081815260200182805461088e90612d82565b80156108d95780601f106108b0576101008083540402835291602001916108d9565b820191905f5260205f20905b8154815290600101906020018083116108bc57829003601f168201915b505050505081525050905090565b60606001805480602002602001604051908101604052809291908181526020015f905b82821015610b2e578382905f5260205f2090600802016040518060c00160405290815f8201548152602001600182015f9054906101000a900473ffffffffffffffffffffffffffffffffffffffff1673ffffffffffffffffffffffffffffffffffffffff1673ffffffffffffffffffffffffffffffffffffffff1681526020016001820160149054906101000a900460ff1660038111156109ae576109ad612403565b5b60038111156109c0576109bf612403565b5b81526020016002820180546109d490612d82565b80601f0160208091040260200160405190810160405280929190818152602001828054610a0090612d82565b8015610a4b5780601f10610a2257610100808354040283529160200191610a4b565b820191905f5260205f20905b815481529060010190602001808311610a2e57829003601f168201915b50505050508152602001600382018054610a6490612d82565b80601f0160208091040260200160405190810160405280929190818152602001828054610a9090612d82565b8015610adb5780601f10610ab257610100808354040283529160200191610adb565b820191905f5260205f20905b815481529060010190602001808311610abe57829003601f168201915b50505050508152602001600482016040518060800160405290815f82015481526020016001820154815260200160028201548152602001600382015481525050815250508152602001906001019061090a565b50505050905090565b5f60065f3373ffffffffffffffffffffffffffffffffffffffff1673ffffffffffffffffffffffffffffffffffffffff1681526020019081526020015f206040518060a00160405290815f82015f9054906101000a900473ffffffffffffffffffffffffffffffffffffffff1673ffffffffffffffffffffffffffffffffffffffff1673ffffffffffffffffffffffffffffffffffffffff168152602001600182015481526020016002820154815260200160038201548152602001600482018054610c0290612d82565b80601f0160208091040260200160405190810160405280929190818152602001828054610c2e90612d82565b8015610c795780601f10610c5057610100808354040283529160200191610c79565b820191905f5260205f20905b815481529060010190602001808311610c5c57829003601f168201915b50505050508152505090508181602001511015610ccb576040517f08c379a0000000000000000000000000000000000000000000000000000000008152600401610cc290613068565b60405180910390fd5b8160065f3373ffffffffffffffffffffffffffffffffffffffff1673ffffffffffffffffffffffffffffffffffffffff1681526020019081526020015f2060010154610d1791906130b3565b60065f3373ffffffffffffffffffffffffffffffffffffffff1673ffffffffffffffffffffffffffffffffffffffff1681526020019081526020015f20600101819055503373ffffffffffffffffffffffffffffffffffffffff166108fc8390811502906040515f60405180830381858888f19350505050158015610d9e573d5f803e3d5ffd5b505050565b335f73ffffffffffffffffffffffffffffffffffffffff1660065f8373ffffffffffffffffffffffffffffffffffffffff1673ffffffffffffffffffffffffffffffffffffffff1681526020019081526020015f205f015f9054906101000a900473ffffffffffffffffffffffffffffffffffffffff1673ffffffffffffffffffffffffffffffffffffffff1603610e70576040517f08c379a0000000000000000000000000000000000000000000000000000000008152600401610e6790613130565b60405180910390fd5b8160065f3373ffffffffffffffffffffffffffffffffffffffff1673ffffffffffffffffffffffffffffffffffffffff1681526020019081526020015f206004019081610ebd9190612f4f565b505050565b335f73ffffffffffffffffffffffffffffffffffffffff1660065f8373ffffffffffffffffffffffffffffffffffffffff1673ffffffffffffffffffffffffffffffffffffffff1681526020019081526020015f205f015f9054906101000a900473ffffffffffffffffffffffffffffffffffffffff1673ffffffffffffffffffffffffffffffffffffffff1603610f8f576040517f08c379a0000000000000000000000000000000000000000000000000000000008152600401610f8690613130565b60405180910390fd5b5f60065f3373ffffffffffffffffffffffffffffffffffffffff1673ffffffffffffffffffffffffffffffffffffffff1681526020019081526020015f2090505f73ffffffffffffffffffffffffffffffffffffffff16815f015f9054906101000a900473ffffffffffffffffffffffffffffffffffffffff1673ffffffffffffffffffffffffffffffffffffffff160361114b5733815f015f6101000a81548173ffffffffffffffffffffffffffffffffffffffff021916908373ffffffffffffffffffffffffffffffffffffffff1602179055503481600101819055508060065f3373ffffffffffffffffffffffffffffffffffffffff1673ffffffffffffffffffffffffffffffffffffffff1681526020019081526020015f205f82015f9054906101000a900473ffffffffffffffffffffffffffffffffffffffff16815f015f6101000a81548173ffffffffffffffffffffffffffffffffffffffff021916908373ffffffffffffffffffffffffffffffffffffffff160217905550600182015481600101556002820154816002015560038201548160030155600482018160040190816111419190613163565b50905050506111dd565b3460065f3373ffffffffffffffffffffffffffffffffffffffff1673ffffffffffffffffffffffffffffffffffffffff1681526020019081526020015f20600101546111979190613248565b60065f3373ffffffffffffffffffffffffffffffffffffffff1673ffffffffffffffffffffffffffffffffffffffff1681526020019081526020015f2060010181905550505b50565b6111e8611e17565b73ffffffffffffffffffffffffffffffffffffffff1661120661157e565b73ffffffffffffffffffffffffffffffffffffffff161461125c576040517f08c379a0000000000000000000000000000000000000000000000000000000008152600401611253906132c5565b60405180910390fd5b61126461157e565b73ffffffffffffffffffffffffffffffffffffffff166108fc4790811502906040515f60405180830381858888f193505050501580156112a6573d5f803e3d5ffd5b50565b60065f3373ffffffffffffffffffffffffffffffffffffffff1673ffffffffffffffffffffffffffffffffffffffff1681526020019081526020015f205f8082015f6101000a81549073ffffffffffffffffffffffffffffffffffffffff0219169055600182015f9055600282015f9055600382015f9055600482015f6113309190612269565b5050565b5f6113408383866115a6565b905061134b81611e1e565b5f611357878787611f50565b90506113648185856120d0565b5050505050505050565b611376611e17565b73ffffffffffffffffffffffffffffffffffffffff1661139461157e565b73ffffffffffffffffffffffffffffffffffffffff16146113ea576040517f08c379a00000000000000000000000000000000000000000000000000000000081526004016113e1906132c5565b60405180910390fd5b6113f35f612165565b565b60605f8390505f8390505f8151835161140e9190613248565b67ffffffffffffffff8111156114275761142661288d565b5b6040519080825280601f01601f1916602001820160405280156114595781602001600182028036833780820191505090505b5090505f805b84518110156114e65784818151811061147b5761147a6132e3565b5b602001015160f81c60f81b83838061149290613310565b9450815181106114a5576114a46132e3565b5b60200101907effffffffffffffffffffffffffffffffffffffffffffffffffffffffffffff191690815f1a90535080806114de90613310565b91505061145f565b505f5b835181101561157057838181518110611505576115046132e3565b5b602001015160f81c60f81b83838061151c90613310565b94508151811061152f5761152e6132e3565b5b60200101907effffffffffffffffffffffffffffffffffffffffffffffffffffffffffffff191690815f1a905350808061156890613310565b9150506114e9565b508194505050505092915050565b5f60055f9054906101000a900473ffffffffffffffffffffffffffffffffffffffff16905090565b5f83836115b391906130b3565b825f01516115c19190613357565b90509392505050565b600481815481106115d9575f80fd5b905f5260205f2090600402015f91509050805f0154908060010154908060020154908060030154905084565b60035f9054906101000a900460ff1681565b60605f820361165d576040518060400160405280600181526020017f30000000000000000000000000000000000000000000000000000000000000008152509050611779565b5f8290505f5b5f821461168c57808061167590613310565b915050600a8261168591906133c5565b9150611663565b5f8167ffffffffffffffff8111156116a7576116a661288d565b5b6040519080825280601f01601f1916602001820160405280156116d95781602001600182028036833780820191505090505b5090505f6001836116ea91906130b3565b90505b5f861461177157600a8661170191906133f5565b603061170d9190613248565b60f81b82828061171c90613425565b93508151811061172f5761172e6132e3565b5b60200101907effffffffffffffffffffffffffffffffffffffffffffffffffffffffffffff191690815f1a905350600a8661176a91906133c5565b95506116ed565b819450505050505b919050565b611786611e17565b73ffffffffffffffffffffffffffffffffffffffff166117a461157e565b73ffffffffffffffffffffffffffffffffffffffff16146117fa576040517f08c379a00000000000000000000000000000000000000000000000000000000081526004016117f1906132c5565b60405180910390fd5b5f73ffffffffffffffffffffffffffffffffffffffff168173ffffffffffffffffffffffffffffffffffffffff1603611868576040517f08c379a000000000000000000000000000000000000000000000000000000000815260040161185f906134bc565b60405180910390fd5b61187181612165565b50565b61187c612228565b815f73ffffffffffffffffffffffffffffffffffffffff1660065f8373ffffffffffffffffffffffffffffffffffffffff1673ffffffffffffffffffffffffffffffffffffffff1681526020019081526020015f205f015f9054906101000a900473ffffffffffffffffffffffffffffffffffffffff1673ffffffffffffffffffffffffffffffffffffffff1603611949576040517f08c379a000000000000000000000000000000000000000000000000000000000815260040161194090613130565b60405180910390fd5b60065f8473ffffffffffffffffffffffffffffffffffffffff1673ffffffffffffffffffffffffffffffffffffffff1681526020019081526020015f206040518060a00160405290815f82015f9054906101000a900473ffffffffffffffffffffffffffffffffffffffff1673ffffffffffffffffffffffffffffffffffffffff1673ffffffffffffffffffffffffffffffffffffffff168152602001600182015481526020016002820154815260200160038201548152602001600482018054611a1390612d82565b80601f0160208091040260200160405190810160405280929190818152602001828054611a3f90612d82565b8015611a8a5780601f10611a6157610100808354040283529160200191611a8a565b820191905f5260205f20905b815481529060010190602001808311611a6d57829003601f168201915b505050505081525050915050919050565b60605f8367ffffffffffffffff811115611ab857611ab761288d565b5b604051908082528060200260200182016040528015611af157816020015b611ade6122a6565b815260200190600190039081611ad65790505b5090505f805b600180549050811015611e09578673ffffffffffffffffffffffffffffffffffffffff1660018281548110611b2f57611b2e6132e3565b5b905f5260205f2090600802016001015f9054906101000a900473ffffffffffffffffffffffffffffffffffffffff1673ffffffffffffffffffffffffffffffffffffffff1603611df6578180611b8490613310565b9250508486611b939190613357565b821115611dd85760018181548110611bae57611bad6132e3565b5b905f5260205f2090600802016040518060c00160405290815f8201548152602001600182015f9054906101000a900473ffffffffffffffffffffffffffffffffffffffff1673ffffffffffffffffffffffffffffffffffffffff1673ffffffffffffffffffffffffffffffffffffffff1681526020016001820160149054906101000a900460ff166003811115611c4857611c47612403565b5b6003811115611c5a57611c59612403565b5b8152602001600282018054611c6e90612d82565b80601f0160208091040260200160405190810160405280929190818152602001828054611c9a90612d82565b8015611ce55780601f10611cbc57610100808354040283529160200191611ce5565b820191905f5260205f20905b815481529060010190602001808311611cc857829003601f168201915b50505050508152602001600382018054611cfe90612d82565b80601f0160208091040260200160405190810160405280929190818152602001828054611d2a90612d82565b8015611d755780601f10611d4c57610100808354040283529160200191611d75565b820191905f5260205f20905b815481529060010190602001808311611d5857829003601f168201915b50505050508152602001600482016040518060800160405290815f8201548152602001600182015481526020016002820154815260200160038201548152505081525050838381518110611dcc57611dcb6132e3565b5b60200260200101819052505b8486611de49190613357565b8210611df557829350505050611e10565b5b8080611e0190613310565b915050611af7565b5081925050505b9392505050565b5f33905090565b60065f3373ffffffffffffffffffffffffffffffffffffffff1673ffffffffffffffffffffffffffffffffffffffff1681526020019081526020015f2060010154811115611ea1576040517f08c379a0000000000000000000000000000000000000000000000000000000008152600401611e9890613524565b60405180910390fd5b8060065f3373ffffffffffffffffffffffffffffffffffffffff1673ffffffffffffffffffffffffffffffffffffffff1681526020019081526020015f206001015f828254611ef091906130b3565b925050819055508060065f3373ffffffffffffffffffffffffffffffffffffffff1673ffffffffffffffffffffffffffffffffffffffff1681526020019081526020015f206002015f828254611f469190613248565b9250508190555050565b5f60015f80828254611f629190613248565b9250508190555060016040518060c001604052805f5481526020013373ffffffffffffffffffffffffffffffffffffffff16815260200160016003811115611fad57611fac612403565b5b815260200186815260200185815260200184815250908060018154018082558091505060019003905f5260205f2090600802015f909190919091505f820151815f01556020820151816001015f6101000a81548173ffffffffffffffffffffffffffffffffffffffff021916908373ffffffffffffffffffffffffffffffffffffffff16021790555060408201518160010160146101000a81548160ff0219169083600381111561206157612060612403565b5b0217905550606082015181600201908161207b9190612f4f565b5060808201518160030190816120919190612f4f565b5060a0820151816004015f820151815f0155602082015181600101556040820151816002015560608201518160030155505050505f5490509392505050565b5f60016002546120e09190613248565b60028190555060046040518060800160405280600254815260200185815260200184815260200186815250908060018154018082558091505060019003905f5260205f2090600402015f909190919091505f820151815f0155602082015181600101556040820151816002015560608201518160030155505060025490509392505050565b5f60055f9054906101000a900473ffffffffffffffffffffffffffffffffffffffff1690508160055f6101000a81548173ffffffffffffffffffffffffffffffffffffffff021916908373ffffffffffffffffffffffffffffffffffffffff1602179055508173ffffffffffffffffffffffffffffffffffffffff168173ffffffffffffffffffffffffffffffffffffffff167f8be0079c531659141344cd1fd0a4f28419497f9722a3daafe3b4186f6b6457e060405160405180910390a35050565b6040518060a001604052805f73ffffffffffffffffffffffffffffffffffffffff1681526020015f81526020015f81526020015f8152602001606081525090565b50805461227590612d82565b5f825580601f1061228657506122a3565b601f0160209004905f5260205f20908101906122a29190612307565b5b50565b6040518060c001604052805f81526020015f73ffffffffffffffffffffffffffffffffffffffff1681526020015f60038111156122e6576122e5612403565b5b81526020016060815260200160608152602001612301612322565b81525090565b5b8082111561231e575f815f905550600101612308565b5090565b60405180608001604052805f81526020015f81526020015f81526020015f81525090565b5f604051905090565b5f80fd5b5f80fd5b5f819050919050565b61236981612357565b8114612373575f80fd5b50565b5f8135905061238481612360565b92915050565b5f6020828403121561239f5761239e61234f565b5b5f6123ac84828501612376565b91505092915050565b6123be81612357565b82525050565b5f73ffffffffffffffffffffffffffffffffffffffff82169050919050565b5f6123ed826123c4565b9050919050565b6123fd816123e3565b82525050565b7f4e487b71000000000000000000000000000000000000000000000000000000005f52602160045260245ffd5b6004811061244157612440612403565b5b50565b5f81905061245182612430565b919050565b5f61246082612444565b9050919050565b61247081612456565b82525050565b5f81519050919050565b5f82825260208201905092915050565b5f5b838110156124ad578082015181840152602081019050612492565b5f8484015250505050565b5f601f19601f8301169050919050565b5f6124d282612476565b6124dc8185612480565b93506124ec818560208601612490565b6124f5816124b8565b840191505092915050565b61250981612357565b82525050565b608082015f8201516125235f850182612500565b5060208201516125366020850182612500565b5060408201516125496040850182612500565b50606082015161255c6060850182612500565b50505050565b5f610120820190506125765f8301896123b5565b61258360208301886123f4565b6125906040830187612467565b81810360608301526125a281866124c8565b905081810360808301526125b681856124c8565b90506125c560a083018461250f565b979650505050505050565b6125d9816123e3565b82525050565b5f82825260208201905092915050565b5f6125f982612476565b61260381856125df565b9350612613818560208601612490565b61261c816124b8565b840191505092915050565b5f60a083015f83015161263c5f8601826125d0565b50602083015161264f6020860182612500565b5060408301516126626040860182612500565b5060608301516126756060860182612500565b506080830151848203608086015261268d82826125ef565b9150508091505092915050565b5f6020820190508181035f8301526126b28184612627565b905092915050565b5f81519050919050565b5f82825260208201905092915050565b5f819050602082019050919050565b6126ec81612456565b82525050565b608082015f8201516127065f850182612500565b5060208201516127196020850182612500565b50604082015161272c6040850182612500565b50606082015161273f6060850182612500565b50505050565b5f61012083015f83015161275b5f860182612500565b50602083015161276e60208601826125d0565b50604083015161278160408601826126e3565b506060830151848203606086015261279982826125ef565b915050608083015184820360808601526127b382826125ef565b91505060a08301516127c860a08601826126f2565b508091505092915050565b5f6127de8383612745565b905092915050565b5f602082019050919050565b5f6127fc826126ba565b61280681856126c4565b935083602082028501612818856126d4565b805f5b85811015612853578484038952815161283485826127d3565b945061283f836127e6565b925060208a0199505060018101905061281b565b50829750879550505050505092915050565b5f6020820190508181035f83015261287d81846127f2565b905092915050565b5f80fd5b5f80fd5b7f4e487b71000000000000000000000000000000000000000000000000000000005f52604160045260245ffd5b6128c3826124b8565b810181811067ffffffffffffffff821117156128e2576128e161288d565b5b80604052505050565b5f6128f4612346565b905061290082826128ba565b919050565b5f67ffffffffffffffff82111561291f5761291e61288d565b5b612928826124b8565b9050602081019050919050565b828183375f83830152505050565b5f61295561295084612905565b6128eb565b90508281526020810184848401111561297157612970612889565b5b61297c848285612935565b509392505050565b5f82601f83011261299857612997612885565b5b81356129a8848260208601612943565b91505092915050565b5f602082840312156129c6576129c561234f565b5b5f82013567ffffffffffffffff8111156129e3576129e2612353565b5b6129ef84828501612984565b91505092915050565b5f80fd5b5f60808284031215612a1157612a106129f8565b5b612a1b60806128eb565b90505f612a2a84828501612376565b5f830152506020612a3d84828501612376565b6020830152506040612a5184828501612376565b6040830152506060612a6584828501612376565b60608301525092915050565b5f805f805f6101008688031215612a8b57612a8a61234f565b5b5f86013567ffffffffffffffff811115612aa857612aa7612353565b5b612ab488828901612984565b955050602086013567ffffffffffffffff811115612ad557612ad4612353565b5b612ae188828901612984565b9450506040612af2888289016129fc565b93505060c0612b0388828901612376565b92505060e0612b1488828901612376565b9150509295509295909350565b5f8060408385031215612b3757612b3661234f565b5b5f83013567ffffffffffffffff811115612b5457612b53612353565b5b612b6085828601612984565b925050602083013567ffffffffffffffff811115612b8157612b80612353565b5b612b8d85828601612984565b9150509250929050565b5f6020820190508181035f830152612baf81846124c8565b905092915050565b5f602082019050612bca5f8301846123f4565b92915050565b5f805f60c08486031215612be757612be661234f565b5b5f612bf486828701612376565b9350506020612c0586828701612376565b9250506040612c16868287016129fc565b9150509250925092565b5f602082019050612c335f8301846123b5565b92915050565b5f608082019050612c4c5f8301876123b5565b612c5960208301866123b5565b612c6660408301856123b5565b612c7360608301846123b5565b95945050505050565b5f60ff82169050919050565b612c9181612c7c565b82525050565b5f602082019050612caa5f830184612c88565b92915050565b612cb9816123e3565b8114612cc3575f80fd5b50565b5f81359050612cd481612cb0565b92915050565b5f60208284031215612cef57612cee61234f565b5b5f612cfc84828501612cc6565b91505092915050565b5f805f60608486031215612d1c57612d1b61234f565b5b5f612d2986828701612cc6565b9350506020612d3a86828701612376565b9250506040612d4b86828701612376565b9150509250925092565b7f4e487b71000000000000000000000000000000000000000000000000000000005f52602260045260245ffd5b5f6002820490506001821680612d9957607f821691505b602082108103612dac57612dab612d55565b5b50919050565b5f819050815f5260205f209050919050565b5f6020601f8301049050919050565b5f82821b905092915050565b5f60088302612e0e7fffffffffffffffffffffffffffffffffffffffffffffffffffffffffffffffff82612dd3565b612e188683612dd3565b95508019841693508086168417925050509392505050565b5f819050919050565b5f612e53612e4e612e4984612357565b612e30565b612357565b9050919050565b5f819050919050565b612e6c83612e39565b612e80612e7882612e5a565b848454612ddf565b825550505050565b5f90565b612e94612e88565b612e9f818484612e63565b505050565b5b81811015612ec257612eb75f82612e8c565b600181019050612ea5565b5050565b601f821115612f0757612ed881612db2565b612ee184612dc4565b81016020851015612ef0578190505b612f04612efc85612dc4565b830182612ea4565b50505b505050565b5f82821c905092915050565b5f612f275f1984600802612f0c565b1980831691505092915050565b5f612f3f8383612f18565b9150826002028217905092915050565b612f5882612476565b67ffffffffffffffff811115612f7157612f7061288d565b5b612f7b8254612d82565b612f86828285612ec6565b5f60209050601f831160018114612fb7575f8415612fa5578287015190505b612faf8582612f34565b865550613016565b601f198416612fc586612db2565b5f5b82811015612fec57848901518255600182019150602085019450602081019050612fc7565b868310156130095784890151613005601f891682612f18565b8355505b6001600288020188555050505b505050505050565b7f616d6f756e74206e6f7420656e6f7567680000000000000000000000000000005f82015250565b5f613052601183612480565b915061305d8261301e565b602082019050919050565b5f6020820190508181035f83015261307f81613046565b9050919050565b7f4e487b71000000000000000000000000000000000000000000000000000000005f52601160045260245ffd5b5f6130bd82612357565b91506130c883612357565b92508282039050818111156130e0576130df613086565b5b92915050565b7f6e656564207265676973746572206669727374000000000000000000000000005f82015250565b5f61311a601383612480565b9150613125826130e6565b602082019050919050565b5f6020820190508181035f8301526131478161310e565b9050919050565b5f8154905061315c81612d82565b9050919050565b818103613171575050613246565b61317a8261314e565b67ffffffffffffffff8111156131935761319261288d565b5b61319d8254612d82565b6131a8828285612ec6565b5f601f8311600181146131d5575f84156131c3578287015490505b6131cd8582612f34565b86555061323f565b601f1984166131e387612db2565b96506131ee86612db2565b5f5b82811015613215578489015482556001820191506001850194506020810190506131f0565b86831015613232578489015461322e601f891682612f18565b8355505b6001600288020188555050505b5050505050505b565b5f61325282612357565b915061325d83612357565b925082820190508082111561327557613274613086565b5b92915050565b7f4f776e61626c653a2063616c6c6572206973206e6f7420746865206f776e65725f82015250565b5f6132af602083612480565b91506132ba8261327b565b602082019050919050565b5f6020820190508181035f8301526132dc816132a3565b9050919050565b7f4e487b71000000000000000000000000000000000000000000000000000000005f52603260045260245ffd5b5f61331a82612357565b91507fffffffffffffffffffffffffffffffffffffffffffffffffffffffffffffffff820361334c5761334b613086565b5b600182019050919050565b5f61336182612357565b915061336c83612357565b925082820261337a81612357565b9150828204841483151761339157613390613086565b5b5092915050565b7f4e487b71000000000000000000000000000000000000000000000000000000005f52601260045260245ffd5b5f6133cf82612357565b91506133da83612357565b9250826133ea576133e9613398565b5b828204905092915050565b5f6133ff82612357565b915061340a83612357565b92508261341a57613419613398565b5b828206905092915050565b5f61342f82612357565b91505f820361344157613440613086565b5b600182039050919050565b7f4f776e61626c653a206e6577206f776e657220697320746865207a65726f20615f8201527f6464726573730000000000000000000000000000000000000000000000000000602082015250565b5f6134a6602683612480565b91506134b18261344c565b604082019050919050565b5f6020820190508181035f8301526134d38161349a565b9050919050565b7f62616c616e6365206e6f7420656e6f7567682120706c65617365207374616b655f82015250565b5f61350e602083612480565b9150613519826134da565b602082019050919050565b5f6020820190508181035f83015261353b81613502565b905091905056fea264697066735822122073c367ce788c0777afc75b8a3a00facd7ff08c4cdb7b993c3fc63c232211388764736f6c63430008150033",
  "immutableReferences": {},
  "source": "// SPDX-License-Identifier: SEE LICENSE IN LICENSE\npragma solidity ^0.8.0;\nimport \"./lease.sol\";\nimport \"./account.sol\";\nimport \"./device.sol\";\n\n// contract Helper is Lease, Device, Provider, Recipient {\ncontract Helper is Lease, AccountFactory {\n\n    function onlineServer(string memory _machineId, string memory _serverInfo, Price memory _price, uint _startTime, uint _endTime) public {\n        \n        uint _stakeAmount = providerStakeCalcute(_startTime, _endTime, _price);\n        onlineBlockedFund(_stakeAmount);\n        uint _deviceId = online(_machineId, _serverInfo, _price);\n        onlineLease(_deviceId, _startTime, _endTime);\n    }\n\n    function listDevices() public view returns (deviceInfo [] memory _allDevices){\n        return devices;\n        // deviceInfo [] memory ds = new devicroInfo [](_limit);\n        // uint counter = 0;\n        // for (uint i = _offset * _limit; i < devices.length; i++ ) {\n        //     if (devices[i].status == DeviceStatus.Online || devices[i].status == DeviceStatus.Running ) {\n        //         counter ++;\n        //         if (counter > _limit * _offset) {\n        //             ds[counter - _limit * _offset] = devices[i];\n        //         }\n\n        //         if  (counter >= _limit * _offset) {\n        //             return ds;\n        //         }\n        //     }\n        // }\n        // return ds;\n    }\n\n    function listOwnDevices(address _provider, uint _limit, uint _offset) public view returns (deviceInfo [] memory _ownDevices){\n        deviceInfo [] memory ds = new deviceInfo [](_limit);\n        uint counter = 0;\n        for (uint i = 0; i < devices.length; i++ ) {\n            if (devices[i].owner == _provider) {\n                counter ++;\n                if (counter > _limit * _offset) {\n                    ds[counter] = devices[i];\n                }\n\n                if  (counter >= _limit * _offset) {\n                    return ds;\n                }\n            }\n        }\n        return ds;\n    }\n\n    // function listLease(address _user, uint _limit, uint _offset) public view returns (leaseInfo [] memory leaseInfos) {\n    //     leaseInfo [] memory _ls = new leaseInfo [] (_limit);\n    //     uint counter = 0;\n    //     for (uint i = 0; i < leases.length; i++ ) {\n    //         if (leases[i].provider == _user ) {\n    //             counter ++;\n    //             if (counter > _limit * _offset) {\n    //                 _ls[counter] = leases[i];\n    //             }\n\n    //             if  (counter >= _limit * _offset) {\n    //                 return _ls;\n    //             }\n    //         }\n    //     }\n    //     return _ls;\n    // }\n}",
  "sourcePath": "/Users/irongyi/solidity_project/apus_network_v0/contracts/helper.sol",
  "compiler": {
    "name": "solc",
    "version": "0.8.21+commit.d9974bed.Emscripten.clang"
  },
  "schemaVersion": "3.4.15",
  "updatedAt": "2023-09-05T14:17:31.562Z",
  "networkType": "ethereum",
  "devdoc": {
    "kind": "dev",
    "methods": {
      "owner()": {
        "details": "Returns the address of the current owner."
      },
      "renounceOwnership()": {
        "details": "Leaves the contract without owner. It will not be possible to call `onlyOwner` functions anymore. Can only be called by the current owner. NOTE: Renouncing ownership will leave the contract without an owner, thereby removing any functionality that is only available to the owner."
      },
      "transferOwnership(address)": {
        "details": "Transfers ownership of the contract to a new account (`newOwner`). Can only be called by the current owner."
      }
    },
    "version": 1
  },
  "userdoc": {
    "kind": "user",
    "methods": {},
    "version": 1
  }
}