{
  "contractName": "Helper",
  "abi": [
    {
      "anonymous": false,
      "inputs": [
        {
          "indexed": true,
          "internalType": "address",
          "name": "previousOwner",
          "type": "address"
        },
        {
          "indexed": true,
          "internalType": "address",
          "name": "newOwner",
          "type": "address"
        }
      ],
      "name": "OwnershipTransferred",
      "type": "event"
    },
    {
      "inputs": [],
      "name": "cancellation",
      "outputs": [],
      "stateMutability": "nonpayable",
      "type": "function"
    },
    {
      "inputs": [
        {
          "internalType": "string",
          "name": "a",
          "type": "string"
        },
        {
          "internalType": "string",
          "name": "b",
          "type": "string"
        }
      ],
      "name": "concatenateStrings",
      "outputs": [
        {
          "internalType": "string",
          "name": "",
          "type": "string"
        }
      ],
      "stateMutability": "pure",
      "type": "function",
      "constant": true
    },
    {
      "inputs": [
        {
          "internalType": "uint256",
          "name": "",
          "type": "uint256"
        }
      ],
      "name": "devices",
      "outputs": [
        {
          "internalType": "uint256",
          "name": "id",
          "type": "uint256"
        },
        {
          "internalType": "address",
          "name": "owner",
          "type": "address"
        },
        {
          "internalType": "enum DeviceStatus",
          "name": "status",
          "type": "uint8"
        },
        {
          "internalType": "string",
          "name": "machineId",
          "type": "string"
        },
        {
          "internalType": "string",
          "name": "serverInfo",
          "type": "string"
        },
        {
          "components": [
            {
              "internalType": "uint256",
              "name": "serverPrice",
              "type": "uint256"
            },
            {
              "internalType": "uint256",
              "name": "storagePrice",
              "type": "uint256"
            },
            {
              "internalType": "uint256",
              "name": "upbandWidth",
              "type": "uint256"
            },
            {
              "internalType": "uint256",
              "name": "downbandWidth",
              "type": "uint256"
            }
          ],
          "internalType": "struct Price",
          "name": "price",
          "type": "tuple"
        }
      ],
      "stateMutability": "view",
      "type": "function",
      "constant": true
    },
    {
      "inputs": [
        {
          "internalType": "address",
          "name": "_addr",
          "type": "address"
        }
      ],
      "name": "getAccount",
      "outputs": [
        {
          "components": [
            {
              "internalType": "address",
              "name": "addr",
              "type": "address"
            },
            {
              "internalType": "uint256",
              "name": "balance",
              "type": "uint256"
            },
            {
              "internalType": "uint256",
              "name": "providerBlockedFunds",
              "type": "uint256"
            },
            {
              "internalType": "uint256",
              "name": "recipientBlockedFunds",
              "type": "uint256"
            },
            {
              "internalType": "string",
              "name": "info",
              "type": "string"
            }
          ],
          "internalType": "struct AccountFactory.accountInfo",
          "name": "",
          "type": "tuple"
        }
      ],
      "stateMutability": "view",
      "type": "function",
      "constant": true
    },
    {
      "inputs": [
        {
          "internalType": "uint256",
          "name": "_deviceId",
          "type": "uint256"
        }
      ],
      "name": "getLeaseByDeviceId",
      "outputs": [
        {
          "components": [
            {
              "internalType": "address",
              "name": "owner",
              "type": "address"
            },
            {
              "internalType": "uint256",
              "name": "leaseId",
              "type": "uint256"
            },
            {
              "internalType": "uint256",
              "name": "startTime",
              "type": "uint256"
            },
            {
              "internalType": "uint256",
              "name": "expireTime",
              "type": "uint256"
            },
            {
              "internalType": "uint256",
              "name": "deviceId",
              "type": "uint256"
            }
          ],
          "internalType": "struct providerLeaseInfo",
          "name": "",
          "type": "tuple"
        }
      ],
      "stateMutability": "view",
      "type": "function",
      "constant": true
    },
    {
      "inputs": [
        {
          "internalType": "uint256",
          "name": "_leaseId",
          "type": "uint256"
        }
      ],
      "name": "getProviderBillingByLeaseId",
      "outputs": [
        {
          "components": [
            {
              "internalType": "address",
              "name": "user",
              "type": "address"
            },
            {
              "internalType": "uint256",
              "name": "id",
              "type": "uint256"
            },
            {
              "internalType": "uint256",
              "name": "leaseId",
              "type": "uint256"
            },
            {
              "internalType": "uint256",
              "name": "providerBlockedFund",
              "type": "uint256"
            },
            {
              "internalType": "uint256",
              "name": "recipientBlockedFunds",
              "type": "uint256"
            },
            {
              "internalType": "uint256",
              "name": "amount",
              "type": "uint256"
            },
            {
              "internalType": "enum billingStatus",
              "name": "status",
              "type": "uint8"
            },
            {
              "internalType": "enum billingType",
              "name": "billType",
              "type": "uint8"
            }
          ],
          "internalType": "struct billingInfo",
          "name": "",
          "type": "tuple"
        }
      ],
      "stateMutability": "view",
      "type": "function",
      "constant": true
    },
    {
      "inputs": [
        {
          "internalType": "address",
          "name": "_user",
          "type": "address"
        }
      ],
      "name": "isRegister",
      "outputs": [
        {
          "internalType": "bool",
          "name": "",
          "type": "bool"
        }
      ],
      "stateMutability": "view",
      "type": "function",
      "constant": true
    },
    {
      "inputs": [
        {
          "internalType": "uint256",
          "name": "",
          "type": "uint256"
        }
      ],
      "name": "leaseProvider",
      "outputs": [
        {
          "internalType": "address",
          "name": "owner",
          "type": "address"
        },
        {
          "internalType": "uint256",
          "name": "leaseId",
          "type": "uint256"
        },
        {
          "internalType": "uint256",
          "name": "startTime",
          "type": "uint256"
        },
        {
          "internalType": "uint256",
          "name": "expireTime",
          "type": "uint256"
        },
        {
          "internalType": "uint256",
          "name": "deviceId",
          "type": "uint256"
        }
      ],
      "stateMutability": "view",
      "type": "function",
      "constant": true
    },
    {
      "inputs": [],
      "name": "owner",
      "outputs": [
        {
          "internalType": "address",
          "name": "",
          "type": "address"
        }
      ],
      "stateMutability": "view",
      "type": "function",
      "constant": true
    },
    {
      "inputs": [],
      "name": "platformSharingRatio",
      "outputs": [
        {
          "internalType": "uint8",
          "name": "",
          "type": "uint8"
        }
      ],
      "stateMutability": "view",
      "type": "function",
      "constant": true
    },
    {
      "inputs": [
        {
          "internalType": "uint256",
          "name": "",
          "type": "uint256"
        }
      ],
      "name": "providerBillings",
      "outputs": [
        {
          "internalType": "address",
          "name": "user",
          "type": "address"
        },
        {
          "internalType": "uint256",
          "name": "id",
          "type": "uint256"
        },
        {
          "internalType": "uint256",
          "name": "leaseId",
          "type": "uint256"
        },
        {
          "internalType": "uint256",
          "name": "providerBlockedFund",
          "type": "uint256"
        },
        {
          "internalType": "uint256",
          "name": "recipientBlockedFunds",
          "type": "uint256"
        },
        {
          "internalType": "uint256",
          "name": "amount",
          "type": "uint256"
        },
        {
          "internalType": "enum billingStatus",
          "name": "status",
          "type": "uint8"
        },
        {
          "internalType": "enum billingType",
          "name": "billType",
          "type": "uint8"
        }
      ],
      "stateMutability": "view",
      "type": "function",
      "constant": true
    },
    {
      "inputs": [
        {
          "internalType": "uint256",
          "name": "_startTime",
          "type": "uint256"
        },
        {
          "internalType": "uint256",
          "name": "_endTime",
          "type": "uint256"
        },
        {
          "components": [
            {
              "internalType": "uint256",
              "name": "serverPrice",
              "type": "uint256"
            },
            {
              "internalType": "uint256",
              "name": "storagePrice",
              "type": "uint256"
            },
            {
              "internalType": "uint256",
              "name": "upbandWidth",
              "type": "uint256"
            },
            {
              "internalType": "uint256",
              "name": "downbandWidth",
              "type": "uint256"
            }
          ],
          "internalType": "struct Price",
          "name": "_price",
          "type": "tuple"
        }
      ],
      "name": "providerStakeCalcute",
      "outputs": [
        {
          "internalType": "uint256",
          "name": "",
          "type": "uint256"
        }
      ],
      "stateMutability": "pure",
      "type": "function",
      "constant": true
    },
    {
      "inputs": [],
      "name": "register",
      "outputs": [
        {
          "components": [
            {
              "internalType": "address",
              "name": "addr",
              "type": "address"
            },
            {
              "internalType": "uint256",
              "name": "balance",
              "type": "uint256"
            },
            {
              "internalType": "uint256",
              "name": "providerBlockedFunds",
              "type": "uint256"
            },
            {
              "internalType": "uint256",
              "name": "recipientBlockedFunds",
              "type": "uint256"
            },
            {
              "internalType": "string",
              "name": "info",
              "type": "string"
            }
          ],
          "internalType": "struct AccountFactory.accountInfo",
          "name": "accountinfo",
          "type": "tuple"
        }
      ],
      "stateMutability": "nonpayable",
      "type": "function"
    },
    {
      "inputs": [],
      "name": "renounceOwnership",
      "outputs": [],
      "stateMutability": "nonpayable",
      "type": "function"
    },
    {
      "inputs": [
        {
          "internalType": "string",
          "name": "_info",
          "type": "string"
        }
      ],
      "name": "setProviderInfo",
      "outputs": [],
      "stateMutability": "nonpayable",
      "type": "function"
    },
    {
      "inputs": [],
      "name": "stake",
      "outputs": [],
      "stateMutability": "payable",
      "type": "function",
      "payable": true
    },
    {
      "inputs": [
        {
          "internalType": "address",
          "name": "newOwner",
          "type": "address"
        }
      ],
      "name": "transferOwnership",
      "outputs": [],
      "stateMutability": "nonpayable",
      "type": "function"
    },
    {
      "inputs": [
        {
          "internalType": "uint256",
          "name": "number",
          "type": "uint256"
        }
      ],
      "name": "uintToString",
      "outputs": [
        {
          "internalType": "string",
          "name": "",
          "type": "string"
        }
      ],
      "stateMutability": "pure",
      "type": "function",
      "constant": true
    },
    {
      "inputs": [
        {
          "internalType": "uint256",
          "name": "amount",
          "type": "uint256"
        }
      ],
      "name": "unstake",
      "outputs": [],
      "stateMutability": "payable",
      "type": "function",
      "payable": true
    },
    {
      "inputs": [],
      "name": "withdraw",
      "outputs": [],
      "stateMutability": "nonpayable",
      "type": "function"
    },
    {
      "inputs": [
        {
          "internalType": "string",
          "name": "_machineId",
          "type": "string"
        },
        {
          "internalType": "string",
          "name": "_serverInfo",
          "type": "string"
        },
        {
          "components": [
            {
              "internalType": "uint256",
              "name": "serverPrice",
              "type": "uint256"
            },
            {
              "internalType": "uint256",
              "name": "storagePrice",
              "type": "uint256"
            },
            {
              "internalType": "uint256",
              "name": "upbandWidth",
              "type": "uint256"
            },
            {
              "internalType": "uint256",
              "name": "downbandWidth",
              "type": "uint256"
            }
          ],
          "internalType": "struct Price",
          "name": "_price",
          "type": "tuple"
        },
        {
          "internalType": "uint256",
          "name": "_startTime",
          "type": "uint256"
        },
        {
          "internalType": "uint256",
          "name": "_endTime",
          "type": "uint256"
        }
      ],
      "name": "onlineServer",
      "outputs": [],
      "stateMutability": "nonpayable",
      "type": "function"
    },
    {
      "inputs": [
        {
          "internalType": "uint256",
          "name": "_deviceId",
          "type": "uint256"
        }
      ],
      "name": "offlineServer",
      "outputs": [],
      "stateMutability": "nonpayable",
      "type": "function"
    },
    {
      "inputs": [
        {
          "internalType": "uint256",
          "name": "_limit",
          "type": "uint256"
        },
        {
          "internalType": "uint256",
          "name": "_offset",
          "type": "uint256"
        }
      ],
      "name": "listDevices",
      "outputs": [
        {
          "components": [
            {
              "internalType": "uint256",
              "name": "id",
              "type": "uint256"
            },
            {
              "internalType": "address",
              "name": "owner",
              "type": "address"
            },
            {
              "internalType": "enum DeviceStatus",
              "name": "status",
              "type": "uint8"
            },
            {
              "internalType": "string",
              "name": "machineId",
              "type": "string"
            },
            {
              "internalType": "string",
              "name": "serverInfo",
              "type": "string"
            },
            {
              "components": [
                {
                  "internalType": "uint256",
                  "name": "serverPrice",
                  "type": "uint256"
                },
                {
                  "internalType": "uint256",
                  "name": "storagePrice",
                  "type": "uint256"
                },
                {
                  "internalType": "uint256",
                  "name": "upbandWidth",
                  "type": "uint256"
                },
                {
                  "internalType": "uint256",
                  "name": "downbandWidth",
                  "type": "uint256"
                }
              ],
              "internalType": "struct Price",
              "name": "price",
              "type": "tuple"
            }
          ],
          "internalType": "struct deviceInfo[]",
          "name": "_allDevices",
          "type": "tuple[]"
        }
      ],
      "stateMutability": "view",
      "type": "function",
      "constant": true
    },
    {
      "inputs": [
        {
          "internalType": "address",
          "name": "_provider",
          "type": "address"
        },
        {
          "internalType": "uint256",
          "name": "_limit",
          "type": "uint256"
        },
        {
          "internalType": "uint256",
          "name": "_offset",
          "type": "uint256"
        }
      ],
      "name": "listOwnDevices",
      "outputs": [
        {
          "components": [
            {
              "internalType": "uint256",
              "name": "id",
              "type": "uint256"
            },
            {
              "internalType": "address",
              "name": "owner",
              "type": "address"
            },
            {
              "internalType": "enum DeviceStatus",
              "name": "status",
              "type": "uint8"
            },
            {
              "internalType": "string",
              "name": "machineId",
              "type": "string"
            },
            {
              "internalType": "string",
              "name": "serverInfo",
              "type": "string"
            },
            {
              "components": [
                {
                  "internalType": "uint256",
                  "name": "serverPrice",
                  "type": "uint256"
                },
                {
                  "internalType": "uint256",
                  "name": "storagePrice",
                  "type": "uint256"
                },
                {
                  "internalType": "uint256",
                  "name": "upbandWidth",
                  "type": "uint256"
                },
                {
                  "internalType": "uint256",
                  "name": "downbandWidth",
                  "type": "uint256"
                }
              ],
              "internalType": "struct Price",
              "name": "price",
              "type": "tuple"
            }
          ],
          "internalType": "struct deviceInfo[]",
          "name": "_ownDevices",
          "type": "tuple[]"
        }
      ],
      "stateMutability": "view",
      "type": "function",
      "constant": true
    },
    {
      "inputs": [
        {
          "internalType": "address",
          "name": "_user",
          "type": "address"
        },
        {
          "internalType": "uint256",
          "name": "_limit",
          "type": "uint256"
        },
        {
          "internalType": "uint256",
          "name": "_offset",
          "type": "uint256"
        }
      ],
      "name": "listProviderLease",
      "outputs": [
        {
          "components": [
            {
              "internalType": "address",
              "name": "owner",
              "type": "address"
            },
            {
              "internalType": "uint256",
              "name": "leaseId",
              "type": "uint256"
            },
            {
              "internalType": "uint256",
              "name": "startTime",
              "type": "uint256"
            },
            {
              "internalType": "uint256",
              "name": "expireTime",
              "type": "uint256"
            },
            {
              "internalType": "uint256",
              "name": "deviceId",
              "type": "uint256"
            }
          ],
          "internalType": "struct providerLeaseInfo[]",
          "name": "",
          "type": "tuple[]"
        },
        {
          "components": [
            {
              "internalType": "address",
              "name": "user",
              "type": "address"
            },
            {
              "internalType": "uint256",
              "name": "id",
              "type": "uint256"
            },
            {
              "internalType": "uint256",
              "name": "leaseId",
              "type": "uint256"
            },
            {
              "internalType": "uint256",
              "name": "providerBlockedFund",
              "type": "uint256"
            },
            {
              "internalType": "uint256",
              "name": "recipientBlockedFunds",
              "type": "uint256"
            },
            {
              "internalType": "uint256",
              "name": "amount",
              "type": "uint256"
            },
            {
              "internalType": "enum billingStatus",
              "name": "status",
              "type": "uint8"
            },
            {
              "internalType": "enum billingType",
              "name": "billType",
              "type": "uint8"
            }
          ],
          "internalType": "struct billingInfo[]",
          "name": "",
          "type": "tuple[]"
        }
      ],
      "stateMutability": "view",
      "type": "function",
      "constant": true
    },
    {
      "inputs": [
        {
          "internalType": "uint256",
          "name": "_deviceId",
          "type": "uint256"
        }
      ],
      "name": "getOfflineLeaseAndBilling",
      "outputs": [
        {
          "components": [
            {
              "internalType": "address",
              "name": "owner",
              "type": "address"
            },
            {
              "internalType": "uint256",
              "name": "leaseId",
              "type": "uint256"
            },
            {
              "internalType": "uint256",
              "name": "startTime",
              "type": "uint256"
            },
            {
              "internalType": "uint256",
              "name": "expireTime",
              "type": "uint256"
            },
            {
              "internalType": "uint256",
              "name": "deviceId",
              "type": "uint256"
            }
          ],
          "internalType": "struct providerLeaseInfo",
          "name": "",
          "type": "tuple"
        },
        {
          "components": [
            {
              "internalType": "address",
              "name": "user",
              "type": "address"
            },
            {
              "internalType": "uint256",
              "name": "id",
              "type": "uint256"
            },
            {
              "internalType": "uint256",
              "name": "leaseId",
              "type": "uint256"
            },
            {
              "internalType": "uint256",
              "name": "providerBlockedFund",
              "type": "uint256"
            },
            {
              "internalType": "uint256",
              "name": "recipientBlockedFunds",
              "type": "uint256"
            },
            {
              "internalType": "uint256",
              "name": "amount",
              "type": "uint256"
            },
            {
              "internalType": "enum billingStatus",
              "name": "status",
              "type": "uint8"
            },
            {
              "internalType": "enum billingType",
              "name": "billType",
              "type": "uint8"
            }
          ],
          "internalType": "struct billingInfo",
          "name": "",
          "type": "tuple"
        }
      ],
      "stateMutability": "view",
      "type": "function",
      "constant": true
    }
  ],
  "bytecode": "0x60806040525f80555f6002555f60035f6101000a81548160ff021916908360ff1602179055505f60055534801562000035575f80fd5b50620000566200004a6200005c60201b60201c565b6200006360201b60201c565b62000126565b5f33905090565b5f60075f9054906101000a900473ffffffffffffffffffffffffffffffffffffffff1690508160075f6101000a81548173ffffffffffffffffffffffffffffffffffffffff021916908373ffffffffffffffffffffffffffffffffffffffff1602179055508173ffffffffffffffffffffffffffffffffffffffff168173ffffffffffffffffffffffffffffffffffffffff167f8be0079c531659141344cd1fd0a4f28419497f9722a3daafe3b4186f6b6457e060405160405180910390a35050565b614bdc80620001345f395ff3fe608060405260043610610180575f3560e01c80636020948e116100d0578063c46dcec511610089578063e939567911610063578063e939567914610588578063f2fde38b146105c4578063fbcbc0f1146105ec578063ff459ec61461062857610180565b8063c46dcec5146104e2578063c74ce95c14610522578063d67b9afd1461054c57610180565b80636020948e146103aa578063715018a6146103ed5780637a36b3ee146104035780638da5cb5b1461043f578063970c813f14610469578063a3a4aff4146104a657610180565b80632e17de781161013d5780633a4b66f1116101175780633a4b66f11461034c5780633ccfd60b14610356578063404050781461036c5780635f41fa0e1461038257610180565b80632e17de78146102e05780633196e617146102fc5780633940ab771461032457610180565b80630f35ceb71461018457806310ff8e31146101c0578063116ac5ef146102015780631aa3a0081461023e57806322fdef94146102685780632b90c592146102a4575b5f80fd5b34801561018f575f80fd5b506101aa60048036038101906101a591906132fe565b610664565b6040516101b791906134d0565b60405180910390f35b3480156101cb575f80fd5b506101e660048036038101906101e191906132fe565b610828565b6040516101f89695949392919061362b565b60405180910390f35b34801561020c575f80fd5b50610227600480360381019061022291906136c3565b6109d8565b60405161023592919061396a565b60405180910390f35b348015610249575f80fd5b50610252610c1d565b60405161025f9190613a5a565b60405180910390f35b348015610273575f80fd5b5061028e60048036038101906102899190613a7a565b610f09565b60405161029b9190613abf565b60405180910390f35b3480156102af575f80fd5b506102ca60048036038101906102c59190613ad8565b610f9f565b6040516102d79190613cc1565b60405180910390f35b6102fa60048036038101906102f591906132fe565b611370565b005b348015610307575f80fd5b50610322600480360381019061031d91906132fe565b6115dc565b005b34801561032f575f80fd5b5061034a60048036038101906103459190613e0d565b611620565b005b61035461173f565b005b348015610361575f80fd5b5061036a611a5d565b005b348015610377575f80fd5b50610380611b26565b005b34801561038d575f80fd5b506103a860048036038101906103a39190613ecd565b611bb1565b005b3480156103b5575f80fd5b506103d060048036038101906103cb91906132fe565b611bf9565b6040516103e4989796959493929190613f9b565b60405180910390f35b3480156103f8575f80fd5b50610401611c84565b005b34801561040e575f80fd5b5061042960048036038101906104249190614017565b611d0b565b604051610436919061408d565b60405180910390f35b34801561044a575f80fd5b50610453611e94565b60405161046091906140ad565b60405180910390f35b348015610474575f80fd5b5061048f600480360381019061048a91906132fe565b611ebc565b60405161049d92919061412c565b60405180910390f35b3480156104b1575f80fd5b506104cc60048036038101906104c79190614154565b611ef5565b6040516104d991906141a4565b60405180910390f35b3480156104ed575f80fd5b50610508600480360381019061050391906132fe565b611f19565b6040516105199594939291906141bd565b60405180910390f35b34801561052d575f80fd5b50610536611f79565b6040516105439190614229565b60405180910390f35b348015610557575f80fd5b50610572600480360381019061056d91906132fe565b611f8b565b60405161057f9190614242565b60405180910390f35b348015610593575f80fd5b506105ae60048036038101906105a991906132fe565b6120cf565b6040516105bb919061408d565b60405180910390f35b3480156105cf575f80fd5b506105ea60048036038101906105e59190613a7a565b612236565b005b3480156105f7575f80fd5b50610612600480360381019061060d9190613a7a565b61232c565b60405161061f9190613a5a565b60405180910390f35b348015610633575f80fd5b5061064e600480360381019061064991906136c3565b612553565b60405161065b9190613cc1565b60405180910390f35b61066c6130e5565b5f5b6006805490508110156107e75782600682815481106106905761068f61425b565b5b905f5260205f20906007020160020154036107d457600681815481106106b9576106b861425b565b5b905f5260205f209060070201604051806101000160405290815f82015f9054906101000a900473ffffffffffffffffffffffffffffffffffffffff1673ffffffffffffffffffffffffffffffffffffffff1673ffffffffffffffffffffffffffffffffffffffff1681526020016001820154815260200160028201548152602001600382015481526020016004820154815260200160058201548152602001600682015f9054906101000a900460ff16600281111561077b5761077a613377565b5b600281111561078d5761078c613377565b5b81526020016006820160019054906101000a900460ff1660028111156107b6576107b5613377565b5b60028111156107c8576107c7613377565b5b81525050915050610823565b80806107df906142b5565b91505061066e565b506040517f08c379a000000000000000000000000000000000000000000000000000000000815260040161081a90614346565b60405180910390fd5b919050565b60018181548110610837575f80fd5b905f5260205f2090600802015f91509050805f015490806001015f9054906101000a900473ffffffffffffffffffffffffffffffffffffffff16908060010160149054906101000a900460ff169080600201805461089490614391565b80601f01602080910402602001604051908101604052809291908181526020018280546108c090614391565b801561090b5780601f106108e25761010080835404028352916020019161090b565b820191905f5260205f20905b8154815290600101906020018083116108ee57829003601f168201915b50505050509080600301805461092090614391565b80601f016020809104026020016040519081016040528092919081815260200182805461094c90614391565b80156109975780601f1061096e57610100808354040283529160200191610997565b820191905f5260205f20905b81548152906001019060200180831161097a57829003601f168201915b505050505090806004016040518060800160405290815f82015481526020016001820154815260200160028201548152602001600382015481525050905086565b60608082846109e791906143c1565b93506004600681805480602002602001604051908101604052809291908181526020015f905b82821015610ab9578382905f5260205f2090600502016040518060a00160405290815f82015f9054906101000a900473ffffffffffffffffffffffffffffffffffffffff1673ffffffffffffffffffffffffffffffffffffffff1673ffffffffffffffffffffffffffffffffffffffff16815260200160018201548152602001600282015481526020016003820154815260200160048201548152505081526020019060010190610a0d565b50505050915080805480602002602001604051908101604052809291908181526020015f905b82821015610c0b578382905f5260205f209060070201604051806101000160405290815f82015f9054906101000a900473ffffffffffffffffffffffffffffffffffffffff1673ffffffffffffffffffffffffffffffffffffffff1673ffffffffffffffffffffffffffffffffffffffff1681526020016001820154815260200160028201548152602001600382015481526020016004820154815260200160058201548152602001600682015f9054906101000a900460ff166002811115610bab57610baa613377565b5b6002811115610bbd57610bbc613377565b5b81526020016006820160019054906101000a900460ff166002811115610be657610be5613377565b5b6002811115610bf857610bf7613377565b5b8152505081526020019060010190610adf565b50505050905091509150935093915050565b610c2561315c565b5f73ffffffffffffffffffffffffffffffffffffffff1660085f3373ffffffffffffffffffffffffffffffffffffffff1673ffffffffffffffffffffffffffffffffffffffff1681526020019081526020015f205f015f9054906101000a900473ffffffffffffffffffffffffffffffffffffffff1673ffffffffffffffffffffffffffffffffffffffff1603610dba576040518060a001604052803373ffffffffffffffffffffffffffffffffffffffff1681526020015f81526020015f81526020015f815260200160405180602001604052805f81525081525060085f3373ffffffffffffffffffffffffffffffffffffffff1673ffffffffffffffffffffffffffffffffffffffff1681526020019081526020015f205f820151815f015f6101000a81548173ffffffffffffffffffffffffffffffffffffffff021916908373ffffffffffffffffffffffffffffffffffffffff1602179055506020820151816001015560408201518160020155606082015181600301556080820151816004019081610db59190614591565b509050505b60085f3373ffffffffffffffffffffffffffffffffffffffff1673ffffffffffffffffffffffffffffffffffffffff1681526020019081526020015f206040518060a00160405290815f82015f9054906101000a900473ffffffffffffffffffffffffffffffffffffffff1673ffffffffffffffffffffffffffffffffffffffff1673ffffffffffffffffffffffffffffffffffffffff168152602001600182015481526020016002820154815260200160038201548152602001600482018054610e8490614391565b80601f0160208091040260200160405190810160405280929190818152602001828054610eb090614391565b8015610efb5780601f10610ed257610100808354040283529160200191610efb565b820191905f5260205f20905b815481529060010190602001808311610ede57829003601f168201915b505050505081525050905090565b5f8073ffffffffffffffffffffffffffffffffffffffff1660085f8473ffffffffffffffffffffffffffffffffffffffff1673ffffffffffffffffffffffffffffffffffffffff1681526020019081526020015f205f015f9054906101000a900473ffffffffffffffffffffffffffffffffffffffff1673ffffffffffffffffffffffffffffffffffffffff1614159050919050565b60605f8367ffffffffffffffff811115610fbc57610fbb613ce9565b5b604051908082528060200260200182016040528015610ff557816020015b610fe261319d565b815260200190600190039081610fda5790505b5090505f8085856110069190614660565b90505b600180549050811015611363576001600381111561102a57611029613377565b5b6001828154811061103e5761103d61425b565b5b905f5260205f20906008020160010160149054906101000a900460ff16600381111561106d5761106c613377565b5b14806110cd57506002600381111561108857611087613377565b5b6001828154811061109c5761109b61425b565b5b905f5260205f20906008020160010160149054906101000a900460ff1660038111156110cb576110ca613377565b5b145b15611350578582101561132657600181815481106110ee576110ed61425b565b5b905f5260205f2090600802016040518060c00160405290815f8201548152602001600182015f9054906101000a900473ffffffffffffffffffffffffffffffffffffffff1673ffffffffffffffffffffffffffffffffffffffff1673ffffffffffffffffffffffffffffffffffffffff1681526020016001820160149054906101000a900460ff16600381111561118857611187613377565b5b600381111561119a57611199613377565b5b81526020016002820180546111ae90614391565b80601f01602080910402602001604051908101604052809291908181526020018280546111da90614391565b80156112255780601f106111fc57610100808354040283529160200191611225565b820191905f5260205f20905b81548152906001019060200180831161120857829003601f168201915b5050505050815260200160038201805461123e90614391565b80601f016020809104026020016040519081016040528092919081815260200182805461126a90614391565b80156112b55780601f1061128c576101008083540402835291602001916112b5565b820191905f5260205f20905b81548152906001019060200180831161129857829003601f168201915b50505050508152602001600482016040518060800160405290815f820154815260200160018201548152602001600282015481526020016003820154815250508152505083838151811061130c5761130b61425b565b5b60200260200101819052508180611322906142b5565b9250505b60018561133391906143c1565b8661133e9190614660565b821061134f5782935050505061136a565b5b808061135b906142b5565b915050611009565b5081925050505b92915050565b5f60085f3373ffffffffffffffffffffffffffffffffffffffff1673ffffffffffffffffffffffffffffffffffffffff1681526020019081526020015f206040518060a00160405290815f82015f9054906101000a900473ffffffffffffffffffffffffffffffffffffffff1673ffffffffffffffffffffffffffffffffffffffff1673ffffffffffffffffffffffffffffffffffffffff16815260200160018201548152602001600282015481526020016003820154815260200160048201805461143b90614391565b80601f016020809104026020016040519081016040528092919081815260200182805461146790614391565b80156114b25780601f10611489576101008083540402835291602001916114b2565b820191905f5260205f20905b81548152906001019060200180831161149557829003601f168201915b50505050508152505090508181602001511015611504576040517f08c379a00000000000000000000000000000000000000000000000000000000081526004016114fb906146eb565b60405180910390fd5b8160085f3373ffffffffffffffffffffffffffffffffffffffff1673ffffffffffffffffffffffffffffffffffffffff1681526020019081526020015f20600101546115509190614709565b60085f3373ffffffffffffffffffffffffffffffffffffffff1673ffffffffffffffffffffffffffffffffffffffff1681526020019081526020015f20600101819055503373ffffffffffffffffffffffffffffffffffffffff166108fc8390811502906040515f60405180830381858888f193505050501580156115d7573d5f803e3d5ffd5b505050565b6115e5816128de565b5f6115ef82611f8b565b90505f6115ff8260200151610664565b905061160e8160200151612938565b61161b8160600151612a34565b505050565b335f73ffffffffffffffffffffffffffffffffffffffff1660085f8373ffffffffffffffffffffffffffffffffffffffff1673ffffffffffffffffffffffffffffffffffffffff1681526020019081526020015f205f015f9054906101000a900473ffffffffffffffffffffffffffffffffffffffff1673ffffffffffffffffffffffffffffffffffffffff16036116ed576040517f08c379a00000000000000000000000000000000000000000000000000000000081526004016116e490614786565b60405180910390fd5b8160085f3373ffffffffffffffffffffffffffffffffffffffff1673ffffffffffffffffffffffffffffffffffffffff1681526020019081526020015f20600401908161173a9190614591565b505050565b335f73ffffffffffffffffffffffffffffffffffffffff1660085f8373ffffffffffffffffffffffffffffffffffffffff1673ffffffffffffffffffffffffffffffffffffffff1681526020019081526020015f205f015f9054906101000a900473ffffffffffffffffffffffffffffffffffffffff1673ffffffffffffffffffffffffffffffffffffffff160361180c576040517f08c379a000000000000000000000000000000000000000000000000000000000815260040161180390614786565b60405180910390fd5b5f60085f3373ffffffffffffffffffffffffffffffffffffffff1673ffffffffffffffffffffffffffffffffffffffff1681526020019081526020015f2090505f73ffffffffffffffffffffffffffffffffffffffff16815f015f9054906101000a900473ffffffffffffffffffffffffffffffffffffffff1673ffffffffffffffffffffffffffffffffffffffff16036119c85733815f015f6101000a81548173ffffffffffffffffffffffffffffffffffffffff021916908373ffffffffffffffffffffffffffffffffffffffff1602179055503481600101819055508060085f3373ffffffffffffffffffffffffffffffffffffffff1673ffffffffffffffffffffffffffffffffffffffff1681526020019081526020015f205f82015f9054906101000a900473ffffffffffffffffffffffffffffffffffffffff16815f015f6101000a81548173ffffffffffffffffffffffffffffffffffffffff021916908373ffffffffffffffffffffffffffffffffffffffff160217905550600182015481600101556002820154816002015560038201548160030155600482018160040190816119be91906147b9565b5090505050611a5a565b3460085f3373ffffffffffffffffffffffffffffffffffffffff1673ffffffffffffffffffffffffffffffffffffffff1681526020019081526020015f2060010154611a1491906143c1565b60085f3373ffffffffffffffffffffffffffffffffffffffff1673ffffffffffffffffffffffffffffffffffffffff1681526020019081526020015f2060010181905550505b50565b611a65612ae3565b73ffffffffffffffffffffffffffffffffffffffff16611a83611e94565b73ffffffffffffffffffffffffffffffffffffffff1614611ad9576040517f08c379a0000000000000000000000000000000000000000000000000000000008152600401611ad0906148e8565b60405180910390fd5b611ae1611e94565b73ffffffffffffffffffffffffffffffffffffffff166108fc4790811502906040515f60405180830381858888f19350505050158015611b23573d5f803e3d5ffd5b50565b60085f3373ffffffffffffffffffffffffffffffffffffffff1673ffffffffffffffffffffffffffffffffffffffff1681526020019081526020015f205f8082015f6101000a81549073ffffffffffffffffffffffffffffffffffffffff0219169055600182015f9055600282015f9055600382015f9055600482015f611bad91906131fe565b5050565b5f611bbd838386611ef5565b9050611bc881612aea565b5f611bd4878787612c1c565b90505f611be333838787612d9c565b9050611bef8184612e94565b5050505050505050565b60068181548110611c08575f80fd5b905f5260205f2090600702015f91509050805f015f9054906101000a900473ffffffffffffffffffffffffffffffffffffffff1690806001015490806002015490806003015490806004015490806005015490806006015f9054906101000a900460ff16908060060160019054906101000a900460ff16905088565b611c8c612ae3565b73ffffffffffffffffffffffffffffffffffffffff16611caa611e94565b73ffffffffffffffffffffffffffffffffffffffff1614611d00576040517f08c379a0000000000000000000000000000000000000000000000000000000008152600401611cf7906148e8565b60405180910390fd5b611d095f613022565b565b60605f8390505f8390505f81518351611d2491906143c1565b67ffffffffffffffff811115611d3d57611d3c613ce9565b5b6040519080825280601f01601f191660200182016040528015611d6f5781602001600182028036833780820191505090505b5090505f805b8451811015611dfc57848181518110611d9157611d9061425b565b5b602001015160f81c60f81b838380611da8906142b5565b945081518110611dbb57611dba61425b565b5b60200101907effffffffffffffffffffffffffffffffffffffffffffffffffffffffffffff191690815f1a9053508080611df4906142b5565b915050611d75565b505f5b8351811015611e8657838181518110611e1b57611e1a61425b565b5b602001015160f81c60f81b838380611e32906142b5565b945081518110611e4557611e4461425b565b5b60200101907effffffffffffffffffffffffffffffffffffffffffffffffffffffffffffff191690815f1a9053508080611e7e906142b5565b915050611dff565b508194505050505092915050565b5f60075f9054906101000a900473ffffffffffffffffffffffffffffffffffffffff16905090565b611ec461323b565b611ecc6130e5565b5f611ed684611f8b565b90505f611ee68260200151610664565b90508181935093505050915091565b5f8383611f029190614709565b825f0151611f109190614660565b90509392505050565b60048181548110611f28575f80fd5b905f5260205f2090600502015f91509050805f015f9054906101000a900473ffffffffffffffffffffffffffffffffffffffff16908060010154908060020154908060030154908060040154905085565b60035f9054906101000a900460ff1681565b611f9361323b565b5f5b60048054905081101561208e578260048281548110611fb757611fb661425b565b5b905f5260205f209060050201600401540361207b5760048181548110611fe057611fdf61425b565b5b905f5260205f2090600502016040518060a00160405290815f82015f9054906101000a900473ffffffffffffffffffffffffffffffffffffffff1673ffffffffffffffffffffffffffffffffffffffff1673ffffffffffffffffffffffffffffffffffffffff1681526020016001820154815260200160028201548152602001600382015481526020016004820154815250509150506120ca565b8080612086906142b5565b915050611f95565b506040517f08c379a00000000000000000000000000000000000000000000000000000000081526004016120c190614950565b60405180910390fd5b919050565b60605f8203612115576040518060400160405280600181526020017f30000000000000000000000000000000000000000000000000000000000000008152509050612231565b5f8290505f5b5f821461214457808061212d906142b5565b915050600a8261213d919061499b565b915061211b565b5f8167ffffffffffffffff81111561215f5761215e613ce9565b5b6040519080825280601f01601f1916602001820160405280156121915781602001600182028036833780820191505090505b5090505f6001836121a29190614709565b90505b5f861461222957600a866121b991906149cb565b60306121c591906143c1565b60f81b8282806121d4906149fb565b9350815181106121e7576121e661425b565b5b60200101907effffffffffffffffffffffffffffffffffffffffffffffffffffffffffffff191690815f1a905350600a86612222919061499b565b95506121a5565b819450505050505b919050565b61223e612ae3565b73ffffffffffffffffffffffffffffffffffffffff1661225c611e94565b73ffffffffffffffffffffffffffffffffffffffff16146122b2576040517f08c379a00000000000000000000000000000000000000000000000000000000081526004016122a9906148e8565b60405180910390fd5b5f73ffffffffffffffffffffffffffffffffffffffff168173ffffffffffffffffffffffffffffffffffffffff1603612320576040517f08c379a000000000000000000000000000000000000000000000000000000000815260040161231790614a92565b60405180910390fd5b61232981613022565b50565b61233461315c565b815f73ffffffffffffffffffffffffffffffffffffffff1660085f8373ffffffffffffffffffffffffffffffffffffffff1673ffffffffffffffffffffffffffffffffffffffff1681526020019081526020015f205f015f9054906101000a900473ffffffffffffffffffffffffffffffffffffffff1673ffffffffffffffffffffffffffffffffffffffff1603612401576040517f08c379a00000000000000000000000000000000000000000000000000000000081526004016123f890614786565b60405180910390fd5b60085f8473ffffffffffffffffffffffffffffffffffffffff1673ffffffffffffffffffffffffffffffffffffffff1681526020019081526020015f206040518060a00160405290815f82015f9054906101000a900473ffffffffffffffffffffffffffffffffffffffff1673ffffffffffffffffffffffffffffffffffffffff1673ffffffffffffffffffffffffffffffffffffffff1681526020016001820154815260200160028201548152602001600382015481526020016004820180546124cb90614391565b80601f01602080910402602001604051908101604052809291908181526020018280546124f790614391565b80156125425780601f1061251957610100808354040283529160200191612542565b820191905f5260205f20905b81548152906001019060200180831161252557829003601f168201915b505050505081525050915050919050565b60605f8367ffffffffffffffff8111156125705761256f613ce9565b5b6040519080825280602002602001820160405280156125a957816020015b61259661319d565b81526020019060019003908161258e5790505b5090505f8085856125ba9190614660565b90505b6001805490508110156128d0578673ffffffffffffffffffffffffffffffffffffffff16600182815481106125f5576125f461425b565b5b905f5260205f2090600802016001015f9054906101000a900473ffffffffffffffffffffffffffffffffffffffff1673ffffffffffffffffffffffffffffffffffffffff16036128bd5785821015612893576001818154811061265b5761265a61425b565b5b905f5260205f2090600802016040518060c00160405290815f8201548152602001600182015f9054906101000a900473ffffffffffffffffffffffffffffffffffffffff1673ffffffffffffffffffffffffffffffffffffffff1673ffffffffffffffffffffffffffffffffffffffff1681526020016001820160149054906101000a900460ff1660038111156126f5576126f4613377565b5b600381111561270757612706613377565b5b815260200160028201805461271b90614391565b80601f016020809104026020016040519081016040528092919081815260200182805461274790614391565b80156127925780601f1061276957610100808354040283529160200191612792565b820191905f5260205f20905b81548152906001019060200180831161277557829003601f168201915b505050505081526020016003820180546127ab90614391565b80601f01602080910402602001604051908101604052809291908181526020018280546127d790614391565b80156128225780601f106127f957610100808354040283529160200191612822565b820191905f5260205f20905b81548152906001019060200180831161280557829003601f168201915b50505050508152602001600482016040518060800160405290815f82015481526020016001820154815260200160028201548152602001600382015481525050815250508383815181106128795761287861425b565b5b6020026020010181905250818061288f906142b5565b9250505b6001856128a091906143c1565b866128ab9190614660565b82106128bc578293505050506128d7565b5b80806128c8906142b5565b9150506125bd565b5081925050505b9392505050565b6003600180836128ee9190614709565b815481106128ff576128fe61425b565b5b905f5260205f20906008020160010160146101000a81548160ff021916908360038111156129305761292f613377565b5b021790555050565b6001600281111561294c5761294b613377565b5b600660018361295b9190614709565b8154811061296c5761296b61425b565b5b905f5260205f2090600702016006015f9054906101000a900460ff16600281111561299a57612999613377565b5b036129da576040517f08c379a00000000000000000000000000000000000000000000000000000000081526004016129d190614b20565b60405180910390fd5b600160066001836129eb9190614709565b815481106129fc576129fb61425b565b5b905f5260205f2090600702016006015f6101000a81548160ff02191690836002811115612a2c57612a2b613377565b5b021790555050565b8060085f3373ffffffffffffffffffffffffffffffffffffffff1673ffffffffffffffffffffffffffffffffffffffff1681526020019081526020015f206001015f828254612a8391906143c1565b925050819055508060085f3373ffffffffffffffffffffffffffffffffffffffff1673ffffffffffffffffffffffffffffffffffffffff1681526020019081526020015f206002015f828254612ad99190614709565b9250508190555050565b5f33905090565b60085f3373ffffffffffffffffffffffffffffffffffffffff1673ffffffffffffffffffffffffffffffffffffffff1681526020019081526020015f2060010154811115612b6d576040517f08c379a0000000000000000000000000000000000000000000000000000000008152600401612b6490614b88565b60405180910390fd5b8060085f3373ffffffffffffffffffffffffffffffffffffffff1673ffffffffffffffffffffffffffffffffffffffff1681526020019081526020015f206001015f828254612bbc9190614709565b925050819055508060085f3373ffffffffffffffffffffffffffffffffffffffff1673ffffffffffffffffffffffffffffffffffffffff1681526020019081526020015f206002015f828254612c1291906143c1565b9250508190555050565b5f60015f80828254612c2e91906143c1565b9250508190555060016040518060c001604052805f5481526020013373ffffffffffffffffffffffffffffffffffffffff16815260200160016003811115612c7957612c78613377565b5b815260200186815260200185815260200184815250908060018154018082558091505060019003905f5260205f2090600802015f909190919091505f820151815f01556020820151816001015f6101000a81548173ffffffffffffffffffffffffffffffffffffffff021916908373ffffffffffffffffffffffffffffffffffffffff16021790555060408201518160010160146101000a81548160ff02191690836003811115612d2d57612d2c613377565b5b02179055506060820151816002019081612d479190614591565b506080820151816003019081612d5d9190614591565b5060a0820151816004015f820151815f0155602082015181600101556040820151816002015560608201518160030155505050505f5490509392505050565b5f6001600254612dac91906143c1565b60028190555060046040518060a001604052808773ffffffffffffffffffffffffffffffffffffffff168152602001600254815260200185815260200184815260200186815250908060018154018082558091505060019003905f5260205f2090600502015f909190919091505f820151815f015f6101000a81548173ffffffffffffffffffffffffffffffffffffffff021916908373ffffffffffffffffffffffffffffffffffffffff1602179055506020820151816001015560408201518160020155606082015181600301556080820151816004015550506002549050949350505050565b6001600554612ea391906143c1565b60058190555060066040518061010001604052803373ffffffffffffffffffffffffffffffffffffffff16815260200160055481526020018481526020018381526020015f81526020015f81526020015f6002811115612f0657612f05613377565b5b81526020015f6002811115612f1e57612f1d613377565b5b815250908060018154018082558091505060019003905f5260205f2090600702015f909190919091505f820151815f015f6101000a81548173ffffffffffffffffffffffffffffffffffffffff021916908373ffffffffffffffffffffffffffffffffffffffff1602179055506020820151816001015560408201518160020155606082015181600301556080820151816004015560a0820151816005015560c0820151816006015f6101000a81548160ff02191690836002811115612fe757612fe6613377565b5b021790555060e08201518160060160016101000a81548160ff0219169083600281111561301757613016613377565b5b021790555050505050565b5f60075f9054906101000a900473ffffffffffffffffffffffffffffffffffffffff1690508160075f6101000a81548173ffffffffffffffffffffffffffffffffffffffff021916908373ffffffffffffffffffffffffffffffffffffffff1602179055508173ffffffffffffffffffffffffffffffffffffffff168173ffffffffffffffffffffffffffffffffffffffff167f8be0079c531659141344cd1fd0a4f28419497f9722a3daafe3b4186f6b6457e060405160405180910390a35050565b6040518061010001604052805f73ffffffffffffffffffffffffffffffffffffffff1681526020015f81526020015f81526020015f81526020015f81526020015f81526020015f600281111561313e5761313d613377565b5b81526020015f600281111561315657613155613377565b5b81525090565b6040518060a001604052805f73ffffffffffffffffffffffffffffffffffffffff1681526020015f81526020015f81526020015f8152602001606081525090565b6040518060c001604052805f81526020015f73ffffffffffffffffffffffffffffffffffffffff1681526020015f60038111156131dd576131dc613377565b5b815260200160608152602001606081526020016131f861327b565b81525090565b50805461320a90614391565b5f825580601f1061321b5750613238565b601f0160209004905f5260205f2090810190613237919061329f565b5b50565b6040518060a001604052805f73ffffffffffffffffffffffffffffffffffffffff1681526020015f81526020015f81526020015f81526020015f81525090565b60405180608001604052805f81526020015f81526020015f81526020015f81525090565b5b808211156132b6575f815f9055506001016132a0565b5090565b5f604051905090565b5f80fd5b5f80fd5b5f819050919050565b6132dd816132cb565b81146132e7575f80fd5b50565b5f813590506132f8816132d4565b92915050565b5f60208284031215613313576133126132c3565b5b5f613320848285016132ea565b91505092915050565b5f73ffffffffffffffffffffffffffffffffffffffff82169050919050565b5f61335282613329565b9050919050565b61336281613348565b82525050565b613371816132cb565b82525050565b7f4e487b71000000000000000000000000000000000000000000000000000000005f52602160045260245ffd5b600381106133b5576133b4613377565b5b50565b5f8190506133c5826133a4565b919050565b5f6133d4826133b8565b9050919050565b6133e4816133ca565b82525050565b600381106133fb576133fa613377565b5b50565b5f81905061340b826133ea565b919050565b5f61341a826133fe565b9050919050565b61342a81613410565b82525050565b61010082015f8201516134455f850182613359565b5060208201516134586020850182613368565b50604082015161346b6040850182613368565b50606082015161347e6060850182613368565b5060808201516134916080850182613368565b5060a08201516134a460a0850182613368565b5060c08201516134b760c08501826133db565b5060e08201516134ca60e0850182613421565b50505050565b5f610100820190506134e45f830184613430565b92915050565b6134f3816132cb565b82525050565b61350281613348565b82525050565b6004811061351957613518613377565b5b50565b5f81905061352982613508565b919050565b5f6135388261351c565b9050919050565b6135488161352e565b82525050565b5f81519050919050565b5f82825260208201905092915050565b5f5b8381101561358557808201518184015260208101905061356a565b5f8484015250505050565b5f601f19601f8301169050919050565b5f6135aa8261354e565b6135b48185613558565b93506135c4818560208601613568565b6135cd81613590565b840191505092915050565b608082015f8201516135ec5f850182613368565b5060208201516135ff6020850182613368565b5060408201516136126040850182613368565b5060608201516136256060850182613368565b50505050565b5f6101208201905061363f5f8301896134ea565b61364c60208301886134f9565b613659604083018761353f565b818103606083015261366b81866135a0565b9050818103608083015261367f81856135a0565b905061368e60a08301846135d8565b979650505050505050565b6136a281613348565b81146136ac575f80fd5b50565b5f813590506136bd81613699565b92915050565b5f805f606084860312156136da576136d96132c3565b5b5f6136e7868287016136af565b93505060206136f8868287016132ea565b9250506040613709868287016132ea565b9150509250925092565b5f81519050919050565b5f82825260208201905092915050565b5f819050602082019050919050565b60a082015f8201516137505f850182613359565b5060208201516137636020850182613368565b5060408201516137766040850182613368565b5060608201516137896060850182613368565b50608082015161379c6080850182613368565b50505050565b5f6137ad838361373c565b60a08301905092915050565b5f602082019050919050565b5f6137cf82613713565b6137d9818561371d565b93506137e48361372d565b805f5b838110156138145781516137fb88826137a2565b9750613806836137b9565b9250506001810190506137e7565b5085935050505092915050565b5f81519050919050565b5f82825260208201905092915050565b5f819050602082019050919050565b61010082015f82015161385f5f850182613359565b5060208201516138726020850182613368565b5060408201516138856040850182613368565b5060608201516138986060850182613368565b5060808201516138ab6080850182613368565b5060a08201516138be60a0850182613368565b5060c08201516138d160c08501826133db565b5060e08201516138e460e0850182613421565b50505050565b5f6138f5838361384a565b6101008301905092915050565b5f602082019050919050565b5f61391882613821565b613922818561382b565b935061392d8361383b565b805f5b8381101561395d57815161394488826138ea565b975061394f83613902565b925050600181019050613930565b5085935050505092915050565b5f6040820190508181035f83015261398281856137c5565b90508181036020830152613996818461390e565b90509392505050565b5f82825260208201905092915050565b5f6139b98261354e565b6139c3818561399f565b93506139d3818560208601613568565b6139dc81613590565b840191505092915050565b5f60a083015f8301516139fc5f860182613359565b506020830151613a0f6020860182613368565b506040830151613a226040860182613368565b506060830151613a356060860182613368565b5060808301518482036080860152613a4d82826139af565b9150508091505092915050565b5f6020820190508181035f830152613a7281846139e7565b905092915050565b5f60208284031215613a8f57613a8e6132c3565b5b5f613a9c848285016136af565b91505092915050565b5f8115159050919050565b613ab981613aa5565b82525050565b5f602082019050613ad25f830184613ab0565b92915050565b5f8060408385031215613aee57613aed6132c3565b5b5f613afb858286016132ea565b9250506020613b0c858286016132ea565b9150509250929050565b5f81519050919050565b5f82825260208201905092915050565b5f819050602082019050919050565b613b488161352e565b82525050565b608082015f820151613b625f850182613368565b506020820151613b756020850182613368565b506040820151613b886040850182613368565b506060820151613b9b6060850182613368565b50505050565b5f61012083015f830151613bb75f860182613368565b506020830151613bca6020860182613359565b506040830151613bdd6040860182613b3f565b5060608301518482036060860152613bf582826139af565b91505060808301518482036080860152613c0f82826139af565b91505060a0830151613c2460a0860182613b4e565b508091505092915050565b5f613c3a8383613ba1565b905092915050565b5f602082019050919050565b5f613c5882613b16565b613c628185613b20565b935083602082028501613c7485613b30565b805f5b85811015613caf5784840389528151613c908582613c2f565b9450613c9b83613c42565b925060208a01995050600181019050613c77565b50829750879550505050505092915050565b5f6020820190508181035f830152613cd98184613c4e565b905092915050565b5f80fd5b5f80fd5b7f4e487b71000000000000000000000000000000000000000000000000000000005f52604160045260245ffd5b613d1f82613590565b810181811067ffffffffffffffff82111715613d3e57613d3d613ce9565b5b80604052505050565b5f613d506132ba565b9050613d5c8282613d16565b919050565b5f67ffffffffffffffff821115613d7b57613d7a613ce9565b5b613d8482613590565b9050602081019050919050565b828183375f83830152505050565b5f613db1613dac84613d61565b613d47565b905082815260208101848484011115613dcd57613dcc613ce5565b5b613dd8848285613d91565b509392505050565b5f82601f830112613df457613df3613ce1565b5b8135613e04848260208601613d9f565b91505092915050565b5f60208284031215613e2257613e216132c3565b5b5f82013567ffffffffffffffff811115613e3f57613e3e6132c7565b5b613e4b84828501613de0565b91505092915050565b5f80fd5b5f60808284031215613e6d57613e6c613e54565b5b613e776080613d47565b90505f613e86848285016132ea565b5f830152506020613e99848285016132ea565b6020830152506040613ead848285016132ea565b6040830152506060613ec1848285016132ea565b60608301525092915050565b5f805f805f6101008688031215613ee757613ee66132c3565b5b5f86013567ffffffffffffffff811115613f0457613f036132c7565b5b613f1088828901613de0565b955050602086013567ffffffffffffffff811115613f3157613f306132c7565b5b613f3d88828901613de0565b9450506040613f4e88828901613e58565b93505060c0613f5f888289016132ea565b92505060e0613f70888289016132ea565b9150509295509295909350565b613f86816133ca565b82525050565b613f9581613410565b82525050565b5f61010082019050613faf5f83018b6134f9565b613fbc602083018a6134ea565b613fc960408301896134ea565b613fd660608301886134ea565b613fe360808301876134ea565b613ff060a08301866134ea565b613ffd60c0830185613f7d565b61400a60e0830184613f8c565b9998505050505050505050565b5f806040838503121561402d5761402c6132c3565b5b5f83013567ffffffffffffffff81111561404a576140496132c7565b5b61405685828601613de0565b925050602083013567ffffffffffffffff811115614077576140766132c7565b5b61408385828601613de0565b9150509250929050565b5f6020820190508181035f8301526140a581846135a0565b905092915050565b5f6020820190506140c05f8301846134f9565b92915050565b60a082015f8201516140da5f850182613359565b5060208201516140ed6020850182613368565b5060408201516141006040850182613368565b5060608201516141136060850182613368565b5060808201516141266080850182613368565b50505050565b5f6101a0820190506141405f8301856140c6565b61414d60a0830184613430565b9392505050565b5f805f60c0848603121561416b5761416a6132c3565b5b5f614178868287016132ea565b9350506020614189868287016132ea565b925050604061419a86828701613e58565b9150509250925092565b5f6020820190506141b75f8301846134ea565b92915050565b5f60a0820190506141d05f8301886134f9565b6141dd60208301876134ea565b6141ea60408301866134ea565b6141f760608301856134ea565b61420460808301846134ea565b9695505050505050565b5f60ff82169050919050565b6142238161420e565b82525050565b5f60208201905061423c5f83018461421a565b92915050565b5f60a0820190506142555f8301846140c6565b92915050565b7f4e487b71000000000000000000000000000000000000000000000000000000005f52603260045260245ffd5b7f4e487b71000000000000000000000000000000000000000000000000000000005f52601160045260245ffd5b5f6142bf826132cb565b91507fffffffffffffffffffffffffffffffffffffffffffffffffffffffffffffffff82036142f1576142f0614288565b5b600182019050919050565b7f63616e27742066696e642062696c6c696e6721000000000000000000000000005f82015250565b5f614330601383613558565b915061433b826142fc565b602082019050919050565b5f6020820190508181035f83015261435d81614324565b9050919050565b7f4e487b71000000000000000000000000000000000000000000000000000000005f52602260045260245ffd5b5f60028204905060018216806143a857607f821691505b6020821081036143bb576143ba614364565b5b50919050565b5f6143cb826132cb565b91506143d6836132cb565b92508282019050808211156143ee576143ed614288565b5b92915050565b5f819050815f5260205f209050919050565b5f6020601f8301049050919050565b5f82821b905092915050565b5f600883026144507fffffffffffffffffffffffffffffffffffffffffffffffffffffffffffffffff82614415565b61445a8683614415565b95508019841693508086168417925050509392505050565b5f819050919050565b5f61449561449061448b846132cb565b614472565b6132cb565b9050919050565b5f819050919050565b6144ae8361447b565b6144c26144ba8261449c565b848454614421565b825550505050565b5f90565b6144d66144ca565b6144e18184846144a5565b505050565b5b81811015614504576144f95f826144ce565b6001810190506144e7565b5050565b601f8211156145495761451a816143f4565b61452384614406565b81016020851015614532578190505b61454661453e85614406565b8301826144e6565b50505b505050565b5f82821c905092915050565b5f6145695f198460080261454e565b1980831691505092915050565b5f614581838361455a565b9150826002028217905092915050565b61459a8261354e565b67ffffffffffffffff8111156145b3576145b2613ce9565b5b6145bd8254614391565b6145c8828285614508565b5f60209050601f8311600181146145f9575f84156145e7578287015190505b6145f18582614576565b865550614658565b601f198416614607866143f4565b5f5b8281101561462e57848901518255600182019150602085019450602081019050614609565b8683101561464b5784890151614647601f89168261455a565b8355505b6001600288020188555050505b505050505050565b5f61466a826132cb565b9150614675836132cb565b9250828202614683816132cb565b9150828204841483151761469a57614699614288565b5b5092915050565b7f616d6f756e74206e6f7420656e6f7567680000000000000000000000000000005f82015250565b5f6146d5601183613558565b91506146e0826146a1565b602082019050919050565b5f6020820190508181035f830152614702816146c9565b9050919050565b5f614713826132cb565b915061471e836132cb565b925082820390508181111561473657614735614288565b5b92915050565b7f6e656564207265676973746572206669727374000000000000000000000000005f82015250565b5f614770601383613558565b915061477b8261473c565b602082019050919050565b5f6020820190508181035f83015261479d81614764565b9050919050565b5f815490506147b281614391565b9050919050565b8181036147c757505061489c565b6147d0826147a4565b67ffffffffffffffff8111156147e9576147e8613ce9565b5b6147f38254614391565b6147fe828285614508565b5f601f83116001811461482b575f8415614819578287015490505b6148238582614576565b865550614895565b601f198416614839876143f4565b9650614844866143f4565b5f5b8281101561486b57848901548255600182019150600185019450602081019050614846565b868310156148885784890154614884601f89168261455a565b8355505b6001600288020188555050505b5050505050505b565b7f4f776e61626c653a2063616c6c6572206973206e6f7420746865206f776e65725f82015250565b5f6148d2602083613558565b91506148dd8261489e565b602082019050919050565b5f6020820190508181035f8301526148ff816148c6565b9050919050565b7f63616e27742066696e64206c65617365210000000000000000000000000000005f82015250565b5f61493a601183613558565b915061494582614906565b602082019050919050565b5f6020820190508181035f8301526149678161492e565b9050919050565b7f4e487b71000000000000000000000000000000000000000000000000000000005f52601260045260245ffd5b5f6149a5826132cb565b91506149b0836132cb565b9250826149c0576149bf61496e565b5b828204905092915050565b5f6149d5826132cb565b91506149e0836132cb565b9250826149f0576149ef61496e565b5b828206905092915050565b5f614a05826132cb565b91505f8203614a1757614a16614288565b5b600182039050919050565b7f4f776e61626c653a206e6577206f776e657220697320746865207a65726f20615f8201527f6464726573730000000000000000000000000000000000000000000000000000602082015250565b5f614a7c602683613558565b9150614a8782614a22565b604082019050919050565b5f6020820190508181035f830152614aa981614a70565b9050919050565b7f7374616b6520616d6f756e742068617320616c726561647920756e626c6f636b5f8201527f6564000000000000000000000000000000000000000000000000000000000000602082015250565b5f614b0a602283613558565b9150614b1582614ab0565b604082019050919050565b5f6020820190508181035f830152614b3781614afe565b9050919050565b7f62616c616e6365206e6f7420656e6f7567682120706c65617365207374616b655f82015250565b5f614b72602083613558565b9150614b7d82614b3e565b602082019050919050565b5f6020820190508181035f830152614b9f81614b66565b905091905056fea2646970667358221220a173758a61246c0490be47f1c4e3735d2077c4ec72cc34e233c68ac07c63d77864736f6c63430008150033",
  "immutableReferences": {},
  "source": "// SPDX-License-Identifier: SEE LICENSE IN LICENSE\npragma solidity ^0.8.0;\nimport \"./lease.sol\";\nimport \"./account.sol\";\nimport \"./device.sol\";\n\n// contract Helper is Lease, Device, Provider, Recipient {\ncontract Helper is Billing, AccountFactory {\n\n    function onlineServer(string memory _machineId, string memory _serverInfo, Price memory _price, uint _startTime, uint _endTime) public {\n        \n        uint _stakeAmount = providerStakeCalcute(_startTime, _endTime, _price);\n        onlineBlockedFund(_stakeAmount);\n        uint _deviceId = online(_machineId, _serverInfo, _price);\n        uint _leaseId = onlineLease(msg.sender, _deviceId, _startTime, _endTime);\n        providerOnlineBilling(_leaseId, _stakeAmount);\n    }\n\n    function offlineServer(uint _deviceId) public {\n        offlineDevice(_deviceId);\n        providerLeaseInfo memory _pli = getLeaseByDeviceId(_deviceId);\n        billingInfo memory _bi = getProviderBillingByLeaseId(_pli.leaseId);\n        providerOfflineBilling(_bi.id);\n        offlineUnBlockedFund(_bi.providerBlockedFund);\n    }\n\n    function listDevices(uint _limit, uint _offset) public view returns (deviceInfo [] memory _allDevices){\n        deviceInfo [] memory ds = new deviceInfo[](_limit);\n        uint counter = 0;\n        for (uint i = _offset * _limit; i < devices.length; i++ ) {\n            if (devices[i].status == DeviceStatus.Online || devices[i].status == DeviceStatus.Running ) {\n                if (counter < _limit) {\n                    ds[counter] = devices[i];\n                    counter ++;\n                }\n\n                if  (counter >= _limit * (_offset + 1)) {\n                    return ds;\n                }\n            }\n        }\n        return ds;\n    }\n\n    function listOwnDevices(address _provider, uint _limit, uint _offset) public view returns (deviceInfo [] memory _ownDevices){\n        deviceInfo [] memory ds = new deviceInfo [](_limit);\n        uint counter = 0;\n        for (uint i = _offset * _limit; i < devices.length; i++ ) {\n            if (devices[i].owner == _provider) {\n                if (counter < _limit) {\n                    ds[counter] = devices[i];\n                    counter ++;\n                }\n                if  (counter >= _limit * (_offset + 1)) {\n                    return ds;\n                }\n            }\n        }\n        return ds;\n    }\n\n    function listProviderLease(address _user, uint _limit, uint _offset) public view returns (providerLeaseInfo [] memory, billingInfo[] memory) {\n        _limit = _limit + _offset;\n        _user = _user;\n        return (leaseProvider, providerBillings);\n        // providerLeaseInfo [] memory _ls = new providerLeaseInfo[] (_limit);\n        // uint counter = 0;\n        // for (uint i = 0; i < leaseProvider.length; i++ ) {\n        //     if (leaseProvider[i].owner== _user ) {\n        //         if (counter > _limit * _offset) {\n        //             _ls[counter] = leaseProvider[i];\n        //             counter ++;\n        //         }\n\n        //         if  (counter >= _limit * _offset) {\n        //             return _ls;\n        //         }\n        //     }\n        // }\n        // return _ls;\n    }\n\n    function getOfflineLeaseAndBilling(uint _deviceId) public view returns(providerLeaseInfo memory, billingInfo memory){\n        providerLeaseInfo memory _pli = getLeaseByDeviceId(_deviceId);\n        billingInfo memory b = getProviderBillingByLeaseId(_pli.leaseId);\n        return (_pli, b);\n    }\n\n}",
  "sourcePath": "/Users/irongyi/solidity_project/apus_network_v0/contracts/helper.sol",
  "compiler": {
    "name": "solc",
    "version": "0.8.21+commit.d9974bed.Emscripten.clang"
  },
  "schemaVersion": "3.4.15",
  "updatedAt": "2023-09-06T08:12:56.645Z",
  "networkType": "ethereum",
  "devdoc": {
    "kind": "dev",
    "methods": {
      "owner()": {
        "details": "Returns the address of the current owner."
      },
      "renounceOwnership()": {
        "details": "Leaves the contract without owner. It will not be possible to call `onlyOwner` functions anymore. Can only be called by the current owner. NOTE: Renouncing ownership will leave the contract without an owner, thereby removing any functionality that is only available to the owner."
      },
      "transferOwnership(address)": {
        "details": "Transfers ownership of the contract to a new account (`newOwner`). Can only be called by the current owner."
      }
    },
    "version": 1
  },
  "userdoc": {
    "kind": "user",
    "methods": {},
    "version": 1
  }
}