{
  "contractName": "Helper",
  "abi": [
    {
      "inputs": [
        {
          "internalType": "address",
          "name": "_accountFactoryAddress",
          "type": "address"
        }
      ],
      "stateMutability": "nonpayable",
      "type": "constructor"
    },
    {
      "inputs": [],
      "name": "account_contract",
      "outputs": [
        {
          "internalType": "contract AccountFactory",
          "name": "",
          "type": "address"
        }
      ],
      "stateMutability": "view",
      "type": "function",
      "constant": true
    },
    {
      "inputs": [
        {
          "internalType": "string",
          "name": "a",
          "type": "string"
        },
        {
          "internalType": "string",
          "name": "b",
          "type": "string"
        }
      ],
      "name": "concatenateStrings",
      "outputs": [
        {
          "internalType": "string",
          "name": "",
          "type": "string"
        }
      ],
      "stateMutability": "pure",
      "type": "function",
      "constant": true
    },
    {
      "inputs": [
        {
          "internalType": "uint256",
          "name": "",
          "type": "uint256"
        }
      ],
      "name": "devices",
      "outputs": [
        {
          "internalType": "uint256",
          "name": "id",
          "type": "uint256"
        },
        {
          "internalType": "address",
          "name": "owner",
          "type": "address"
        },
        {
          "internalType": "enum DeviceStatus",
          "name": "status",
          "type": "uint8"
        },
        {
          "internalType": "string",
          "name": "machineId",
          "type": "string"
        },
        {
          "internalType": "string",
          "name": "serverInfo",
          "type": "string"
        },
        {
          "components": [
            {
              "internalType": "uint256",
              "name": "serverPrice",
              "type": "uint256"
            },
            {
              "internalType": "uint256",
              "name": "storagePrice",
              "type": "uint256"
            },
            {
              "internalType": "uint256",
              "name": "upbandWidth",
              "type": "uint256"
            },
            {
              "internalType": "uint256",
              "name": "downbandWidth",
              "type": "uint256"
            }
          ],
          "internalType": "struct Price",
          "name": "price",
          "type": "tuple"
        }
      ],
      "stateMutability": "view",
      "type": "function",
      "constant": true
    },
    {
      "inputs": [
        {
          "internalType": "uint256",
          "name": "_deviceId",
          "type": "uint256"
        }
      ],
      "name": "getDevice",
      "outputs": [
        {
          "components": [
            {
              "internalType": "uint256",
              "name": "id",
              "type": "uint256"
            },
            {
              "internalType": "address",
              "name": "owner",
              "type": "address"
            },
            {
              "internalType": "enum DeviceStatus",
              "name": "status",
              "type": "uint8"
            },
            {
              "internalType": "string",
              "name": "machineId",
              "type": "string"
            },
            {
              "internalType": "string",
              "name": "serverInfo",
              "type": "string"
            },
            {
              "components": [
                {
                  "internalType": "uint256",
                  "name": "serverPrice",
                  "type": "uint256"
                },
                {
                  "internalType": "uint256",
                  "name": "storagePrice",
                  "type": "uint256"
                },
                {
                  "internalType": "uint256",
                  "name": "upbandWidth",
                  "type": "uint256"
                },
                {
                  "internalType": "uint256",
                  "name": "downbandWidth",
                  "type": "uint256"
                }
              ],
              "internalType": "struct Price",
              "name": "price",
              "type": "tuple"
            }
          ],
          "internalType": "struct deviceInfo",
          "name": "",
          "type": "tuple"
        }
      ],
      "stateMutability": "view",
      "type": "function",
      "constant": true
    },
    {
      "inputs": [
        {
          "internalType": "uint256",
          "name": "_deviceId",
          "type": "uint256"
        }
      ],
      "name": "getLeaseByDeviceId",
      "outputs": [
        {
          "components": [
            {
              "internalType": "address",
              "name": "owner",
              "type": "address"
            },
            {
              "internalType": "uint256",
              "name": "leaseId",
              "type": "uint256"
            },
            {
              "internalType": "uint256",
              "name": "startTime",
              "type": "uint256"
            },
            {
              "internalType": "uint256",
              "name": "expireTime",
              "type": "uint256"
            },
            {
              "internalType": "uint256",
              "name": "deviceId",
              "type": "uint256"
            }
          ],
          "internalType": "struct leaseInfo",
          "name": "",
          "type": "tuple"
        }
      ],
      "stateMutability": "view",
      "type": "function",
      "constant": true
    },
    {
      "inputs": [
        {
          "internalType": "uint256",
          "name": "_leaseId",
          "type": "uint256"
        }
      ],
      "name": "getProviderBillingByLeaseId",
      "outputs": [
        {
          "components": [
            {
              "internalType": "address",
              "name": "user",
              "type": "address"
            },
            {
              "internalType": "uint256",
              "name": "id",
              "type": "uint256"
            },
            {
              "internalType": "uint256",
              "name": "leaseId",
              "type": "uint256"
            },
            {
              "internalType": "uint256",
              "name": "providerBlockedFund",
              "type": "uint256"
            },
            {
              "internalType": "uint256",
              "name": "recipientBlockedFunds",
              "type": "uint256"
            },
            {
              "internalType": "uint256",
              "name": "amount",
              "type": "uint256"
            },
            {
              "internalType": "enum billingStatus",
              "name": "status",
              "type": "uint8"
            },
            {
              "internalType": "enum billingType",
              "name": "billType",
              "type": "uint8"
            }
          ],
          "internalType": "struct billingInfo",
          "name": "",
          "type": "tuple"
        }
      ],
      "stateMutability": "view",
      "type": "function",
      "constant": true
    },
    {
      "inputs": [
        {
          "internalType": "uint256",
          "name": "_leaseId",
          "type": "uint256"
        }
      ],
      "name": "getRecipientBillingByLeaseId",
      "outputs": [
        {
          "components": [
            {
              "internalType": "address",
              "name": "user",
              "type": "address"
            },
            {
              "internalType": "uint256",
              "name": "id",
              "type": "uint256"
            },
            {
              "internalType": "uint256",
              "name": "leaseId",
              "type": "uint256"
            },
            {
              "internalType": "uint256",
              "name": "providerBlockedFund",
              "type": "uint256"
            },
            {
              "internalType": "uint256",
              "name": "recipientBlockedFunds",
              "type": "uint256"
            },
            {
              "internalType": "uint256",
              "name": "amount",
              "type": "uint256"
            },
            {
              "internalType": "enum billingStatus",
              "name": "status",
              "type": "uint8"
            },
            {
              "internalType": "enum billingType",
              "name": "billType",
              "type": "uint8"
            }
          ],
          "internalType": "struct billingInfo",
          "name": "",
          "type": "tuple"
        }
      ],
      "stateMutability": "view",
      "type": "function",
      "constant": true
    },
    {
      "inputs": [
        {
          "internalType": "uint256",
          "name": "",
          "type": "uint256"
        }
      ],
      "name": "leaseProvider",
      "outputs": [
        {
          "internalType": "address",
          "name": "owner",
          "type": "address"
        },
        {
          "internalType": "uint256",
          "name": "leaseId",
          "type": "uint256"
        },
        {
          "internalType": "uint256",
          "name": "startTime",
          "type": "uint256"
        },
        {
          "internalType": "uint256",
          "name": "expireTime",
          "type": "uint256"
        },
        {
          "internalType": "uint256",
          "name": "deviceId",
          "type": "uint256"
        }
      ],
      "stateMutability": "view",
      "type": "function",
      "constant": true
    },
    {
      "inputs": [
        {
          "internalType": "uint256",
          "name": "",
          "type": "uint256"
        }
      ],
      "name": "leaseRecipient",
      "outputs": [
        {
          "internalType": "address",
          "name": "owner",
          "type": "address"
        },
        {
          "internalType": "uint256",
          "name": "leaseId",
          "type": "uint256"
        },
        {
          "internalType": "uint256",
          "name": "startTime",
          "type": "uint256"
        },
        {
          "internalType": "uint256",
          "name": "expireTime",
          "type": "uint256"
        },
        {
          "internalType": "uint256",
          "name": "deviceId",
          "type": "uint256"
        }
      ],
      "stateMutability": "view",
      "type": "function",
      "constant": true
    },
    {
      "inputs": [],
      "name": "platformSharingRatio",
      "outputs": [
        {
          "internalType": "uint8",
          "name": "",
          "type": "uint8"
        }
      ],
      "stateMutability": "view",
      "type": "function",
      "constant": true
    },
    {
      "inputs": [
        {
          "internalType": "uint256",
          "name": "",
          "type": "uint256"
        }
      ],
      "name": "providerBillings",
      "outputs": [
        {
          "internalType": "address",
          "name": "user",
          "type": "address"
        },
        {
          "internalType": "uint256",
          "name": "id",
          "type": "uint256"
        },
        {
          "internalType": "uint256",
          "name": "leaseId",
          "type": "uint256"
        },
        {
          "internalType": "uint256",
          "name": "providerBlockedFund",
          "type": "uint256"
        },
        {
          "internalType": "uint256",
          "name": "recipientBlockedFunds",
          "type": "uint256"
        },
        {
          "internalType": "uint256",
          "name": "amount",
          "type": "uint256"
        },
        {
          "internalType": "enum billingStatus",
          "name": "status",
          "type": "uint8"
        },
        {
          "internalType": "enum billingType",
          "name": "billType",
          "type": "uint8"
        }
      ],
      "stateMutability": "view",
      "type": "function",
      "constant": true
    },
    {
      "inputs": [
        {
          "internalType": "uint256",
          "name": "_startTime",
          "type": "uint256"
        },
        {
          "internalType": "uint256",
          "name": "_endTime",
          "type": "uint256"
        },
        {
          "components": [
            {
              "internalType": "uint256",
              "name": "serverPrice",
              "type": "uint256"
            },
            {
              "internalType": "uint256",
              "name": "storagePrice",
              "type": "uint256"
            },
            {
              "internalType": "uint256",
              "name": "upbandWidth",
              "type": "uint256"
            },
            {
              "internalType": "uint256",
              "name": "downbandWidth",
              "type": "uint256"
            }
          ],
          "internalType": "struct Price",
          "name": "_price",
          "type": "tuple"
        }
      ],
      "name": "providerStakeCalcute",
      "outputs": [
        {
          "internalType": "uint256",
          "name": "",
          "type": "uint256"
        }
      ],
      "stateMutability": "pure",
      "type": "function",
      "constant": true
    },
    {
      "inputs": [
        {
          "internalType": "uint256",
          "name": "",
          "type": "uint256"
        }
      ],
      "name": "recipientBillings",
      "outputs": [
        {
          "internalType": "address",
          "name": "user",
          "type": "address"
        },
        {
          "internalType": "uint256",
          "name": "id",
          "type": "uint256"
        },
        {
          "internalType": "uint256",
          "name": "leaseId",
          "type": "uint256"
        },
        {
          "internalType": "uint256",
          "name": "providerBlockedFund",
          "type": "uint256"
        },
        {
          "internalType": "uint256",
          "name": "recipientBlockedFunds",
          "type": "uint256"
        },
        {
          "internalType": "uint256",
          "name": "amount",
          "type": "uint256"
        },
        {
          "internalType": "enum billingStatus",
          "name": "status",
          "type": "uint8"
        },
        {
          "internalType": "enum billingType",
          "name": "billType",
          "type": "uint8"
        }
      ],
      "stateMutability": "view",
      "type": "function",
      "constant": true
    },
    {
      "inputs": [
        {
          "internalType": "uint256",
          "name": "_startTime",
          "type": "uint256"
        },
        {
          "internalType": "uint256",
          "name": "_endTime",
          "type": "uint256"
        },
        {
          "components": [
            {
              "internalType": "uint256",
              "name": "serverPrice",
              "type": "uint256"
            },
            {
              "internalType": "uint256",
              "name": "storagePrice",
              "type": "uint256"
            },
            {
              "internalType": "uint256",
              "name": "upbandWidth",
              "type": "uint256"
            },
            {
              "internalType": "uint256",
              "name": "downbandWidth",
              "type": "uint256"
            }
          ],
          "internalType": "struct Price",
          "name": "_price",
          "type": "tuple"
        }
      ],
      "name": "recipientStakeCalcute",
      "outputs": [
        {
          "internalType": "uint256",
          "name": "",
          "type": "uint256"
        }
      ],
      "stateMutability": "pure",
      "type": "function",
      "constant": true
    },
    {
      "inputs": [
        {
          "internalType": "uint256",
          "name": "_leaseId",
          "type": "uint256"
        }
      ],
      "name": "terminateLease",
      "outputs": [
        {
          "components": [
            {
              "internalType": "address",
              "name": "owner",
              "type": "address"
            },
            {
              "internalType": "uint256",
              "name": "leaseId",
              "type": "uint256"
            },
            {
              "internalType": "uint256",
              "name": "startTime",
              "type": "uint256"
            },
            {
              "internalType": "uint256",
              "name": "expireTime",
              "type": "uint256"
            },
            {
              "internalType": "uint256",
              "name": "deviceId",
              "type": "uint256"
            }
          ],
          "internalType": "struct leaseInfo",
          "name": "",
          "type": "tuple"
        }
      ],
      "stateMutability": "nonpayable",
      "type": "function"
    },
    {
      "inputs": [
        {
          "internalType": "uint256",
          "name": "number",
          "type": "uint256"
        }
      ],
      "name": "uintToString",
      "outputs": [
        {
          "internalType": "string",
          "name": "",
          "type": "string"
        }
      ],
      "stateMutability": "pure",
      "type": "function",
      "constant": true
    },
    {
      "inputs": [
        {
          "internalType": "uint256",
          "name": "_deviceId",
          "type": "uint256"
        },
        {
          "internalType": "uint256",
          "name": "_endTime",
          "type": "uint256"
        }
      ],
      "name": "rentServer",
      "outputs": [],
      "stateMutability": "nonpayable",
      "type": "function"
    },
    {
      "inputs": [
        {
          "internalType": "uint256",
          "name": "_leaseId",
          "type": "uint256"
        },
        {
          "internalType": "uint256",
          "name": "_endTime",
          "type": "uint256"
        }
      ],
      "name": "RenewalLeaseServer",
      "outputs": [],
      "stateMutability": "nonpayable",
      "type": "function"
    },
    {
      "inputs": [
        {
          "internalType": "uint256",
          "name": "_leaseId",
          "type": "uint256"
        }
      ],
      "name": "terminateInstance",
      "outputs": [],
      "stateMutability": "nonpayable",
      "type": "function"
    },
    {
      "inputs": [
        {
          "internalType": "string",
          "name": "_machineId",
          "type": "string"
        },
        {
          "internalType": "string",
          "name": "_serverInfo",
          "type": "string"
        },
        {
          "components": [
            {
              "internalType": "uint256",
              "name": "serverPrice",
              "type": "uint256"
            },
            {
              "internalType": "uint256",
              "name": "storagePrice",
              "type": "uint256"
            },
            {
              "internalType": "uint256",
              "name": "upbandWidth",
              "type": "uint256"
            },
            {
              "internalType": "uint256",
              "name": "downbandWidth",
              "type": "uint256"
            }
          ],
          "internalType": "struct Price",
          "name": "_price",
          "type": "tuple"
        },
        {
          "internalType": "uint256",
          "name": "_startTime",
          "type": "uint256"
        },
        {
          "internalType": "uint256",
          "name": "_endTime",
          "type": "uint256"
        }
      ],
      "name": "onlineServer",
      "outputs": [],
      "stateMutability": "nonpayable",
      "type": "function"
    },
    {
      "inputs": [
        {
          "internalType": "uint256",
          "name": "_deviceId",
          "type": "uint256"
        }
      ],
      "name": "offlineServer",
      "outputs": [],
      "stateMutability": "nonpayable",
      "type": "function"
    },
    {
      "inputs": [
        {
          "internalType": "uint256",
          "name": "_limit",
          "type": "uint256"
        },
        {
          "internalType": "uint256",
          "name": "_offset",
          "type": "uint256"
        }
      ],
      "name": "listDevices",
      "outputs": [
        {
          "components": [
            {
              "internalType": "uint256",
              "name": "id",
              "type": "uint256"
            },
            {
              "internalType": "address",
              "name": "owner",
              "type": "address"
            },
            {
              "internalType": "enum DeviceStatus",
              "name": "status",
              "type": "uint8"
            },
            {
              "internalType": "string",
              "name": "machineId",
              "type": "string"
            },
            {
              "internalType": "string",
              "name": "serverInfo",
              "type": "string"
            },
            {
              "components": [
                {
                  "internalType": "uint256",
                  "name": "serverPrice",
                  "type": "uint256"
                },
                {
                  "internalType": "uint256",
                  "name": "storagePrice",
                  "type": "uint256"
                },
                {
                  "internalType": "uint256",
                  "name": "upbandWidth",
                  "type": "uint256"
                },
                {
                  "internalType": "uint256",
                  "name": "downbandWidth",
                  "type": "uint256"
                }
              ],
              "internalType": "struct Price",
              "name": "price",
              "type": "tuple"
            }
          ],
          "internalType": "struct deviceInfo[]",
          "name": "_allDevices",
          "type": "tuple[]"
        }
      ],
      "stateMutability": "view",
      "type": "function",
      "constant": true
    },
    {
      "inputs": [
        {
          "internalType": "address",
          "name": "_provider",
          "type": "address"
        },
        {
          "internalType": "uint256",
          "name": "_limit",
          "type": "uint256"
        },
        {
          "internalType": "uint256",
          "name": "_offset",
          "type": "uint256"
        }
      ],
      "name": "listOwnDevices",
      "outputs": [
        {
          "components": [
            {
              "internalType": "uint256",
              "name": "id",
              "type": "uint256"
            },
            {
              "internalType": "address",
              "name": "owner",
              "type": "address"
            },
            {
              "internalType": "enum DeviceStatus",
              "name": "status",
              "type": "uint8"
            },
            {
              "internalType": "string",
              "name": "machineId",
              "type": "string"
            },
            {
              "internalType": "string",
              "name": "serverInfo",
              "type": "string"
            },
            {
              "components": [
                {
                  "internalType": "uint256",
                  "name": "serverPrice",
                  "type": "uint256"
                },
                {
                  "internalType": "uint256",
                  "name": "storagePrice",
                  "type": "uint256"
                },
                {
                  "internalType": "uint256",
                  "name": "upbandWidth",
                  "type": "uint256"
                },
                {
                  "internalType": "uint256",
                  "name": "downbandWidth",
                  "type": "uint256"
                }
              ],
              "internalType": "struct Price",
              "name": "price",
              "type": "tuple"
            }
          ],
          "internalType": "struct deviceInfo[]",
          "name": "_ownDevices",
          "type": "tuple[]"
        }
      ],
      "stateMutability": "view",
      "type": "function",
      "constant": true
    },
    {
      "inputs": [
        {
          "internalType": "address",
          "name": "_user",
          "type": "address"
        },
        {
          "internalType": "uint256",
          "name": "_limit",
          "type": "uint256"
        },
        {
          "internalType": "uint256",
          "name": "_offset",
          "type": "uint256"
        }
      ],
      "name": "listProviderLease",
      "outputs": [
        {
          "components": [
            {
              "internalType": "address",
              "name": "owner",
              "type": "address"
            },
            {
              "internalType": "uint256",
              "name": "leaseId",
              "type": "uint256"
            },
            {
              "internalType": "uint256",
              "name": "startTime",
              "type": "uint256"
            },
            {
              "internalType": "uint256",
              "name": "expireTime",
              "type": "uint256"
            },
            {
              "internalType": "uint256",
              "name": "deviceId",
              "type": "uint256"
            }
          ],
          "internalType": "struct leaseInfo[]",
          "name": "",
          "type": "tuple[]"
        },
        {
          "components": [
            {
              "internalType": "address",
              "name": "user",
              "type": "address"
            },
            {
              "internalType": "uint256",
              "name": "id",
              "type": "uint256"
            },
            {
              "internalType": "uint256",
              "name": "leaseId",
              "type": "uint256"
            },
            {
              "internalType": "uint256",
              "name": "providerBlockedFund",
              "type": "uint256"
            },
            {
              "internalType": "uint256",
              "name": "recipientBlockedFunds",
              "type": "uint256"
            },
            {
              "internalType": "uint256",
              "name": "amount",
              "type": "uint256"
            },
            {
              "internalType": "enum billingStatus",
              "name": "status",
              "type": "uint8"
            },
            {
              "internalType": "enum billingType",
              "name": "billType",
              "type": "uint8"
            }
          ],
          "internalType": "struct billingInfo[]",
          "name": "",
          "type": "tuple[]"
        }
      ],
      "stateMutability": "view",
      "type": "function",
      "constant": true
    },
    {
      "inputs": [
        {
          "internalType": "uint256",
          "name": "_deviceId",
          "type": "uint256"
        }
      ],
      "name": "getOfflineLeaseAndBilling",
      "outputs": [
        {
          "components": [
            {
              "internalType": "address",
              "name": "owner",
              "type": "address"
            },
            {
              "internalType": "uint256",
              "name": "leaseId",
              "type": "uint256"
            },
            {
              "internalType": "uint256",
              "name": "startTime",
              "type": "uint256"
            },
            {
              "internalType": "uint256",
              "name": "expireTime",
              "type": "uint256"
            },
            {
              "internalType": "uint256",
              "name": "deviceId",
              "type": "uint256"
            }
          ],
          "internalType": "struct leaseInfo",
          "name": "",
          "type": "tuple"
        },
        {
          "components": [
            {
              "internalType": "address",
              "name": "user",
              "type": "address"
            },
            {
              "internalType": "uint256",
              "name": "id",
              "type": "uint256"
            },
            {
              "internalType": "uint256",
              "name": "leaseId",
              "type": "uint256"
            },
            {
              "internalType": "uint256",
              "name": "providerBlockedFund",
              "type": "uint256"
            },
            {
              "internalType": "uint256",
              "name": "recipientBlockedFunds",
              "type": "uint256"
            },
            {
              "internalType": "uint256",
              "name": "amount",
              "type": "uint256"
            },
            {
              "internalType": "enum billingStatus",
              "name": "status",
              "type": "uint8"
            },
            {
              "internalType": "enum billingType",
              "name": "billType",
              "type": "uint8"
            }
          ],
          "internalType": "struct billingInfo",
          "name": "",
          "type": "tuple"
        }
      ],
      "stateMutability": "view",
      "type": "function",
      "constant": true
    },
    {
      "inputs": [],
      "name": "getRecipientLease",
      "outputs": [
        {
          "components": [
            {
              "internalType": "address",
              "name": "user",
              "type": "address"
            },
            {
              "internalType": "uint256",
              "name": "id",
              "type": "uint256"
            },
            {
              "internalType": "uint256",
              "name": "leaseId",
              "type": "uint256"
            },
            {
              "internalType": "uint256",
              "name": "providerBlockedFund",
              "type": "uint256"
            },
            {
              "internalType": "uint256",
              "name": "recipientBlockedFunds",
              "type": "uint256"
            },
            {
              "internalType": "uint256",
              "name": "amount",
              "type": "uint256"
            },
            {
              "internalType": "enum billingStatus",
              "name": "status",
              "type": "uint8"
            },
            {
              "internalType": "enum billingType",
              "name": "billType",
              "type": "uint8"
            }
          ],
          "internalType": "struct billingInfo[]",
          "name": "",
          "type": "tuple[]"
        }
      ],
      "stateMutability": "nonpayable",
      "type": "function"
    }
  ],
  "bytecode": "0x60806040525f80555f6002555f6003555f60045f6101000a81548160ff021916908360ff1602179055505f6007555f6008553480156200003d575f80fd5b5060405162004b1238038062004b1283398181016040528101906200006391906200010f565b80600b5f6101000a81548173ffffffffffffffffffffffffffffffffffffffff021916908373ffffffffffffffffffffffffffffffffffffffff160217905550506200013f565b5f80fd5b5f73ffffffffffffffffffffffffffffffffffffffff82169050919050565b5f620000d982620000ae565b9050919050565b620000eb81620000cd565b8114620000f6575f80fd5b50565b5f815190506200010981620000e0565b92915050565b5f60208284031215620001275762000126620000aa565b5b5f6200013684828501620000f9565b91505092915050565b6149c5806200014d5f395ff3fe608060405234801561000f575f80fd5b506004361061018c575f3560e01c806372f002d4116100dc578063b7c9175311610095578063d67b9afd1161006f578063d67b9afd1461052c578063dee4006f1461055c578063e939567914610593578063ff459ec6146105c35761018c565b8063b7c91753146104bc578063c46dcec5146104da578063c74ce95c1461050e5761018c565b806372f002d4146103c357806375599124146103df5780637a36b3ee146103fb578063970c813f1461042b578063a3a4aff41461045c578063aca8d5b41461048c5761018c565b8063116ac5ef116101495780633196e617116101235780633196e61714610324578063588e00a5146103405780635f41fa0e146103705780636020948e1461038c5761018c565b8063116ac5ef1461028f57806311b800eb146102c05780632b90c592146102f45761018c565b806309f110b1146101905780630a264066146101c05780630b92426d146101dc5780630f35ceb71461020c578063101a76cd1461023c57806310ff8e311461025a575b5f80fd5b6101aa60048036038101906101a5919061328d565b6105f3565b6040516101b791906134e4565b60405180910390f35b6101da60048036038101906101d59190613504565b61086e565b005b6101f660048036038101906101f19190613633565b61094e565b6040516102039190613692565b60405180910390f35b6102266004803603810190610221919061328d565b610972565b60405161023391906137d7565b60405180910390f35b610244610b36565b604051610251919061384c565b60405180910390f35b610274600480360381019061026f919061328d565b610b5b565b6040516102869695949392919061391e565b60405180910390f35b6102a960048036038101906102a491906139b6565b610d0b565b6040516102b7929190613c5d565b60405180910390f35b6102da60048036038101906102d5919061328d565b610f50565b6040516102eb959493929190613c92565b60405180910390f35b61030e60048036038101906103099190613504565b610fb0565b60405161031b9190613e2c565b60405180910390f35b61033e6004803603810190610339919061328d565b611381565b005b61035a6004803603810190610355919061328d565b611445565b6040516103679190613eb2565b60405180910390f35b61038a60048036038101906103859190613f7f565b61153b565b005b6103a660048036038101906103a1919061328d565b611603565b6040516103ba98979695949392919061404d565b60405180910390f35b6103dd60048036038101906103d8919061328d565b61168e565b005b6103f960048036038101906103f49190613504565b611787565b005b610415600480360381019061041091906140c9565b61185d565b604051610422919061413f565b60405180910390f35b6104456004803603810190610440919061328d565b6119e6565b60405161045392919061415f565b60405180910390f35b61047660048036038101906104719190613633565b611a1f565b6040516104839190613692565b60405180910390f35b6104a660048036038101906104a1919061328d565b611a71565b6040516104b391906137d7565b60405180910390f35b6104c4611c35565b6040516104d19190614187565b60405180910390f35b6104f460048036038101906104ef919061328d565b611d8d565b604051610505959493929190613c92565b60405180910390f35b610516611ded565b60405161052391906141c2565b60405180910390f35b6105466004803603810190610541919061328d565b611dff565b6040516105539190613eb2565b60405180910390f35b6105766004803603810190610571919061328d565b611f57565b60405161058a98979695949392919061404d565b60405180910390f35b6105ad60048036038101906105a8919061328d565b611fe2565b6040516105ba919061413f565b60405180910390f35b6105dd60048036038101906105d891906139b6565b612149565b6040516105ea9190613e2c565b60405180910390f35b6105fb61310d565b5f821161063d576040517f08c379a000000000000000000000000000000000000000000000000000000000815260040161063490614225565b60405180910390fd5b6001808361064b9190614270565b8154811061065c5761065b6142a3565b5b905f5260205f2090600802016040518060c00160405290815f8201548152602001600182015f9054906101000a900473ffffffffffffffffffffffffffffffffffffffff1673ffffffffffffffffffffffffffffffffffffffff1673ffffffffffffffffffffffffffffffffffffffff1681526020016001820160149054906101000a900460ff1660038111156106f6576106f5613306565b5b600381111561070857610707613306565b5b815260200160028201805461071c906142fd565b80601f0160208091040260200160405190810160405280929190818152602001828054610748906142fd565b80156107935780601f1061076a57610100808354040283529160200191610793565b820191905f5260205f20905b81548152906001019060200180831161077657829003601f168201915b505050505081526020016003820180546107ac906142fd565b80601f01602080910402602001604051908101604052809291908181526020018280546107d8906142fd565b80156108235780601f106107fa57610100808354040283529160200191610823565b820191905f5260205f20905b81548152906001019060200180831161080657829003601f168201915b50505050508152602001600482016040518060800160405290815f82015481526020016001820154815260200160028201548152602001600382015481525050815250509050919050565b5f61087983836124d4565b90505f61088982608001516105f3565b90505f61089f8360400151858460a0015161094e565b90505f6108ab86611a71565b90506108bb8160200151836125cb565b9150600b5f9054906101000a900473ffffffffffffffffffffffffffffffffffffffff1673ffffffffffffffffffffffffffffffffffffffff1663c7f997d233846040518363ffffffff1660e01b815260040161091992919061432d565b5f604051808303815f87803b158015610930575f80fd5b505af1158015610942573d5f803e3d5ffd5b50505050505050505050565b5f838361095b9190614270565b825f01516109699190614354565b90509392505050565b61097a61316e565b5f5b600980549050811015610af557826009828154811061099e5761099d6142a3565b5b905f5260205f2090600702016002015403610ae257600981815481106109c7576109c66142a3565b5b905f5260205f209060070201604051806101000160405290815f82015f9054906101000a900473ffffffffffffffffffffffffffffffffffffffff1673ffffffffffffffffffffffffffffffffffffffff1673ffffffffffffffffffffffffffffffffffffffff1681526020016001820154815260200160028201548152602001600382015481526020016004820154815260200160058201548152602001600682015f9054906101000a900460ff166002811115610a8957610a88613306565b5b6002811115610a9b57610a9a613306565b5b81526020016006820160019054906101000a900460ff166002811115610ac457610ac3613306565b5b6002811115610ad657610ad5613306565b5b81525050915050610b31565b8080610aed90614395565b91505061097c565b506040517f08c379a0000000000000000000000000000000000000000000000000000000008152600401610b2890614426565b60405180910390fd5b919050565b600b5f9054906101000a900473ffffffffffffffffffffffffffffffffffffffff1681565b60018181548110610b6a575f80fd5b905f5260205f2090600802015f91509050805f015490806001015f9054906101000a900473ffffffffffffffffffffffffffffffffffffffff16908060010160149054906101000a900460ff1690806002018054610bc7906142fd565b80601f0160208091040260200160405190810160405280929190818152602001828054610bf3906142fd565b8015610c3e5780601f10610c1557610100808354040283529160200191610c3e565b820191905f5260205f20905b815481529060010190602001808311610c2157829003601f168201915b505050505090806003018054610c53906142fd565b80601f0160208091040260200160405190810160405280929190818152602001828054610c7f906142fd565b8015610cca5780601f10610ca157610100808354040283529160200191610cca565b820191905f5260205f20905b815481529060010190602001808311610cad57829003601f168201915b505050505090806004016040518060800160405290815f82015481526020016001820154815260200160028201548152602001600382015481525050905086565b6060808284610d1a9190614444565b93506005600981805480602002602001604051908101604052809291908181526020015f905b82821015610dec578382905f5260205f2090600502016040518060a00160405290815f82015f9054906101000a900473ffffffffffffffffffffffffffffffffffffffff1673ffffffffffffffffffffffffffffffffffffffff1673ffffffffffffffffffffffffffffffffffffffff16815260200160018201548152602001600282015481526020016003820154815260200160048201548152505081526020019060010190610d40565b50505050915080805480602002602001604051908101604052809291908181526020015f905b82821015610f3e578382905f5260205f209060070201604051806101000160405290815f82015f9054906101000a900473ffffffffffffffffffffffffffffffffffffffff1673ffffffffffffffffffffffffffffffffffffffff1673ffffffffffffffffffffffffffffffffffffffff1681526020016001820154815260200160028201548152602001600382015481526020016004820154815260200160058201548152602001600682015f9054906101000a900460ff166002811115610ede57610edd613306565b5b6002811115610ef057610eef613306565b5b81526020016006820160019054906101000a900460ff166002811115610f1957610f18613306565b5b6002811115610f2b57610f2a613306565b5b8152505081526020019060010190610e12565b50505050905091509150935093915050565b60068181548110610f5f575f80fd5b905f5260205f2090600502015f91509050805f015f9054906101000a900473ffffffffffffffffffffffffffffffffffffffff16908060010154908060020154908060030154908060040154905085565b60605f8367ffffffffffffffff811115610fcd57610fcc613546565b5b60405190808252806020026020018201604052801561100657816020015b610ff361310d565b815260200190600190039081610feb5790505b5090505f8085856110179190614354565b90505b600180549050811015611374576001600381111561103b5761103a613306565b5b6001828154811061104f5761104e6142a3565b5b905f5260205f20906008020160010160149054906101000a900460ff16600381111561107e5761107d613306565b5b14806110de57506002600381111561109957611098613306565b5b600182815481106110ad576110ac6142a3565b5b905f5260205f20906008020160010160149054906101000a900460ff1660038111156110dc576110db613306565b5b145b15611361578582101561133757600181815481106110ff576110fe6142a3565b5b905f5260205f2090600802016040518060c00160405290815f8201548152602001600182015f9054906101000a900473ffffffffffffffffffffffffffffffffffffffff1673ffffffffffffffffffffffffffffffffffffffff1673ffffffffffffffffffffffffffffffffffffffff1681526020016001820160149054906101000a900460ff16600381111561119957611198613306565b5b60038111156111ab576111aa613306565b5b81526020016002820180546111bf906142fd565b80601f01602080910402602001604051908101604052809291908181526020018280546111eb906142fd565b80156112365780601f1061120d57610100808354040283529160200191611236565b820191905f5260205f20905b81548152906001019060200180831161121957829003601f168201915b5050505050815260200160038201805461124f906142fd565b80601f016020809104026020016040519081016040528092919081815260200182805461127b906142fd565b80156112c65780601f1061129d576101008083540402835291602001916112c6565b820191905f5260205f20905b8154815290600101906020018083116112a957829003601f168201915b50505050508152602001600482016040518060800160405290815f820154815260200160018201548152602001600282015481526020016003820154815250508152505083838151811061131d5761131c6142a3565b5b6020026020010181905250818061133390614395565b9250505b6001856113449190614444565b8661134f9190614354565b82106113605782935050505061137b565b5b808061136c90614395565b91505061101a565b5081925050505b92915050565b61138a8161265d565b5f61139482611dff565b90505f6113a48260200151610972565b90506113b38160200151612759565b600b5f9054906101000a900473ffffffffffffffffffffffffffffffffffffffff1673ffffffffffffffffffffffffffffffffffffffff1663b6f997813383606001516040518363ffffffff1660e01b815260040161141392919061432d565b5f604051808303815f87803b15801561142a575f80fd5b505af115801561143c573d5f803e3d5ffd5b50505050505050565b61144d6131e5565b42600660018461145d9190614270565b8154811061146e5761146d6142a3565b5b905f5260205f2090600502016003018190555060066001836114909190614270565b815481106114a1576114a06142a3565b5b905f5260205f2090600502016040518060a00160405290815f82015f9054906101000a900473ffffffffffffffffffffffffffffffffffffffff1673ffffffffffffffffffffffffffffffffffffffff1673ffffffffffffffffffffffffffffffffffffffff1681526020016001820154815260200160028201548152602001600382015481526020016004820154815250509050919050565b5f611547838386611a1f565b9050600b5f9054906101000a900473ffffffffffffffffffffffffffffffffffffffff1673ffffffffffffffffffffffffffffffffffffffff1663183bed6633836040518363ffffffff1660e01b81526004016115a592919061432d565b5f604051808303815f87803b1580156115bc575f80fd5b505af11580156115ce573d5f803e3d5ffd5b505050505f6115de878787612855565b90505f6115ed338387876129d5565b90506115f98184612acd565b5050505050505050565b60098181548110611612575f80fd5b905f5260205f2090600702015f91509050805f015f9054906101000a900473ffffffffffffffffffffffffffffffffffffffff1690806001015490806002015490806003015490806004015490806005015490806006015f9054906101000a900460ff16908060060160019054906101000a900460ff16905088565b5f61169882611445565b90506116a78160800151612c5b565b5f6116b582608001516105f3565b90505f6116cf836040015184606001518460a0015161094e565b90505f6116db85611a71565b90505f6116ec826020015184612cb5565b9050600b5f9054906101000a900473ffffffffffffffffffffffffffffffffffffffff1673ffffffffffffffffffffffffffffffffffffffff16633e185b9e33866020015186856040518563ffffffff1660e01b81526004016117529493929190614477565b5f604051808303815f87803b158015611769575f80fd5b505af115801561177b573d5f803e3d5ffd5b50505050505050505050565b5f4290505f611795846105f3565b90506117a084612d89565b5f6117ac858486612e85565b90505f6117be84868560a0015161094e565b90506117cb82600a612f7e565b600b5f9054906101000a900473ffffffffffffffffffffffffffffffffffffffff1673ffffffffffffffffffffffffffffffffffffffff1663c7f997d233600a6040518363ffffffff1660e01b81526004016118289291906144f3565b5f604051808303815f87803b15801561183f575f80fd5b505af1158015611851573d5f803e3d5ffd5b50505050505050505050565b60605f8390505f8390505f815183516118769190614444565b67ffffffffffffffff81111561188f5761188e613546565b5b6040519080825280601f01601f1916602001820160405280156118c15781602001600182028036833780820191505090505b5090505f805b845181101561194e578481815181106118e3576118e26142a3565b5b602001015160f81c60f81b8383806118fa90614395565b94508151811061190d5761190c6142a3565b5b60200101907effffffffffffffffffffffffffffffffffffffffffffffffffffffffffffff191690815f1a905350808061194690614395565b9150506118c7565b505f5b83518110156119d85783818151811061196d5761196c6142a3565b5b602001015160f81c60f81b83838061198490614395565b945081518110611997576119966142a3565b5b60200101907effffffffffffffffffffffffffffffffffffffffffffffffffffffffffffff191690815f1a90535080806119d090614395565b915050611951565b508194505050505092915050565b6119ee6131e5565b6119f661316e565b5f611a0084611dff565b90505f611a108260200151610972565b90508181935093505050915091565b5f610e108484611a2f9190614270565b1115611a4d57610e10825f0151611a469190614354565b9050611a6a565b8383611a599190614270565b825f0151611a679190614354565b90505b9392505050565b611a7961316e565b5f5b600a80549050811015611bf45782600a8281548110611a9d57611a9c6142a3565b5b905f5260205f2090600702016002015403611be15760098181548110611ac657611ac56142a3565b5b905f5260205f209060070201604051806101000160405290815f82015f9054906101000a900473ffffffffffffffffffffffffffffffffffffffff1673ffffffffffffffffffffffffffffffffffffffff1673ffffffffffffffffffffffffffffffffffffffff1681526020016001820154815260200160028201548152602001600382015481526020016004820154815260200160058201548152602001600682015f9054906101000a900460ff166002811115611b8857611b87613306565b5b6002811115611b9a57611b99613306565b5b81526020016006820160019054906101000a900460ff166002811115611bc357611bc2613306565b5b6002811115611bd557611bd4613306565b5b81525050915050611c30565b8080611bec90614395565b915050611a7b565b506040517f08c379a0000000000000000000000000000000000000000000000000000000008152600401611c2790614426565b60405180910390fd5b919050565b6060600a805480602002602001604051908101604052809291908181526020015f905b82821015611d84578382905f5260205f209060070201604051806101000160405290815f82015f9054906101000a900473ffffffffffffffffffffffffffffffffffffffff1673ffffffffffffffffffffffffffffffffffffffff1673ffffffffffffffffffffffffffffffffffffffff1681526020016001820154815260200160028201548152602001600382015481526020016004820154815260200160058201548152602001600682015f9054906101000a900460ff166002811115611d2457611d23613306565b5b6002811115611d3657611d35613306565b5b81526020016006820160019054906101000a900460ff166002811115611d5f57611d5e613306565b5b6002811115611d7157611d70613306565b5b8152505081526020019060010190611c58565b50505050905090565b60058181548110611d9c575f80fd5b905f5260205f2090600502015f91509050805f015f9054906101000a900473ffffffffffffffffffffffffffffffffffffffff16908060010154908060020154908060030154908060040154905085565b60045f9054906101000a900460ff1681565b611e076131e5565b5f6001600580549050611e1a9190614270565b90505b600580549050811015611f16578260058281548110611e3f57611e3e6142a3565b5b905f5260205f2090600502016004015403611f035760058181548110611e6857611e676142a3565b5b905f5260205f2090600502016040518060a00160405290815f82015f9054906101000a900473ffffffffffffffffffffffffffffffffffffffff1673ffffffffffffffffffffffffffffffffffffffff1673ffffffffffffffffffffffffffffffffffffffff168152602001600182015481526020016002820154815260200160038201548152602001600482015481525050915050611f52565b8080611f0e9061451a565b915050611e1d565b506040517f08c379a0000000000000000000000000000000000000000000000000000000008152600401611f499061458b565b60405180910390fd5b919050565b600a8181548110611f66575f80fd5b905f5260205f2090600702015f91509050805f015f9054906101000a900473ffffffffffffffffffffffffffffffffffffffff1690806001015490806002015490806003015490806004015490806005015490806006015f9054906101000a900460ff16908060060160019054906101000a900460ff16905088565b60605f8203612028576040518060400160405280600181526020017f30000000000000000000000000000000000000000000000000000000000000008152509050612144565b5f8290505f5b5f821461205757808061204090614395565b915050600a8261205091906145d6565b915061202e565b5f8167ffffffffffffffff81111561207257612071613546565b5b6040519080825280601f01601f1916602001820160405280156120a45781602001600182028036833780820191505090505b5090505f6001836120b59190614270565b90505b5f861461213c57600a866120cc9190614606565b60306120d89190614444565b60f81b8282806120e79061451a565b9350815181106120fa576120f96142a3565b5b60200101907effffffffffffffffffffffffffffffffffffffffffffffffffffffffffffff191690815f1a905350600a8661213591906145d6565b95506120b8565b819450505050505b919050565b60605f8367ffffffffffffffff81111561216657612165613546565b5b60405190808252806020026020018201604052801561219f57816020015b61218c61310d565b8152602001906001900390816121845790505b5090505f8085856121b09190614354565b90505b6001805490508110156124c6578673ffffffffffffffffffffffffffffffffffffffff16600182815481106121eb576121ea6142a3565b5b905f5260205f2090600802016001015f9054906101000a900473ffffffffffffffffffffffffffffffffffffffff1673ffffffffffffffffffffffffffffffffffffffff16036124b357858210156124895760018181548110612251576122506142a3565b5b905f5260205f2090600802016040518060c00160405290815f8201548152602001600182015f9054906101000a900473ffffffffffffffffffffffffffffffffffffffff1673ffffffffffffffffffffffffffffffffffffffff1673ffffffffffffffffffffffffffffffffffffffff1681526020016001820160149054906101000a900460ff1660038111156122eb576122ea613306565b5b60038111156122fd576122fc613306565b5b8152602001600282018054612311906142fd565b80601f016020809104026020016040519081016040528092919081815260200182805461233d906142fd565b80156123885780601f1061235f57610100808354040283529160200191612388565b820191905f5260205f20905b81548152906001019060200180831161236b57829003601f168201915b505050505081526020016003820180546123a1906142fd565b80601f01602080910402602001604051908101604052809291908181526020018280546123cd906142fd565b80156124185780601f106123ef57610100808354040283529160200191612418565b820191905f5260205f20905b8154815290600101906020018083116123fb57829003601f168201915b50505050508152602001600482016040518060800160405290815f820154815260200160018201548152602001600282015481526020016003820154815250508152505083838151811061246f5761246e6142a3565b5b6020026020010181905250818061248590614395565b9250505b6001856124969190614444565b866124a19190614354565b82106124b2578293505050506124cd565b5b80806124be90614395565b9150506121b3565b5081925050505b9392505050565b6124dc6131e5565b8160066001856124ec9190614270565b815481106124fd576124fc6142a3565b5b905f5260205f20906005020160030181905550600660018461251f9190614270565b815481106125305761252f6142a3565b5b905f5260205f2090600502016040518060a00160405290815f82015f9054906101000a900473ffffffffffffffffffffffffffffffffffffffff1673ffffffffffffffffffffffffffffffffffffffff1673ffffffffffffffffffffffffffffffffffffffff168152602001600182015481526020016002820154815260200160038201548152602001600482015481525050905092915050565b5f80600a6001856125dc9190614270565b815481106125ed576125ec6142a3565b5b905f5260205f20906007020160040154836126089190614270565b905060016008546126199190614444565b60088190555082600a60018661262f9190614270565b815481106126405761263f6142a3565b5b905f5260205f209060070201600401819055508091505092915050565b6001600381111561267157612670613306565b5b6001808361267f9190614270565b815481106126905761268f6142a3565b5b905f5260205f20906008020160010160149054906101000a900460ff1660038111156126bf576126be613306565b5b146126ff576040517f08c379a00000000000000000000000000000000000000000000000000000000081526004016126f690614680565b60405180910390fd5b60036001808361270f9190614270565b815481106127205761271f6142a3565b5b905f5260205f20906008020160010160146101000a81548160ff0219169083600381111561275157612750613306565b5b021790555050565b6001600281111561276d5761276c613306565b5b600960018361277c9190614270565b8154811061278d5761278c6142a3565b5b905f5260205f2090600702016006015f9054906101000a900460ff1660028111156127bb576127ba613306565b5b036127fb576040517f08c379a00000000000000000000000000000000000000000000000000000000081526004016127f29061470e565b60405180910390fd5b6001600960018361280c9190614270565b8154811061281d5761281c6142a3565b5b905f5260205f2090600702016006015f6101000a81548160ff0219169083600281111561284d5761284c613306565b5b021790555050565b5f60015f808282546128679190614444565b9250508190555060016040518060c001604052805f5481526020013373ffffffffffffffffffffffffffffffffffffffff168152602001600160038111156128b2576128b1613306565b5b815260200186815260200185815260200184815250908060018154018082558091505060019003905f5260205f2090600802015f909190919091505f820151815f01556020820151816001015f6101000a81548173ffffffffffffffffffffffffffffffffffffffff021916908373ffffffffffffffffffffffffffffffffffffffff16021790555060408201518160010160146101000a81548160ff0219169083600381111561296657612965613306565b5b0217905550606082015181600201908161298091906148c0565b50608082015181600301908161299691906148c0565b5060a0820151816004015f820151815f0155602082015181600101556040820151816002015560608201518160030155505050505f5490509392505050565b5f60016002546129e59190614444565b60028190555060056040518060a001604052808773ffffffffffffffffffffffffffffffffffffffff168152602001600254815260200185815260200184815260200186815250908060018154018082558091505060019003905f5260205f2090600502015f909190919091505f820151815f015f6101000a81548173ffffffffffffffffffffffffffffffffffffffff021916908373ffffffffffffffffffffffffffffffffffffffff1602179055506020820151816001015560408201518160020155606082015181600301556080820151816004015550506002549050949350505050565b6001600754612adc9190614444565b60078190555060096040518061010001604052803373ffffffffffffffffffffffffffffffffffffffff16815260200160075481526020018481526020018381526020015f81526020015f81526020015f6002811115612b3f57612b3e613306565b5b81526020015f6002811115612b5757612b56613306565b5b815250908060018154018082558091505060019003905f5260205f2090600702015f909190919091505f820151815f015f6101000a81548173ffffffffffffffffffffffffffffffffffffffff021916908373ffffffffffffffffffffffffffffffffffffffff1602179055506020820151816001015560408201518160020155606082015181600301556080820151816004015560a0820151816005015560c0820151816006015f6101000a81548160ff02191690836002811115612c2057612c1f613306565b5b021790555060e08201518160060160016101000a81548160ff02191690836002811115612c5057612c4f613306565b5b021790555050505050565b600180600183612c6b9190614270565b81548110612c7c57612c7b6142a3565b5b905f5260205f20906008020160010160146101000a81548160ff02191690836003811115612cad57612cac613306565b5b021790555050565b5f8082600a600186612cc79190614270565b81548110612cd857612cd76142a3565b5b905f5260205f20906007020160040154612cf29190614270565b90506001600a600186612d059190614270565b81548110612d1657612d156142a3565b5b905f5260205f2090600702016006015f6101000a81548160ff02191690836002811115612d4657612d45613306565b5b021790555082600a600186612d5b9190614270565b81548110612d6c57612d6b6142a3565b5b905f5260205f209060070201600501819055508091505092915050565b60016003811115612d9d57612d9c613306565b5b60018083612dab9190614270565b81548110612dbc57612dbb6142a3565b5b905f5260205f20906008020160010160149054906101000a900460ff166003811115612deb57612dea613306565b5b14612e2b576040517f08c379a0000000000000000000000000000000000000000000000000000000008152600401612e2290614680565b60405180910390fd5b600260018083612e3b9190614270565b81548110612e4c57612e4b6142a3565b5b905f5260205f20906008020160010160146101000a81548160ff02191690836003811115612e7d57612e7c613306565b5b021790555050565b5f836001600354612e969190614444565b60038190555060066040518060a001604052803373ffffffffffffffffffffffffffffffffffffffff168152602001600354815260200186815260200185815260200187815250908060018154018082558091505060019003905f5260205f2090600502015f909190919091505f820151815f015f6101000a81548173ffffffffffffffffffffffffffffffffffffffff021916908373ffffffffffffffffffffffffffffffffffffffff1602179055506020820151816001015560408201518160020155606082015181600301556080820151816004015550506003549150509392505050565b6001600854612f8d9190614444565b600881905550600a6040518061010001604052803373ffffffffffffffffffffffffffffffffffffffff16815260200160085481526020018481526020015f81526020018381526020015f81526020015f6002811115612ff057612fef613306565b5b81526020016001600281111561300957613008613306565b5b815250908060018154018082558091505060019003905f5260205f2090600702015f909190919091505f820151815f015f6101000a81548173ffffffffffffffffffffffffffffffffffffffff021916908373ffffffffffffffffffffffffffffffffffffffff1602179055506020820151816001015560408201518160020155606082015181600301556080820151816004015560a0820151816005015560c0820151816006015f6101000a81548160ff021916908360028111156130d2576130d1613306565b5b021790555060e08201518160060160016101000a81548160ff0219169083600281111561310257613101613306565b5b021790555050505050565b6040518060c001604052805f81526020015f73ffffffffffffffffffffffffffffffffffffffff1681526020015f600381111561314d5761314c613306565b5b81526020016060815260200160608152602001613168613225565b81525090565b6040518061010001604052805f73ffffffffffffffffffffffffffffffffffffffff1681526020015f81526020015f81526020015f81526020015f81526020015f81526020015f60028111156131c7576131c6613306565b5b81526020015f60028111156131df576131de613306565b5b81525090565b6040518060a001604052805f73ffffffffffffffffffffffffffffffffffffffff1681526020015f81526020015f81526020015f81526020015f81525090565b60405180608001604052805f81526020015f81526020015f81526020015f81525090565b5f604051905090565b5f80fd5b5f80fd5b5f819050919050565b61326c8161325a565b8114613276575f80fd5b50565b5f8135905061328781613263565b92915050565b5f602082840312156132a2576132a1613252565b5b5f6132af84828501613279565b91505092915050565b6132c18161325a565b82525050565b5f73ffffffffffffffffffffffffffffffffffffffff82169050919050565b5f6132f0826132c7565b9050919050565b613300816132e6565b82525050565b7f4e487b71000000000000000000000000000000000000000000000000000000005f52602160045260245ffd5b6004811061334457613343613306565b5b50565b5f81905061335482613333565b919050565b5f61336382613347565b9050919050565b61337381613359565b82525050565b5f81519050919050565b5f82825260208201905092915050565b5f5b838110156133b0578082015181840152602081019050613395565b5f8484015250505050565b5f601f19601f8301169050919050565b5f6133d582613379565b6133df8185613383565b93506133ef818560208601613393565b6133f8816133bb565b840191505092915050565b608082015f8201516134175f8501826132b8565b50602082015161342a60208501826132b8565b50604082015161343d60408501826132b8565b50606082015161345060608501826132b8565b50505050565b5f61012083015f83015161346c5f8601826132b8565b50602083015161347f60208601826132f7565b506040830151613492604086018261336a565b50606083015184820360608601526134aa82826133cb565b915050608083015184820360808601526134c482826133cb565b91505060a08301516134d960a0860182613403565b508091505092915050565b5f6020820190508181035f8301526134fc8184613456565b905092915050565b5f806040838503121561351a57613519613252565b5b5f61352785828601613279565b925050602061353885828601613279565b9150509250929050565b5f80fd5b7f4e487b71000000000000000000000000000000000000000000000000000000005f52604160045260245ffd5b61357c826133bb565b810181811067ffffffffffffffff8211171561359b5761359a613546565b5b80604052505050565b5f6135ad613249565b90506135b98282613573565b919050565b5f608082840312156135d3576135d2613542565b5b6135dd60806135a4565b90505f6135ec84828501613279565b5f8301525060206135ff84828501613279565b602083015250604061361384828501613279565b604083015250606061362784828501613279565b60608301525092915050565b5f805f60c0848603121561364a57613649613252565b5b5f61365786828701613279565b935050602061366886828701613279565b9250506040613679868287016135be565b9150509250925092565b61368c8161325a565b82525050565b5f6020820190506136a55f830184613683565b92915050565b600381106136bc576136bb613306565b5b50565b5f8190506136cc826136ab565b919050565b5f6136db826136bf565b9050919050565b6136eb816136d1565b82525050565b6003811061370257613701613306565b5b50565b5f819050613712826136f1565b919050565b5f61372182613705565b9050919050565b61373181613717565b82525050565b61010082015f82015161374c5f8501826132f7565b50602082015161375f60208501826132b8565b50604082015161377260408501826132b8565b50606082015161378560608501826132b8565b50608082015161379860808501826132b8565b5060a08201516137ab60a08501826132b8565b5060c08201516137be60c08501826136e2565b5060e08201516137d160e0850182613728565b50505050565b5f610100820190506137eb5f830184613737565b92915050565b5f819050919050565b5f61381461380f61380a846132c7565b6137f1565b6132c7565b9050919050565b5f613825826137fa565b9050919050565b5f6138368261381b565b9050919050565b6138468161382c565b82525050565b5f60208201905061385f5f83018461383d565b92915050565b61386e816132e6565b82525050565b61387d81613359565b82525050565b5f82825260208201905092915050565b5f61389d82613379565b6138a78185613883565b93506138b7818560208601613393565b6138c0816133bb565b840191505092915050565b608082015f8201516138df5f8501826132b8565b5060208201516138f260208501826132b8565b50604082015161390560408501826132b8565b50606082015161391860608501826132b8565b50505050565b5f610120820190506139325f830189613683565b61393f6020830188613865565b61394c6040830187613874565b818103606083015261395e8186613893565b905081810360808301526139728185613893565b905061398160a08301846138cb565b979650505050505050565b613995816132e6565b811461399f575f80fd5b50565b5f813590506139b08161398c565b92915050565b5f805f606084860312156139cd576139cc613252565b5b5f6139da868287016139a2565b93505060206139eb86828701613279565b92505060406139fc86828701613279565b9150509250925092565b5f81519050919050565b5f82825260208201905092915050565b5f819050602082019050919050565b60a082015f820151613a435f8501826132f7565b506020820151613a5660208501826132b8565b506040820151613a6960408501826132b8565b506060820151613a7c60608501826132b8565b506080820151613a8f60808501826132b8565b50505050565b5f613aa08383613a2f565b60a08301905092915050565b5f602082019050919050565b5f613ac282613a06565b613acc8185613a10565b9350613ad783613a20565b805f5b83811015613b07578151613aee8882613a95565b9750613af983613aac565b925050600181019050613ada565b5085935050505092915050565b5f81519050919050565b5f82825260208201905092915050565b5f819050602082019050919050565b61010082015f820151613b525f8501826132f7565b506020820151613b6560208501826132b8565b506040820151613b7860408501826132b8565b506060820151613b8b60608501826132b8565b506080820151613b9e60808501826132b8565b5060a0820151613bb160a08501826132b8565b5060c0820151613bc460c08501826136e2565b5060e0820151613bd760e0850182613728565b50505050565b5f613be88383613b3d565b6101008301905092915050565b5f602082019050919050565b5f613c0b82613b14565b613c158185613b1e565b9350613c2083613b2e565b805f5b83811015613c50578151613c378882613bdd565b9750613c4283613bf5565b925050600181019050613c23565b5085935050505092915050565b5f6040820190508181035f830152613c758185613ab8565b90508181036020830152613c898184613c01565b90509392505050565b5f60a082019050613ca55f830188613865565b613cb26020830187613683565b613cbf6040830186613683565b613ccc6060830185613683565b613cd96080830184613683565b9695505050505050565b5f81519050919050565b5f82825260208201905092915050565b5f819050602082019050919050565b5f61012083015f830151613d225f8601826132b8565b506020830151613d3560208601826132f7565b506040830151613d48604086018261336a565b5060608301518482036060860152613d6082826133cb565b91505060808301518482036080860152613d7a82826133cb565b91505060a0830151613d8f60a0860182613403565b508091505092915050565b5f613da58383613d0c565b905092915050565b5f602082019050919050565b5f613dc382613ce3565b613dcd8185613ced565b935083602082028501613ddf85613cfd565b805f5b85811015613e1a5784840389528151613dfb8582613d9a565b9450613e0683613dad565b925060208a01995050600181019050613de2565b50829750879550505050505092915050565b5f6020820190508181035f830152613e448184613db9565b905092915050565b60a082015f820151613e605f8501826132f7565b506020820151613e7360208501826132b8565b506040820151613e8660408501826132b8565b506060820151613e9960608501826132b8565b506080820151613eac60808501826132b8565b50505050565b5f60a082019050613ec55f830184613e4c565b92915050565b5f80fd5b5f80fd5b5f67ffffffffffffffff821115613eed57613eec613546565b5b613ef6826133bb565b9050602081019050919050565b828183375f83830152505050565b5f613f23613f1e84613ed3565b6135a4565b905082815260208101848484011115613f3f57613f3e613ecf565b5b613f4a848285613f03565b509392505050565b5f82601f830112613f6657613f65613ecb565b5b8135613f76848260208601613f11565b91505092915050565b5f805f805f6101008688031215613f9957613f98613252565b5b5f86013567ffffffffffffffff811115613fb657613fb5613256565b5b613fc288828901613f52565b955050602086013567ffffffffffffffff811115613fe357613fe2613256565b5b613fef88828901613f52565b9450506040614000888289016135be565b93505060c061401188828901613279565b92505060e061402288828901613279565b9150509295509295909350565b614038816136d1565b82525050565b61404781613717565b82525050565b5f610100820190506140615f83018b613865565b61406e602083018a613683565b61407b6040830189613683565b6140886060830188613683565b6140956080830187613683565b6140a260a0830186613683565b6140af60c083018561402f565b6140bc60e083018461403e565b9998505050505050505050565b5f80604083850312156140df576140de613252565b5b5f83013567ffffffffffffffff8111156140fc576140fb613256565b5b61410885828601613f52565b925050602083013567ffffffffffffffff81111561412957614128613256565b5b61413585828601613f52565b9150509250929050565b5f6020820190508181035f8301526141578184613893565b905092915050565b5f6101a0820190506141735f830185613e4c565b61418060a0830184613737565b9392505050565b5f6020820190508181035f83015261419f8184613c01565b905092915050565b5f60ff82169050919050565b6141bc816141a7565b82525050565b5f6020820190506141d55f8301846141b3565b92915050565b7f6e656564206465766963655f6964203e203000000000000000000000000000005f82015250565b5f61420f601283613883565b915061421a826141db565b602082019050919050565b5f6020820190508181035f83015261423c81614203565b9050919050565b7f4e487b71000000000000000000000000000000000000000000000000000000005f52601160045260245ffd5b5f61427a8261325a565b91506142858361325a565b925082820390508181111561429d5761429c614243565b5b92915050565b7f4e487b71000000000000000000000000000000000000000000000000000000005f52603260045260245ffd5b7f4e487b71000000000000000000000000000000000000000000000000000000005f52602260045260245ffd5b5f600282049050600182168061431457607f821691505b602082108103614327576143266142d0565b5b50919050565b5f6040820190506143405f830185613865565b61434d6020830184613683565b9392505050565b5f61435e8261325a565b91506143698361325a565b92508282026143778161325a565b9150828204841483151761438e5761438d614243565b5b5092915050565b5f61439f8261325a565b91507fffffffffffffffffffffffffffffffffffffffffffffffffffffffffffffffff82036143d1576143d0614243565b5b600182019050919050565b7f63616e27742066696e642062696c6c696e6721000000000000000000000000005f82015250565b5f614410601383613883565b915061441b826143dc565b602082019050919050565b5f6020820190508181035f83015261443d81614404565b9050919050565b5f61444e8261325a565b91506144598361325a565b925082820190508082111561447157614470614243565b5b92915050565b5f60808201905061448a5f830187613865565b6144976020830186613865565b6144a46040830185613683565b6144b16060830184613683565b95945050505050565b5f819050919050565b5f6144dd6144d86144d3846144ba565b6137f1565b61325a565b9050919050565b6144ed816144c3565b82525050565b5f6040820190506145065f830185613865565b61451360208301846144e4565b9392505050565b5f6145248261325a565b91505f820361453657614535614243565b5b600182039050919050565b7f63616e27742066696e64206c65617365210000000000000000000000000000005f82015250565b5f614575601183613883565b915061458082614541565b602082019050919050565b5f6020820190508181035f8301526145a281614569565b9050919050565b7f4e487b71000000000000000000000000000000000000000000000000000000005f52601260045260245ffd5b5f6145e08261325a565b91506145eb8361325a565b9250826145fb576145fa6145a9565b5b828204905092915050565b5f6146108261325a565b915061461b8361325a565b92508261462b5761462a6145a9565b5b828206905092915050565b7f6e6565642070726520737461747573206f6e6c696e65000000000000000000005f82015250565b5f61466a601683613883565b915061467582614636565b602082019050919050565b5f6020820190508181035f8301526146978161465e565b9050919050565b7f7374616b6520616d6f756e742068617320616c726561647920756e626c6f636b5f8201527f6564000000000000000000000000000000000000000000000000000000000000602082015250565b5f6146f8602283613883565b91506147038261469e565b604082019050919050565b5f6020820190508181035f830152614725816146ec565b9050919050565b5f819050815f5260205f209050919050565b5f6020601f8301049050919050565b5f82821b905092915050565b5f600883026147887fffffffffffffffffffffffffffffffffffffffffffffffffffffffffffffffff8261474d565b614792868361474d565b95508019841693508086168417925050509392505050565b5f6147c46147bf6147ba8461325a565b6137f1565b61325a565b9050919050565b5f819050919050565b6147dd836147aa565b6147f16147e9826147cb565b848454614759565b825550505050565b5f90565b6148056147f9565b6148108184846147d4565b505050565b5b81811015614833576148285f826147fd565b600181019050614816565b5050565b601f821115614878576148498161472c565b6148528461473e565b81016020851015614861578190505b61487561486d8561473e565b830182614815565b50505b505050565b5f82821c905092915050565b5f6148985f198460080261487d565b1980831691505092915050565b5f6148b08383614889565b9150826002028217905092915050565b6148c982613379565b67ffffffffffffffff8111156148e2576148e1613546565b5b6148ec82546142fd565b6148f7828285614837565b5f60209050601f831160018114614928575f8415614916578287015190505b61492085826148a5565b865550614987565b601f1984166149368661472c565b5f5b8281101561495d57848901518255600182019150602085019450602081019050614938565b8683101561497a5784890151614976601f891682614889565b8355505b6001600288020188555050505b50505050505056fea26469706673582212205add59a0b6a4e3907fcb508893f45813c9843a8fd83e4ed7797adfcffa7ee27264736f6c63430008150033",
  "immutableReferences": {},
  "source": "// SPDX-License-Identifier: SEE LICENSE IN LICENSE\npragma solidity ^0.8.0;\nimport \"./lease.sol\";\nimport \"./account.sol\";\nimport \"./device.sol\";\n\ncontract Helper is Billing {\n\n    AccountFactory public account_contract;\n\n    constructor(address _accountFactoryAddress) {\n        account_contract = AccountFactory(_accountFactoryAddress);\n    }\n\n    // function getAccountContract() private view returns(address)\n\n    function rentServer(uint _deviceId, uint _endTime) public {\n        // device rent\n        uint _startTime = block.timestamp;\n        deviceInfo memory dc = getDevice(_deviceId);\n        rentDevice(_deviceId);\n        uint _leaseId = createRentLease(_deviceId, _startTime, _endTime);\n        uint _stakeAmount = recipientStakeCalcute(_startTime, _endTime, dc.price);\n        createRentBilling(_leaseId, 10);\n        account_contract.rentBlockedFund(msg.sender, 10);\n    }\n\n    // \n    function RenewalLeaseServer(uint _leaseId, uint _endTime) public {\n        leaseInfo memory _lease  = renewalRentLease(_leaseId, _endTime);\n\n        // device rent\n        deviceInfo memory _dc = getDevice(_lease.deviceId);\n        uint _stakeAmount = recipientStakeCalcute(_lease.startTime, _endTime, _dc.price);\n        billingInfo memory _bi = getRecipientBillingByLeaseId(_leaseId);\n        _stakeAmount = renewalRentBilling(_bi.id, _stakeAmount);\n        account_contract.rentBlockedFund(msg.sender, _stakeAmount);\n    }\n\n    function terminateInstance(uint _leaseId) public {\n\n        leaseInfo memory _lease  = terminateLease(_leaseId);\n\n        terminateDevice(_lease.deviceId);\n        // device rent\n        deviceInfo memory _dc = getDevice(_lease.deviceId);\n\n        uint _stakeAmount = recipientStakeCalcute(_lease.startTime, _lease.expireTime, _dc.price);\n\n        billingInfo memory _bi = getRecipientBillingByLeaseId(_leaseId);\n\n        uint _unBlockedAmount = terminateBilling(_bi.id, _stakeAmount);\n\n        account_contract.rentUnBlockedFund(msg.sender, _dc.owner, _stakeAmount, _unBlockedAmount);\n    }\n\n\n    function onlineServer(string memory _machineId, string memory _serverInfo, Price memory _price, uint _startTime, uint _endTime) public {\n        \n        uint _stakeAmount = providerStakeCalcute(_startTime, _endTime, _price);\n        account_contract.onlineBlockedFund(msg.sender, _stakeAmount);\n        uint _deviceId = online(_machineId, _serverInfo, _price);\n        uint _leaseId = onlineLease(msg.sender, _deviceId, _startTime, _endTime);\n        providerOnlineBilling(_leaseId, _stakeAmount);\n    }\n\n    function offlineServer(uint _deviceId) public {\n        offlineDevice(_deviceId);\n        leaseInfo memory _pli = getLeaseByDeviceId(_deviceId);\n        billingInfo memory _bi = getProviderBillingByLeaseId(_pli.leaseId);\n        providerOfflineBilling(_bi.id);\n        account_contract.offlineUnBlockedFund(msg.sender, _bi.providerBlockedFund);\n    }\n\n    function listDevices(uint _limit, uint _offset) public view returns (deviceInfo [] memory _allDevices){\n        deviceInfo [] memory ds = new deviceInfo[](_limit);\n        uint counter = 0;\n        for (uint i = _offset * _limit; i < devices.length; i++ ) {\n            if (devices[i].status == DeviceStatus.Online || devices[i].status == DeviceStatus.Running ) {\n                if (counter < _limit) {\n                    ds[counter] = devices[i];\n                    counter ++;\n                }\n\n                if  (counter >= _limit * (_offset + 1)) {\n                    return ds;\n                }\n            }\n        }\n        return ds;\n    }\n\n    function listOwnDevices(address _provider, uint _limit, uint _offset) public view returns (deviceInfo [] memory _ownDevices){\n        deviceInfo [] memory ds = new deviceInfo [](_limit);\n        uint counter = 0;\n        for (uint i = _offset * _limit; i < devices.length; i++ ) {\n            if (devices[i].owner == _provider) {\n                if (counter < _limit) {\n                    ds[counter] = devices[i];\n                    counter ++;\n                }\n                if  (counter >= _limit * (_offset + 1)) {\n                    return ds;\n                }\n            }\n        }\n        return ds;\n    }\n\n    function listProviderLease(address _user, uint _limit, uint _offset) public view returns (leaseInfo [] memory, billingInfo[] memory) {\n        _limit = _limit + _offset;\n        _user = _user;\n        return (leaseProvider, providerBillings);\n        // providerLeaseInfo [] memory _ls = new providerLeaseInfo[] (_limit);\n        // uint counter = 0;\n        // for (uint i = 0; i < leaseProvider.length; i++ ) {\n        //     if (leaseProvider[i].owner== _user ) {\n        //         if (counter > _limit * _offset) {\n        //             _ls[counter] = leaseProvider[i];\n        //             counter ++;\n        //         }\n\n        //         if  (counter >= _limit * _offset) {\n        //             return _ls;\n        //         }\n        //     }\n        // }\n        // return _ls;\n    }\n\n    function getOfflineLeaseAndBilling(uint _deviceId) public view returns(leaseInfo memory, billingInfo memory){\n        leaseInfo memory _pli = getLeaseByDeviceId(_deviceId);\n        billingInfo memory b = getProviderBillingByLeaseId(_pli.leaseId);\n        return (_pli, b);\n    }\n\n    function getRecipientLease() public returns(billingInfo [] memory){\n        return recipientBillings;\n    }\n}",
  "sourcePath": "/Users/irongyi/solidity_project/apus_network_v0/contracts/helper.sol",
  "compiler": {
    "name": "solc",
    "version": "0.8.21+commit.d9974bed.Emscripten.clang"
  },
  "schemaVersion": "3.4.15",
  "updatedAt": "2023-09-06T23:20:01.302Z",
  "networkType": "ethereum",
  "devdoc": {
    "kind": "dev",
    "methods": {},
    "version": 1
  },
  "userdoc": {
    "kind": "user",
    "methods": {},
    "version": 1
  }
}