{
  "contractName": "Helper",
  "abi": [
    {
      "anonymous": false,
      "inputs": [
        {
          "indexed": true,
          "internalType": "address",
          "name": "previousOwner",
          "type": "address"
        },
        {
          "indexed": true,
          "internalType": "address",
          "name": "newOwner",
          "type": "address"
        }
      ],
      "name": "OwnershipTransferred",
      "type": "event"
    },
    {
      "inputs": [],
      "name": "cancellation",
      "outputs": [],
      "stateMutability": "nonpayable",
      "type": "function"
    },
    {
      "inputs": [
        {
          "internalType": "string",
          "name": "a",
          "type": "string"
        },
        {
          "internalType": "string",
          "name": "b",
          "type": "string"
        }
      ],
      "name": "concatenateStrings",
      "outputs": [
        {
          "internalType": "string",
          "name": "",
          "type": "string"
        }
      ],
      "stateMutability": "pure",
      "type": "function",
      "constant": true
    },
    {
      "inputs": [
        {
          "internalType": "uint256",
          "name": "",
          "type": "uint256"
        }
      ],
      "name": "devices",
      "outputs": [
        {
          "internalType": "address",
          "name": "owner",
          "type": "address"
        },
        {
          "internalType": "uint256",
          "name": "id",
          "type": "uint256"
        },
        {
          "internalType": "enum DeviceStatus",
          "name": "status",
          "type": "uint8"
        },
        {
          "internalType": "uint256",
          "name": "price",
          "type": "uint256"
        },
        {
          "internalType": "string",
          "name": "extraData",
          "type": "string"
        }
      ],
      "stateMutability": "view",
      "type": "function",
      "constant": true
    },
    {
      "inputs": [
        {
          "internalType": "address",
          "name": "_addr",
          "type": "address"
        }
      ],
      "name": "getAccount",
      "outputs": [
        {
          "components": [
            {
              "internalType": "address",
              "name": "addr",
              "type": "address"
            },
            {
              "internalType": "uint256",
              "name": "balance",
              "type": "uint256"
            },
            {
              "internalType": "uint256",
              "name": "providerBlockedFunds",
              "type": "uint256"
            },
            {
              "internalType": "uint256",
              "name": "recipientBlockedFunds",
              "type": "uint256"
            },
            {
              "internalType": "string",
              "name": "info",
              "type": "string"
            }
          ],
          "internalType": "struct AccountFactory.accountInfo",
          "name": "",
          "type": "tuple"
        }
      ],
      "stateMutability": "view",
      "type": "function",
      "constant": true
    },
    {
      "inputs": [
        {
          "internalType": "uint256",
          "name": "",
          "type": "uint256"
        }
      ],
      "name": "leases",
      "outputs": [
        {
          "internalType": "uint256",
          "name": "leaseId",
          "type": "uint256"
        },
        {
          "internalType": "uint256",
          "name": "startTime",
          "type": "uint256"
        },
        {
          "internalType": "uint256",
          "name": "expireTime",
          "type": "uint256"
        },
        {
          "internalType": "uint256",
          "name": "price",
          "type": "uint256"
        },
        {
          "internalType": "uint256",
          "name": "deviceId",
          "type": "uint256"
        },
        {
          "internalType": "uint8",
          "name": "platformSharingRatio",
          "type": "uint8"
        },
        {
          "internalType": "address",
          "name": "provider",
          "type": "address"
        },
        {
          "internalType": "address",
          "name": "recipient",
          "type": "address"
        },
        {
          "components": [
            {
              "internalType": "address",
              "name": "provider",
              "type": "address"
            },
            {
              "internalType": "address",
              "name": "recipient",
              "type": "address"
            },
            {
              "internalType": "enum billingStatus",
              "name": "status",
              "type": "uint8"
            },
            {
              "internalType": "uint256",
              "name": "fee",
              "type": "uint256"
            }
          ],
          "internalType": "struct billingInfo",
          "name": "billing",
          "type": "tuple"
        }
      ],
      "stateMutability": "view",
      "type": "function",
      "constant": true
    },
    {
      "inputs": [],
      "name": "owner",
      "outputs": [
        {
          "internalType": "address",
          "name": "",
          "type": "address"
        }
      ],
      "stateMutability": "view",
      "type": "function",
      "constant": true
    },
    {
      "inputs": [],
      "name": "platformSharingRatio",
      "outputs": [
        {
          "internalType": "uint8",
          "name": "",
          "type": "uint8"
        }
      ],
      "stateMutability": "view",
      "type": "function",
      "constant": true
    },
    {
      "inputs": [],
      "name": "register",
      "outputs": [
        {
          "components": [
            {
              "internalType": "address",
              "name": "addr",
              "type": "address"
            },
            {
              "internalType": "uint256",
              "name": "balance",
              "type": "uint256"
            },
            {
              "internalType": "uint256",
              "name": "providerBlockedFunds",
              "type": "uint256"
            },
            {
              "internalType": "uint256",
              "name": "recipientBlockedFunds",
              "type": "uint256"
            },
            {
              "internalType": "string",
              "name": "info",
              "type": "string"
            }
          ],
          "internalType": "struct AccountFactory.accountInfo",
          "name": "accountinfo",
          "type": "tuple"
        }
      ],
      "stateMutability": "nonpayable",
      "type": "function"
    },
    {
      "inputs": [],
      "name": "renounceOwnership",
      "outputs": [],
      "stateMutability": "nonpayable",
      "type": "function"
    },
    {
      "inputs": [
        {
          "internalType": "string",
          "name": "_info",
          "type": "string"
        }
      ],
      "name": "setProviderInfo",
      "outputs": [],
      "stateMutability": "nonpayable",
      "type": "function"
    },
    {
      "inputs": [],
      "name": "stake",
      "outputs": [],
      "stateMutability": "payable",
      "type": "function",
      "payable": true
    },
    {
      "inputs": [
        {
          "internalType": "address",
          "name": "newOwner",
          "type": "address"
        }
      ],
      "name": "transferOwnership",
      "outputs": [],
      "stateMutability": "nonpayable",
      "type": "function"
    },
    {
      "inputs": [
        {
          "internalType": "uint256",
          "name": "number",
          "type": "uint256"
        }
      ],
      "name": "uintToString",
      "outputs": [
        {
          "internalType": "string",
          "name": "",
          "type": "string"
        }
      ],
      "stateMutability": "pure",
      "type": "function",
      "constant": true
    },
    {
      "inputs": [
        {
          "internalType": "uint256",
          "name": "amount",
          "type": "uint256"
        }
      ],
      "name": "unstake",
      "outputs": [],
      "stateMutability": "payable",
      "type": "function",
      "payable": true
    },
    {
      "inputs": [],
      "name": "withdraw",
      "outputs": [],
      "stateMutability": "nonpayable",
      "type": "function"
    },
    {
      "inputs": [
        {
          "internalType": "uint256",
          "name": "_limit",
          "type": "uint256"
        },
        {
          "internalType": "uint256",
          "name": "_offset",
          "type": "uint256"
        }
      ],
      "name": "listDevices",
      "outputs": [
        {
          "components": [
            {
              "internalType": "address",
              "name": "owner",
              "type": "address"
            },
            {
              "internalType": "uint256",
              "name": "id",
              "type": "uint256"
            },
            {
              "internalType": "enum DeviceStatus",
              "name": "status",
              "type": "uint8"
            },
            {
              "internalType": "uint256",
              "name": "price",
              "type": "uint256"
            },
            {
              "internalType": "string",
              "name": "extraData",
              "type": "string"
            }
          ],
          "internalType": "struct deviceInfo[]",
          "name": "_allDevices",
          "type": "tuple[]"
        }
      ],
      "stateMutability": "view",
      "type": "function",
      "constant": true
    },
    {
      "inputs": [
        {
          "internalType": "address",
          "name": "_provider",
          "type": "address"
        },
        {
          "internalType": "uint256",
          "name": "_limit",
          "type": "uint256"
        },
        {
          "internalType": "uint256",
          "name": "_offset",
          "type": "uint256"
        }
      ],
      "name": "listOwnDevices",
      "outputs": [
        {
          "components": [
            {
              "internalType": "address",
              "name": "owner",
              "type": "address"
            },
            {
              "internalType": "uint256",
              "name": "id",
              "type": "uint256"
            },
            {
              "internalType": "enum DeviceStatus",
              "name": "status",
              "type": "uint8"
            },
            {
              "internalType": "uint256",
              "name": "price",
              "type": "uint256"
            },
            {
              "internalType": "string",
              "name": "extraData",
              "type": "string"
            }
          ],
          "internalType": "struct deviceInfo[]",
          "name": "_ownDevices",
          "type": "tuple[]"
        }
      ],
      "stateMutability": "view",
      "type": "function",
      "constant": true
    },
    {
      "inputs": [
        {
          "internalType": "address",
          "name": "_user",
          "type": "address"
        },
        {
          "internalType": "uint256",
          "name": "_limit",
          "type": "uint256"
        },
        {
          "internalType": "uint256",
          "name": "_offset",
          "type": "uint256"
        }
      ],
      "name": "listLease",
      "outputs": [
        {
          "components": [
            {
              "internalType": "uint256",
              "name": "leaseId",
              "type": "uint256"
            },
            {
              "internalType": "uint256",
              "name": "startTime",
              "type": "uint256"
            },
            {
              "internalType": "uint256",
              "name": "expireTime",
              "type": "uint256"
            },
            {
              "internalType": "uint256",
              "name": "price",
              "type": "uint256"
            },
            {
              "internalType": "uint256",
              "name": "deviceId",
              "type": "uint256"
            },
            {
              "internalType": "uint8",
              "name": "platformSharingRatio",
              "type": "uint8"
            },
            {
              "internalType": "address",
              "name": "provider",
              "type": "address"
            },
            {
              "internalType": "address",
              "name": "recipient",
              "type": "address"
            },
            {
              "components": [
                {
                  "internalType": "address",
                  "name": "provider",
                  "type": "address"
                },
                {
                  "internalType": "address",
                  "name": "recipient",
                  "type": "address"
                },
                {
                  "internalType": "enum billingStatus",
                  "name": "status",
                  "type": "uint8"
                },
                {
                  "internalType": "uint256",
                  "name": "fee",
                  "type": "uint256"
                }
              ],
              "internalType": "struct billingInfo",
              "name": "billing",
              "type": "tuple"
            }
          ],
          "internalType": "struct leaseInfo[]",
          "name": "leaseInfos",
          "type": "tuple[]"
        }
      ],
      "stateMutability": "view",
      "type": "function",
      "constant": true
    }
  ],
  "bytecode": "0x60806040525f80555f6002555f60035f6101000a81548160ff021916908360ff16021790555034801562000031575f80fd5b5062000052620000466200005860201b60201c565b6200005f60201b60201c565b62000122565b5f33905090565b5f60055f9054906101000a900473ffffffffffffffffffffffffffffffffffffffff1690508160055f6101000a81548173ffffffffffffffffffffffffffffffffffffffff021916908373ffffffffffffffffffffffffffffffffffffffff1602179055508173ffffffffffffffffffffffffffffffffffffffff168173ffffffffffffffffffffffffffffffffffffffff167f8be0079c531659141344cd1fd0a4f28419497f9722a3daafe3b4186f6b6457e060405160405180910390a35050565b6136b580620001305f395ff3fe608060405260043610610108575f3560e01c8063715018a611610094578063c74ce95c11610063578063c74ce95c14610328578063e939567914610352578063f2fde38b1461038e578063fbcbc0f1146103b6578063ff459ec6146103f257610108565b8063715018a6146102685780637a36b3ee1461027e5780638927a106146102ba5780638da5cb5b146102fe57610108565b80632e17de78116100db5780632e17de78146101ee5780633940ab771461020a5780633a4b66f1146102325780633ccfd60b1461023c578063404050781461025257610108565b80630a39cbff1461010c57806310ff8e31146101485780631aa3a008146101885780632b90c592146101b2575b5f80fd5b348015610117575f80fd5b50610132600480360381019061012d91906124f3565b61042e565b60405161013f91906127a0565b60405180910390f35b348015610153575f80fd5b5061016e600480360381019061016991906127c0565b6107b2565b60405161017f9594939291906128d9565b60405180910390f35b348015610193575f80fd5b5061019c6108a4565b6040516101a991906129ec565b60405180910390f35b3480156101bd575f80fd5b506101d860048036038101906101d39190612a0c565b610b90565b6040516101e59190612b87565b60405180910390f35b610208600480360381019061020391906127c0565b610ea4565b005b348015610215575f80fd5b50610230600480360381019061022b9190612cd3565b611110565b005b61023a61122f565b005b348015610247575f80fd5b5061025061154d565b005b34801561025d575f80fd5b50610266611616565b005b348015610273575f80fd5b5061027c6116a1565b005b348015610289575f80fd5b506102a4600480360381019061029f9190612d1a565b611728565b6040516102b19190612d90565b60405180910390f35b3480156102c5575f80fd5b506102e060048036038101906102db91906127c0565b6118b1565b6040516102f599989796959493929190612e12565b60405180910390f35b348015610309575f80fd5b50610312611a4d565b60405161031f9190612e9d565b60405180910390f35b348015610333575f80fd5b5061033c611a75565b6040516103499190612eb6565b60405180910390f35b34801561035d575f80fd5b50610378600480360381019061037391906127c0565b611a87565b6040516103859190612d90565b60405180910390f35b348015610399575f80fd5b506103b460048036038101906103af9190612ecf565b611bee565b005b3480156103c1575f80fd5b506103dc60048036038101906103d79190612ecf565b611ce4565b6040516103e991906129ec565b60405180910390f35b3480156103fd575f80fd5b50610418600480360381019061041391906124f3565b611f0b565b6040516104259190612b87565b60405180910390f35b60605f8367ffffffffffffffff81111561044b5761044a612baf565b5b60405190808252806020026020018201604052801561048457816020015b61047161228e565b8152602001906001900390816104695790505b5090505f805b6004805490508110156107a4578673ffffffffffffffffffffffffffffffffffffffff16600482815481106104c2576104c1612efa565b5b905f5260205f2090600a020160050160019054906101000a900473ffffffffffffffffffffffffffffffffffffffff1673ffffffffffffffffffffffffffffffffffffffff160361079157818061051890612f54565b92505084866105279190612f9b565b821115610773576004818154811061054257610541612efa565b5b905f5260205f2090600a0201604051806101200160405290815f820154815260200160018201548152602001600282015481526020016003820154815260200160048201548152602001600582015f9054906101000a900460ff1660ff1660ff1681526020016005820160019054906101000a900473ffffffffffffffffffffffffffffffffffffffff1673ffffffffffffffffffffffffffffffffffffffff1673ffffffffffffffffffffffffffffffffffffffff168152602001600682015f9054906101000a900473ffffffffffffffffffffffffffffffffffffffff1673ffffffffffffffffffffffffffffffffffffffff1673ffffffffffffffffffffffffffffffffffffffff168152602001600782016040518060800160405290815f82015f9054906101000a900473ffffffffffffffffffffffffffffffffffffffff1673ffffffffffffffffffffffffffffffffffffffff1673ffffffffffffffffffffffffffffffffffffffff168152602001600182015f9054906101000a900473ffffffffffffffffffffffffffffffffffffffff1673ffffffffffffffffffffffffffffffffffffffff1673ffffffffffffffffffffffffffffffffffffffff1681526020016001820160149054906101000a900460ff1660028111156107305761072f6125a5565b5b6002811115610742576107416125a5565b5b81526020016002820154815250508152505083838151811061076757610766612efa565b5b60200260200101819052505b848661077f9190612f9b565b8210610790578293505050506107ab565b5b808061079c90612f54565b91505061048a565b5081925050505b9392505050565b600181815481106107c1575f80fd5b905f5260205f2090600502015f91509050805f015f9054906101000a900473ffffffffffffffffffffffffffffffffffffffff1690806001015490806002015f9054906101000a900460ff169080600301549080600401805461082390613009565b80601f016020809104026020016040519081016040528092919081815260200182805461084f90613009565b801561089a5780601f106108715761010080835404028352916020019161089a565b820191905f5260205f20905b81548152906001019060200180831161087d57829003601f168201915b5050505050905085565b6108ac612307565b5f73ffffffffffffffffffffffffffffffffffffffff1660065f3373ffffffffffffffffffffffffffffffffffffffff1673ffffffffffffffffffffffffffffffffffffffff1681526020019081526020015f205f015f9054906101000a900473ffffffffffffffffffffffffffffffffffffffff1673ffffffffffffffffffffffffffffffffffffffff1603610a41576040518060a001604052803373ffffffffffffffffffffffffffffffffffffffff1681526020015f81526020015f81526020015f815260200160405180602001604052805f81525081525060065f3373ffffffffffffffffffffffffffffffffffffffff1673ffffffffffffffffffffffffffffffffffffffff1681526020019081526020015f205f820151815f015f6101000a81548173ffffffffffffffffffffffffffffffffffffffff021916908373ffffffffffffffffffffffffffffffffffffffff1602179055506020820151816001015560408201518160020155606082015181600301556080820151816004019081610a3c91906131d6565b509050505b60065f3373ffffffffffffffffffffffffffffffffffffffff1673ffffffffffffffffffffffffffffffffffffffff1681526020019081526020015f206040518060a00160405290815f82015f9054906101000a900473ffffffffffffffffffffffffffffffffffffffff1673ffffffffffffffffffffffffffffffffffffffff1673ffffffffffffffffffffffffffffffffffffffff168152602001600182015481526020016002820154815260200160038201548152602001600482018054610b0b90613009565b80601f0160208091040260200160405190810160405280929190818152602001828054610b3790613009565b8015610b825780601f10610b5957610100808354040283529160200191610b82565b820191905f5260205f20905b815481529060010190602001808311610b6557829003601f168201915b505050505081525050905090565b60605f8367ffffffffffffffff811115610bad57610bac612baf565b5b604051908082528060200260200182016040528015610be657816020015b610bd3612348565b815260200190600190039081610bcb5790505b5090505f805b600180549050811015610e975760016003811115610c0d57610c0c6125a5565b5b60018281548110610c2157610c20612efa565b5b905f5260205f2090600502016002015f9054906101000a900460ff166003811115610c4f57610c4e6125a5565b5b1480610cae575060026003811115610c6a57610c696125a5565b5b60018281548110610c7e57610c7d612efa565b5b905f5260205f2090600502016002015f9054906101000a900460ff166003811115610cac57610cab6125a5565b5b145b15610e84578180610cbe90612f54565b9250508486610ccd9190612f9b565b821115610e665760018181548110610ce857610ce7612efa565b5b905f5260205f2090600502016040518060a00160405290815f82015f9054906101000a900473ffffffffffffffffffffffffffffffffffffffff1673ffffffffffffffffffffffffffffffffffffffff1673ffffffffffffffffffffffffffffffffffffffff16815260200160018201548152602001600282015f9054906101000a900460ff166003811115610d8157610d806125a5565b5b6003811115610d9357610d926125a5565b5b815260200160038201548152602001600482018054610db190613009565b80601f0160208091040260200160405190810160405280929190818152602001828054610ddd90613009565b8015610e285780601f10610dff57610100808354040283529160200191610e28565b820191905f5260205f20905b815481529060010190602001808311610e0b57829003601f168201915b505050505081525050838688610e3e9190612f9b565b84610e4991906132a5565b81518110610e5a57610e59612efa565b5b60200260200101819052505b8486610e729190612f9b565b8210610e8357829350505050610e9e565b5b8080610e8f90612f54565b915050610bec565b5081925050505b92915050565b5f60065f3373ffffffffffffffffffffffffffffffffffffffff1673ffffffffffffffffffffffffffffffffffffffff1681526020019081526020015f206040518060a00160405290815f82015f9054906101000a900473ffffffffffffffffffffffffffffffffffffffff1673ffffffffffffffffffffffffffffffffffffffff1673ffffffffffffffffffffffffffffffffffffffff168152602001600182015481526020016002820154815260200160038201548152602001600482018054610f6f90613009565b80601f0160208091040260200160405190810160405280929190818152602001828054610f9b90613009565b8015610fe65780601f10610fbd57610100808354040283529160200191610fe6565b820191905f5260205f20905b815481529060010190602001808311610fc957829003601f168201915b50505050508152505090508181602001511015611038576040517f08c379a000000000000000000000000000000000000000000000000000000000815260040161102f90613322565b60405180910390fd5b8160065f3373ffffffffffffffffffffffffffffffffffffffff1673ffffffffffffffffffffffffffffffffffffffff1681526020019081526020015f206001015461108491906132a5565b60065f3373ffffffffffffffffffffffffffffffffffffffff1673ffffffffffffffffffffffffffffffffffffffff1681526020019081526020015f20600101819055503373ffffffffffffffffffffffffffffffffffffffff166108fc8390811502906040515f60405180830381858888f1935050505015801561110b573d5f803e3d5ffd5b505050565b335f73ffffffffffffffffffffffffffffffffffffffff1660065f8373ffffffffffffffffffffffffffffffffffffffff1673ffffffffffffffffffffffffffffffffffffffff1681526020019081526020015f205f015f9054906101000a900473ffffffffffffffffffffffffffffffffffffffff1673ffffffffffffffffffffffffffffffffffffffff16036111dd576040517f08c379a00000000000000000000000000000000000000000000000000000000081526004016111d49061338a565b60405180910390fd5b8160065f3373ffffffffffffffffffffffffffffffffffffffff1673ffffffffffffffffffffffffffffffffffffffff1681526020019081526020015f20600401908161122a91906131d6565b505050565b335f73ffffffffffffffffffffffffffffffffffffffff1660065f8373ffffffffffffffffffffffffffffffffffffffff1673ffffffffffffffffffffffffffffffffffffffff1681526020019081526020015f205f015f9054906101000a900473ffffffffffffffffffffffffffffffffffffffff1673ffffffffffffffffffffffffffffffffffffffff16036112fc576040517f08c379a00000000000000000000000000000000000000000000000000000000081526004016112f39061338a565b60405180910390fd5b5f60065f3373ffffffffffffffffffffffffffffffffffffffff1673ffffffffffffffffffffffffffffffffffffffff1681526020019081526020015f2090505f73ffffffffffffffffffffffffffffffffffffffff16815f015f9054906101000a900473ffffffffffffffffffffffffffffffffffffffff1673ffffffffffffffffffffffffffffffffffffffff16036114b85733815f015f6101000a81548173ffffffffffffffffffffffffffffffffffffffff021916908373ffffffffffffffffffffffffffffffffffffffff1602179055503481600101819055508060065f3373ffffffffffffffffffffffffffffffffffffffff1673ffffffffffffffffffffffffffffffffffffffff1681526020019081526020015f205f82015f9054906101000a900473ffffffffffffffffffffffffffffffffffffffff16815f015f6101000a81548173ffffffffffffffffffffffffffffffffffffffff021916908373ffffffffffffffffffffffffffffffffffffffff160217905550600182015481600101556002820154816002015560038201548160030155600482018160040190816114ae91906133bd565b509050505061154a565b3460065f3373ffffffffffffffffffffffffffffffffffffffff1673ffffffffffffffffffffffffffffffffffffffff1681526020019081526020015f206001015461150491906134a2565b60065f3373ffffffffffffffffffffffffffffffffffffffff1673ffffffffffffffffffffffffffffffffffffffff1681526020019081526020015f2060010181905550505b50565b6115556121c4565b73ffffffffffffffffffffffffffffffffffffffff16611573611a4d565b73ffffffffffffffffffffffffffffffffffffffff16146115c9576040517f08c379a00000000000000000000000000000000000000000000000000000000081526004016115c09061351f565b60405180910390fd5b6115d1611a4d565b73ffffffffffffffffffffffffffffffffffffffff166108fc4790811502906040515f60405180830381858888f19350505050158015611613573d5f803e3d5ffd5b50565b60065f3373ffffffffffffffffffffffffffffffffffffffff1673ffffffffffffffffffffffffffffffffffffffff1681526020019081526020015f205f8082015f6101000a81549073ffffffffffffffffffffffffffffffffffffffff0219169055600182015f9055600282015f9055600382015f9055600482015f61169d919061239b565b5050565b6116a96121c4565b73ffffffffffffffffffffffffffffffffffffffff166116c7611a4d565b73ffffffffffffffffffffffffffffffffffffffff161461171d576040517f08c379a00000000000000000000000000000000000000000000000000000000081526004016117149061351f565b60405180910390fd5b6117265f6121cb565b565b60605f8390505f8390505f8151835161174191906134a2565b67ffffffffffffffff81111561175a57611759612baf565b5b6040519080825280601f01601f19166020018201604052801561178c5781602001600182028036833780820191505090505b5090505f805b8451811015611819578481815181106117ae576117ad612efa565b5b602001015160f81c60f81b8383806117c590612f54565b9450815181106117d8576117d7612efa565b5b60200101907effffffffffffffffffffffffffffffffffffffffffffffffffffffffffffff191690815f1a905350808061181190612f54565b915050611792565b505f5b83518110156118a35783818151811061183857611837612efa565b5b602001015160f81c60f81b83838061184f90612f54565b94508151811061186257611861612efa565b5b60200101907effffffffffffffffffffffffffffffffffffffffffffffffffffffffffffff191690815f1a905350808061189b90612f54565b91505061181c565b508194505050505092915050565b600481815481106118c0575f80fd5b905f5260205f2090600a02015f91509050805f015490806001015490806002015490806003015490806004015490806005015f9054906101000a900460ff16908060050160019054906101000a900473ffffffffffffffffffffffffffffffffffffffff1690806006015f9054906101000a900473ffffffffffffffffffffffffffffffffffffffff1690806007016040518060800160405290815f82015f9054906101000a900473ffffffffffffffffffffffffffffffffffffffff1673ffffffffffffffffffffffffffffffffffffffff1673ffffffffffffffffffffffffffffffffffffffff168152602001600182015f9054906101000a900473ffffffffffffffffffffffffffffffffffffffff1673ffffffffffffffffffffffffffffffffffffffff1673ffffffffffffffffffffffffffffffffffffffff1681526020016001820160149054906101000a900460ff166002811115611a2857611a276125a5565b5b6002811115611a3a57611a396125a5565b5b8152602001600282015481525050905089565b5f60055f9054906101000a900473ffffffffffffffffffffffffffffffffffffffff16905090565b60035f9054906101000a900460ff1681565b60605f8203611acd576040518060400160405280600181526020017f30000000000000000000000000000000000000000000000000000000000000008152509050611be9565b5f8290505f5b5f8214611afc578080611ae590612f54565b915050600a82611af5919061356a565b9150611ad3565b5f8167ffffffffffffffff811115611b1757611b16612baf565b5b6040519080825280601f01601f191660200182016040528015611b495781602001600182028036833780820191505090505b5090505f600183611b5a91906132a5565b90505b5f8614611be157600a86611b71919061359a565b6030611b7d91906134a2565b60f81b828280611b8c906135ca565b935081518110611b9f57611b9e612efa565b5b60200101907effffffffffffffffffffffffffffffffffffffffffffffffffffffffffffff191690815f1a905350600a86611bda919061356a565b9550611b5d565b819450505050505b919050565b611bf66121c4565b73ffffffffffffffffffffffffffffffffffffffff16611c14611a4d565b73ffffffffffffffffffffffffffffffffffffffff1614611c6a576040517f08c379a0000000000000000000000000000000000000000000000000000000008152600401611c619061351f565b60405180910390fd5b5f73ffffffffffffffffffffffffffffffffffffffff168173ffffffffffffffffffffffffffffffffffffffff1603611cd8576040517f08c379a0000000000000000000000000000000000000000000000000000000008152600401611ccf90613661565b60405180910390fd5b611ce1816121cb565b50565b611cec612307565b815f73ffffffffffffffffffffffffffffffffffffffff1660065f8373ffffffffffffffffffffffffffffffffffffffff1673ffffffffffffffffffffffffffffffffffffffff1681526020019081526020015f205f015f9054906101000a900473ffffffffffffffffffffffffffffffffffffffff1673ffffffffffffffffffffffffffffffffffffffff1603611db9576040517f08c379a0000000000000000000000000000000000000000000000000000000008152600401611db09061338a565b60405180910390fd5b60065f8473ffffffffffffffffffffffffffffffffffffffff1673ffffffffffffffffffffffffffffffffffffffff1681526020019081526020015f206040518060a00160405290815f82015f9054906101000a900473ffffffffffffffffffffffffffffffffffffffff1673ffffffffffffffffffffffffffffffffffffffff1673ffffffffffffffffffffffffffffffffffffffff168152602001600182015481526020016002820154815260200160038201548152602001600482018054611e8390613009565b80601f0160208091040260200160405190810160405280929190818152602001828054611eaf90613009565b8015611efa5780601f10611ed157610100808354040283529160200191611efa565b820191905f5260205f20905b815481529060010190602001808311611edd57829003601f168201915b505050505081525050915050919050565b60605f8367ffffffffffffffff811115611f2857611f27612baf565b5b604051908082528060200260200182016040528015611f6157816020015b611f4e612348565b815260200190600190039081611f465790505b5090505f805b6001805490508110156121b6578673ffffffffffffffffffffffffffffffffffffffff1660018281548110611f9f57611f9e612efa565b5b905f5260205f2090600502015f015f9054906101000a900473ffffffffffffffffffffffffffffffffffffffff1673ffffffffffffffffffffffffffffffffffffffff16036121a3578180611ff390612f54565b92505084866120029190612f9b565b821115612185576001818154811061201d5761201c612efa565b5b905f5260205f2090600502016040518060a00160405290815f82015f9054906101000a900473ffffffffffffffffffffffffffffffffffffffff1673ffffffffffffffffffffffffffffffffffffffff1673ffffffffffffffffffffffffffffffffffffffff16815260200160018201548152602001600282015f9054906101000a900460ff1660038111156120b6576120b56125a5565b5b60038111156120c8576120c76125a5565b5b8152602001600382015481526020016004820180546120e690613009565b80601f016020809104026020016040519081016040528092919081815260200182805461211290613009565b801561215d5780601f106121345761010080835404028352916020019161215d565b820191905f5260205f20905b81548152906001019060200180831161214057829003601f168201915b50505050508152505083838151811061217957612178612efa565b5b60200260200101819052505b84866121919190612f9b565b82106121a2578293505050506121bd565b5b80806121ae90612f54565b915050611f67565b5081925050505b9392505050565b5f33905090565b5f60055f9054906101000a900473ffffffffffffffffffffffffffffffffffffffff1690508160055f6101000a81548173ffffffffffffffffffffffffffffffffffffffff021916908373ffffffffffffffffffffffffffffffffffffffff1602179055508173ffffffffffffffffffffffffffffffffffffffff168173ffffffffffffffffffffffffffffffffffffffff167f8be0079c531659141344cd1fd0a4f28419497f9722a3daafe3b4186f6b6457e060405160405180910390a35050565b6040518061012001604052805f81526020015f81526020015f81526020015f81526020015f81526020015f60ff1681526020015f73ffffffffffffffffffffffffffffffffffffffff1681526020015f73ffffffffffffffffffffffffffffffffffffffff1681526020016123016123d8565b81525090565b6040518060a001604052805f73ffffffffffffffffffffffffffffffffffffffff1681526020015f81526020015f81526020015f8152602001606081525090565b6040518060a001604052805f73ffffffffffffffffffffffffffffffffffffffff1681526020015f81526020015f6003811115612388576123876125a5565b5b81526020015f8152602001606081525090565b5080546123a790613009565b5f825580601f106123b857506123d5565b601f0160209004905f5260205f20908101906123d4919061243a565b5b50565b60405180608001604052805f73ffffffffffffffffffffffffffffffffffffffff1681526020015f73ffffffffffffffffffffffffffffffffffffffff1681526020015f600281111561242e5761242d6125a5565b5b81526020015f81525090565b5b80821115612451575f815f90555060010161243b565b5090565b5f604051905090565b5f80fd5b5f80fd5b5f73ffffffffffffffffffffffffffffffffffffffff82169050919050565b5f61248f82612466565b9050919050565b61249f81612485565b81146124a9575f80fd5b50565b5f813590506124ba81612496565b92915050565b5f819050919050565b6124d2816124c0565b81146124dc575f80fd5b50565b5f813590506124ed816124c9565b92915050565b5f805f6060848603121561250a5761250961245e565b5b5f612517868287016124ac565b9350506020612528868287016124df565b9250506040612539868287016124df565b9150509250925092565b5f81519050919050565b5f82825260208201905092915050565b5f819050602082019050919050565b612575816124c0565b82525050565b5f60ff82169050919050565b6125908161257b565b82525050565b61259f81612485565b82525050565b7f4e487b71000000000000000000000000000000000000000000000000000000005f52602160045260245ffd5b600381106125e3576125e26125a5565b5b50565b5f8190506125f3826125d2565b919050565b5f612602826125e6565b9050919050565b612612816125f8565b82525050565b608082015f82015161262c5f850182612596565b50602082015161263f6020850182612596565b5060408201516126526040850182612609565b506060820151612665606085018261256c565b50505050565b61018082015f8201516126805f85018261256c565b506020820151612693602085018261256c565b5060408201516126a6604085018261256c565b5060608201516126b9606085018261256c565b5060808201516126cc608085018261256c565b5060a08201516126df60a0850182612587565b5060c08201516126f260c0850182612596565b5060e082015161270560e0850182612596565b5061010082015161271a610100850182612618565b50505050565b5f61272b838361266b565b6101808301905092915050565b5f602082019050919050565b5f61274e82612543565b612758818561254d565b93506127638361255d565b805f5b8381101561279357815161277a8882612720565b975061278583612738565b925050600181019050612766565b5085935050505092915050565b5f6020820190508181035f8301526127b88184612744565b905092915050565b5f602082840312156127d5576127d461245e565b5b5f6127e2848285016124df565b91505092915050565b6127f481612485565b82525050565b612803816124c0565b82525050565b6004811061281a576128196125a5565b5b50565b5f81905061282a82612809565b919050565b5f6128398261281d565b9050919050565b6128498161282f565b82525050565b5f81519050919050565b5f82825260208201905092915050565b5f5b8381101561288657808201518184015260208101905061286b565b5f8484015250505050565b5f601f19601f8301169050919050565b5f6128ab8261284f565b6128b58185612859565b93506128c5818560208601612869565b6128ce81612891565b840191505092915050565b5f60a0820190506128ec5f8301886127eb565b6128f960208301876127fa565b6129066040830186612840565b61291360608301856127fa565b818103608083015261292581846128a1565b90509695505050505050565b5f82825260208201905092915050565b5f61294b8261284f565b6129558185612931565b9350612965818560208601612869565b61296e81612891565b840191505092915050565b5f60a083015f83015161298e5f860182612596565b5060208301516129a1602086018261256c565b5060408301516129b4604086018261256c565b5060608301516129c7606086018261256c565b50608083015184820360808601526129df8282612941565b9150508091505092915050565b5f6020820190508181035f830152612a048184612979565b905092915050565b5f8060408385031215612a2257612a2161245e565b5b5f612a2f858286016124df565b9250506020612a40858286016124df565b9150509250929050565b5f81519050919050565b5f82825260208201905092915050565b5f819050602082019050919050565b612a7c8161282f565b82525050565b5f60a083015f830151612a975f860182612596565b506020830151612aaa602086018261256c565b506040830151612abd6040860182612a73565b506060830151612ad0606086018261256c565b5060808301518482036080860152612ae88282612941565b9150508091505092915050565b5f612b008383612a82565b905092915050565b5f602082019050919050565b5f612b1e82612a4a565b612b288185612a54565b935083602082028501612b3a85612a64565b805f5b85811015612b755784840389528151612b568582612af5565b9450612b6183612b08565b925060208a01995050600181019050612b3d565b50829750879550505050505092915050565b5f6020820190508181035f830152612b9f8184612b14565b905092915050565b5f80fd5b5f80fd5b7f4e487b71000000000000000000000000000000000000000000000000000000005f52604160045260245ffd5b612be582612891565b810181811067ffffffffffffffff82111715612c0457612c03612baf565b5b80604052505050565b5f612c16612455565b9050612c228282612bdc565b919050565b5f67ffffffffffffffff821115612c4157612c40612baf565b5b612c4a82612891565b9050602081019050919050565b828183375f83830152505050565b5f612c77612c7284612c27565b612c0d565b905082815260208101848484011115612c9357612c92612bab565b5b612c9e848285612c57565b509392505050565b5f82601f830112612cba57612cb9612ba7565b5b8135612cca848260208601612c65565b91505092915050565b5f60208284031215612ce857612ce761245e565b5b5f82013567ffffffffffffffff811115612d0557612d04612462565b5b612d1184828501612ca6565b91505092915050565b5f8060408385031215612d3057612d2f61245e565b5b5f83013567ffffffffffffffff811115612d4d57612d4c612462565b5b612d5985828601612ca6565b925050602083013567ffffffffffffffff811115612d7a57612d79612462565b5b612d8685828601612ca6565b9150509250929050565b5f6020820190508181035f830152612da881846128a1565b905092915050565b612db98161257b565b82525050565b608082015f820151612dd35f850182612596565b506020820151612de66020850182612596565b506040820151612df96040850182612609565b506060820151612e0c606085018261256c565b50505050565b5f61018082019050612e265f83018c6127fa565b612e33602083018b6127fa565b612e40604083018a6127fa565b612e4d60608301896127fa565b612e5a60808301886127fa565b612e6760a0830187612db0565b612e7460c08301866127eb565b612e8160e08301856127eb565b612e8f610100830184612dbf565b9a9950505050505050505050565b5f602082019050612eb05f8301846127eb565b92915050565b5f602082019050612ec95f830184612db0565b92915050565b5f60208284031215612ee457612ee361245e565b5b5f612ef1848285016124ac565b91505092915050565b7f4e487b71000000000000000000000000000000000000000000000000000000005f52603260045260245ffd5b7f4e487b71000000000000000000000000000000000000000000000000000000005f52601160045260245ffd5b5f612f5e826124c0565b91507fffffffffffffffffffffffffffffffffffffffffffffffffffffffffffffffff8203612f9057612f8f612f27565b5b600182019050919050565b5f612fa5826124c0565b9150612fb0836124c0565b9250828202612fbe816124c0565b91508282048414831517612fd557612fd4612f27565b5b5092915050565b7f4e487b71000000000000000000000000000000000000000000000000000000005f52602260045260245ffd5b5f600282049050600182168061302057607f821691505b60208210810361303357613032612fdc565b5b50919050565b5f819050815f5260205f209050919050565b5f6020601f8301049050919050565b5f82821b905092915050565b5f600883026130957fffffffffffffffffffffffffffffffffffffffffffffffffffffffffffffffff8261305a565b61309f868361305a565b95508019841693508086168417925050509392505050565b5f819050919050565b5f6130da6130d56130d0846124c0565b6130b7565b6124c0565b9050919050565b5f819050919050565b6130f3836130c0565b6131076130ff826130e1565b848454613066565b825550505050565b5f90565b61311b61310f565b6131268184846130ea565b505050565b5b818110156131495761313e5f82613113565b60018101905061312c565b5050565b601f82111561318e5761315f81613039565b6131688461304b565b81016020851015613177578190505b61318b6131838561304b565b83018261312b565b50505b505050565b5f82821c905092915050565b5f6131ae5f1984600802613193565b1980831691505092915050565b5f6131c6838361319f565b9150826002028217905092915050565b6131df8261284f565b67ffffffffffffffff8111156131f8576131f7612baf565b5b6132028254613009565b61320d82828561314d565b5f60209050601f83116001811461323e575f841561322c578287015190505b61323685826131bb565b86555061329d565b601f19841661324c86613039565b5f5b828110156132735784890151825560018201915060208501945060208101905061324e565b86831015613290578489015161328c601f89168261319f565b8355505b6001600288020188555050505b505050505050565b5f6132af826124c0565b91506132ba836124c0565b92508282039050818111156132d2576132d1612f27565b5b92915050565b7f616d6f756e74206e6f7420656e6f7567680000000000000000000000000000005f82015250565b5f61330c601183612859565b9150613317826132d8565b602082019050919050565b5f6020820190508181035f83015261333981613300565b9050919050565b7f6e656564207265676973746572206669727374000000000000000000000000005f82015250565b5f613374601383612859565b915061337f82613340565b602082019050919050565b5f6020820190508181035f8301526133a181613368565b9050919050565b5f815490506133b681613009565b9050919050565b8181036133cb5750506134a0565b6133d4826133a8565b67ffffffffffffffff8111156133ed576133ec612baf565b5b6133f78254613009565b61340282828561314d565b5f601f83116001811461342f575f841561341d578287015490505b61342785826131bb565b865550613499565b601f19841661343d87613039565b965061344886613039565b5f5b8281101561346f5784890154825560018201915060018501945060208101905061344a565b8683101561348c5784890154613488601f89168261319f565b8355505b6001600288020188555050505b5050505050505b565b5f6134ac826124c0565b91506134b7836124c0565b92508282019050808211156134cf576134ce612f27565b5b92915050565b7f4f776e61626c653a2063616c6c6572206973206e6f7420746865206f776e65725f82015250565b5f613509602083612859565b9150613514826134d5565b602082019050919050565b5f6020820190508181035f830152613536816134fd565b9050919050565b7f4e487b71000000000000000000000000000000000000000000000000000000005f52601260045260245ffd5b5f613574826124c0565b915061357f836124c0565b92508261358f5761358e61353d565b5b828204905092915050565b5f6135a4826124c0565b91506135af836124c0565b9250826135bf576135be61353d565b5b828206905092915050565b5f6135d4826124c0565b91505f82036135e6576135e5612f27565b5b600182039050919050565b7f4f776e61626c653a206e6577206f776e657220697320746865207a65726f20615f8201527f6464726573730000000000000000000000000000000000000000000000000000602082015250565b5f61364b602683612859565b9150613656826135f1565b604082019050919050565b5f6020820190508181035f8301526136788161363f565b905091905056fea2646970667358221220dcd458be91ddc466881aed19070d3497c1e90c0f80228271669897bec7a0b65864736f6c63430008150033",
  "immutableReferences": {},
  "source": "// SPDX-License-Identifier: SEE LICENSE IN LICENSE\npragma solidity ^0.8.0;\nimport \"./lease.sol\";\nimport \"./account.sol\";\nimport \"./device.sol\";\n\n// contract Helper is Lease, Device, Provider, Recipient {\ncontract Helper is Lease, AccountFactory {\n\n    function listDevices(uint _limit, uint _offset) public view returns (deviceInfo [] memory _allDevices){\n        deviceInfo [] memory ds = new deviceInfo [](_limit);\n        uint counter = 0;\n        for (uint i = 0; i < devices.length; i++ ) {\n            if (devices[i].status == DeviceStatus.Online || devices[i].status == DeviceStatus.Running ) {\n                counter ++;\n                if (counter > _limit * _offset) {\n                    ds[counter - _limit * _offset] = devices[i];\n                }\n\n                if  (counter >= _limit * _offset) {\n                    return ds;\n                }\n            }\n        }\n        return ds;\n    }\n\n    function listOwnDevices(address _provider, uint _limit, uint _offset) public view returns (deviceInfo [] memory _ownDevices){\n        deviceInfo [] memory ds = new deviceInfo [](_limit);\n        uint counter = 0;\n        for (uint i = 0; i < devices.length; i++ ) {\n            if (devices[i].owner == _provider) {\n                counter ++;\n                if (counter > _limit * _offset) {\n                    ds[counter] = devices[i];\n                }\n\n                if  (counter >= _limit * _offset) {\n                    return ds;\n                }\n            }\n        }\n        return ds;\n    }\n\n    function listLease(address _user, uint _limit, uint _offset) public view returns (leaseInfo [] memory leaseInfos) {\n        leaseInfo [] memory _ls = new leaseInfo [] (_limit);\n        uint counter = 0;\n        for (uint i = 0; i < leases.length; i++ ) {\n            if (leases[i].provider == _user ) {\n                counter ++;\n                if (counter > _limit * _offset) {\n                    _ls[counter] = leases[i];\n                }\n\n                if  (counter >= _limit * _offset) {\n                    return _ls;\n                }\n            }\n        }\n        return _ls;\n    }\n}",
  "sourcePath": "/Users/irongyi/solidity_project/apus_network_v0/contracts/helper.sol",
  "compiler": {
    "name": "solc",
    "version": "0.8.21+commit.d9974bed.Emscripten.clang"
  },
  "schemaVersion": "3.4.15",
  "updatedAt": "2023-09-05T02:18:00.562Z",
  "networkType": "ethereum",
  "devdoc": {
    "kind": "dev",
    "methods": {
      "owner()": {
        "details": "Returns the address of the current owner."
      },
      "renounceOwnership()": {
        "details": "Leaves the contract without owner. It will not be possible to call `onlyOwner` functions anymore. Can only be called by the current owner. NOTE: Renouncing ownership will leave the contract without an owner, thereby removing any functionality that is only available to the owner."
      },
      "transferOwnership(address)": {
        "details": "Transfers ownership of the contract to a new account (`newOwner`). Can only be called by the current owner."
      }
    },
    "version": 1
  },
  "userdoc": {
    "kind": "user",
    "methods": {},
    "version": 1
  }
}