{
  "contractName": "Lease",
  "abi": [
    {
      "inputs": [
        {
          "internalType": "uint256",
          "name": "",
          "type": "uint256"
        }
      ],
      "name": "devices",
      "outputs": [
        {
          "internalType": "address",
          "name": "owner",
          "type": "address"
        },
        {
          "internalType": "uint256",
          "name": "id",
          "type": "uint256"
        },
        {
          "internalType": "enum DeviceStatus",
          "name": "status",
          "type": "uint8"
        },
        {
          "internalType": "uint256",
          "name": "price",
          "type": "uint256"
        },
        {
          "internalType": "string",
          "name": "extraData",
          "type": "string"
        }
      ],
      "stateMutability": "view",
      "type": "function"
    },
    {
      "inputs": [
        {
          "internalType": "uint256",
          "name": "",
          "type": "uint256"
        }
      ],
      "name": "leases",
      "outputs": [
        {
          "internalType": "uint256",
          "name": "leaseId",
          "type": "uint256"
        },
        {
          "internalType": "uint256",
          "name": "startTime",
          "type": "uint256"
        },
        {
          "internalType": "uint256",
          "name": "expireTime",
          "type": "uint256"
        },
        {
          "internalType": "uint256",
          "name": "price",
          "type": "uint256"
        },
        {
          "internalType": "uint256",
          "name": "deviceId",
          "type": "uint256"
        },
        {
          "internalType": "uint8",
          "name": "platformSharingRatio",
          "type": "uint8"
        },
        {
          "internalType": "address",
          "name": "provider",
          "type": "address"
        },
        {
          "internalType": "address",
          "name": "recipient",
          "type": "address"
        },
        {
          "components": [
            {
              "internalType": "address",
              "name": "provider",
              "type": "address"
            },
            {
              "internalType": "address",
              "name": "recipient",
              "type": "address"
            },
            {
              "internalType": "enum billingStatus",
              "name": "status",
              "type": "uint8"
            },
            {
              "internalType": "uint256",
              "name": "fee",
              "type": "uint256"
            }
          ],
          "internalType": "struct billingInfo",
          "name": "billing",
          "type": "tuple"
        }
      ],
      "stateMutability": "view",
      "type": "function"
    },
    {
      "inputs": [],
      "name": "platformSharingRatio",
      "outputs": [
        {
          "internalType": "uint8",
          "name": "",
          "type": "uint8"
        }
      ],
      "stateMutability": "view",
      "type": "function"
    },
    {
      "inputs": [
        {
          "internalType": "string",
          "name": "a",
          "type": "string"
        },
        {
          "internalType": "string",
          "name": "b",
          "type": "string"
        }
      ],
      "name": "concatenateStrings",
      "outputs": [
        {
          "internalType": "string",
          "name": "",
          "type": "string"
        }
      ],
      "stateMutability": "pure",
      "type": "function"
    },
    {
      "inputs": [
        {
          "internalType": "uint256",
          "name": "number",
          "type": "uint256"
        }
      ],
      "name": "uintToString",
      "outputs": [
        {
          "internalType": "string",
          "name": "",
          "type": "string"
        }
      ],
      "stateMutability": "pure",
      "type": "function"
    }
  ],
  "bytecode": "0x60806040525f80555f6002555f60035f6101000a81548160ff021916908360ff160217905550348015610030575f80fd5b50610e6b8061003e5f395ff3fe608060405234801561000f575f80fd5b5060043610610055575f3560e01c806310ff8e31146100595780637a36b3ee1461008d5780638927a106146100bd578063c74ce95c146100f5578063e939567914610113575b5f80fd5b610073600480360381019061006e9190610717565b610143565b60405161008495949392919061088d565b60405180910390f35b6100a760048036038101906100a29190610a11565b610235565b6040516100b49190610a87565b60405180910390f35b6100d760048036038101906100d29190610717565b6103be565b6040516100ec99989796959493929190610b79565b60405180910390f35b6100fd61055a565b60405161010a9190610c04565b60405180910390f35b61012d60048036038101906101289190610717565b61056c565b60405161013a9190610a87565b60405180910390f35b60018181548110610152575f80fd5b905f5260205f2090600502015f91509050805f015f9054906101000a900473ffffffffffffffffffffffffffffffffffffffff1690806001015490806002015f9054906101000a900460ff16908060030154908060040180546101b490610c4a565b80601f01602080910402602001604051908101604052809291908181526020018280546101e090610c4a565b801561022b5780601f106102025761010080835404028352916020019161022b565b820191905f5260205f20905b81548152906001019060200180831161020e57829003601f168201915b5050505050905085565b60605f8390505f8390505f8151835161024e9190610ca7565b67ffffffffffffffff811115610267576102666108ed565b5b6040519080825280601f01601f1916602001820160405280156102995781602001600182028036833780820191505090505b5090505f805b8451811015610326578481815181106102bb576102ba610cda565b5b602001015160f81c60f81b8383806102d290610d07565b9450815181106102e5576102e4610cda565b5b60200101907effffffffffffffffffffffffffffffffffffffffffffffffffffffffffffff191690815f1a905350808061031e90610d07565b91505061029f565b505f5b83518110156103b05783818151811061034557610344610cda565b5b602001015160f81c60f81b83838061035c90610d07565b94508151811061036f5761036e610cda565b5b60200101907effffffffffffffffffffffffffffffffffffffffffffffffffffffffffffff191690815f1a90535080806103a890610d07565b915050610329565b508194505050505092915050565b600481815481106103cd575f80fd5b905f5260205f2090600a02015f91509050805f015490806001015490806002015490806003015490806004015490806005015f9054906101000a900460ff16908060050160019054906101000a900473ffffffffffffffffffffffffffffffffffffffff1690806006015f9054906101000a900473ffffffffffffffffffffffffffffffffffffffff1690806007016040518060800160405290815f82015f9054906101000a900473ffffffffffffffffffffffffffffffffffffffff1673ffffffffffffffffffffffffffffffffffffffff1673ffffffffffffffffffffffffffffffffffffffff168152602001600182015f9054906101000a900473ffffffffffffffffffffffffffffffffffffffff1673ffffffffffffffffffffffffffffffffffffffff1673ffffffffffffffffffffffffffffffffffffffff1681526020016001820160149054906101000a900460ff16600281111561053557610534610790565b5b600281111561054757610546610790565b5b8152602001600282015481525050905089565b60035f9054906101000a900460ff1681565b60605f82036105b2576040518060400160405280600181526020017f300000000000000000000000000000000000000000000000000000000000000081525090506106ce565b5f8290505f5b5f82146105e15780806105ca90610d07565b915050600a826105da9190610d7b565b91506105b8565b5f8167ffffffffffffffff8111156105fc576105fb6108ed565b5b6040519080825280601f01601f19166020018201604052801561062e5781602001600182028036833780820191505090505b5090505f60018361063f9190610dab565b90505b5f86146106c657600a866106569190610dde565b60306106629190610ca7565b60f81b82828061067190610e0e565b93508151811061068457610683610cda565b5b60200101907effffffffffffffffffffffffffffffffffffffffffffffffffffffffffffff191690815f1a905350600a866106bf9190610d7b565b9550610642565b819450505050505b919050565b5f604051905090565b5f80fd5b5f80fd5b5f819050919050565b6106f6816106e4565b8114610700575f80fd5b50565b5f81359050610711816106ed565b92915050565b5f6020828403121561072c5761072b6106dc565b5b5f61073984828501610703565b91505092915050565b5f73ffffffffffffffffffffffffffffffffffffffff82169050919050565b5f61076b82610742565b9050919050565b61077b81610761565b82525050565b61078a816106e4565b82525050565b7f4e487b71000000000000000000000000000000000000000000000000000000005f52602160045260245ffd5b600481106107ce576107cd610790565b5b50565b5f8190506107de826107bd565b919050565b5f6107ed826107d1565b9050919050565b6107fd816107e3565b82525050565b5f81519050919050565b5f82825260208201905092915050565b5f5b8381101561083a57808201518184015260208101905061081f565b5f8484015250505050565b5f601f19601f8301169050919050565b5f61085f82610803565b610869818561080d565b935061087981856020860161081d565b61088281610845565b840191505092915050565b5f60a0820190506108a05f830188610772565b6108ad6020830187610781565b6108ba60408301866107f4565b6108c76060830185610781565b81810360808301526108d98184610855565b90509695505050505050565b5f80fd5b5f80fd5b7f4e487b71000000000000000000000000000000000000000000000000000000005f52604160045260245ffd5b61092382610845565b810181811067ffffffffffffffff82111715610942576109416108ed565b5b80604052505050565b5f6109546106d3565b9050610960828261091a565b919050565b5f67ffffffffffffffff82111561097f5761097e6108ed565b5b61098882610845565b9050602081019050919050565b828183375f83830152505050565b5f6109b56109b084610965565b61094b565b9050828152602081018484840111156109d1576109d06108e9565b5b6109dc848285610995565b509392505050565b5f82601f8301126109f8576109f76108e5565b5b8135610a088482602086016109a3565b91505092915050565b5f8060408385031215610a2757610a266106dc565b5b5f83013567ffffffffffffffff811115610a4457610a436106e0565b5b610a50858286016109e4565b925050602083013567ffffffffffffffff811115610a7157610a706106e0565b5b610a7d858286016109e4565b9150509250929050565b5f6020820190508181035f830152610a9f8184610855565b905092915050565b5f60ff82169050919050565b610abc81610aa7565b82525050565b610acb81610761565b82525050565b60038110610ae257610ae1610790565b5b50565b5f819050610af282610ad1565b919050565b5f610b0182610ae5565b9050919050565b610b1181610af7565b82525050565b610b20816106e4565b82525050565b608082015f820151610b3a5f850182610ac2565b506020820151610b4d6020850182610ac2565b506040820151610b606040850182610b08565b506060820151610b736060850182610b17565b50505050565b5f61018082019050610b8d5f83018c610781565b610b9a602083018b610781565b610ba7604083018a610781565b610bb46060830189610781565b610bc16080830188610781565b610bce60a0830187610ab3565b610bdb60c0830186610772565b610be860e0830185610772565b610bf6610100830184610b26565b9a9950505050505050505050565b5f602082019050610c175f830184610ab3565b92915050565b7f4e487b71000000000000000000000000000000000000000000000000000000005f52602260045260245ffd5b5f6002820490506001821680610c6157607f821691505b602082108103610c7457610c73610c1d565b5b50919050565b7f4e487b71000000000000000000000000000000000000000000000000000000005f52601160045260245ffd5b5f610cb1826106e4565b9150610cbc836106e4565b9250828201905080821115610cd457610cd3610c7a565b5b92915050565b7f4e487b71000000000000000000000000000000000000000000000000000000005f52603260045260245ffd5b5f610d11826106e4565b91507fffffffffffffffffffffffffffffffffffffffffffffffffffffffffffffffff8203610d4357610d42610c7a565b5b600182019050919050565b7f4e487b71000000000000000000000000000000000000000000000000000000005f52601260045260245ffd5b5f610d85826106e4565b9150610d90836106e4565b925082610da057610d9f610d4e565b5b828204905092915050565b5f610db5826106e4565b9150610dc0836106e4565b9250828203905081811115610dd857610dd7610c7a565b5b92915050565b5f610de8826106e4565b9150610df3836106e4565b925082610e0357610e02610d4e565b5b828206905092915050565b5f610e18826106e4565b91505f8203610e2a57610e29610c7a565b5b60018203905091905056fea264697066735822122096540c431f75dd9b890fa0e6b32768431b0e246b8c60e90a281a9e28dd8379cd64736f6c63430008150033",
  "immutableReferences": {},
  "source": "// SPDX-License-Identifier: SEE LICENSE IN LICENSE\npragma solidity ^0.8.0;\n\nimport \"./device.sol\";\n\nenum billingStatus {unPayed, payed, unValid}\n\nstruct billingInfo {\n    address provider;\n    address recipient;\n    billingStatus status;\n    uint fee;\n}\n\nstruct leaseInfo {\n    uint leaseId;\n    uint startTime;\n    uint expireTime;\n    uint price;\n    uint deviceId;\n    uint8 platformSharingRatio;\n    address provider;\n    address recipient;\n    billingInfo billing;\n}\n\ncontract Lease is Device{\n    uint private leaseId = 0;\n    uint8 public platformSharingRatio = 0;\n\n\n    leaseInfo [] public leases;\n\n    function signLease(uint _startTime, uint _endTime, uint _devcieId, uint _price) internal {\n        deviceInfo storage device = devices[_devcieId];\n        leaseId = leaseId + 1;\n        leases.push(leaseInfo(leaseId, _startTime, _endTime, _price, _devcieId, platformSharingRatio, device.owner, msg.sender, billingInfo(device.owner, msg.sender, billingStatus.unPayed, _price * (_endTime - _startTime))));\n    }\n\n    function renewalLease(uint _leaseId, uint _period) internal {\n\n        uint _index = 0;\n        (, _index) = getLeaseInfo(_leaseId);\n        require(leases[_index].recipient == msg.sender, \"only recipient can renewal lease\");\n        require(leases[_index].expireTime > block.timestamp, \"lease always expire\");\n\n        leases[_index].expireTime = leases[_index].expireTime + _period;\n        leases[_index].billing.fee = leases[_index].billing.fee + _period * (leases[_index].expireTime- leases[_index].startTime);\n    }\n\n    function expireLease(uint _leaseId) internal returns (uint index, billingInfo memory bInfo){\n        uint _index;\n        // leaseInfo memory _lInfo;\n        (, _index) = getLeaseInfo(_leaseId);\n        \n        leases[_index].billing.status = billingStatus.payed;\n        return (_index, leases[_index].billing);\n    }\n\n    function getLeaseInfo(uint _leaseId) private view returns (leaseInfo memory info, uint index){\n        for (uint i = 0; i < leases.length; i++) {\n            if (leases[i].leaseId == _leaseId) {\n                return (leases[i], i);\n            }\n        }\n        revert(concatenateStrings(\"unknown lease_id: \", uintToString(_leaseId)));\n    }\n\n    function concatenateStrings(string memory a, string memory b) public pure returns (string memory) {\n        bytes memory strA = bytes(a);\n        bytes memory strB = bytes(b);\n\n        bytes memory result = new bytes(strA.length + strB.length);\n        \n        uint256 k = 0;\n        for (uint256 i = 0; i < strA.length; i++) {\n            result[k++] = strA[i];\n        }\n        \n        for (uint256 i = 0; i < strB.length; i++) {\n            result[k++] = strB[i];\n        }\n        \n        return string(result);\n    }\n\n    function uintToString(uint256 number) public pure returns (string memory) {\n        if (number == 0) {\n            return \"0\";\n        }\n        \n        uint256 temp = number;\n        uint256 digits;\n        \n        while (temp != 0) {\n            digits++;\n            temp /= 10;\n        }\n        \n        bytes memory buffer = new bytes(digits);\n        uint256 _index = digits - 1;\n        \n        while (number != 0) {\n            buffer[_index--] = bytes1(uint8(48 + number % 10));\n            number /= 10;\n        }\n        \n        return string(buffer);\n    }\n}\n\n// contract Billing is Lease{\n\n//     function settle(billingInfo memory _billingInfo) internal {\n\n//     }\n\n//     function invalid(billingInfo memory _billInfo) internal{\n\n//     }\n// }",
  "sourcePath": "/Users/irongyi/solidity_project/apus_network_v0/contracts/lease.sol",
  "compiler": {
    "name": "solc",
    "version": "0.8.21+commit.d9974bed.Emscripten.clang"
  },
  "schemaVersion": "3.4.15",
  "updatedAt": "2023-09-05T01:09:16.734Z",
  "devdoc": {
    "kind": "dev",
    "methods": {},
    "version": 1
  },
  "userdoc": {
    "kind": "user",
    "methods": {},
    "version": 1
  }
}