{
  "contractName": "Lease",
  "abi": [
    {
      "inputs": [
        {
          "internalType": "uint256",
          "name": "",
          "type": "uint256"
        }
      ],
      "name": "devices",
      "outputs": [
        {
          "internalType": "uint256",
          "name": "id",
          "type": "uint256"
        },
        {
          "internalType": "address",
          "name": "owner",
          "type": "address"
        },
        {
          "internalType": "enum DeviceStatus",
          "name": "status",
          "type": "uint8"
        },
        {
          "internalType": "string",
          "name": "machineId",
          "type": "string"
        },
        {
          "internalType": "string",
          "name": "serverInfo",
          "type": "string"
        },
        {
          "components": [
            {
              "internalType": "uint256",
              "name": "serverPrice",
              "type": "uint256"
            },
            {
              "internalType": "uint256",
              "name": "storagePrice",
              "type": "uint256"
            },
            {
              "internalType": "uint256",
              "name": "upbandWidth",
              "type": "uint256"
            },
            {
              "internalType": "uint256",
              "name": "downbandWidth",
              "type": "uint256"
            }
          ],
          "internalType": "struct Price",
          "name": "price",
          "type": "tuple"
        }
      ],
      "stateMutability": "view",
      "type": "function"
    },
    {
      "inputs": [
        {
          "internalType": "uint256",
          "name": "",
          "type": "uint256"
        }
      ],
      "name": "leaseProvider",
      "outputs": [
        {
          "internalType": "uint256",
          "name": "leaseId",
          "type": "uint256"
        },
        {
          "internalType": "uint256",
          "name": "startTime",
          "type": "uint256"
        },
        {
          "internalType": "uint256",
          "name": "expireTime",
          "type": "uint256"
        },
        {
          "internalType": "uint256",
          "name": "deviceId",
          "type": "uint256"
        }
      ],
      "stateMutability": "view",
      "type": "function"
    },
    {
      "inputs": [],
      "name": "platformSharingRatio",
      "outputs": [
        {
          "internalType": "uint8",
          "name": "",
          "type": "uint8"
        }
      ],
      "stateMutability": "view",
      "type": "function"
    },
    {
      "inputs": [
        {
          "internalType": "uint256",
          "name": "_startTime",
          "type": "uint256"
        },
        {
          "internalType": "uint256",
          "name": "_endTime",
          "type": "uint256"
        },
        {
          "components": [
            {
              "internalType": "uint256",
              "name": "serverPrice",
              "type": "uint256"
            },
            {
              "internalType": "uint256",
              "name": "storagePrice",
              "type": "uint256"
            },
            {
              "internalType": "uint256",
              "name": "upbandWidth",
              "type": "uint256"
            },
            {
              "internalType": "uint256",
              "name": "downbandWidth",
              "type": "uint256"
            }
          ],
          "internalType": "struct Price",
          "name": "_price",
          "type": "tuple"
        }
      ],
      "name": "providerStakeCalcute",
      "outputs": [
        {
          "internalType": "uint256",
          "name": "",
          "type": "uint256"
        }
      ],
      "stateMutability": "pure",
      "type": "function"
    },
    {
      "inputs": [
        {
          "internalType": "string",
          "name": "a",
          "type": "string"
        },
        {
          "internalType": "string",
          "name": "b",
          "type": "string"
        }
      ],
      "name": "concatenateStrings",
      "outputs": [
        {
          "internalType": "string",
          "name": "",
          "type": "string"
        }
      ],
      "stateMutability": "pure",
      "type": "function"
    },
    {
      "inputs": [
        {
          "internalType": "uint256",
          "name": "number",
          "type": "uint256"
        }
      ],
      "name": "uintToString",
      "outputs": [
        {
          "internalType": "string",
          "name": "",
          "type": "string"
        }
      ],
      "stateMutability": "pure",
      "type": "function"
    }
  ],
  "bytecode": "0x60806040525f80555f6002555f60035f6101000a81548160ff021916908360ff160217905550348015610030575f80fd5b50610ebf8061003e5f395ff3fe608060405234801561000f575f80fd5b5060043610610060575f3560e01c806310ff8e31146100645780637a36b3ee14610099578063a3a4aff4146100c9578063c46dcec5146100f9578063c74ce95c1461012c578063e93956791461014a575b5f80fd5b61007e600480360381019061007991906106cf565b61017a565b604051610090969594939291906108a7565b60405180910390f35b6100b360048036038101906100ae9190610a41565b61032a565b6040516100c09190610ab7565b60405180910390f35b6100e360048036038101906100de9190610b50565b6104b3565b6040516100f09190610ba0565b60405180910390f35b610113600480360381019061010e91906106cf565b6104d7565b6040516101239493929190610bb9565b60405180910390f35b610134610512565b6040516101419190610c17565b60405180910390f35b610164600480360381019061015f91906106cf565b610524565b6040516101719190610ab7565b60405180910390f35b60018181548110610189575f80fd5b905f5260205f2090600802015f91509050805f015490806001015f9054906101000a900473ffffffffffffffffffffffffffffffffffffffff16908060010160149054906101000a900460ff16908060020180546101e690610c5d565b80601f016020809104026020016040519081016040528092919081815260200182805461021290610c5d565b801561025d5780601f106102345761010080835404028352916020019161025d565b820191905f5260205f20905b81548152906001019060200180831161024057829003601f168201915b50505050509080600301805461027290610c5d565b80601f016020809104026020016040519081016040528092919081815260200182805461029e90610c5d565b80156102e95780601f106102c0576101008083540402835291602001916102e9565b820191905f5260205f20905b8154815290600101906020018083116102cc57829003601f168201915b505050505090806004016040518060800160405290815f82015481526020016001820154815260200160028201548152602001600382015481525050905086565b60605f8390505f8390505f815183516103439190610cba565b67ffffffffffffffff81111561035c5761035b61091d565b5b6040519080825280601f01601f19166020018201604052801561038e5781602001600182028036833780820191505090505b5090505f805b845181101561041b578481815181106103b0576103af610ced565b5b602001015160f81c60f81b8383806103c790610d1a565b9450815181106103da576103d9610ced565b5b60200101907effffffffffffffffffffffffffffffffffffffffffffffffffffffffffffff191690815f1a905350808061041390610d1a565b915050610394565b505f5b83518110156104a55783818151811061043a57610439610ced565b5b602001015160f81c60f81b83838061045190610d1a565b94508151811061046457610463610ced565b5b60200101907effffffffffffffffffffffffffffffffffffffffffffffffffffffffffffff191690815f1a905350808061049d90610d1a565b91505061041e565b508194505050505092915050565b5f83836104c09190610d61565b825f01516104ce9190610d94565b90509392505050565b600481815481106104e6575f80fd5b905f5260205f2090600402015f91509050805f0154908060010154908060020154908060030154905084565b60035f9054906101000a900460ff1681565b60605f820361056a576040518060400160405280600181526020017f30000000000000000000000000000000000000000000000000000000000000008152509050610686565b5f8290505f5b5f821461059957808061058290610d1a565b915050600a826105929190610e02565b9150610570565b5f8167ffffffffffffffff8111156105b4576105b361091d565b5b6040519080825280601f01601f1916602001820160405280156105e65781602001600182028036833780820191505090505b5090505f6001836105f79190610d61565b90505b5f861461067e57600a8661060e9190610e32565b603061061a9190610cba565b60f81b82828061062990610e62565b93508151811061063c5761063b610ced565b5b60200101907effffffffffffffffffffffffffffffffffffffffffffffffffffffffffffff191690815f1a905350600a866106779190610e02565b95506105fa565b819450505050505b919050565b5f604051905090565b5f80fd5b5f80fd5b5f819050919050565b6106ae8161069c565b81146106b8575f80fd5b50565b5f813590506106c9816106a5565b92915050565b5f602082840312156106e4576106e3610694565b5b5f6106f1848285016106bb565b91505092915050565b6107038161069c565b82525050565b5f73ffffffffffffffffffffffffffffffffffffffff82169050919050565b5f61073282610709565b9050919050565b61074281610728565b82525050565b7f4e487b71000000000000000000000000000000000000000000000000000000005f52602160045260245ffd5b6004811061078657610785610748565b5b50565b5f81905061079682610775565b919050565b5f6107a582610789565b9050919050565b6107b58161079b565b82525050565b5f81519050919050565b5f82825260208201905092915050565b5f5b838110156107f25780820151818401526020810190506107d7565b5f8484015250505050565b5f601f19601f8301169050919050565b5f610817826107bb565b61082181856107c5565b93506108318185602086016107d5565b61083a816107fd565b840191505092915050565b61084e8161069c565b82525050565b608082015f8201516108685f850182610845565b50602082015161087b6020850182610845565b50604082015161088e6040850182610845565b5060608201516108a16060850182610845565b50505050565b5f610120820190506108bb5f8301896106fa565b6108c86020830188610739565b6108d560408301876107ac565b81810360608301526108e7818661080d565b905081810360808301526108fb818561080d565b905061090a60a0830184610854565b979650505050505050565b5f80fd5b5f80fd5b7f4e487b71000000000000000000000000000000000000000000000000000000005f52604160045260245ffd5b610953826107fd565b810181811067ffffffffffffffff821117156109725761097161091d565b5b80604052505050565b5f61098461068b565b9050610990828261094a565b919050565b5f67ffffffffffffffff8211156109af576109ae61091d565b5b6109b8826107fd565b9050602081019050919050565b828183375f83830152505050565b5f6109e56109e084610995565b61097b565b905082815260208101848484011115610a0157610a00610919565b5b610a0c8482856109c5565b509392505050565b5f82601f830112610a2857610a27610915565b5b8135610a388482602086016109d3565b91505092915050565b5f8060408385031215610a5757610a56610694565b5b5f83013567ffffffffffffffff811115610a7457610a73610698565b5b610a8085828601610a14565b925050602083013567ffffffffffffffff811115610aa157610aa0610698565b5b610aad85828601610a14565b9150509250929050565b5f6020820190508181035f830152610acf818461080d565b905092915050565b5f80fd5b5f60808284031215610af057610aef610ad7565b5b610afa608061097b565b90505f610b09848285016106bb565b5f830152506020610b1c848285016106bb565b6020830152506040610b30848285016106bb565b6040830152506060610b44848285016106bb565b60608301525092915050565b5f805f60c08486031215610b6757610b66610694565b5b5f610b74868287016106bb565b9350506020610b85868287016106bb565b9250506040610b9686828701610adb565b9150509250925092565b5f602082019050610bb35f8301846106fa565b92915050565b5f608082019050610bcc5f8301876106fa565b610bd960208301866106fa565b610be660408301856106fa565b610bf360608301846106fa565b95945050505050565b5f60ff82169050919050565b610c1181610bfc565b82525050565b5f602082019050610c2a5f830184610c08565b92915050565b7f4e487b71000000000000000000000000000000000000000000000000000000005f52602260045260245ffd5b5f6002820490506001821680610c7457607f821691505b602082108103610c8757610c86610c30565b5b50919050565b7f4e487b71000000000000000000000000000000000000000000000000000000005f52601160045260245ffd5b5f610cc48261069c565b9150610ccf8361069c565b9250828201905080821115610ce757610ce6610c8d565b5b92915050565b7f4e487b71000000000000000000000000000000000000000000000000000000005f52603260045260245ffd5b5f610d248261069c565b91507fffffffffffffffffffffffffffffffffffffffffffffffffffffffffffffffff8203610d5657610d55610c8d565b5b600182019050919050565b5f610d6b8261069c565b9150610d768361069c565b9250828203905081811115610d8e57610d8d610c8d565b5b92915050565b5f610d9e8261069c565b9150610da98361069c565b9250828202610db78161069c565b91508282048414831517610dce57610dcd610c8d565b5b5092915050565b7f4e487b71000000000000000000000000000000000000000000000000000000005f52601260045260245ffd5b5f610e0c8261069c565b9150610e178361069c565b925082610e2757610e26610dd5565b5b828204905092915050565b5f610e3c8261069c565b9150610e478361069c565b925082610e5757610e56610dd5565b5b828206905092915050565b5f610e6c8261069c565b91505f8203610e7e57610e7d610c8d565b5b60018203905091905056fea2646970667358221220efefefbbc79cd4a8ad8795571aee444393d93e01f83d6f7ff4e87ef465effe5564736f6c63430008150033",
  "immutableReferences": {},
  "source": "// SPDX-License-Identifier: SEE LICENSE IN LICENSE\npragma solidity ^0.8.0;\n\nimport \"./device.sol\";\n\nenum leaseType {Machine, Developer}\nenum billingStatus {unPayed, payed, unValid}\n\nstruct billingInfo {\n    address provider;\n    address recipient;\n    billingStatus status;\n    uint fee;\n}\n\nstruct providerLeaseInfo {\n    uint leaseId;\n    uint startTime;\n    uint expireTime;\n    uint deviceId;\n}\n\ncontract Lease is Device{\n    uint private leaseId = 0;\n    uint8 public platformSharingRatio = 0;\n\n\n    providerLeaseInfo [] public leaseProvider;\n    // leaseInfo [] public leaseDeveloper;\n\n    function onlineLease(uint _devcieId, uint _startTime, uint _endTime) internal returns(uint){\n        leaseId = leaseId + 1;\n        // deviceInfo memory device = devices[_devcieId];\n        leaseProvider.push(providerLeaseInfo(leaseId, _startTime, _endTime, _devcieId));\n        return leaseId;\n    }\n\n    function providerStakeCalcute(uint _startTime, uint _endTime, Price memory _price) pure public returns(uint) {\n        return _price.serverPrice * (_endTime - _startTime);\n    }\n\n\n    // function renewalLease(uint _leaseId, uint _period) internal {\n\n    //     uint _index = 0;\n    //     (, _index) = getLeaseInfo(_leaseId);\n    //     require(leases[_index].recipient == msg.sender, \"only recipient can renewal lease\");\n    //     require(leases[_index].expireTime > block.timestamp, \"lease always expire\");\n\n    //     leases[_index].expireTime = leases[_index].expireTime + _period;\n    //     leases[_index].billing.fee = leases[_index].billing.fee + _period * (leases[_index].expireTime- leases[_index].startTime);\n    // }\n\n    // function expireLease(uint _leaseId) internal returns (uint index, billingInfo memory bInfo){\n    //     uint _index;\n    //     // leaseInfo memory _lInfo;\n    //     (, _index) = getLeaseInfo(_leaseId);\n        \n    //     leases[_index].billing.status = billingStatus.payed;\n    //     return (_index, leases[_index].billing);\n    // }\n\n    // function getLeaseInfo(uint _leaseId) private view returns (leaseInfo memory info, uint index){\n    //     for (uint i = 0; i < leases.length; i++) {\n    //         if (leases[i].leaseId == _leaseId) {\n    //             return (leases[i], i);\n    //         }\n    //     }\n    //     revert(concatenateStrings(\"unknown lease_id: \", uintToString(_leaseId)));\n    // }\n\n    function concatenateStrings(string memory a, string memory b) public pure returns (string memory) {\n        bytes memory strA = bytes(a);\n        bytes memory strB = bytes(b);\n\n        bytes memory result = new bytes(strA.length + strB.length);\n        \n        uint256 k = 0;\n        for (uint256 i = 0; i < strA.length; i++) {\n            result[k++] = strA[i];\n        }\n        \n        for (uint256 i = 0; i < strB.length; i++) {\n            result[k++] = strB[i];\n        }\n        \n        return string(result);\n    }\n\n    function uintToString(uint256 number) public pure returns (string memory) {\n        if (number == 0) {\n            return \"0\";\n        }\n        \n        uint256 temp = number;\n        uint256 digits;\n        \n        while (temp != 0) {\n            digits++;\n            temp /= 10;\n        }\n        \n        bytes memory buffer = new bytes(digits);\n        uint256 _index = digits - 1;\n        \n        while (number != 0) {\n            buffer[_index--] = bytes1(uint8(48 + number % 10));\n            number /= 10;\n        }\n        \n        return string(buffer);\n    }\n}\n\n// contract Billing is Lease{\n\n//     function settle(billingInfo memory _billingInfo) internal {\n\n//     }\n\n//     function invalid(billingInfo memory _billInfo) internal{\n\n//     }\n// }",
  "sourcePath": "/Users/irongyi/solidity_project/apus_network_v0/contracts/lease.sol",
  "compiler": {
    "name": "solc",
    "version": "0.8.21+commit.d9974bed.Emscripten.clang"
  },
  "schemaVersion": "3.4.15",
  "updatedAt": "2023-09-05T13:08:19.201Z",
  "devdoc": {
    "kind": "dev",
    "methods": {},
    "version": 1
  },
  "userdoc": {
    "kind": "user",
    "methods": {},
    "version": 1
  }
}