{
  "contractName": "Lease",
  "abi": [
    {
      "inputs": [
        {
          "internalType": "uint256",
          "name": "",
          "type": "uint256"
        }
      ],
      "name": "devices",
      "outputs": [
        {
          "internalType": "uint256",
          "name": "id",
          "type": "uint256"
        },
        {
          "internalType": "address",
          "name": "owner",
          "type": "address"
        },
        {
          "internalType": "enum DeviceStatus",
          "name": "status",
          "type": "uint8"
        },
        {
          "internalType": "string",
          "name": "machineId",
          "type": "string"
        },
        {
          "internalType": "string",
          "name": "serverInfo",
          "type": "string"
        },
        {
          "components": [
            {
              "internalType": "uint256",
              "name": "serverPrice",
              "type": "uint256"
            },
            {
              "internalType": "uint256",
              "name": "storagePrice",
              "type": "uint256"
            },
            {
              "internalType": "uint256",
              "name": "upbandWidth",
              "type": "uint256"
            },
            {
              "internalType": "uint256",
              "name": "downbandWidth",
              "type": "uint256"
            }
          ],
          "internalType": "struct Price",
          "name": "price",
          "type": "tuple"
        }
      ],
      "stateMutability": "view",
      "type": "function"
    },
    {
      "inputs": [
        {
          "internalType": "uint256",
          "name": "",
          "type": "uint256"
        }
      ],
      "name": "leaseProvider",
      "outputs": [
        {
          "internalType": "uint256",
          "name": "leaseId",
          "type": "uint256"
        },
        {
          "internalType": "uint256",
          "name": "startTime",
          "type": "uint256"
        },
        {
          "internalType": "uint256",
          "name": "expireTime",
          "type": "uint256"
        },
        {
          "internalType": "uint256",
          "name": "deviceId",
          "type": "uint256"
        }
      ],
      "stateMutability": "view",
      "type": "function"
    },
    {
      "inputs": [],
      "name": "platformSharingRatio",
      "outputs": [
        {
          "internalType": "uint8",
          "name": "",
          "type": "uint8"
        }
      ],
      "stateMutability": "view",
      "type": "function"
    },
    {
      "inputs": [
        {
          "internalType": "uint256",
          "name": "_startTime",
          "type": "uint256"
        },
        {
          "internalType": "uint256",
          "name": "_endTime",
          "type": "uint256"
        },
        {
          "components": [
            {
              "internalType": "uint256",
              "name": "serverPrice",
              "type": "uint256"
            },
            {
              "internalType": "uint256",
              "name": "storagePrice",
              "type": "uint256"
            },
            {
              "internalType": "uint256",
              "name": "upbandWidth",
              "type": "uint256"
            },
            {
              "internalType": "uint256",
              "name": "downbandWidth",
              "type": "uint256"
            }
          ],
          "internalType": "struct Price",
          "name": "_price",
          "type": "tuple"
        }
      ],
      "name": "providerStakeCalcute",
      "outputs": [
        {
          "internalType": "uint256",
          "name": "",
          "type": "uint256"
        }
      ],
      "stateMutability": "pure",
      "type": "function"
    },
    {
      "inputs": [
        {
          "internalType": "uint256",
          "name": "_deviceId",
          "type": "uint256"
        }
      ],
      "name": "getLeaseByDeviceId",
      "outputs": [
        {
          "components": [
            {
              "internalType": "uint256",
              "name": "leaseId",
              "type": "uint256"
            },
            {
              "internalType": "uint256",
              "name": "startTime",
              "type": "uint256"
            },
            {
              "internalType": "uint256",
              "name": "expireTime",
              "type": "uint256"
            },
            {
              "internalType": "uint256",
              "name": "deviceId",
              "type": "uint256"
            }
          ],
          "internalType": "struct providerLeaseInfo",
          "name": "",
          "type": "tuple"
        }
      ],
      "stateMutability": "view",
      "type": "function"
    },
    {
      "inputs": [
        {
          "internalType": "string",
          "name": "a",
          "type": "string"
        },
        {
          "internalType": "string",
          "name": "b",
          "type": "string"
        }
      ],
      "name": "concatenateStrings",
      "outputs": [
        {
          "internalType": "string",
          "name": "",
          "type": "string"
        }
      ],
      "stateMutability": "pure",
      "type": "function"
    },
    {
      "inputs": [
        {
          "internalType": "uint256",
          "name": "number",
          "type": "uint256"
        }
      ],
      "name": "uintToString",
      "outputs": [
        {
          "internalType": "string",
          "name": "",
          "type": "string"
        }
      ],
      "stateMutability": "pure",
      "type": "function"
    }
  ],
  "bytecode": "0x60806040525f80555f6002555f60035f6101000a81548160ff021916908360ff160217905550348015610030575f80fd5b506110f18061003e5f395ff3fe608060405234801561000f575f80fd5b506004361061007b575f3560e01c8063c46dcec511610059578063c46dcec514610114578063c74ce95c14610147578063d67b9afd14610165578063e9395679146101955761007b565b806310ff8e311461007f5780637a36b3ee146100b4578063a3a4aff4146100e4575b5f80fd5b6100996004803603810190610094919061082d565b6101c5565b6040516100ab96959493929190610a05565b60405180910390f35b6100ce60048036038101906100c99190610b9f565b610375565b6040516100db9190610c15565b60405180910390f35b6100fe60048036038101906100f99190610cae565b6104fe565b60405161010b9190610cfe565b60405180910390f35b61012e6004803603810190610129919061082d565b610522565b60405161013e9493929190610d17565b60405180910390f35b61014f61055d565b60405161015c9190610d75565b60405180910390f35b61017f600480360381019061017a919061082d565b61056f565b60405161018c9190610de1565b60405180910390f35b6101af60048036038101906101aa919061082d565b61065e565b6040516101bc9190610c15565b60405180910390f35b600181815481106101d4575f80fd5b905f5260205f2090600802015f91509050805f015490806001015f9054906101000a900473ffffffffffffffffffffffffffffffffffffffff16908060010160149054906101000a900460ff169080600201805461023190610e27565b80601f016020809104026020016040519081016040528092919081815260200182805461025d90610e27565b80156102a85780601f1061027f576101008083540402835291602001916102a8565b820191905f5260205f20905b81548152906001019060200180831161028b57829003601f168201915b5050505050908060030180546102bd90610e27565b80601f01602080910402602001604051908101604052809291908181526020018280546102e990610e27565b80156103345780601f1061030b57610100808354040283529160200191610334565b820191905f5260205f20905b81548152906001019060200180831161031757829003601f168201915b505050505090806004016040518060800160405290815f82015481526020016001820154815260200160028201548152602001600382015481525050905086565b60605f8390505f8390505f8151835161038e9190610e84565b67ffffffffffffffff8111156103a7576103a6610a7b565b5b6040519080825280601f01601f1916602001820160405280156103d95781602001600182028036833780820191505090505b5090505f805b8451811015610466578481815181106103fb576103fa610eb7565b5b602001015160f81c60f81b83838061041290610ee4565b94508151811061042557610424610eb7565b5b60200101907effffffffffffffffffffffffffffffffffffffffffffffffffffffffffffff191690815f1a905350808061045e90610ee4565b9150506103df565b505f5b83518110156104f05783818151811061048557610484610eb7565b5b602001015160f81c60f81b83838061049c90610ee4565b9450815181106104af576104ae610eb7565b5b60200101907effffffffffffffffffffffffffffffffffffffffffffffffffffffffffffff191690815f1a90535080806104e890610ee4565b915050610469565b508194505050505092915050565b5f838361050b9190610f2b565b825f01516105199190610f5e565b90509392505050565b60048181548110610531575f80fd5b905f5260205f2090600402015f91509050805f0154908060010154908060020154908060030154905084565b60035f9054906101000a900460ff1681565b6105776107c5565b5f5b60048054905081101561061d57826004828154811061059b5761059a610eb7565b5b905f5260205f209060040201600301540361060a57600481815481106105c4576105c3610eb7565b5b905f5260205f2090600402016040518060800160405290815f82015481526020016001820154815260200160028201548152602001600382015481525050915050610659565b808061061590610ee4565b915050610579565b506040517f08c379a000000000000000000000000000000000000000000000000000000000815260040161065090610fe9565b60405180910390fd5b919050565b60605f82036106a4576040518060400160405280600181526020017f300000000000000000000000000000000000000000000000000000000000000081525090506107c0565b5f8290505f5b5f82146106d35780806106bc90610ee4565b915050600a826106cc9190611034565b91506106aa565b5f8167ffffffffffffffff8111156106ee576106ed610a7b565b5b6040519080825280601f01601f1916602001820160405280156107205781602001600182028036833780820191505090505b5090505f6001836107319190610f2b565b90505b5f86146107b857600a866107489190611064565b60306107549190610e84565b60f81b82828061076390611094565b93508151811061077657610775610eb7565b5b60200101907effffffffffffffffffffffffffffffffffffffffffffffffffffffffffffff191690815f1a905350600a866107b19190611034565b9550610734565b819450505050505b919050565b60405180608001604052805f81526020015f81526020015f81526020015f81525090565b5f604051905090565b5f80fd5b5f80fd5b5f819050919050565b61080c816107fa565b8114610816575f80fd5b50565b5f8135905061082781610803565b92915050565b5f60208284031215610842576108416107f2565b5b5f61084f84828501610819565b91505092915050565b610861816107fa565b82525050565b5f73ffffffffffffffffffffffffffffffffffffffff82169050919050565b5f61089082610867565b9050919050565b6108a081610886565b82525050565b7f4e487b71000000000000000000000000000000000000000000000000000000005f52602160045260245ffd5b600481106108e4576108e36108a6565b5b50565b5f8190506108f4826108d3565b919050565b5f610903826108e7565b9050919050565b610913816108f9565b82525050565b5f81519050919050565b5f82825260208201905092915050565b5f5b83811015610950578082015181840152602081019050610935565b5f8484015250505050565b5f601f19601f8301169050919050565b5f61097582610919565b61097f8185610923565b935061098f818560208601610933565b6109988161095b565b840191505092915050565b6109ac816107fa565b82525050565b608082015f8201516109c65f8501826109a3565b5060208201516109d960208501826109a3565b5060408201516109ec60408501826109a3565b5060608201516109ff60608501826109a3565b50505050565b5f61012082019050610a195f830189610858565b610a266020830188610897565b610a33604083018761090a565b8181036060830152610a45818661096b565b90508181036080830152610a59818561096b565b9050610a6860a08301846109b2565b979650505050505050565b5f80fd5b5f80fd5b7f4e487b71000000000000000000000000000000000000000000000000000000005f52604160045260245ffd5b610ab18261095b565b810181811067ffffffffffffffff82111715610ad057610acf610a7b565b5b80604052505050565b5f610ae26107e9565b9050610aee8282610aa8565b919050565b5f67ffffffffffffffff821115610b0d57610b0c610a7b565b5b610b168261095b565b9050602081019050919050565b828183375f83830152505050565b5f610b43610b3e84610af3565b610ad9565b905082815260208101848484011115610b5f57610b5e610a77565b5b610b6a848285610b23565b509392505050565b5f82601f830112610b8657610b85610a73565b5b8135610b96848260208601610b31565b91505092915050565b5f8060408385031215610bb557610bb46107f2565b5b5f83013567ffffffffffffffff811115610bd257610bd16107f6565b5b610bde85828601610b72565b925050602083013567ffffffffffffffff811115610bff57610bfe6107f6565b5b610c0b85828601610b72565b9150509250929050565b5f6020820190508181035f830152610c2d818461096b565b905092915050565b5f80fd5b5f60808284031215610c4e57610c4d610c35565b5b610c586080610ad9565b90505f610c6784828501610819565b5f830152506020610c7a84828501610819565b6020830152506040610c8e84828501610819565b6040830152506060610ca284828501610819565b60608301525092915050565b5f805f60c08486031215610cc557610cc46107f2565b5b5f610cd286828701610819565b9350506020610ce386828701610819565b9250506040610cf486828701610c39565b9150509250925092565b5f602082019050610d115f830184610858565b92915050565b5f608082019050610d2a5f830187610858565b610d376020830186610858565b610d446040830185610858565b610d516060830184610858565b95945050505050565b5f60ff82169050919050565b610d6f81610d5a565b82525050565b5f602082019050610d885f830184610d66565b92915050565b608082015f820151610da25f8501826109a3565b506020820151610db560208501826109a3565b506040820151610dc860408501826109a3565b506060820151610ddb60608501826109a3565b50505050565b5f608082019050610df45f830184610d8e565b92915050565b7f4e487b71000000000000000000000000000000000000000000000000000000005f52602260045260245ffd5b5f6002820490506001821680610e3e57607f821691505b602082108103610e5157610e50610dfa565b5b50919050565b7f4e487b71000000000000000000000000000000000000000000000000000000005f52601160045260245ffd5b5f610e8e826107fa565b9150610e99836107fa565b9250828201905080821115610eb157610eb0610e57565b5b92915050565b7f4e487b71000000000000000000000000000000000000000000000000000000005f52603260045260245ffd5b5f610eee826107fa565b91507fffffffffffffffffffffffffffffffffffffffffffffffffffffffffffffffff8203610f2057610f1f610e57565b5b600182019050919050565b5f610f35826107fa565b9150610f40836107fa565b9250828203905081811115610f5857610f57610e57565b5b92915050565b5f610f68826107fa565b9150610f73836107fa565b9250828202610f81816107fa565b91508282048414831517610f9857610f97610e57565b5b5092915050565b7f63616e27742066696e64206c65617365210000000000000000000000000000005f82015250565b5f610fd3601183610923565b9150610fde82610f9f565b602082019050919050565b5f6020820190508181035f83015261100081610fc7565b9050919050565b7f4e487b71000000000000000000000000000000000000000000000000000000005f52601260045260245ffd5b5f61103e826107fa565b9150611049836107fa565b92508261105957611058611007565b5b828204905092915050565b5f61106e826107fa565b9150611079836107fa565b92508261108957611088611007565b5b828206905092915050565b5f61109e826107fa565b91505f82036110b0576110af610e57565b5b60018203905091905056fea26469706673582212207079f03b63e9d3562f096e29e8274396bbdec78a5132891ba024e05a8e9eb9e664736f6c63430008150033",
  "immutableReferences": {},
  "source": "// SPDX-License-Identifier: SEE LICENSE IN LICENSE\npragma solidity ^0.8.0;\n\nimport \"./device.sol\";\n\nenum leaseType {Machine, Developer}\nenum billingStatus {unPayed, payed, unValid}\n\nstruct billingInfo {\n    address provider;\n    address recipient;\n    billingStatus status;\n    uint fee;\n}\n\nstruct providerLeaseInfo {\n    uint leaseId;\n    uint startTime;\n    uint expireTime;\n    uint deviceId;\n}\n\nstruct providerBilling {\n    address provider;\n    \n    \n}\n\ncontract Lease is Device{\n    uint private leaseId = 0;\n    uint8 public platformSharingRatio = 0;\n\n\n    providerLeaseInfo [] public leaseProvider;\n    // leaseInfo [] public leaseDeveloper;\n\n    function onlineLease(uint _devcieId, uint _startTime, uint _endTime) internal returns(uint){\n        leaseId = leaseId + 1;\n        // deviceInfo memory device = devices[_devcieId];\n        leaseProvider.push(providerLeaseInfo(leaseId, _startTime, _endTime, _devcieId));\n        return leaseId;\n    }\n\n    function providerStakeCalcute(uint _startTime, uint _endTime, Price memory _price) pure public returns(uint) {\n        return _price.serverPrice * (_endTime - _startTime);\n    }\n\n    function offlineLease(uint _deviceId) internal returns(uint) {\n        providerLeaseInfo memory providerLease = getLeaseByDeviceId(_deviceId);\n\n    }\n\n    function getLeaseByDeviceId(uint _deviceId) view public returns(providerLeaseInfo memory) {\n        for (uint i = 0; i < leaseProvider.length; i++) {\n            if (leaseProvider[i].deviceId == _deviceId) {\n                return leaseProvider[i];\n            }\n        }\n\n        revert(\"can't find lease!\");\n    }\n\n\n    // function renewalLease(uint _leaseId, uint _period) internal {\n\n    //     uint _index = 0;\n    //     (, _index) = getLeaseInfo(_leaseId);\n    //     require(leases[_index].recipient == msg.sender, \"only recipient can renewal lease\");\n    //     require(leases[_index].expireTime > block.timestamp, \"lease always expire\");\n\n    //     leases[_index].expireTime = leases[_index].expireTime + _period;\n    //     leases[_index].billing.fee = leases[_index].billing.fee + _period * (leases[_index].expireTime- leases[_index].startTime);\n    // }\n\n    // function expireLease(uint _leaseId) internal returns (uint index, billingInfo memory bInfo){\n    //     uint _index;\n    //     // leaseInfo memory _lInfo;\n    //     (, _index) = getLeaseInfo(_leaseId);\n        \n    //     leases[_index].billing.status = billingStatus.payed;\n    //     return (_index, leases[_index].billing);\n    // }\n\n    // function getLeaseInfo(uint _leaseId) private view returns (leaseInfo memory info, uint index){\n    //     for (uint i = 0; i < leases.length; i++) {\n    //         if (leases[i].leaseId == _leaseId) {\n    //             return (leases[i], i);\n    //         }\n    //     }\n    //     revert(concatenateStrings(\"unknown lease_id: \", uintToString(_leaseId)));\n    // }\n\n    function concatenateStrings(string memory a, string memory b) public pure returns (string memory) {\n        bytes memory strA = bytes(a);\n        bytes memory strB = bytes(b);\n\n        bytes memory result = new bytes(strA.length + strB.length);\n        \n        uint256 k = 0;\n        for (uint256 i = 0; i < strA.length; i++) {\n            result[k++] = strA[i];\n        }\n        \n        for (uint256 i = 0; i < strB.length; i++) {\n            result[k++] = strB[i];\n        }\n        \n        return string(result);\n    }\n\n    function uintToString(uint256 number) public pure returns (string memory) {\n        if (number == 0) {\n            return \"0\";\n        }\n        \n        uint256 temp = number;\n        uint256 digits;\n        \n        while (temp != 0) {\n            digits++;\n            temp /= 10;\n        }\n        \n        bytes memory buffer = new bytes(digits);\n        uint256 _index = digits - 1;\n        \n        while (number != 0) {\n            buffer[_index--] = bytes1(uint8(48 + number % 10));\n            number /= 10;\n        }\n        \n        return string(buffer);\n    }\n}\n\n// contract Billing is Lease{\n\n//     function settle(billingInfo memory _billingInfo) internal {\n\n//     }\n\n//     function invalid(billingInfo memory _billInfo) internal{\n\n//     }\n// }",
  "sourcePath": "/Users/irongyi/solidity_project/apus_network_v0/contracts/lease.sol",
  "compiler": {
    "name": "solc",
    "version": "0.8.21+commit.d9974bed.Emscripten.clang"
  },
  "schemaVersion": "3.4.15",
  "updatedAt": "2023-09-06T03:42:14.627Z",
  "devdoc": {
    "kind": "dev",
    "methods": {},
    "version": 1
  },
  "userdoc": {
    "kind": "user",
    "methods": {},
    "version": 1
  }
}