{
  "contractName": "Lease",
  "abi": [
    {
      "inputs": [
        {
          "internalType": "uint256",
          "name": "",
          "type": "uint256"
        }
      ],
      "name": "devices",
      "outputs": [
        {
          "internalType": "uint256",
          "name": "id",
          "type": "uint256"
        },
        {
          "internalType": "address",
          "name": "owner",
          "type": "address"
        },
        {
          "internalType": "enum DeviceStatus",
          "name": "status",
          "type": "uint8"
        },
        {
          "internalType": "string",
          "name": "machineId",
          "type": "string"
        },
        {
          "internalType": "string",
          "name": "serverInfo",
          "type": "string"
        },
        {
          "components": [
            {
              "internalType": "uint256",
              "name": "serverPrice",
              "type": "uint256"
            },
            {
              "internalType": "uint256",
              "name": "storagePrice",
              "type": "uint256"
            },
            {
              "internalType": "uint256",
              "name": "upbandWidth",
              "type": "uint256"
            },
            {
              "internalType": "uint256",
              "name": "downbandWidth",
              "type": "uint256"
            }
          ],
          "internalType": "struct Price",
          "name": "price",
          "type": "tuple"
        }
      ],
      "stateMutability": "view",
      "type": "function"
    },
    {
      "inputs": [
        {
          "internalType": "uint256",
          "name": "_deviceId",
          "type": "uint256"
        }
      ],
      "name": "getDevice",
      "outputs": [
        {
          "components": [
            {
              "internalType": "uint256",
              "name": "id",
              "type": "uint256"
            },
            {
              "internalType": "address",
              "name": "owner",
              "type": "address"
            },
            {
              "internalType": "enum DeviceStatus",
              "name": "status",
              "type": "uint8"
            },
            {
              "internalType": "string",
              "name": "machineId",
              "type": "string"
            },
            {
              "internalType": "string",
              "name": "serverInfo",
              "type": "string"
            },
            {
              "components": [
                {
                  "internalType": "uint256",
                  "name": "serverPrice",
                  "type": "uint256"
                },
                {
                  "internalType": "uint256",
                  "name": "storagePrice",
                  "type": "uint256"
                },
                {
                  "internalType": "uint256",
                  "name": "upbandWidth",
                  "type": "uint256"
                },
                {
                  "internalType": "uint256",
                  "name": "downbandWidth",
                  "type": "uint256"
                }
              ],
              "internalType": "struct Price",
              "name": "price",
              "type": "tuple"
            }
          ],
          "internalType": "struct deviceInfo",
          "name": "",
          "type": "tuple"
        }
      ],
      "stateMutability": "view",
      "type": "function"
    },
    {
      "inputs": [
        {
          "internalType": "uint256",
          "name": "",
          "type": "uint256"
        }
      ],
      "name": "leaseProvider",
      "outputs": [
        {
          "internalType": "address",
          "name": "owner",
          "type": "address"
        },
        {
          "internalType": "uint256",
          "name": "leaseId",
          "type": "uint256"
        },
        {
          "internalType": "uint256",
          "name": "startTime",
          "type": "uint256"
        },
        {
          "internalType": "uint256",
          "name": "expireTime",
          "type": "uint256"
        },
        {
          "internalType": "uint256",
          "name": "deviceId",
          "type": "uint256"
        }
      ],
      "stateMutability": "view",
      "type": "function"
    },
    {
      "inputs": [
        {
          "internalType": "uint256",
          "name": "",
          "type": "uint256"
        }
      ],
      "name": "leaseRecipient",
      "outputs": [
        {
          "internalType": "address",
          "name": "owner",
          "type": "address"
        },
        {
          "internalType": "uint256",
          "name": "leaseId",
          "type": "uint256"
        },
        {
          "internalType": "uint256",
          "name": "startTime",
          "type": "uint256"
        },
        {
          "internalType": "uint256",
          "name": "expireTime",
          "type": "uint256"
        },
        {
          "internalType": "uint256",
          "name": "deviceId",
          "type": "uint256"
        }
      ],
      "stateMutability": "view",
      "type": "function"
    },
    {
      "inputs": [],
      "name": "platformSharingRatio",
      "outputs": [
        {
          "internalType": "uint8",
          "name": "",
          "type": "uint8"
        }
      ],
      "stateMutability": "view",
      "type": "function"
    },
    {
      "inputs": [
        {
          "internalType": "uint256",
          "name": "_startTime",
          "type": "uint256"
        },
        {
          "internalType": "uint256",
          "name": "_endTime",
          "type": "uint256"
        },
        {
          "components": [
            {
              "internalType": "uint256",
              "name": "serverPrice",
              "type": "uint256"
            },
            {
              "internalType": "uint256",
              "name": "storagePrice",
              "type": "uint256"
            },
            {
              "internalType": "uint256",
              "name": "upbandWidth",
              "type": "uint256"
            },
            {
              "internalType": "uint256",
              "name": "downbandWidth",
              "type": "uint256"
            }
          ],
          "internalType": "struct Price",
          "name": "_price",
          "type": "tuple"
        }
      ],
      "name": "providerStakeCalcute",
      "outputs": [
        {
          "internalType": "uint256",
          "name": "",
          "type": "uint256"
        }
      ],
      "stateMutability": "pure",
      "type": "function"
    },
    {
      "inputs": [
        {
          "internalType": "uint256",
          "name": "_startTime",
          "type": "uint256"
        },
        {
          "internalType": "uint256",
          "name": "_endTime",
          "type": "uint256"
        },
        {
          "components": [
            {
              "internalType": "uint256",
              "name": "serverPrice",
              "type": "uint256"
            },
            {
              "internalType": "uint256",
              "name": "storagePrice",
              "type": "uint256"
            },
            {
              "internalType": "uint256",
              "name": "upbandWidth",
              "type": "uint256"
            },
            {
              "internalType": "uint256",
              "name": "downbandWidth",
              "type": "uint256"
            }
          ],
          "internalType": "struct Price",
          "name": "_price",
          "type": "tuple"
        }
      ],
      "name": "recipientStakeCalcute",
      "outputs": [
        {
          "internalType": "uint256",
          "name": "",
          "type": "uint256"
        }
      ],
      "stateMutability": "pure",
      "type": "function"
    },
    {
      "inputs": [
        {
          "internalType": "uint256",
          "name": "_leaseId",
          "type": "uint256"
        }
      ],
      "name": "terminateLease",
      "outputs": [
        {
          "components": [
            {
              "internalType": "address",
              "name": "owner",
              "type": "address"
            },
            {
              "internalType": "uint256",
              "name": "leaseId",
              "type": "uint256"
            },
            {
              "internalType": "uint256",
              "name": "startTime",
              "type": "uint256"
            },
            {
              "internalType": "uint256",
              "name": "expireTime",
              "type": "uint256"
            },
            {
              "internalType": "uint256",
              "name": "deviceId",
              "type": "uint256"
            }
          ],
          "internalType": "struct leaseInfo",
          "name": "",
          "type": "tuple"
        }
      ],
      "stateMutability": "nonpayable",
      "type": "function"
    },
    {
      "inputs": [
        {
          "internalType": "uint256",
          "name": "_deviceId",
          "type": "uint256"
        }
      ],
      "name": "getLeaseByDeviceId",
      "outputs": [
        {
          "components": [
            {
              "internalType": "address",
              "name": "owner",
              "type": "address"
            },
            {
              "internalType": "uint256",
              "name": "leaseId",
              "type": "uint256"
            },
            {
              "internalType": "uint256",
              "name": "startTime",
              "type": "uint256"
            },
            {
              "internalType": "uint256",
              "name": "expireTime",
              "type": "uint256"
            },
            {
              "internalType": "uint256",
              "name": "deviceId",
              "type": "uint256"
            }
          ],
          "internalType": "struct leaseInfo",
          "name": "",
          "type": "tuple"
        }
      ],
      "stateMutability": "view",
      "type": "function"
    },
    {
      "inputs": [
        {
          "internalType": "string",
          "name": "a",
          "type": "string"
        },
        {
          "internalType": "string",
          "name": "b",
          "type": "string"
        }
      ],
      "name": "concatenateStrings",
      "outputs": [
        {
          "internalType": "string",
          "name": "",
          "type": "string"
        }
      ],
      "stateMutability": "pure",
      "type": "function"
    },
    {
      "inputs": [
        {
          "internalType": "uint256",
          "name": "number",
          "type": "uint256"
        }
      ],
      "name": "uintToString",
      "outputs": [
        {
          "internalType": "string",
          "name": "",
          "type": "string"
        }
      ],
      "stateMutability": "pure",
      "type": "function"
    }
  ],
  "bytecode": "0x60806040525f80555f6002555f6003555f60045f6101000a81548160ff021916908360ff160217905550348015610034575f80fd5b50611924806100425f395ff3fe608060405234801561000f575f80fd5b50600436106100a7575f3560e01c80637a36b3ee1161006f5780637a36b3ee146101a4578063a3a4aff4146101d4578063c46dcec514610204578063c74ce95c14610238578063d67b9afd14610256578063e939567914610286576100a7565b806309f110b1146100ab5780630b92426d146100db57806310ff8e311461010b57806311b800eb14610140578063588e00a514610174575b5f80fd5b6100c560048036038101906100c09190610e70565b6102b6565b6040516100d291906110c7565b60405180910390f35b6100f560048036038101906100f091906111d8565b610531565b6040516101029190611237565b60405180910390f35b61012560048036038101906101209190610e70565b610555565b60405161013796959493929190611309565b60405180910390f35b61015a60048036038101906101559190610e70565b610705565b60405161016b959493929190611377565b60405180910390f35b61018e60048036038101906101899190610e70565b610765565b60405161019b919061142e565b60405180910390f35b6101be60048036038101906101b991906114fb565b61085b565b6040516101cb9190611571565b60405180910390f35b6101ee60048036038101906101e991906111d8565b6109e4565b6040516101fb9190611237565b60405180910390f35b61021e60048036038101906102199190610e70565b610a36565b60405161022f959493929190611377565b60405180910390f35b610240610a96565b60405161024d91906115ac565b60405180910390f35b610270600480360381019061026b9190610e70565b610aa8565b60405161027d919061142e565b60405180910390f35b6102a0600480360381019061029b9190610e70565b610c00565b6040516102ad9190611571565b60405180910390f35b6102be610d67565b5f8211610300576040517f08c379a00000000000000000000000000000000000000000000000000000000081526004016102f79061160f565b60405180910390fd5b6001808361030e919061165a565b8154811061031f5761031e61168d565b5b905f5260205f2090600802016040518060c00160405290815f8201548152602001600182015f9054906101000a900473ffffffffffffffffffffffffffffffffffffffff1673ffffffffffffffffffffffffffffffffffffffff1673ffffffffffffffffffffffffffffffffffffffff1681526020016001820160149054906101000a900460ff1660038111156103b9576103b8610ee9565b5b60038111156103cb576103ca610ee9565b5b81526020016002820180546103df906116e7565b80601f016020809104026020016040519081016040528092919081815260200182805461040b906116e7565b80156104565780601f1061042d57610100808354040283529160200191610456565b820191905f5260205f20905b81548152906001019060200180831161043957829003601f168201915b5050505050815260200160038201805461046f906116e7565b80601f016020809104026020016040519081016040528092919081815260200182805461049b906116e7565b80156104e65780601f106104bd576101008083540402835291602001916104e6565b820191905f5260205f20905b8154815290600101906020018083116104c957829003601f168201915b50505050508152602001600482016040518060800160405290815f82015481526020016001820154815260200160028201548152602001600382015481525050815250509050919050565b5f838361053e919061165a565b825f015161054c9190611717565b90509392505050565b60018181548110610564575f80fd5b905f5260205f2090600802015f91509050805f015490806001015f9054906101000a900473ffffffffffffffffffffffffffffffffffffffff16908060010160149054906101000a900460ff16908060020180546105c1906116e7565b80601f01602080910402602001604051908101604052809291908181526020018280546105ed906116e7565b80156106385780601f1061060f57610100808354040283529160200191610638565b820191905f5260205f20905b81548152906001019060200180831161061b57829003601f168201915b50505050509080600301805461064d906116e7565b80601f0160208091040260200160405190810160405280929190818152602001828054610679906116e7565b80156106c45780601f1061069b576101008083540402835291602001916106c4565b820191905f5260205f20905b8154815290600101906020018083116106a757829003601f168201915b505050505090806004016040518060800160405290815f82015481526020016001820154815260200160028201548152602001600382015481525050905086565b60068181548110610714575f80fd5b905f5260205f2090600502015f91509050805f015f9054906101000a900473ffffffffffffffffffffffffffffffffffffffff16908060010154908060020154908060030154908060040154905085565b61076d610dc8565b42600660018461077d919061165a565b8154811061078e5761078d61168d565b5b905f5260205f2090600502016003018190555060066001836107b0919061165a565b815481106107c1576107c061168d565b5b905f5260205f2090600502016040518060a00160405290815f82015f9054906101000a900473ffffffffffffffffffffffffffffffffffffffff1673ffffffffffffffffffffffffffffffffffffffff1673ffffffffffffffffffffffffffffffffffffffff1681526020016001820154815260200160028201548152602001600382015481526020016004820154815250509050919050565b60605f8390505f8390505f815183516108749190611758565b67ffffffffffffffff81111561088d5761088c6110eb565b5b6040519080825280601f01601f1916602001820160405280156108bf5781602001600182028036833780820191505090505b5090505f805b845181101561094c578481815181106108e1576108e061168d565b5b602001015160f81c60f81b8383806108f89061178b565b94508151811061090b5761090a61168d565b5b60200101907effffffffffffffffffffffffffffffffffffffffffffffffffffffffffffff191690815f1a90535080806109449061178b565b9150506108c5565b505f5b83518110156109d65783818151811061096b5761096a61168d565b5b602001015160f81c60f81b8383806109829061178b565b9450815181106109955761099461168d565b5b60200101907effffffffffffffffffffffffffffffffffffffffffffffffffffffffffffff191690815f1a90535080806109ce9061178b565b91505061094f565b508194505050505092915050565b5f610e1084846109f4919061165a565b1115610a1257610e10825f0151610a0b9190611717565b9050610a2f565b8383610a1e919061165a565b825f0151610a2c9190611717565b90505b9392505050565b60058181548110610a45575f80fd5b905f5260205f2090600502015f91509050805f015f9054906101000a900473ffffffffffffffffffffffffffffffffffffffff16908060010154908060020154908060030154908060040154905085565b60045f9054906101000a900460ff1681565b610ab0610dc8565b5f6001600580549050610ac3919061165a565b90505b600580549050811015610bbf578260058281548110610ae857610ae761168d565b5b905f5260205f2090600502016004015403610bac5760058181548110610b1157610b1061168d565b5b905f5260205f2090600502016040518060a00160405290815f82015f9054906101000a900473ffffffffffffffffffffffffffffffffffffffff1673ffffffffffffffffffffffffffffffffffffffff1673ffffffffffffffffffffffffffffffffffffffff168152602001600182015481526020016002820154815260200160038201548152602001600482015481525050915050610bfb565b8080610bb7906117d2565b915050610ac6565b506040517f08c379a0000000000000000000000000000000000000000000000000000000008152600401610bf290611843565b60405180910390fd5b919050565b60605f8203610c46576040518060400160405280600181526020017f30000000000000000000000000000000000000000000000000000000000000008152509050610d62565b5f8290505f5b5f8214610c75578080610c5e9061178b565b915050600a82610c6e919061188e565b9150610c4c565b5f8167ffffffffffffffff811115610c9057610c8f6110eb565b5b6040519080825280601f01601f191660200182016040528015610cc25781602001600182028036833780820191505090505b5090505f600183610cd3919061165a565b90505b5f8614610d5a57600a86610cea91906118be565b6030610cf69190611758565b60f81b828280610d05906117d2565b935081518110610d1857610d1761168d565b5b60200101907effffffffffffffffffffffffffffffffffffffffffffffffffffffffffffff191690815f1a905350600a86610d53919061188e565b9550610cd6565b819450505050505b919050565b6040518060c001604052805f81526020015f73ffffffffffffffffffffffffffffffffffffffff1681526020015f6003811115610da757610da6610ee9565b5b81526020016060815260200160608152602001610dc2610e08565b81525090565b6040518060a001604052805f73ffffffffffffffffffffffffffffffffffffffff1681526020015f81526020015f81526020015f81526020015f81525090565b60405180608001604052805f81526020015f81526020015f81526020015f81525090565b5f604051905090565b5f80fd5b5f80fd5b5f819050919050565b610e4f81610e3d565b8114610e59575f80fd5b50565b5f81359050610e6a81610e46565b92915050565b5f60208284031215610e8557610e84610e35565b5b5f610e9284828501610e5c565b91505092915050565b610ea481610e3d565b82525050565b5f73ffffffffffffffffffffffffffffffffffffffff82169050919050565b5f610ed382610eaa565b9050919050565b610ee381610ec9565b82525050565b7f4e487b71000000000000000000000000000000000000000000000000000000005f52602160045260245ffd5b60048110610f2757610f26610ee9565b5b50565b5f819050610f3782610f16565b919050565b5f610f4682610f2a565b9050919050565b610f5681610f3c565b82525050565b5f81519050919050565b5f82825260208201905092915050565b5f5b83811015610f93578082015181840152602081019050610f78565b5f8484015250505050565b5f601f19601f8301169050919050565b5f610fb882610f5c565b610fc28185610f66565b9350610fd2818560208601610f76565b610fdb81610f9e565b840191505092915050565b608082015f820151610ffa5f850182610e9b565b50602082015161100d6020850182610e9b565b5060408201516110206040850182610e9b565b5060608201516110336060850182610e9b565b50505050565b5f61012083015f83015161104f5f860182610e9b565b5060208301516110626020860182610eda565b5060408301516110756040860182610f4d565b506060830151848203606086015261108d8282610fae565b915050608083015184820360808601526110a78282610fae565b91505060a08301516110bc60a0860182610fe6565b508091505092915050565b5f6020820190508181035f8301526110df8184611039565b905092915050565b5f80fd5b7f4e487b71000000000000000000000000000000000000000000000000000000005f52604160045260245ffd5b61112182610f9e565b810181811067ffffffffffffffff821117156111405761113f6110eb565b5b80604052505050565b5f611152610e2c565b905061115e8282611118565b919050565b5f60808284031215611178576111776110e7565b5b6111826080611149565b90505f61119184828501610e5c565b5f8301525060206111a484828501610e5c565b60208301525060406111b884828501610e5c565b60408301525060606111cc84828501610e5c565b60608301525092915050565b5f805f60c084860312156111ef576111ee610e35565b5b5f6111fc86828701610e5c565b935050602061120d86828701610e5c565b925050604061121e86828701611163565b9150509250925092565b61123181610e3d565b82525050565b5f60208201905061124a5f830184611228565b92915050565b61125981610ec9565b82525050565b61126881610f3c565b82525050565b5f82825260208201905092915050565b5f61128882610f5c565b611292818561126e565b93506112a2818560208601610f76565b6112ab81610f9e565b840191505092915050565b608082015f8201516112ca5f850182610e9b565b5060208201516112dd6020850182610e9b565b5060408201516112f06040850182610e9b565b5060608201516113036060850182610e9b565b50505050565b5f6101208201905061131d5f830189611228565b61132a6020830188611250565b611337604083018761125f565b8181036060830152611349818661127e565b9050818103608083015261135d818561127e565b905061136c60a08301846112b6565b979650505050505050565b5f60a08201905061138a5f830188611250565b6113976020830187611228565b6113a46040830186611228565b6113b16060830185611228565b6113be6080830184611228565b9695505050505050565b60a082015f8201516113dc5f850182610eda565b5060208201516113ef6020850182610e9b565b5060408201516114026040850182610e9b565b5060608201516114156060850182610e9b565b5060808201516114286080850182610e9b565b50505050565b5f60a0820190506114415f8301846113c8565b92915050565b5f80fd5b5f80fd5b5f67ffffffffffffffff821115611469576114686110eb565b5b61147282610f9e565b9050602081019050919050565b828183375f83830152505050565b5f61149f61149a8461144f565b611149565b9050828152602081018484840111156114bb576114ba61144b565b5b6114c684828561147f565b509392505050565b5f82601f8301126114e2576114e1611447565b5b81356114f284826020860161148d565b91505092915050565b5f806040838503121561151157611510610e35565b5b5f83013567ffffffffffffffff81111561152e5761152d610e39565b5b61153a858286016114ce565b925050602083013567ffffffffffffffff81111561155b5761155a610e39565b5b611567858286016114ce565b9150509250929050565b5f6020820190508181035f830152611589818461127e565b905092915050565b5f60ff82169050919050565b6115a681611591565b82525050565b5f6020820190506115bf5f83018461159d565b92915050565b7f6e656564206465766963655f6964203e203000000000000000000000000000005f82015250565b5f6115f960128361126e565b9150611604826115c5565b602082019050919050565b5f6020820190508181035f830152611626816115ed565b9050919050565b7f4e487b71000000000000000000000000000000000000000000000000000000005f52601160045260245ffd5b5f61166482610e3d565b915061166f83610e3d565b92508282039050818111156116875761168661162d565b5b92915050565b7f4e487b71000000000000000000000000000000000000000000000000000000005f52603260045260245ffd5b7f4e487b71000000000000000000000000000000000000000000000000000000005f52602260045260245ffd5b5f60028204905060018216806116fe57607f821691505b602082108103611711576117106116ba565b5b50919050565b5f61172182610e3d565b915061172c83610e3d565b925082820261173a81610e3d565b915082820484148315176117515761175061162d565b5b5092915050565b5f61176282610e3d565b915061176d83610e3d565b92508282019050808211156117855761178461162d565b5b92915050565b5f61179582610e3d565b91507fffffffffffffffffffffffffffffffffffffffffffffffffffffffffffffffff82036117c7576117c661162d565b5b600182019050919050565b5f6117dc82610e3d565b91505f82036117ee576117ed61162d565b5b600182039050919050565b7f63616e27742066696e64206c65617365210000000000000000000000000000005f82015250565b5f61182d60118361126e565b9150611838826117f9565b602082019050919050565b5f6020820190508181035f83015261185a81611821565b9050919050565b7f4e487b71000000000000000000000000000000000000000000000000000000005f52601260045260245ffd5b5f61189882610e3d565b91506118a383610e3d565b9250826118b3576118b2611861565b5b828204905092915050565b5f6118c882610e3d565b91506118d383610e3d565b9250826118e3576118e2611861565b5b82820690509291505056fea2646970667358221220bcad2684ed3cecdd03cf268742d462374b10c22c8c0fc8ef0777c44e87c465f164736f6c63430008150033",
  "immutableReferences": {},
  "source": "// SPDX-License-Identifier: SEE LICENSE IN LICENSE\npragma solidity ^0.8.0;\n\nimport \"./device.sol\";\n\nenum leaseType {Machine, Developer}\nenum billingStatus {UnPayed, Payed, UnValid}\nenum billingType {ProviderStake, DeveloperRent, TreasureBilling}\n\nstruct billingInfo {\n    address user;\n    // token, \n    uint id;\n    uint leaseId;\n    uint providerBlockedFund;\n    uint recipientBlockedFunds;\n    // \n    uint amount;  // , , lease\n    billingStatus status;\n    billingType billType;\n}\n\nstruct leaseInfo {\n    address owner;\n    uint leaseId;\n    uint startTime;\n    uint expireTime;\n    uint deviceId;\n}\n\ncontract Lease is Device {\n    uint private leaseId = 0;\n    uint private recipientLeaseId = 0;\n    uint8 public platformSharingRatio = 0;\n\n\n    leaseInfo [] public leaseProvider;\n    leaseInfo [] public leaseRecipient;\n    // leaseInfo [] public leaseDeveloper;\n\n    function onlineLease(address _owner, uint _devcieId, uint _startTime, uint _endTime) internal returns(uint){\n        leaseId = leaseId + 1;\n        // deviceInfo memory device = devices[_devcieId];\n        leaseProvider.push(leaseInfo(_owner, leaseId, _startTime, _endTime, _devcieId));\n        return leaseId;\n    }\n\n    function providerStakeCalcute(uint _startTime, uint _endTime, Price memory _price) pure public returns(uint) {\n        if ((_endTime - _startTime) > 3600) {\n            return _price.serverPrice * 3600;\n        }\n        return _price.serverPrice * (_endTime - _startTime);\n    }\n\n    function recipientStakeCalcute(uint _startTime, uint _endTime, Price memory _price) pure public returns(uint) {\n        return _price.serverPrice * (_endTime - _startTime);\n    }\n\n    function createRentLease(uint _deviceId, uint _startTime, uint _endTime) internal _curDeviceLease(_deviceId) returns (uint) {\n        recipientLeaseId = recipientLeaseId + 1;\n        leaseRecipient.push(leaseInfo(msg.sender, recipientLeaseId, _startTime, _endTime, _deviceId));\n        return recipientLeaseId;\n\n    }\n    function renewalRentLease(uint _leaseId, uint _endTime) internal returns (leaseInfo memory) {\n        // uint _period =  _endTime - leaseRecipient[_leaseId - 1].expireTime;\n        if (leaseRecipient[_leaseId - 1].expireTime < _endTime) {\n            leaseRecipient[_leaseId - 1].expireTime = _endTime;\n        }\n        return leaseRecipient[_leaseId - 1];\n    }\n\n    function terminateLease(uint _leaseId) public returns(leaseInfo memory) {\n        leaseRecipient[_leaseId - 1].expireTime = block.timestamp;\n        return leaseRecipient[_leaseId - 1];\n    }\n\n    function getLeaseByDeviceId(uint _deviceId) view public returns(leaseInfo memory) {\n        for (uint i = leaseProvider.length - 1; i < leaseProvider.length; i--) {\n            if (leaseProvider[i].deviceId == _deviceId) {\n                return leaseProvider[i];\n            }\n        }\n\n        revert(\"can't find lease!\");\n    }\n\n    modifier _curDeviceLease(uint _deviceId) {\n\n        // for (uint i = leaseRecipient.length - 1; i >= 0; i--) {\n        //     if (leaseRecipient[i].deviceId == _deviceId) {\n        //         require(leaseRecipient[i].expireTime > block.timestamp, \"device already has lease\");\n        //     }\n        // }\n        _;\n    }\n\n\n    function concatenateStrings(string memory a, string memory b) public pure returns (string memory) {\n        bytes memory strA = bytes(a);\n        bytes memory strB = bytes(b);\n\n        bytes memory result = new bytes(strA.length + strB.length);\n        \n        uint256 k = 0;\n        for (uint256 i = 0; i < strA.length; i++) {\n            result[k++] = strA[i];\n        }\n        \n        for (uint256 i = 0; i < strB.length; i++) {\n            result[k++] = strB[i];\n        }\n        \n        return string(result);\n    }\n\n    function uintToString(uint256 number) public pure returns (string memory) {\n        if (number == 0) {\n            return \"0\";\n        }\n        \n        uint256 temp = number;\n        uint256 digits;\n        \n        while (temp != 0) {\n            digits++;\n            temp /= 10;\n        }\n        \n        bytes memory buffer = new bytes(digits);\n        uint256 _index = digits - 1;\n        \n        while (number != 0) {\n            buffer[_index--] = bytes1(uint8(48 + number % 10));\n            number /= 10;\n        }\n        \n        return string(buffer);\n    }\n\n}\n\n// contract Billing is Lease{\n\n//     function settle(billingInfo memory _billingInfo) internal {\n\n//     }\n\n//     function invalid(billingInfo memory _billInfo) internal{\n\n//     }\n// }\n\ncontract Billing is Lease {\n    uint private providerBillingCounter = 0;\n    uint private recipientBillingCounter = 0;\n    billingInfo [] public providerBillings;\n    billingInfo [] public recipientBillings;\n\n    function getRecipientBillingByLeaseId(uint _leaseId) view public returns(billingInfo memory) {\n        for (uint i = 0; i < recipientBillings.length; i++) {\n            if (recipientBillings[i].leaseId == _leaseId) {\n                return providerBillings[i];\n            }\n        }\n        revert(\"can't find billing!\");\n    }\n    function getProviderBillingByLeaseId(uint _leaseId) view public returns(billingInfo memory) {\n        for (uint i = 0; i < providerBillings.length; i++) {\n            if (providerBillings[i].leaseId == _leaseId) {\n                return providerBillings[i];\n            }\n        }\n        revert(\"can't find billing!\");\n    }\n\n    function providerOfflineBilling(uint _billId) internal {\n        if (providerBillings[_billId - 1].status == billingStatus.Payed) {\n            revert(\"stake amount has already unblocked\");\n        }\n        providerBillings[_billId - 1].status = billingStatus.Payed;\n    }\n\n    function providerOnlineBilling(uint _leaseId, uint _stakeAmount) internal {\n        // , \n        providerBillingCounter = providerBillingCounter + 1;\n        providerBillings.push(billingInfo(msg.sender, providerBillingCounter, _leaseId, _stakeAmount, 0, 0, billingStatus.UnPayed, billingType.ProviderStake));\n    }\n\n    function createRentBilling(uint _leaseId, uint _stakeAmount) internal {\n\n        // , \n        recipientBillingCounter = recipientBillingCounter + 1;\n        recipientBillings.push(billingInfo(msg.sender, recipientBillingCounter, _leaseId, 0, _stakeAmount, 0, billingStatus.UnPayed, billingType.DeveloperRent));\n    }\n\n    function renewalRentBilling(uint _billId, uint _stakeAmount) internal returns (uint) {\n        if (_stakeAmount > recipientBillings[_billId - 1].recipientBlockedFunds) {\n            uint extraStakeAmount = _stakeAmount - recipientBillings[_billId - 1].recipientBlockedFunds;\n            recipientBillings[_billId - 1].recipientBlockedFunds = _stakeAmount;\n            return extraStakeAmount;\n        }\n        return 0;\n    }\n    \n    function terminateBilling(uint _billId, uint _stakeAmount) internal returns (uint){\n        \n        recipientBillings[_billId - 1].status = billingStatus.Payed;\n        recipientBillings[_billId - 1].amount = _stakeAmount;\n        return  recipientBillings[_billId - 1].recipientBlockedFunds;\n    }\n\n}\n\n\n// struct billingInfo {\n//     address user;\n//     // token, \n//     uint providerBlockedFund;\n//     uint recipientBlockedFunds;\n//     // \n//     uint amount;  // , , lease\n//     billingStatus status;\n//     billingType billType;\n// }",
  "sourcePath": "/Users/irongyi/solidity_project/apus_network_v0/contracts/lease.sol",
  "compiler": {
    "name": "solc",
    "version": "0.8.21+commit.d9974bed.Emscripten.clang"
  },
  "schemaVersion": "3.4.15",
  "updatedAt": "2023-09-08T05:49:41.998Z",
  "devdoc": {
    "kind": "dev",
    "methods": {},
    "version": 1
  },
  "userdoc": {
    "kind": "user",
    "methods": {},
    "version": 1
  }
}