{
  "contractName": "Market",
  "abi": [
    {
      "inputs": [
        {
          "internalType": "uint256",
          "name": "",
          "type": "uint256"
        }
      ],
      "name": "clients",
      "outputs": [
        {
          "internalType": "address",
          "name": "owner",
          "type": "address"
        },
        {
          "internalType": "uint256",
          "name": "id",
          "type": "uint256"
        },
        {
          "internalType": "string",
          "name": "url",
          "type": "string"
        },
        {
          "internalType": "uint256",
          "name": "minFee",
          "type": "uint256"
        },
        {
          "internalType": "uint8",
          "name": "maxZkEvmInstance",
          "type": "uint8"
        },
        {
          "internalType": "uint8",
          "name": "curInstance",
          "type": "uint8"
        }
      ],
      "stateMutability": "view",
      "type": "function",
      "constant": true
    },
    {
      "inputs": [
        {
          "components": [
            {
              "internalType": "address",
              "name": "owner",
              "type": "address"
            },
            {
              "internalType": "uint256",
              "name": "id",
              "type": "uint256"
            },
            {
              "internalType": "string",
              "name": "url",
              "type": "string"
            },
            {
              "internalType": "uint256",
              "name": "minFee",
              "type": "uint256"
            },
            {
              "internalType": "uint8",
              "name": "maxZkEvmInstance",
              "type": "uint8"
            },
            {
              "internalType": "uint8",
              "name": "curInstance",
              "type": "uint8"
            }
          ],
          "internalType": "struct ApusData.ClientConfig",
          "name": "cf",
          "type": "tuple"
        }
      ],
      "name": "joinMarket",
      "outputs": [],
      "stateMutability": "nonpayable",
      "type": "function"
    },
    {
      "inputs": [],
      "name": "getLowestN",
      "outputs": [
        {
          "internalType": "address",
          "name": "owner",
          "type": "address"
        },
        {
          "components": [
            {
              "internalType": "address",
              "name": "owner",
              "type": "address"
            },
            {
              "internalType": "uint256",
              "name": "id",
              "type": "uint256"
            },
            {
              "internalType": "string",
              "name": "url",
              "type": "string"
            },
            {
              "internalType": "uint256",
              "name": "minFee",
              "type": "uint256"
            },
            {
              "internalType": "uint8",
              "name": "maxZkEvmInstance",
              "type": "uint8"
            },
            {
              "internalType": "uint8",
              "name": "curInstance",
              "type": "uint8"
            }
          ],
          "internalType": "struct ApusData.ClientConfig",
          "name": "cf",
          "type": "tuple"
        }
      ],
      "stateMutability": "view",
      "type": "function",
      "constant": true
    },
    {
      "inputs": [
        {
          "internalType": "address",
          "name": "owner",
          "type": "address"
        },
        {
          "internalType": "uint256",
          "name": "clientID",
          "type": "uint256"
        }
      ],
      "name": "getProverConfig",
      "outputs": [
        {
          "components": [
            {
              "internalType": "address",
              "name": "owner",
              "type": "address"
            },
            {
              "internalType": "uint256",
              "name": "id",
              "type": "uint256"
            },
            {
              "internalType": "string",
              "name": "url",
              "type": "string"
            },
            {
              "internalType": "uint256",
              "name": "minFee",
              "type": "uint256"
            },
            {
              "internalType": "uint8",
              "name": "maxZkEvmInstance",
              "type": "uint8"
            },
            {
              "internalType": "uint8",
              "name": "curInstance",
              "type": "uint8"
            }
          ],
          "internalType": "struct ApusData.ClientConfig",
          "name": "cf",
          "type": "tuple"
        }
      ],
      "stateMutability": "view",
      "type": "function",
      "constant": true
    },
    {
      "inputs": [
        {
          "internalType": "address",
          "name": "owner",
          "type": "address"
        },
        {
          "internalType": "uint256",
          "name": "clientID",
          "type": "uint256"
        }
      ],
      "name": "dispatchTaskToClient",
      "outputs": [
        {
          "internalType": "bool",
          "name": "success",
          "type": "bool"
        }
      ],
      "stateMutability": "nonpayable",
      "type": "function"
    },
    {
      "inputs": [
        {
          "internalType": "address",
          "name": "owner",
          "type": "address"
        },
        {
          "internalType": "uint256",
          "name": "clientID",
          "type": "uint256"
        }
      ],
      "name": "releaseTaskToClient",
      "outputs": [
        {
          "internalType": "bool",
          "name": "",
          "type": "bool"
        }
      ],
      "stateMutability": "nonpayable",
      "type": "function"
    }
  ],
  "bytecode": "0x608060405234801561000f575f80fd5b506118138061001d5f395ff3fe608060405234801561000f575f80fd5b5060043610610060575f3560e01c80638c7c7b0d14610064578063ac45955914610094578063becb4cda146100c4578063c989b8e5146100f4578063f476b90d14610110578063f88af21d1461012f575b5f80fd5b61007e60048036038101906100799190610d41565b610164565b60405161008b9190610d99565b60405180910390f35b6100ae60048036038101906100a99190610d41565b610341565b6040516100bb9190610efb565b60405180910390f35b6100de60048036038101906100d99190610d41565b6105c7565b6040516100eb9190610d99565b60405180910390f35b61010e60048036038101906101099190611132565b6107a4565b005b610118610880565b604051610126929190611188565b60405180910390f35b610149600480360381019061014491906111b6565b610b52565b60405161015b96959493929190611247565b60405180910390f35b5f805f90505b5f805490508110156102ff578373ffffffffffffffffffffffffffffffffffffffff165f82815481106101a05761019f6112ad565b5b905f5260205f2090600502015f015f9054906101000a900473ffffffffffffffffffffffffffffffffffffffff1673ffffffffffffffffffffffffffffffffffffffff161480156102125750825f8281548110610200576101ff6112ad565b5b905f5260205f20906005020160010154145b156102ec575f818154811061022a576102296112ad565b5b905f5260205f2090600502016004015f9054906101000a900460ff1660ff165f828154811061025c5761025b6112ad565b5b905f5260205f20906005020160040160019054906101000a900460ff1660ff1610156102e35760015f8281548110610297576102966112ad565b5b905f5260205f20906005020160040160018282829054906101000a900460ff166102c19190611307565b92506101000a81548160ff021916908360ff160217905550600191505061033b565b5f91505061033b565b80806102f79061133b565b91505061016a565b506040517f08c379a0000000000000000000000000000000000000000000000000000000008152600401610332906113cc565b60405180910390fd5b92915050565b610349610c56565b610351610c56565b5f5b5f80549050811015610575578473ffffffffffffffffffffffffffffffffffffffff165f8281548110610389576103886112ad565b5b905f5260205f2090600502015f015f9054906101000a900473ffffffffffffffffffffffffffffffffffffffff1673ffffffffffffffffffffffffffffffffffffffff161480156103fb5750835f82815481106103e9576103e86112ad565b5b905f5260205f20906005020160010154145b15610562575f8181548110610413576104126112ad565b5b905f5260205f2090600502016040518060c00160405290815f82015f9054906101000a900473ffffffffffffffffffffffffffffffffffffffff1673ffffffffffffffffffffffffffffffffffffffff1673ffffffffffffffffffffffffffffffffffffffff1681526020016001820154815260200160028201805461049890611417565b80601f01602080910402602001604051908101604052809291908181526020018280546104c490611417565b801561050f5780601f106104e65761010080835404028352916020019161050f565b820191905f5260205f20905b8154815290600101906020018083116104f257829003601f168201915b5050505050815260200160038201548152602001600482015f9054906101000a900460ff1660ff1660ff1681526020016004820160019054906101000a900460ff1660ff1660ff16815250509150610575565b808061056d9061133b565b915050610353565b505f816040015151116105bd576040517f08c379a00000000000000000000000000000000000000000000000000000000081526004016105b490611491565b60405180910390fd5b8091505092915050565b5f805f90505b5f80549050811015610762578373ffffffffffffffffffffffffffffffffffffffff165f8281548110610603576106026112ad565b5b905f5260205f2090600502015f015f9054906101000a900473ffffffffffffffffffffffffffffffffffffffff1673ffffffffffffffffffffffffffffffffffffffff161480156106755750825f8281548110610663576106626112ad565b5b905f5260205f20906005020160010154145b1561074f575f80828154811061068e5761068d6112ad565b5b905f5260205f20906005020160040160019054906101000a900460ff1660ff16116106ee576040517f08c379a00000000000000000000000000000000000000000000000000000000081526004016106e59061151f565b60405180910390fd5b60015f8281548110610703576107026112ad565b5b905f5260205f20906005020160040160018282829054906101000a900460ff1661072d919061153d565b92506101000a81548160ff021916908360ff160217905550600191505061079e565b808061075a9061133b565b9150506105cd565b506040517f08c379a0000000000000000000000000000000000000000000000000000000008152600401610795906113cc565b60405180910390fd5b92915050565b5f81908060018154018082558091505060019003905f5260205f2090600502015f909190919091505f820151815f015f6101000a81548173ffffffffffffffffffffffffffffffffffffffff021916908373ffffffffffffffffffffffffffffffffffffffff16021790555060208201518160010155604082015181600201908161082f919061170e565b50606082015181600301556080820151816004015f6101000a81548160ff021916908360ff16021790555060a08201518160040160016101000a81548160ff021916908360ff160217905550505050565b5f610889610c56565b5f7fffffffffffffffffffffffffffffffffffffffffffffffffffffffffffffffff90506108b5610c56565b5f5b5f80549050811015610af2575f81815481106108d6576108d56112ad565b5b905f5260205f2090600502016004015f9054906101000a900460ff1660ff165f8281548110610908576109076112ad565b5b905f5260205f20906005020160040160019054906101000a900460ff1660ff161080156109575750825f8281548110610944576109436112ad565b5b905f5260205f2090600502016003015411155b15610adf575f818154811061096f5761096e6112ad565b5b905f5260205f2090600502016003015492505f8181548110610994576109936112ad565b5b905f5260205f2090600502016040518060c00160405290815f82015f9054906101000a900473ffffffffffffffffffffffffffffffffffffffff1673ffffffffffffffffffffffffffffffffffffffff1673ffffffffffffffffffffffffffffffffffffffff16815260200160018201548152602001600282018054610a1990611417565b80601f0160208091040260200160405190810160405280929190818152602001828054610a4590611417565b8015610a905780601f10610a6757610100808354040283529160200191610a90565b820191905f5260205f20905b815481529060010190602001808311610a7357829003601f168201915b5050505050815260200160038201548152602001600482015f9054906101000a900460ff1660ff1660ff1681526020016004820160019054906101000a900460ff1660ff1660ff168152505091505b8080610aea9061133b565b9150506108b7565b50806080015160ff168160a0015160ff1610610b43576040517f08c379a0000000000000000000000000000000000000000000000000000000008152600401610b3a90611491565b60405180910390fd5b805f0151819350935050509091565b5f8181548110610b60575f80fd5b905f5260205f2090600502015f91509050805f015f9054906101000a900473ffffffffffffffffffffffffffffffffffffffff1690806001015490806002018054610baa90611417565b80601f0160208091040260200160405190810160405280929190818152602001828054610bd690611417565b8015610c215780601f10610bf857610100808354040283529160200191610c21565b820191905f5260205f20905b815481529060010190602001808311610c0457829003601f168201915b505050505090806003015490806004015f9054906101000a900460ff16908060040160019054906101000a900460ff16905086565b6040518060c001604052805f73ffffffffffffffffffffffffffffffffffffffff1681526020015f8152602001606081526020015f81526020015f60ff1681526020015f60ff1681525090565b5f604051905090565b5f80fd5b5f80fd5b5f73ffffffffffffffffffffffffffffffffffffffff82169050919050565b5f610cdd82610cb4565b9050919050565b610ced81610cd3565b8114610cf7575f80fd5b50565b5f81359050610d0881610ce4565b92915050565b5f819050919050565b610d2081610d0e565b8114610d2a575f80fd5b50565b5f81359050610d3b81610d17565b92915050565b5f8060408385031215610d5757610d56610cac565b5b5f610d6485828601610cfa565b9250506020610d7585828601610d2d565b9150509250929050565b5f8115159050919050565b610d9381610d7f565b82525050565b5f602082019050610dac5f830184610d8a565b92915050565b610dbb81610cd3565b82525050565b610dca81610d0e565b82525050565b5f81519050919050565b5f82825260208201905092915050565b5f5b83811015610e07578082015181840152602081019050610dec565b5f8484015250505050565b5f601f19601f8301169050919050565b5f610e2c82610dd0565b610e368185610dda565b9350610e46818560208601610dea565b610e4f81610e12565b840191505092915050565b5f60ff82169050919050565b610e6f81610e5a565b82525050565b5f60c083015f830151610e8a5f860182610db2565b506020830151610e9d6020860182610dc1565b5060408301518482036040860152610eb58282610e22565b9150506060830151610eca6060860182610dc1565b506080830151610edd6080860182610e66565b5060a0830151610ef060a0860182610e66565b508091505092915050565b5f6020820190508181035f830152610f138184610e75565b905092915050565b5f80fd5b7f4e487b71000000000000000000000000000000000000000000000000000000005f52604160045260245ffd5b610f5582610e12565b810181811067ffffffffffffffff82111715610f7457610f73610f1f565b5b80604052505050565b5f610f86610ca3565b9050610f928282610f4c565b919050565b5f80fd5b5f80fd5b5f80fd5b5f67ffffffffffffffff821115610fbd57610fbc610f1f565b5b610fc682610e12565b9050602081019050919050565b828183375f83830152505050565b5f610ff3610fee84610fa3565b610f7d565b90508281526020810184848401111561100f5761100e610f9f565b5b61101a848285610fd3565b509392505050565b5f82601f83011261103657611035610f9b565b5b8135611046848260208601610fe1565b91505092915050565b61105881610e5a565b8114611062575f80fd5b50565b5f813590506110738161104f565b92915050565b5f60c0828403121561108e5761108d610f1b565b5b61109860c0610f7d565b90505f6110a784828501610cfa565b5f8301525060206110ba84828501610d2d565b602083015250604082013567ffffffffffffffff8111156110de576110dd610f97565b5b6110ea84828501611022565b60408301525060606110fe84828501610d2d565b606083015250608061111284828501611065565b60808301525060a061112684828501611065565b60a08301525092915050565b5f6020828403121561114757611146610cac565b5b5f82013567ffffffffffffffff81111561116457611163610cb0565b5b61117084828501611079565b91505092915050565b61118281610cd3565b82525050565b5f60408201905061119b5f830185611179565b81810360208301526111ad8184610e75565b90509392505050565b5f602082840312156111cb576111ca610cac565b5b5f6111d884828501610d2d565b91505092915050565b6111ea81610d0e565b82525050565b5f82825260208201905092915050565b5f61120a82610dd0565b61121481856111f0565b9350611224818560208601610dea565b61122d81610e12565b840191505092915050565b61124181610e5a565b82525050565b5f60c08201905061125a5f830189611179565b61126760208301886111e1565b81810360408301526112798187611200565b905061128860608301866111e1565b6112956080830185611238565b6112a260a0830184611238565b979650505050505050565b7f4e487b71000000000000000000000000000000000000000000000000000000005f52603260045260245ffd5b7f4e487b71000000000000000000000000000000000000000000000000000000005f52601160045260245ffd5b5f61131182610e5a565b915061131c83610e5a565b9250828201905060ff811115611335576113346112da565b5b92915050565b5f61134582610d0e565b91507fffffffffffffffffffffffffffffffffffffffffffffffffffffffffffffffff8203611377576113766112da565b5b600182019050919050565b7f436c69656e74206e6f7420666f756e64000000000000000000000000000000005f82015250565b5f6113b66010836111f0565b91506113c182611382565b602082019050919050565b5f6020820190508181035f8301526113e3816113aa565b9050919050565b7f4e487b71000000000000000000000000000000000000000000000000000000005f52602260045260245ffd5b5f600282049050600182168061142e57607f821691505b602082108103611441576114406113ea565b5b50919050565b7f4e6f206f6e6c696e6520636c69656e747320666f756e640000000000000000005f82015250565b5f61147b6017836111f0565b915061148682611447565b602082019050919050565b5f6020820190508181035f8301526114a88161146f565b9050919050565b7f4e6f207461736b7320746f2072656c6561736520666f72207468697320636c695f8201527f656e740000000000000000000000000000000000000000000000000000000000602082015250565b5f6115096023836111f0565b9150611514826114af565b604082019050919050565b5f6020820190508181035f830152611536816114fd565b9050919050565b5f61154782610e5a565b915061155283610e5a565b9250828203905060ff81111561156b5761156a6112da565b5b92915050565b5f819050815f5260205f209050919050565b5f6020601f8301049050919050565b5f82821b905092915050565b5f600883026115cd7fffffffffffffffffffffffffffffffffffffffffffffffffffffffffffffffff82611592565b6115d78683611592565b95508019841693508086168417925050509392505050565b5f819050919050565b5f61161261160d61160884610d0e565b6115ef565b610d0e565b9050919050565b5f819050919050565b61162b836115f8565b61163f61163782611619565b84845461159e565b825550505050565b5f90565b611653611647565b61165e818484611622565b505050565b5b81811015611681576116765f8261164b565b600181019050611664565b5050565b601f8211156116c65761169781611571565b6116a084611583565b810160208510156116af578190505b6116c36116bb85611583565b830182611663565b50505b505050565b5f82821c905092915050565b5f6116e65f19846008026116cb565b1980831691505092915050565b5f6116fe83836116d7565b9150826002028217905092915050565b61171782610dd0565b67ffffffffffffffff8111156117305761172f610f1f565b5b61173a8254611417565b611745828285611685565b5f60209050601f831160018114611776575f8415611764578287015190505b61176e85826116f3565b8655506117d5565b601f19841661178486611571565b5f5b828110156117ab57848901518255600182019150602085019450602081019050611786565b868310156117c857848901516117c4601f8916826116d7565b8355505b6001600288020188555050505b50505050505056fea26469706673582212204952b69d8a02cfe675f8cba98bff4c1dabbe4ff73134618bfbb127b35ab6de6864736f6c63430008140033",
  "immutableReferences": {},
  "source": "\n// SPDX-License-Identifier: MIT\npragma solidity ^0.8.20;\n\n// import \"./console.sol\";\nimport \"./ApusData.sol\";\n\n\ncontract Market {\n    // Search the n'st lowest price prover \n\n    ApusData.ClientConfig [] public clients;\n\n\n    // function get() public view returns(uint256){\n    //     uint256 count = 5;\n    //     // console.log('count: %d', count);\n    //     // console.log();\n    //     return count;\n    // }\n\n    function joinMarket(ApusData.ClientConfig memory cf) public {\n        clients.push(cf);\n        // console.log(\"market j\");\n    }\n\n    //NN == 1 \n   function getLowestN() public view returns(address owner, ApusData.ClientConfig memory cf) {\n\n    uint256 lowestFee = type(uint256).max;  // uint256\n    ApusData.ClientConfig memory cheapestClient;\n\n    // \n    for(uint i = 0; i < clients.length; i++) {\n        if(clients[i].curInstance < clients[i].maxZkEvmInstance   && clients[i].minFee <= lowestFee) {\n            lowestFee = clients[i].minFee;\n            cheapestClient = clients[i];\n        }\n    }\n\n    // \n    require(cheapestClient.curInstance < cheapestClient.maxZkEvmInstance, \"No online clients found\");\n    return (cheapestClient.owner, cheapestClient);\n   }\n\n   function getProverConfig(address owner, uint256 clientID) public view returns (ApusData.ClientConfig memory cf){\n    ApusData.ClientConfig memory clientConfig;\n    \n    // console.log('client count: %d', clients.length);\n    // console.log('client parameter count: %x', owner);\n    // console.log('clients[0] adress:: %x', clients[0].owner);\n        // \n    for(uint i = 0; i < clients.length; i++) {\n        if(clients[i].owner == owner  && clients[i].id == clientID) {\n            clientConfig = clients[i];\n            break;\n        }\n    }\n    \n    require(bytes(clientConfig.url).length > 0, \"No online clients found\");\n    return(clientConfig);\n   }\n\n   function dispatchTaskToClient(address owner, uint256 clientID) public returns (bool success) {\n        for (uint i = 0; i < clients.length; i++) {\n            if (clients[i].owner == owner && clients[i].id == clientID) {\n                if (clients[i].curInstance < clients[i].maxZkEvmInstance) {\n                    clients[i].curInstance += 1;  // Assigning a task to the client\n                    return true;\n                }\n                return false;  // The client can't take more tasks\n            }\n        }\n        revert(\"Client not found\");\n    }\n\n    function releaseTaskToClient(address owner, uint256 clientID) public returns (bool) {\n        for (uint i = 0; i < clients.length; i++) {\n            if (clients[i].owner == owner && clients[i].id == clientID) {\n                require(clients[i].curInstance > 0, \"No tasks to release for this client\");\n                clients[i].curInstance -= 1;  // Releasing a task from the client\n                return true;\n            }\n        }\n        revert(\"Client not found\");\n    }\n}",
  "sourcePath": "/Users/irongyi/solidity_project/apus_zkp_market/contracts/market.sol",
  "compiler": {
    "name": "solc",
    "version": "0.8.20+commit.a1b79de6.Emscripten.clang"
  },
  "schemaVersion": "3.4.16",
  "updatedAt": "2023-11-03T04:32:55.721Z",
  "networkType": "ethereum",
  "devdoc": {
    "kind": "dev",
    "methods": {},
    "version": 1
  },
  "userdoc": {
    "kind": "user",
    "methods": {},
    "version": 1
  }
}