{
  "contractName": "MarketLib",
  "abi": [
    {
      "inputs": [],
      "name": "PriceLowestN",
      "outputs": [],
      "stateMutability": "view",
      "type": "function"
    }
  ],
  "bytecode": "0x607661004c600b8282823980515f1a6073146040577f4e487b71000000000000000000000000000000000000000000000000000000005f525f60045260245ffd5b305f52607381538281f3fe73000000000000000000000000000000000000000030146080604052600436106032575f3560e01c8063c112a450146036575b5f80fd5b603c603e565b005b56fea2646970667358221220a1f6291b768c47bc8e337b4e26b5edf315b8edeedb8651b654a291d495d1524864736f6c63430008140033",
  "immutableReferences": {},
  "source": "// SPDX-License-Identifier: MIT\npragma solidity ^0.8.20;\n\nimport {ApusData} from \"./ApusData.sol\";\n\nlibrary MarketLib {\n    // Search the n'st lowest price prover \n    function PriceLowestN()  public view  {\n        // current version n must 1\n        // require(n == 1, \"invalid n != 1\");\n        // // ApusData.ClientConfig[] memory clients = new(ApusData.ClientConfig[]);\n        // ApusData.ClientConfig[] memory clients = new ApusData.ClientConfig[](n);\n\n        // // search lowest N\n        // for (uint i = 1; i <= pcs.length; i++){\n        //     for (uint j = 1; j <= pcs[i].clients.length; j++) {\n        //     }\n        // }\n    }\n}",
  "sourcePath": "/Users/irongyi/solidity_project/apus_zkp_market/contracts/LibMarket.sol",
  "compiler": {
    "name": "solc",
    "version": "0.8.20+commit.a1b79de6.Emscripten.clang"
  },
  "schemaVersion": "3.4.16",
  "updatedAt": "2023-11-03T04:30:46.149Z",
  "devdoc": {
    "kind": "dev",
    "methods": {},
    "version": 1
  },
  "userdoc": {
    "kind": "user",
    "methods": {},
    "version": 1
  }
}