{
  "contractName": "Recipient",
  "abi": [
    {
      "anonymous": false,
      "inputs": [
        {
          "indexed": true,
          "internalType": "address",
          "name": "previousOwner",
          "type": "address"
        },
        {
          "indexed": true,
          "internalType": "address",
          "name": "newOwner",
          "type": "address"
        }
      ],
      "name": "OwnershipTransferred",
      "type": "event"
    },
    {
      "inputs": [],
      "name": "cancellation",
      "outputs": [],
      "stateMutability": "nonpayable",
      "type": "function"
    },
    {
      "inputs": [],
      "name": "owner",
      "outputs": [
        {
          "internalType": "address",
          "name": "",
          "type": "address"
        }
      ],
      "stateMutability": "view",
      "type": "function"
    },
    {
      "inputs": [],
      "name": "register",
      "outputs": [
        {
          "components": [
            {
              "internalType": "address",
              "name": "addr",
              "type": "address"
            },
            {
              "internalType": "uint256",
              "name": "balance",
              "type": "uint256"
            },
            {
              "internalType": "uint256",
              "name": "providerBlockedFunds",
              "type": "uint256"
            },
            {
              "internalType": "uint256",
              "name": "recipientBlockedFunds",
              "type": "uint256"
            }
          ],
          "internalType": "struct AccountFactory.accountInfo",
          "name": "accountinfo",
          "type": "tuple"
        }
      ],
      "stateMutability": "nonpayable",
      "type": "function"
    },
    {
      "inputs": [],
      "name": "renounceOwnership",
      "outputs": [],
      "stateMutability": "nonpayable",
      "type": "function"
    },
    {
      "inputs": [],
      "name": "stake",
      "outputs": [],
      "stateMutability": "payable",
      "type": "function"
    },
    {
      "inputs": [
        {
          "internalType": "address",
          "name": "newOwner",
          "type": "address"
        }
      ],
      "name": "transferOwnership",
      "outputs": [],
      "stateMutability": "nonpayable",
      "type": "function"
    },
    {
      "inputs": [
        {
          "internalType": "uint256",
          "name": "amount",
          "type": "uint256"
        }
      ],
      "name": "unstake",
      "outputs": [],
      "stateMutability": "payable",
      "type": "function"
    },
    {
      "inputs": [],
      "name": "withdraw",
      "outputs": [],
      "stateMutability": "nonpayable",
      "type": "function"
    }
  ],
  "bytecode": "0x608060405234801561000f575f80fd5b5061002c61002161003160201b60201c565b61003860201b60201c565b6100f9565b5f33905090565b5f805f9054906101000a900473ffffffffffffffffffffffffffffffffffffffff169050815f806101000a81548173ffffffffffffffffffffffffffffffffffffffff021916908373ffffffffffffffffffffffffffffffffffffffff1602179055508173ffffffffffffffffffffffffffffffffffffffff168173ffffffffffffffffffffffffffffffffffffffff167f8be0079c531659141344cd1fd0a4f28419497f9722a3daafe3b4186f6b6457e060405160405180910390a35050565b610f59806101065f395ff3fe60806040526004361061007a575f3560e01c8063404050781161004d57806340405078146100e4578063715018a6146100fa5780638da5cb5b14610110578063f2fde38b1461013a5761007a565b80631aa3a0081461007e5780632e17de78146100a85780633a4b66f1146100c45780633ccfd60b146100ce575b5f80fd5b348015610089575f80fd5b50610092610162565b60405161009f9190610c33565b60405180910390f35b6100c260048036038101906100bd9190610c7a565b610387565b005b6100cc610563565b005b3480156100d9575f80fd5b506100e261079e565b005b3480156100ef575f80fd5b506100f8610867565b005b348015610105575f80fd5b5061010e6108e3565b005b34801561011b575f80fd5b5061012461096a565b6040516101319190610cb4565b60405180910390f35b348015610145575f80fd5b50610160600480360381019061015b9190610cf7565b610991565b005b61016a610b4f565b5f60015f3373ffffffffffffffffffffffffffffffffffffffff1673ffffffffffffffffffffffffffffffffffffffff1681526020019081526020015f2090505f73ffffffffffffffffffffffffffffffffffffffff16815f015f9054906101000a900473ffffffffffffffffffffffffffffffffffffffff1673ffffffffffffffffffffffffffffffffffffffff16036103035733815f015f6101000a81548173ffffffffffffffffffffffffffffffffffffffff021916908373ffffffffffffffffffffffffffffffffffffffff1602179055508060015f3373ffffffffffffffffffffffffffffffffffffffff1673ffffffffffffffffffffffffffffffffffffffff1681526020019081526020015f205f82015f9054906101000a900473ffffffffffffffffffffffffffffffffffffffff16815f015f6101000a81548173ffffffffffffffffffffffffffffffffffffffff021916908373ffffffffffffffffffffffffffffffffffffffff1602179055506001820154816001015560028201548160020155600382015481600301559050505b806040518060800160405290815f82015f9054906101000a900473ffffffffffffffffffffffffffffffffffffffff1673ffffffffffffffffffffffffffffffffffffffff1673ffffffffffffffffffffffffffffffffffffffff168152602001600182015481526020016002820154815260200160038201548152505091505090565b5f60015f3373ffffffffffffffffffffffffffffffffffffffff1673ffffffffffffffffffffffffffffffffffffffff1681526020019081526020015f206040518060800160405290815f82015f9054906101000a900473ffffffffffffffffffffffffffffffffffffffff1673ffffffffffffffffffffffffffffffffffffffff1673ffffffffffffffffffffffffffffffffffffffff16815260200160018201548152602001600282015481526020016003820154815250509050818160200151101561048b576040517f08c379a000000000000000000000000000000000000000000000000000000000815260040161048290610d7c565b60405180910390fd5b8160015f3373ffffffffffffffffffffffffffffffffffffffff1673ffffffffffffffffffffffffffffffffffffffff1681526020019081526020015f20600101546104d79190610dc7565b60015f3373ffffffffffffffffffffffffffffffffffffffff1673ffffffffffffffffffffffffffffffffffffffff1681526020019081526020015f20600101819055503373ffffffffffffffffffffffffffffffffffffffff166108fc8390811502906040515f60405180830381858888f1935050505015801561055e573d5f803e3d5ffd5b505050565b5f60015f3373ffffffffffffffffffffffffffffffffffffffff1673ffffffffffffffffffffffffffffffffffffffff1681526020019081526020015f2090505f73ffffffffffffffffffffffffffffffffffffffff16815f015f9054906101000a900473ffffffffffffffffffffffffffffffffffffffff1673ffffffffffffffffffffffffffffffffffffffff160361070a5733815f015f6101000a81548173ffffffffffffffffffffffffffffffffffffffff021916908373ffffffffffffffffffffffffffffffffffffffff1602179055503481600101819055508060015f3373ffffffffffffffffffffffffffffffffffffffff1673ffffffffffffffffffffffffffffffffffffffff1681526020019081526020015f205f82015f9054906101000a900473ffffffffffffffffffffffffffffffffffffffff16815f015f6101000a81548173ffffffffffffffffffffffffffffffffffffffff021916908373ffffffffffffffffffffffffffffffffffffffff1602179055506001820154816001015560028201548160020155600382015481600301559050505061079c565b3460015f3373ffffffffffffffffffffffffffffffffffffffff1673ffffffffffffffffffffffffffffffffffffffff1681526020019081526020015f20600101546107569190610dfa565b60015f3373ffffffffffffffffffffffffffffffffffffffff1673ffffffffffffffffffffffffffffffffffffffff1681526020019081526020015f2060010181905550505b565b6107a6610a87565b73ffffffffffffffffffffffffffffffffffffffff166107c461096a565b73ffffffffffffffffffffffffffffffffffffffff161461081a576040517f08c379a000000000000000000000000000000000000000000000000000000000815260040161081190610e77565b60405180910390fd5b61082261096a565b73ffffffffffffffffffffffffffffffffffffffff166108fc4790811502906040515f60405180830381858888f19350505050158015610864573d5f803e3d5ffd5b50565b60015f3373ffffffffffffffffffffffffffffffffffffffff1673ffffffffffffffffffffffffffffffffffffffff1681526020019081526020015f205f8082015f6101000a81549073ffffffffffffffffffffffffffffffffffffffff0219169055600182015f9055600282015f9055600382015f90555050565b6108eb610a87565b73ffffffffffffffffffffffffffffffffffffffff1661090961096a565b73ffffffffffffffffffffffffffffffffffffffff161461095f576040517f08c379a000000000000000000000000000000000000000000000000000000000815260040161095690610e77565b60405180910390fd5b6109685f610a8e565b565b5f805f9054906101000a900473ffffffffffffffffffffffffffffffffffffffff16905090565b610999610a87565b73ffffffffffffffffffffffffffffffffffffffff166109b761096a565b73ffffffffffffffffffffffffffffffffffffffff1614610a0d576040517f08c379a0000000000000000000000000000000000000000000000000000000008152600401610a0490610e77565b60405180910390fd5b5f73ffffffffffffffffffffffffffffffffffffffff168173ffffffffffffffffffffffffffffffffffffffff1603610a7b576040517f08c379a0000000000000000000000000000000000000000000000000000000008152600401610a7290610f05565b60405180910390fd5b610a8481610a8e565b50565b5f33905090565b5f805f9054906101000a900473ffffffffffffffffffffffffffffffffffffffff169050815f806101000a81548173ffffffffffffffffffffffffffffffffffffffff021916908373ffffffffffffffffffffffffffffffffffffffff1602179055508173ffffffffffffffffffffffffffffffffffffffff168173ffffffffffffffffffffffffffffffffffffffff167f8be0079c531659141344cd1fd0a4f28419497f9722a3daafe3b4186f6b6457e060405160405180910390a35050565b60405180608001604052805f73ffffffffffffffffffffffffffffffffffffffff1681526020015f81526020015f81526020015f81525090565b5f73ffffffffffffffffffffffffffffffffffffffff82169050919050565b5f610bb282610b89565b9050919050565b610bc281610ba8565b82525050565b5f819050919050565b610bda81610bc8565b82525050565b608082015f820151610bf45f850182610bb9565b506020820151610c076020850182610bd1565b506040820151610c1a6040850182610bd1565b506060820151610c2d6060850182610bd1565b50505050565b5f608082019050610c465f830184610be0565b92915050565b5f80fd5b610c5981610bc8565b8114610c63575f80fd5b50565b5f81359050610c7481610c50565b92915050565b5f60208284031215610c8f57610c8e610c4c565b5b5f610c9c84828501610c66565b91505092915050565b610cae81610ba8565b82525050565b5f602082019050610cc75f830184610ca5565b92915050565b610cd681610ba8565b8114610ce0575f80fd5b50565b5f81359050610cf181610ccd565b92915050565b5f60208284031215610d0c57610d0b610c4c565b5b5f610d1984828501610ce3565b91505092915050565b5f82825260208201905092915050565b7f616d6f756e74206e6f7420656e6f7567680000000000000000000000000000005f82015250565b5f610d66601183610d22565b9150610d7182610d32565b602082019050919050565b5f6020820190508181035f830152610d9381610d5a565b9050919050565b7f4e487b71000000000000000000000000000000000000000000000000000000005f52601160045260245ffd5b5f610dd182610bc8565b9150610ddc83610bc8565b9250828203905081811115610df457610df3610d9a565b5b92915050565b5f610e0482610bc8565b9150610e0f83610bc8565b9250828201905080821115610e2757610e26610d9a565b5b92915050565b7f4f776e61626c653a2063616c6c6572206973206e6f7420746865206f776e65725f82015250565b5f610e61602083610d22565b9150610e6c82610e2d565b602082019050919050565b5f6020820190508181035f830152610e8e81610e55565b9050919050565b7f4f776e61626c653a206e6577206f776e657220697320746865207a65726f20615f8201527f6464726573730000000000000000000000000000000000000000000000000000602082015250565b5f610eef602683610d22565b9150610efa82610e95565b604082019050919050565b5f6020820190508181035f830152610f1c81610ee3565b905091905056fea264697066735822122067130d638bef9e6be5329097bdefdd7acb472c427064b4d3f5a8d669edbfec5664736f6c63430008150033",
  "immutableReferences": {},
  "source": "// SPDX-License-Identifier: SEE LICENSE IN LICENSE\npragma solidity ^0.8.0;\nimport \"openzeppelin-solidity/contracts/access/Ownable.sol\";\ncontract AccountFactory is Ownable {\n\n    struct accountInfo {\n        address addr;\n        uint balance;\n        uint providerBlockedFunds;\n        uint recipientBlockedFunds;\n    }\n    mapping (address => accountInfo) ownerToAccount;\n\n    function register() public returns (accountInfo memory accountinfo) {\n        accountInfo storage info = ownerToAccount[msg.sender];\n        // key\n        if (info.addr == address(0)) {\n            info.addr = msg.sender;\n            ownerToAccount[msg.sender] = info;\n        }\n        return info;\n    }\n\n    function withdraw() public onlyOwner {\n        payable(owner()).transfer(address(this).balance);\n    }\n\n    function cancellation() public  {\n        delete(ownerToAccount[msg.sender]);\n    }\n\n    // \n    function stake() payable public {\n        accountInfo storage info = ownerToAccount[msg.sender];\n        if (info.addr == address(0)) {\n            info.addr = msg.sender;\n            info.balance = msg.value;\n            ownerToAccount[msg.sender] = info;\n            return ;\n        }\n        ownerToAccount[msg.sender].balance = ownerToAccount[msg.sender].balance + msg.value;\n    }\n\n    function unstake(uint amount) payable public {\n        accountInfo memory info = ownerToAccount[msg.sender];\n        require(info.balance >= amount, \"amount not enough\");\n        ownerToAccount[msg.sender].balance = ownerToAccount[msg.sender].balance - amount;\n        payable(msg.sender).transfer(amount);\n    }\n\n    // modifier _needAccountExist(address _user) {\n    //     require(ownerToAccount[_user].addr == address(0), \"need register first\");\n    //     _;\n    // }\n}\n\ncontract Provider is AccountFactory {\n    // \n    function blockOnlineFund(uint _amout) internal {\n    }\n\n    // \n    function unblockOfflineFund(uint _amout) internal {\n    }\n}\n\ncontract Recipient is AccountFactory {\n    // \n    function blockRentFund(uint amount) internal {\n\n    }\n\n    //     \n    function blockRenewalFund(uint period) internal {\n\n    }\n\n    // \n    function settleFund(uint period) internal {\n        \n    }\n\n}",
  "sourcePath": "/Users/irongyi/solidity_project/apus_network_v0/contracts/account.sol",
  "compiler": {
    "name": "solc",
    "version": "0.8.21+commit.d9974bed.Emscripten.clang"
  },
  "schemaVersion": "3.4.15",
  "updatedAt": "2023-08-29T08:20:51.429Z",
  "devdoc": {
    "kind": "dev",
    "methods": {
      "owner()": {
        "details": "Returns the address of the current owner."
      },
      "renounceOwnership()": {
        "details": "Leaves the contract without owner. It will not be possible to call `onlyOwner` functions anymore. Can only be called by the current owner. NOTE: Renouncing ownership will leave the contract without an owner, thereby removing any functionality that is only available to the owner."
      },
      "transferOwnership(address)": {
        "details": "Transfers ownership of the contract to a new account (`newOwner`). Can only be called by the current owner."
      }
    },
    "version": 1
  },
  "userdoc": {
    "kind": "user",
    "methods": {},
    "version": 1
  }
}